{
	"Debuggable.sol": {
		"Debuggable": {
			"abi": [
				{
					"constant": true,
					"inputs": [],
					"name": "owner",
					"outputs": [
						{
							"name": "",
							"type": "address"
						}
					],
					"payable": false,
					"stateMutability": "view",
					"type": "function"
				},
				{
					"constant": false,
					"inputs": [],
					"name": "Kill",
					"outputs": [],
					"payable": false,
					"stateMutability": "nonpayable",
					"type": "function"
				},
				{
					"inputs": [],
					"payable": false,
					"stateMutability": "nonpayable",
					"type": "constructor"
				},
				{
					"anonymous": false,
					"inputs": [
						{
							"indexed": false,
							"name": "marker",
							"type": "string"
						},
						{
							"indexed": false,
							"name": "data",
							"type": "uint256"
						}
					],
					"name": "DebugEvent",
					"type": "event"
				},
				{
					"anonymous": false,
					"inputs": [
						{
							"indexed": false,
							"name": "marker",
							"type": "string"
						},
						{
							"indexed": false,
							"name": "data",
							"type": "uint256[]"
						}
					],
					"name": "DebugEvent2",
					"type": "event"
				}
			],
			"devdoc": {
				"methods": {}
			},
			"evm": {
				"assembly": "    /* \"Debuggable.sol\":28:465  contract Debuggable {\r... */\n  mstore(0x40, 0x80)\n    /* \"Debuggable.sol\":106:164  constructor() public {\r... */\n  callvalue\n    /* \"--CODEGEN--\":8:17   */\n  dup1\n    /* \"--CODEGEN--\":5:7   */\n  iszero\n  tag_1\n  jumpi\n    /* \"--CODEGEN--\":30:31   */\n  0x0\n    /* \"--CODEGEN--\":27:28   */\n  dup1\n    /* \"--CODEGEN--\":20:32   */\n  revert\n    /* \"--CODEGEN--\":5:7   */\ntag_1:\n    /* \"Debuggable.sol\":106:164  constructor() public {\r... */\n  pop\n    /* \"Debuggable.sol\":146:156  msg.sender */\n  caller\n    /* \"Debuggable.sol\":138:143  owner */\n  0x0\n  dup1\n    /* \"Debuggable.sol\":138:156  owner = msg.sender */\n  0x100\n  exp\n  dup2\n  sload\n  dup2\n  0xffffffffffffffffffffffffffffffffffffffff\n  mul\n  not\n  and\n  swap1\n  dup4\n  0xffffffffffffffffffffffffffffffffffffffff\n  and\n  mul\n  or\n  swap1\n  sstore\n  pop\n    /* \"Debuggable.sol\":28:465  contract Debuggable {\r... */\n  dataSize(sub_0)\n  dup1\n  dataOffset(sub_0)\n  0x0\n  codecopy\n  0x0\n  return\nstop\n\nsub_0: assembly {\n        /* \"Debuggable.sol\":28:465  contract Debuggable {\r... */\n      mstore(0x40, 0x80)\n      jumpi(tag_1, lt(calldatasize, 0x4))\n      calldataload(0x0)\n      0x100000000000000000000000000000000000000000000000000000000\n      swap1\n      div\n      0xffffffff\n      and\n      dup1\n      0x8da5cb5b\n      eq\n      tag_2\n      jumpi\n      dup1\n      0xbe26733c\n      eq\n      tag_3\n      jumpi\n    tag_1:\n      0x0\n      dup1\n      revert\n        /* \"Debuggable.sol\":73:93  address public owner */\n    tag_2:\n      callvalue\n        /* \"--CODEGEN--\":8:17   */\n      dup1\n        /* \"--CODEGEN--\":5:7   */\n      iszero\n      tag_4\n      jumpi\n        /* \"--CODEGEN--\":30:31   */\n      0x0\n        /* \"--CODEGEN--\":27:28   */\n      dup1\n        /* \"--CODEGEN--\":20:32   */\n      revert\n        /* \"--CODEGEN--\":5:7   */\n    tag_4:\n        /* \"Debuggable.sol\":73:93  address public owner */\n      pop\n      tag_5\n      jump(tag_6)\n    tag_5:\n      mload(0x40)\n      dup1\n      dup3\n      0xffffffffffffffffffffffffffffffffffffffff\n      and\n      0xffffffffffffffffffffffffffffffffffffffff\n      and\n      dup2\n      mstore\n      0x20\n      add\n      swap2\n      pop\n      pop\n      mload(0x40)\n      dup1\n      swap2\n      sub\n      swap1\n      return\n        /* \"Debuggable.sol\":288:358  function Kill() public ownerOnly {\r... */\n    tag_3:\n      callvalue\n        /* \"--CODEGEN--\":8:17   */\n      dup1\n        /* \"--CODEGEN--\":5:7   */\n      iszero\n      tag_7\n      jumpi\n        /* \"--CODEGEN--\":30:31   */\n      0x0\n        /* \"--CODEGEN--\":27:28   */\n      dup1\n        /* \"--CODEGEN--\":20:32   */\n      revert\n        /* \"--CODEGEN--\":5:7   */\n    tag_7:\n        /* \"Debuggable.sol\":288:358  function Kill() public ownerOnly {\r... */\n      pop\n      tag_8\n      jump(tag_9)\n    tag_8:\n      stop\n        /* \"Debuggable.sol\":73:93  address public owner */\n    tag_6:\n      0x0\n      dup1\n      swap1\n      sload\n      swap1\n      0x100\n      exp\n      swap1\n      div\n      0xffffffffffffffffffffffffffffffffffffffff\n      and\n      dup2\n      jump\t// out\n        /* \"Debuggable.sol\":288:358  function Kill() public ownerOnly {\r... */\n    tag_9:\n        /* \"Debuggable.sol\":226:231  owner */\n      0x0\n      dup1\n      swap1\n      sload\n      swap1\n      0x100\n      exp\n      swap1\n      div\n      0xffffffffffffffffffffffffffffffffffffffff\n      and\n        /* \"Debuggable.sol\":212:231  msg.sender != owner */\n      0xffffffffffffffffffffffffffffffffffffffff\n      and\n        /* \"Debuggable.sol\":212:222  msg.sender */\n      caller\n        /* \"Debuggable.sol\":212:231  msg.sender != owner */\n      0xffffffffffffffffffffffffffffffffffffffff\n      and\n      eq\n      iszero\n        /* \"Debuggable.sol\":211:248  (msg.sender != owner) && (owner != 0) */\n      dup1\n      iszero\n      tag_11\n      jumpi\n      pop\n        /* \"Debuggable.sol\":246:247  0 */\n      0x0\n        /* \"Debuggable.sol\":237:242  owner */\n      dup1\n      0x0\n      swap1\n      sload\n      swap1\n      0x100\n      exp\n      swap1\n      div\n      0xffffffffffffffffffffffffffffffffffffffff\n      and\n        /* \"Debuggable.sol\":237:247  owner != 0 */\n      0xffffffffffffffffffffffffffffffffffffffff\n      and\n      eq\n      iszero\n        /* \"Debuggable.sol\":211:248  (msg.sender != owner) && (owner != 0) */\n    tag_11:\n        /* \"Debuggable.sol\":206:259  if ( (msg.sender != owner) && (owner != 0) ) revert() */\n      iszero\n      tag_12\n      jumpi\n        /* \"Debuggable.sol\":251:259  revert() */\n      0x0\n      dup1\n      revert\n        /* \"Debuggable.sol\":206:259  if ( (msg.sender != owner) && (owner != 0) ) revert() */\n    tag_12:\n        /* \"Debuggable.sol\":342:352  msg.sender */\n      caller\n        /* \"Debuggable.sol\":329:353  selfdestruct(msg.sender) */\n      0xffffffffffffffffffffffffffffffffffffffff\n      and\n      selfdestruct\n\n    auxdata: 0xa165627a7a72305820d06ecf519f78c0d6ee0f8af0d70730fa00ac2da4eeac0f6a22561d2aec7c0e2d0029\n}\n",
				"bytecode": {
					"linkReferences": {},
					"object": "608060405234801561001057600080fd5b50336000806101000a81548173ffffffffffffffffffffffffffffffffffffffff021916908373ffffffffffffffffffffffffffffffffffffffff1602179055506101c8806100606000396000f30060806040526004361061004c576000357c0100000000000000000000000000000000000000000000000000000000900463ffffffff1680638da5cb5b14610051578063be26733c146100a8575b600080fd5b34801561005d57600080fd5b506100666100bf565b604051808273ffffffffffffffffffffffffffffffffffffffff1673ffffffffffffffffffffffffffffffffffffffff16815260200191505060405180910390f35b3480156100b457600080fd5b506100bd6100e4565b005b6000809054906101000a900473ffffffffffffffffffffffffffffffffffffffff1681565b6000809054906101000a900473ffffffffffffffffffffffffffffffffffffffff1673ffffffffffffffffffffffffffffffffffffffff163373ffffffffffffffffffffffffffffffffffffffff1614158015610179575060008060009054906101000a900473ffffffffffffffffffffffffffffffffffffffff1673ffffffffffffffffffffffffffffffffffffffff1614155b1561018357600080fd5b3373ffffffffffffffffffffffffffffffffffffffff16ff00a165627a7a72305820d06ecf519f78c0d6ee0f8af0d70730fa00ac2da4eeac0f6a22561d2aec7c0e2d0029",
					"opcodes": "PUSH1 0x80 PUSH1 0x40 MSTORE CALLVALUE DUP1 ISZERO PUSH2 0x10 JUMPI PUSH1 0x0 DUP1 REVERT JUMPDEST POP CALLER PUSH1 0x0 DUP1 PUSH2 0x100 EXP DUP2 SLOAD DUP2 PUSH20 0xFFFFFFFFFFFFFFFFFFFFFFFFFFFFFFFFFFFFFFFF MUL NOT AND SWAP1 DUP4 PUSH20 0xFFFFFFFFFFFFFFFFFFFFFFFFFFFFFFFFFFFFFFFF AND MUL OR SWAP1 SSTORE POP PUSH2 0x1C8 DUP1 PUSH2 0x60 PUSH1 0x0 CODECOPY PUSH1 0x0 RETURN STOP PUSH1 0x80 PUSH1 0x40 MSTORE PUSH1 0x4 CALLDATASIZE LT PUSH2 0x4C JUMPI PUSH1 0x0 CALLDATALOAD PUSH29 0x100000000000000000000000000000000000000000000000000000000 SWAP1 DIV PUSH4 0xFFFFFFFF AND DUP1 PUSH4 0x8DA5CB5B EQ PUSH2 0x51 JUMPI DUP1 PUSH4 0xBE26733C EQ PUSH2 0xA8 JUMPI JUMPDEST PUSH1 0x0 DUP1 REVERT JUMPDEST CALLVALUE DUP1 ISZERO PUSH2 0x5D JUMPI PUSH1 0x0 DUP1 REVERT JUMPDEST POP PUSH2 0x66 PUSH2 0xBF JUMP JUMPDEST PUSH1 0x40 MLOAD DUP1 DUP3 PUSH20 0xFFFFFFFFFFFFFFFFFFFFFFFFFFFFFFFFFFFFFFFF AND PUSH20 0xFFFFFFFFFFFFFFFFFFFFFFFFFFFFFFFFFFFFFFFF AND DUP2 MSTORE PUSH1 0x20 ADD SWAP2 POP POP PUSH1 0x40 MLOAD DUP1 SWAP2 SUB SWAP1 RETURN JUMPDEST CALLVALUE DUP1 ISZERO PUSH2 0xB4 JUMPI PUSH1 0x0 DUP1 REVERT JUMPDEST POP PUSH2 0xBD PUSH2 0xE4 JUMP JUMPDEST STOP JUMPDEST PUSH1 0x0 DUP1 SWAP1 SLOAD SWAP1 PUSH2 0x100 EXP SWAP1 DIV PUSH20 0xFFFFFFFFFFFFFFFFFFFFFFFFFFFFFFFFFFFFFFFF AND DUP2 JUMP JUMPDEST PUSH1 0x0 DUP1 SWAP1 SLOAD SWAP1 PUSH2 0x100 EXP SWAP1 DIV PUSH20 0xFFFFFFFFFFFFFFFFFFFFFFFFFFFFFFFFFFFFFFFF AND PUSH20 0xFFFFFFFFFFFFFFFFFFFFFFFFFFFFFFFFFFFFFFFF AND CALLER PUSH20 0xFFFFFFFFFFFFFFFFFFFFFFFFFFFFFFFFFFFFFFFF AND EQ ISZERO DUP1 ISZERO PUSH2 0x179 JUMPI POP PUSH1 0x0 DUP1 PUSH1 0x0 SWAP1 SLOAD SWAP1 PUSH2 0x100 EXP SWAP1 DIV PUSH20 0xFFFFFFFFFFFFFFFFFFFFFFFFFFFFFFFFFFFFFFFF AND PUSH20 0xFFFFFFFFFFFFFFFFFFFFFFFFFFFFFFFFFFFFFFFF AND EQ ISZERO JUMPDEST ISZERO PUSH2 0x183 JUMPI PUSH1 0x0 DUP1 REVERT JUMPDEST CALLER PUSH20 0xFFFFFFFFFFFFFFFFFFFFFFFFFFFFFFFFFFFFFFFF AND SELFDESTRUCT STOP LOG1 PUSH6 0x627A7A723058 KECCAK256 0xd0 PUSH15 0xCF519F78C0D6EE0F8AF0D70730FA00 0xac 0x2d LOG4 0xee 0xac 0xf PUSH11 0x22561D2AEC7C0E2D002900 "
				},
				"gasEstimates": {
					"creation": {
						"codeDepositCost": "91200",
						"executionCost": "20407",
						"totalCost": "111607"
					},
					"external": {
						"Kill()": "30706",
						"owner()": "442"
					}
				},
				"methodIdentifiers": {
					"Kill()": "be26733c",
					"owner()": "8da5cb5b"
				}
			},
			"userdoc": {
				"methods": {}
			}
		}
	}
}