{
	"MLSAGVerify.sol": {
		"MLSAGVerify": {
			"abi": [
				{
					"constant": true,
					"inputs": [
						{
							"name": "msgHash",
							"type": "uint256"
						},
						{
							"name": "P",
							"type": "uint256[]"
						},
						{
							"name": "signature",
							"type": "uint256[]"
						}
					],
					"name": "VerifySAG_Compressed",
					"outputs": [
						{
							"name": "success",
							"type": "bool"
						}
					],
					"payable": false,
					"stateMutability": "view",
					"type": "function"
				},
				{
					"constant": true,
					"inputs": [
						{
							"name": "msgHash",
							"type": "uint256"
						},
						{
							"name": "I",
							"type": "uint256[]"
						},
						{
							"name": "P",
							"type": "uint256[]"
						},
						{
							"name": "signature",
							"type": "uint256[]"
						}
					],
					"name": "VerifyMLSAG_Compressed",
					"outputs": [
						{
							"name": "success",
							"type": "bool"
						}
					],
					"payable": false,
					"stateMutability": "view",
					"type": "function"
				},
				{
					"constant": true,
					"inputs": [
						{
							"name": "msgHash",
							"type": "uint256"
						},
						{
							"name": "I",
							"type": "uint256[]"
						},
						{
							"name": "P",
							"type": "uint256[]"
						},
						{
							"name": "signature",
							"type": "uint256[]"
						}
					],
					"name": "VerifyLSAG",
					"outputs": [
						{
							"name": "success",
							"type": "bool"
						}
					],
					"payable": false,
					"stateMutability": "view",
					"type": "function"
				},
				{
					"constant": true,
					"inputs": [
						{
							"name": "msgHash",
							"type": "uint256"
						},
						{
							"name": "alpha",
							"type": "uint256"
						}
					],
					"name": "StartRing",
					"outputs": [
						{
							"name": "ckp",
							"type": "uint256"
						}
					],
					"payable": false,
					"stateMutability": "view",
					"type": "function"
				},
				{
					"constant": true,
					"inputs": [
						{
							"name": "alpha",
							"type": "uint256"
						},
						{
							"name": "P",
							"type": "uint256[2]"
						}
					],
					"name": "StartLinkableRing_NoHash",
					"outputs": [
						{
							"name": "Lout",
							"type": "uint256[2]"
						},
						{
							"name": "Rout",
							"type": "uint256[2]"
						}
					],
					"payable": false,
					"stateMutability": "view",
					"type": "function"
				},
				{
					"constant": true,
					"inputs": [
						{
							"name": "ck",
							"type": "uint256"
						},
						{
							"name": "sk",
							"type": "uint256"
						},
						{
							"name": "P",
							"type": "uint256[2]"
						}
					],
					"name": "CalculateRingSegment_NoHash",
					"outputs": [
						{
							"name": "Pout",
							"type": "uint256[2]"
						}
					],
					"payable": false,
					"stateMutability": "view",
					"type": "function"
				},
				{
					"constant": true,
					"inputs": [
						{
							"name": "msgHash",
							"type": "uint256"
						},
						{
							"name": "alpha",
							"type": "uint256"
						},
						{
							"name": "P",
							"type": "uint256[2]"
						}
					],
					"name": "StartLinkableRing",
					"outputs": [
						{
							"name": "ckp",
							"type": "uint256"
						}
					],
					"payable": false,
					"stateMutability": "view",
					"type": "function"
				},
				{
					"constant": true,
					"inputs": [
						{
							"name": "m",
							"type": "uint256"
						},
						{
							"name": "msgHash",
							"type": "uint256"
						},
						{
							"name": "P",
							"type": "uint256[]"
						},
						{
							"name": "signature",
							"type": "uint256[]"
						}
					],
					"name": "VerifyMSAG_Compressed",
					"outputs": [
						{
							"name": "success",
							"type": "bool"
						}
					],
					"payable": false,
					"stateMutability": "view",
					"type": "function"
				},
				{
					"constant": true,
					"inputs": [
						{
							"name": "array",
							"type": "uint256[]"
						}
					],
					"name": "Keccak256OfArray",
					"outputs": [
						{
							"name": "out",
							"type": "uint256"
						}
					],
					"payable": false,
					"stateMutability": "view",
					"type": "function"
				},
				{
					"constant": true,
					"inputs": [
						{
							"name": "m",
							"type": "uint256"
						},
						{
							"name": "msgHash",
							"type": "uint256"
						},
						{
							"name": "P",
							"type": "uint256[]"
						},
						{
							"name": "signature",
							"type": "uint256[]"
						}
					],
					"name": "VerifyMSAG",
					"outputs": [
						{
							"name": "success",
							"type": "bool"
						}
					],
					"payable": false,
					"stateMutability": "view",
					"type": "function"
				},
				{
					"constant": true,
					"inputs": [
						{
							"name": "alpha",
							"type": "uint256"
						},
						{
							"name": "c",
							"type": "uint256"
						},
						{
							"name": "xk",
							"type": "uint256"
						}
					],
					"name": "CompleteRing",
					"outputs": [
						{
							"name": "s",
							"type": "uint256"
						}
					],
					"payable": false,
					"stateMutability": "view",
					"type": "function"
				},
				{
					"constant": true,
					"inputs": [
						{
							"name": "msgHash",
							"type": "uint256"
						},
						{
							"name": "left",
							"type": "uint256[2]"
						},
						{
							"name": "right",
							"type": "uint256[2]"
						}
					],
					"name": "LinkableRingHashFunction",
					"outputs": [
						{
							"name": "h",
							"type": "uint256"
						}
					],
					"payable": false,
					"stateMutability": "view",
					"type": "function"
				},
				{
					"constant": true,
					"inputs": [
						{
							"name": "msgHash",
							"type": "uint256"
						},
						{
							"name": "point",
							"type": "uint256[2]"
						}
					],
					"name": "RingHashFunction",
					"outputs": [
						{
							"name": "h",
							"type": "uint256"
						}
					],
					"payable": false,
					"stateMutability": "view",
					"type": "function"
				},
				{
					"constant": true,
					"inputs": [
						{
							"name": "ck",
							"type": "uint256"
						},
						{
							"name": "sk",
							"type": "uint256"
						},
						{
							"name": "P",
							"type": "uint256[2]"
						},
						{
							"name": "I",
							"type": "uint256[2]"
						}
					],
					"name": "CalculateLinkableRingSegment_NoHash",
					"outputs": [
						{
							"name": "Lout",
							"type": "uint256[2]"
						},
						{
							"name": "Rout",
							"type": "uint256[2]"
						}
					],
					"payable": false,
					"stateMutability": "view",
					"type": "function"
				},
				{
					"constant": true,
					"inputs": [],
					"name": "owner",
					"outputs": [
						{
							"name": "",
							"type": "address"
						}
					],
					"payable": false,
					"stateMutability": "view",
					"type": "function"
				},
				{
					"constant": false,
					"inputs": [
						{
							"name": "ecMathAddr",
							"type": "address"
						}
					],
					"name": "ECMath_ChangeAddress",
					"outputs": [],
					"payable": false,
					"stateMutability": "nonpayable",
					"type": "function"
				},
				{
					"constant": true,
					"inputs": [
						{
							"name": "pk",
							"type": "uint256"
						}
					],
					"name": "CalculateKeyImageFromPrivKey",
					"outputs": [
						{
							"name": "I",
							"type": "uint256[2]"
						}
					],
					"payable": false,
					"stateMutability": "view",
					"type": "function"
				},
				{
					"constant": false,
					"inputs": [],
					"name": "Kill",
					"outputs": [],
					"payable": false,
					"stateMutability": "nonpayable",
					"type": "function"
				},
				{
					"constant": true,
					"inputs": [
						{
							"name": "msgHash",
							"type": "uint256"
						},
						{
							"name": "I",
							"type": "uint256[]"
						},
						{
							"name": "P",
							"type": "uint256[]"
						},
						{
							"name": "signature",
							"type": "uint256[]"
						}
					],
					"name": "VerifyMLSAG",
					"outputs": [
						{
							"name": "success",
							"type": "bool"
						}
					],
					"payable": false,
					"stateMutability": "view",
					"type": "function"
				},
				{
					"constant": true,
					"inputs": [
						{
							"name": "msgHash",
							"type": "uint256"
						},
						{
							"name": "P",
							"type": "uint256[]"
						},
						{
							"name": "signature",
							"type": "uint256[]"
						}
					],
					"name": "VerifySAG",
					"outputs": [
						{
							"name": "success",
							"type": "bool"
						}
					],
					"payable": false,
					"stateMutability": "view",
					"type": "function"
				},
				{
					"constant": true,
					"inputs": [
						{
							"name": "alpha",
							"type": "uint256"
						}
					],
					"name": "StartRing_NoHash",
					"outputs": [
						{
							"name": "Pout",
							"type": "uint256[2]"
						}
					],
					"payable": false,
					"stateMutability": "view",
					"type": "function"
				},
				{
					"constant": true,
					"inputs": [],
					"name": "ECMath_GetAddress",
					"outputs": [
						{
							"name": "",
							"type": "address"
						}
					],
					"payable": false,
					"stateMutability": "view",
					"type": "function"
				},
				{
					"constant": true,
					"inputs": [
						{
							"name": "msgHash",
							"type": "uint256"
						},
						{
							"name": "ck",
							"type": "uint256"
						},
						{
							"name": "sk",
							"type": "uint256"
						},
						{
							"name": "P",
							"type": "uint256[2]"
						}
					],
					"name": "CalculateRingSegment",
					"outputs": [
						{
							"name": "ckp",
							"type": "uint256"
						}
					],
					"payable": false,
					"stateMutability": "view",
					"type": "function"
				},
				{
					"constant": true,
					"inputs": [],
					"name": "ECMath_GetCodeSize",
					"outputs": [
						{
							"name": "",
							"type": "uint256"
						}
					],
					"payable": false,
					"stateMutability": "view",
					"type": "function"
				},
				{
					"constant": true,
					"inputs": [
						{
							"name": "msgHash",
							"type": "uint256"
						},
						{
							"name": "ck",
							"type": "uint256"
						},
						{
							"name": "sk",
							"type": "uint256"
						},
						{
							"name": "P",
							"type": "uint256[2]"
						},
						{
							"name": "I",
							"type": "uint256[2]"
						}
					],
					"name": "CalculateLinkableRingSegment",
					"outputs": [
						{
							"name": "ckp",
							"type": "uint256"
						}
					],
					"payable": false,
					"stateMutability": "view",
					"type": "function"
				},
				{
					"constant": true,
					"inputs": [
						{
							"name": "msgHash",
							"type": "uint256"
						},
						{
							"name": "I",
							"type": "uint256"
						},
						{
							"name": "P",
							"type": "uint256[]"
						},
						{
							"name": "signature",
							"type": "uint256[]"
						}
					],
					"name": "VerifyLSAG_Compressed",
					"outputs": [
						{
							"name": "success",
							"type": "bool"
						}
					],
					"payable": false,
					"stateMutability": "view",
					"type": "function"
				},
				{
					"inputs": [
						{
							"name": "ecMathAddr",
							"type": "address"
						}
					],
					"payable": false,
					"stateMutability": "nonpayable",
					"type": "constructor"
				},
				{
					"anonymous": false,
					"inputs": [
						{
							"indexed": false,
							"name": "_name",
							"type": "string"
						},
						{
							"indexed": false,
							"name": "_new",
							"type": "address"
						}
					],
					"name": "ContractAddressChanged",
					"type": "event"
				},
				{
					"anonymous": false,
					"inputs": [
						{
							"indexed": false,
							"name": "marker",
							"type": "string"
						},
						{
							"indexed": false,
							"name": "data",
							"type": "uint256"
						}
					],
					"name": "DebugEvent",
					"type": "event"
				},
				{
					"anonymous": false,
					"inputs": [
						{
							"indexed": false,
							"name": "marker",
							"type": "string"
						},
						{
							"indexed": false,
							"name": "data",
							"type": "uint256[]"
						}
					],
					"name": "DebugEvent2",
					"type": "event"
				}
			],
			"devdoc": {
				"methods": {}
			},
			"evm": {
				"assembly": "    /* \"MLSAGVerify.sol\":91:16066  contract MLSAGVerify is ECMathInterface {\r... */\n  mstore(0x40, 0x80)\n    /* \"MLSAGVerify.sol\":200:269  constructor(address ecMathAddr) ECMathInterface(ecMathAddr) public {} */\n  callvalue\n    /* \"--CODEGEN--\":8:17   */\n  dup1\n    /* \"--CODEGEN--\":5:7   */\n  iszero\n  tag_1\n  jumpi\n    /* \"--CODEGEN--\":30:31   */\n  0x0\n    /* \"--CODEGEN--\":27:28   */\n  dup1\n    /* \"--CODEGEN--\":20:32   */\n  revert\n    /* \"--CODEGEN--\":5:7   */\ntag_1:\n    /* \"MLSAGVerify.sol\":200:269  constructor(address ecMathAddr) ECMathInterface(ecMathAddr) public {} */\n  pop\n  mload(0x40)\n  0x20\n  dup1\n  bytecodeSize\n  dup4\n  codecopy\n  dup2\n  add\n  dup1\n  0x40\n  mstore\n  dup2\n  add\n  swap1\n  dup1\n  dup1\n  mload\n  swap1\n  0x20\n  add\n  swap1\n  swap3\n  swap2\n  swap1\n  pop\n  pop\n  pop\n    /* \"MLSAGVerify.sol\":248:258  ecMathAddr */\n  dup1\n    /* \"Debuggable.sol\":146:156  msg.sender */\n  caller\n    /* \"Debuggable.sol\":138:143  owner */\n  0x0\n  dup1\n    /* \"Debuggable.sol\":138:156  owner = msg.sender */\n  0x100\n  exp\n  dup2\n  sload\n  dup2\n  0xffffffffffffffffffffffffffffffffffffffff\n  mul\n  not\n  and\n  swap1\n  dup4\n  0xffffffffffffffffffffffffffffffffffffffff\n  and\n  mul\n  or\n  swap1\n  sstore\n  pop\n    /* \"ECMathInterface.sol\":4596:4628  ECMath_ChangeAddress(ecMathAddr) */\n  tag_7\n    /* \"ECMathInterface.sol\":4617:4627  ecMathAddr */\n  dup2\n    /* \"ECMathInterface.sol\":4596:4616  ECMath_ChangeAddress */\n  mul(0x100000000, tag_8)\n    /* \"ECMathInterface.sol\":4596:4628  ECMath_ChangeAddress(ecMathAddr) */\n  0x100000000\n  swap1\n  div\n  jump\t// in\ntag_7:\n    /* \"ECMathInterface.sol\":4549:4633  constructor(address ecMathAddr) public {\r... */\n  pop\n    /* \"MLSAGVerify.sol\":200:269  constructor(address ecMathAddr) ECMathInterface(ecMathAddr) public {} */\n  pop\n    /* \"MLSAGVerify.sol\":91:16066  contract MLSAGVerify is ECMathInterface {\r... */\n  jump(tag_10)\n    /* \"ECMathInterface.sol\":4109:4394  function ECMath_ChangeAddress(address ecMathAddr) public ownerOnly {\r... */\ntag_8:\n    /* \"Debuggable.sol\":226:231  owner */\n  0x0\n  dup1\n  swap1\n  sload\n  swap1\n  0x100\n  exp\n  swap1\n  div\n  0xffffffffffffffffffffffffffffffffffffffff\n  and\n    /* \"Debuggable.sol\":212:231  msg.sender != owner */\n  0xffffffffffffffffffffffffffffffffffffffff\n  and\n    /* \"Debuggable.sol\":212:222  msg.sender */\n  caller\n    /* \"Debuggable.sol\":212:231  msg.sender != owner */\n  0xffffffffffffffffffffffffffffffffffffffff\n  and\n  eq\n  iszero\n    /* \"Debuggable.sol\":211:248  (msg.sender != owner) && (owner != 0) */\n  dup1\n  iszero\n  tag_12\n  jumpi\n  pop\n    /* \"Debuggable.sol\":246:247  0 */\n  0x0\n    /* \"Debuggable.sol\":237:242  owner */\n  dup1\n  0x0\n  swap1\n  sload\n  swap1\n  0x100\n  exp\n  swap1\n  div\n  0xffffffffffffffffffffffffffffffffffffffff\n  and\n    /* \"Debuggable.sol\":237:247  owner != 0 */\n  0xffffffffffffffffffffffffffffffffffffffff\n  and\n  eq\n  iszero\n    /* \"Debuggable.sol\":211:248  (msg.sender != owner) && (owner != 0) */\ntag_12:\n    /* \"Debuggable.sol\":206:259  if ( (msg.sender != owner) && (owner != 0) ) revert() */\n  iszero\n  tag_13\n  jumpi\n    /* \"Debuggable.sol\":251:259  revert() */\n  0x0\n  dup1\n  revert\n    /* \"Debuggable.sol\":206:259  if ( (msg.sender != owner) && (owner != 0) ) revert() */\ntag_13:\n    /* \"ECMathInterface.sol\":4324:4334  ecMathAddr */\n  dup1\n    /* \"ECMathInterface.sol\":4308:4314  ecMath */\n  0x1\n  0x0\n    /* \"ECMathInterface.sol\":4308:4335  ecMath = ECMath(ecMathAddr) */\n  0x100\n  exp\n  dup2\n  sload\n  dup2\n  0xffffffffffffffffffffffffffffffffffffffff\n  mul\n  not\n  and\n  swap1\n  dup4\n  0xffffffffffffffffffffffffffffffffffffffff\n  and\n  mul\n  or\n  swap1\n  sstore\n  pop\n    /* \"ECMathInterface.sol\":4345:4389  ContractAddressChanged(\"ECMath\", ecMathAddr) */\n  0x7cc5320aa18fb40c93aed6f76ae28088a8aaf67a112e0ca55367cd087b21802f\n    /* \"ECMathInterface.sol\":4378:4388  ecMathAddr */\n  dup2\n    /* \"ECMathInterface.sol\":4345:4389  ContractAddressChanged(\"ECMath\", ecMathAddr) */\n  mload(0x40)\n  dup1\n  dup1\n  0x20\n  add\n  dup4\n  0xffffffffffffffffffffffffffffffffffffffff\n  and\n  0xffffffffffffffffffffffffffffffffffffffff\n  and\n  dup2\n  mstore\n  0x20\n  add\n  dup3\n  dup2\n  sub\n  dup3\n  mstore\n  0x6\n  dup2\n  mstore\n  0x20\n  add\n  dup1\n  0x45434d6174680000000000000000000000000000000000000000000000000000\n  dup2\n  mstore\n  pop\n  0x20\n  add\n  swap3\n  pop\n  pop\n  pop\n  mload(0x40)\n  dup1\n  swap2\n  sub\n  swap1\n  log1\n    /* \"ECMathInterface.sol\":4109:4394  function ECMath_ChangeAddress(address ecMathAddr) public ownerOnly {\r... */\n  pop\n  jump\t// out\n    /* \"MLSAGVerify.sol\":91:16066  contract MLSAGVerify is ECMathInterface {\r... */\ntag_10:\n  dataSize(sub_0)\n  dup1\n  dataOffset(sub_0)\n  0x0\n  codecopy\n  0x0\n  return\nstop\n\nsub_0: assembly {\n        /* \"MLSAGVerify.sol\":91:16066  contract MLSAGVerify is ECMathInterface {\r... */\n      mstore(0x40, 0x80)\n      jumpi(tag_1, lt(calldatasize, 0x4))\n      calldataload(0x0)\n      0x100000000000000000000000000000000000000000000000000000000\n      swap1\n      div\n      0xffffffff\n      and\n      dup1\n      0x66d1749\n      eq\n      tag_2\n      jumpi\n      dup1\n      0x813d72a\n      eq\n      tag_3\n      jumpi\n      dup1\n      0x200fc39c\n      eq\n      tag_4\n      jumpi\n      dup1\n      0x26e37ec5\n      eq\n      tag_5\n      jumpi\n      dup1\n      0x2d57f6e7\n      eq\n      tag_6\n      jumpi\n      dup1\n      0x36490458\n      eq\n      tag_7\n      jumpi\n      dup1\n      0x38f3e171\n      eq\n      tag_8\n      jumpi\n      dup1\n      0x44fc0c93\n      eq\n      tag_9\n      jumpi\n      dup1\n      0x490ee1cb\n      eq\n      tag_10\n      jumpi\n      dup1\n      0x4f2ce9a3\n      eq\n      tag_11\n      jumpi\n      dup1\n      0x5c859d09\n      eq\n      tag_12\n      jumpi\n      dup1\n      0x6fb015cc\n      eq\n      tag_13\n      jumpi\n      dup1\n      0x81b4ef31\n      eq\n      tag_14\n      jumpi\n      dup1\n      0x88c01ed8\n      eq\n      tag_15\n      jumpi\n      dup1\n      0x8da5cb5b\n      eq\n      tag_16\n      jumpi\n      dup1\n      0x9c8fda72\n      eq\n      tag_17\n      jumpi\n      dup1\n      0xa3d53298\n      eq\n      tag_18\n      jumpi\n      dup1\n      0xbe26733c\n      eq\n      tag_19\n      jumpi\n      dup1\n      0xc17065d0\n      eq\n      tag_20\n      jumpi\n      dup1\n      0xc4e8e6a6\n      eq\n      tag_21\n      jumpi\n      dup1\n      0xc8fc7ca8\n      eq\n      tag_22\n      jumpi\n      dup1\n      0xcba51ff3\n      eq\n      tag_23\n      jumpi\n      dup1\n      0xdb8c735e\n      eq\n      tag_24\n      jumpi\n      dup1\n      0xefd6b306\n      eq\n      tag_25\n      jumpi\n      dup1\n      0xf8c8b0ca\n      eq\n      tag_26\n      jumpi\n      dup1\n      0xff7d69a8\n      eq\n      tag_27\n      jumpi\n    tag_1:\n      0x0\n      dup1\n      revert\n        /* \"MLSAGVerify.sol\":6604:7105  function VerifySAG_Compressed(uint256 msgHash, uint256[] P, uint256[] signature)\r... */\n    tag_2:\n      callvalue\n        /* \"--CODEGEN--\":8:17   */\n      dup1\n        /* \"--CODEGEN--\":5:7   */\n      iszero\n      tag_28\n      jumpi\n        /* \"--CODEGEN--\":30:31   */\n      0x0\n        /* \"--CODEGEN--\":27:28   */\n      dup1\n        /* \"--CODEGEN--\":20:32   */\n      revert\n        /* \"--CODEGEN--\":5:7   */\n    tag_28:\n        /* \"MLSAGVerify.sol\":6604:7105  function VerifySAG_Compressed(uint256 msgHash, uint256[] P, uint256[] signature)\r... */\n      pop\n      tag_29\n      0x4\n      dup1\n      calldatasize\n      sub\n      dup2\n      add\n      swap1\n      dup1\n      dup1\n      calldataload\n      swap1\n      0x20\n      add\n      swap1\n      swap3\n      swap2\n      swap1\n      dup1\n      calldataload\n      swap1\n      0x20\n      add\n      swap1\n      dup3\n      add\n      dup1\n      calldataload\n      swap1\n      0x20\n      add\n      swap1\n      dup1\n      dup1\n      0x20\n      mul\n      0x20\n      add\n      mload(0x40)\n      swap1\n      dup2\n      add\n      0x40\n      mstore\n      dup1\n      swap4\n      swap3\n      swap2\n      swap1\n      dup2\n      dup2\n      mstore\n      0x20\n      add\n      dup4\n      dup4\n      0x20\n      mul\n      dup1\n      dup3\n      dup5\n      calldatacopy\n      dup3\n      add\n      swap2\n      pop\n      pop\n      pop\n      pop\n      pop\n      pop\n      swap2\n      swap3\n      swap2\n      swap3\n      swap1\n      dup1\n      calldataload\n      swap1\n      0x20\n      add\n      swap1\n      dup3\n      add\n      dup1\n      calldataload\n      swap1\n      0x20\n      add\n      swap1\n      dup1\n      dup1\n      0x20\n      mul\n      0x20\n      add\n      mload(0x40)\n      swap1\n      dup2\n      add\n      0x40\n      mstore\n      dup1\n      swap4\n      swap3\n      swap2\n      swap1\n      dup2\n      dup2\n      mstore\n      0x20\n      add\n      dup4\n      dup4\n      0x20\n      mul\n      dup1\n      dup3\n      dup5\n      calldatacopy\n      dup3\n      add\n      swap2\n      pop\n      pop\n      pop\n      pop\n      pop\n      pop\n      swap2\n      swap3\n      swap2\n      swap3\n      swap1\n      pop\n      pop\n      pop\n      jump(tag_30)\n    tag_29:\n      mload(0x40)\n      dup1\n      dup3\n      iszero\n      iszero\n      iszero\n      iszero\n      dup2\n      mstore\n      0x20\n      add\n      swap2\n      pop\n      pop\n      mload(0x40)\n      dup1\n      swap2\n      sub\n      swap1\n      return\n        /* \"MLSAGVerify.sol\":15272:16063  function VerifyMLSAG_Compressed(uint256 msgHash, uint256[] I, uint256[] P, uint256[] signature)\r... */\n    tag_3:\n      callvalue\n        /* \"--CODEGEN--\":8:17   */\n      dup1\n        /* \"--CODEGEN--\":5:7   */\n      iszero\n      tag_31\n      jumpi\n        /* \"--CODEGEN--\":30:31   */\n      0x0\n        /* \"--CODEGEN--\":27:28   */\n      dup1\n        /* \"--CODEGEN--\":20:32   */\n      revert\n        /* \"--CODEGEN--\":5:7   */\n    tag_31:\n        /* \"MLSAGVerify.sol\":15272:16063  function VerifyMLSAG_Compressed(uint256 msgHash, uint256[] I, uint256[] P, uint256[] signature)\r... */\n      pop\n      tag_32\n      0x4\n      dup1\n      calldatasize\n      sub\n      dup2\n      add\n      swap1\n      dup1\n      dup1\n      calldataload\n      swap1\n      0x20\n      add\n      swap1\n      swap3\n      swap2\n      swap1\n      dup1\n      calldataload\n      swap1\n      0x20\n      add\n      swap1\n      dup3\n      add\n      dup1\n      calldataload\n      swap1\n      0x20\n      add\n      swap1\n      dup1\n      dup1\n      0x20\n      mul\n      0x20\n      add\n      mload(0x40)\n      swap1\n      dup2\n      add\n      0x40\n      mstore\n      dup1\n      swap4\n      swap3\n      swap2\n      swap1\n      dup2\n      dup2\n      mstore\n      0x20\n      add\n      dup4\n      dup4\n      0x20\n      mul\n      dup1\n      dup3\n      dup5\n      calldatacopy\n      dup3\n      add\n      swap2\n      pop\n      pop\n      pop\n      pop\n      pop\n      pop\n      swap2\n      swap3\n      swap2\n      swap3\n      swap1\n      dup1\n      calldataload\n      swap1\n      0x20\n      add\n      swap1\n      dup3\n      add\n      dup1\n      calldataload\n      swap1\n      0x20\n      add\n      swap1\n      dup1\n      dup1\n      0x20\n      mul\n      0x20\n      add\n      mload(0x40)\n      swap1\n      dup2\n      add\n      0x40\n      mstore\n      dup1\n      swap4\n      swap3\n      swap2\n      swap1\n      dup2\n      dup2\n      mstore\n      0x20\n      add\n      dup4\n      dup4\n      0x20\n      mul\n      dup1\n      dup3\n      dup5\n      calldatacopy\n      dup3\n      add\n      swap2\n      pop\n      pop\n      pop\n      pop\n      pop\n      pop\n      swap2\n      swap3\n      swap2\n      swap3\n      swap1\n      dup1\n      calldataload\n      swap1\n      0x20\n      add\n      swap1\n      dup3\n      add\n      dup1\n      calldataload\n      swap1\n      0x20\n      add\n      swap1\n      dup1\n      dup1\n      0x20\n      mul\n      0x20\n      add\n      mload(0x40)\n      swap1\n      dup2\n      add\n      0x40\n      mstore\n      dup1\n      swap4\n      swap3\n      swap2\n      swap1\n      dup2\n      dup2\n      mstore\n      0x20\n      add\n      dup4\n      dup4\n      0x20\n      mul\n      dup1\n      dup3\n      dup5\n      calldatacopy\n      dup3\n      add\n      swap2\n      pop\n      pop\n      pop\n      pop\n      pop\n      pop\n      swap2\n      swap3\n      swap2\n      swap3\n      swap1\n      pop\n      pop\n      pop\n      jump(tag_33)\n    tag_32:\n      mload(0x40)\n      dup1\n      dup3\n      iszero\n      iszero\n      iszero\n      iszero\n      dup2\n      mstore\n      0x20\n      add\n      swap2\n      pop\n      pop\n      mload(0x40)\n      dup1\n      swap2\n      sub\n      swap1\n      return\n        /* \"MLSAGVerify.sol\":7348:8236  function VerifyLSAG(uint256 msgHash, uint256[] I, uint256[] P, uint256[] signature)\r... */\n    tag_4:\n      callvalue\n        /* \"--CODEGEN--\":8:17   */\n      dup1\n        /* \"--CODEGEN--\":5:7   */\n      iszero\n      tag_34\n      jumpi\n        /* \"--CODEGEN--\":30:31   */\n      0x0\n        /* \"--CODEGEN--\":27:28   */\n      dup1\n        /* \"--CODEGEN--\":20:32   */\n      revert\n        /* \"--CODEGEN--\":5:7   */\n    tag_34:\n        /* \"MLSAGVerify.sol\":7348:8236  function VerifyLSAG(uint256 msgHash, uint256[] I, uint256[] P, uint256[] signature)\r... */\n      pop\n      tag_35\n      0x4\n      dup1\n      calldatasize\n      sub\n      dup2\n      add\n      swap1\n      dup1\n      dup1\n      calldataload\n      swap1\n      0x20\n      add\n      swap1\n      swap3\n      swap2\n      swap1\n      dup1\n      calldataload\n      swap1\n      0x20\n      add\n      swap1\n      dup3\n      add\n      dup1\n      calldataload\n      swap1\n      0x20\n      add\n      swap1\n      dup1\n      dup1\n      0x20\n      mul\n      0x20\n      add\n      mload(0x40)\n      swap1\n      dup2\n      add\n      0x40\n      mstore\n      dup1\n      swap4\n      swap3\n      swap2\n      swap1\n      dup2\n      dup2\n      mstore\n      0x20\n      add\n      dup4\n      dup4\n      0x20\n      mul\n      dup1\n      dup3\n      dup5\n      calldatacopy\n      dup3\n      add\n      swap2\n      pop\n      pop\n      pop\n      pop\n      pop\n      pop\n      swap2\n      swap3\n      swap2\n      swap3\n      swap1\n      dup1\n      calldataload\n      swap1\n      0x20\n      add\n      swap1\n      dup3\n      add\n      dup1\n      calldataload\n      swap1\n      0x20\n      add\n      swap1\n      dup1\n      dup1\n      0x20\n      mul\n      0x20\n      add\n      mload(0x40)\n      swap1\n      dup2\n      add\n      0x40\n      mstore\n      dup1\n      swap4\n      swap3\n      swap2\n      swap1\n      dup2\n      dup2\n      mstore\n      0x20\n      add\n      dup4\n      dup4\n      0x20\n      mul\n      dup1\n      dup3\n      dup5\n      calldatacopy\n      dup3\n      add\n      swap2\n      pop\n      pop\n      pop\n      pop\n      pop\n      pop\n      swap2\n      swap3\n      swap2\n      swap3\n      swap1\n      dup1\n      calldataload\n      swap1\n      0x20\n      add\n      swap1\n      dup3\n      add\n      dup1\n      calldataload\n      swap1\n      0x20\n      add\n      swap1\n      dup1\n      dup1\n      0x20\n      mul\n      0x20\n      add\n      mload(0x40)\n      swap1\n      dup2\n      add\n      0x40\n      mstore\n      dup1\n      swap4\n      swap3\n      swap2\n      swap1\n      dup2\n      dup2\n      mstore\n      0x20\n      add\n      dup4\n      dup4\n      0x20\n      mul\n      dup1\n      dup3\n      dup5\n      calldatacopy\n      dup3\n      add\n      swap2\n      pop\n      pop\n      pop\n      pop\n      pop\n      pop\n      swap2\n      swap3\n      swap2\n      swap3\n      swap1\n      pop\n      pop\n      pop\n      jump(tag_36)\n    tag_35:\n      mload(0x40)\n      dup1\n      dup3\n      iszero\n      iszero\n      iszero\n      iszero\n      dup2\n      mstore\n      0x20\n      add\n      swap2\n      pop\n      pop\n      mload(0x40)\n      dup1\n      swap2\n      sub\n      swap1\n      return\n        /* \"MLSAGVerify.sol\":1459:1637  function StartRing(uint256 msgHash, uint256 alpha)\r... */\n    tag_5:\n      callvalue\n        /* \"--CODEGEN--\":8:17   */\n      dup1\n        /* \"--CODEGEN--\":5:7   */\n      iszero\n      tag_37\n      jumpi\n        /* \"--CODEGEN--\":30:31   */\n      0x0\n        /* \"--CODEGEN--\":27:28   */\n      dup1\n        /* \"--CODEGEN--\":20:32   */\n      revert\n        /* \"--CODEGEN--\":5:7   */\n    tag_37:\n        /* \"MLSAGVerify.sol\":1459:1637  function StartRing(uint256 msgHash, uint256 alpha)\r... */\n      pop\n      tag_38\n      0x4\n      dup1\n      calldatasize\n      sub\n      dup2\n      add\n      swap1\n      dup1\n      dup1\n      calldataload\n      swap1\n      0x20\n      add\n      swap1\n      swap3\n      swap2\n      swap1\n      dup1\n      calldataload\n      swap1\n      0x20\n      add\n      swap1\n      swap3\n      swap2\n      swap1\n      pop\n      pop\n      pop\n      jump(tag_39)\n    tag_38:\n      mload(0x40)\n      dup1\n      dup3\n      dup2\n      mstore\n      0x20\n      add\n      swap2\n      pop\n      pop\n      mload(0x40)\n      dup1\n      swap2\n      sub\n      swap1\n      return\n        /* \"MLSAGVerify.sol\":3234:3529  function StartLinkableRing_NoHash(uint256 alpha, uint256[2] P)\r... */\n    tag_6:\n      callvalue\n        /* \"--CODEGEN--\":8:17   */\n      dup1\n        /* \"--CODEGEN--\":5:7   */\n      iszero\n      tag_40\n      jumpi\n        /* \"--CODEGEN--\":30:31   */\n      0x0\n        /* \"--CODEGEN--\":27:28   */\n      dup1\n        /* \"--CODEGEN--\":20:32   */\n      revert\n        /* \"--CODEGEN--\":5:7   */\n    tag_40:\n        /* \"MLSAGVerify.sol\":3234:3529  function StartLinkableRing_NoHash(uint256 alpha, uint256[2] P)\r... */\n      pop\n      tag_41\n      0x4\n      dup1\n      calldatasize\n      sub\n      dup2\n      add\n      swap1\n      dup1\n      dup1\n      calldataload\n      swap1\n      0x20\n      add\n      swap1\n      swap3\n      swap2\n      swap1\n      dup1\n      0x40\n      add\n      swap1\n      0x2\n      dup1\n      0x20\n      mul\n      mload(0x40)\n      swap1\n      dup2\n      add\n      0x40\n      mstore\n      dup1\n      swap3\n      swap2\n      swap1\n      dup3\n      mul(0x20, 0x2)\n      dup1\n      dup3\n      dup5\n      calldatacopy\n      dup3\n      add\n      swap2\n      pop\n      pop\n      pop\n      pop\n      pop\n      swap2\n      swap3\n      swap2\n      swap3\n      swap1\n      pop\n      pop\n      pop\n      jump(tag_42)\n    tag_41:\n      mload(0x40)\n      dup1\n      dup4\n      mul(0x20, 0x2)\n      dup1\n      dup4\n      dup4\n        /* \"--CODEGEN--\":23:24   */\n      0x0\n        /* \"--CODEGEN--\":8:108   */\n    tag_43:\n        /* \"--CODEGEN--\":33:36   */\n      dup4\n        /* \"--CODEGEN--\":30:31   */\n      dup2\n        /* \"--CODEGEN--\":27:37   */\n      lt\n        /* \"--CODEGEN--\":8:108   */\n      iszero\n      tag_44\n      jumpi\n        /* \"--CODEGEN--\":99:100   */\n      dup1\n        /* \"--CODEGEN--\":94:97   */\n      dup3\n        /* \"--CODEGEN--\":90:101   */\n      add\n        /* \"--CODEGEN--\":84:102   */\n      mload\n        /* \"--CODEGEN--\":80:81   */\n      dup2\n        /* \"--CODEGEN--\":75:78   */\n      dup5\n        /* \"--CODEGEN--\":71:82   */\n      add\n        /* \"--CODEGEN--\":64:103   */\n      mstore\n        /* \"--CODEGEN--\":52:54   */\n      0x20\n        /* \"--CODEGEN--\":49:50   */\n      dup2\n        /* \"--CODEGEN--\":45:55   */\n      add\n        /* \"--CODEGEN--\":40:55   */\n      swap1\n      pop\n        /* \"--CODEGEN--\":8:108   */\n      jump(tag_43)\n    tag_44:\n        /* \"--CODEGEN--\":12:26   */\n      pop\n        /* \"MLSAGVerify.sol\":3234:3529  function StartLinkableRing_NoHash(uint256 alpha, uint256[2] P)\r... */\n      pop\n      pop\n      pop\n      swap1\n      pop\n      add\n      dup3\n      mul(0x20, 0x2)\n      dup1\n      dup4\n      dup4\n        /* \"--CODEGEN--\":23:24   */\n      0x0\n        /* \"--CODEGEN--\":8:108   */\n    tag_46:\n        /* \"--CODEGEN--\":33:36   */\n      dup4\n        /* \"--CODEGEN--\":30:31   */\n      dup2\n        /* \"--CODEGEN--\":27:37   */\n      lt\n        /* \"--CODEGEN--\":8:108   */\n      iszero\n      tag_47\n      jumpi\n        /* \"--CODEGEN--\":99:100   */\n      dup1\n        /* \"--CODEGEN--\":94:97   */\n      dup3\n        /* \"--CODEGEN--\":90:101   */\n      add\n        /* \"--CODEGEN--\":84:102   */\n      mload\n        /* \"--CODEGEN--\":80:81   */\n      dup2\n        /* \"--CODEGEN--\":75:78   */\n      dup5\n        /* \"--CODEGEN--\":71:82   */\n      add\n        /* \"--CODEGEN--\":64:103   */\n      mstore\n        /* \"--CODEGEN--\":52:54   */\n      0x20\n        /* \"--CODEGEN--\":49:50   */\n      dup2\n        /* \"--CODEGEN--\":45:55   */\n      add\n        /* \"--CODEGEN--\":40:55   */\n      swap1\n      pop\n        /* \"--CODEGEN--\":8:108   */\n      jump(tag_46)\n    tag_47:\n        /* \"--CODEGEN--\":12:26   */\n      pop\n        /* \"MLSAGVerify.sol\":3234:3529  function StartLinkableRing_NoHash(uint256 alpha, uint256[2] P)\r... */\n      pop\n      pop\n      pop\n      swap1\n      pop\n      add\n      swap3\n      pop\n      pop\n      pop\n      mload(0x40)\n      dup1\n      swap2\n      sub\n      swap1\n      return\n        /* \"MLSAGVerify.sol\":1649:1954  function CalculateRingSegment_NoHash(uint256 ck, uint256 sk, uint256[2] P)\r... */\n    tag_7:\n      callvalue\n        /* \"--CODEGEN--\":8:17   */\n      dup1\n        /* \"--CODEGEN--\":5:7   */\n      iszero\n      tag_49\n      jumpi\n        /* \"--CODEGEN--\":30:31   */\n      0x0\n        /* \"--CODEGEN--\":27:28   */\n      dup1\n        /* \"--CODEGEN--\":20:32   */\n      revert\n        /* \"--CODEGEN--\":5:7   */\n    tag_49:\n        /* \"MLSAGVerify.sol\":1649:1954  function CalculateRingSegment_NoHash(uint256 ck, uint256 sk, uint256[2] P)\r... */\n      pop\n      tag_50\n      0x4\n      dup1\n      calldatasize\n      sub\n      dup2\n      add\n      swap1\n      dup1\n      dup1\n      calldataload\n      swap1\n      0x20\n      add\n      swap1\n      swap3\n      swap2\n      swap1\n      dup1\n      calldataload\n      swap1\n      0x20\n      add\n      swap1\n      swap3\n      swap2\n      swap1\n      dup1\n      0x40\n      add\n      swap1\n      0x2\n      dup1\n      0x20\n      mul\n      mload(0x40)\n      swap1\n      dup2\n      add\n      0x40\n      mstore\n      dup1\n      swap3\n      swap2\n      swap1\n      dup3\n      mul(0x20, 0x2)\n      dup1\n      dup3\n      dup5\n      calldatacopy\n      dup3\n      add\n      swap2\n      pop\n      pop\n      pop\n      pop\n      pop\n      swap2\n      swap3\n      swap2\n      swap3\n      swap1\n      pop\n      pop\n      pop\n      jump(tag_51)\n    tag_50:\n      mload(0x40)\n      dup1\n      dup3\n      mul(0x20, 0x2)\n      dup1\n      dup4\n      dup4\n        /* \"--CODEGEN--\":23:24   */\n      0x0\n        /* \"--CODEGEN--\":8:108   */\n    tag_52:\n        /* \"--CODEGEN--\":33:36   */\n      dup4\n        /* \"--CODEGEN--\":30:31   */\n      dup2\n        /* \"--CODEGEN--\":27:37   */\n      lt\n        /* \"--CODEGEN--\":8:108   */\n      iszero\n      tag_53\n      jumpi\n        /* \"--CODEGEN--\":99:100   */\n      dup1\n        /* \"--CODEGEN--\":94:97   */\n      dup3\n        /* \"--CODEGEN--\":90:101   */\n      add\n        /* \"--CODEGEN--\":84:102   */\n      mload\n        /* \"--CODEGEN--\":80:81   */\n      dup2\n        /* \"--CODEGEN--\":75:78   */\n      dup5\n        /* \"--CODEGEN--\":71:82   */\n      add\n        /* \"--CODEGEN--\":64:103   */\n      mstore\n        /* \"--CODEGEN--\":52:54   */\n      0x20\n        /* \"--CODEGEN--\":49:50   */\n      dup2\n        /* \"--CODEGEN--\":45:55   */\n      add\n        /* \"--CODEGEN--\":40:55   */\n      swap1\n      pop\n        /* \"--CODEGEN--\":8:108   */\n      jump(tag_52)\n    tag_53:\n        /* \"--CODEGEN--\":12:26   */\n      pop\n        /* \"MLSAGVerify.sol\":1649:1954  function CalculateRingSegment_NoHash(uint256 ck, uint256 sk, uint256[2] P)\r... */\n      pop\n      pop\n      pop\n      swap1\n      pop\n      add\n      swap2\n      pop\n      pop\n      mload(0x40)\n      dup1\n      swap2\n      sub\n      swap1\n      return\n        /* \"MLSAGVerify.sol\":3541:3865  function StartLinkableRing(uint256 msgHash, uint256 alpha, uint256[2] P)\r... */\n    tag_8:\n      callvalue\n        /* \"--CODEGEN--\":8:17   */\n      dup1\n        /* \"--CODEGEN--\":5:7   */\n      iszero\n      tag_55\n      jumpi\n        /* \"--CODEGEN--\":30:31   */\n      0x0\n        /* \"--CODEGEN--\":27:28   */\n      dup1\n        /* \"--CODEGEN--\":20:32   */\n      revert\n        /* \"--CODEGEN--\":5:7   */\n    tag_55:\n        /* \"MLSAGVerify.sol\":3541:3865  function StartLinkableRing(uint256 msgHash, uint256 alpha, uint256[2] P)\r... */\n      pop\n      tag_56\n      0x4\n      dup1\n      calldatasize\n      sub\n      dup2\n      add\n      swap1\n      dup1\n      dup1\n      calldataload\n      swap1\n      0x20\n      add\n      swap1\n      swap3\n      swap2\n      swap1\n      dup1\n      calldataload\n      swap1\n      0x20\n      add\n      swap1\n      swap3\n      swap2\n      swap1\n      dup1\n      0x40\n      add\n      swap1\n      0x2\n      dup1\n      0x20\n      mul\n      mload(0x40)\n      swap1\n      dup2\n      add\n      0x40\n      mstore\n      dup1\n      swap3\n      swap2\n      swap1\n      dup3\n      mul(0x20, 0x2)\n      dup1\n      dup3\n      dup5\n      calldatacopy\n      dup3\n      add\n      swap2\n      pop\n      pop\n      pop\n      pop\n      pop\n      swap2\n      swap3\n      swap2\n      swap3\n      swap1\n      pop\n      pop\n      pop\n      jump(tag_57)\n    tag_56:\n      mload(0x40)\n      dup1\n      dup3\n      dup2\n      mstore\n      0x20\n      add\n      swap2\n      pop\n      pop\n      mload(0x40)\n      dup1\n      swap2\n      sub\n      swap1\n      return\n        /* \"MLSAGVerify.sol\":11834:12363  function VerifyMSAG_Compressed(uint256 m, uint256 msgHash, uint256[] P, uint256[] signature)\r... */\n    tag_9:\n      callvalue\n        /* \"--CODEGEN--\":8:17   */\n      dup1\n        /* \"--CODEGEN--\":5:7   */\n      iszero\n      tag_58\n      jumpi\n        /* \"--CODEGEN--\":30:31   */\n      0x0\n        /* \"--CODEGEN--\":27:28   */\n      dup1\n        /* \"--CODEGEN--\":20:32   */\n      revert\n        /* \"--CODEGEN--\":5:7   */\n    tag_58:\n        /* \"MLSAGVerify.sol\":11834:12363  function VerifyMSAG_Compressed(uint256 m, uint256 msgHash, uint256[] P, uint256[] signature)\r... */\n      pop\n      tag_59\n      0x4\n      dup1\n      calldatasize\n      sub\n      dup2\n      add\n      swap1\n      dup1\n      dup1\n      calldataload\n      swap1\n      0x20\n      add\n      swap1\n      swap3\n      swap2\n      swap1\n      dup1\n      calldataload\n      swap1\n      0x20\n      add\n      swap1\n      swap3\n      swap2\n      swap1\n      dup1\n      calldataload\n      swap1\n      0x20\n      add\n      swap1\n      dup3\n      add\n      dup1\n      calldataload\n      swap1\n      0x20\n      add\n      swap1\n      dup1\n      dup1\n      0x20\n      mul\n      0x20\n      add\n      mload(0x40)\n      swap1\n      dup2\n      add\n      0x40\n      mstore\n      dup1\n      swap4\n      swap3\n      swap2\n      swap1\n      dup2\n      dup2\n      mstore\n      0x20\n      add\n      dup4\n      dup4\n      0x20\n      mul\n      dup1\n      dup3\n      dup5\n      calldatacopy\n      dup3\n      add\n      swap2\n      pop\n      pop\n      pop\n      pop\n      pop\n      pop\n      swap2\n      swap3\n      swap2\n      swap3\n      swap1\n      dup1\n      calldataload\n      swap1\n      0x20\n      add\n      swap1\n      dup3\n      add\n      dup1\n      calldataload\n      swap1\n      0x20\n      add\n      swap1\n      dup1\n      dup1\n      0x20\n      mul\n      0x20\n      add\n      mload(0x40)\n      swap1\n      dup2\n      add\n      0x40\n      mstore\n      dup1\n      swap4\n      swap3\n      swap2\n      swap1\n      dup2\n      dup2\n      mstore\n      0x20\n      add\n      dup4\n      dup4\n      0x20\n      mul\n      dup1\n      dup3\n      dup5\n      calldatacopy\n      dup3\n      add\n      swap2\n      pop\n      pop\n      pop\n      pop\n      pop\n      pop\n      swap2\n      swap3\n      swap2\n      swap3\n      swap1\n      pop\n      pop\n      pop\n      jump(tag_60)\n    tag_59:\n      mload(0x40)\n      dup1\n      dup3\n      iszero\n      iszero\n      iszero\n      iszero\n      dup2\n      mstore\n      0x20\n      add\n      swap2\n      pop\n      pop\n      mload(0x40)\n      dup1\n      swap2\n      sub\n      swap1\n      return\n        /* \"MLSAGVerify.sol\":4832:5295  function Keccak256OfArray(uint256[] array)\r... */\n    tag_10:\n      callvalue\n        /* \"--CODEGEN--\":8:17   */\n      dup1\n        /* \"--CODEGEN--\":5:7   */\n      iszero\n      tag_61\n      jumpi\n        /* \"--CODEGEN--\":30:31   */\n      0x0\n        /* \"--CODEGEN--\":27:28   */\n      dup1\n        /* \"--CODEGEN--\":20:32   */\n      revert\n        /* \"--CODEGEN--\":5:7   */\n    tag_61:\n        /* \"MLSAGVerify.sol\":4832:5295  function Keccak256OfArray(uint256[] array)\r... */\n      pop\n      tag_62\n      0x4\n      dup1\n      calldatasize\n      sub\n      dup2\n      add\n      swap1\n      dup1\n      dup1\n      calldataload\n      swap1\n      0x20\n      add\n      swap1\n      dup3\n      add\n      dup1\n      calldataload\n      swap1\n      0x20\n      add\n      swap1\n      dup1\n      dup1\n      0x20\n      mul\n      0x20\n      add\n      mload(0x40)\n      swap1\n      dup2\n      add\n      0x40\n      mstore\n      dup1\n      swap4\n      swap3\n      swap2\n      swap1\n      dup2\n      dup2\n      mstore\n      0x20\n      add\n      dup4\n      dup4\n      0x20\n      mul\n      dup1\n      dup3\n      dup5\n      calldatacopy\n      dup3\n      add\n      swap2\n      pop\n      pop\n      pop\n      pop\n      pop\n      pop\n      swap2\n      swap3\n      swap2\n      swap3\n      swap1\n      pop\n      pop\n      pop\n      jump(tag_63)\n    tag_62:\n      mload(0x40)\n      dup1\n      dup3\n      dup2\n      mstore\n      0x20\n      add\n      swap2\n      pop\n      pop\n      mload(0x40)\n      dup1\n      swap2\n      sub\n      swap1\n      return\n        /* \"MLSAGVerify.sol\":9671:11410  function VerifyMSAG(uint256 m, uint256 msgHash, uint256[] P, uint256[] signature)\r... */\n    tag_11:\n      callvalue\n        /* \"--CODEGEN--\":8:17   */\n      dup1\n        /* \"--CODEGEN--\":5:7   */\n      iszero\n      tag_64\n      jumpi\n        /* \"--CODEGEN--\":30:31   */\n      0x0\n        /* \"--CODEGEN--\":27:28   */\n      dup1\n        /* \"--CODEGEN--\":20:32   */\n      revert\n        /* \"--CODEGEN--\":5:7   */\n    tag_64:\n        /* \"MLSAGVerify.sol\":9671:11410  function VerifyMSAG(uint256 m, uint256 msgHash, uint256[] P, uint256[] signature)\r... */\n      pop\n      tag_65\n      0x4\n      dup1\n      calldatasize\n      sub\n      dup2\n      add\n      swap1\n      dup1\n      dup1\n      calldataload\n      swap1\n      0x20\n      add\n      swap1\n      swap3\n      swap2\n      swap1\n      dup1\n      calldataload\n      swap1\n      0x20\n      add\n      swap1\n      swap3\n      swap2\n      swap1\n      dup1\n      calldataload\n      swap1\n      0x20\n      add\n      swap1\n      dup3\n      add\n      dup1\n      calldataload\n      swap1\n      0x20\n      add\n      swap1\n      dup1\n      dup1\n      0x20\n      mul\n      0x20\n      add\n      mload(0x40)\n      swap1\n      dup2\n      add\n      0x40\n      mstore\n      dup1\n      swap4\n      swap3\n      swap2\n      swap1\n      dup2\n      dup2\n      mstore\n      0x20\n      add\n      dup4\n      dup4\n      0x20\n      mul\n      dup1\n      dup3\n      dup5\n      calldatacopy\n      dup3\n      add\n      swap2\n      pop\n      pop\n      pop\n      pop\n      pop\n      pop\n      swap2\n      swap3\n      swap2\n      swap3\n      swap1\n      dup1\n      calldataload\n      swap1\n      0x20\n      add\n      swap1\n      dup3\n      add\n      dup1\n      calldataload\n      swap1\n      0x20\n      add\n      swap1\n      dup1\n      dup1\n      0x20\n      mul\n      0x20\n      add\n      mload(0x40)\n      swap1\n      dup2\n      add\n      0x40\n      mstore\n      dup1\n      swap4\n      swap3\n      swap2\n      swap1\n      dup2\n      dup2\n      mstore\n      0x20\n      add\n      dup4\n      dup4\n      0x20\n      mul\n      dup1\n      dup3\n      dup5\n      calldatacopy\n      dup3\n      add\n      swap2\n      pop\n      pop\n      pop\n      pop\n      pop\n      pop\n      swap2\n      swap3\n      swap2\n      swap3\n      swap1\n      pop\n      pop\n      pop\n      jump(tag_66)\n    tag_65:\n      mload(0x40)\n      dup1\n      dup3\n      iszero\n      iszero\n      iszero\n      iszero\n      dup2\n      mstore\n      0x20\n      add\n      swap2\n      pop\n      pop\n      mload(0x40)\n      dup1\n      swap2\n      sub\n      swap1\n      return\n        /* \"MLSAGVerify.sol\":2362:2612  function CompleteRing(uint256 alpha, uint256 c, uint256 xk)\r... */\n    tag_12:\n      callvalue\n        /* \"--CODEGEN--\":8:17   */\n      dup1\n        /* \"--CODEGEN--\":5:7   */\n      iszero\n      tag_67\n      jumpi\n        /* \"--CODEGEN--\":30:31   */\n      0x0\n        /* \"--CODEGEN--\":27:28   */\n      dup1\n        /* \"--CODEGEN--\":20:32   */\n      revert\n        /* \"--CODEGEN--\":5:7   */\n    tag_67:\n        /* \"MLSAGVerify.sol\":2362:2612  function CompleteRing(uint256 alpha, uint256 c, uint256 xk)\r... */\n      pop\n      tag_68\n      0x4\n      dup1\n      calldatasize\n      sub\n      dup2\n      add\n      swap1\n      dup1\n      dup1\n      calldataload\n      swap1\n      0x20\n      add\n      swap1\n      swap3\n      swap2\n      swap1\n      dup1\n      calldataload\n      swap1\n      0x20\n      add\n      swap1\n      swap3\n      swap2\n      swap1\n      dup1\n      calldataload\n      swap1\n      0x20\n      add\n      swap1\n      swap3\n      swap2\n      swap1\n      pop\n      pop\n      pop\n      jump(tag_69)\n    tag_68:\n      mload(0x40)\n      dup1\n      dup3\n      dup2\n      mstore\n      0x20\n      add\n      swap2\n      pop\n      pop\n      mload(0x40)\n      dup1\n      swap2\n      sub\n      swap1\n      return\n        /* \"MLSAGVerify.sol\":2665:2909  function LinkableRingHashFunction(uint256 msgHash, uint256[2] left, uint256[2] right)\r... */\n    tag_13:\n      callvalue\n        /* \"--CODEGEN--\":8:17   */\n      dup1\n        /* \"--CODEGEN--\":5:7   */\n      iszero\n      tag_70\n      jumpi\n        /* \"--CODEGEN--\":30:31   */\n      0x0\n        /* \"--CODEGEN--\":27:28   */\n      dup1\n        /* \"--CODEGEN--\":20:32   */\n      revert\n        /* \"--CODEGEN--\":5:7   */\n    tag_70:\n        /* \"MLSAGVerify.sol\":2665:2909  function LinkableRingHashFunction(uint256 msgHash, uint256[2] left, uint256[2] right)\r... */\n      pop\n      tag_71\n      0x4\n      dup1\n      calldatasize\n      sub\n      dup2\n      add\n      swap1\n      dup1\n      dup1\n      calldataload\n      swap1\n      0x20\n      add\n      swap1\n      swap3\n      swap2\n      swap1\n      dup1\n      0x40\n      add\n      swap1\n      0x2\n      dup1\n      0x20\n      mul\n      mload(0x40)\n      swap1\n      dup2\n      add\n      0x40\n      mstore\n      dup1\n      swap3\n      swap2\n      swap1\n      dup3\n      mul(0x20, 0x2)\n      dup1\n      dup3\n      dup5\n      calldatacopy\n      dup3\n      add\n      swap2\n      pop\n      pop\n      pop\n      pop\n      pop\n      swap2\n      swap3\n      swap2\n      swap3\n      swap1\n      dup1\n      0x40\n      add\n      swap1\n      0x2\n      dup1\n      0x20\n      mul\n      mload(0x40)\n      swap1\n      dup2\n      add\n      0x40\n      mstore\n      dup1\n      swap3\n      swap2\n      swap1\n      dup3\n      mul(0x20, 0x2)\n      dup1\n      dup3\n      dup5\n      calldatacopy\n      dup3\n      add\n      swap2\n      pop\n      pop\n      pop\n      pop\n      pop\n      swap2\n      swap3\n      swap2\n      swap3\n      swap1\n      pop\n      pop\n      pop\n      jump(tag_72)\n    tag_71:\n      mload(0x40)\n      dup1\n      dup3\n      dup2\n      mstore\n      0x20\n      add\n      swap2\n      pop\n      pop\n      mload(0x40)\n      dup1\n      swap2\n      sub\n      swap1\n      return\n        /* \"MLSAGVerify.sol\":1073:1274  function RingHashFunction(uint256 msgHash, uint256[2] point)\r... */\n    tag_14:\n      callvalue\n        /* \"--CODEGEN--\":8:17   */\n      dup1\n        /* \"--CODEGEN--\":5:7   */\n      iszero\n      tag_73\n      jumpi\n        /* \"--CODEGEN--\":30:31   */\n      0x0\n        /* \"--CODEGEN--\":27:28   */\n      dup1\n        /* \"--CODEGEN--\":20:32   */\n      revert\n        /* \"--CODEGEN--\":5:7   */\n    tag_73:\n        /* \"MLSAGVerify.sol\":1073:1274  function RingHashFunction(uint256 msgHash, uint256[2] point)\r... */\n      pop\n      tag_74\n      0x4\n      dup1\n      calldatasize\n      sub\n      dup2\n      add\n      swap1\n      dup1\n      dup1\n      calldataload\n      swap1\n      0x20\n      add\n      swap1\n      swap3\n      swap2\n      swap1\n      dup1\n      0x40\n      add\n      swap1\n      0x2\n      dup1\n      0x20\n      mul\n      mload(0x40)\n      swap1\n      dup2\n      add\n      0x40\n      mstore\n      dup1\n      swap3\n      swap2\n      swap1\n      dup3\n      mul(0x20, 0x2)\n      dup1\n      dup3\n      dup5\n      calldatacopy\n      dup3\n      add\n      swap2\n      pop\n      pop\n      pop\n      pop\n      pop\n      swap2\n      swap3\n      swap2\n      swap3\n      swap1\n      pop\n      pop\n      pop\n      jump(tag_75)\n    tag_74:\n      mload(0x40)\n      dup1\n      dup3\n      dup2\n      mstore\n      0x20\n      add\n      swap2\n      pop\n      pop\n      mload(0x40)\n      dup1\n      swap2\n      sub\n      swap1\n      return\n        /* \"MLSAGVerify.sol\":3877:4393  function CalculateLinkableRingSegment_NoHash(uint256 ck, uint256 sk, uint256[2] P, uint256[2] I)\r... */\n    tag_15:\n      callvalue\n        /* \"--CODEGEN--\":8:17   */\n      dup1\n        /* \"--CODEGEN--\":5:7   */\n      iszero\n      tag_76\n      jumpi\n        /* \"--CODEGEN--\":30:31   */\n      0x0\n        /* \"--CODEGEN--\":27:28   */\n      dup1\n        /* \"--CODEGEN--\":20:32   */\n      revert\n        /* \"--CODEGEN--\":5:7   */\n    tag_76:\n        /* \"MLSAGVerify.sol\":3877:4393  function CalculateLinkableRingSegment_NoHash(uint256 ck, uint256 sk, uint256[2] P, uint256[2] I)\r... */\n      pop\n      tag_77\n      0x4\n      dup1\n      calldatasize\n      sub\n      dup2\n      add\n      swap1\n      dup1\n      dup1\n      calldataload\n      swap1\n      0x20\n      add\n      swap1\n      swap3\n      swap2\n      swap1\n      dup1\n      calldataload\n      swap1\n      0x20\n      add\n      swap1\n      swap3\n      swap2\n      swap1\n      dup1\n      0x40\n      add\n      swap1\n      0x2\n      dup1\n      0x20\n      mul\n      mload(0x40)\n      swap1\n      dup2\n      add\n      0x40\n      mstore\n      dup1\n      swap3\n      swap2\n      swap1\n      dup3\n      mul(0x20, 0x2)\n      dup1\n      dup3\n      dup5\n      calldatacopy\n      dup3\n      add\n      swap2\n      pop\n      pop\n      pop\n      pop\n      pop\n      swap2\n      swap3\n      swap2\n      swap3\n      swap1\n      dup1\n      0x40\n      add\n      swap1\n      0x2\n      dup1\n      0x20\n      mul\n      mload(0x40)\n      swap1\n      dup2\n      add\n      0x40\n      mstore\n      dup1\n      swap3\n      swap2\n      swap1\n      dup3\n      mul(0x20, 0x2)\n      dup1\n      dup3\n      dup5\n      calldatacopy\n      dup3\n      add\n      swap2\n      pop\n      pop\n      pop\n      pop\n      pop\n      swap2\n      swap3\n      swap2\n      swap3\n      swap1\n      pop\n      pop\n      pop\n      jump(tag_78)\n    tag_77:\n      mload(0x40)\n      dup1\n      dup4\n      mul(0x20, 0x2)\n      dup1\n      dup4\n      dup4\n        /* \"--CODEGEN--\":23:24   */\n      0x0\n        /* \"--CODEGEN--\":8:108   */\n    tag_79:\n        /* \"--CODEGEN--\":33:36   */\n      dup4\n        /* \"--CODEGEN--\":30:31   */\n      dup2\n        /* \"--CODEGEN--\":27:37   */\n      lt\n        /* \"--CODEGEN--\":8:108   */\n      iszero\n      tag_80\n      jumpi\n        /* \"--CODEGEN--\":99:100   */\n      dup1\n        /* \"--CODEGEN--\":94:97   */\n      dup3\n        /* \"--CODEGEN--\":90:101   */\n      add\n        /* \"--CODEGEN--\":84:102   */\n      mload\n        /* \"--CODEGEN--\":80:81   */\n      dup2\n        /* \"--CODEGEN--\":75:78   */\n      dup5\n        /* \"--CODEGEN--\":71:82   */\n      add\n        /* \"--CODEGEN--\":64:103   */\n      mstore\n        /* \"--CODEGEN--\":52:54   */\n      0x20\n        /* \"--CODEGEN--\":49:50   */\n      dup2\n        /* \"--CODEGEN--\":45:55   */\n      add\n        /* \"--CODEGEN--\":40:55   */\n      swap1\n      pop\n        /* \"--CODEGEN--\":8:108   */\n      jump(tag_79)\n    tag_80:\n        /* \"--CODEGEN--\":12:26   */\n      pop\n        /* \"MLSAGVerify.sol\":3877:4393  function CalculateLinkableRingSegment_NoHash(uint256 ck, uint256 sk, uint256[2] P, uint256[2] I)\r... */\n      pop\n      pop\n      pop\n      swap1\n      pop\n      add\n      dup3\n      mul(0x20, 0x2)\n      dup1\n      dup4\n      dup4\n        /* \"--CODEGEN--\":23:24   */\n      0x0\n        /* \"--CODEGEN--\":8:108   */\n    tag_82:\n        /* \"--CODEGEN--\":33:36   */\n      dup4\n        /* \"--CODEGEN--\":30:31   */\n      dup2\n        /* \"--CODEGEN--\":27:37   */\n      lt\n        /* \"--CODEGEN--\":8:108   */\n      iszero\n      tag_83\n      jumpi\n        /* \"--CODEGEN--\":99:100   */\n      dup1\n        /* \"--CODEGEN--\":94:97   */\n      dup3\n        /* \"--CODEGEN--\":90:101   */\n      add\n        /* \"--CODEGEN--\":84:102   */\n      mload\n        /* \"--CODEGEN--\":80:81   */\n      dup2\n        /* \"--CODEGEN--\":75:78   */\n      dup5\n        /* \"--CODEGEN--\":71:82   */\n      add\n        /* \"--CODEGEN--\":64:103   */\n      mstore\n        /* \"--CODEGEN--\":52:54   */\n      0x20\n        /* \"--CODEGEN--\":49:50   */\n      dup2\n        /* \"--CODEGEN--\":45:55   */\n      add\n        /* \"--CODEGEN--\":40:55   */\n      swap1\n      pop\n        /* \"--CODEGEN--\":8:108   */\n      jump(tag_82)\n    tag_83:\n        /* \"--CODEGEN--\":12:26   */\n      pop\n        /* \"MLSAGVerify.sol\":3877:4393  function CalculateLinkableRingSegment_NoHash(uint256 ck, uint256 sk, uint256[2] P, uint256[2] I)\r... */\n      pop\n      pop\n      pop\n      swap1\n      pop\n      add\n      swap3\n      pop\n      pop\n      pop\n      mload(0x40)\n      dup1\n      swap2\n      sub\n      swap1\n      return\n        /* \"Debuggable.sol\":73:93  address public owner */\n    tag_16:\n      callvalue\n        /* \"--CODEGEN--\":8:17   */\n      dup1\n        /* \"--CODEGEN--\":5:7   */\n      iszero\n      tag_85\n      jumpi\n        /* \"--CODEGEN--\":30:31   */\n      0x0\n        /* \"--CODEGEN--\":27:28   */\n      dup1\n        /* \"--CODEGEN--\":20:32   */\n      revert\n        /* \"--CODEGEN--\":5:7   */\n    tag_85:\n        /* \"Debuggable.sol\":73:93  address public owner */\n      pop\n      tag_86\n      jump(tag_87)\n    tag_86:\n      mload(0x40)\n      dup1\n      dup3\n      0xffffffffffffffffffffffffffffffffffffffff\n      and\n      0xffffffffffffffffffffffffffffffffffffffff\n      and\n      dup2\n      mstore\n      0x20\n      add\n      swap2\n      pop\n      pop\n      mload(0x40)\n      dup1\n      swap2\n      sub\n      swap1\n      return\n        /* \"ECMathInterface.sol\":4109:4394  function ECMath_ChangeAddress(address ecMathAddr) public ownerOnly {\r... */\n    tag_17:\n      callvalue\n        /* \"--CODEGEN--\":8:17   */\n      dup1\n        /* \"--CODEGEN--\":5:7   */\n      iszero\n      tag_88\n      jumpi\n        /* \"--CODEGEN--\":30:31   */\n      0x0\n        /* \"--CODEGEN--\":27:28   */\n      dup1\n        /* \"--CODEGEN--\":20:32   */\n      revert\n        /* \"--CODEGEN--\":5:7   */\n    tag_88:\n        /* \"ECMathInterface.sol\":4109:4394  function ECMath_ChangeAddress(address ecMathAddr) public ownerOnly {\r... */\n      pop\n      tag_89\n      0x4\n      dup1\n      calldatasize\n      sub\n      dup2\n      add\n      swap1\n      dup1\n      dup1\n      calldataload\n      0xffffffffffffffffffffffffffffffffffffffff\n      and\n      swap1\n      0x20\n      add\n      swap1\n      swap3\n      swap2\n      swap1\n      pop\n      pop\n      pop\n      jump(tag_90)\n    tag_89:\n      stop\n        /* \"MLSAGVerify.sol\":2921:3222  function CalculateKeyImageFromPrivKey(uint256 pk)\r... */\n    tag_18:\n      callvalue\n        /* \"--CODEGEN--\":8:17   */\n      dup1\n        /* \"--CODEGEN--\":5:7   */\n      iszero\n      tag_91\n      jumpi\n        /* \"--CODEGEN--\":30:31   */\n      0x0\n        /* \"--CODEGEN--\":27:28   */\n      dup1\n        /* \"--CODEGEN--\":20:32   */\n      revert\n        /* \"--CODEGEN--\":5:7   */\n    tag_91:\n        /* \"MLSAGVerify.sol\":2921:3222  function CalculateKeyImageFromPrivKey(uint256 pk)\r... */\n      pop\n      tag_92\n      0x4\n      dup1\n      calldatasize\n      sub\n      dup2\n      add\n      swap1\n      dup1\n      dup1\n      calldataload\n      swap1\n      0x20\n      add\n      swap1\n      swap3\n      swap2\n      swap1\n      pop\n      pop\n      pop\n      jump(tag_93)\n    tag_92:\n      mload(0x40)\n      dup1\n      dup3\n      mul(0x20, 0x2)\n      dup1\n      dup4\n      dup4\n        /* \"--CODEGEN--\":23:24   */\n      0x0\n        /* \"--CODEGEN--\":8:108   */\n    tag_94:\n        /* \"--CODEGEN--\":33:36   */\n      dup4\n        /* \"--CODEGEN--\":30:31   */\n      dup2\n        /* \"--CODEGEN--\":27:37   */\n      lt\n        /* \"--CODEGEN--\":8:108   */\n      iszero\n      tag_95\n      jumpi\n        /* \"--CODEGEN--\":99:100   */\n      dup1\n        /* \"--CODEGEN--\":94:97   */\n      dup3\n        /* \"--CODEGEN--\":90:101   */\n      add\n        /* \"--CODEGEN--\":84:102   */\n      mload\n        /* \"--CODEGEN--\":80:81   */\n      dup2\n        /* \"--CODEGEN--\":75:78   */\n      dup5\n        /* \"--CODEGEN--\":71:82   */\n      add\n        /* \"--CODEGEN--\":64:103   */\n      mstore\n        /* \"--CODEGEN--\":52:54   */\n      0x20\n        /* \"--CODEGEN--\":49:50   */\n      dup2\n        /* \"--CODEGEN--\":45:55   */\n      add\n        /* \"--CODEGEN--\":40:55   */\n      swap1\n      pop\n        /* \"--CODEGEN--\":8:108   */\n      jump(tag_94)\n    tag_95:\n        /* \"--CODEGEN--\":12:26   */\n      pop\n        /* \"MLSAGVerify.sol\":2921:3222  function CalculateKeyImageFromPrivKey(uint256 pk)\r... */\n      pop\n      pop\n      pop\n      swap1\n      pop\n      add\n      swap2\n      pop\n      pop\n      mload(0x40)\n      dup1\n      swap2\n      sub\n      swap1\n      return\n        /* \"Debuggable.sol\":288:358  function Kill() public ownerOnly {\r... */\n    tag_19:\n      callvalue\n        /* \"--CODEGEN--\":8:17   */\n      dup1\n        /* \"--CODEGEN--\":5:7   */\n      iszero\n      tag_97\n      jumpi\n        /* \"--CODEGEN--\":30:31   */\n      0x0\n        /* \"--CODEGEN--\":27:28   */\n      dup1\n        /* \"--CODEGEN--\":20:32   */\n      revert\n        /* \"--CODEGEN--\":5:7   */\n    tag_97:\n        /* \"Debuggable.sol\":288:358  function Kill() public ownerOnly {\r... */\n      pop\n      tag_98\n      jump(tag_99)\n    tag_98:\n      stop\n        /* \"MLSAGVerify.sol\":12861:14869  function VerifyMLSAG(uint256 msgHash, uint256[] I, uint256[] P, uint256[] signature)\r... */\n    tag_20:\n      callvalue\n        /* \"--CODEGEN--\":8:17   */\n      dup1\n        /* \"--CODEGEN--\":5:7   */\n      iszero\n      tag_100\n      jumpi\n        /* \"--CODEGEN--\":30:31   */\n      0x0\n        /* \"--CODEGEN--\":27:28   */\n      dup1\n        /* \"--CODEGEN--\":20:32   */\n      revert\n        /* \"--CODEGEN--\":5:7   */\n    tag_100:\n        /* \"MLSAGVerify.sol\":12861:14869  function VerifyMLSAG(uint256 msgHash, uint256[] I, uint256[] P, uint256[] signature)\r... */\n      pop\n      tag_101\n      0x4\n      dup1\n      calldatasize\n      sub\n      dup2\n      add\n      swap1\n      dup1\n      dup1\n      calldataload\n      swap1\n      0x20\n      add\n      swap1\n      swap3\n      swap2\n      swap1\n      dup1\n      calldataload\n      swap1\n      0x20\n      add\n      swap1\n      dup3\n      add\n      dup1\n      calldataload\n      swap1\n      0x20\n      add\n      swap1\n      dup1\n      dup1\n      0x20\n      mul\n      0x20\n      add\n      mload(0x40)\n      swap1\n      dup2\n      add\n      0x40\n      mstore\n      dup1\n      swap4\n      swap3\n      swap2\n      swap1\n      dup2\n      dup2\n      mstore\n      0x20\n      add\n      dup4\n      dup4\n      0x20\n      mul\n      dup1\n      dup3\n      dup5\n      calldatacopy\n      dup3\n      add\n      swap2\n      pop\n      pop\n      pop\n      pop\n      pop\n      pop\n      swap2\n      swap3\n      swap2\n      swap3\n      swap1\n      dup1\n      calldataload\n      swap1\n      0x20\n      add\n      swap1\n      dup3\n      add\n      dup1\n      calldataload\n      swap1\n      0x20\n      add\n      swap1\n      dup1\n      dup1\n      0x20\n      mul\n      0x20\n      add\n      mload(0x40)\n      swap1\n      dup2\n      add\n      0x40\n      mstore\n      dup1\n      swap4\n      swap3\n      swap2\n      swap1\n      dup2\n      dup2\n      mstore\n      0x20\n      add\n      dup4\n      dup4\n      0x20\n      mul\n      dup1\n      dup3\n      dup5\n      calldatacopy\n      dup3\n      add\n      swap2\n      pop\n      pop\n      pop\n      pop\n      pop\n      pop\n      swap2\n      swap3\n      swap2\n      swap3\n      swap1\n      dup1\n      calldataload\n      swap1\n      0x20\n      add\n      swap1\n      dup3\n      add\n      dup1\n      calldataload\n      swap1\n      0x20\n      add\n      swap1\n      dup1\n      dup1\n      0x20\n      mul\n      0x20\n      add\n      mload(0x40)\n      swap1\n      dup2\n      add\n      0x40\n      mstore\n      dup1\n      swap4\n      swap3\n      swap2\n      swap1\n      dup2\n      dup2\n      mstore\n      0x20\n      add\n      dup4\n      dup4\n      0x20\n      mul\n      dup1\n      dup3\n      dup5\n      calldatacopy\n      dup3\n      add\n      swap2\n      pop\n      pop\n      pop\n      pop\n      pop\n      pop\n      swap2\n      swap3\n      swap2\n      swap3\n      swap1\n      pop\n      pop\n      pop\n      jump(tag_102)\n    tag_101:\n      mload(0x40)\n      dup1\n      dup3\n      iszero\n      iszero\n      iszero\n      iszero\n      dup2\n      mstore\n      0x20\n      add\n      swap2\n      pop\n      pop\n      mload(0x40)\n      dup1\n      swap2\n      sub\n      swap1\n      return\n        /* \"MLSAGVerify.sol\":5625:6359  function VerifySAG(uint256 msgHash, uint256[] P, uint256[] signature)\r... */\n    tag_21:\n      callvalue\n        /* \"--CODEGEN--\":8:17   */\n      dup1\n        /* \"--CODEGEN--\":5:7   */\n      iszero\n      tag_103\n      jumpi\n        /* \"--CODEGEN--\":30:31   */\n      0x0\n        /* \"--CODEGEN--\":27:28   */\n      dup1\n        /* \"--CODEGEN--\":20:32   */\n      revert\n        /* \"--CODEGEN--\":5:7   */\n    tag_103:\n        /* \"MLSAGVerify.sol\":5625:6359  function VerifySAG(uint256 msgHash, uint256[] P, uint256[] signature)\r... */\n      pop\n      tag_104\n      0x4\n      dup1\n      calldatasize\n      sub\n      dup2\n      add\n      swap1\n      dup1\n      dup1\n      calldataload\n      swap1\n      0x20\n      add\n      swap1\n      swap3\n      swap2\n      swap1\n      dup1\n      calldataload\n      swap1\n      0x20\n      add\n      swap1\n      dup3\n      add\n      dup1\n      calldataload\n      swap1\n      0x20\n      add\n      swap1\n      dup1\n      dup1\n      0x20\n      mul\n      0x20\n      add\n      mload(0x40)\n      swap1\n      dup2\n      add\n      0x40\n      mstore\n      dup1\n      swap4\n      swap3\n      swap2\n      swap1\n      dup2\n      dup2\n      mstore\n      0x20\n      add\n      dup4\n      dup4\n      0x20\n      mul\n      dup1\n      dup3\n      dup5\n      calldatacopy\n      dup3\n      add\n      swap2\n      pop\n      pop\n      pop\n      pop\n      pop\n      pop\n      swap2\n      swap3\n      swap2\n      swap3\n      swap1\n      dup1\n      calldataload\n      swap1\n      0x20\n      add\n      swap1\n      dup3\n      add\n      dup1\n      calldataload\n      swap1\n      0x20\n      add\n      swap1\n      dup1\n      dup1\n      0x20\n      mul\n      0x20\n      add\n      mload(0x40)\n      swap1\n      dup2\n      add\n      0x40\n      mstore\n      dup1\n      swap4\n      swap3\n      swap2\n      swap1\n      dup2\n      dup2\n      mstore\n      0x20\n      add\n      dup4\n      dup4\n      0x20\n      mul\n      dup1\n      dup3\n      dup5\n      calldatacopy\n      dup3\n      add\n      swap2\n      pop\n      pop\n      pop\n      pop\n      pop\n      pop\n      swap2\n      swap3\n      swap2\n      swap3\n      swap1\n      pop\n      pop\n      pop\n      jump(tag_105)\n    tag_104:\n      mload(0x40)\n      dup1\n      dup3\n      iszero\n      iszero\n      iszero\n      iszero\n      dup2\n      mstore\n      0x20\n      add\n      swap2\n      pop\n      pop\n      mload(0x40)\n      dup1\n      swap2\n      sub\n      swap1\n      return\n        /* \"MLSAGVerify.sol\":1286:1447  function StartRing_NoHash(uint256 alpha)\r... */\n    tag_22:\n      callvalue\n        /* \"--CODEGEN--\":8:17   */\n      dup1\n        /* \"--CODEGEN--\":5:7   */\n      iszero\n      tag_106\n      jumpi\n        /* \"--CODEGEN--\":30:31   */\n      0x0\n        /* \"--CODEGEN--\":27:28   */\n      dup1\n        /* \"--CODEGEN--\":20:32   */\n      revert\n        /* \"--CODEGEN--\":5:7   */\n    tag_106:\n        /* \"MLSAGVerify.sol\":1286:1447  function StartRing_NoHash(uint256 alpha)\r... */\n      pop\n      tag_107\n      0x4\n      dup1\n      calldatasize\n      sub\n      dup2\n      add\n      swap1\n      dup1\n      dup1\n      calldataload\n      swap1\n      0x20\n      add\n      swap1\n      swap3\n      swap2\n      swap1\n      pop\n      pop\n      pop\n      jump(tag_108)\n    tag_107:\n      mload(0x40)\n      dup1\n      dup3\n      mul(0x20, 0x2)\n      dup1\n      dup4\n      dup4\n        /* \"--CODEGEN--\":23:24   */\n      0x0\n        /* \"--CODEGEN--\":8:108   */\n    tag_109:\n        /* \"--CODEGEN--\":33:36   */\n      dup4\n        /* \"--CODEGEN--\":30:31   */\n      dup2\n        /* \"--CODEGEN--\":27:37   */\n      lt\n        /* \"--CODEGEN--\":8:108   */\n      iszero\n      tag_110\n      jumpi\n        /* \"--CODEGEN--\":99:100   */\n      dup1\n        /* \"--CODEGEN--\":94:97   */\n      dup3\n        /* \"--CODEGEN--\":90:101   */\n      add\n        /* \"--CODEGEN--\":84:102   */\n      mload\n        /* \"--CODEGEN--\":80:81   */\n      dup2\n        /* \"--CODEGEN--\":75:78   */\n      dup5\n        /* \"--CODEGEN--\":71:82   */\n      add\n        /* \"--CODEGEN--\":64:103   */\n      mstore\n        /* \"--CODEGEN--\":52:54   */\n      0x20\n        /* \"--CODEGEN--\":49:50   */\n      dup2\n        /* \"--CODEGEN--\":45:55   */\n      add\n        /* \"--CODEGEN--\":40:55   */\n      swap1\n      pop\n        /* \"--CODEGEN--\":8:108   */\n      jump(tag_109)\n    tag_110:\n        /* \"--CODEGEN--\":12:26   */\n      pop\n        /* \"MLSAGVerify.sol\":1286:1447  function StartRing_NoHash(uint256 alpha)\r... */\n      pop\n      pop\n      pop\n      swap1\n      pop\n      add\n      swap2\n      pop\n      pop\n      mload(0x40)\n      dup1\n      swap2\n      sub\n      swap1\n      return\n        /* \"ECMathInterface.sol\":3790:3888  function ECMath_GetAddress() public constant returns (address) {\r... */\n    tag_23:\n      callvalue\n        /* \"--CODEGEN--\":8:17   */\n      dup1\n        /* \"--CODEGEN--\":5:7   */\n      iszero\n      tag_112\n      jumpi\n        /* \"--CODEGEN--\":30:31   */\n      0x0\n        /* \"--CODEGEN--\":27:28   */\n      dup1\n        /* \"--CODEGEN--\":20:32   */\n      revert\n        /* \"--CODEGEN--\":5:7   */\n    tag_112:\n        /* \"ECMathInterface.sol\":3790:3888  function ECMath_GetAddress() public constant returns (address) {\r... */\n      pop\n      tag_113\n      jump(tag_114)\n    tag_113:\n      mload(0x40)\n      dup1\n      dup3\n      0xffffffffffffffffffffffffffffffffffffffff\n      and\n      0xffffffffffffffffffffffffffffffffffffffff\n      and\n      dup2\n      mstore\n      0x20\n      add\n      swap2\n      pop\n      pop\n      mload(0x40)\n      dup1\n      swap2\n      sub\n      swap1\n      return\n        /* \"MLSAGVerify.sol\":1966:2248  function CalculateRingSegment(uint256 msgHash, uint256 ck, uint256 sk, uint256[2] P)\r... */\n    tag_24:\n      callvalue\n        /* \"--CODEGEN--\":8:17   */\n      dup1\n        /* \"--CODEGEN--\":5:7   */\n      iszero\n      tag_115\n      jumpi\n        /* \"--CODEGEN--\":30:31   */\n      0x0\n        /* \"--CODEGEN--\":27:28   */\n      dup1\n        /* \"--CODEGEN--\":20:32   */\n      revert\n        /* \"--CODEGEN--\":5:7   */\n    tag_115:\n        /* \"MLSAGVerify.sol\":1966:2248  function CalculateRingSegment(uint256 msgHash, uint256 ck, uint256 sk, uint256[2] P)\r... */\n      pop\n      tag_116\n      0x4\n      dup1\n      calldatasize\n      sub\n      dup2\n      add\n      swap1\n      dup1\n      dup1\n      calldataload\n      swap1\n      0x20\n      add\n      swap1\n      swap3\n      swap2\n      swap1\n      dup1\n      calldataload\n      swap1\n      0x20\n      add\n      swap1\n      swap3\n      swap2\n      swap1\n      dup1\n      calldataload\n      swap1\n      0x20\n      add\n      swap1\n      swap3\n      swap2\n      swap1\n      dup1\n      0x40\n      add\n      swap1\n      0x2\n      dup1\n      0x20\n      mul\n      mload(0x40)\n      swap1\n      dup2\n      add\n      0x40\n      mstore\n      dup1\n      swap3\n      swap2\n      swap1\n      dup3\n      mul(0x20, 0x2)\n      dup1\n      dup3\n      dup5\n      calldatacopy\n      dup3\n      add\n      swap2\n      pop\n      pop\n      pop\n      pop\n      pop\n      swap2\n      swap3\n      swap2\n      swap3\n      swap1\n      pop\n      pop\n      pop\n      jump(tag_117)\n    tag_116:\n      mload(0x40)\n      dup1\n      dup3\n      dup2\n      mstore\n      0x20\n      add\n      swap2\n      pop\n      pop\n      mload(0x40)\n      dup1\n      swap2\n      sub\n      swap1\n      return\n        /* \"ECMathInterface.sol\":3894:4103  function ECMath_GetCodeSize() public constant returns (uint) {\r... */\n    tag_25:\n      callvalue\n        /* \"--CODEGEN--\":8:17   */\n      dup1\n        /* \"--CODEGEN--\":5:7   */\n      iszero\n      tag_118\n      jumpi\n        /* \"--CODEGEN--\":30:31   */\n      0x0\n        /* \"--CODEGEN--\":27:28   */\n      dup1\n        /* \"--CODEGEN--\":20:32   */\n      revert\n        /* \"--CODEGEN--\":5:7   */\n    tag_118:\n        /* \"ECMathInterface.sol\":3894:4103  function ECMath_GetCodeSize() public constant returns (uint) {\r... */\n      pop\n      tag_119\n      jump(tag_120)\n    tag_119:\n      mload(0x40)\n      dup1\n      dup3\n      dup2\n      mstore\n      0x20\n      add\n      swap2\n      pop\n      pop\n      mload(0x40)\n      dup1\n      swap2\n      sub\n      swap1\n      return\n        /* \"MLSAGVerify.sol\":4405:4778  function CalculateLinkableRingSegment(uint256 msgHash, uint256 ck, uint256 sk, uint256[2] P, uint256[2] I)\r... */\n    tag_26:\n      callvalue\n        /* \"--CODEGEN--\":8:17   */\n      dup1\n        /* \"--CODEGEN--\":5:7   */\n      iszero\n      tag_121\n      jumpi\n        /* \"--CODEGEN--\":30:31   */\n      0x0\n        /* \"--CODEGEN--\":27:28   */\n      dup1\n        /* \"--CODEGEN--\":20:32   */\n      revert\n        /* \"--CODEGEN--\":5:7   */\n    tag_121:\n        /* \"MLSAGVerify.sol\":4405:4778  function CalculateLinkableRingSegment(uint256 msgHash, uint256 ck, uint256 sk, uint256[2] P, uint256[2] I)\r... */\n      pop\n      tag_122\n      0x4\n      dup1\n      calldatasize\n      sub\n      dup2\n      add\n      swap1\n      dup1\n      dup1\n      calldataload\n      swap1\n      0x20\n      add\n      swap1\n      swap3\n      swap2\n      swap1\n      dup1\n      calldataload\n      swap1\n      0x20\n      add\n      swap1\n      swap3\n      swap2\n      swap1\n      dup1\n      calldataload\n      swap1\n      0x20\n      add\n      swap1\n      swap3\n      swap2\n      swap1\n      dup1\n      0x40\n      add\n      swap1\n      0x2\n      dup1\n      0x20\n      mul\n      mload(0x40)\n      swap1\n      dup2\n      add\n      0x40\n      mstore\n      dup1\n      swap3\n      swap2\n      swap1\n      dup3\n      mul(0x20, 0x2)\n      dup1\n      dup3\n      dup5\n      calldatacopy\n      dup3\n      add\n      swap2\n      pop\n      pop\n      pop\n      pop\n      pop\n      swap2\n      swap3\n      swap2\n      swap3\n      swap1\n      dup1\n      0x40\n      add\n      swap1\n      0x2\n      dup1\n      0x20\n      mul\n      mload(0x40)\n      swap1\n      dup2\n      add\n      0x40\n      mstore\n      dup1\n      swap3\n      swap2\n      swap1\n      dup3\n      mul(0x20, 0x2)\n      dup1\n      dup3\n      dup5\n      calldatacopy\n      dup3\n      add\n      swap2\n      pop\n      pop\n      pop\n      pop\n      pop\n      swap2\n      swap3\n      swap2\n      swap3\n      swap1\n      pop\n      pop\n      pop\n      jump(tag_123)\n    tag_122:\n      mload(0x40)\n      dup1\n      dup3\n      dup2\n      mstore\n      0x20\n      add\n      swap2\n      pop\n      pop\n      mload(0x40)\n      dup1\n      swap2\n      sub\n      swap1\n      return\n        /* \"MLSAGVerify.sol\":8520:9218  function VerifyLSAG_Compressed(uint256 msgHash, uint256 I, uint256[] P, uint256[] signature)\r... */\n    tag_27:\n      callvalue\n        /* \"--CODEGEN--\":8:17   */\n      dup1\n        /* \"--CODEGEN--\":5:7   */\n      iszero\n      tag_124\n      jumpi\n        /* \"--CODEGEN--\":30:31   */\n      0x0\n        /* \"--CODEGEN--\":27:28   */\n      dup1\n        /* \"--CODEGEN--\":20:32   */\n      revert\n        /* \"--CODEGEN--\":5:7   */\n    tag_124:\n        /* \"MLSAGVerify.sol\":8520:9218  function VerifyLSAG_Compressed(uint256 msgHash, uint256 I, uint256[] P, uint256[] signature)\r... */\n      pop\n      tag_125\n      0x4\n      dup1\n      calldatasize\n      sub\n      dup2\n      add\n      swap1\n      dup1\n      dup1\n      calldataload\n      swap1\n      0x20\n      add\n      swap1\n      swap3\n      swap2\n      swap1\n      dup1\n      calldataload\n      swap1\n      0x20\n      add\n      swap1\n      swap3\n      swap2\n      swap1\n      dup1\n      calldataload\n      swap1\n      0x20\n      add\n      swap1\n      dup3\n      add\n      dup1\n      calldataload\n      swap1\n      0x20\n      add\n      swap1\n      dup1\n      dup1\n      0x20\n      mul\n      0x20\n      add\n      mload(0x40)\n      swap1\n      dup2\n      add\n      0x40\n      mstore\n      dup1\n      swap4\n      swap3\n      swap2\n      swap1\n      dup2\n      dup2\n      mstore\n      0x20\n      add\n      dup4\n      dup4\n      0x20\n      mul\n      dup1\n      dup3\n      dup5\n      calldatacopy\n      dup3\n      add\n      swap2\n      pop\n      pop\n      pop\n      pop\n      pop\n      pop\n      swap2\n      swap3\n      swap2\n      swap3\n      swap1\n      dup1\n      calldataload\n      swap1\n      0x20\n      add\n      swap1\n      dup3\n      add\n      dup1\n      calldataload\n      swap1\n      0x20\n      add\n      swap1\n      dup1\n      dup1\n      0x20\n      mul\n      0x20\n      add\n      mload(0x40)\n      swap1\n      dup2\n      add\n      0x40\n      mstore\n      dup1\n      swap4\n      swap3\n      swap2\n      swap1\n      dup2\n      dup2\n      mstore\n      0x20\n      add\n      dup4\n      dup4\n      0x20\n      mul\n      dup1\n      dup3\n      dup5\n      calldatacopy\n      dup3\n      add\n      swap2\n      pop\n      pop\n      pop\n      pop\n      pop\n      pop\n      swap2\n      swap3\n      swap2\n      swap3\n      swap1\n      pop\n      pop\n      pop\n      jump(tag_126)\n    tag_125:\n      mload(0x40)\n      dup1\n      dup3\n      iszero\n      iszero\n      iszero\n      iszero\n      dup2\n      mstore\n      0x20\n      add\n      swap2\n      pop\n      pop\n      mload(0x40)\n      dup1\n      swap2\n      sub\n      swap1\n      return\n        /* \"MLSAGVerify.sol\":6604:7105  function VerifySAG_Compressed(uint256 msgHash, uint256[] P, uint256[] signature)\r... */\n    tag_30:\n        /* \"MLSAGVerify.sol\":6719:6731  bool success */\n      0x0\n        /* \"MLSAGVerify.sol\":6749:6771  uint256[2] memory temp */\n      tag_127\n      jump\t// in(tag_128)\n    tag_127:\n        /* \"MLSAGVerify.sol\":6782:6807  uint256[] memory P_uncomp */\n      0x60\n        /* \"MLSAGVerify.sol\":6861:6870  uint256 i */\n      0x0\n        /* \"MLSAGVerify.sol\":6833:6834  2 */\n      0x2\n        /* \"MLSAGVerify.sol\":6824:6825  P */\n      dup7\n        /* \"MLSAGVerify.sol\":6824:6832  P.length */\n      mload\n        /* \"MLSAGVerify.sol\":6824:6834  P.length*2 */\n      mul\n        /* \"MLSAGVerify.sol\":6810:6835  new uint256[](P.length*2) */\n      mload(0x40)\n      swap1\n      dup1\n      dup3\n      mstore\n      dup1\n      0x20\n      mul\n      0x20\n      add\n      dup3\n      add\n      0x40\n      mstore\n      dup1\n      iszero\n      tag_130\n      jumpi\n      dup2\n      0x20\n      add\n        /* \"--CODEGEN--\":29:31   */\n      0x20\n        /* \"--CODEGEN--\":21:27   */\n      dup3\n        /* \"--CODEGEN--\":17:32   */\n      mul\n        /* \"--CODEGEN--\":117:121   */\n      dup1\n        /* \"--CODEGEN--\":105:115   */\n      codesize\n        /* \"--CODEGEN--\":97:103   */\n      dup4\n        /* \"--CODEGEN--\":88:122   */\n      codecopy\n        /* \"--CODEGEN--\":148:152   */\n      dup1\n        /* \"--CODEGEN--\":140:146   */\n      dup3\n        /* \"--CODEGEN--\":136:153   */\n      add\n        /* \"--CODEGEN--\":126:153   */\n      swap2\n      pop\n        /* \"--CODEGEN--\":0:157   */\n      pop\n        /* \"MLSAGVerify.sol\":6810:6835  new uint256[](P.length*2) */\n      swap1\n      pop\n    tag_130:\n      pop\n        /* \"MLSAGVerify.sol\":6782:6835  uint256[] memory P_uncomp = new uint256[](P.length*2) */\n      swap2\n      pop\n        /* \"MLSAGVerify.sol\":6873:6874  0 */\n      0x0\n        /* \"MLSAGVerify.sol\":6861:6874  uint256 i = 0 */\n      swap1\n      pop\n        /* \"MLSAGVerify.sol\":6856:7031  for (uint256 i = 0; i < P.length; i++) {\r... */\n    tag_131:\n        /* \"MLSAGVerify.sol\":6880:6881  P */\n      dup6\n        /* \"MLSAGVerify.sol\":6880:6888  P.length */\n      mload\n        /* \"MLSAGVerify.sol\":6876:6877  i */\n      dup2\n        /* \"MLSAGVerify.sol\":6876:6888  i < P.length */\n      lt\n        /* \"MLSAGVerify.sol\":6856:7031  for (uint256 i = 0; i < P.length; i++) {\r... */\n      iszero\n      tag_132\n      jumpi\n        /* \"MLSAGVerify.sol\":6917:6923  ecMath */\n      0x1\n      0x0\n      swap1\n      sload\n      swap1\n      0x100\n      exp\n      swap1\n      div\n      0xffffffffffffffffffffffffffffffffffffffff\n      and\n        /* \"MLSAGVerify.sol\":6917:6935  ecMath.ExpandPoint */\n      0xffffffffffffffffffffffffffffffffffffffff\n      and\n      0x5da7f69e\n        /* \"MLSAGVerify.sol\":6936:6937  P */\n      dup8\n        /* \"MLSAGVerify.sol\":6938:6939  i */\n      dup4\n        /* \"MLSAGVerify.sol\":6936:6940  P[i] */\n      dup2\n      mload\n      dup2\n      lt\n      iszero\n      iszero\n      tag_134\n      jumpi\n      invalid\n    tag_134:\n      swap1\n      0x20\n      add\n      swap1\n      0x20\n      mul\n      add\n      mload\n        /* \"MLSAGVerify.sol\":6917:6941  ecMath.ExpandPoint(P[i]) */\n      mload(0x40)\n      dup3\n      0xffffffff\n      and\n      0x100000000000000000000000000000000000000000000000000000000\n      mul\n      dup2\n      mstore\n      0x4\n      add\n      dup1\n      dup3\n      dup2\n      mstore\n      0x20\n      add\n      swap2\n      pop\n      pop\n      0x40\n      dup1\n      mload\n      dup1\n      dup4\n      sub\n      dup2\n      0x0\n      dup8\n      dup1\n      extcodesize\n      iszero\n        /* \"--CODEGEN--\":8:17   */\n      dup1\n        /* \"--CODEGEN--\":5:7   */\n      iszero\n      tag_135\n      jumpi\n        /* \"--CODEGEN--\":30:31   */\n      0x0\n        /* \"--CODEGEN--\":27:28   */\n      dup1\n        /* \"--CODEGEN--\":20:32   */\n      revert\n        /* \"--CODEGEN--\":5:7   */\n    tag_135:\n        /* \"MLSAGVerify.sol\":6917:6941  ecMath.ExpandPoint(P[i]) */\n      pop\n      gas\n      call\n      iszero\n        /* \"--CODEGEN--\":8:17   */\n      dup1\n        /* \"--CODEGEN--\":5:7   */\n      iszero\n      tag_136\n      jumpi\n        /* \"--CODEGEN--\":45:61   */\n      returndatasize\n        /* \"--CODEGEN--\":42:43   */\n      0x0\n        /* \"--CODEGEN--\":39:40   */\n      dup1\n        /* \"--CODEGEN--\":24:62   */\n      returndatacopy\n        /* \"--CODEGEN--\":77:93   */\n      returndatasize\n        /* \"--CODEGEN--\":74:75   */\n      0x0\n        /* \"--CODEGEN--\":67:94   */\n      revert\n        /* \"--CODEGEN--\":5:7   */\n    tag_136:\n        /* \"MLSAGVerify.sol\":6917:6941  ecMath.ExpandPoint(P[i]) */\n      pop\n      pop\n      pop\n      pop\n      mload(0x40)\n      returndatasize\n        /* \"--CODEGEN--\":101:105   */\n      0x1f\n        /* \"--CODEGEN--\":97:106   */\n      not\n        /* \"--CODEGEN--\":90:94   */\n      0x1f\n        /* \"--CODEGEN--\":84:88   */\n      dup3\n        /* \"--CODEGEN--\":80:95   */\n      add\n        /* \"--CODEGEN--\":76:107   */\n      and\n        /* \"--CODEGEN--\":69:74   */\n      dup3\n        /* \"--CODEGEN--\":65:108   */\n      add\n        /* \"--CODEGEN--\":126:132   */\n      dup1\n        /* \"--CODEGEN--\":120:124   */\n      0x40\n        /* \"--CODEGEN--\":113:133   */\n      mstore\n        /* \"--CODEGEN--\":0:138   */\n      pop\n        /* \"--CODEGEN--\":13:15   */\n      0x40\n        /* \"--CODEGEN--\":8:11   */\n      dup2\n        /* \"--CODEGEN--\":5:16   */\n      lt\n        /* \"--CODEGEN--\":2:4   */\n      iszero\n      tag_137\n      jumpi\n        /* \"--CODEGEN--\":29:30   */\n      0x0\n        /* \"--CODEGEN--\":26:27   */\n      dup1\n        /* \"--CODEGEN--\":19:31   */\n      revert\n        /* \"--CODEGEN--\":2:4   */\n    tag_137:\n        /* \"MLSAGVerify.sol\":6917:6941  ecMath.ExpandPoint(P[i]) */\n      dup2\n      add\n      swap1\n      dup1\n      swap2\n      swap1\n      pop\n      pop\n        /* \"MLSAGVerify.sol\":6910:6941  temp = ecMath.ExpandPoint(P[i]) */\n      swap3\n      pop\n        /* \"MLSAGVerify.sol\":6972:6976  temp */\n      dup3\n        /* \"MLSAGVerify.sol\":6977:6978  0 */\n      0x0\n        /* \"MLSAGVerify.sol\":6972:6979  temp[0] */\n      0x2\n      dup2\n      lt\n      iszero\n      iszero\n      tag_138\n      jumpi\n      invalid\n    tag_138:\n      0x20\n      mul\n      add\n      mload\n        /* \"MLSAGVerify.sol\":6956:6964  P_uncomp */\n      dup3\n        /* \"MLSAGVerify.sol\":6967:6968  i */\n      dup3\n        /* \"MLSAGVerify.sol\":6965:6966  2 */\n      0x2\n        /* \"MLSAGVerify.sol\":6965:6968  2*i */\n      mul\n        /* \"MLSAGVerify.sol\":6956:6969  P_uncomp[2*i] */\n      dup2\n      mload\n      dup2\n      lt\n      iszero\n      iszero\n      tag_139\n      jumpi\n      invalid\n    tag_139:\n      swap1\n      0x20\n      add\n      swap1\n      0x20\n      mul\n      add\n        /* \"MLSAGVerify.sol\":6956:6979  P_uncomp[2*i] = temp[0] */\n      dup2\n      dup2\n      mstore\n      pop\n      pop\n        /* \"MLSAGVerify.sol\":7012:7016  temp */\n      dup3\n        /* \"MLSAGVerify.sol\":7017:7018  1 */\n      0x1\n        /* \"MLSAGVerify.sol\":7012:7019  temp[1] */\n      0x2\n      dup2\n      lt\n      iszero\n      iszero\n      tag_140\n      jumpi\n      invalid\n    tag_140:\n      0x20\n      mul\n      add\n      mload\n        /* \"MLSAGVerify.sol\":6994:7002  P_uncomp */\n      dup3\n        /* \"MLSAGVerify.sol\":7007:7008  1 */\n      0x1\n        /* \"MLSAGVerify.sol\":7005:7006  i */\n      dup4\n        /* \"MLSAGVerify.sol\":7003:7004  2 */\n      0x2\n        /* \"MLSAGVerify.sol\":7003:7006  2*i */\n      mul\n        /* \"MLSAGVerify.sol\":7003:7008  2*i+1 */\n      add\n        /* \"MLSAGVerify.sol\":6994:7009  P_uncomp[2*i+1] */\n      dup2\n      mload\n      dup2\n      lt\n      iszero\n      iszero\n      tag_141\n      jumpi\n      invalid\n    tag_141:\n      swap1\n      0x20\n      add\n      swap1\n      0x20\n      mul\n      add\n        /* \"MLSAGVerify.sol\":6994:7019  P_uncomp[2*i+1] = temp[1] */\n      dup2\n      dup2\n      mstore\n      pop\n      pop\n        /* \"MLSAGVerify.sol\":6890:6893  i++ */\n      dup1\n      dup1\n      0x1\n      add\n      swap2\n      pop\n      pop\n        /* \"MLSAGVerify.sol\":6856:7031  for (uint256 i = 0; i < P.length; i++) {\r... */\n      jump(tag_131)\n    tag_132:\n        /* \"MLSAGVerify.sol\":7058:7097  VerifySAG(msgHash, P_uncomp, signature) */\n      tag_142\n        /* \"MLSAGVerify.sol\":7068:7075  msgHash */\n      dup8\n        /* \"MLSAGVerify.sol\":7077:7085  P_uncomp */\n      dup4\n        /* \"MLSAGVerify.sol\":7087:7096  signature */\n      dup8\n        /* \"MLSAGVerify.sol\":7058:7067  VerifySAG */\n      tag_105\n        /* \"MLSAGVerify.sol\":7058:7097  VerifySAG(msgHash, P_uncomp, signature) */\n      jump\t// in\n    tag_142:\n        /* \"MLSAGVerify.sol\":7051:7097  return VerifySAG(msgHash, P_uncomp, signature) */\n      swap4\n      pop\n        /* \"MLSAGVerify.sol\":6604:7105  function VerifySAG_Compressed(uint256 msgHash, uint256[] P, uint256[] signature)\r... */\n      pop\n      pop\n      pop\n      swap4\n      swap3\n      pop\n      pop\n      pop\n      jump\t// out\n        /* \"MLSAGVerify.sol\":15272:16063  function VerifyMLSAG_Compressed(uint256 msgHash, uint256[] I, uint256[] P, uint256[] signature)\r... */\n    tag_33:\n        /* \"MLSAGVerify.sol\":15402:15414  bool success */\n      0x0\n        /* \"MLSAGVerify.sol\":15432:15454  uint256[2] memory temp */\n      tag_143\n      jump\t// in(tag_128)\n    tag_143:\n        /* \"MLSAGVerify.sol\":15465:15490  uint256[] memory P_uncomp */\n      0x60\n        /* \"MLSAGVerify.sol\":15529:15554  uint256[] memory I_uncomp */\n      dup1\n        /* \"MLSAGVerify.sol\":15603:15612  uint256 i */\n      0x0\n        /* \"MLSAGVerify.sol\":15516:15517  2 */\n      0x2\n        /* \"MLSAGVerify.sol\":15507:15508  P */\n      dup8\n        /* \"MLSAGVerify.sol\":15507:15515  P.length */\n      mload\n        /* \"MLSAGVerify.sol\":15507:15517  P.length*2 */\n      mul\n        /* \"MLSAGVerify.sol\":15493:15518  new uint256[](P.length*2) */\n      mload(0x40)\n      swap1\n      dup1\n      dup3\n      mstore\n      dup1\n      0x20\n      mul\n      0x20\n      add\n      dup3\n      add\n      0x40\n      mstore\n      dup1\n      iszero\n      tag_145\n      jumpi\n      dup2\n      0x20\n      add\n        /* \"--CODEGEN--\":29:31   */\n      0x20\n        /* \"--CODEGEN--\":21:27   */\n      dup3\n        /* \"--CODEGEN--\":17:32   */\n      mul\n        /* \"--CODEGEN--\":117:121   */\n      dup1\n        /* \"--CODEGEN--\":105:115   */\n      codesize\n        /* \"--CODEGEN--\":97:103   */\n      dup4\n        /* \"--CODEGEN--\":88:122   */\n      codecopy\n        /* \"--CODEGEN--\":148:152   */\n      dup1\n        /* \"--CODEGEN--\":140:146   */\n      dup3\n        /* \"--CODEGEN--\":136:153   */\n      add\n        /* \"--CODEGEN--\":126:153   */\n      swap2\n      pop\n        /* \"--CODEGEN--\":0:157   */\n      pop\n        /* \"MLSAGVerify.sol\":15493:15518  new uint256[](P.length*2) */\n      swap1\n      pop\n    tag_145:\n      pop\n        /* \"MLSAGVerify.sol\":15465:15518  uint256[] memory P_uncomp = new uint256[](P.length*2) */\n      swap3\n      pop\n        /* \"MLSAGVerify.sol\":15580:15581  2 */\n      0x2\n        /* \"MLSAGVerify.sol\":15571:15572  I */\n      dup9\n        /* \"MLSAGVerify.sol\":15571:15579  I.length */\n      mload\n        /* \"MLSAGVerify.sol\":15571:15581  I.length*2 */\n      mul\n        /* \"MLSAGVerify.sol\":15557:15582  new uint256[](I.length*2) */\n      mload(0x40)\n      swap1\n      dup1\n      dup3\n      mstore\n      dup1\n      0x20\n      mul\n      0x20\n      add\n      dup3\n      add\n      0x40\n      mstore\n      dup1\n      iszero\n      tag_146\n      jumpi\n      dup2\n      0x20\n      add\n        /* \"--CODEGEN--\":29:31   */\n      0x20\n        /* \"--CODEGEN--\":21:27   */\n      dup3\n        /* \"--CODEGEN--\":17:32   */\n      mul\n        /* \"--CODEGEN--\":117:121   */\n      dup1\n        /* \"--CODEGEN--\":105:115   */\n      codesize\n        /* \"--CODEGEN--\":97:103   */\n      dup4\n        /* \"--CODEGEN--\":88:122   */\n      codecopy\n        /* \"--CODEGEN--\":148:152   */\n      dup1\n        /* \"--CODEGEN--\":140:146   */\n      dup3\n        /* \"--CODEGEN--\":136:153   */\n      add\n        /* \"--CODEGEN--\":126:153   */\n      swap2\n      pop\n        /* \"--CODEGEN--\":0:157   */\n      pop\n        /* \"MLSAGVerify.sol\":15557:15582  new uint256[](I.length*2) */\n      swap1\n      pop\n    tag_146:\n      pop\n        /* \"MLSAGVerify.sol\":15529:15582  uint256[] memory I_uncomp = new uint256[](I.length*2) */\n      swap2\n      pop\n        /* \"MLSAGVerify.sol\":15632:15633  0 */\n      0x0\n        /* \"MLSAGVerify.sol\":15628:15633  i = 0 */\n      swap1\n      pop\n        /* \"MLSAGVerify.sol\":15623:15790  for (i = 0; i < P.length; i++) {\r... */\n    tag_147:\n        /* \"MLSAGVerify.sol\":15639:15640  P */\n      dup7\n        /* \"MLSAGVerify.sol\":15639:15647  P.length */\n      mload\n        /* \"MLSAGVerify.sol\":15635:15636  i */\n      dup2\n        /* \"MLSAGVerify.sol\":15635:15647  i < P.length */\n      lt\n        /* \"MLSAGVerify.sol\":15623:15790  for (i = 0; i < P.length; i++) {\r... */\n      iszero\n      tag_148\n      jumpi\n        /* \"MLSAGVerify.sol\":15676:15682  ecMath */\n      0x1\n      0x0\n      swap1\n      sload\n      swap1\n      0x100\n      exp\n      swap1\n      div\n      0xffffffffffffffffffffffffffffffffffffffff\n      and\n        /* \"MLSAGVerify.sol\":15676:15694  ecMath.ExpandPoint */\n      0xffffffffffffffffffffffffffffffffffffffff\n      and\n      0x5da7f69e\n        /* \"MLSAGVerify.sol\":15695:15696  P */\n      dup9\n        /* \"MLSAGVerify.sol\":15697:15698  i */\n      dup4\n        /* \"MLSAGVerify.sol\":15695:15699  P[i] */\n      dup2\n      mload\n      dup2\n      lt\n      iszero\n      iszero\n      tag_150\n      jumpi\n      invalid\n    tag_150:\n      swap1\n      0x20\n      add\n      swap1\n      0x20\n      mul\n      add\n      mload\n        /* \"MLSAGVerify.sol\":15676:15700  ecMath.ExpandPoint(P[i]) */\n      mload(0x40)\n      dup3\n      0xffffffff\n      and\n      0x100000000000000000000000000000000000000000000000000000000\n      mul\n      dup2\n      mstore\n      0x4\n      add\n      dup1\n      dup3\n      dup2\n      mstore\n      0x20\n      add\n      swap2\n      pop\n      pop\n      0x40\n      dup1\n      mload\n      dup1\n      dup4\n      sub\n      dup2\n      0x0\n      dup8\n      dup1\n      extcodesize\n      iszero\n        /* \"--CODEGEN--\":8:17   */\n      dup1\n        /* \"--CODEGEN--\":5:7   */\n      iszero\n      tag_151\n      jumpi\n        /* \"--CODEGEN--\":30:31   */\n      0x0\n        /* \"--CODEGEN--\":27:28   */\n      dup1\n        /* \"--CODEGEN--\":20:32   */\n      revert\n        /* \"--CODEGEN--\":5:7   */\n    tag_151:\n        /* \"MLSAGVerify.sol\":15676:15700  ecMath.ExpandPoint(P[i]) */\n      pop\n      gas\n      call\n      iszero\n        /* \"--CODEGEN--\":8:17   */\n      dup1\n        /* \"--CODEGEN--\":5:7   */\n      iszero\n      tag_152\n      jumpi\n        /* \"--CODEGEN--\":45:61   */\n      returndatasize\n        /* \"--CODEGEN--\":42:43   */\n      0x0\n        /* \"--CODEGEN--\":39:40   */\n      dup1\n        /* \"--CODEGEN--\":24:62   */\n      returndatacopy\n        /* \"--CODEGEN--\":77:93   */\n      returndatasize\n        /* \"--CODEGEN--\":74:75   */\n      0x0\n        /* \"--CODEGEN--\":67:94   */\n      revert\n        /* \"--CODEGEN--\":5:7   */\n    tag_152:\n        /* \"MLSAGVerify.sol\":15676:15700  ecMath.ExpandPoint(P[i]) */\n      pop\n      pop\n      pop\n      pop\n      mload(0x40)\n      returndatasize\n        /* \"--CODEGEN--\":101:105   */\n      0x1f\n        /* \"--CODEGEN--\":97:106   */\n      not\n        /* \"--CODEGEN--\":90:94   */\n      0x1f\n        /* \"--CODEGEN--\":84:88   */\n      dup3\n        /* \"--CODEGEN--\":80:95   */\n      add\n        /* \"--CODEGEN--\":76:107   */\n      and\n        /* \"--CODEGEN--\":69:74   */\n      dup3\n        /* \"--CODEGEN--\":65:108   */\n      add\n        /* \"--CODEGEN--\":126:132   */\n      dup1\n        /* \"--CODEGEN--\":120:124   */\n      0x40\n        /* \"--CODEGEN--\":113:133   */\n      mstore\n        /* \"--CODEGEN--\":0:138   */\n      pop\n        /* \"--CODEGEN--\":13:15   */\n      0x40\n        /* \"--CODEGEN--\":8:11   */\n      dup2\n        /* \"--CODEGEN--\":5:16   */\n      lt\n        /* \"--CODEGEN--\":2:4   */\n      iszero\n      tag_153\n      jumpi\n        /* \"--CODEGEN--\":29:30   */\n      0x0\n        /* \"--CODEGEN--\":26:27   */\n      dup1\n        /* \"--CODEGEN--\":19:31   */\n      revert\n        /* \"--CODEGEN--\":2:4   */\n    tag_153:\n        /* \"MLSAGVerify.sol\":15676:15700  ecMath.ExpandPoint(P[i]) */\n      dup2\n      add\n      swap1\n      dup1\n      swap2\n      swap1\n      pop\n      pop\n        /* \"MLSAGVerify.sol\":15669:15700  temp = ecMath.ExpandPoint(P[i]) */\n      swap4\n      pop\n        /* \"MLSAGVerify.sol\":15731:15735  temp */\n      dup4\n        /* \"MLSAGVerify.sol\":15736:15737  0 */\n      0x0\n        /* \"MLSAGVerify.sol\":15731:15738  temp[0] */\n      0x2\n      dup2\n      lt\n      iszero\n      iszero\n      tag_154\n      jumpi\n      invalid\n    tag_154:\n      0x20\n      mul\n      add\n      mload\n        /* \"MLSAGVerify.sol\":15715:15723  P_uncomp */\n      dup4\n        /* \"MLSAGVerify.sol\":15726:15727  i */\n      dup3\n        /* \"MLSAGVerify.sol\":15724:15725  2 */\n      0x2\n        /* \"MLSAGVerify.sol\":15724:15727  2*i */\n      mul\n        /* \"MLSAGVerify.sol\":15715:15728  P_uncomp[2*i] */\n      dup2\n      mload\n      dup2\n      lt\n      iszero\n      iszero\n      tag_155\n      jumpi\n      invalid\n    tag_155:\n      swap1\n      0x20\n      add\n      swap1\n      0x20\n      mul\n      add\n        /* \"MLSAGVerify.sol\":15715:15738  P_uncomp[2*i] = temp[0] */\n      dup2\n      dup2\n      mstore\n      pop\n      pop\n        /* \"MLSAGVerify.sol\":15771:15775  temp */\n      dup4\n        /* \"MLSAGVerify.sol\":15776:15777  1 */\n      0x1\n        /* \"MLSAGVerify.sol\":15771:15778  temp[1] */\n      0x2\n      dup2\n      lt\n      iszero\n      iszero\n      tag_156\n      jumpi\n      invalid\n    tag_156:\n      0x20\n      mul\n      add\n      mload\n        /* \"MLSAGVerify.sol\":15753:15761  P_uncomp */\n      dup4\n        /* \"MLSAGVerify.sol\":15766:15767  1 */\n      0x1\n        /* \"MLSAGVerify.sol\":15764:15765  i */\n      dup4\n        /* \"MLSAGVerify.sol\":15762:15763  2 */\n      0x2\n        /* \"MLSAGVerify.sol\":15762:15765  2*i */\n      mul\n        /* \"MLSAGVerify.sol\":15762:15767  2*i+1 */\n      add\n        /* \"MLSAGVerify.sol\":15753:15768  P_uncomp[2*i+1] */\n      dup2\n      mload\n      dup2\n      lt\n      iszero\n      iszero\n      tag_157\n      jumpi\n      invalid\n    tag_157:\n      swap1\n      0x20\n      add\n      swap1\n      0x20\n      mul\n      add\n        /* \"MLSAGVerify.sol\":15753:15778  P_uncomp[2*i+1] = temp[1] */\n      dup2\n      dup2\n      mstore\n      pop\n      pop\n        /* \"MLSAGVerify.sol\":15649:15652  i++ */\n      dup1\n      dup1\n      0x1\n      add\n      swap2\n      pop\n      pop\n        /* \"MLSAGVerify.sol\":15623:15790  for (i = 0; i < P.length; i++) {\r... */\n      jump(tag_147)\n    tag_148:\n        /* \"MLSAGVerify.sol\":15819:15820  0 */\n      0x0\n        /* \"MLSAGVerify.sol\":15815:15820  i = 0 */\n      swap1\n      pop\n        /* \"MLSAGVerify.sol\":15810:15977  for (i = 0; i < I.length; i++) {\r... */\n    tag_158:\n        /* \"MLSAGVerify.sol\":15826:15827  I */\n      dup8\n        /* \"MLSAGVerify.sol\":15826:15834  I.length */\n      mload\n        /* \"MLSAGVerify.sol\":15822:15823  i */\n      dup2\n        /* \"MLSAGVerify.sol\":15822:15834  i < I.length */\n      lt\n        /* \"MLSAGVerify.sol\":15810:15977  for (i = 0; i < I.length; i++) {\r... */\n      iszero\n      tag_159\n      jumpi\n        /* \"MLSAGVerify.sol\":15863:15869  ecMath */\n      0x1\n      0x0\n      swap1\n      sload\n      swap1\n      0x100\n      exp\n      swap1\n      div\n      0xffffffffffffffffffffffffffffffffffffffff\n      and\n        /* \"MLSAGVerify.sol\":15863:15881  ecMath.ExpandPoint */\n      0xffffffffffffffffffffffffffffffffffffffff\n      and\n      0x5da7f69e\n        /* \"MLSAGVerify.sol\":15882:15883  I */\n      dup10\n        /* \"MLSAGVerify.sol\":15884:15885  i */\n      dup4\n        /* \"MLSAGVerify.sol\":15882:15886  I[i] */\n      dup2\n      mload\n      dup2\n      lt\n      iszero\n      iszero\n      tag_161\n      jumpi\n      invalid\n    tag_161:\n      swap1\n      0x20\n      add\n      swap1\n      0x20\n      mul\n      add\n      mload\n        /* \"MLSAGVerify.sol\":15863:15887  ecMath.ExpandPoint(I[i]) */\n      mload(0x40)\n      dup3\n      0xffffffff\n      and\n      0x100000000000000000000000000000000000000000000000000000000\n      mul\n      dup2\n      mstore\n      0x4\n      add\n      dup1\n      dup3\n      dup2\n      mstore\n      0x20\n      add\n      swap2\n      pop\n      pop\n      0x40\n      dup1\n      mload\n      dup1\n      dup4\n      sub\n      dup2\n      0x0\n      dup8\n      dup1\n      extcodesize\n      iszero\n        /* \"--CODEGEN--\":8:17   */\n      dup1\n        /* \"--CODEGEN--\":5:7   */\n      iszero\n      tag_162\n      jumpi\n        /* \"--CODEGEN--\":30:31   */\n      0x0\n        /* \"--CODEGEN--\":27:28   */\n      dup1\n        /* \"--CODEGEN--\":20:32   */\n      revert\n        /* \"--CODEGEN--\":5:7   */\n    tag_162:\n        /* \"MLSAGVerify.sol\":15863:15887  ecMath.ExpandPoint(I[i]) */\n      pop\n      gas\n      call\n      iszero\n        /* \"--CODEGEN--\":8:17   */\n      dup1\n        /* \"--CODEGEN--\":5:7   */\n      iszero\n      tag_163\n      jumpi\n        /* \"--CODEGEN--\":45:61   */\n      returndatasize\n        /* \"--CODEGEN--\":42:43   */\n      0x0\n        /* \"--CODEGEN--\":39:40   */\n      dup1\n        /* \"--CODEGEN--\":24:62   */\n      returndatacopy\n        /* \"--CODEGEN--\":77:93   */\n      returndatasize\n        /* \"--CODEGEN--\":74:75   */\n      0x0\n        /* \"--CODEGEN--\":67:94   */\n      revert\n        /* \"--CODEGEN--\":5:7   */\n    tag_163:\n        /* \"MLSAGVerify.sol\":15863:15887  ecMath.ExpandPoint(I[i]) */\n      pop\n      pop\n      pop\n      pop\n      mload(0x40)\n      returndatasize\n        /* \"--CODEGEN--\":101:105   */\n      0x1f\n        /* \"--CODEGEN--\":97:106   */\n      not\n        /* \"--CODEGEN--\":90:94   */\n      0x1f\n        /* \"--CODEGEN--\":84:88   */\n      dup3\n        /* \"--CODEGEN--\":80:95   */\n      add\n        /* \"--CODEGEN--\":76:107   */\n      and\n        /* \"--CODEGEN--\":69:74   */\n      dup3\n        /* \"--CODEGEN--\":65:108   */\n      add\n        /* \"--CODEGEN--\":126:132   */\n      dup1\n        /* \"--CODEGEN--\":120:124   */\n      0x40\n        /* \"--CODEGEN--\":113:133   */\n      mstore\n        /* \"--CODEGEN--\":0:138   */\n      pop\n        /* \"--CODEGEN--\":13:15   */\n      0x40\n        /* \"--CODEGEN--\":8:11   */\n      dup2\n        /* \"--CODEGEN--\":5:16   */\n      lt\n        /* \"--CODEGEN--\":2:4   */\n      iszero\n      tag_164\n      jumpi\n        /* \"--CODEGEN--\":29:30   */\n      0x0\n        /* \"--CODEGEN--\":26:27   */\n      dup1\n        /* \"--CODEGEN--\":19:31   */\n      revert\n        /* \"--CODEGEN--\":2:4   */\n    tag_164:\n        /* \"MLSAGVerify.sol\":15863:15887  ecMath.ExpandPoint(I[i]) */\n      dup2\n      add\n      swap1\n      dup1\n      swap2\n      swap1\n      pop\n      pop\n        /* \"MLSAGVerify.sol\":15856:15887  temp = ecMath.ExpandPoint(I[i]) */\n      swap4\n      pop\n        /* \"MLSAGVerify.sol\":15918:15922  temp */\n      dup4\n        /* \"MLSAGVerify.sol\":15923:15924  0 */\n      0x0\n        /* \"MLSAGVerify.sol\":15918:15925  temp[0] */\n      0x2\n      dup2\n      lt\n      iszero\n      iszero\n      tag_165\n      jumpi\n      invalid\n    tag_165:\n      0x20\n      mul\n      add\n      mload\n        /* \"MLSAGVerify.sol\":15902:15910  I_uncomp */\n      dup3\n        /* \"MLSAGVerify.sol\":15913:15914  i */\n      dup3\n        /* \"MLSAGVerify.sol\":15911:15912  2 */\n      0x2\n        /* \"MLSAGVerify.sol\":15911:15914  2*i */\n      mul\n        /* \"MLSAGVerify.sol\":15902:15915  I_uncomp[2*i] */\n      dup2\n      mload\n      dup2\n      lt\n      iszero\n      iszero\n      tag_166\n      jumpi\n      invalid\n    tag_166:\n      swap1\n      0x20\n      add\n      swap1\n      0x20\n      mul\n      add\n        /* \"MLSAGVerify.sol\":15902:15925  I_uncomp[2*i] = temp[0] */\n      dup2\n      dup2\n      mstore\n      pop\n      pop\n        /* \"MLSAGVerify.sol\":15958:15962  temp */\n      dup4\n        /* \"MLSAGVerify.sol\":15963:15964  1 */\n      0x1\n        /* \"MLSAGVerify.sol\":15958:15965  temp[1] */\n      0x2\n      dup2\n      lt\n      iszero\n      iszero\n      tag_167\n      jumpi\n      invalid\n    tag_167:\n      0x20\n      mul\n      add\n      mload\n        /* \"MLSAGVerify.sol\":15940:15948  I_uncomp */\n      dup3\n        /* \"MLSAGVerify.sol\":15953:15954  1 */\n      0x1\n        /* \"MLSAGVerify.sol\":15951:15952  i */\n      dup4\n        /* \"MLSAGVerify.sol\":15949:15950  2 */\n      0x2\n        /* \"MLSAGVerify.sol\":15949:15952  2*i */\n      mul\n        /* \"MLSAGVerify.sol\":15949:15954  2*i+1 */\n      add\n        /* \"MLSAGVerify.sol\":15940:15955  I_uncomp[2*i+1] */\n      dup2\n      mload\n      dup2\n      lt\n      iszero\n      iszero\n      tag_168\n      jumpi\n      invalid\n    tag_168:\n      swap1\n      0x20\n      add\n      swap1\n      0x20\n      mul\n      add\n        /* \"MLSAGVerify.sol\":15940:15965  I_uncomp[2*i+1] = temp[1] */\n      dup2\n      dup2\n      mstore\n      pop\n      pop\n        /* \"MLSAGVerify.sol\":15836:15839  i++ */\n      dup1\n      dup1\n      0x1\n      add\n      swap2\n      pop\n      pop\n        /* \"MLSAGVerify.sol\":15810:15977  for (i = 0; i < I.length; i++) {\r... */\n      jump(tag_158)\n    tag_159:\n        /* \"MLSAGVerify.sol\":16004:16055  VerifyMLSAG(msgHash, I_uncomp, P_uncomp, signature) */\n      tag_169\n        /* \"MLSAGVerify.sol\":16016:16023  msgHash */\n      dup10\n        /* \"MLSAGVerify.sol\":16025:16033  I_uncomp */\n      dup4\n        /* \"MLSAGVerify.sol\":16035:16043  P_uncomp */\n      dup6\n        /* \"MLSAGVerify.sol\":16045:16054  signature */\n      dup10\n        /* \"MLSAGVerify.sol\":16004:16015  VerifyMLSAG */\n      tag_102\n        /* \"MLSAGVerify.sol\":16004:16055  VerifyMLSAG(msgHash, I_uncomp, P_uncomp, signature) */\n      jump\t// in\n    tag_169:\n        /* \"MLSAGVerify.sol\":15997:16055  return VerifyMLSAG(msgHash, I_uncomp, P_uncomp, signature) */\n      swap5\n      pop\n        /* \"MLSAGVerify.sol\":15272:16063  function VerifyMLSAG_Compressed(uint256 msgHash, uint256[] I, uint256[] P, uint256[] signature)\r... */\n      pop\n      pop\n      pop\n      pop\n      swap5\n      swap4\n      pop\n      pop\n      pop\n      pop\n      jump\t// out\n        /* \"MLSAGVerify.sol\":7348:8236  function VerifyLSAG(uint256 msgHash, uint256[] I, uint256[] P, uint256[] signature)\r... */\n    tag_36:\n        /* \"MLSAGVerify.sol\":7466:7478  bool success */\n      0x0\n        /* \"MLSAGVerify.sol\":7533:7551  Variables memory v */\n      tag_170\n      jump\t// in(tag_171)\n    tag_170:\n        /* \"MLSAGVerify.sol\":7578:7579  2 */\n      0x2\n        /* \"MLSAGVerify.sol\":7566:7567  I */\n      dup6\n        /* \"MLSAGVerify.sol\":7566:7574  I.length */\n      mload\n        /* \"MLSAGVerify.sol\":7566:7579  I.length != 2 */\n      eq\n      iszero\n        /* \"MLSAGVerify.sol\":7562:7593  if (I.length != 2) return false */\n      iszero\n      tag_173\n      jumpi\n        /* \"MLSAGVerify.sol\":7588:7593  false */\n      0x0\n        /* \"MLSAGVerify.sol\":7581:7593  return false */\n      swap2\n      pop\n      jump(tag_172)\n        /* \"MLSAGVerify.sol\":7562:7593  if (I.length != 2) return false */\n    tag_173:\n        /* \"MLSAGVerify.sol\":7624:7625  0 */\n      0x0\n        /* \"MLSAGVerify.sol\":7619:7620  2 */\n      0x2\n        /* \"MLSAGVerify.sol\":7608:7609  P */\n      dup6\n        /* \"MLSAGVerify.sol\":7608:7616  P.length */\n      mload\n        /* \"MLSAGVerify.sol\":7608:7620  P.length % 2 */\n      dup2\n      iszero\n      iszero\n      tag_174\n      jumpi\n      invalid\n    tag_174:\n      mod\n        /* \"MLSAGVerify.sol\":7608:7625  P.length % 2 != 0 */\n      eq\n      iszero\n        /* \"MLSAGVerify.sol\":7604:7639  if (P.length % 2 != 0) return false */\n      iszero\n      tag_175\n      jumpi\n        /* \"MLSAGVerify.sol\":7634:7639  false */\n      0x0\n        /* \"MLSAGVerify.sol\":7627:7639  return false */\n      swap2\n      pop\n      jump(tag_172)\n        /* \"MLSAGVerify.sol\":7604:7639  if (P.length % 2 != 0) return false */\n    tag_175:\n        /* \"MLSAGVerify.sol\":7668:7669  2 */\n      0x2\n        /* \"MLSAGVerify.sol\":7657:7658  P */\n      dup5\n        /* \"MLSAGVerify.sol\":7657:7665  P.length */\n      mload\n        /* \"MLSAGVerify.sol\":7657:7669  P.length / 2 */\n      dup2\n      iszero\n      iszero\n      tag_176\n      jumpi\n      invalid\n    tag_176:\n      div\n        /* \"MLSAGVerify.sol\":7650:7651  v */\n      dup2\n        /* \"MLSAGVerify.sol\":7650:7653  v.n */\n      0x20\n      add\n        /* \"MLSAGVerify.sol\":7650:7670  v.n = (P.length / 2) */\n      dup2\n      dup2\n      mstore\n      pop\n      pop\n        /* \"MLSAGVerify.sol\":7710:7711  1 */\n      0x1\n        /* \"MLSAGVerify.sol\":7706:7707  v */\n      dup2\n        /* \"MLSAGVerify.sol\":7706:7709  v.n */\n      0x20\n      add\n      mload\n        /* \"MLSAGVerify.sol\":7706:7711  v.n+1 */\n      add\n        /* \"MLSAGVerify.sol\":7685:7694  signature */\n      dup4\n        /* \"MLSAGVerify.sol\":7685:7701  signature.length */\n      mload\n        /* \"MLSAGVerify.sol\":7685:7712  signature.length != (v.n+1) */\n      eq\n      iszero\n        /* \"MLSAGVerify.sol\":7681:7726  if (signature.length != (v.n+1)) return false */\n      iszero\n      tag_177\n      jumpi\n        /* \"MLSAGVerify.sol\":7721:7726  false */\n      0x0\n        /* \"MLSAGVerify.sol\":7714:7726  return false */\n      swap2\n      pop\n      jump(tag_172)\n        /* \"MLSAGVerify.sol\":7681:7726  if (signature.length != (v.n+1)) return false */\n    tag_177:\n        /* \"MLSAGVerify.sol\":7754:7763  signature */\n      dup3\n        /* \"MLSAGVerify.sol\":7764:7765  0 */\n      0x0\n        /* \"MLSAGVerify.sol\":7754:7766  signature[0] */\n      dup2\n      mload\n      dup2\n      lt\n      iszero\n      iszero\n      tag_178\n      jumpi\n      invalid\n    tag_178:\n      swap1\n      0x20\n      add\n      swap1\n      0x20\n      mul\n      add\n      mload\n        /* \"MLSAGVerify.sol\":7747:7748  v */\n      dup2\n        /* \"MLSAGVerify.sol\":7747:7751  v.ck */\n      0x80\n      add\n        /* \"MLSAGVerify.sol\":7747:7766  v.ck = signature[0] */\n      dup2\n      dup2\n      mstore\n      pop\n      pop\n        /* \"MLSAGVerify.sol\":7842:7843  I */\n      dup5\n        /* \"MLSAGVerify.sol\":7844:7845  0 */\n      0x0\n        /* \"MLSAGVerify.sol\":7842:7846  I[0] */\n      dup2\n      mload\n      dup2\n      lt\n      iszero\n      iszero\n      tag_179\n      jumpi\n      invalid\n    tag_179:\n      swap1\n      0x20\n      add\n      swap1\n      0x20\n      mul\n      add\n      mload\n        /* \"MLSAGVerify.sol\":7848:7849  I */\n      dup6\n        /* \"MLSAGVerify.sol\":7850:7851  1 */\n      0x1\n        /* \"MLSAGVerify.sol\":7848:7852  I[1] */\n      dup2\n      mload\n      dup2\n      lt\n      iszero\n      iszero\n      tag_180\n      jumpi\n      invalid\n    tag_180:\n      swap1\n      0x20\n      add\n      swap1\n      0x20\n      mul\n      add\n      mload\n        /* \"MLSAGVerify.sol\":7809:7810  v */\n      dup3\n        /* \"MLSAGVerify.sol\":7809:7819  v.keyImage */\n      0x100\n      add\n      mload\n        /* \"MLSAGVerify.sol\":7820:7821  0 */\n      0x0\n        /* \"MLSAGVerify.sol\":7809:7822  v.keyImage[0] */\n      0x2\n      dup2\n      lt\n      iszero\n      iszero\n      tag_181\n      jumpi\n      invalid\n    tag_181:\n      0x20\n      mul\n      add\n        /* \"MLSAGVerify.sol\":7824:7825  v */\n      dup4\n        /* \"MLSAGVerify.sol\":7824:7834  v.keyImage */\n      0x100\n      add\n      mload\n        /* \"MLSAGVerify.sol\":7835:7836  1 */\n      0x1\n        /* \"MLSAGVerify.sol\":7824:7837  v.keyImage[1] */\n      0x2\n      dup2\n      lt\n      iszero\n      iszero\n      tag_182\n      jumpi\n      invalid\n    tag_182:\n      0x20\n      mul\n      add\n        /* \"MLSAGVerify.sol\":7808:7853  (v.keyImage[0], v.keyImage[1]) = (I[0], I[1]) */\n      dup3\n      dup2\n      mstore\n      pop\n      dup3\n      dup2\n      mstore\n      pop\n      pop\n      pop\n        /* \"MLSAGVerify.sol\":7906:7907  0 */\n      0x0\n        /* \"MLSAGVerify.sol\":7900:7901  v */\n      dup2\n        /* \"MLSAGVerify.sol\":7900:7903  v.i */\n      0x40\n      add\n        /* \"MLSAGVerify.sol\":7900:7907  v.i = 0 */\n      dup2\n      dup2\n      mstore\n      pop\n      pop\n        /* \"MLSAGVerify.sol\":7895:8131  for (v.i = 0; v.i < v.n; v.i++) {\r... */\n    tag_183:\n        /* \"MLSAGVerify.sol\":7915:7916  v */\n      dup1\n        /* \"MLSAGVerify.sol\":7915:7918  v.n */\n      0x20\n      add\n      mload\n        /* \"MLSAGVerify.sol\":7909:7910  v */\n      dup2\n        /* \"MLSAGVerify.sol\":7909:7912  v.i */\n      0x40\n      add\n      mload\n        /* \"MLSAGVerify.sol\":7909:7918  v.i < v.n */\n      lt\n        /* \"MLSAGVerify.sol\":7895:8131  for (v.i = 0; v.i < v.n; v.i++) {\r... */\n      iszero\n      tag_184\n      jumpi\n        /* \"MLSAGVerify.sol\":7972:7973  P */\n      dup4\n        /* \"MLSAGVerify.sol\":7976:7977  v */\n      dup2\n        /* \"MLSAGVerify.sol\":7976:7979  v.i */\n      0x40\n      add\n      mload\n        /* \"MLSAGVerify.sol\":7974:7975  2 */\n      0x2\n        /* \"MLSAGVerify.sol\":7974:7979  2*v.i */\n      mul\n        /* \"MLSAGVerify.sol\":7972:7980  P[2*v.i] */\n      dup2\n      mload\n      dup2\n      lt\n      iszero\n      iszero\n      tag_186\n      jumpi\n      invalid\n    tag_186:\n      swap1\n      0x20\n      add\n      swap1\n      0x20\n      mul\n      add\n      mload\n        /* \"MLSAGVerify.sol\":7982:7983  P */\n      dup5\n        /* \"MLSAGVerify.sol\":7990:7991  1 */\n      0x1\n        /* \"MLSAGVerify.sol\":7986:7987  v */\n      dup4\n        /* \"MLSAGVerify.sol\":7986:7989  v.i */\n      0x40\n      add\n      mload\n        /* \"MLSAGVerify.sol\":7984:7985  2 */\n      0x2\n        /* \"MLSAGVerify.sol\":7984:7989  2*v.i */\n      mul\n        /* \"MLSAGVerify.sol\":7984:7991  2*v.i+1 */\n      add\n        /* \"MLSAGVerify.sol\":7982:7992  P[2*v.i+1] */\n      dup2\n      mload\n      dup2\n      lt\n      iszero\n      iszero\n      tag_187\n      jumpi\n      invalid\n    tag_187:\n      swap1\n      0x20\n      add\n      swap1\n      0x20\n      mul\n      add\n      mload\n        /* \"MLSAGVerify.sol\":7943:7944  v */\n      dup3\n        /* \"MLSAGVerify.sol\":7943:7951  v.point1 */\n      0xc0\n      add\n      mload\n        /* \"MLSAGVerify.sol\":7952:7953  0 */\n      0x0\n        /* \"MLSAGVerify.sol\":7943:7954  v.point1[0] */\n      0x2\n      dup2\n      lt\n      iszero\n      iszero\n      tag_188\n      jumpi\n      invalid\n    tag_188:\n      0x20\n      mul\n      add\n        /* \"MLSAGVerify.sol\":7956:7957  v */\n      dup4\n        /* \"MLSAGVerify.sol\":7956:7964  v.point1 */\n      0xc0\n      add\n      mload\n        /* \"MLSAGVerify.sol\":7965:7966  1 */\n      0x1\n        /* \"MLSAGVerify.sol\":7956:7967  v.point1[1] */\n      0x2\n      dup2\n      lt\n      iszero\n      iszero\n      tag_189\n      jumpi\n      invalid\n    tag_189:\n      0x20\n      mul\n      add\n        /* \"MLSAGVerify.sol\":7942:7993  (v.point1[0], v.point1[1]) = (P[2*v.i], P[2*v.i+1]) */\n      dup3\n      dup2\n      mstore\n      pop\n      dup3\n      dup2\n      mstore\n      pop\n      pop\n      pop\n        /* \"MLSAGVerify.sol\":8036:8119  CalculateLinkableRingSegment(msgHash, v.ck, signature[v.i+1], v.point1, v.keyImage) */\n      tag_190\n        /* \"MLSAGVerify.sol\":8065:8072  msgHash */\n      dup7\n        /* \"MLSAGVerify.sol\":8074:8075  v */\n      dup3\n        /* \"MLSAGVerify.sol\":8074:8078  v.ck */\n      0x80\n      add\n      mload\n        /* \"MLSAGVerify.sol\":8080:8089  signature */\n      dup6\n        /* \"MLSAGVerify.sol\":8094:8095  1 */\n      0x1\n        /* \"MLSAGVerify.sol\":8090:8091  v */\n      dup6\n        /* \"MLSAGVerify.sol\":8090:8093  v.i */\n      0x40\n      add\n      mload\n        /* \"MLSAGVerify.sol\":8090:8095  v.i+1 */\n      add\n        /* \"MLSAGVerify.sol\":8080:8096  signature[v.i+1] */\n      dup2\n      mload\n      dup2\n      lt\n      iszero\n      iszero\n      tag_191\n      jumpi\n      invalid\n    tag_191:\n      swap1\n      0x20\n      add\n      swap1\n      0x20\n      mul\n      add\n      mload\n        /* \"MLSAGVerify.sol\":8098:8099  v */\n      dup5\n        /* \"MLSAGVerify.sol\":8098:8106  v.point1 */\n      0xc0\n      add\n      mload\n        /* \"MLSAGVerify.sol\":8108:8109  v */\n      dup6\n        /* \"MLSAGVerify.sol\":8108:8118  v.keyImage */\n      0x100\n      add\n      mload\n        /* \"MLSAGVerify.sol\":8036:8064  CalculateLinkableRingSegment */\n      tag_123\n        /* \"MLSAGVerify.sol\":8036:8119  CalculateLinkableRingSegment(msgHash, v.ck, signature[v.i+1], v.point1, v.keyImage) */\n      jump\t// in\n    tag_190:\n        /* \"MLSAGVerify.sol\":8029:8030  v */\n      dup2\n        /* \"MLSAGVerify.sol\":8029:8033  v.ck */\n      0x80\n      add\n        /* \"MLSAGVerify.sol\":8029:8119  v.ck = CalculateLinkableRingSegment(msgHash, v.ck, signature[v.i+1], v.point1, v.keyImage) */\n      dup2\n      dup2\n      mstore\n      pop\n      pop\n        /* \"MLSAGVerify.sol\":7920:7921  v */\n      dup1\n        /* \"MLSAGVerify.sol\":7920:7923  v.i */\n      0x40\n      add\n        /* \"MLSAGVerify.sol\":7920:7925  v.i++ */\n      dup1\n      mload\n      dup1\n      swap2\n      swap1\n      0x1\n      add\n      dup2\n      mstore\n      pop\n      pop\n        /* \"MLSAGVerify.sol\":7895:8131  for (v.i = 0; v.i < v.n; v.i++) {\r... */\n      jump(tag_183)\n    tag_184:\n        /* \"MLSAGVerify.sol\":8215:8224  signature */\n      dup3\n        /* \"MLSAGVerify.sol\":8225:8226  0 */\n      0x0\n        /* \"MLSAGVerify.sol\":8215:8227  signature[0] */\n      dup2\n      mload\n      dup2\n      lt\n      iszero\n      iszero\n      tag_192\n      jumpi\n      invalid\n    tag_192:\n      swap1\n      0x20\n      add\n      swap1\n      0x20\n      mul\n      add\n      mload\n        /* \"MLSAGVerify.sol\":8207:8208  v */\n      dup2\n        /* \"MLSAGVerify.sol\":8207:8211  v.ck */\n      0x80\n      add\n      mload\n        /* \"MLSAGVerify.sol\":8207:8227  v.ck == signature[0] */\n      eq\n        /* \"MLSAGVerify.sol\":8196:8228  success = (v.ck == signature[0]) */\n      swap2\n      pop\n        /* \"MLSAGVerify.sol\":7348:8236  function VerifyLSAG(uint256 msgHash, uint256[] I, uint256[] P, uint256[] signature)\r... */\n    tag_172:\n      pop\n      swap5\n      swap4\n      pop\n      pop\n      pop\n      pop\n      jump\t// out\n        /* \"MLSAGVerify.sol\":1459:1637  function StartRing(uint256 msgHash, uint256 alpha)\r... */\n    tag_39:\n        /* \"MLSAGVerify.sol\":1544:1555  uint256 ckp */\n      0x0\n        /* \"MLSAGVerify.sol\":1579:1629  RingHashFunction(msgHash, StartRing_NoHash(alpha)) */\n      tag_194\n        /* \"MLSAGVerify.sol\":1596:1603  msgHash */\n      dup4\n        /* \"MLSAGVerify.sol\":1605:1628  StartRing_NoHash(alpha) */\n      tag_195\n        /* \"MLSAGVerify.sol\":1622:1627  alpha */\n      dup5\n        /* \"MLSAGVerify.sol\":1605:1621  StartRing_NoHash */\n      tag_108\n        /* \"MLSAGVerify.sol\":1605:1628  StartRing_NoHash(alpha) */\n      jump\t// in\n    tag_195:\n        /* \"MLSAGVerify.sol\":1579:1595  RingHashFunction */\n      tag_75\n        /* \"MLSAGVerify.sol\":1579:1629  RingHashFunction(msgHash, StartRing_NoHash(alpha)) */\n      jump\t// in\n    tag_194:\n        /* \"MLSAGVerify.sol\":1573:1629  ckp = RingHashFunction(msgHash, StartRing_NoHash(alpha)) */\n      swap1\n      pop\n        /* \"MLSAGVerify.sol\":1459:1637  function StartRing(uint256 msgHash, uint256 alpha)\r... */\n      swap3\n      swap2\n      pop\n      pop\n      jump\t// out\n        /* \"MLSAGVerify.sol\":3234:3529  function StartLinkableRing_NoHash(uint256 alpha, uint256[2] P)\r... */\n    tag_42:\n        /* \"MLSAGVerify.sol\":3331:3346  uint256[2] Lout */\n      tag_196\n      jump\t// in(tag_128)\n    tag_196:\n        /* \"MLSAGVerify.sol\":3348:3363  uint256[2] Rout */\n      tag_197\n      jump\t// in(tag_128)\n    tag_197:\n        /* \"MLSAGVerify.sol\":3388:3394  ecMath */\n      0x1\n      0x0\n      swap1\n      sload\n      swap1\n      0x100\n      exp\n      swap1\n      div\n      0xffffffffffffffffffffffffffffffffffffffff\n      and\n        /* \"MLSAGVerify.sol\":3388:3403  ecMath.Multiply */\n      0xffffffffffffffffffffffffffffffffffffffff\n      and\n      0xc025d89b\n        /* \"MLSAGVerify.sol\":3404:3410  ecMath */\n      0x1\n      0x0\n      swap1\n      sload\n      swap1\n      0x100\n      exp\n      swap1\n      div\n      0xffffffffffffffffffffffffffffffffffffffff\n      and\n        /* \"MLSAGVerify.sol\":3404:3416  ecMath.GetG1 */\n      0xffffffffffffffffffffffffffffffffffffffff\n      and\n      0xae5d39f6\n        /* \"MLSAGVerify.sol\":3404:3418  ecMath.GetG1() */\n      mload(0x40)\n      dup2\n      0xffffffff\n      and\n      0x100000000000000000000000000000000000000000000000000000000\n      mul\n      dup2\n      mstore\n      0x4\n      add\n      0x40\n      dup1\n      mload\n      dup1\n      dup4\n      sub\n      dup2\n      0x0\n      dup8\n      dup1\n      extcodesize\n      iszero\n        /* \"--CODEGEN--\":8:17   */\n      dup1\n        /* \"--CODEGEN--\":5:7   */\n      iszero\n      tag_199\n      jumpi\n        /* \"--CODEGEN--\":30:31   */\n      0x0\n        /* \"--CODEGEN--\":27:28   */\n      dup1\n        /* \"--CODEGEN--\":20:32   */\n      revert\n        /* \"--CODEGEN--\":5:7   */\n    tag_199:\n        /* \"MLSAGVerify.sol\":3404:3418  ecMath.GetG1() */\n      pop\n      gas\n      call\n      iszero\n        /* \"--CODEGEN--\":8:17   */\n      dup1\n        /* \"--CODEGEN--\":5:7   */\n      iszero\n      tag_200\n      jumpi\n        /* \"--CODEGEN--\":45:61   */\n      returndatasize\n        /* \"--CODEGEN--\":42:43   */\n      0x0\n        /* \"--CODEGEN--\":39:40   */\n      dup1\n        /* \"--CODEGEN--\":24:62   */\n      returndatacopy\n        /* \"--CODEGEN--\":77:93   */\n      returndatasize\n        /* \"--CODEGEN--\":74:75   */\n      0x0\n        /* \"--CODEGEN--\":67:94   */\n      revert\n        /* \"--CODEGEN--\":5:7   */\n    tag_200:\n        /* \"MLSAGVerify.sol\":3404:3418  ecMath.GetG1() */\n      pop\n      pop\n      pop\n      pop\n      mload(0x40)\n      returndatasize\n        /* \"--CODEGEN--\":101:105   */\n      0x1f\n        /* \"--CODEGEN--\":97:106   */\n      not\n        /* \"--CODEGEN--\":90:94   */\n      0x1f\n        /* \"--CODEGEN--\":84:88   */\n      dup3\n        /* \"--CODEGEN--\":80:95   */\n      add\n        /* \"--CODEGEN--\":76:107   */\n      and\n        /* \"--CODEGEN--\":69:74   */\n      dup3\n        /* \"--CODEGEN--\":65:108   */\n      add\n        /* \"--CODEGEN--\":126:132   */\n      dup1\n        /* \"--CODEGEN--\":120:124   */\n      0x40\n        /* \"--CODEGEN--\":113:133   */\n      mstore\n        /* \"--CODEGEN--\":0:138   */\n      pop\n        /* \"--CODEGEN--\":13:15   */\n      0x40\n        /* \"--CODEGEN--\":8:11   */\n      dup2\n        /* \"--CODEGEN--\":5:16   */\n      lt\n        /* \"--CODEGEN--\":2:4   */\n      iszero\n      tag_201\n      jumpi\n        /* \"--CODEGEN--\":29:30   */\n      0x0\n        /* \"--CODEGEN--\":26:27   */\n      dup1\n        /* \"--CODEGEN--\":19:31   */\n      revert\n        /* \"--CODEGEN--\":2:4   */\n    tag_201:\n        /* \"MLSAGVerify.sol\":3404:3418  ecMath.GetG1() */\n      dup2\n      add\n      swap1\n      dup1\n      swap2\n      swap1\n      pop\n      pop\n        /* \"MLSAGVerify.sol\":3420:3425  alpha */\n      dup7\n        /* \"MLSAGVerify.sol\":3388:3426  ecMath.Multiply(ecMath.GetG1(), alpha) */\n      mload(0x40)\n      dup4\n      0xffffffff\n      and\n      0x100000000000000000000000000000000000000000000000000000000\n      mul\n      dup2\n      mstore\n      0x4\n      add\n      dup1\n      dup4\n      mul(0x20, 0x2)\n      dup1\n      dup4\n      dup4\n        /* \"--CODEGEN--\":23:24   */\n      0x0\n        /* \"--CODEGEN--\":8:108   */\n    tag_202:\n        /* \"--CODEGEN--\":33:36   */\n      dup4\n        /* \"--CODEGEN--\":30:31   */\n      dup2\n        /* \"--CODEGEN--\":27:37   */\n      lt\n        /* \"--CODEGEN--\":8:108   */\n      iszero\n      tag_203\n      jumpi\n        /* \"--CODEGEN--\":99:100   */\n      dup1\n        /* \"--CODEGEN--\":94:97   */\n      dup3\n        /* \"--CODEGEN--\":90:101   */\n      add\n        /* \"--CODEGEN--\":84:102   */\n      mload\n        /* \"--CODEGEN--\":80:81   */\n      dup2\n        /* \"--CODEGEN--\":75:78   */\n      dup5\n        /* \"--CODEGEN--\":71:82   */\n      add\n        /* \"--CODEGEN--\":64:103   */\n      mstore\n        /* \"--CODEGEN--\":52:54   */\n      0x20\n        /* \"--CODEGEN--\":49:50   */\n      dup2\n        /* \"--CODEGEN--\":45:55   */\n      add\n        /* \"--CODEGEN--\":40:55   */\n      swap1\n      pop\n        /* \"--CODEGEN--\":8:108   */\n      jump(tag_202)\n    tag_203:\n        /* \"--CODEGEN--\":12:26   */\n      pop\n        /* \"MLSAGVerify.sol\":3388:3426  ecMath.Multiply(ecMath.GetG1(), alpha) */\n      pop\n      pop\n      pop\n      swap1\n      pop\n      add\n      dup3\n      dup2\n      mstore\n      0x20\n      add\n      swap3\n      pop\n      pop\n      pop\n      0x40\n      dup1\n      mload\n      dup1\n      dup4\n      sub\n      dup2\n      0x0\n      dup8\n      dup1\n      extcodesize\n      iszero\n        /* \"--CODEGEN--\":8:17   */\n      dup1\n        /* \"--CODEGEN--\":5:7   */\n      iszero\n      tag_205\n      jumpi\n        /* \"--CODEGEN--\":30:31   */\n      0x0\n        /* \"--CODEGEN--\":27:28   */\n      dup1\n        /* \"--CODEGEN--\":20:32   */\n      revert\n        /* \"--CODEGEN--\":5:7   */\n    tag_205:\n        /* \"MLSAGVerify.sol\":3388:3426  ecMath.Multiply(ecMath.GetG1(), alpha) */\n      pop\n      gas\n      call\n      iszero\n        /* \"--CODEGEN--\":8:17   */\n      dup1\n        /* \"--CODEGEN--\":5:7   */\n      iszero\n      tag_206\n      jumpi\n        /* \"--CODEGEN--\":45:61   */\n      returndatasize\n        /* \"--CODEGEN--\":42:43   */\n      0x0\n        /* \"--CODEGEN--\":39:40   */\n      dup1\n        /* \"--CODEGEN--\":24:62   */\n      returndatacopy\n        /* \"--CODEGEN--\":77:93   */\n      returndatasize\n        /* \"--CODEGEN--\":74:75   */\n      0x0\n        /* \"--CODEGEN--\":67:94   */\n      revert\n        /* \"--CODEGEN--\":5:7   */\n    tag_206:\n        /* \"MLSAGVerify.sol\":3388:3426  ecMath.Multiply(ecMath.GetG1(), alpha) */\n      pop\n      pop\n      pop\n      pop\n      mload(0x40)\n      returndatasize\n        /* \"--CODEGEN--\":101:105   */\n      0x1f\n        /* \"--CODEGEN--\":97:106   */\n      not\n        /* \"--CODEGEN--\":90:94   */\n      0x1f\n        /* \"--CODEGEN--\":84:88   */\n      dup3\n        /* \"--CODEGEN--\":80:95   */\n      add\n        /* \"--CODEGEN--\":76:107   */\n      and\n        /* \"--CODEGEN--\":69:74   */\n      dup3\n        /* \"--CODEGEN--\":65:108   */\n      add\n        /* \"--CODEGEN--\":126:132   */\n      dup1\n        /* \"--CODEGEN--\":120:124   */\n      0x40\n        /* \"--CODEGEN--\":113:133   */\n      mstore\n        /* \"--CODEGEN--\":0:138   */\n      pop\n        /* \"--CODEGEN--\":13:15   */\n      0x40\n        /* \"--CODEGEN--\":8:11   */\n      dup2\n        /* \"--CODEGEN--\":5:16   */\n      lt\n        /* \"--CODEGEN--\":2:4   */\n      iszero\n      tag_207\n      jumpi\n        /* \"--CODEGEN--\":29:30   */\n      0x0\n        /* \"--CODEGEN--\":26:27   */\n      dup1\n        /* \"--CODEGEN--\":19:31   */\n      revert\n        /* \"--CODEGEN--\":2:4   */\n    tag_207:\n        /* \"MLSAGVerify.sol\":3388:3426  ecMath.Multiply(ecMath.GetG1(), alpha) */\n      dup2\n      add\n      swap1\n      dup1\n      swap2\n      swap1\n      pop\n      pop\n        /* \"MLSAGVerify.sol\":3381:3426  Lout = ecMath.Multiply(ecMath.GetG1(), alpha) */\n      swap2\n      pop\n        /* \"MLSAGVerify.sol\":3454:3460  ecMath */\n      0x1\n      0x0\n      swap1\n      sload\n      swap1\n      0x100\n      exp\n      swap1\n      div\n      0xffffffffffffffffffffffffffffffffffffffff\n      and\n        /* \"MLSAGVerify.sol\":3454:3472  ecMath.HashToPoint */\n      0xffffffffffffffffffffffffffffffffffffffff\n      and\n      0x6032fc3f\n        /* \"MLSAGVerify.sol\":3473:3474  P */\n      dup5\n        /* \"MLSAGVerify.sol\":3454:3475  ecMath.HashToPoint(P) */\n      mload(0x40)\n      dup3\n      0xffffffff\n      and\n      0x100000000000000000000000000000000000000000000000000000000\n      mul\n      dup2\n      mstore\n      0x4\n      add\n      dup1\n      dup3\n      mul(0x20, 0x2)\n      dup1\n      dup4\n      dup4\n        /* \"--CODEGEN--\":23:24   */\n      0x0\n        /* \"--CODEGEN--\":8:108   */\n    tag_208:\n        /* \"--CODEGEN--\":33:36   */\n      dup4\n        /* \"--CODEGEN--\":30:31   */\n      dup2\n        /* \"--CODEGEN--\":27:37   */\n      lt\n        /* \"--CODEGEN--\":8:108   */\n      iszero\n      tag_209\n      jumpi\n        /* \"--CODEGEN--\":99:100   */\n      dup1\n        /* \"--CODEGEN--\":94:97   */\n      dup3\n        /* \"--CODEGEN--\":90:101   */\n      add\n        /* \"--CODEGEN--\":84:102   */\n      mload\n        /* \"--CODEGEN--\":80:81   */\n      dup2\n        /* \"--CODEGEN--\":75:78   */\n      dup5\n        /* \"--CODEGEN--\":71:82   */\n      add\n        /* \"--CODEGEN--\":64:103   */\n      mstore\n        /* \"--CODEGEN--\":52:54   */\n      0x20\n        /* \"--CODEGEN--\":49:50   */\n      dup2\n        /* \"--CODEGEN--\":45:55   */\n      add\n        /* \"--CODEGEN--\":40:55   */\n      swap1\n      pop\n        /* \"--CODEGEN--\":8:108   */\n      jump(tag_208)\n    tag_209:\n        /* \"--CODEGEN--\":12:26   */\n      pop\n        /* \"MLSAGVerify.sol\":3454:3475  ecMath.HashToPoint(P) */\n      pop\n      pop\n      pop\n      swap1\n      pop\n      add\n      swap2\n      pop\n      pop\n      0x40\n      dup1\n      mload\n      dup1\n      dup4\n      sub\n      dup2\n      0x0\n      dup8\n      dup1\n      extcodesize\n      iszero\n        /* \"--CODEGEN--\":8:17   */\n      dup1\n        /* \"--CODEGEN--\":5:7   */\n      iszero\n      tag_211\n      jumpi\n        /* \"--CODEGEN--\":30:31   */\n      0x0\n        /* \"--CODEGEN--\":27:28   */\n      dup1\n        /* \"--CODEGEN--\":20:32   */\n      revert\n        /* \"--CODEGEN--\":5:7   */\n    tag_211:\n        /* \"MLSAGVerify.sol\":3454:3475  ecMath.HashToPoint(P) */\n      pop\n      gas\n      call\n      iszero\n        /* \"--CODEGEN--\":8:17   */\n      dup1\n        /* \"--CODEGEN--\":5:7   */\n      iszero\n      tag_212\n      jumpi\n        /* \"--CODEGEN--\":45:61   */\n      returndatasize\n        /* \"--CODEGEN--\":42:43   */\n      0x0\n        /* \"--CODEGEN--\":39:40   */\n      dup1\n        /* \"--CODEGEN--\":24:62   */\n      returndatacopy\n        /* \"--CODEGEN--\":77:93   */\n      returndatasize\n        /* \"--CODEGEN--\":74:75   */\n      0x0\n        /* \"--CODEGEN--\":67:94   */\n      revert\n        /* \"--CODEGEN--\":5:7   */\n    tag_212:\n        /* \"MLSAGVerify.sol\":3454:3475  ecMath.HashToPoint(P) */\n      pop\n      pop\n      pop\n      pop\n      mload(0x40)\n      returndatasize\n        /* \"--CODEGEN--\":101:105   */\n      0x1f\n        /* \"--CODEGEN--\":97:106   */\n      not\n        /* \"--CODEGEN--\":90:94   */\n      0x1f\n        /* \"--CODEGEN--\":84:88   */\n      dup3\n        /* \"--CODEGEN--\":80:95   */\n      add\n        /* \"--CODEGEN--\":76:107   */\n      and\n        /* \"--CODEGEN--\":69:74   */\n      dup3\n        /* \"--CODEGEN--\":65:108   */\n      add\n        /* \"--CODEGEN--\":126:132   */\n      dup1\n        /* \"--CODEGEN--\":120:124   */\n      0x40\n        /* \"--CODEGEN--\":113:133   */\n      mstore\n        /* \"--CODEGEN--\":0:138   */\n      pop\n        /* \"--CODEGEN--\":13:15   */\n      0x40\n        /* \"--CODEGEN--\":8:11   */\n      dup2\n        /* \"--CODEGEN--\":5:16   */\n      lt\n        /* \"--CODEGEN--\":2:4   */\n      iszero\n      tag_213\n      jumpi\n        /* \"--CODEGEN--\":29:30   */\n      0x0\n        /* \"--CODEGEN--\":26:27   */\n      dup1\n        /* \"--CODEGEN--\":19:31   */\n      revert\n        /* \"--CODEGEN--\":2:4   */\n    tag_213:\n        /* \"MLSAGVerify.sol\":3454:3475  ecMath.HashToPoint(P) */\n      dup2\n      add\n      swap1\n      dup1\n      swap2\n      swap1\n      pop\n      pop\n        /* \"MLSAGVerify.sol\":3447:3475  Rout = ecMath.HashToPoint(P) */\n      swap1\n      pop\n        /* \"MLSAGVerify.sol\":3493:3499  ecMath */\n      0x1\n      0x0\n      swap1\n      sload\n      swap1\n      0x100\n      exp\n      swap1\n      div\n      0xffffffffffffffffffffffffffffffffffffffff\n      and\n        /* \"MLSAGVerify.sol\":3493:3508  ecMath.Multiply */\n      0xffffffffffffffffffffffffffffffffffffffff\n      and\n      0xc025d89b\n        /* \"MLSAGVerify.sol\":3509:3513  Rout */\n      dup3\n        /* \"MLSAGVerify.sol\":3515:3520  alpha */\n      dup7\n        /* \"MLSAGVerify.sol\":3493:3521  ecMath.Multiply(Rout, alpha) */\n      mload(0x40)\n      dup4\n      0xffffffff\n      and\n      0x100000000000000000000000000000000000000000000000000000000\n      mul\n      dup2\n      mstore\n      0x4\n      add\n      dup1\n      dup4\n      mul(0x20, 0x2)\n      dup1\n      dup4\n      dup4\n        /* \"--CODEGEN--\":23:24   */\n      0x0\n        /* \"--CODEGEN--\":8:108   */\n    tag_214:\n        /* \"--CODEGEN--\":33:36   */\n      dup4\n        /* \"--CODEGEN--\":30:31   */\n      dup2\n        /* \"--CODEGEN--\":27:37   */\n      lt\n        /* \"--CODEGEN--\":8:108   */\n      iszero\n      tag_215\n      jumpi\n        /* \"--CODEGEN--\":99:100   */\n      dup1\n        /* \"--CODEGEN--\":94:97   */\n      dup3\n        /* \"--CODEGEN--\":90:101   */\n      add\n        /* \"--CODEGEN--\":84:102   */\n      mload\n        /* \"--CODEGEN--\":80:81   */\n      dup2\n        /* \"--CODEGEN--\":75:78   */\n      dup5\n        /* \"--CODEGEN--\":71:82   */\n      add\n        /* \"--CODEGEN--\":64:103   */\n      mstore\n        /* \"--CODEGEN--\":52:54   */\n      0x20\n        /* \"--CODEGEN--\":49:50   */\n      dup2\n        /* \"--CODEGEN--\":45:55   */\n      add\n        /* \"--CODEGEN--\":40:55   */\n      swap1\n      pop\n        /* \"--CODEGEN--\":8:108   */\n      jump(tag_214)\n    tag_215:\n        /* \"--CODEGEN--\":12:26   */\n      pop\n        /* \"MLSAGVerify.sol\":3493:3521  ecMath.Multiply(Rout, alpha) */\n      pop\n      pop\n      pop\n      swap1\n      pop\n      add\n      dup3\n      dup2\n      mstore\n      0x20\n      add\n      swap3\n      pop\n      pop\n      pop\n      0x40\n      dup1\n      mload\n      dup1\n      dup4\n      sub\n      dup2\n      0x0\n      dup8\n      dup1\n      extcodesize\n      iszero\n        /* \"--CODEGEN--\":8:17   */\n      dup1\n        /* \"--CODEGEN--\":5:7   */\n      iszero\n      tag_217\n      jumpi\n        /* \"--CODEGEN--\":30:31   */\n      0x0\n        /* \"--CODEGEN--\":27:28   */\n      dup1\n        /* \"--CODEGEN--\":20:32   */\n      revert\n        /* \"--CODEGEN--\":5:7   */\n    tag_217:\n        /* \"MLSAGVerify.sol\":3493:3521  ecMath.Multiply(Rout, alpha) */\n      pop\n      gas\n      call\n      iszero\n        /* \"--CODEGEN--\":8:17   */\n      dup1\n        /* \"--CODEGEN--\":5:7   */\n      iszero\n      tag_218\n      jumpi\n        /* \"--CODEGEN--\":45:61   */\n      returndatasize\n        /* \"--CODEGEN--\":42:43   */\n      0x0\n        /* \"--CODEGEN--\":39:40   */\n      dup1\n        /* \"--CODEGEN--\":24:62   */\n      returndatacopy\n        /* \"--CODEGEN--\":77:93   */\n      returndatasize\n        /* \"--CODEGEN--\":74:75   */\n      0x0\n        /* \"--CODEGEN--\":67:94   */\n      revert\n        /* \"--CODEGEN--\":5:7   */\n    tag_218:\n        /* \"MLSAGVerify.sol\":3493:3521  ecMath.Multiply(Rout, alpha) */\n      pop\n      pop\n      pop\n      pop\n      mload(0x40)\n      returndatasize\n        /* \"--CODEGEN--\":101:105   */\n      0x1f\n        /* \"--CODEGEN--\":97:106   */\n      not\n        /* \"--CODEGEN--\":90:94   */\n      0x1f\n        /* \"--CODEGEN--\":84:88   */\n      dup3\n        /* \"--CODEGEN--\":80:95   */\n      add\n        /* \"--CODEGEN--\":76:107   */\n      and\n        /* \"--CODEGEN--\":69:74   */\n      dup3\n        /* \"--CODEGEN--\":65:108   */\n      add\n        /* \"--CODEGEN--\":126:132   */\n      dup1\n        /* \"--CODEGEN--\":120:124   */\n      0x40\n        /* \"--CODEGEN--\":113:133   */\n      mstore\n        /* \"--CODEGEN--\":0:138   */\n      pop\n        /* \"--CODEGEN--\":13:15   */\n      0x40\n        /* \"--CODEGEN--\":8:11   */\n      dup2\n        /* \"--CODEGEN--\":5:16   */\n      lt\n        /* \"--CODEGEN--\":2:4   */\n      iszero\n      tag_219\n      jumpi\n        /* \"--CODEGEN--\":29:30   */\n      0x0\n        /* \"--CODEGEN--\":26:27   */\n      dup1\n        /* \"--CODEGEN--\":19:31   */\n      revert\n        /* \"--CODEGEN--\":2:4   */\n    tag_219:\n        /* \"MLSAGVerify.sol\":3493:3521  ecMath.Multiply(Rout, alpha) */\n      dup2\n      add\n      swap1\n      dup1\n      swap2\n      swap1\n      pop\n      pop\n        /* \"MLSAGVerify.sol\":3486:3521  Rout = ecMath.Multiply(Rout, alpha) */\n      swap1\n      pop\n        /* \"MLSAGVerify.sol\":3234:3529  function StartLinkableRing_NoHash(uint256 alpha, uint256[2] P)\r... */\n      swap3\n      pop\n      swap3\n      swap1\n      pop\n      jump\t// out\n        /* \"MLSAGVerify.sol\":1649:1954  function CalculateRingSegment_NoHash(uint256 ck, uint256 sk, uint256[2] P)\r... */\n    tag_51:\n        /* \"MLSAGVerify.sol\":1758:1773  uint256[2] Pout */\n      tag_220\n      jump\t// in(tag_128)\n    tag_220:\n        /* \"MLSAGVerify.sol\":1791:1813  uint256[2] memory temp */\n      tag_221\n      jump\t// in(tag_128)\n    tag_221:\n        /* \"MLSAGVerify.sol\":1831:1837  ecMath */\n      0x1\n      0x0\n      swap1\n      sload\n      swap1\n      0x100\n      exp\n      swap1\n      div\n      0xffffffffffffffffffffffffffffffffffffffff\n      and\n        /* \"MLSAGVerify.sol\":1831:1846  ecMath.Multiply */\n      0xffffffffffffffffffffffffffffffffffffffff\n      and\n      0xc025d89b\n        /* \"MLSAGVerify.sol\":1847:1853  ecMath */\n      0x1\n      0x0\n      swap1\n      sload\n      swap1\n      0x100\n      exp\n      swap1\n      div\n      0xffffffffffffffffffffffffffffffffffffffff\n      and\n        /* \"MLSAGVerify.sol\":1847:1859  ecMath.GetG1 */\n      0xffffffffffffffffffffffffffffffffffffffff\n      and\n      0xae5d39f6\n        /* \"MLSAGVerify.sol\":1847:1861  ecMath.GetG1() */\n      mload(0x40)\n      dup2\n      0xffffffff\n      and\n      0x100000000000000000000000000000000000000000000000000000000\n      mul\n      dup2\n      mstore\n      0x4\n      add\n      0x40\n      dup1\n      mload\n      dup1\n      dup4\n      sub\n      dup2\n      0x0\n      dup8\n      dup1\n      extcodesize\n      iszero\n        /* \"--CODEGEN--\":8:17   */\n      dup1\n        /* \"--CODEGEN--\":5:7   */\n      iszero\n      tag_223\n      jumpi\n        /* \"--CODEGEN--\":30:31   */\n      0x0\n        /* \"--CODEGEN--\":27:28   */\n      dup1\n        /* \"--CODEGEN--\":20:32   */\n      revert\n        /* \"--CODEGEN--\":5:7   */\n    tag_223:\n        /* \"MLSAGVerify.sol\":1847:1861  ecMath.GetG1() */\n      pop\n      gas\n      call\n      iszero\n        /* \"--CODEGEN--\":8:17   */\n      dup1\n        /* \"--CODEGEN--\":5:7   */\n      iszero\n      tag_224\n      jumpi\n        /* \"--CODEGEN--\":45:61   */\n      returndatasize\n        /* \"--CODEGEN--\":42:43   */\n      0x0\n        /* \"--CODEGEN--\":39:40   */\n      dup1\n        /* \"--CODEGEN--\":24:62   */\n      returndatacopy\n        /* \"--CODEGEN--\":77:93   */\n      returndatasize\n        /* \"--CODEGEN--\":74:75   */\n      0x0\n        /* \"--CODEGEN--\":67:94   */\n      revert\n        /* \"--CODEGEN--\":5:7   */\n    tag_224:\n        /* \"MLSAGVerify.sol\":1847:1861  ecMath.GetG1() */\n      pop\n      pop\n      pop\n      pop\n      mload(0x40)\n      returndatasize\n        /* \"--CODEGEN--\":101:105   */\n      0x1f\n        /* \"--CODEGEN--\":97:106   */\n      not\n        /* \"--CODEGEN--\":90:94   */\n      0x1f\n        /* \"--CODEGEN--\":84:88   */\n      dup3\n        /* \"--CODEGEN--\":80:95   */\n      add\n        /* \"--CODEGEN--\":76:107   */\n      and\n        /* \"--CODEGEN--\":69:74   */\n      dup3\n        /* \"--CODEGEN--\":65:108   */\n      add\n        /* \"--CODEGEN--\":126:132   */\n      dup1\n        /* \"--CODEGEN--\":120:124   */\n      0x40\n        /* \"--CODEGEN--\":113:133   */\n      mstore\n        /* \"--CODEGEN--\":0:138   */\n      pop\n        /* \"--CODEGEN--\":13:15   */\n      0x40\n        /* \"--CODEGEN--\":8:11   */\n      dup2\n        /* \"--CODEGEN--\":5:16   */\n      lt\n        /* \"--CODEGEN--\":2:4   */\n      iszero\n      tag_225\n      jumpi\n        /* \"--CODEGEN--\":29:30   */\n      0x0\n        /* \"--CODEGEN--\":26:27   */\n      dup1\n        /* \"--CODEGEN--\":19:31   */\n      revert\n        /* \"--CODEGEN--\":2:4   */\n    tag_225:\n        /* \"MLSAGVerify.sol\":1847:1861  ecMath.GetG1() */\n      dup2\n      add\n      swap1\n      dup1\n      swap2\n      swap1\n      pop\n      pop\n        /* \"MLSAGVerify.sol\":1863:1865  sk */\n      dup7\n        /* \"MLSAGVerify.sol\":1831:1866  ecMath.Multiply(ecMath.GetG1(), sk) */\n      mload(0x40)\n      dup4\n      0xffffffff\n      and\n      0x100000000000000000000000000000000000000000000000000000000\n      mul\n      dup2\n      mstore\n      0x4\n      add\n      dup1\n      dup4\n      mul(0x20, 0x2)\n      dup1\n      dup4\n      dup4\n        /* \"--CODEGEN--\":23:24   */\n      0x0\n        /* \"--CODEGEN--\":8:108   */\n    tag_226:\n        /* \"--CODEGEN--\":33:36   */\n      dup4\n        /* \"--CODEGEN--\":30:31   */\n      dup2\n        /* \"--CODEGEN--\":27:37   */\n      lt\n        /* \"--CODEGEN--\":8:108   */\n      iszero\n      tag_227\n      jumpi\n        /* \"--CODEGEN--\":99:100   */\n      dup1\n        /* \"--CODEGEN--\":94:97   */\n      dup3\n        /* \"--CODEGEN--\":90:101   */\n      add\n        /* \"--CODEGEN--\":84:102   */\n      mload\n        /* \"--CODEGEN--\":80:81   */\n      dup2\n        /* \"--CODEGEN--\":75:78   */\n      dup5\n        /* \"--CODEGEN--\":71:82   */\n      add\n        /* \"--CODEGEN--\":64:103   */\n      mstore\n        /* \"--CODEGEN--\":52:54   */\n      0x20\n        /* \"--CODEGEN--\":49:50   */\n      dup2\n        /* \"--CODEGEN--\":45:55   */\n      add\n        /* \"--CODEGEN--\":40:55   */\n      swap1\n      pop\n        /* \"--CODEGEN--\":8:108   */\n      jump(tag_226)\n    tag_227:\n        /* \"--CODEGEN--\":12:26   */\n      pop\n        /* \"MLSAGVerify.sol\":1831:1866  ecMath.Multiply(ecMath.GetG1(), sk) */\n      pop\n      pop\n      pop\n      swap1\n      pop\n      add\n      dup3\n      dup2\n      mstore\n      0x20\n      add\n      swap3\n      pop\n      pop\n      pop\n      0x40\n      dup1\n      mload\n      dup1\n      dup4\n      sub\n      dup2\n      0x0\n      dup8\n      dup1\n      extcodesize\n      iszero\n        /* \"--CODEGEN--\":8:17   */\n      dup1\n        /* \"--CODEGEN--\":5:7   */\n      iszero\n      tag_229\n      jumpi\n        /* \"--CODEGEN--\":30:31   */\n      0x0\n        /* \"--CODEGEN--\":27:28   */\n      dup1\n        /* \"--CODEGEN--\":20:32   */\n      revert\n        /* \"--CODEGEN--\":5:7   */\n    tag_229:\n        /* \"MLSAGVerify.sol\":1831:1866  ecMath.Multiply(ecMath.GetG1(), sk) */\n      pop\n      gas\n      call\n      iszero\n        /* \"--CODEGEN--\":8:17   */\n      dup1\n        /* \"--CODEGEN--\":5:7   */\n      iszero\n      tag_230\n      jumpi\n        /* \"--CODEGEN--\":45:61   */\n      returndatasize\n        /* \"--CODEGEN--\":42:43   */\n      0x0\n        /* \"--CODEGEN--\":39:40   */\n      dup1\n        /* \"--CODEGEN--\":24:62   */\n      returndatacopy\n        /* \"--CODEGEN--\":77:93   */\n      returndatasize\n        /* \"--CODEGEN--\":74:75   */\n      0x0\n        /* \"--CODEGEN--\":67:94   */\n      revert\n        /* \"--CODEGEN--\":5:7   */\n    tag_230:\n        /* \"MLSAGVerify.sol\":1831:1866  ecMath.Multiply(ecMath.GetG1(), sk) */\n      pop\n      pop\n      pop\n      pop\n      mload(0x40)\n      returndatasize\n        /* \"--CODEGEN--\":101:105   */\n      0x1f\n        /* \"--CODEGEN--\":97:106   */\n      not\n        /* \"--CODEGEN--\":90:94   */\n      0x1f\n        /* \"--CODEGEN--\":84:88   */\n      dup3\n        /* \"--CODEGEN--\":80:95   */\n      add\n        /* \"--CODEGEN--\":76:107   */\n      and\n        /* \"--CODEGEN--\":69:74   */\n      dup3\n        /* \"--CODEGEN--\":65:108   */\n      add\n        /* \"--CODEGEN--\":126:132   */\n      dup1\n        /* \"--CODEGEN--\":120:124   */\n      0x40\n        /* \"--CODEGEN--\":113:133   */\n      mstore\n        /* \"--CODEGEN--\":0:138   */\n      pop\n        /* \"--CODEGEN--\":13:15   */\n      0x40\n        /* \"--CODEGEN--\":8:11   */\n      dup2\n        /* \"--CODEGEN--\":5:16   */\n      lt\n        /* \"--CODEGEN--\":2:4   */\n      iszero\n      tag_231\n      jumpi\n        /* \"--CODEGEN--\":29:30   */\n      0x0\n        /* \"--CODEGEN--\":26:27   */\n      dup1\n        /* \"--CODEGEN--\":19:31   */\n      revert\n        /* \"--CODEGEN--\":2:4   */\n    tag_231:\n        /* \"MLSAGVerify.sol\":1831:1866  ecMath.Multiply(ecMath.GetG1(), sk) */\n      dup2\n      add\n      swap1\n      dup1\n      swap2\n      swap1\n      pop\n      pop\n        /* \"MLSAGVerify.sol\":1824:1866  Pout = ecMath.Multiply(ecMath.GetG1(), sk) */\n      swap2\n      pop\n        /* \"MLSAGVerify.sol\":1884:1890  ecMath */\n      0x1\n      0x0\n      swap1\n      sload\n      swap1\n      0x100\n      exp\n      swap1\n      div\n      0xffffffffffffffffffffffffffffffffffffffff\n      and\n        /* \"MLSAGVerify.sol\":1884:1899  ecMath.Multiply */\n      0xffffffffffffffffffffffffffffffffffffffff\n      and\n      0xc025d89b\n        /* \"MLSAGVerify.sol\":1900:1901  P */\n      dup5\n        /* \"MLSAGVerify.sol\":1903:1905  ck */\n      dup8\n        /* \"MLSAGVerify.sol\":1884:1906  ecMath.Multiply(P, ck) */\n      mload(0x40)\n      dup4\n      0xffffffff\n      and\n      0x100000000000000000000000000000000000000000000000000000000\n      mul\n      dup2\n      mstore\n      0x4\n      add\n      dup1\n      dup4\n      mul(0x20, 0x2)\n      dup1\n      dup4\n      dup4\n        /* \"--CODEGEN--\":23:24   */\n      0x0\n        /* \"--CODEGEN--\":8:108   */\n    tag_232:\n        /* \"--CODEGEN--\":33:36   */\n      dup4\n        /* \"--CODEGEN--\":30:31   */\n      dup2\n        /* \"--CODEGEN--\":27:37   */\n      lt\n        /* \"--CODEGEN--\":8:108   */\n      iszero\n      tag_233\n      jumpi\n        /* \"--CODEGEN--\":99:100   */\n      dup1\n        /* \"--CODEGEN--\":94:97   */\n      dup3\n        /* \"--CODEGEN--\":90:101   */\n      add\n        /* \"--CODEGEN--\":84:102   */\n      mload\n        /* \"--CODEGEN--\":80:81   */\n      dup2\n        /* \"--CODEGEN--\":75:78   */\n      dup5\n        /* \"--CODEGEN--\":71:82   */\n      add\n        /* \"--CODEGEN--\":64:103   */\n      mstore\n        /* \"--CODEGEN--\":52:54   */\n      0x20\n        /* \"--CODEGEN--\":49:50   */\n      dup2\n        /* \"--CODEGEN--\":45:55   */\n      add\n        /* \"--CODEGEN--\":40:55   */\n      swap1\n      pop\n        /* \"--CODEGEN--\":8:108   */\n      jump(tag_232)\n    tag_233:\n        /* \"--CODEGEN--\":12:26   */\n      pop\n        /* \"MLSAGVerify.sol\":1884:1906  ecMath.Multiply(P, ck) */\n      pop\n      pop\n      pop\n      swap1\n      pop\n      add\n      dup3\n      dup2\n      mstore\n      0x20\n      add\n      swap3\n      pop\n      pop\n      pop\n      0x40\n      dup1\n      mload\n      dup1\n      dup4\n      sub\n      dup2\n      0x0\n      dup8\n      dup1\n      extcodesize\n      iszero\n        /* \"--CODEGEN--\":8:17   */\n      dup1\n        /* \"--CODEGEN--\":5:7   */\n      iszero\n      tag_235\n      jumpi\n        /* \"--CODEGEN--\":30:31   */\n      0x0\n        /* \"--CODEGEN--\":27:28   */\n      dup1\n        /* \"--CODEGEN--\":20:32   */\n      revert\n        /* \"--CODEGEN--\":5:7   */\n    tag_235:\n        /* \"MLSAGVerify.sol\":1884:1906  ecMath.Multiply(P, ck) */\n      pop\n      gas\n      call\n      iszero\n        /* \"--CODEGEN--\":8:17   */\n      dup1\n        /* \"--CODEGEN--\":5:7   */\n      iszero\n      tag_236\n      jumpi\n        /* \"--CODEGEN--\":45:61   */\n      returndatasize\n        /* \"--CODEGEN--\":42:43   */\n      0x0\n        /* \"--CODEGEN--\":39:40   */\n      dup1\n        /* \"--CODEGEN--\":24:62   */\n      returndatacopy\n        /* \"--CODEGEN--\":77:93   */\n      returndatasize\n        /* \"--CODEGEN--\":74:75   */\n      0x0\n        /* \"--CODEGEN--\":67:94   */\n      revert\n        /* \"--CODEGEN--\":5:7   */\n    tag_236:\n        /* \"MLSAGVerify.sol\":1884:1906  ecMath.Multiply(P, ck) */\n      pop\n      pop\n      pop\n      pop\n      mload(0x40)\n      returndatasize\n        /* \"--CODEGEN--\":101:105   */\n      0x1f\n        /* \"--CODEGEN--\":97:106   */\n      not\n        /* \"--CODEGEN--\":90:94   */\n      0x1f\n        /* \"--CODEGEN--\":84:88   */\n      dup3\n        /* \"--CODEGEN--\":80:95   */\n      add\n        /* \"--CODEGEN--\":76:107   */\n      and\n        /* \"--CODEGEN--\":69:74   */\n      dup3\n        /* \"--CODEGEN--\":65:108   */\n      add\n        /* \"--CODEGEN--\":126:132   */\n      dup1\n        /* \"--CODEGEN--\":120:124   */\n      0x40\n        /* \"--CODEGEN--\":113:133   */\n      mstore\n        /* \"--CODEGEN--\":0:138   */\n      pop\n        /* \"--CODEGEN--\":13:15   */\n      0x40\n        /* \"--CODEGEN--\":8:11   */\n      dup2\n        /* \"--CODEGEN--\":5:16   */\n      lt\n        /* \"--CODEGEN--\":2:4   */\n      iszero\n      tag_237\n      jumpi\n        /* \"--CODEGEN--\":29:30   */\n      0x0\n        /* \"--CODEGEN--\":26:27   */\n      dup1\n        /* \"--CODEGEN--\":19:31   */\n      revert\n        /* \"--CODEGEN--\":2:4   */\n    tag_237:\n        /* \"MLSAGVerify.sol\":1884:1906  ecMath.Multiply(P, ck) */\n      dup2\n      add\n      swap1\n      dup1\n      swap2\n      swap1\n      pop\n      pop\n        /* \"MLSAGVerify.sol\":1877:1906  temp = ecMath.Multiply(P, ck) */\n      swap1\n      pop\n        /* \"MLSAGVerify.sol\":1924:1930  ecMath */\n      0x1\n      0x0\n      swap1\n      sload\n      swap1\n      0x100\n      exp\n      swap1\n      div\n      0xffffffffffffffffffffffffffffffffffffffff\n      and\n        /* \"MLSAGVerify.sol\":1924:1934  ecMath.Add */\n      0xffffffffffffffffffffffffffffffffffffffff\n      and\n      0xc753fe8\n        /* \"MLSAGVerify.sol\":1935:1939  Pout */\n      dup4\n        /* \"MLSAGVerify.sol\":1941:1945  temp */\n      dup4\n        /* \"MLSAGVerify.sol\":1924:1946  ecMath.Add(Pout, temp) */\n      mload(0x40)\n      dup4\n      0xffffffff\n      and\n      0x100000000000000000000000000000000000000000000000000000000\n      mul\n      dup2\n      mstore\n      0x4\n      add\n      dup1\n      dup4\n      mul(0x20, 0x2)\n      dup1\n      dup4\n      dup4\n        /* \"--CODEGEN--\":23:24   */\n      0x0\n        /* \"--CODEGEN--\":8:108   */\n    tag_238:\n        /* \"--CODEGEN--\":33:36   */\n      dup4\n        /* \"--CODEGEN--\":30:31   */\n      dup2\n        /* \"--CODEGEN--\":27:37   */\n      lt\n        /* \"--CODEGEN--\":8:108   */\n      iszero\n      tag_239\n      jumpi\n        /* \"--CODEGEN--\":99:100   */\n      dup1\n        /* \"--CODEGEN--\":94:97   */\n      dup3\n        /* \"--CODEGEN--\":90:101   */\n      add\n        /* \"--CODEGEN--\":84:102   */\n      mload\n        /* \"--CODEGEN--\":80:81   */\n      dup2\n        /* \"--CODEGEN--\":75:78   */\n      dup5\n        /* \"--CODEGEN--\":71:82   */\n      add\n        /* \"--CODEGEN--\":64:103   */\n      mstore\n        /* \"--CODEGEN--\":52:54   */\n      0x20\n        /* \"--CODEGEN--\":49:50   */\n      dup2\n        /* \"--CODEGEN--\":45:55   */\n      add\n        /* \"--CODEGEN--\":40:55   */\n      swap1\n      pop\n        /* \"--CODEGEN--\":8:108   */\n      jump(tag_238)\n    tag_239:\n        /* \"--CODEGEN--\":12:26   */\n      pop\n        /* \"MLSAGVerify.sol\":1924:1946  ecMath.Add(Pout, temp) */\n      pop\n      pop\n      pop\n      swap1\n      pop\n      add\n      dup3\n      mul(0x20, 0x2)\n      dup1\n      dup4\n      dup4\n        /* \"--CODEGEN--\":23:24   */\n      0x0\n        /* \"--CODEGEN--\":8:108   */\n    tag_241:\n        /* \"--CODEGEN--\":33:36   */\n      dup4\n        /* \"--CODEGEN--\":30:31   */\n      dup2\n        /* \"--CODEGEN--\":27:37   */\n      lt\n        /* \"--CODEGEN--\":8:108   */\n      iszero\n      tag_242\n      jumpi\n        /* \"--CODEGEN--\":99:100   */\n      dup1\n        /* \"--CODEGEN--\":94:97   */\n      dup3\n        /* \"--CODEGEN--\":90:101   */\n      add\n        /* \"--CODEGEN--\":84:102   */\n      mload\n        /* \"--CODEGEN--\":80:81   */\n      dup2\n        /* \"--CODEGEN--\":75:78   */\n      dup5\n        /* \"--CODEGEN--\":71:82   */\n      add\n        /* \"--CODEGEN--\":64:103   */\n      mstore\n        /* \"--CODEGEN--\":52:54   */\n      0x20\n        /* \"--CODEGEN--\":49:50   */\n      dup2\n        /* \"--CODEGEN--\":45:55   */\n      add\n        /* \"--CODEGEN--\":40:55   */\n      swap1\n      pop\n        /* \"--CODEGEN--\":8:108   */\n      jump(tag_241)\n    tag_242:\n        /* \"--CODEGEN--\":12:26   */\n      pop\n        /* \"MLSAGVerify.sol\":1924:1946  ecMath.Add(Pout, temp) */\n      pop\n      pop\n      pop\n      swap1\n      pop\n      add\n      swap3\n      pop\n      pop\n      pop\n      0x40\n      dup1\n      mload\n      dup1\n      dup4\n      sub\n      dup2\n      0x0\n      dup8\n      dup1\n      extcodesize\n      iszero\n        /* \"--CODEGEN--\":8:17   */\n      dup1\n        /* \"--CODEGEN--\":5:7   */\n      iszero\n      tag_244\n      jumpi\n        /* \"--CODEGEN--\":30:31   */\n      0x0\n        /* \"--CODEGEN--\":27:28   */\n      dup1\n        /* \"--CODEGEN--\":20:32   */\n      revert\n        /* \"--CODEGEN--\":5:7   */\n    tag_244:\n        /* \"MLSAGVerify.sol\":1924:1946  ecMath.Add(Pout, temp) */\n      pop\n      gas\n      call\n      iszero\n        /* \"--CODEGEN--\":8:17   */\n      dup1\n        /* \"--CODEGEN--\":5:7   */\n      iszero\n      tag_245\n      jumpi\n        /* \"--CODEGEN--\":45:61   */\n      returndatasize\n        /* \"--CODEGEN--\":42:43   */\n      0x0\n        /* \"--CODEGEN--\":39:40   */\n      dup1\n        /* \"--CODEGEN--\":24:62   */\n      returndatacopy\n        /* \"--CODEGEN--\":77:93   */\n      returndatasize\n        /* \"--CODEGEN--\":74:75   */\n      0x0\n        /* \"--CODEGEN--\":67:94   */\n      revert\n        /* \"--CODEGEN--\":5:7   */\n    tag_245:\n        /* \"MLSAGVerify.sol\":1924:1946  ecMath.Add(Pout, temp) */\n      pop\n      pop\n      pop\n      pop\n      mload(0x40)\n      returndatasize\n        /* \"--CODEGEN--\":101:105   */\n      0x1f\n        /* \"--CODEGEN--\":97:106   */\n      not\n        /* \"--CODEGEN--\":90:94   */\n      0x1f\n        /* \"--CODEGEN--\":84:88   */\n      dup3\n        /* \"--CODEGEN--\":80:95   */\n      add\n        /* \"--CODEGEN--\":76:107   */\n      and\n        /* \"--CODEGEN--\":69:74   */\n      dup3\n        /* \"--CODEGEN--\":65:108   */\n      add\n        /* \"--CODEGEN--\":126:132   */\n      dup1\n        /* \"--CODEGEN--\":120:124   */\n      0x40\n        /* \"--CODEGEN--\":113:133   */\n      mstore\n        /* \"--CODEGEN--\":0:138   */\n      pop\n        /* \"--CODEGEN--\":13:15   */\n      0x40\n        /* \"--CODEGEN--\":8:11   */\n      dup2\n        /* \"--CODEGEN--\":5:16   */\n      lt\n        /* \"--CODEGEN--\":2:4   */\n      iszero\n      tag_246\n      jumpi\n        /* \"--CODEGEN--\":29:30   */\n      0x0\n        /* \"--CODEGEN--\":26:27   */\n      dup1\n        /* \"--CODEGEN--\":19:31   */\n      revert\n        /* \"--CODEGEN--\":2:4   */\n    tag_246:\n        /* \"MLSAGVerify.sol\":1924:1946  ecMath.Add(Pout, temp) */\n      dup2\n      add\n      swap1\n      dup1\n      swap2\n      swap1\n      pop\n      pop\n        /* \"MLSAGVerify.sol\":1917:1946  Pout = ecMath.Add(Pout, temp) */\n      swap2\n      pop\n        /* \"MLSAGVerify.sol\":1649:1954  function CalculateRingSegment_NoHash(uint256 ck, uint256 sk, uint256[2] P)\r... */\n      pop\n      swap4\n      swap3\n      pop\n      pop\n      pop\n      jump\t// out\n        /* \"MLSAGVerify.sol\":3541:3865  function StartLinkableRing(uint256 msgHash, uint256 alpha, uint256[2] P)\r... */\n    tag_57:\n        /* \"MLSAGVerify.sol\":3648:3659  uint256 ckp */\n      0x0\n        /* \"MLSAGVerify.sol\":3677:3699  uint256[2] memory left */\n      tag_247\n      jump\t// in(tag_128)\n    tag_247:\n        /* \"MLSAGVerify.sol\":3710:3733  uint256[2] memory right */\n      tag_248\n      jump\t// in(tag_128)\n    tag_248:\n        /* \"MLSAGVerify.sol\":3760:3794  StartLinkableRing_NoHash(alpha, P) */\n      tag_250\n        /* \"MLSAGVerify.sol\":3785:3790  alpha */\n      dup6\n        /* \"MLSAGVerify.sol\":3792:3793  P */\n      dup6\n        /* \"MLSAGVerify.sol\":3760:3784  StartLinkableRing_NoHash */\n      tag_42\n        /* \"MLSAGVerify.sol\":3760:3794  StartLinkableRing_NoHash(alpha, P) */\n      jump\t// in\n    tag_250:\n        /* \"MLSAGVerify.sol\":3744:3794  (left, right) = StartLinkableRing_NoHash(alpha, P) */\n      dup1\n      swap3\n      pop\n      dup2\n      swap4\n      pop\n      pop\n      pop\n        /* \"MLSAGVerify.sol\":3811:3857  LinkableRingHashFunction(msgHash, left, right) */\n      tag_251\n        /* \"MLSAGVerify.sol\":3836:3843  msgHash */\n      dup7\n        /* \"MLSAGVerify.sol\":3845:3849  left */\n      dup4\n        /* \"MLSAGVerify.sol\":3851:3856  right */\n      dup4\n        /* \"MLSAGVerify.sol\":3811:3835  LinkableRingHashFunction */\n      tag_72\n        /* \"MLSAGVerify.sol\":3811:3857  LinkableRingHashFunction(msgHash, left, right) */\n      jump\t// in\n    tag_251:\n        /* \"MLSAGVerify.sol\":3805:3857  ckp = LinkableRingHashFunction(msgHash, left, right) */\n      swap3\n      pop\n        /* \"MLSAGVerify.sol\":3541:3865  function StartLinkableRing(uint256 msgHash, uint256 alpha, uint256[2] P)\r... */\n      pop\n      pop\n      swap4\n      swap3\n      pop\n      pop\n      pop\n      jump\t// out\n        /* \"MLSAGVerify.sol\":11834:12363  function VerifyMSAG_Compressed(uint256 m, uint256 msgHash, uint256[] P, uint256[] signature)\r... */\n    tag_60:\n        /* \"MLSAGVerify.sol\":11961:11973  bool success */\n      0x0\n        /* \"MLSAGVerify.sol\":11991:12013  uint256[2] memory temp */\n      tag_252\n      jump\t// in(tag_128)\n    tag_252:\n        /* \"MLSAGVerify.sol\":12024:12049  uint256[] memory P_uncomp */\n      0x60\n        /* \"MLSAGVerify.sol\":12098:12107  uint256 i */\n      0x0\n        /* \"MLSAGVerify.sol\":12075:12076  2 */\n      0x2\n        /* \"MLSAGVerify.sol\":12066:12067  P */\n      dup7\n        /* \"MLSAGVerify.sol\":12066:12074  P.length */\n      mload\n        /* \"MLSAGVerify.sol\":12066:12076  P.length*2 */\n      mul\n        /* \"MLSAGVerify.sol\":12052:12077  new uint256[](P.length*2) */\n      mload(0x40)\n      swap1\n      dup1\n      dup3\n      mstore\n      dup1\n      0x20\n      mul\n      0x20\n      add\n      dup3\n      add\n      0x40\n      mstore\n      dup1\n      iszero\n      tag_254\n      jumpi\n      dup2\n      0x20\n      add\n        /* \"--CODEGEN--\":29:31   */\n      0x20\n        /* \"--CODEGEN--\":21:27   */\n      dup3\n        /* \"--CODEGEN--\":17:32   */\n      mul\n        /* \"--CODEGEN--\":117:121   */\n      dup1\n        /* \"--CODEGEN--\":105:115   */\n      codesize\n        /* \"--CODEGEN--\":97:103   */\n      dup4\n        /* \"--CODEGEN--\":88:122   */\n      codecopy\n        /* \"--CODEGEN--\":148:152   */\n      dup1\n        /* \"--CODEGEN--\":140:146   */\n      dup3\n        /* \"--CODEGEN--\":136:153   */\n      add\n        /* \"--CODEGEN--\":126:153   */\n      swap2\n      pop\n        /* \"--CODEGEN--\":0:157   */\n      pop\n        /* \"MLSAGVerify.sol\":12052:12077  new uint256[](P.length*2) */\n      swap1\n      pop\n    tag_254:\n      pop\n        /* \"MLSAGVerify.sol\":12024:12077  uint256[] memory P_uncomp = new uint256[](P.length*2) */\n      swap2\n      pop\n        /* \"MLSAGVerify.sol\":12127:12128  0 */\n      0x0\n        /* \"MLSAGVerify.sol\":12123:12128  i = 0 */\n      swap1\n      pop\n        /* \"MLSAGVerify.sol\":12118:12285  for (i = 0; i < P.length; i++) {\r... */\n    tag_255:\n        /* \"MLSAGVerify.sol\":12134:12135  P */\n      dup6\n        /* \"MLSAGVerify.sol\":12134:12142  P.length */\n      mload\n        /* \"MLSAGVerify.sol\":12130:12131  i */\n      dup2\n        /* \"MLSAGVerify.sol\":12130:12142  i < P.length */\n      lt\n        /* \"MLSAGVerify.sol\":12118:12285  for (i = 0; i < P.length; i++) {\r... */\n      iszero\n      tag_256\n      jumpi\n        /* \"MLSAGVerify.sol\":12171:12177  ecMath */\n      0x1\n      0x0\n      swap1\n      sload\n      swap1\n      0x100\n      exp\n      swap1\n      div\n      0xffffffffffffffffffffffffffffffffffffffff\n      and\n        /* \"MLSAGVerify.sol\":12171:12189  ecMath.ExpandPoint */\n      0xffffffffffffffffffffffffffffffffffffffff\n      and\n      0x5da7f69e\n        /* \"MLSAGVerify.sol\":12190:12191  P */\n      dup8\n        /* \"MLSAGVerify.sol\":12192:12193  i */\n      dup4\n        /* \"MLSAGVerify.sol\":12190:12194  P[i] */\n      dup2\n      mload\n      dup2\n      lt\n      iszero\n      iszero\n      tag_258\n      jumpi\n      invalid\n    tag_258:\n      swap1\n      0x20\n      add\n      swap1\n      0x20\n      mul\n      add\n      mload\n        /* \"MLSAGVerify.sol\":12171:12195  ecMath.ExpandPoint(P[i]) */\n      mload(0x40)\n      dup3\n      0xffffffff\n      and\n      0x100000000000000000000000000000000000000000000000000000000\n      mul\n      dup2\n      mstore\n      0x4\n      add\n      dup1\n      dup3\n      dup2\n      mstore\n      0x20\n      add\n      swap2\n      pop\n      pop\n      0x40\n      dup1\n      mload\n      dup1\n      dup4\n      sub\n      dup2\n      0x0\n      dup8\n      dup1\n      extcodesize\n      iszero\n        /* \"--CODEGEN--\":8:17   */\n      dup1\n        /* \"--CODEGEN--\":5:7   */\n      iszero\n      tag_259\n      jumpi\n        /* \"--CODEGEN--\":30:31   */\n      0x0\n        /* \"--CODEGEN--\":27:28   */\n      dup1\n        /* \"--CODEGEN--\":20:32   */\n      revert\n        /* \"--CODEGEN--\":5:7   */\n    tag_259:\n        /* \"MLSAGVerify.sol\":12171:12195  ecMath.ExpandPoint(P[i]) */\n      pop\n      gas\n      call\n      iszero\n        /* \"--CODEGEN--\":8:17   */\n      dup1\n        /* \"--CODEGEN--\":5:7   */\n      iszero\n      tag_260\n      jumpi\n        /* \"--CODEGEN--\":45:61   */\n      returndatasize\n        /* \"--CODEGEN--\":42:43   */\n      0x0\n        /* \"--CODEGEN--\":39:40   */\n      dup1\n        /* \"--CODEGEN--\":24:62   */\n      returndatacopy\n        /* \"--CODEGEN--\":77:93   */\n      returndatasize\n        /* \"--CODEGEN--\":74:75   */\n      0x0\n        /* \"--CODEGEN--\":67:94   */\n      revert\n        /* \"--CODEGEN--\":5:7   */\n    tag_260:\n        /* \"MLSAGVerify.sol\":12171:12195  ecMath.ExpandPoint(P[i]) */\n      pop\n      pop\n      pop\n      pop\n      mload(0x40)\n      returndatasize\n        /* \"--CODEGEN--\":101:105   */\n      0x1f\n        /* \"--CODEGEN--\":97:106   */\n      not\n        /* \"--CODEGEN--\":90:94   */\n      0x1f\n        /* \"--CODEGEN--\":84:88   */\n      dup3\n        /* \"--CODEGEN--\":80:95   */\n      add\n        /* \"--CODEGEN--\":76:107   */\n      and\n        /* \"--CODEGEN--\":69:74   */\n      dup3\n        /* \"--CODEGEN--\":65:108   */\n      add\n        /* \"--CODEGEN--\":126:132   */\n      dup1\n        /* \"--CODEGEN--\":120:124   */\n      0x40\n        /* \"--CODEGEN--\":113:133   */\n      mstore\n        /* \"--CODEGEN--\":0:138   */\n      pop\n        /* \"--CODEGEN--\":13:15   */\n      0x40\n        /* \"--CODEGEN--\":8:11   */\n      dup2\n        /* \"--CODEGEN--\":5:16   */\n      lt\n        /* \"--CODEGEN--\":2:4   */\n      iszero\n      tag_261\n      jumpi\n        /* \"--CODEGEN--\":29:30   */\n      0x0\n        /* \"--CODEGEN--\":26:27   */\n      dup1\n        /* \"--CODEGEN--\":19:31   */\n      revert\n        /* \"--CODEGEN--\":2:4   */\n    tag_261:\n        /* \"MLSAGVerify.sol\":12171:12195  ecMath.ExpandPoint(P[i]) */\n      dup2\n      add\n      swap1\n      dup1\n      swap2\n      swap1\n      pop\n      pop\n        /* \"MLSAGVerify.sol\":12164:12195  temp = ecMath.ExpandPoint(P[i]) */\n      swap3\n      pop\n        /* \"MLSAGVerify.sol\":12226:12230  temp */\n      dup3\n        /* \"MLSAGVerify.sol\":12231:12232  0 */\n      0x0\n        /* \"MLSAGVerify.sol\":12226:12233  temp[0] */\n      0x2\n      dup2\n      lt\n      iszero\n      iszero\n      tag_262\n      jumpi\n      invalid\n    tag_262:\n      0x20\n      mul\n      add\n      mload\n        /* \"MLSAGVerify.sol\":12210:12218  P_uncomp */\n      dup3\n        /* \"MLSAGVerify.sol\":12221:12222  i */\n      dup3\n        /* \"MLSAGVerify.sol\":12219:12220  2 */\n      0x2\n        /* \"MLSAGVerify.sol\":12219:12222  2*i */\n      mul\n        /* \"MLSAGVerify.sol\":12210:12223  P_uncomp[2*i] */\n      dup2\n      mload\n      dup2\n      lt\n      iszero\n      iszero\n      tag_263\n      jumpi\n      invalid\n    tag_263:\n      swap1\n      0x20\n      add\n      swap1\n      0x20\n      mul\n      add\n        /* \"MLSAGVerify.sol\":12210:12233  P_uncomp[2*i] = temp[0] */\n      dup2\n      dup2\n      mstore\n      pop\n      pop\n        /* \"MLSAGVerify.sol\":12266:12270  temp */\n      dup3\n        /* \"MLSAGVerify.sol\":12271:12272  1 */\n      0x1\n        /* \"MLSAGVerify.sol\":12266:12273  temp[1] */\n      0x2\n      dup2\n      lt\n      iszero\n      iszero\n      tag_264\n      jumpi\n      invalid\n    tag_264:\n      0x20\n      mul\n      add\n      mload\n        /* \"MLSAGVerify.sol\":12248:12256  P_uncomp */\n      dup3\n        /* \"MLSAGVerify.sol\":12261:12262  1 */\n      0x1\n        /* \"MLSAGVerify.sol\":12259:12260  i */\n      dup4\n        /* \"MLSAGVerify.sol\":12257:12258  2 */\n      0x2\n        /* \"MLSAGVerify.sol\":12257:12260  2*i */\n      mul\n        /* \"MLSAGVerify.sol\":12257:12262  2*i+1 */\n      add\n        /* \"MLSAGVerify.sol\":12248:12263  P_uncomp[2*i+1] */\n      dup2\n      mload\n      dup2\n      lt\n      iszero\n      iszero\n      tag_265\n      jumpi\n      invalid\n    tag_265:\n      swap1\n      0x20\n      add\n      swap1\n      0x20\n      mul\n      add\n        /* \"MLSAGVerify.sol\":12248:12273  P_uncomp[2*i+1] = temp[1] */\n      dup2\n      dup2\n      mstore\n      pop\n      pop\n        /* \"MLSAGVerify.sol\":12144:12147  i++ */\n      dup1\n      dup1\n      0x1\n      add\n      swap2\n      pop\n      pop\n        /* \"MLSAGVerify.sol\":12118:12285  for (i = 0; i < P.length; i++) {\r... */\n      jump(tag_255)\n    tag_256:\n        /* \"MLSAGVerify.sol\":12312:12355  VerifyMSAG(m, msgHash, P_uncomp, signature) */\n      tag_266\n        /* \"MLSAGVerify.sol\":12323:12324  m */\n      dup9\n        /* \"MLSAGVerify.sol\":12326:12333  msgHash */\n      dup9\n        /* \"MLSAGVerify.sol\":12335:12343  P_uncomp */\n      dup5\n        /* \"MLSAGVerify.sol\":12345:12354  signature */\n      dup9\n        /* \"MLSAGVerify.sol\":12312:12322  VerifyMSAG */\n      tag_66\n        /* \"MLSAGVerify.sol\":12312:12355  VerifyMSAG(m, msgHash, P_uncomp, signature) */\n      jump\t// in\n    tag_266:\n        /* \"MLSAGVerify.sol\":12305:12355  return VerifyMSAG(m, msgHash, P_uncomp, signature) */\n      swap4\n      pop\n        /* \"MLSAGVerify.sol\":11834:12363  function VerifyMSAG_Compressed(uint256 m, uint256 msgHash, uint256[] P, uint256[] signature)\r... */\n      pop\n      pop\n      pop\n      swap5\n      swap4\n      pop\n      pop\n      pop\n      pop\n      jump\t// out\n        /* \"MLSAGVerify.sol\":4832:5295  function Keccak256OfArray(uint256[] array)\r... */\n    tag_63:\n        /* \"MLSAGVerify.sol\":4905:4916  uint256 out */\n      0x0\n        /* \"MLSAGVerify.sol\":4934:4945  uint256 len */\n      dup1\n        /* \"MLSAGVerify.sol\":4971:4993  uint256[1] memory temp */\n      tag_267\n      jump\t// in(tag_268)\n    tag_267:\n        /* \"MLSAGVerify.sol\":4948:4953  array */\n      dup4\n        /* \"MLSAGVerify.sol\":4948:4960  array.length */\n      mload\n        /* \"MLSAGVerify.sol\":4934:4960  uint256 len = array.length */\n      swap2\n      pop\n        /* \"MLSAGVerify.sol\":5087:5091  0x40 */\n      0x40\n        /* \"MLSAGVerify.sol\":5081:5092  mload(0x40) */\n      mload\n        /* \"MLSAGVerify.sol\":5133:5137  0x20 */\n      0x20\n        /* \"MLSAGVerify.sol\":5126:5130  0x20 */\n      dup1\n        /* \"MLSAGVerify.sol\":5121:5124  len */\n      dup5\n        /* \"MLSAGVerify.sol\":5117:5131  mul(len, 0x20) */\n      mul\n        /* \"MLSAGVerify.sol\":5113:5138  add(mul(len, 0x20), 0x20) */\n      add\n        /* \"MLSAGVerify.sol\":5110:5111  p */\n      dup2\n        /* \"MLSAGVerify.sol\":5103:5139  mstore(p, add(mul(len, 0x20), 0x20)) */\n      mstore\n        /* \"MLSAGVerify.sol\":5248:5249  p */\n      dup1\n        /* \"MLSAGVerify.sol\":5242:5250  mload(p) */\n      mload\n        /* \"MLSAGVerify.sol\":5235:5240  array */\n      dup6\n        /* \"MLSAGVerify.sol\":5225:5251  keccak256(array, mload(p)) */\n      keccak256\n        /* \"MLSAGVerify.sol\":5219:5223  temp */\n      dup3\n        /* \"MLSAGVerify.sol\":5212:5252  mstore(temp, keccak256(array, mload(p))) */\n      mstore\n        /* \"MLSAGVerify.sol\":5060:5260  {\r... */\n      pop\n        /* \"MLSAGVerify.sol\":5280:5284  temp */\n      dup1\n        /* \"MLSAGVerify.sol\":5285:5286  0 */\n      0x0\n        /* \"MLSAGVerify.sol\":5280:5287  temp[0] */\n      0x1\n      dup2\n      lt\n      iszero\n      iszero\n      tag_270\n      jumpi\n      invalid\n    tag_270:\n      0x20\n      mul\n      add\n      mload\n        /* \"MLSAGVerify.sol\":5274:5287  out = temp[0] */\n      swap3\n      pop\n        /* \"MLSAGVerify.sol\":4832:5295  function Keccak256OfArray(uint256[] array)\r... */\n      pop\n      pop\n      swap2\n      swap1\n      pop\n      jump\t// out\n        /* \"MLSAGVerify.sol\":9671:11410  function VerifyMSAG(uint256 m, uint256 msgHash, uint256[] P, uint256[] signature)\r... */\n    tag_66:\n        /* \"MLSAGVerify.sol\":9787:9799  bool success */\n      0x0\n        /* \"MLSAGVerify.sol\":9854:9872  Variables memory v */\n      tag_271\n      jump\t// in(tag_171)\n    tag_271:\n        /* \"MLSAGVerify.sol\":10113:10131  uint256[] memory c */\n      0x60\n        /* \"MLSAGVerify.sol\":9889:9890  m */\n      dup7\n        /* \"MLSAGVerify.sol\":9883:9884  v */\n      dup3\n        /* \"MLSAGVerify.sol\":9883:9886  v.m */\n      0x0\n      add\n        /* \"MLSAGVerify.sol\":9883:9890  v.m = m */\n      dup2\n      dup2\n      mstore\n      pop\n      pop\n        /* \"MLSAGVerify.sol\":9927:9928  0 */\n      0x0\n        /* \"MLSAGVerify.sol\":9919:9920  v */\n      dup3\n        /* \"MLSAGVerify.sol\":9919:9922  v.m */\n      0x0\n      add\n      mload\n        /* \"MLSAGVerify.sol\":9917:9918  2 */\n      0x2\n        /* \"MLSAGVerify.sol\":9917:9922  2*v.m */\n      mul\n        /* \"MLSAGVerify.sol\":9905:9906  P */\n      dup7\n        /* \"MLSAGVerify.sol\":9905:9913  P.length */\n      mload\n        /* \"MLSAGVerify.sol\":9905:9923  P.length % (2*v.m) */\n      dup2\n      iszero\n      iszero\n      tag_273\n      jumpi\n      invalid\n    tag_273:\n      mod\n        /* \"MLSAGVerify.sol\":9905:9928  P.length % (2*v.m) != 0 */\n      eq\n      iszero\n        /* \"MLSAGVerify.sol\":9901:9942  if (P.length % (2*v.m) != 0) return false */\n      iszero\n      tag_274\n      jumpi\n        /* \"MLSAGVerify.sol\":9937:9942  false */\n      0x0\n        /* \"MLSAGVerify.sol\":9930:9942  return false */\n      swap3\n      pop\n      jump(tag_272)\n        /* \"MLSAGVerify.sol\":9901:9942  if (P.length % (2*v.m) != 0) return false */\n    tag_274:\n        /* \"MLSAGVerify.sol\":9983:9984  v */\n      dup2\n        /* \"MLSAGVerify.sol\":9983:9986  v.m */\n      0x0\n      add\n      mload\n        /* \"MLSAGVerify.sol\":9981:9982  2 */\n      0x2\n        /* \"MLSAGVerify.sol\":9981:9986  2*v.m */\n      mul\n        /* \"MLSAGVerify.sol\":9969:9970  P */\n      dup6\n        /* \"MLSAGVerify.sol\":9969:9977  P.length */\n      mload\n        /* \"MLSAGVerify.sol\":9969:9987  P.length / (2*v.m) */\n      dup2\n      iszero\n      iszero\n      tag_275\n      jumpi\n      invalid\n    tag_275:\n      div\n        /* \"MLSAGVerify.sol\":9963:9964  v */\n      dup3\n        /* \"MLSAGVerify.sol\":9963:9966  v.n */\n      0x20\n      add\n        /* \"MLSAGVerify.sol\":9963:9987  v.n = P.length / (2*v.m) */\n      dup2\n      dup2\n      mstore\n      pop\n      pop\n        /* \"MLSAGVerify.sol\":10031:10032  1 */\n      0x1\n        /* \"MLSAGVerify.sol\":10027:10028  v */\n      dup3\n        /* \"MLSAGVerify.sol\":10027:10030  v.n */\n      0x20\n      add\n      mload\n        /* \"MLSAGVerify.sol\":10023:10024  v */\n      dup4\n        /* \"MLSAGVerify.sol\":10023:10026  v.m */\n      0x0\n      add\n      mload\n        /* \"MLSAGVerify.sol\":10023:10030  v.m*v.n */\n      mul\n        /* \"MLSAGVerify.sol\":10023:10032  v.m*v.n+1 */\n      add\n        /* \"MLSAGVerify.sol\":10002:10011  signature */\n      dup5\n        /* \"MLSAGVerify.sol\":10002:10018  signature.length */\n      mload\n        /* \"MLSAGVerify.sol\":10002:10033  signature.length != (v.m*v.n+1) */\n      eq\n      iszero\n        /* \"MLSAGVerify.sol\":9998:10047  if (signature.length != (v.m*v.n+1)) return false */\n      iszero\n      tag_276\n      jumpi\n        /* \"MLSAGVerify.sol\":10042:10047  false */\n      0x0\n        /* \"MLSAGVerify.sol\":10035:10047  return false */\n      swap3\n      pop\n      jump(tag_272)\n        /* \"MLSAGVerify.sol\":9998:10047  if (signature.length != (v.m*v.n+1)) return false */\n    tag_276:\n        /* \"MLSAGVerify.sol\":10154:10155  1 */\n      0x1\n        /* \"MLSAGVerify.sol\":10150:10151  v */\n      dup3\n        /* \"MLSAGVerify.sol\":10150:10153  v.m */\n      0x0\n      add\n      mload\n        /* \"MLSAGVerify.sol\":10148:10149  2 */\n      0x2\n        /* \"MLSAGVerify.sol\":10148:10153  2*v.m */\n      mul\n        /* \"MLSAGVerify.sol\":10148:10155  2*v.m+1 */\n      add\n        /* \"MLSAGVerify.sol\":10134:10156  new uint256[](2*v.m+1) */\n      mload(0x40)\n      swap1\n      dup1\n      dup3\n      mstore\n      dup1\n      0x20\n      mul\n      0x20\n      add\n      dup3\n      add\n      0x40\n      mstore\n      dup1\n      iszero\n      tag_277\n      jumpi\n      dup2\n      0x20\n      add\n        /* \"--CODEGEN--\":29:31   */\n      0x20\n        /* \"--CODEGEN--\":21:27   */\n      dup3\n        /* \"--CODEGEN--\":17:32   */\n      mul\n        /* \"--CODEGEN--\":117:121   */\n      dup1\n        /* \"--CODEGEN--\":105:115   */\n      codesize\n        /* \"--CODEGEN--\":97:103   */\n      dup4\n        /* \"--CODEGEN--\":88:122   */\n      codecopy\n        /* \"--CODEGEN--\":148:152   */\n      dup1\n        /* \"--CODEGEN--\":140:146   */\n      dup3\n        /* \"--CODEGEN--\":136:153   */\n      add\n        /* \"--CODEGEN--\":126:153   */\n      swap2\n      pop\n        /* \"--CODEGEN--\":0:157   */\n      pop\n        /* \"MLSAGVerify.sol\":10134:10156  new uint256[](2*v.m+1) */\n      swap1\n      pop\n    tag_277:\n      pop\n        /* \"MLSAGVerify.sol\":10113:10156  uint256[] memory c = new uint256[](2*v.m+1) */\n      swap1\n      pop\n        /* \"MLSAGVerify.sol\":10174:10181  msgHash */\n      dup6\n        /* \"MLSAGVerify.sol\":10167:10168  c */\n      dup2\n        /* \"MLSAGVerify.sol\":10169:10170  0 */\n      0x0\n        /* \"MLSAGVerify.sol\":10167:10171  c[0] */\n      dup2\n      mload\n      dup2\n      lt\n      iszero\n      iszero\n      tag_278\n      jumpi\n      invalid\n    tag_278:\n      swap1\n      0x20\n      add\n      swap1\n      0x20\n      mul\n      add\n        /* \"MLSAGVerify.sol\":10167:10181  c[0] = msgHash */\n      dup2\n      dup2\n      mstore\n      pop\n      pop\n        /* \"MLSAGVerify.sol\":10213:10214  0 */\n      0x0\n        /* \"MLSAGVerify.sol\":10207:10208  v */\n      dup3\n        /* \"MLSAGVerify.sol\":10207:10210  v.i */\n      0x40\n      add\n        /* \"MLSAGVerify.sol\":10207:10214  v.i = 0 */\n      dup2\n      dup2\n      mstore\n      pop\n      pop\n        /* \"MLSAGVerify.sol\":10202:11165  for (v.i = 0; v.i < v.m; v.i++) {\r... */\n    tag_279:\n        /* \"MLSAGVerify.sol\":10222:10223  v */\n      dup2\n        /* \"MLSAGVerify.sol\":10222:10225  v.m */\n      0x0\n      add\n      mload\n        /* \"MLSAGVerify.sol\":10216:10217  v */\n      dup3\n        /* \"MLSAGVerify.sol\":10216:10219  v.i */\n      0x40\n      add\n      mload\n        /* \"MLSAGVerify.sol\":10216:10225  v.i < v.m */\n      lt\n        /* \"MLSAGVerify.sol\":10202:11165  for (v.i = 0; v.i < v.m; v.i++) {\r... */\n      iszero\n      tag_280\n      jumpi\n        /* \"MLSAGVerify.sol\":10256:10265  signature */\n      dup4\n        /* \"MLSAGVerify.sol\":10266:10267  0 */\n      0x0\n        /* \"MLSAGVerify.sol\":10256:10268  signature[0] */\n      dup2\n      mload\n      dup2\n      lt\n      iszero\n      iszero\n      tag_282\n      jumpi\n      invalid\n    tag_282:\n      swap1\n      0x20\n      add\n      swap1\n      0x20\n      mul\n      add\n      mload\n        /* \"MLSAGVerify.sol\":10249:10250  v */\n      dup3\n        /* \"MLSAGVerify.sol\":10249:10253  v.ck */\n      0x80\n      add\n        /* \"MLSAGVerify.sol\":10249:10268  v.ck = signature[0] */\n      dup2\n      dup2\n      mstore\n      pop\n      pop\n        /* \"MLSAGVerify.sol\":10400:10401  0 */\n      0x0\n        /* \"MLSAGVerify.sol\":10394:10395  v */\n      dup3\n        /* \"MLSAGVerify.sol\":10394:10397  v.j */\n      0x60\n      add\n        /* \"MLSAGVerify.sol\":10394:10401  v.j = 0 */\n      dup2\n      dup2\n      mstore\n      pop\n      pop\n        /* \"MLSAGVerify.sol\":10389:10675  for (v.j = 0; v.j < (v.n-1); v.j++) {\r... */\n    tag_283:\n        /* \"MLSAGVerify.sol\":10414:10415  1 */\n      0x1\n        /* \"MLSAGVerify.sol\":10410:10411  v */\n      dup3\n        /* \"MLSAGVerify.sol\":10410:10413  v.n */\n      0x20\n      add\n      mload\n        /* \"MLSAGVerify.sol\":10410:10415  v.n-1 */\n      sub\n        /* \"MLSAGVerify.sol\":10403:10404  v */\n      dup3\n        /* \"MLSAGVerify.sol\":10403:10406  v.j */\n      0x60\n      add\n      mload\n        /* \"MLSAGVerify.sol\":10403:10416  v.j < (v.n-1) */\n      lt\n        /* \"MLSAGVerify.sol\":10389:10675  for (v.j = 0; v.j < (v.n-1); v.j++) {\r... */\n      iszero\n      tag_284\n      jumpi\n        /* \"MLSAGVerify.sol\":10464:10465  v */\n      dup2\n        /* \"MLSAGVerify.sol\":10464:10467  v.i */\n      0x40\n      add\n      mload\n        /* \"MLSAGVerify.sol\":10458:10459  v */\n      dup3\n        /* \"MLSAGVerify.sol\":10458:10461  v.j */\n      0x60\n      add\n      mload\n        /* \"MLSAGVerify.sol\":10454:10455  v */\n      dup4\n        /* \"MLSAGVerify.sol\":10454:10457  v.m */\n      0x0\n      add\n      mload\n        /* \"MLSAGVerify.sol\":10454:10461  v.m*v.j */\n      mul\n        /* \"MLSAGVerify.sol\":10454:10467  v.m*v.j + v.i */\n      add\n        /* \"MLSAGVerify.sol\":10444:10445  v */\n      dup3\n        /* \"MLSAGVerify.sol\":10444:10451  v.index */\n      0xa0\n      add\n        /* \"MLSAGVerify.sol\":10444:10467  v.index = v.m*v.j + v.i */\n      dup2\n      dup2\n      mstore\n      pop\n      pop\n        /* \"MLSAGVerify.sol\":10516:10517  P */\n      dup5\n        /* \"MLSAGVerify.sol\":10520:10521  v */\n      dup3\n        /* \"MLSAGVerify.sol\":10520:10527  v.index */\n      0xa0\n      add\n      mload\n        /* \"MLSAGVerify.sol\":10518:10519  2 */\n      0x2\n        /* \"MLSAGVerify.sol\":10518:10527  2*v.index */\n      mul\n        /* \"MLSAGVerify.sol\":10516:10528  P[2*v.index] */\n      dup2\n      mload\n      dup2\n      lt\n      iszero\n      iszero\n      tag_286\n      jumpi\n      invalid\n    tag_286:\n      swap1\n      0x20\n      add\n      swap1\n      0x20\n      mul\n      add\n      mload\n        /* \"MLSAGVerify.sol\":10530:10531  P */\n      dup6\n        /* \"MLSAGVerify.sol\":10542:10543  1 */\n      0x1\n        /* \"MLSAGVerify.sol\":10534:10535  v */\n      dup5\n        /* \"MLSAGVerify.sol\":10534:10541  v.index */\n      0xa0\n      add\n      mload\n        /* \"MLSAGVerify.sol\":10532:10533  2 */\n      0x2\n        /* \"MLSAGVerify.sol\":10532:10541  2*v.index */\n      mul\n        /* \"MLSAGVerify.sol\":10532:10543  2*v.index+1 */\n      add\n        /* \"MLSAGVerify.sol\":10530:10544  P[2*v.index+1] */\n      dup2\n      mload\n      dup2\n      lt\n      iszero\n      iszero\n      tag_287\n      jumpi\n      invalid\n    tag_287:\n      swap1\n      0x20\n      add\n      swap1\n      0x20\n      mul\n      add\n      mload\n        /* \"MLSAGVerify.sol\":10487:10488  v */\n      dup4\n        /* \"MLSAGVerify.sol\":10487:10495  v.point1 */\n      0xc0\n      add\n      mload\n        /* \"MLSAGVerify.sol\":10496:10497  0 */\n      0x0\n        /* \"MLSAGVerify.sol\":10487:10498  v.point1[0] */\n      0x2\n      dup2\n      lt\n      iszero\n      iszero\n      tag_288\n      jumpi\n      invalid\n    tag_288:\n      0x20\n      mul\n      add\n        /* \"MLSAGVerify.sol\":10500:10501  v */\n      dup5\n        /* \"MLSAGVerify.sol\":10500:10508  v.point1 */\n      0xc0\n      add\n      mload\n        /* \"MLSAGVerify.sol\":10509:10510  1 */\n      0x1\n        /* \"MLSAGVerify.sol\":10500:10511  v.point1[1] */\n      0x2\n      dup2\n      lt\n      iszero\n      iszero\n      tag_289\n      jumpi\n      invalid\n    tag_289:\n      0x20\n      mul\n      add\n        /* \"MLSAGVerify.sol\":10486:10545  (v.point1[0], v.point1[1]) = (P[2*v.index], P[2*v.index+1]) */\n      dup3\n      dup2\n      mstore\n      pop\n      dup3\n      dup2\n      mstore\n      pop\n      pop\n      pop\n        /* \"MLSAGVerify.sol\":10592:10659  CalculateRingSegment(msgHash, v.ck, signature[v.index+1], v.point1) */\n      tag_290\n        /* \"MLSAGVerify.sol\":10613:10620  msgHash */\n      dup7\n        /* \"MLSAGVerify.sol\":10622:10623  v */\n      dup4\n        /* \"MLSAGVerify.sol\":10622:10626  v.ck */\n      0x80\n      add\n      mload\n        /* \"MLSAGVerify.sol\":10628:10637  signature */\n      dup7\n        /* \"MLSAGVerify.sol\":10646:10647  1 */\n      0x1\n        /* \"MLSAGVerify.sol\":10638:10639  v */\n      dup7\n        /* \"MLSAGVerify.sol\":10638:10645  v.index */\n      0xa0\n      add\n      mload\n        /* \"MLSAGVerify.sol\":10638:10647  v.index+1 */\n      add\n        /* \"MLSAGVerify.sol\":10628:10648  signature[v.index+1] */\n      dup2\n      mload\n      dup2\n      lt\n      iszero\n      iszero\n      tag_291\n      jumpi\n      invalid\n    tag_291:\n      swap1\n      0x20\n      add\n      swap1\n      0x20\n      mul\n      add\n      mload\n        /* \"MLSAGVerify.sol\":10650:10651  v */\n      dup6\n        /* \"MLSAGVerify.sol\":10650:10658  v.point1 */\n      0xc0\n      add\n      mload\n        /* \"MLSAGVerify.sol\":10592:10612  CalculateRingSegment */\n      tag_117\n        /* \"MLSAGVerify.sol\":10592:10659  CalculateRingSegment(msgHash, v.ck, signature[v.index+1], v.point1) */\n      jump\t// in\n    tag_290:\n        /* \"MLSAGVerify.sol\":10585:10586  v */\n      dup3\n        /* \"MLSAGVerify.sol\":10585:10589  v.ck */\n      0x80\n      add\n        /* \"MLSAGVerify.sol\":10585:10659  v.ck = CalculateRingSegment(msgHash, v.ck, signature[v.index+1], v.point1) */\n      dup2\n      dup2\n      mstore\n      pop\n      pop\n        /* \"MLSAGVerify.sol\":10418:10419  v */\n      dup2\n        /* \"MLSAGVerify.sol\":10418:10421  v.j */\n      0x60\n      add\n        /* \"MLSAGVerify.sol\":10418:10423  v.j++ */\n      dup1\n      mload\n      dup1\n      swap2\n      swap1\n      0x1\n      add\n      dup2\n      mstore\n      pop\n      pop\n        /* \"MLSAGVerify.sol\":10389:10675  for (v.j = 0; v.j < (v.n-1); v.j++) {\r... */\n      jump(tag_283)\n    tag_284:\n        /* \"MLSAGVerify.sol\":10813:10814  v */\n      dup2\n        /* \"MLSAGVerify.sol\":10813:10816  v.i */\n      0x40\n      add\n      mload\n        /* \"MLSAGVerify.sol\":10808:10809  1 */\n      0x1\n        /* \"MLSAGVerify.sol\":10804:10805  v */\n      dup4\n        /* \"MLSAGVerify.sol\":10804:10807  v.n */\n      0x20\n      add\n      mload\n        /* \"MLSAGVerify.sol\":10804:10809  v.n-1 */\n      sub\n        /* \"MLSAGVerify.sol\":10799:10800  v */\n      dup4\n        /* \"MLSAGVerify.sol\":10799:10802  v.m */\n      0x0\n      add\n      mload\n        /* \"MLSAGVerify.sol\":10799:10810  v.m*(v.n-1) */\n      mul\n        /* \"MLSAGVerify.sol\":10799:10816  v.m*(v.n-1) + v.i */\n      add\n        /* \"MLSAGVerify.sol\":10789:10790  v */\n      dup3\n        /* \"MLSAGVerify.sol\":10789:10796  v.index */\n      0xa0\n      add\n        /* \"MLSAGVerify.sol\":10789:10816  v.index = v.m*(v.n-1) + v.i */\n      dup2\n      dup2\n      mstore\n      pop\n      pop\n        /* \"MLSAGVerify.sol\":10861:10862  P */\n      dup5\n        /* \"MLSAGVerify.sol\":10865:10866  v */\n      dup3\n        /* \"MLSAGVerify.sol\":10865:10872  v.index */\n      0xa0\n      add\n      mload\n        /* \"MLSAGVerify.sol\":10863:10864  2 */\n      0x2\n        /* \"MLSAGVerify.sol\":10863:10872  2*v.index */\n      mul\n        /* \"MLSAGVerify.sol\":10861:10873  P[2*v.index] */\n      dup2\n      mload\n      dup2\n      lt\n      iszero\n      iszero\n      tag_292\n      jumpi\n      invalid\n    tag_292:\n      swap1\n      0x20\n      add\n      swap1\n      0x20\n      mul\n      add\n      mload\n        /* \"MLSAGVerify.sol\":10875:10876  P */\n      dup6\n        /* \"MLSAGVerify.sol\":10887:10888  1 */\n      0x1\n        /* \"MLSAGVerify.sol\":10879:10880  v */\n      dup5\n        /* \"MLSAGVerify.sol\":10879:10886  v.index */\n      0xa0\n      add\n      mload\n        /* \"MLSAGVerify.sol\":10877:10878  2 */\n      0x2\n        /* \"MLSAGVerify.sol\":10877:10886  2*v.index */\n      mul\n        /* \"MLSAGVerify.sol\":10877:10888  2*v.index+1 */\n      add\n        /* \"MLSAGVerify.sol\":10875:10889  P[2*v.index+1] */\n      dup2\n      mload\n      dup2\n      lt\n      iszero\n      iszero\n      tag_293\n      jumpi\n      invalid\n    tag_293:\n      swap1\n      0x20\n      add\n      swap1\n      0x20\n      mul\n      add\n      mload\n        /* \"MLSAGVerify.sol\":10832:10833  v */\n      dup4\n        /* \"MLSAGVerify.sol\":10832:10840  v.point1 */\n      0xc0\n      add\n      mload\n        /* \"MLSAGVerify.sol\":10841:10842  0 */\n      0x0\n        /* \"MLSAGVerify.sol\":10832:10843  v.point1[0] */\n      0x2\n      dup2\n      lt\n      iszero\n      iszero\n      tag_294\n      jumpi\n      invalid\n    tag_294:\n      0x20\n      mul\n      add\n        /* \"MLSAGVerify.sol\":10845:10846  v */\n      dup5\n        /* \"MLSAGVerify.sol\":10845:10853  v.point1 */\n      0xc0\n      add\n      mload\n        /* \"MLSAGVerify.sol\":10854:10855  1 */\n      0x1\n        /* \"MLSAGVerify.sol\":10845:10856  v.point1[1] */\n      0x2\n      dup2\n      lt\n      iszero\n      iszero\n      tag_295\n      jumpi\n      invalid\n    tag_295:\n      0x20\n      mul\n      add\n        /* \"MLSAGVerify.sol\":10831:10890  (v.point1[0], v.point1[1]) = (P[2*v.index], P[2*v.index+1]) */\n      dup3\n      dup2\n      mstore\n      pop\n      dup3\n      dup2\n      mstore\n      pop\n      pop\n      pop\n        /* \"MLSAGVerify.sol\":10917:10982  CalculateRingSegment_NoHash(v.ck, signature[v.index+1], v.point1) */\n      tag_296\n        /* \"MLSAGVerify.sol\":10945:10946  v */\n      dup3\n        /* \"MLSAGVerify.sol\":10945:10949  v.ck */\n      0x80\n      add\n      mload\n        /* \"MLSAGVerify.sol\":10951:10960  signature */\n      dup6\n        /* \"MLSAGVerify.sol\":10969:10970  1 */\n      0x1\n        /* \"MLSAGVerify.sol\":10961:10962  v */\n      dup6\n        /* \"MLSAGVerify.sol\":10961:10968  v.index */\n      0xa0\n      add\n      mload\n        /* \"MLSAGVerify.sol\":10961:10970  v.index+1 */\n      add\n        /* \"MLSAGVerify.sol\":10951:10971  signature[v.index+1] */\n      dup2\n      mload\n      dup2\n      lt\n      iszero\n      iszero\n      tag_297\n      jumpi\n      invalid\n    tag_297:\n      swap1\n      0x20\n      add\n      swap1\n      0x20\n      mul\n      add\n      mload\n        /* \"MLSAGVerify.sol\":10973:10974  v */\n      dup5\n        /* \"MLSAGVerify.sol\":10973:10981  v.point1 */\n      0xc0\n      add\n      mload\n        /* \"MLSAGVerify.sol\":10917:10944  CalculateRingSegment_NoHash */\n      tag_51\n        /* \"MLSAGVerify.sol\":10917:10982  CalculateRingSegment_NoHash(v.ck, signature[v.index+1], v.point1) */\n      jump\t// in\n    tag_296:\n        /* \"MLSAGVerify.sol\":10906:10907  v */\n      dup3\n        /* \"MLSAGVerify.sol\":10906:10914  v.point1 */\n      0xc0\n      add\n        /* \"MLSAGVerify.sol\":10906:10982  v.point1 = CalculateRingSegment_NoHash(v.ck, signature[v.index+1], v.point1) */\n      dup2\n      swap1\n      mstore\n      pop\n        /* \"MLSAGVerify.sol\":11072:11073  1 */\n      0x1\n        /* \"MLSAGVerify.sol\":11070:11071  2 */\n      0x2\n        /* \"MLSAGVerify.sol\":11066:11067  v */\n      dup4\n        /* \"MLSAGVerify.sol\":11066:11069  v.i */\n      0x40\n      add\n      mload\n        /* \"MLSAGVerify.sol\":11066:11071  v.i*2 */\n      mul\n        /* \"MLSAGVerify.sol\":11066:11073  v.i*2+1 */\n      add\n        /* \"MLSAGVerify.sol\":11056:11057  v */\n      dup3\n        /* \"MLSAGVerify.sol\":11056:11063  v.index */\n      0xa0\n      add\n        /* \"MLSAGVerify.sol\":11056:11073  v.index = v.i*2+1 */\n      dup2\n      dup2\n      mstore\n      pop\n      pop\n        /* \"MLSAGVerify.sol\":11101:11102  v */\n      dup2\n        /* \"MLSAGVerify.sol\":11101:11109  v.point1 */\n      0xc0\n      add\n      mload\n        /* \"MLSAGVerify.sol\":11110:11111  0 */\n      0x0\n        /* \"MLSAGVerify.sol\":11101:11112  v.point1[0] */\n      0x2\n      dup2\n      lt\n      iszero\n      iszero\n      tag_298\n      jumpi\n      invalid\n    tag_298:\n      0x20\n      mul\n      add\n      mload\n        /* \"MLSAGVerify.sol\":11088:11089  c */\n      dup2\n        /* \"MLSAGVerify.sol\":11090:11091  v */\n      dup4\n        /* \"MLSAGVerify.sol\":11090:11097  v.index */\n      0xa0\n      add\n      mload\n        /* \"MLSAGVerify.sol\":11088:11098  c[v.index] */\n      dup2\n      mload\n      dup2\n      lt\n      iszero\n      iszero\n      tag_299\n      jumpi\n      invalid\n    tag_299:\n      swap1\n      0x20\n      add\n      swap1\n      0x20\n      mul\n      add\n        /* \"MLSAGVerify.sol\":11088:11112  c[v.index] = v.point1[0] */\n      dup2\n      dup2\n      mstore\n      pop\n      pop\n        /* \"MLSAGVerify.sol\":11142:11143  v */\n      dup2\n        /* \"MLSAGVerify.sol\":11142:11150  v.point1 */\n      0xc0\n      add\n      mload\n        /* \"MLSAGVerify.sol\":11151:11152  1 */\n      0x1\n        /* \"MLSAGVerify.sol\":11142:11153  v.point1[1] */\n      0x2\n      dup2\n      lt\n      iszero\n      iszero\n      tag_300\n      jumpi\n      invalid\n    tag_300:\n      0x20\n      mul\n      add\n      mload\n        /* \"MLSAGVerify.sol\":11127:11128  c */\n      dup2\n        /* \"MLSAGVerify.sol\":11137:11138  1 */\n      0x1\n        /* \"MLSAGVerify.sol\":11129:11130  v */\n      dup5\n        /* \"MLSAGVerify.sol\":11129:11136  v.index */\n      0xa0\n      add\n      mload\n        /* \"MLSAGVerify.sol\":11129:11138  v.index+1 */\n      add\n        /* \"MLSAGVerify.sol\":11127:11139  c[v.index+1] */\n      dup2\n      mload\n      dup2\n      lt\n      iszero\n      iszero\n      tag_301\n      jumpi\n      invalid\n    tag_301:\n      swap1\n      0x20\n      add\n      swap1\n      0x20\n      mul\n      add\n        /* \"MLSAGVerify.sol\":11127:11153  c[v.index+1] = v.point1[1] */\n      dup2\n      dup2\n      mstore\n      pop\n      pop\n        /* \"MLSAGVerify.sol\":10227:10228  v */\n      dup2\n        /* \"MLSAGVerify.sol\":10227:10230  v.i */\n      0x40\n      add\n        /* \"MLSAGVerify.sol\":10227:10232  v.i++ */\n      dup1\n      mload\n      dup1\n      swap2\n      swap1\n      0x1\n      add\n      dup2\n      mstore\n      pop\n      pop\n        /* \"MLSAGVerify.sol\":10202:11165  for (v.i = 0; v.i < v.m; v.i++) {\r... */\n      jump(tag_279)\n    tag_280:\n        /* \"MLSAGVerify.sol\":11285:11304  Keccak256OfArray(c) */\n      tag_302\n        /* \"MLSAGVerify.sol\":11302:11303  c */\n      dup2\n        /* \"MLSAGVerify.sol\":11285:11301  Keccak256OfArray */\n      tag_63\n        /* \"MLSAGVerify.sol\":11285:11304  Keccak256OfArray(c) */\n      jump\t// in\n    tag_302:\n        /* \"MLSAGVerify.sol\":11278:11279  v */\n      dup3\n        /* \"MLSAGVerify.sol\":11278:11282  v.ck */\n      0x80\n      add\n        /* \"MLSAGVerify.sol\":11278:11304  v.ck = Keccak256OfArray(c) */\n      dup2\n      dup2\n      mstore\n      pop\n      pop\n        /* \"MLSAGVerify.sol\":11389:11398  signature */\n      dup4\n        /* \"MLSAGVerify.sol\":11399:11400  0 */\n      0x0\n        /* \"MLSAGVerify.sol\":11389:11401  signature[0] */\n      dup2\n      mload\n      dup2\n      lt\n      iszero\n      iszero\n      tag_303\n      jumpi\n      invalid\n    tag_303:\n      swap1\n      0x20\n      add\n      swap1\n      0x20\n      mul\n      add\n      mload\n        /* \"MLSAGVerify.sol\":11381:11382  v */\n      dup3\n        /* \"MLSAGVerify.sol\":11381:11385  v.ck */\n      0x80\n      add\n      mload\n        /* \"MLSAGVerify.sol\":11381:11401  v.ck == signature[0] */\n      eq\n        /* \"MLSAGVerify.sol\":11370:11402  success = (v.ck == signature[0]) */\n      swap3\n      pop\n        /* \"MLSAGVerify.sol\":9671:11410  function VerifyMSAG(uint256 m, uint256 msgHash, uint256[] P, uint256[] signature)\r... */\n    tag_272:\n      pop\n      pop\n      swap5\n      swap4\n      pop\n      pop\n      pop\n      pop\n      jump\t// out\n        /* \"MLSAGVerify.sol\":2362:2612  function CompleteRing(uint256 alpha, uint256 c, uint256 xk)\r... */\n    tag_69:\n        /* \"MLSAGVerify.sol\":2452:2461  uint256 s */\n      0x0\n        /* \"MLSAGVerify.sol\":2497:2503  ecMath */\n      0x1\n      0x0\n      swap1\n      sload\n      swap1\n      0x100\n      exp\n      swap1\n      div\n      0xffffffffffffffffffffffffffffffffffffffff\n      and\n        /* \"MLSAGVerify.sol\":2497:2513  ecMath.GetNCurve */\n      0xffffffffffffffffffffffffffffffffffffffff\n      and\n      0xd1ff535b\n        /* \"MLSAGVerify.sol\":2497:2515  ecMath.GetNCurve() */\n      mload(0x40)\n      dup2\n      0xffffffff\n      and\n      0x100000000000000000000000000000000000000000000000000000000\n      mul\n      dup2\n      mstore\n      0x4\n      add\n      0x20\n      mload(0x40)\n      dup1\n      dup4\n      sub\n      dup2\n      0x0\n      dup8\n      dup1\n      extcodesize\n      iszero\n        /* \"--CODEGEN--\":8:17   */\n      dup1\n        /* \"--CODEGEN--\":5:7   */\n      iszero\n      tag_305\n      jumpi\n        /* \"--CODEGEN--\":30:31   */\n      0x0\n        /* \"--CODEGEN--\":27:28   */\n      dup1\n        /* \"--CODEGEN--\":20:32   */\n      revert\n        /* \"--CODEGEN--\":5:7   */\n    tag_305:\n        /* \"MLSAGVerify.sol\":2497:2515  ecMath.GetNCurve() */\n      pop\n      gas\n      call\n      iszero\n        /* \"--CODEGEN--\":8:17   */\n      dup1\n        /* \"--CODEGEN--\":5:7   */\n      iszero\n      tag_306\n      jumpi\n        /* \"--CODEGEN--\":45:61   */\n      returndatasize\n        /* \"--CODEGEN--\":42:43   */\n      0x0\n        /* \"--CODEGEN--\":39:40   */\n      dup1\n        /* \"--CODEGEN--\":24:62   */\n      returndatacopy\n        /* \"--CODEGEN--\":77:93   */\n      returndatasize\n        /* \"--CODEGEN--\":74:75   */\n      0x0\n        /* \"--CODEGEN--\":67:94   */\n      revert\n        /* \"--CODEGEN--\":5:7   */\n    tag_306:\n        /* \"MLSAGVerify.sol\":2497:2515  ecMath.GetNCurve() */\n      pop\n      pop\n      pop\n      pop\n      mload(0x40)\n      returndatasize\n        /* \"--CODEGEN--\":13:15   */\n      0x20\n        /* \"--CODEGEN--\":8:11   */\n      dup2\n        /* \"--CODEGEN--\":5:16   */\n      lt\n        /* \"--CODEGEN--\":2:4   */\n      iszero\n      tag_307\n      jumpi\n        /* \"--CODEGEN--\":29:30   */\n      0x0\n        /* \"--CODEGEN--\":26:27   */\n      dup1\n        /* \"--CODEGEN--\":19:31   */\n      revert\n        /* \"--CODEGEN--\":2:4   */\n    tag_307:\n        /* \"MLSAGVerify.sol\":2497:2515  ecMath.GetNCurve() */\n      dup2\n      add\n      swap1\n      dup1\n      dup1\n      mload\n      swap1\n      0x20\n      add\n      swap1\n      swap3\n      swap2\n      swap1\n      pop\n      pop\n      pop\n        /* \"MLSAGVerify.sol\":2483:2516  mulmod(c, xk, ecMath.GetNCurve()) */\n      dup1\n      iszero\n      iszero\n      tag_308\n      jumpi\n      invalid\n    tag_308:\n        /* \"MLSAGVerify.sol\":2493:2495  xk */\n      dup3\n        /* \"MLSAGVerify.sol\":2490:2491  c */\n      dup5\n        /* \"MLSAGVerify.sol\":2483:2516  mulmod(c, xk, ecMath.GetNCurve()) */\n      mulmod\n        /* \"MLSAGVerify.sol\":2479:2516  s = mulmod(c, xk, ecMath.GetNCurve()) */\n      swap1\n      pop\n        /* \"MLSAGVerify.sol\":2552:2553  s */\n      dup1\n        /* \"MLSAGVerify.sol\":2531:2537  ecMath */\n      0x1\n      0x0\n      swap1\n      sload\n      swap1\n      0x100\n      exp\n      swap1\n      div\n      0xffffffffffffffffffffffffffffffffffffffff\n      and\n        /* \"MLSAGVerify.sol\":2531:2547  ecMath.GetNCurve */\n      0xffffffffffffffffffffffffffffffffffffffff\n      and\n      0xd1ff535b\n        /* \"MLSAGVerify.sol\":2531:2549  ecMath.GetNCurve() */\n      mload(0x40)\n      dup2\n      0xffffffff\n      and\n      0x100000000000000000000000000000000000000000000000000000000\n      mul\n      dup2\n      mstore\n      0x4\n      add\n      0x20\n      mload(0x40)\n      dup1\n      dup4\n      sub\n      dup2\n      0x0\n      dup8\n      dup1\n      extcodesize\n      iszero\n        /* \"--CODEGEN--\":8:17   */\n      dup1\n        /* \"--CODEGEN--\":5:7   */\n      iszero\n      tag_309\n      jumpi\n        /* \"--CODEGEN--\":30:31   */\n      0x0\n        /* \"--CODEGEN--\":27:28   */\n      dup1\n        /* \"--CODEGEN--\":20:32   */\n      revert\n        /* \"--CODEGEN--\":5:7   */\n    tag_309:\n        /* \"MLSAGVerify.sol\":2531:2549  ecMath.GetNCurve() */\n      pop\n      gas\n      call\n      iszero\n        /* \"--CODEGEN--\":8:17   */\n      dup1\n        /* \"--CODEGEN--\":5:7   */\n      iszero\n      tag_310\n      jumpi\n        /* \"--CODEGEN--\":45:61   */\n      returndatasize\n        /* \"--CODEGEN--\":42:43   */\n      0x0\n        /* \"--CODEGEN--\":39:40   */\n      dup1\n        /* \"--CODEGEN--\":24:62   */\n      returndatacopy\n        /* \"--CODEGEN--\":77:93   */\n      returndatasize\n        /* \"--CODEGEN--\":74:75   */\n      0x0\n        /* \"--CODEGEN--\":67:94   */\n      revert\n        /* \"--CODEGEN--\":5:7   */\n    tag_310:\n        /* \"MLSAGVerify.sol\":2531:2549  ecMath.GetNCurve() */\n      pop\n      pop\n      pop\n      pop\n      mload(0x40)\n      returndatasize\n        /* \"--CODEGEN--\":13:15   */\n      0x20\n        /* \"--CODEGEN--\":8:11   */\n      dup2\n        /* \"--CODEGEN--\":5:16   */\n      lt\n        /* \"--CODEGEN--\":2:4   */\n      iszero\n      tag_311\n      jumpi\n        /* \"--CODEGEN--\":29:30   */\n      0x0\n        /* \"--CODEGEN--\":26:27   */\n      dup1\n        /* \"--CODEGEN--\":19:31   */\n      revert\n        /* \"--CODEGEN--\":2:4   */\n    tag_311:\n        /* \"MLSAGVerify.sol\":2531:2549  ecMath.GetNCurve() */\n      dup2\n      add\n      swap1\n      dup1\n      dup1\n      mload\n      swap1\n      0x20\n      add\n      swap1\n      swap3\n      swap2\n      swap1\n      pop\n      pop\n      pop\n        /* \"MLSAGVerify.sol\":2531:2553  ecMath.GetNCurve() - s */\n      sub\n        /* \"MLSAGVerify.sol\":2527:2553  s = ecMath.GetNCurve() - s */\n      swap1\n      pop\n        /* \"MLSAGVerify.sol\":2585:2591  ecMath */\n      0x1\n      0x0\n      swap1\n      sload\n      swap1\n      0x100\n      exp\n      swap1\n      div\n      0xffffffffffffffffffffffffffffffffffffffff\n      and\n        /* \"MLSAGVerify.sol\":2585:2601  ecMath.GetNCurve */\n      0xffffffffffffffffffffffffffffffffffffffff\n      and\n      0xd1ff535b\n        /* \"MLSAGVerify.sol\":2585:2603  ecMath.GetNCurve() */\n      mload(0x40)\n      dup2\n      0xffffffff\n      and\n      0x100000000000000000000000000000000000000000000000000000000\n      mul\n      dup2\n      mstore\n      0x4\n      add\n      0x20\n      mload(0x40)\n      dup1\n      dup4\n      sub\n      dup2\n      0x0\n      dup8\n      dup1\n      extcodesize\n      iszero\n        /* \"--CODEGEN--\":8:17   */\n      dup1\n        /* \"--CODEGEN--\":5:7   */\n      iszero\n      tag_312\n      jumpi\n        /* \"--CODEGEN--\":30:31   */\n      0x0\n        /* \"--CODEGEN--\":27:28   */\n      dup1\n        /* \"--CODEGEN--\":20:32   */\n      revert\n        /* \"--CODEGEN--\":5:7   */\n    tag_312:\n        /* \"MLSAGVerify.sol\":2585:2603  ecMath.GetNCurve() */\n      pop\n      gas\n      call\n      iszero\n        /* \"--CODEGEN--\":8:17   */\n      dup1\n        /* \"--CODEGEN--\":5:7   */\n      iszero\n      tag_313\n      jumpi\n        /* \"--CODEGEN--\":45:61   */\n      returndatasize\n        /* \"--CODEGEN--\":42:43   */\n      0x0\n        /* \"--CODEGEN--\":39:40   */\n      dup1\n        /* \"--CODEGEN--\":24:62   */\n      returndatacopy\n        /* \"--CODEGEN--\":77:93   */\n      returndatasize\n        /* \"--CODEGEN--\":74:75   */\n      0x0\n        /* \"--CODEGEN--\":67:94   */\n      revert\n        /* \"--CODEGEN--\":5:7   */\n    tag_313:\n        /* \"MLSAGVerify.sol\":2585:2603  ecMath.GetNCurve() */\n      pop\n      pop\n      pop\n      pop\n      mload(0x40)\n      returndatasize\n        /* \"--CODEGEN--\":13:15   */\n      0x20\n        /* \"--CODEGEN--\":8:11   */\n      dup2\n        /* \"--CODEGEN--\":5:16   */\n      lt\n        /* \"--CODEGEN--\":2:4   */\n      iszero\n      tag_314\n      jumpi\n        /* \"--CODEGEN--\":29:30   */\n      0x0\n        /* \"--CODEGEN--\":26:27   */\n      dup1\n        /* \"--CODEGEN--\":19:31   */\n      revert\n        /* \"--CODEGEN--\":2:4   */\n    tag_314:\n        /* \"MLSAGVerify.sol\":2585:2603  ecMath.GetNCurve() */\n      dup2\n      add\n      swap1\n      dup1\n      dup1\n      mload\n      swap1\n      0x20\n      add\n      swap1\n      swap3\n      swap2\n      swap1\n      pop\n      pop\n      pop\n        /* \"MLSAGVerify.sol\":2568:2604  addmod(alpha, s, ecMath.GetNCurve()) */\n      dup1\n      iszero\n      iszero\n      tag_315\n      jumpi\n      invalid\n    tag_315:\n        /* \"MLSAGVerify.sol\":2582:2583  s */\n      dup2\n        /* \"MLSAGVerify.sol\":2575:2580  alpha */\n      dup6\n        /* \"MLSAGVerify.sol\":2568:2604  addmod(alpha, s, ecMath.GetNCurve()) */\n      addmod\n        /* \"MLSAGVerify.sol\":2564:2604  s = addmod(alpha, s, ecMath.GetNCurve()) */\n      swap1\n      pop\n        /* \"MLSAGVerify.sol\":2362:2612  function CompleteRing(uint256 alpha, uint256 c, uint256 xk)\r... */\n      swap4\n      swap3\n      pop\n      pop\n      pop\n      jump\t// out\n        /* \"MLSAGVerify.sol\":2665:2909  function LinkableRingHashFunction(uint256 msgHash, uint256[2] left, uint256[2] right)\r... */\n    tag_72:\n        /* \"MLSAGVerify.sol\":2781:2790  uint256 h */\n      0x0\n        /* \"MLSAGVerify.sol\":2883:2889  ecMath */\n      0x1\n      0x0\n      swap1\n      sload\n      swap1\n      0x100\n      exp\n      swap1\n      div\n      0xffffffffffffffffffffffffffffffffffffffff\n      and\n        /* \"MLSAGVerify.sol\":2883:2899  ecMath.GetNCurve */\n      0xffffffffffffffffffffffffffffffffffffffff\n      and\n      0xd1ff535b\n        /* \"MLSAGVerify.sol\":2883:2901  ecMath.GetNCurve() */\n      mload(0x40)\n      dup2\n      0xffffffff\n      and\n      0x100000000000000000000000000000000000000000000000000000000\n      mul\n      dup2\n      mstore\n      0x4\n      add\n      0x20\n      mload(0x40)\n      dup1\n      dup4\n      sub\n      dup2\n      0x0\n      dup8\n      dup1\n      extcodesize\n      iszero\n        /* \"--CODEGEN--\":8:17   */\n      dup1\n        /* \"--CODEGEN--\":5:7   */\n      iszero\n      tag_317\n      jumpi\n        /* \"--CODEGEN--\":30:31   */\n      0x0\n        /* \"--CODEGEN--\":27:28   */\n      dup1\n        /* \"--CODEGEN--\":20:32   */\n      revert\n        /* \"--CODEGEN--\":5:7   */\n    tag_317:\n        /* \"MLSAGVerify.sol\":2883:2901  ecMath.GetNCurve() */\n      pop\n      gas\n      call\n      iszero\n        /* \"--CODEGEN--\":8:17   */\n      dup1\n        /* \"--CODEGEN--\":5:7   */\n      iszero\n      tag_318\n      jumpi\n        /* \"--CODEGEN--\":45:61   */\n      returndatasize\n        /* \"--CODEGEN--\":42:43   */\n      0x0\n        /* \"--CODEGEN--\":39:40   */\n      dup1\n        /* \"--CODEGEN--\":24:62   */\n      returndatacopy\n        /* \"--CODEGEN--\":77:93   */\n      returndatasize\n        /* \"--CODEGEN--\":74:75   */\n      0x0\n        /* \"--CODEGEN--\":67:94   */\n      revert\n        /* \"--CODEGEN--\":5:7   */\n    tag_318:\n        /* \"MLSAGVerify.sol\":2883:2901  ecMath.GetNCurve() */\n      pop\n      pop\n      pop\n      pop\n      mload(0x40)\n      returndatasize\n        /* \"--CODEGEN--\":13:15   */\n      0x20\n        /* \"--CODEGEN--\":8:11   */\n      dup2\n        /* \"--CODEGEN--\":5:16   */\n      lt\n        /* \"--CODEGEN--\":2:4   */\n      iszero\n      tag_319\n      jumpi\n        /* \"--CODEGEN--\":29:30   */\n      0x0\n        /* \"--CODEGEN--\":26:27   */\n      dup1\n        /* \"--CODEGEN--\":19:31   */\n      revert\n        /* \"--CODEGEN--\":2:4   */\n    tag_319:\n        /* \"MLSAGVerify.sol\":2883:2901  ecMath.GetNCurve() */\n      dup2\n      add\n      swap1\n      dup1\n      dup1\n      mload\n      swap1\n      0x20\n      add\n      swap1\n      swap3\n      swap2\n      swap1\n      pop\n      pop\n      pop\n        /* \"MLSAGVerify.sol\":2833:2840  msgHash */\n      dup5\n        /* \"MLSAGVerify.sol\":2842:2846  left */\n      dup5\n        /* \"MLSAGVerify.sol\":2847:2848  0 */\n      0x0\n        /* \"MLSAGVerify.sol\":2842:2849  left[0] */\n      0x2\n      dup2\n      lt\n      iszero\n      iszero\n      tag_320\n      jumpi\n      invalid\n    tag_320:\n      0x20\n      mul\n      add\n      mload\n        /* \"MLSAGVerify.sol\":2851:2855  left */\n      dup6\n        /* \"MLSAGVerify.sol\":2856:2857  1 */\n      0x1\n        /* \"MLSAGVerify.sol\":2851:2858  left[1] */\n      0x2\n      dup2\n      lt\n      iszero\n      iszero\n      tag_321\n      jumpi\n      invalid\n    tag_321:\n      0x20\n      mul\n      add\n      mload\n        /* \"MLSAGVerify.sol\":2860:2865  right */\n      dup6\n        /* \"MLSAGVerify.sol\":2866:2867  0 */\n      0x0\n        /* \"MLSAGVerify.sol\":2860:2868  right[0] */\n      0x2\n      dup2\n      lt\n      iszero\n      iszero\n      tag_322\n      jumpi\n      invalid\n    tag_322:\n      0x20\n      mul\n      add\n      mload\n        /* \"MLSAGVerify.sol\":2870:2875  right */\n      dup7\n        /* \"MLSAGVerify.sol\":2876:2877  1 */\n      0x1\n        /* \"MLSAGVerify.sol\":2870:2878  right[1] */\n      0x2\n      dup2\n      lt\n      iszero\n      iszero\n      tag_323\n      jumpi\n      invalid\n    tag_323:\n      0x20\n      mul\n      add\n      mload\n        /* \"MLSAGVerify.sol\":2823:2879  keccak256(msgHash, left[0], left[1], right[0], right[1]) */\n      mload(0x40)\n      dup1\n      dup7\n      dup2\n      mstore\n      0x20\n      add\n      dup6\n      dup2\n      mstore\n      0x20\n      add\n      dup5\n      dup2\n      mstore\n      0x20\n      add\n      dup4\n      dup2\n      mstore\n      0x20\n      add\n      dup3\n      dup2\n      mstore\n      0x20\n      add\n      swap6\n      pop\n      pop\n      pop\n      pop\n      pop\n      pop\n      mload(0x40)\n      dup1\n      swap2\n      sub\n      swap1\n      keccak256\n        /* \"MLSAGVerify.sol\":2815:2880  uint256(keccak256(msgHash, left[0], left[1], right[0], right[1])) */\n      0x1\n      swap1\n      div\n        /* \"MLSAGVerify.sol\":2815:2901  uint256(keccak256(msgHash, left[0], left[1], right[0], right[1])) % ecMath.GetNCurve() */\n      dup2\n      iszero\n      iszero\n      tag_324\n      jumpi\n      invalid\n    tag_324:\n      mod\n        /* \"MLSAGVerify.sol\":2808:2901  return uint256(keccak256(msgHash, left[0], left[1], right[0], right[1])) % ecMath.GetNCurve() */\n      swap1\n      pop\n        /* \"MLSAGVerify.sol\":2665:2909  function LinkableRingHashFunction(uint256 msgHash, uint256[2] left, uint256[2] right)\r... */\n      swap4\n      swap3\n      pop\n      pop\n      pop\n      jump\t// out\n        /* \"MLSAGVerify.sol\":1073:1274  function RingHashFunction(uint256 msgHash, uint256[2] point)\r... */\n    tag_75:\n        /* \"MLSAGVerify.sol\":1164:1173  uint256 h */\n      0x0\n        /* \"MLSAGVerify.sol\":1248:1254  ecMath */\n      0x1\n      0x0\n      swap1\n      sload\n      swap1\n      0x100\n      exp\n      swap1\n      div\n      0xffffffffffffffffffffffffffffffffffffffff\n      and\n        /* \"MLSAGVerify.sol\":1248:1264  ecMath.GetNCurve */\n      0xffffffffffffffffffffffffffffffffffffffff\n      and\n      0xd1ff535b\n        /* \"MLSAGVerify.sol\":1248:1266  ecMath.GetNCurve() */\n      mload(0x40)\n      dup2\n      0xffffffff\n      and\n      0x100000000000000000000000000000000000000000000000000000000\n      mul\n      dup2\n      mstore\n      0x4\n      add\n      0x20\n      mload(0x40)\n      dup1\n      dup4\n      sub\n      dup2\n      0x0\n      dup8\n      dup1\n      extcodesize\n      iszero\n        /* \"--CODEGEN--\":8:17   */\n      dup1\n        /* \"--CODEGEN--\":5:7   */\n      iszero\n      tag_326\n      jumpi\n        /* \"--CODEGEN--\":30:31   */\n      0x0\n        /* \"--CODEGEN--\":27:28   */\n      dup1\n        /* \"--CODEGEN--\":20:32   */\n      revert\n        /* \"--CODEGEN--\":5:7   */\n    tag_326:\n        /* \"MLSAGVerify.sol\":1248:1266  ecMath.GetNCurve() */\n      pop\n      gas\n      call\n      iszero\n        /* \"--CODEGEN--\":8:17   */\n      dup1\n        /* \"--CODEGEN--\":5:7   */\n      iszero\n      tag_327\n      jumpi\n        /* \"--CODEGEN--\":45:61   */\n      returndatasize\n        /* \"--CODEGEN--\":42:43   */\n      0x0\n        /* \"--CODEGEN--\":39:40   */\n      dup1\n        /* \"--CODEGEN--\":24:62   */\n      returndatacopy\n        /* \"--CODEGEN--\":77:93   */\n      returndatasize\n        /* \"--CODEGEN--\":74:75   */\n      0x0\n        /* \"--CODEGEN--\":67:94   */\n      revert\n        /* \"--CODEGEN--\":5:7   */\n    tag_327:\n        /* \"MLSAGVerify.sol\":1248:1266  ecMath.GetNCurve() */\n      pop\n      pop\n      pop\n      pop\n      mload(0x40)\n      returndatasize\n        /* \"--CODEGEN--\":13:15   */\n      0x20\n        /* \"--CODEGEN--\":8:11   */\n      dup2\n        /* \"--CODEGEN--\":5:16   */\n      lt\n        /* \"--CODEGEN--\":2:4   */\n      iszero\n      tag_328\n      jumpi\n        /* \"--CODEGEN--\":29:30   */\n      0x0\n        /* \"--CODEGEN--\":26:27   */\n      dup1\n        /* \"--CODEGEN--\":19:31   */\n      revert\n        /* \"--CODEGEN--\":2:4   */\n    tag_328:\n        /* \"MLSAGVerify.sol\":1248:1266  ecMath.GetNCurve() */\n      dup2\n      add\n      swap1\n      dup1\n      dup1\n      mload\n      swap1\n      0x20\n      add\n      swap1\n      swap3\n      swap2\n      swap1\n      pop\n      pop\n      pop\n        /* \"MLSAGVerify.sol\":1216:1223  msgHash */\n      dup4\n        /* \"MLSAGVerify.sol\":1225:1230  point */\n      dup4\n        /* \"MLSAGVerify.sol\":1231:1232  0 */\n      0x0\n        /* \"MLSAGVerify.sol\":1225:1233  point[0] */\n      0x2\n      dup2\n      lt\n      iszero\n      iszero\n      tag_329\n      jumpi\n      invalid\n    tag_329:\n      0x20\n      mul\n      add\n      mload\n        /* \"MLSAGVerify.sol\":1235:1240  point */\n      dup5\n        /* \"MLSAGVerify.sol\":1241:1242  1 */\n      0x1\n        /* \"MLSAGVerify.sol\":1235:1243  point[1] */\n      0x2\n      dup2\n      lt\n      iszero\n      iszero\n      tag_330\n      jumpi\n      invalid\n    tag_330:\n      0x20\n      mul\n      add\n      mload\n        /* \"MLSAGVerify.sol\":1206:1244  keccak256(msgHash, point[0], point[1]) */\n      mload(0x40)\n      dup1\n      dup5\n      dup2\n      mstore\n      0x20\n      add\n      dup4\n      dup2\n      mstore\n      0x20\n      add\n      dup3\n      dup2\n      mstore\n      0x20\n      add\n      swap4\n      pop\n      pop\n      pop\n      pop\n      mload(0x40)\n      dup1\n      swap2\n      sub\n      swap1\n      keccak256\n        /* \"MLSAGVerify.sol\":1198:1245  uint256(keccak256(msgHash, point[0], point[1])) */\n      0x1\n      swap1\n      div\n        /* \"MLSAGVerify.sol\":1198:1266  uint256(keccak256(msgHash, point[0], point[1])) % ecMath.GetNCurve() */\n      dup2\n      iszero\n      iszero\n      tag_331\n      jumpi\n      invalid\n    tag_331:\n      mod\n        /* \"MLSAGVerify.sol\":1191:1266  return uint256(keccak256(msgHash, point[0], point[1])) % ecMath.GetNCurve() */\n      swap1\n      pop\n        /* \"MLSAGVerify.sol\":1073:1274  function RingHashFunction(uint256 msgHash, uint256[2] point)\r... */\n      swap3\n      swap2\n      pop\n      pop\n      jump\t// out\n        /* \"MLSAGVerify.sol\":3877:4393  function CalculateLinkableRingSegment_NoHash(uint256 ck, uint256 sk, uint256[2] P, uint256[2] I)\r... */\n    tag_78:\n        /* \"MLSAGVerify.sol\":4008:4023  uint256[2] Lout */\n      tag_332\n      jump\t// in(tag_128)\n    tag_332:\n        /* \"MLSAGVerify.sol\":4025:4040  uint256[2] Rout */\n      tag_333\n      jump\t// in(tag_128)\n    tag_333:\n        /* \"MLSAGVerify.sol\":4058:4080  uint256[2] memory temp */\n      tag_334\n      jump\t// in(tag_128)\n    tag_334:\n        /* \"MLSAGVerify.sol\":4098:4104  ecMath */\n      0x1\n      0x0\n      swap1\n      sload\n      swap1\n      0x100\n      exp\n      swap1\n      div\n      0xffffffffffffffffffffffffffffffffffffffff\n      and\n        /* \"MLSAGVerify.sol\":4098:4113  ecMath.Multiply */\n      0xffffffffffffffffffffffffffffffffffffffff\n      and\n      0xc025d89b\n        /* \"MLSAGVerify.sol\":4114:4120  ecMath */\n      0x1\n      0x0\n      swap1\n      sload\n      swap1\n      0x100\n      exp\n      swap1\n      div\n      0xffffffffffffffffffffffffffffffffffffffff\n      and\n        /* \"MLSAGVerify.sol\":4114:4126  ecMath.GetG1 */\n      0xffffffffffffffffffffffffffffffffffffffff\n      and\n      0xae5d39f6\n        /* \"MLSAGVerify.sol\":4114:4128  ecMath.GetG1() */\n      mload(0x40)\n      dup2\n      0xffffffff\n      and\n      0x100000000000000000000000000000000000000000000000000000000\n      mul\n      dup2\n      mstore\n      0x4\n      add\n      0x40\n      dup1\n      mload\n      dup1\n      dup4\n      sub\n      dup2\n      0x0\n      dup8\n      dup1\n      extcodesize\n      iszero\n        /* \"--CODEGEN--\":8:17   */\n      dup1\n        /* \"--CODEGEN--\":5:7   */\n      iszero\n      tag_336\n      jumpi\n        /* \"--CODEGEN--\":30:31   */\n      0x0\n        /* \"--CODEGEN--\":27:28   */\n      dup1\n        /* \"--CODEGEN--\":20:32   */\n      revert\n        /* \"--CODEGEN--\":5:7   */\n    tag_336:\n        /* \"MLSAGVerify.sol\":4114:4128  ecMath.GetG1() */\n      pop\n      gas\n      call\n      iszero\n        /* \"--CODEGEN--\":8:17   */\n      dup1\n        /* \"--CODEGEN--\":5:7   */\n      iszero\n      tag_337\n      jumpi\n        /* \"--CODEGEN--\":45:61   */\n      returndatasize\n        /* \"--CODEGEN--\":42:43   */\n      0x0\n        /* \"--CODEGEN--\":39:40   */\n      dup1\n        /* \"--CODEGEN--\":24:62   */\n      returndatacopy\n        /* \"--CODEGEN--\":77:93   */\n      returndatasize\n        /* \"--CODEGEN--\":74:75   */\n      0x0\n        /* \"--CODEGEN--\":67:94   */\n      revert\n        /* \"--CODEGEN--\":5:7   */\n    tag_337:\n        /* \"MLSAGVerify.sol\":4114:4128  ecMath.GetG1() */\n      pop\n      pop\n      pop\n      pop\n      mload(0x40)\n      returndatasize\n        /* \"--CODEGEN--\":101:105   */\n      0x1f\n        /* \"--CODEGEN--\":97:106   */\n      not\n        /* \"--CODEGEN--\":90:94   */\n      0x1f\n        /* \"--CODEGEN--\":84:88   */\n      dup3\n        /* \"--CODEGEN--\":80:95   */\n      add\n        /* \"--CODEGEN--\":76:107   */\n      and\n        /* \"--CODEGEN--\":69:74   */\n      dup3\n        /* \"--CODEGEN--\":65:108   */\n      add\n        /* \"--CODEGEN--\":126:132   */\n      dup1\n        /* \"--CODEGEN--\":120:124   */\n      0x40\n        /* \"--CODEGEN--\":113:133   */\n      mstore\n        /* \"--CODEGEN--\":0:138   */\n      pop\n        /* \"--CODEGEN--\":13:15   */\n      0x40\n        /* \"--CODEGEN--\":8:11   */\n      dup2\n        /* \"--CODEGEN--\":5:16   */\n      lt\n        /* \"--CODEGEN--\":2:4   */\n      iszero\n      tag_338\n      jumpi\n        /* \"--CODEGEN--\":29:30   */\n      0x0\n        /* \"--CODEGEN--\":26:27   */\n      dup1\n        /* \"--CODEGEN--\":19:31   */\n      revert\n        /* \"--CODEGEN--\":2:4   */\n    tag_338:\n        /* \"MLSAGVerify.sol\":4114:4128  ecMath.GetG1() */\n      dup2\n      add\n      swap1\n      dup1\n      swap2\n      swap1\n      pop\n      pop\n        /* \"MLSAGVerify.sol\":4130:4132  sk */\n      dup9\n        /* \"MLSAGVerify.sol\":4098:4133  ecMath.Multiply(ecMath.GetG1(), sk) */\n      mload(0x40)\n      dup4\n      0xffffffff\n      and\n      0x100000000000000000000000000000000000000000000000000000000\n      mul\n      dup2\n      mstore\n      0x4\n      add\n      dup1\n      dup4\n      mul(0x20, 0x2)\n      dup1\n      dup4\n      dup4\n        /* \"--CODEGEN--\":23:24   */\n      0x0\n        /* \"--CODEGEN--\":8:108   */\n    tag_339:\n        /* \"--CODEGEN--\":33:36   */\n      dup4\n        /* \"--CODEGEN--\":30:31   */\n      dup2\n        /* \"--CODEGEN--\":27:37   */\n      lt\n        /* \"--CODEGEN--\":8:108   */\n      iszero\n      tag_340\n      jumpi\n        /* \"--CODEGEN--\":99:100   */\n      dup1\n        /* \"--CODEGEN--\":94:97   */\n      dup3\n        /* \"--CODEGEN--\":90:101   */\n      add\n        /* \"--CODEGEN--\":84:102   */\n      mload\n        /* \"--CODEGEN--\":80:81   */\n      dup2\n        /* \"--CODEGEN--\":75:78   */\n      dup5\n        /* \"--CODEGEN--\":71:82   */\n      add\n        /* \"--CODEGEN--\":64:103   */\n      mstore\n        /* \"--CODEGEN--\":52:54   */\n      0x20\n        /* \"--CODEGEN--\":49:50   */\n      dup2\n        /* \"--CODEGEN--\":45:55   */\n      add\n        /* \"--CODEGEN--\":40:55   */\n      swap1\n      pop\n        /* \"--CODEGEN--\":8:108   */\n      jump(tag_339)\n    tag_340:\n        /* \"--CODEGEN--\":12:26   */\n      pop\n        /* \"MLSAGVerify.sol\":4098:4133  ecMath.Multiply(ecMath.GetG1(), sk) */\n      pop\n      pop\n      pop\n      swap1\n      pop\n      add\n      dup3\n      dup2\n      mstore\n      0x20\n      add\n      swap3\n      pop\n      pop\n      pop\n      0x40\n      dup1\n      mload\n      dup1\n      dup4\n      sub\n      dup2\n      0x0\n      dup8\n      dup1\n      extcodesize\n      iszero\n        /* \"--CODEGEN--\":8:17   */\n      dup1\n        /* \"--CODEGEN--\":5:7   */\n      iszero\n      tag_342\n      jumpi\n        /* \"--CODEGEN--\":30:31   */\n      0x0\n        /* \"--CODEGEN--\":27:28   */\n      dup1\n        /* \"--CODEGEN--\":20:32   */\n      revert\n        /* \"--CODEGEN--\":5:7   */\n    tag_342:\n        /* \"MLSAGVerify.sol\":4098:4133  ecMath.Multiply(ecMath.GetG1(), sk) */\n      pop\n      gas\n      call\n      iszero\n        /* \"--CODEGEN--\":8:17   */\n      dup1\n        /* \"--CODEGEN--\":5:7   */\n      iszero\n      tag_343\n      jumpi\n        /* \"--CODEGEN--\":45:61   */\n      returndatasize\n        /* \"--CODEGEN--\":42:43   */\n      0x0\n        /* \"--CODEGEN--\":39:40   */\n      dup1\n        /* \"--CODEGEN--\":24:62   */\n      returndatacopy\n        /* \"--CODEGEN--\":77:93   */\n      returndatasize\n        /* \"--CODEGEN--\":74:75   */\n      0x0\n        /* \"--CODEGEN--\":67:94   */\n      revert\n        /* \"--CODEGEN--\":5:7   */\n    tag_343:\n        /* \"MLSAGVerify.sol\":4098:4133  ecMath.Multiply(ecMath.GetG1(), sk) */\n      pop\n      pop\n      pop\n      pop\n      mload(0x40)\n      returndatasize\n        /* \"--CODEGEN--\":101:105   */\n      0x1f\n        /* \"--CODEGEN--\":97:106   */\n      not\n        /* \"--CODEGEN--\":90:94   */\n      0x1f\n        /* \"--CODEGEN--\":84:88   */\n      dup3\n        /* \"--CODEGEN--\":80:95   */\n      add\n        /* \"--CODEGEN--\":76:107   */\n      and\n        /* \"--CODEGEN--\":69:74   */\n      dup3\n        /* \"--CODEGEN--\":65:108   */\n      add\n        /* \"--CODEGEN--\":126:132   */\n      dup1\n        /* \"--CODEGEN--\":120:124   */\n      0x40\n        /* \"--CODEGEN--\":113:133   */\n      mstore\n        /* \"--CODEGEN--\":0:138   */\n      pop\n        /* \"--CODEGEN--\":13:15   */\n      0x40\n        /* \"--CODEGEN--\":8:11   */\n      dup2\n        /* \"--CODEGEN--\":5:16   */\n      lt\n        /* \"--CODEGEN--\":2:4   */\n      iszero\n      tag_344\n      jumpi\n        /* \"--CODEGEN--\":29:30   */\n      0x0\n        /* \"--CODEGEN--\":26:27   */\n      dup1\n        /* \"--CODEGEN--\":19:31   */\n      revert\n        /* \"--CODEGEN--\":2:4   */\n    tag_344:\n        /* \"MLSAGVerify.sol\":4098:4133  ecMath.Multiply(ecMath.GetG1(), sk) */\n      dup2\n      add\n      swap1\n      dup1\n      swap2\n      swap1\n      pop\n      pop\n        /* \"MLSAGVerify.sol\":4091:4133  Lout = ecMath.Multiply(ecMath.GetG1(), sk) */\n      swap3\n      pop\n        /* \"MLSAGVerify.sol\":4151:4157  ecMath */\n      0x1\n      0x0\n      swap1\n      sload\n      swap1\n      0x100\n      exp\n      swap1\n      div\n      0xffffffffffffffffffffffffffffffffffffffff\n      and\n        /* \"MLSAGVerify.sol\":4151:4166  ecMath.Multiply */\n      0xffffffffffffffffffffffffffffffffffffffff\n      and\n      0xc025d89b\n        /* \"MLSAGVerify.sol\":4167:4168  P */\n      dup7\n        /* \"MLSAGVerify.sol\":4170:4172  ck */\n      dup10\n        /* \"MLSAGVerify.sol\":4151:4173  ecMath.Multiply(P, ck) */\n      mload(0x40)\n      dup4\n      0xffffffff\n      and\n      0x100000000000000000000000000000000000000000000000000000000\n      mul\n      dup2\n      mstore\n      0x4\n      add\n      dup1\n      dup4\n      mul(0x20, 0x2)\n      dup1\n      dup4\n      dup4\n        /* \"--CODEGEN--\":23:24   */\n      0x0\n        /* \"--CODEGEN--\":8:108   */\n    tag_345:\n        /* \"--CODEGEN--\":33:36   */\n      dup4\n        /* \"--CODEGEN--\":30:31   */\n      dup2\n        /* \"--CODEGEN--\":27:37   */\n      lt\n        /* \"--CODEGEN--\":8:108   */\n      iszero\n      tag_346\n      jumpi\n        /* \"--CODEGEN--\":99:100   */\n      dup1\n        /* \"--CODEGEN--\":94:97   */\n      dup3\n        /* \"--CODEGEN--\":90:101   */\n      add\n        /* \"--CODEGEN--\":84:102   */\n      mload\n        /* \"--CODEGEN--\":80:81   */\n      dup2\n        /* \"--CODEGEN--\":75:78   */\n      dup5\n        /* \"--CODEGEN--\":71:82   */\n      add\n        /* \"--CODEGEN--\":64:103   */\n      mstore\n        /* \"--CODEGEN--\":52:54   */\n      0x20\n        /* \"--CODEGEN--\":49:50   */\n      dup2\n        /* \"--CODEGEN--\":45:55   */\n      add\n        /* \"--CODEGEN--\":40:55   */\n      swap1\n      pop\n        /* \"--CODEGEN--\":8:108   */\n      jump(tag_345)\n    tag_346:\n        /* \"--CODEGEN--\":12:26   */\n      pop\n        /* \"MLSAGVerify.sol\":4151:4173  ecMath.Multiply(P, ck) */\n      pop\n      pop\n      pop\n      swap1\n      pop\n      add\n      dup3\n      dup2\n      mstore\n      0x20\n      add\n      swap3\n      pop\n      pop\n      pop\n      0x40\n      dup1\n      mload\n      dup1\n      dup4\n      sub\n      dup2\n      0x0\n      dup8\n      dup1\n      extcodesize\n      iszero\n        /* \"--CODEGEN--\":8:17   */\n      dup1\n        /* \"--CODEGEN--\":5:7   */\n      iszero\n      tag_348\n      jumpi\n        /* \"--CODEGEN--\":30:31   */\n      0x0\n        /* \"--CODEGEN--\":27:28   */\n      dup1\n        /* \"--CODEGEN--\":20:32   */\n      revert\n        /* \"--CODEGEN--\":5:7   */\n    tag_348:\n        /* \"MLSAGVerify.sol\":4151:4173  ecMath.Multiply(P, ck) */\n      pop\n      gas\n      call\n      iszero\n        /* \"--CODEGEN--\":8:17   */\n      dup1\n        /* \"--CODEGEN--\":5:7   */\n      iszero\n      tag_349\n      jumpi\n        /* \"--CODEGEN--\":45:61   */\n      returndatasize\n        /* \"--CODEGEN--\":42:43   */\n      0x0\n        /* \"--CODEGEN--\":39:40   */\n      dup1\n        /* \"--CODEGEN--\":24:62   */\n      returndatacopy\n        /* \"--CODEGEN--\":77:93   */\n      returndatasize\n        /* \"--CODEGEN--\":74:75   */\n      0x0\n        /* \"--CODEGEN--\":67:94   */\n      revert\n        /* \"--CODEGEN--\":5:7   */\n    tag_349:\n        /* \"MLSAGVerify.sol\":4151:4173  ecMath.Multiply(P, ck) */\n      pop\n      pop\n      pop\n      pop\n      mload(0x40)\n      returndatasize\n        /* \"--CODEGEN--\":101:105   */\n      0x1f\n        /* \"--CODEGEN--\":97:106   */\n      not\n        /* \"--CODEGEN--\":90:94   */\n      0x1f\n        /* \"--CODEGEN--\":84:88   */\n      dup3\n        /* \"--CODEGEN--\":80:95   */\n      add\n        /* \"--CODEGEN--\":76:107   */\n      and\n        /* \"--CODEGEN--\":69:74   */\n      dup3\n        /* \"--CODEGEN--\":65:108   */\n      add\n        /* \"--CODEGEN--\":126:132   */\n      dup1\n        /* \"--CODEGEN--\":120:124   */\n      0x40\n        /* \"--CODEGEN--\":113:133   */\n      mstore\n        /* \"--CODEGEN--\":0:138   */\n      pop\n        /* \"--CODEGEN--\":13:15   */\n      0x40\n        /* \"--CODEGEN--\":8:11   */\n      dup2\n        /* \"--CODEGEN--\":5:16   */\n      lt\n        /* \"--CODEGEN--\":2:4   */\n      iszero\n      tag_350\n      jumpi\n        /* \"--CODEGEN--\":29:30   */\n      0x0\n        /* \"--CODEGEN--\":26:27   */\n      dup1\n        /* \"--CODEGEN--\":19:31   */\n      revert\n        /* \"--CODEGEN--\":2:4   */\n    tag_350:\n        /* \"MLSAGVerify.sol\":4151:4173  ecMath.Multiply(P, ck) */\n      dup2\n      add\n      swap1\n      dup1\n      swap2\n      swap1\n      pop\n      pop\n        /* \"MLSAGVerify.sol\":4144:4173  temp = ecMath.Multiply(P, ck) */\n      swap1\n      pop\n        /* \"MLSAGVerify.sol\":4191:4197  ecMath */\n      0x1\n      0x0\n      swap1\n      sload\n      swap1\n      0x100\n      exp\n      swap1\n      div\n      0xffffffffffffffffffffffffffffffffffffffff\n      and\n        /* \"MLSAGVerify.sol\":4191:4201  ecMath.Add */\n      0xffffffffffffffffffffffffffffffffffffffff\n      and\n      0xc753fe8\n        /* \"MLSAGVerify.sol\":4202:4206  Lout */\n      dup5\n        /* \"MLSAGVerify.sol\":4208:4212  temp */\n      dup4\n        /* \"MLSAGVerify.sol\":4191:4213  ecMath.Add(Lout, temp) */\n      mload(0x40)\n      dup4\n      0xffffffff\n      and\n      0x100000000000000000000000000000000000000000000000000000000\n      mul\n      dup2\n      mstore\n      0x4\n      add\n      dup1\n      dup4\n      mul(0x20, 0x2)\n      dup1\n      dup4\n      dup4\n        /* \"--CODEGEN--\":23:24   */\n      0x0\n        /* \"--CODEGEN--\":8:108   */\n    tag_351:\n        /* \"--CODEGEN--\":33:36   */\n      dup4\n        /* \"--CODEGEN--\":30:31   */\n      dup2\n        /* \"--CODEGEN--\":27:37   */\n      lt\n        /* \"--CODEGEN--\":8:108   */\n      iszero\n      tag_352\n      jumpi\n        /* \"--CODEGEN--\":99:100   */\n      dup1\n        /* \"--CODEGEN--\":94:97   */\n      dup3\n        /* \"--CODEGEN--\":90:101   */\n      add\n        /* \"--CODEGEN--\":84:102   */\n      mload\n        /* \"--CODEGEN--\":80:81   */\n      dup2\n        /* \"--CODEGEN--\":75:78   */\n      dup5\n        /* \"--CODEGEN--\":71:82   */\n      add\n        /* \"--CODEGEN--\":64:103   */\n      mstore\n        /* \"--CODEGEN--\":52:54   */\n      0x20\n        /* \"--CODEGEN--\":49:50   */\n      dup2\n        /* \"--CODEGEN--\":45:55   */\n      add\n        /* \"--CODEGEN--\":40:55   */\n      swap1\n      pop\n        /* \"--CODEGEN--\":8:108   */\n      jump(tag_351)\n    tag_352:\n        /* \"--CODEGEN--\":12:26   */\n      pop\n        /* \"MLSAGVerify.sol\":4191:4213  ecMath.Add(Lout, temp) */\n      pop\n      pop\n      pop\n      swap1\n      pop\n      add\n      dup3\n      mul(0x20, 0x2)\n      dup1\n      dup4\n      dup4\n        /* \"--CODEGEN--\":23:24   */\n      0x0\n        /* \"--CODEGEN--\":8:108   */\n    tag_354:\n        /* \"--CODEGEN--\":33:36   */\n      dup4\n        /* \"--CODEGEN--\":30:31   */\n      dup2\n        /* \"--CODEGEN--\":27:37   */\n      lt\n        /* \"--CODEGEN--\":8:108   */\n      iszero\n      tag_355\n      jumpi\n        /* \"--CODEGEN--\":99:100   */\n      dup1\n        /* \"--CODEGEN--\":94:97   */\n      dup3\n        /* \"--CODEGEN--\":90:101   */\n      add\n        /* \"--CODEGEN--\":84:102   */\n      mload\n        /* \"--CODEGEN--\":80:81   */\n      dup2\n        /* \"--CODEGEN--\":75:78   */\n      dup5\n        /* \"--CODEGEN--\":71:82   */\n      add\n        /* \"--CODEGEN--\":64:103   */\n      mstore\n        /* \"--CODEGEN--\":52:54   */\n      0x20\n        /* \"--CODEGEN--\":49:50   */\n      dup2\n        /* \"--CODEGEN--\":45:55   */\n      add\n        /* \"--CODEGEN--\":40:55   */\n      swap1\n      pop\n        /* \"--CODEGEN--\":8:108   */\n      jump(tag_354)\n    tag_355:\n        /* \"--CODEGEN--\":12:26   */\n      pop\n        /* \"MLSAGVerify.sol\":4191:4213  ecMath.Add(Lout, temp) */\n      pop\n      pop\n      pop\n      swap1\n      pop\n      add\n      swap3\n      pop\n      pop\n      pop\n      0x40\n      dup1\n      mload\n      dup1\n      dup4\n      sub\n      dup2\n      0x0\n      dup8\n      dup1\n      extcodesize\n      iszero\n        /* \"--CODEGEN--\":8:17   */\n      dup1\n        /* \"--CODEGEN--\":5:7   */\n      iszero\n      tag_357\n      jumpi\n        /* \"--CODEGEN--\":30:31   */\n      0x0\n        /* \"--CODEGEN--\":27:28   */\n      dup1\n        /* \"--CODEGEN--\":20:32   */\n      revert\n        /* \"--CODEGEN--\":5:7   */\n    tag_357:\n        /* \"MLSAGVerify.sol\":4191:4213  ecMath.Add(Lout, temp) */\n      pop\n      gas\n      call\n      iszero\n        /* \"--CODEGEN--\":8:17   */\n      dup1\n        /* \"--CODEGEN--\":5:7   */\n      iszero\n      tag_358\n      jumpi\n        /* \"--CODEGEN--\":45:61   */\n      returndatasize\n        /* \"--CODEGEN--\":42:43   */\n      0x0\n        /* \"--CODEGEN--\":39:40   */\n      dup1\n        /* \"--CODEGEN--\":24:62   */\n      returndatacopy\n        /* \"--CODEGEN--\":77:93   */\n      returndatasize\n        /* \"--CODEGEN--\":74:75   */\n      0x0\n        /* \"--CODEGEN--\":67:94   */\n      revert\n        /* \"--CODEGEN--\":5:7   */\n    tag_358:\n        /* \"MLSAGVerify.sol\":4191:4213  ecMath.Add(Lout, temp) */\n      pop\n      pop\n      pop\n      pop\n      mload(0x40)\n      returndatasize\n        /* \"--CODEGEN--\":101:105   */\n      0x1f\n        /* \"--CODEGEN--\":97:106   */\n      not\n        /* \"--CODEGEN--\":90:94   */\n      0x1f\n        /* \"--CODEGEN--\":84:88   */\n      dup3\n        /* \"--CODEGEN--\":80:95   */\n      add\n        /* \"--CODEGEN--\":76:107   */\n      and\n        /* \"--CODEGEN--\":69:74   */\n      dup3\n        /* \"--CODEGEN--\":65:108   */\n      add\n        /* \"--CODEGEN--\":126:132   */\n      dup1\n        /* \"--CODEGEN--\":120:124   */\n      0x40\n        /* \"--CODEGEN--\":113:133   */\n      mstore\n        /* \"--CODEGEN--\":0:138   */\n      pop\n        /* \"--CODEGEN--\":13:15   */\n      0x40\n        /* \"--CODEGEN--\":8:11   */\n      dup2\n        /* \"--CODEGEN--\":5:16   */\n      lt\n        /* \"--CODEGEN--\":2:4   */\n      iszero\n      tag_359\n      jumpi\n        /* \"--CODEGEN--\":29:30   */\n      0x0\n        /* \"--CODEGEN--\":26:27   */\n      dup1\n        /* \"--CODEGEN--\":19:31   */\n      revert\n        /* \"--CODEGEN--\":2:4   */\n    tag_359:\n        /* \"MLSAGVerify.sol\":4191:4213  ecMath.Add(Lout, temp) */\n      dup2\n      add\n      swap1\n      dup1\n      swap2\n      swap1\n      pop\n      pop\n        /* \"MLSAGVerify.sol\":4184:4213  Lout = ecMath.Add(Lout, temp) */\n      swap3\n      pop\n        /* \"MLSAGVerify.sol\":4241:4247  ecMath */\n      0x1\n      0x0\n      swap1\n      sload\n      swap1\n      0x100\n      exp\n      swap1\n      div\n      0xffffffffffffffffffffffffffffffffffffffff\n      and\n        /* \"MLSAGVerify.sol\":4241:4259  ecMath.HashToPoint */\n      0xffffffffffffffffffffffffffffffffffffffff\n      and\n      0x6032fc3f\n        /* \"MLSAGVerify.sol\":4260:4261  P */\n      dup7\n        /* \"MLSAGVerify.sol\":4241:4262  ecMath.HashToPoint(P) */\n      mload(0x40)\n      dup3\n      0xffffffff\n      and\n      0x100000000000000000000000000000000000000000000000000000000\n      mul\n      dup2\n      mstore\n      0x4\n      add\n      dup1\n      dup3\n      mul(0x20, 0x2)\n      dup1\n      dup4\n      dup4\n        /* \"--CODEGEN--\":23:24   */\n      0x0\n        /* \"--CODEGEN--\":8:108   */\n    tag_360:\n        /* \"--CODEGEN--\":33:36   */\n      dup4\n        /* \"--CODEGEN--\":30:31   */\n      dup2\n        /* \"--CODEGEN--\":27:37   */\n      lt\n        /* \"--CODEGEN--\":8:108   */\n      iszero\n      tag_361\n      jumpi\n        /* \"--CODEGEN--\":99:100   */\n      dup1\n        /* \"--CODEGEN--\":94:97   */\n      dup3\n        /* \"--CODEGEN--\":90:101   */\n      add\n        /* \"--CODEGEN--\":84:102   */\n      mload\n        /* \"--CODEGEN--\":80:81   */\n      dup2\n        /* \"--CODEGEN--\":75:78   */\n      dup5\n        /* \"--CODEGEN--\":71:82   */\n      add\n        /* \"--CODEGEN--\":64:103   */\n      mstore\n        /* \"--CODEGEN--\":52:54   */\n      0x20\n        /* \"--CODEGEN--\":49:50   */\n      dup2\n        /* \"--CODEGEN--\":45:55   */\n      add\n        /* \"--CODEGEN--\":40:55   */\n      swap1\n      pop\n        /* \"--CODEGEN--\":8:108   */\n      jump(tag_360)\n    tag_361:\n        /* \"--CODEGEN--\":12:26   */\n      pop\n        /* \"MLSAGVerify.sol\":4241:4262  ecMath.HashToPoint(P) */\n      pop\n      pop\n      pop\n      swap1\n      pop\n      add\n      swap2\n      pop\n      pop\n      0x40\n      dup1\n      mload\n      dup1\n      dup4\n      sub\n      dup2\n      0x0\n      dup8\n      dup1\n      extcodesize\n      iszero\n        /* \"--CODEGEN--\":8:17   */\n      dup1\n        /* \"--CODEGEN--\":5:7   */\n      iszero\n      tag_363\n      jumpi\n        /* \"--CODEGEN--\":30:31   */\n      0x0\n        /* \"--CODEGEN--\":27:28   */\n      dup1\n        /* \"--CODEGEN--\":20:32   */\n      revert\n        /* \"--CODEGEN--\":5:7   */\n    tag_363:\n        /* \"MLSAGVerify.sol\":4241:4262  ecMath.HashToPoint(P) */\n      pop\n      gas\n      call\n      iszero\n        /* \"--CODEGEN--\":8:17   */\n      dup1\n        /* \"--CODEGEN--\":5:7   */\n      iszero\n      tag_364\n      jumpi\n        /* \"--CODEGEN--\":45:61   */\n      returndatasize\n        /* \"--CODEGEN--\":42:43   */\n      0x0\n        /* \"--CODEGEN--\":39:40   */\n      dup1\n        /* \"--CODEGEN--\":24:62   */\n      returndatacopy\n        /* \"--CODEGEN--\":77:93   */\n      returndatasize\n        /* \"--CODEGEN--\":74:75   */\n      0x0\n        /* \"--CODEGEN--\":67:94   */\n      revert\n        /* \"--CODEGEN--\":5:7   */\n    tag_364:\n        /* \"MLSAGVerify.sol\":4241:4262  ecMath.HashToPoint(P) */\n      pop\n      pop\n      pop\n      pop\n      mload(0x40)\n      returndatasize\n        /* \"--CODEGEN--\":101:105   */\n      0x1f\n        /* \"--CODEGEN--\":97:106   */\n      not\n        /* \"--CODEGEN--\":90:94   */\n      0x1f\n        /* \"--CODEGEN--\":84:88   */\n      dup3\n        /* \"--CODEGEN--\":80:95   */\n      add\n        /* \"--CODEGEN--\":76:107   */\n      and\n        /* \"--CODEGEN--\":69:74   */\n      dup3\n        /* \"--CODEGEN--\":65:108   */\n      add\n        /* \"--CODEGEN--\":126:132   */\n      dup1\n        /* \"--CODEGEN--\":120:124   */\n      0x40\n        /* \"--CODEGEN--\":113:133   */\n      mstore\n        /* \"--CODEGEN--\":0:138   */\n      pop\n        /* \"--CODEGEN--\":13:15   */\n      0x40\n        /* \"--CODEGEN--\":8:11   */\n      dup2\n        /* \"--CODEGEN--\":5:16   */\n      lt\n        /* \"--CODEGEN--\":2:4   */\n      iszero\n      tag_365\n      jumpi\n        /* \"--CODEGEN--\":29:30   */\n      0x0\n        /* \"--CODEGEN--\":26:27   */\n      dup1\n        /* \"--CODEGEN--\":19:31   */\n      revert\n        /* \"--CODEGEN--\":2:4   */\n    tag_365:\n        /* \"MLSAGVerify.sol\":4241:4262  ecMath.HashToPoint(P) */\n      dup2\n      add\n      swap1\n      dup1\n      swap2\n      swap1\n      pop\n      pop\n        /* \"MLSAGVerify.sol\":4234:4262  Rout = ecMath.HashToPoint(P) */\n      swap2\n      pop\n        /* \"MLSAGVerify.sol\":4280:4286  ecMath */\n      0x1\n      0x0\n      swap1\n      sload\n      swap1\n      0x100\n      exp\n      swap1\n      div\n      0xffffffffffffffffffffffffffffffffffffffff\n      and\n        /* \"MLSAGVerify.sol\":4280:4295  ecMath.Multiply */\n      0xffffffffffffffffffffffffffffffffffffffff\n      and\n      0xc025d89b\n        /* \"MLSAGVerify.sol\":4296:4300  Rout */\n      dup4\n        /* \"MLSAGVerify.sol\":4302:4304  sk */\n      dup9\n        /* \"MLSAGVerify.sol\":4280:4305  ecMath.Multiply(Rout, sk) */\n      mload(0x40)\n      dup4\n      0xffffffff\n      and\n      0x100000000000000000000000000000000000000000000000000000000\n      mul\n      dup2\n      mstore\n      0x4\n      add\n      dup1\n      dup4\n      mul(0x20, 0x2)\n      dup1\n      dup4\n      dup4\n        /* \"--CODEGEN--\":23:24   */\n      0x0\n        /* \"--CODEGEN--\":8:108   */\n    tag_366:\n        /* \"--CODEGEN--\":33:36   */\n      dup4\n        /* \"--CODEGEN--\":30:31   */\n      dup2\n        /* \"--CODEGEN--\":27:37   */\n      lt\n        /* \"--CODEGEN--\":8:108   */\n      iszero\n      tag_367\n      jumpi\n        /* \"--CODEGEN--\":99:100   */\n      dup1\n        /* \"--CODEGEN--\":94:97   */\n      dup3\n        /* \"--CODEGEN--\":90:101   */\n      add\n        /* \"--CODEGEN--\":84:102   */\n      mload\n        /* \"--CODEGEN--\":80:81   */\n      dup2\n        /* \"--CODEGEN--\":75:78   */\n      dup5\n        /* \"--CODEGEN--\":71:82   */\n      add\n        /* \"--CODEGEN--\":64:103   */\n      mstore\n        /* \"--CODEGEN--\":52:54   */\n      0x20\n        /* \"--CODEGEN--\":49:50   */\n      dup2\n        /* \"--CODEGEN--\":45:55   */\n      add\n        /* \"--CODEGEN--\":40:55   */\n      swap1\n      pop\n        /* \"--CODEGEN--\":8:108   */\n      jump(tag_366)\n    tag_367:\n        /* \"--CODEGEN--\":12:26   */\n      pop\n        /* \"MLSAGVerify.sol\":4280:4305  ecMath.Multiply(Rout, sk) */\n      pop\n      pop\n      pop\n      swap1\n      pop\n      add\n      dup3\n      dup2\n      mstore\n      0x20\n      add\n      swap3\n      pop\n      pop\n      pop\n      0x40\n      dup1\n      mload\n      dup1\n      dup4\n      sub\n      dup2\n      0x0\n      dup8\n      dup1\n      extcodesize\n      iszero\n        /* \"--CODEGEN--\":8:17   */\n      dup1\n        /* \"--CODEGEN--\":5:7   */\n      iszero\n      tag_369\n      jumpi\n        /* \"--CODEGEN--\":30:31   */\n      0x0\n        /* \"--CODEGEN--\":27:28   */\n      dup1\n        /* \"--CODEGEN--\":20:32   */\n      revert\n        /* \"--CODEGEN--\":5:7   */\n    tag_369:\n        /* \"MLSAGVerify.sol\":4280:4305  ecMath.Multiply(Rout, sk) */\n      pop\n      gas\n      call\n      iszero\n        /* \"--CODEGEN--\":8:17   */\n      dup1\n        /* \"--CODEGEN--\":5:7   */\n      iszero\n      tag_370\n      jumpi\n        /* \"--CODEGEN--\":45:61   */\n      returndatasize\n        /* \"--CODEGEN--\":42:43   */\n      0x0\n        /* \"--CODEGEN--\":39:40   */\n      dup1\n        /* \"--CODEGEN--\":24:62   */\n      returndatacopy\n        /* \"--CODEGEN--\":77:93   */\n      returndatasize\n        /* \"--CODEGEN--\":74:75   */\n      0x0\n        /* \"--CODEGEN--\":67:94   */\n      revert\n        /* \"--CODEGEN--\":5:7   */\n    tag_370:\n        /* \"MLSAGVerify.sol\":4280:4305  ecMath.Multiply(Rout, sk) */\n      pop\n      pop\n      pop\n      pop\n      mload(0x40)\n      returndatasize\n        /* \"--CODEGEN--\":101:105   */\n      0x1f\n        /* \"--CODEGEN--\":97:106   */\n      not\n        /* \"--CODEGEN--\":90:94   */\n      0x1f\n        /* \"--CODEGEN--\":84:88   */\n      dup3\n        /* \"--CODEGEN--\":80:95   */\n      add\n        /* \"--CODEGEN--\":76:107   */\n      and\n        /* \"--CODEGEN--\":69:74   */\n      dup3\n        /* \"--CODEGEN--\":65:108   */\n      add\n        /* \"--CODEGEN--\":126:132   */\n      dup1\n        /* \"--CODEGEN--\":120:124   */\n      0x40\n        /* \"--CODEGEN--\":113:133   */\n      mstore\n        /* \"--CODEGEN--\":0:138   */\n      pop\n        /* \"--CODEGEN--\":13:15   */\n      0x40\n        /* \"--CODEGEN--\":8:11   */\n      dup2\n        /* \"--CODEGEN--\":5:16   */\n      lt\n        /* \"--CODEGEN--\":2:4   */\n      iszero\n      tag_371\n      jumpi\n        /* \"--CODEGEN--\":29:30   */\n      0x0\n        /* \"--CODEGEN--\":26:27   */\n      dup1\n        /* \"--CODEGEN--\":19:31   */\n      revert\n        /* \"--CODEGEN--\":2:4   */\n    tag_371:\n        /* \"MLSAGVerify.sol\":4280:4305  ecMath.Multiply(Rout, sk) */\n      dup2\n      add\n      swap1\n      dup1\n      swap2\n      swap1\n      pop\n      pop\n        /* \"MLSAGVerify.sol\":4273:4305  Rout = ecMath.Multiply(Rout, sk) */\n      swap2\n      pop\n        /* \"MLSAGVerify.sol\":4323:4329  ecMath */\n      0x1\n      0x0\n      swap1\n      sload\n      swap1\n      0x100\n      exp\n      swap1\n      div\n      0xffffffffffffffffffffffffffffffffffffffff\n      and\n        /* \"MLSAGVerify.sol\":4323:4338  ecMath.Multiply */\n      0xffffffffffffffffffffffffffffffffffffffff\n      and\n      0xc025d89b\n        /* \"MLSAGVerify.sol\":4339:4340  I */\n      dup6\n        /* \"MLSAGVerify.sol\":4342:4344  ck */\n      dup10\n        /* \"MLSAGVerify.sol\":4323:4345  ecMath.Multiply(I, ck) */\n      mload(0x40)\n      dup4\n      0xffffffff\n      and\n      0x100000000000000000000000000000000000000000000000000000000\n      mul\n      dup2\n      mstore\n      0x4\n      add\n      dup1\n      dup4\n      mul(0x20, 0x2)\n      dup1\n      dup4\n      dup4\n        /* \"--CODEGEN--\":23:24   */\n      0x0\n        /* \"--CODEGEN--\":8:108   */\n    tag_372:\n        /* \"--CODEGEN--\":33:36   */\n      dup4\n        /* \"--CODEGEN--\":30:31   */\n      dup2\n        /* \"--CODEGEN--\":27:37   */\n      lt\n        /* \"--CODEGEN--\":8:108   */\n      iszero\n      tag_373\n      jumpi\n        /* \"--CODEGEN--\":99:100   */\n      dup1\n        /* \"--CODEGEN--\":94:97   */\n      dup3\n        /* \"--CODEGEN--\":90:101   */\n      add\n        /* \"--CODEGEN--\":84:102   */\n      mload\n        /* \"--CODEGEN--\":80:81   */\n      dup2\n        /* \"--CODEGEN--\":75:78   */\n      dup5\n        /* \"--CODEGEN--\":71:82   */\n      add\n        /* \"--CODEGEN--\":64:103   */\n      mstore\n        /* \"--CODEGEN--\":52:54   */\n      0x20\n        /* \"--CODEGEN--\":49:50   */\n      dup2\n        /* \"--CODEGEN--\":45:55   */\n      add\n        /* \"--CODEGEN--\":40:55   */\n      swap1\n      pop\n        /* \"--CODEGEN--\":8:108   */\n      jump(tag_372)\n    tag_373:\n        /* \"--CODEGEN--\":12:26   */\n      pop\n        /* \"MLSAGVerify.sol\":4323:4345  ecMath.Multiply(I, ck) */\n      pop\n      pop\n      pop\n      swap1\n      pop\n      add\n      dup3\n      dup2\n      mstore\n      0x20\n      add\n      swap3\n      pop\n      pop\n      pop\n      0x40\n      dup1\n      mload\n      dup1\n      dup4\n      sub\n      dup2\n      0x0\n      dup8\n      dup1\n      extcodesize\n      iszero\n        /* \"--CODEGEN--\":8:17   */\n      dup1\n        /* \"--CODEGEN--\":5:7   */\n      iszero\n      tag_375\n      jumpi\n        /* \"--CODEGEN--\":30:31   */\n      0x0\n        /* \"--CODEGEN--\":27:28   */\n      dup1\n        /* \"--CODEGEN--\":20:32   */\n      revert\n        /* \"--CODEGEN--\":5:7   */\n    tag_375:\n        /* \"MLSAGVerify.sol\":4323:4345  ecMath.Multiply(I, ck) */\n      pop\n      gas\n      call\n      iszero\n        /* \"--CODEGEN--\":8:17   */\n      dup1\n        /* \"--CODEGEN--\":5:7   */\n      iszero\n      tag_376\n      jumpi\n        /* \"--CODEGEN--\":45:61   */\n      returndatasize\n        /* \"--CODEGEN--\":42:43   */\n      0x0\n        /* \"--CODEGEN--\":39:40   */\n      dup1\n        /* \"--CODEGEN--\":24:62   */\n      returndatacopy\n        /* \"--CODEGEN--\":77:93   */\n      returndatasize\n        /* \"--CODEGEN--\":74:75   */\n      0x0\n        /* \"--CODEGEN--\":67:94   */\n      revert\n        /* \"--CODEGEN--\":5:7   */\n    tag_376:\n        /* \"MLSAGVerify.sol\":4323:4345  ecMath.Multiply(I, ck) */\n      pop\n      pop\n      pop\n      pop\n      mload(0x40)\n      returndatasize\n        /* \"--CODEGEN--\":101:105   */\n      0x1f\n        /* \"--CODEGEN--\":97:106   */\n      not\n        /* \"--CODEGEN--\":90:94   */\n      0x1f\n        /* \"--CODEGEN--\":84:88   */\n      dup3\n        /* \"--CODEGEN--\":80:95   */\n      add\n        /* \"--CODEGEN--\":76:107   */\n      and\n        /* \"--CODEGEN--\":69:74   */\n      dup3\n        /* \"--CODEGEN--\":65:108   */\n      add\n        /* \"--CODEGEN--\":126:132   */\n      dup1\n        /* \"--CODEGEN--\":120:124   */\n      0x40\n        /* \"--CODEGEN--\":113:133   */\n      mstore\n        /* \"--CODEGEN--\":0:138   */\n      pop\n        /* \"--CODEGEN--\":13:15   */\n      0x40\n        /* \"--CODEGEN--\":8:11   */\n      dup2\n        /* \"--CODEGEN--\":5:16   */\n      lt\n        /* \"--CODEGEN--\":2:4   */\n      iszero\n      tag_377\n      jumpi\n        /* \"--CODEGEN--\":29:30   */\n      0x0\n        /* \"--CODEGEN--\":26:27   */\n      dup1\n        /* \"--CODEGEN--\":19:31   */\n      revert\n        /* \"--CODEGEN--\":2:4   */\n    tag_377:\n        /* \"MLSAGVerify.sol\":4323:4345  ecMath.Multiply(I, ck) */\n      dup2\n      add\n      swap1\n      dup1\n      swap2\n      swap1\n      pop\n      pop\n        /* \"MLSAGVerify.sol\":4316:4345  temp = ecMath.Multiply(I, ck) */\n      swap1\n      pop\n        /* \"MLSAGVerify.sol\":4363:4369  ecMath */\n      0x1\n      0x0\n      swap1\n      sload\n      swap1\n      0x100\n      exp\n      swap1\n      div\n      0xffffffffffffffffffffffffffffffffffffffff\n      and\n        /* \"MLSAGVerify.sol\":4363:4373  ecMath.Add */\n      0xffffffffffffffffffffffffffffffffffffffff\n      and\n      0xc753fe8\n        /* \"MLSAGVerify.sol\":4374:4378  Rout */\n      dup4\n        /* \"MLSAGVerify.sol\":4380:4384  temp */\n      dup4\n        /* \"MLSAGVerify.sol\":4363:4385  ecMath.Add(Rout, temp) */\n      mload(0x40)\n      dup4\n      0xffffffff\n      and\n      0x100000000000000000000000000000000000000000000000000000000\n      mul\n      dup2\n      mstore\n      0x4\n      add\n      dup1\n      dup4\n      mul(0x20, 0x2)\n      dup1\n      dup4\n      dup4\n        /* \"--CODEGEN--\":23:24   */\n      0x0\n        /* \"--CODEGEN--\":8:108   */\n    tag_378:\n        /* \"--CODEGEN--\":33:36   */\n      dup4\n        /* \"--CODEGEN--\":30:31   */\n      dup2\n        /* \"--CODEGEN--\":27:37   */\n      lt\n        /* \"--CODEGEN--\":8:108   */\n      iszero\n      tag_379\n      jumpi\n        /* \"--CODEGEN--\":99:100   */\n      dup1\n        /* \"--CODEGEN--\":94:97   */\n      dup3\n        /* \"--CODEGEN--\":90:101   */\n      add\n        /* \"--CODEGEN--\":84:102   */\n      mload\n        /* \"--CODEGEN--\":80:81   */\n      dup2\n        /* \"--CODEGEN--\":75:78   */\n      dup5\n        /* \"--CODEGEN--\":71:82   */\n      add\n        /* \"--CODEGEN--\":64:103   */\n      mstore\n        /* \"--CODEGEN--\":52:54   */\n      0x20\n        /* \"--CODEGEN--\":49:50   */\n      dup2\n        /* \"--CODEGEN--\":45:55   */\n      add\n        /* \"--CODEGEN--\":40:55   */\n      swap1\n      pop\n        /* \"--CODEGEN--\":8:108   */\n      jump(tag_378)\n    tag_379:\n        /* \"--CODEGEN--\":12:26   */\n      pop\n        /* \"MLSAGVerify.sol\":4363:4385  ecMath.Add(Rout, temp) */\n      pop\n      pop\n      pop\n      swap1\n      pop\n      add\n      dup3\n      mul(0x20, 0x2)\n      dup1\n      dup4\n      dup4\n        /* \"--CODEGEN--\":23:24   */\n      0x0\n        /* \"--CODEGEN--\":8:108   */\n    tag_381:\n        /* \"--CODEGEN--\":33:36   */\n      dup4\n        /* \"--CODEGEN--\":30:31   */\n      dup2\n        /* \"--CODEGEN--\":27:37   */\n      lt\n        /* \"--CODEGEN--\":8:108   */\n      iszero\n      tag_382\n      jumpi\n        /* \"--CODEGEN--\":99:100   */\n      dup1\n        /* \"--CODEGEN--\":94:97   */\n      dup3\n        /* \"--CODEGEN--\":90:101   */\n      add\n        /* \"--CODEGEN--\":84:102   */\n      mload\n        /* \"--CODEGEN--\":80:81   */\n      dup2\n        /* \"--CODEGEN--\":75:78   */\n      dup5\n        /* \"--CODEGEN--\":71:82   */\n      add\n        /* \"--CODEGEN--\":64:103   */\n      mstore\n        /* \"--CODEGEN--\":52:54   */\n      0x20\n        /* \"--CODEGEN--\":49:50   */\n      dup2\n        /* \"--CODEGEN--\":45:55   */\n      add\n        /* \"--CODEGEN--\":40:55   */\n      swap1\n      pop\n        /* \"--CODEGEN--\":8:108   */\n      jump(tag_381)\n    tag_382:\n        /* \"--CODEGEN--\":12:26   */\n      pop\n        /* \"MLSAGVerify.sol\":4363:4385  ecMath.Add(Rout, temp) */\n      pop\n      pop\n      pop\n      swap1\n      pop\n      add\n      swap3\n      pop\n      pop\n      pop\n      0x40\n      dup1\n      mload\n      dup1\n      dup4\n      sub\n      dup2\n      0x0\n      dup8\n      dup1\n      extcodesize\n      iszero\n        /* \"--CODEGEN--\":8:17   */\n      dup1\n        /* \"--CODEGEN--\":5:7   */\n      iszero\n      tag_384\n      jumpi\n        /* \"--CODEGEN--\":30:31   */\n      0x0\n        /* \"--CODEGEN--\":27:28   */\n      dup1\n        /* \"--CODEGEN--\":20:32   */\n      revert\n        /* \"--CODEGEN--\":5:7   */\n    tag_384:\n        /* \"MLSAGVerify.sol\":4363:4385  ecMath.Add(Rout, temp) */\n      pop\n      gas\n      call\n      iszero\n        /* \"--CODEGEN--\":8:17   */\n      dup1\n        /* \"--CODEGEN--\":5:7   */\n      iszero\n      tag_385\n      jumpi\n        /* \"--CODEGEN--\":45:61   */\n      returndatasize\n        /* \"--CODEGEN--\":42:43   */\n      0x0\n        /* \"--CODEGEN--\":39:40   */\n      dup1\n        /* \"--CODEGEN--\":24:62   */\n      returndatacopy\n        /* \"--CODEGEN--\":77:93   */\n      returndatasize\n        /* \"--CODEGEN--\":74:75   */\n      0x0\n        /* \"--CODEGEN--\":67:94   */\n      revert\n        /* \"--CODEGEN--\":5:7   */\n    tag_385:\n        /* \"MLSAGVerify.sol\":4363:4385  ecMath.Add(Rout, temp) */\n      pop\n      pop\n      pop\n      pop\n      mload(0x40)\n      returndatasize\n        /* \"--CODEGEN--\":101:105   */\n      0x1f\n        /* \"--CODEGEN--\":97:106   */\n      not\n        /* \"--CODEGEN--\":90:94   */\n      0x1f\n        /* \"--CODEGEN--\":84:88   */\n      dup3\n        /* \"--CODEGEN--\":80:95   */\n      add\n        /* \"--CODEGEN--\":76:107   */\n      and\n        /* \"--CODEGEN--\":69:74   */\n      dup3\n        /* \"--CODEGEN--\":65:108   */\n      add\n        /* \"--CODEGEN--\":126:132   */\n      dup1\n        /* \"--CODEGEN--\":120:124   */\n      0x40\n        /* \"--CODEGEN--\":113:133   */\n      mstore\n        /* \"--CODEGEN--\":0:138   */\n      pop\n        /* \"--CODEGEN--\":13:15   */\n      0x40\n        /* \"--CODEGEN--\":8:11   */\n      dup2\n        /* \"--CODEGEN--\":5:16   */\n      lt\n        /* \"--CODEGEN--\":2:4   */\n      iszero\n      tag_386\n      jumpi\n        /* \"--CODEGEN--\":29:30   */\n      0x0\n        /* \"--CODEGEN--\":26:27   */\n      dup1\n        /* \"--CODEGEN--\":19:31   */\n      revert\n        /* \"--CODEGEN--\":2:4   */\n    tag_386:\n        /* \"MLSAGVerify.sol\":4363:4385  ecMath.Add(Rout, temp) */\n      dup2\n      add\n      swap1\n      dup1\n      swap2\n      swap1\n      pop\n      pop\n        /* \"MLSAGVerify.sol\":4356:4385  Rout = ecMath.Add(Rout, temp) */\n      swap2\n      pop\n        /* \"MLSAGVerify.sol\":3877:4393  function CalculateLinkableRingSegment_NoHash(uint256 ck, uint256 sk, uint256[2] P, uint256[2] I)\r... */\n      pop\n      swap5\n      pop\n      swap5\n      swap3\n      pop\n      pop\n      pop\n      jump\t// out\n        /* \"Debuggable.sol\":73:93  address public owner */\n    tag_87:\n      0x0\n      dup1\n      swap1\n      sload\n      swap1\n      0x100\n      exp\n      swap1\n      div\n      0xffffffffffffffffffffffffffffffffffffffff\n      and\n      dup2\n      jump\t// out\n        /* \"ECMathInterface.sol\":4109:4394  function ECMath_ChangeAddress(address ecMathAddr) public ownerOnly {\r... */\n    tag_90:\n        /* \"Debuggable.sol\":226:231  owner */\n      0x0\n      dup1\n      swap1\n      sload\n      swap1\n      0x100\n      exp\n      swap1\n      div\n      0xffffffffffffffffffffffffffffffffffffffff\n      and\n        /* \"Debuggable.sol\":212:231  msg.sender != owner */\n      0xffffffffffffffffffffffffffffffffffffffff\n      and\n        /* \"Debuggable.sol\":212:222  msg.sender */\n      caller\n        /* \"Debuggable.sol\":212:231  msg.sender != owner */\n      0xffffffffffffffffffffffffffffffffffffffff\n      and\n      eq\n      iszero\n        /* \"Debuggable.sol\":211:248  (msg.sender != owner) && (owner != 0) */\n      dup1\n      iszero\n      tag_388\n      jumpi\n      pop\n        /* \"Debuggable.sol\":246:247  0 */\n      0x0\n        /* \"Debuggable.sol\":237:242  owner */\n      dup1\n      0x0\n      swap1\n      sload\n      swap1\n      0x100\n      exp\n      swap1\n      div\n      0xffffffffffffffffffffffffffffffffffffffff\n      and\n        /* \"Debuggable.sol\":237:247  owner != 0 */\n      0xffffffffffffffffffffffffffffffffffffffff\n      and\n      eq\n      iszero\n        /* \"Debuggable.sol\":211:248  (msg.sender != owner) && (owner != 0) */\n    tag_388:\n        /* \"Debuggable.sol\":206:259  if ( (msg.sender != owner) && (owner != 0) ) revert() */\n      iszero\n      tag_389\n      jumpi\n        /* \"Debuggable.sol\":251:259  revert() */\n      0x0\n      dup1\n      revert\n        /* \"Debuggable.sol\":206:259  if ( (msg.sender != owner) && (owner != 0) ) revert() */\n    tag_389:\n        /* \"ECMathInterface.sol\":4324:4334  ecMathAddr */\n      dup1\n        /* \"ECMathInterface.sol\":4308:4314  ecMath */\n      0x1\n      0x0\n        /* \"ECMathInterface.sol\":4308:4335  ecMath = ECMath(ecMathAddr) */\n      0x100\n      exp\n      dup2\n      sload\n      dup2\n      0xffffffffffffffffffffffffffffffffffffffff\n      mul\n      not\n      and\n      swap1\n      dup4\n      0xffffffffffffffffffffffffffffffffffffffff\n      and\n      mul\n      or\n      swap1\n      sstore\n      pop\n        /* \"ECMathInterface.sol\":4345:4389  ContractAddressChanged(\"ECMath\", ecMathAddr) */\n      0x7cc5320aa18fb40c93aed6f76ae28088a8aaf67a112e0ca55367cd087b21802f\n        /* \"ECMathInterface.sol\":4378:4388  ecMathAddr */\n      dup2\n        /* \"ECMathInterface.sol\":4345:4389  ContractAddressChanged(\"ECMath\", ecMathAddr) */\n      mload(0x40)\n      dup1\n      dup1\n      0x20\n      add\n      dup4\n      0xffffffffffffffffffffffffffffffffffffffff\n      and\n      0xffffffffffffffffffffffffffffffffffffffff\n      and\n      dup2\n      mstore\n      0x20\n      add\n      dup3\n      dup2\n      sub\n      dup3\n      mstore\n      0x6\n      dup2\n      mstore\n      0x20\n      add\n      dup1\n      0x45434d6174680000000000000000000000000000000000000000000000000000\n      dup2\n      mstore\n      pop\n      0x20\n      add\n      swap3\n      pop\n      pop\n      pop\n      mload(0x40)\n      dup1\n      swap2\n      sub\n      swap1\n      log1\n        /* \"ECMathInterface.sol\":4109:4394  function ECMath_ChangeAddress(address ecMathAddr) public ownerOnly {\r... */\n      pop\n      jump\t// out\n        /* \"MLSAGVerify.sol\":2921:3222  function CalculateKeyImageFromPrivKey(uint256 pk)\r... */\n    tag_93:\n        /* \"MLSAGVerify.sol\":3005:3017  uint256[2] I */\n      tag_391\n      jump\t// in(tag_128)\n    tag_391:\n        /* \"MLSAGVerify.sol\":3035:3057  uint256[2] memory temp */\n      tag_392\n      jump\t// in(tag_128)\n    tag_392:\n        /* \"MLSAGVerify.sol\":3075:3081  ecMath */\n      0x1\n      0x0\n      swap1\n      sload\n      swap1\n      0x100\n      exp\n      swap1\n      div\n      0xffffffffffffffffffffffffffffffffffffffff\n      and\n        /* \"MLSAGVerify.sol\":3075:3090  ecMath.Multiply */\n      0xffffffffffffffffffffffffffffffffffffffff\n      and\n      0xc025d89b\n        /* \"MLSAGVerify.sol\":3091:3097  ecMath */\n      0x1\n      0x0\n      swap1\n      sload\n      swap1\n      0x100\n      exp\n      swap1\n      div\n      0xffffffffffffffffffffffffffffffffffffffff\n      and\n        /* \"MLSAGVerify.sol\":3091:3103  ecMath.GetG1 */\n      0xffffffffffffffffffffffffffffffffffffffff\n      and\n      0xae5d39f6\n        /* \"MLSAGVerify.sol\":3091:3105  ecMath.GetG1() */\n      mload(0x40)\n      dup2\n      0xffffffff\n      and\n      0x100000000000000000000000000000000000000000000000000000000\n      mul\n      dup2\n      mstore\n      0x4\n      add\n      0x40\n      dup1\n      mload\n      dup1\n      dup4\n      sub\n      dup2\n      0x0\n      dup8\n      dup1\n      extcodesize\n      iszero\n        /* \"--CODEGEN--\":8:17   */\n      dup1\n        /* \"--CODEGEN--\":5:7   */\n      iszero\n      tag_394\n      jumpi\n        /* \"--CODEGEN--\":30:31   */\n      0x0\n        /* \"--CODEGEN--\":27:28   */\n      dup1\n        /* \"--CODEGEN--\":20:32   */\n      revert\n        /* \"--CODEGEN--\":5:7   */\n    tag_394:\n        /* \"MLSAGVerify.sol\":3091:3105  ecMath.GetG1() */\n      pop\n      gas\n      call\n      iszero\n        /* \"--CODEGEN--\":8:17   */\n      dup1\n        /* \"--CODEGEN--\":5:7   */\n      iszero\n      tag_395\n      jumpi\n        /* \"--CODEGEN--\":45:61   */\n      returndatasize\n        /* \"--CODEGEN--\":42:43   */\n      0x0\n        /* \"--CODEGEN--\":39:40   */\n      dup1\n        /* \"--CODEGEN--\":24:62   */\n      returndatacopy\n        /* \"--CODEGEN--\":77:93   */\n      returndatasize\n        /* \"--CODEGEN--\":74:75   */\n      0x0\n        /* \"--CODEGEN--\":67:94   */\n      revert\n        /* \"--CODEGEN--\":5:7   */\n    tag_395:\n        /* \"MLSAGVerify.sol\":3091:3105  ecMath.GetG1() */\n      pop\n      pop\n      pop\n      pop\n      mload(0x40)\n      returndatasize\n        /* \"--CODEGEN--\":101:105   */\n      0x1f\n        /* \"--CODEGEN--\":97:106   */\n      not\n        /* \"--CODEGEN--\":90:94   */\n      0x1f\n        /* \"--CODEGEN--\":84:88   */\n      dup3\n        /* \"--CODEGEN--\":80:95   */\n      add\n        /* \"--CODEGEN--\":76:107   */\n      and\n        /* \"--CODEGEN--\":69:74   */\n      dup3\n        /* \"--CODEGEN--\":65:108   */\n      add\n        /* \"--CODEGEN--\":126:132   */\n      dup1\n        /* \"--CODEGEN--\":120:124   */\n      0x40\n        /* \"--CODEGEN--\":113:133   */\n      mstore\n        /* \"--CODEGEN--\":0:138   */\n      pop\n        /* \"--CODEGEN--\":13:15   */\n      0x40\n        /* \"--CODEGEN--\":8:11   */\n      dup2\n        /* \"--CODEGEN--\":5:16   */\n      lt\n        /* \"--CODEGEN--\":2:4   */\n      iszero\n      tag_396\n      jumpi\n        /* \"--CODEGEN--\":29:30   */\n      0x0\n        /* \"--CODEGEN--\":26:27   */\n      dup1\n        /* \"--CODEGEN--\":19:31   */\n      revert\n        /* \"--CODEGEN--\":2:4   */\n    tag_396:\n        /* \"MLSAGVerify.sol\":3091:3105  ecMath.GetG1() */\n      dup2\n      add\n      swap1\n      dup1\n      swap2\n      swap1\n      pop\n      pop\n        /* \"MLSAGVerify.sol\":3107:3109  pk */\n      dup6\n        /* \"MLSAGVerify.sol\":3075:3110  ecMath.Multiply(ecMath.GetG1(), pk) */\n      mload(0x40)\n      dup4\n      0xffffffff\n      and\n      0x100000000000000000000000000000000000000000000000000000000\n      mul\n      dup2\n      mstore\n      0x4\n      add\n      dup1\n      dup4\n      mul(0x20, 0x2)\n      dup1\n      dup4\n      dup4\n        /* \"--CODEGEN--\":23:24   */\n      0x0\n        /* \"--CODEGEN--\":8:108   */\n    tag_397:\n        /* \"--CODEGEN--\":33:36   */\n      dup4\n        /* \"--CODEGEN--\":30:31   */\n      dup2\n        /* \"--CODEGEN--\":27:37   */\n      lt\n        /* \"--CODEGEN--\":8:108   */\n      iszero\n      tag_398\n      jumpi\n        /* \"--CODEGEN--\":99:100   */\n      dup1\n        /* \"--CODEGEN--\":94:97   */\n      dup3\n        /* \"--CODEGEN--\":90:101   */\n      add\n        /* \"--CODEGEN--\":84:102   */\n      mload\n        /* \"--CODEGEN--\":80:81   */\n      dup2\n        /* \"--CODEGEN--\":75:78   */\n      dup5\n        /* \"--CODEGEN--\":71:82   */\n      add\n        /* \"--CODEGEN--\":64:103   */\n      mstore\n        /* \"--CODEGEN--\":52:54   */\n      0x20\n        /* \"--CODEGEN--\":49:50   */\n      dup2\n        /* \"--CODEGEN--\":45:55   */\n      add\n        /* \"--CODEGEN--\":40:55   */\n      swap1\n      pop\n        /* \"--CODEGEN--\":8:108   */\n      jump(tag_397)\n    tag_398:\n        /* \"--CODEGEN--\":12:26   */\n      pop\n        /* \"MLSAGVerify.sol\":3075:3110  ecMath.Multiply(ecMath.GetG1(), pk) */\n      pop\n      pop\n      pop\n      swap1\n      pop\n      add\n      dup3\n      dup2\n      mstore\n      0x20\n      add\n      swap3\n      pop\n      pop\n      pop\n      0x40\n      dup1\n      mload\n      dup1\n      dup4\n      sub\n      dup2\n      0x0\n      dup8\n      dup1\n      extcodesize\n      iszero\n        /* \"--CODEGEN--\":8:17   */\n      dup1\n        /* \"--CODEGEN--\":5:7   */\n      iszero\n      tag_400\n      jumpi\n        /* \"--CODEGEN--\":30:31   */\n      0x0\n        /* \"--CODEGEN--\":27:28   */\n      dup1\n        /* \"--CODEGEN--\":20:32   */\n      revert\n        /* \"--CODEGEN--\":5:7   */\n    tag_400:\n        /* \"MLSAGVerify.sol\":3075:3110  ecMath.Multiply(ecMath.GetG1(), pk) */\n      pop\n      gas\n      call\n      iszero\n        /* \"--CODEGEN--\":8:17   */\n      dup1\n        /* \"--CODEGEN--\":5:7   */\n      iszero\n      tag_401\n      jumpi\n        /* \"--CODEGEN--\":45:61   */\n      returndatasize\n        /* \"--CODEGEN--\":42:43   */\n      0x0\n        /* \"--CODEGEN--\":39:40   */\n      dup1\n        /* \"--CODEGEN--\":24:62   */\n      returndatacopy\n        /* \"--CODEGEN--\":77:93   */\n      returndatasize\n        /* \"--CODEGEN--\":74:75   */\n      0x0\n        /* \"--CODEGEN--\":67:94   */\n      revert\n        /* \"--CODEGEN--\":5:7   */\n    tag_401:\n        /* \"MLSAGVerify.sol\":3075:3110  ecMath.Multiply(ecMath.GetG1(), pk) */\n      pop\n      pop\n      pop\n      pop\n      mload(0x40)\n      returndatasize\n        /* \"--CODEGEN--\":101:105   */\n      0x1f\n        /* \"--CODEGEN--\":97:106   */\n      not\n        /* \"--CODEGEN--\":90:94   */\n      0x1f\n        /* \"--CODEGEN--\":84:88   */\n      dup3\n        /* \"--CODEGEN--\":80:95   */\n      add\n        /* \"--CODEGEN--\":76:107   */\n      and\n        /* \"--CODEGEN--\":69:74   */\n      dup3\n        /* \"--CODEGEN--\":65:108   */\n      add\n        /* \"--CODEGEN--\":126:132   */\n      dup1\n        /* \"--CODEGEN--\":120:124   */\n      0x40\n        /* \"--CODEGEN--\":113:133   */\n      mstore\n        /* \"--CODEGEN--\":0:138   */\n      pop\n        /* \"--CODEGEN--\":13:15   */\n      0x40\n        /* \"--CODEGEN--\":8:11   */\n      dup2\n        /* \"--CODEGEN--\":5:16   */\n      lt\n        /* \"--CODEGEN--\":2:4   */\n      iszero\n      tag_402\n      jumpi\n        /* \"--CODEGEN--\":29:30   */\n      0x0\n        /* \"--CODEGEN--\":26:27   */\n      dup1\n        /* \"--CODEGEN--\":19:31   */\n      revert\n        /* \"--CODEGEN--\":2:4   */\n    tag_402:\n        /* \"MLSAGVerify.sol\":3075:3110  ecMath.Multiply(ecMath.GetG1(), pk) */\n      dup2\n      add\n      swap1\n      dup1\n      swap2\n      swap1\n      pop\n      pop\n        /* \"MLSAGVerify.sol\":3068:3110  temp = ecMath.Multiply(ecMath.GetG1(), pk) */\n      swap1\n      pop\n        /* \"MLSAGVerify.sol\":3128:3134  ecMath */\n      0x1\n      0x0\n      swap1\n      sload\n      swap1\n      0x100\n      exp\n      swap1\n      div\n      0xffffffffffffffffffffffffffffffffffffffff\n      and\n        /* \"MLSAGVerify.sol\":3128:3146  ecMath.HashToPoint */\n      0xffffffffffffffffffffffffffffffffffffffff\n      and\n      0x6032fc3f\n        /* \"MLSAGVerify.sol\":3147:3151  temp */\n      dup3\n        /* \"MLSAGVerify.sol\":3128:3152  ecMath.HashToPoint(temp) */\n      mload(0x40)\n      dup3\n      0xffffffff\n      and\n      0x100000000000000000000000000000000000000000000000000000000\n      mul\n      dup2\n      mstore\n      0x4\n      add\n      dup1\n      dup3\n      mul(0x20, 0x2)\n      dup1\n      dup4\n      dup4\n        /* \"--CODEGEN--\":23:24   */\n      0x0\n        /* \"--CODEGEN--\":8:108   */\n    tag_403:\n        /* \"--CODEGEN--\":33:36   */\n      dup4\n        /* \"--CODEGEN--\":30:31   */\n      dup2\n        /* \"--CODEGEN--\":27:37   */\n      lt\n        /* \"--CODEGEN--\":8:108   */\n      iszero\n      tag_404\n      jumpi\n        /* \"--CODEGEN--\":99:100   */\n      dup1\n        /* \"--CODEGEN--\":94:97   */\n      dup3\n        /* \"--CODEGEN--\":90:101   */\n      add\n        /* \"--CODEGEN--\":84:102   */\n      mload\n        /* \"--CODEGEN--\":80:81   */\n      dup2\n        /* \"--CODEGEN--\":75:78   */\n      dup5\n        /* \"--CODEGEN--\":71:82   */\n      add\n        /* \"--CODEGEN--\":64:103   */\n      mstore\n        /* \"--CODEGEN--\":52:54   */\n      0x20\n        /* \"--CODEGEN--\":49:50   */\n      dup2\n        /* \"--CODEGEN--\":45:55   */\n      add\n        /* \"--CODEGEN--\":40:55   */\n      swap1\n      pop\n        /* \"--CODEGEN--\":8:108   */\n      jump(tag_403)\n    tag_404:\n        /* \"--CODEGEN--\":12:26   */\n      pop\n        /* \"MLSAGVerify.sol\":3128:3152  ecMath.HashToPoint(temp) */\n      pop\n      pop\n      pop\n      swap1\n      pop\n      add\n      swap2\n      pop\n      pop\n      0x40\n      dup1\n      mload\n      dup1\n      dup4\n      sub\n      dup2\n      0x0\n      dup8\n      dup1\n      extcodesize\n      iszero\n        /* \"--CODEGEN--\":8:17   */\n      dup1\n        /* \"--CODEGEN--\":5:7   */\n      iszero\n      tag_406\n      jumpi\n        /* \"--CODEGEN--\":30:31   */\n      0x0\n        /* \"--CODEGEN--\":27:28   */\n      dup1\n        /* \"--CODEGEN--\":20:32   */\n      revert\n        /* \"--CODEGEN--\":5:7   */\n    tag_406:\n        /* \"MLSAGVerify.sol\":3128:3152  ecMath.HashToPoint(temp) */\n      pop\n      gas\n      call\n      iszero\n        /* \"--CODEGEN--\":8:17   */\n      dup1\n        /* \"--CODEGEN--\":5:7   */\n      iszero\n      tag_407\n      jumpi\n        /* \"--CODEGEN--\":45:61   */\n      returndatasize\n        /* \"--CODEGEN--\":42:43   */\n      0x0\n        /* \"--CODEGEN--\":39:40   */\n      dup1\n        /* \"--CODEGEN--\":24:62   */\n      returndatacopy\n        /* \"--CODEGEN--\":77:93   */\n      returndatasize\n        /* \"--CODEGEN--\":74:75   */\n      0x0\n        /* \"--CODEGEN--\":67:94   */\n      revert\n        /* \"--CODEGEN--\":5:7   */\n    tag_407:\n        /* \"MLSAGVerify.sol\":3128:3152  ecMath.HashToPoint(temp) */\n      pop\n      pop\n      pop\n      pop\n      mload(0x40)\n      returndatasize\n        /* \"--CODEGEN--\":101:105   */\n      0x1f\n        /* \"--CODEGEN--\":97:106   */\n      not\n        /* \"--CODEGEN--\":90:94   */\n      0x1f\n        /* \"--CODEGEN--\":84:88   */\n      dup3\n        /* \"--CODEGEN--\":80:95   */\n      add\n        /* \"--CODEGEN--\":76:107   */\n      and\n        /* \"--CODEGEN--\":69:74   */\n      dup3\n        /* \"--CODEGEN--\":65:108   */\n      add\n        /* \"--CODEGEN--\":126:132   */\n      dup1\n        /* \"--CODEGEN--\":120:124   */\n      0x40\n        /* \"--CODEGEN--\":113:133   */\n      mstore\n        /* \"--CODEGEN--\":0:138   */\n      pop\n        /* \"--CODEGEN--\":13:15   */\n      0x40\n        /* \"--CODEGEN--\":8:11   */\n      dup2\n        /* \"--CODEGEN--\":5:16   */\n      lt\n        /* \"--CODEGEN--\":2:4   */\n      iszero\n      tag_408\n      jumpi\n        /* \"--CODEGEN--\":29:30   */\n      0x0\n        /* \"--CODEGEN--\":26:27   */\n      dup1\n        /* \"--CODEGEN--\":19:31   */\n      revert\n        /* \"--CODEGEN--\":2:4   */\n    tag_408:\n        /* \"MLSAGVerify.sol\":3128:3152  ecMath.HashToPoint(temp) */\n      dup2\n      add\n      swap1\n      dup1\n      swap2\n      swap1\n      pop\n      pop\n        /* \"MLSAGVerify.sol\":3121:3152  temp = ecMath.HashToPoint(temp) */\n      swap1\n      pop\n        /* \"MLSAGVerify.sol\":3170:3176  ecMath */\n      0x1\n      0x0\n      swap1\n      sload\n      swap1\n      0x100\n      exp\n      swap1\n      div\n      0xffffffffffffffffffffffffffffffffffffffff\n      and\n        /* \"MLSAGVerify.sol\":3170:3185  ecMath.Multiply */\n      0xffffffffffffffffffffffffffffffffffffffff\n      and\n      0xc025d89b\n        /* \"MLSAGVerify.sol\":3186:3190  temp */\n      dup3\n        /* \"MLSAGVerify.sol\":3192:3194  pk */\n      dup6\n        /* \"MLSAGVerify.sol\":3170:3195  ecMath.Multiply(temp, pk) */\n      mload(0x40)\n      dup4\n      0xffffffff\n      and\n      0x100000000000000000000000000000000000000000000000000000000\n      mul\n      dup2\n      mstore\n      0x4\n      add\n      dup1\n      dup4\n      mul(0x20, 0x2)\n      dup1\n      dup4\n      dup4\n        /* \"--CODEGEN--\":23:24   */\n      0x0\n        /* \"--CODEGEN--\":8:108   */\n    tag_409:\n        /* \"--CODEGEN--\":33:36   */\n      dup4\n        /* \"--CODEGEN--\":30:31   */\n      dup2\n        /* \"--CODEGEN--\":27:37   */\n      lt\n        /* \"--CODEGEN--\":8:108   */\n      iszero\n      tag_410\n      jumpi\n        /* \"--CODEGEN--\":99:100   */\n      dup1\n        /* \"--CODEGEN--\":94:97   */\n      dup3\n        /* \"--CODEGEN--\":90:101   */\n      add\n        /* \"--CODEGEN--\":84:102   */\n      mload\n        /* \"--CODEGEN--\":80:81   */\n      dup2\n        /* \"--CODEGEN--\":75:78   */\n      dup5\n        /* \"--CODEGEN--\":71:82   */\n      add\n        /* \"--CODEGEN--\":64:103   */\n      mstore\n        /* \"--CODEGEN--\":52:54   */\n      0x20\n        /* \"--CODEGEN--\":49:50   */\n      dup2\n        /* \"--CODEGEN--\":45:55   */\n      add\n        /* \"--CODEGEN--\":40:55   */\n      swap1\n      pop\n        /* \"--CODEGEN--\":8:108   */\n      jump(tag_409)\n    tag_410:\n        /* \"--CODEGEN--\":12:26   */\n      pop\n        /* \"MLSAGVerify.sol\":3170:3195  ecMath.Multiply(temp, pk) */\n      pop\n      pop\n      pop\n      swap1\n      pop\n      add\n      dup3\n      dup2\n      mstore\n      0x20\n      add\n      swap3\n      pop\n      pop\n      pop\n      0x40\n      dup1\n      mload\n      dup1\n      dup4\n      sub\n      dup2\n      0x0\n      dup8\n      dup1\n      extcodesize\n      iszero\n        /* \"--CODEGEN--\":8:17   */\n      dup1\n        /* \"--CODEGEN--\":5:7   */\n      iszero\n      tag_412\n      jumpi\n        /* \"--CODEGEN--\":30:31   */\n      0x0\n        /* \"--CODEGEN--\":27:28   */\n      dup1\n        /* \"--CODEGEN--\":20:32   */\n      revert\n        /* \"--CODEGEN--\":5:7   */\n    tag_412:\n        /* \"MLSAGVerify.sol\":3170:3195  ecMath.Multiply(temp, pk) */\n      pop\n      gas\n      call\n      iszero\n        /* \"--CODEGEN--\":8:17   */\n      dup1\n        /* \"--CODEGEN--\":5:7   */\n      iszero\n      tag_413\n      jumpi\n        /* \"--CODEGEN--\":45:61   */\n      returndatasize\n        /* \"--CODEGEN--\":42:43   */\n      0x0\n        /* \"--CODEGEN--\":39:40   */\n      dup1\n        /* \"--CODEGEN--\":24:62   */\n      returndatacopy\n        /* \"--CODEGEN--\":77:93   */\n      returndatasize\n        /* \"--CODEGEN--\":74:75   */\n      0x0\n        /* \"--CODEGEN--\":67:94   */\n      revert\n        /* \"--CODEGEN--\":5:7   */\n    tag_413:\n        /* \"MLSAGVerify.sol\":3170:3195  ecMath.Multiply(temp, pk) */\n      pop\n      pop\n      pop\n      pop\n      mload(0x40)\n      returndatasize\n        /* \"--CODEGEN--\":101:105   */\n      0x1f\n        /* \"--CODEGEN--\":97:106   */\n      not\n        /* \"--CODEGEN--\":90:94   */\n      0x1f\n        /* \"--CODEGEN--\":84:88   */\n      dup3\n        /* \"--CODEGEN--\":80:95   */\n      add\n        /* \"--CODEGEN--\":76:107   */\n      and\n        /* \"--CODEGEN--\":69:74   */\n      dup3\n        /* \"--CODEGEN--\":65:108   */\n      add\n        /* \"--CODEGEN--\":126:132   */\n      dup1\n        /* \"--CODEGEN--\":120:124   */\n      0x40\n        /* \"--CODEGEN--\":113:133   */\n      mstore\n        /* \"--CODEGEN--\":0:138   */\n      pop\n        /* \"--CODEGEN--\":13:15   */\n      0x40\n        /* \"--CODEGEN--\":8:11   */\n      dup2\n        /* \"--CODEGEN--\":5:16   */\n      lt\n        /* \"--CODEGEN--\":2:4   */\n      iszero\n      tag_414\n      jumpi\n        /* \"--CODEGEN--\":29:30   */\n      0x0\n        /* \"--CODEGEN--\":26:27   */\n      dup1\n        /* \"--CODEGEN--\":19:31   */\n      revert\n        /* \"--CODEGEN--\":2:4   */\n    tag_414:\n        /* \"MLSAGVerify.sol\":3170:3195  ecMath.Multiply(temp, pk) */\n      dup2\n      add\n      swap1\n      dup1\n      swap2\n      swap1\n      pop\n      pop\n        /* \"MLSAGVerify.sol\":3163:3195  temp = ecMath.Multiply(temp, pk) */\n      swap1\n      pop\n        /* \"MLSAGVerify.sol\":3210:3214  temp */\n      dup1\n        /* \"MLSAGVerify.sol\":3206:3214  I = temp */\n      swap2\n      pop\n        /* \"MLSAGVerify.sol\":2921:3222  function CalculateKeyImageFromPrivKey(uint256 pk)\r... */\n      pop\n      swap2\n      swap1\n      pop\n      jump\t// out\n        /* \"Debuggable.sol\":288:358  function Kill() public ownerOnly {\r... */\n    tag_99:\n        /* \"Debuggable.sol\":226:231  owner */\n      0x0\n      dup1\n      swap1\n      sload\n      swap1\n      0x100\n      exp\n      swap1\n      div\n      0xffffffffffffffffffffffffffffffffffffffff\n      and\n        /* \"Debuggable.sol\":212:231  msg.sender != owner */\n      0xffffffffffffffffffffffffffffffffffffffff\n      and\n        /* \"Debuggable.sol\":212:222  msg.sender */\n      caller\n        /* \"Debuggable.sol\":212:231  msg.sender != owner */\n      0xffffffffffffffffffffffffffffffffffffffff\n      and\n      eq\n      iszero\n        /* \"Debuggable.sol\":211:248  (msg.sender != owner) && (owner != 0) */\n      dup1\n      iszero\n      tag_416\n      jumpi\n      pop\n        /* \"Debuggable.sol\":246:247  0 */\n      0x0\n        /* \"Debuggable.sol\":237:242  owner */\n      dup1\n      0x0\n      swap1\n      sload\n      swap1\n      0x100\n      exp\n      swap1\n      div\n      0xffffffffffffffffffffffffffffffffffffffff\n      and\n        /* \"Debuggable.sol\":237:247  owner != 0 */\n      0xffffffffffffffffffffffffffffffffffffffff\n      and\n      eq\n      iszero\n        /* \"Debuggable.sol\":211:248  (msg.sender != owner) && (owner != 0) */\n    tag_416:\n        /* \"Debuggable.sol\":206:259  if ( (msg.sender != owner) && (owner != 0) ) revert() */\n      iszero\n      tag_417\n      jumpi\n        /* \"Debuggable.sol\":251:259  revert() */\n      0x0\n      dup1\n      revert\n        /* \"Debuggable.sol\":206:259  if ( (msg.sender != owner) && (owner != 0) ) revert() */\n    tag_417:\n        /* \"Debuggable.sol\":342:352  msg.sender */\n      caller\n        /* \"Debuggable.sol\":329:353  selfdestruct(msg.sender) */\n      0xffffffffffffffffffffffffffffffffffffffff\n      and\n      selfdestruct\n        /* \"MLSAGVerify.sol\":12861:14869  function VerifyMLSAG(uint256 msgHash, uint256[] I, uint256[] P, uint256[] signature)\r... */\n    tag_102:\n        /* \"MLSAGVerify.sol\":12980:12992  bool success */\n      0x0\n        /* \"MLSAGVerify.sol\":13047:13065  Variables memory v */\n      tag_419\n      jump\t// in(tag_171)\n    tag_419:\n        /* \"MLSAGVerify.sol\":13364:13382  uint256[] memory c */\n      0x60\n        /* \"MLSAGVerify.sol\":13095:13096  0 */\n      0x0\n        /* \"MLSAGVerify.sol\":13090:13091  2 */\n      0x2\n        /* \"MLSAGVerify.sol\":13079:13080  I */\n      dup8\n        /* \"MLSAGVerify.sol\":13079:13087  I.length */\n      mload\n        /* \"MLSAGVerify.sol\":13079:13091  I.length % 2 */\n      dup2\n      iszero\n      iszero\n      tag_421\n      jumpi\n      invalid\n    tag_421:\n      mod\n        /* \"MLSAGVerify.sol\":13079:13096  I.length % 2 != 0 */\n      eq\n      iszero\n        /* \"MLSAGVerify.sol\":13076:13110  if(I.length % 2 != 0) return false */\n      iszero\n      tag_422\n      jumpi\n        /* \"MLSAGVerify.sol\":13105:13110  false */\n      0x0\n        /* \"MLSAGVerify.sol\":13098:13110  return false */\n      swap3\n      pop\n      jump(tag_420)\n        /* \"MLSAGVerify.sol\":13076:13110  if(I.length % 2 != 0) return false */\n    tag_422:\n        /* \"MLSAGVerify.sol\":13139:13140  2 */\n      0x2\n        /* \"MLSAGVerify.sol\":13128:13129  I */\n      dup7\n        /* \"MLSAGVerify.sol\":13128:13136  I.length */\n      mload\n        /* \"MLSAGVerify.sol\":13128:13140  I.length / 2 */\n      dup2\n      iszero\n      iszero\n      tag_423\n      jumpi\n      invalid\n    tag_423:\n      div\n        /* \"MLSAGVerify.sol\":13121:13122  v */\n      dup3\n        /* \"MLSAGVerify.sol\":13121:13124  v.m */\n      0x0\n      add\n        /* \"MLSAGVerify.sol\":13121:13141  v.m = (I.length / 2) */\n      dup2\n      dup2\n      mstore\n      pop\n      pop\n        /* \"MLSAGVerify.sol\":13178:13179  0 */\n      0x0\n        /* \"MLSAGVerify.sol\":13170:13171  v */\n      dup3\n        /* \"MLSAGVerify.sol\":13170:13173  v.m */\n      0x0\n      add\n      mload\n        /* \"MLSAGVerify.sol\":13168:13169  2 */\n      0x2\n        /* \"MLSAGVerify.sol\":13168:13173  2*v.m */\n      mul\n        /* \"MLSAGVerify.sol\":13156:13157  P */\n      dup7\n        /* \"MLSAGVerify.sol\":13156:13164  P.length */\n      mload\n        /* \"MLSAGVerify.sol\":13156:13174  P.length % (2*v.m) */\n      dup2\n      iszero\n      iszero\n      tag_424\n      jumpi\n      invalid\n    tag_424:\n      mod\n        /* \"MLSAGVerify.sol\":13156:13179  P.length % (2*v.m) != 0 */\n      eq\n      iszero\n        /* \"MLSAGVerify.sol\":13152:13193  if (P.length % (2*v.m) != 0) return false */\n      iszero\n      tag_425\n      jumpi\n        /* \"MLSAGVerify.sol\":13188:13193  false */\n      0x0\n        /* \"MLSAGVerify.sol\":13181:13193  return false */\n      swap3\n      pop\n      jump(tag_420)\n        /* \"MLSAGVerify.sol\":13152:13193  if (P.length % (2*v.m) != 0) return false */\n    tag_425:\n        /* \"MLSAGVerify.sol\":13234:13235  v */\n      dup2\n        /* \"MLSAGVerify.sol\":13234:13237  v.m */\n      0x0\n      add\n      mload\n        /* \"MLSAGVerify.sol\":13232:13233  2 */\n      0x2\n        /* \"MLSAGVerify.sol\":13232:13237  2*v.m */\n      mul\n        /* \"MLSAGVerify.sol\":13220:13221  P */\n      dup6\n        /* \"MLSAGVerify.sol\":13220:13228  P.length */\n      mload\n        /* \"MLSAGVerify.sol\":13220:13238  P.length / (2*v.m) */\n      dup2\n      iszero\n      iszero\n      tag_426\n      jumpi\n      invalid\n    tag_426:\n      div\n        /* \"MLSAGVerify.sol\":13214:13215  v */\n      dup3\n        /* \"MLSAGVerify.sol\":13214:13217  v.n */\n      0x20\n      add\n        /* \"MLSAGVerify.sol\":13214:13238  v.n = P.length / (2*v.m) */\n      dup2\n      dup2\n      mstore\n      pop\n      pop\n        /* \"MLSAGVerify.sol\":13282:13283  1 */\n      0x1\n        /* \"MLSAGVerify.sol\":13278:13279  v */\n      dup3\n        /* \"MLSAGVerify.sol\":13278:13281  v.n */\n      0x20\n      add\n      mload\n        /* \"MLSAGVerify.sol\":13274:13275  v */\n      dup4\n        /* \"MLSAGVerify.sol\":13274:13277  v.m */\n      0x0\n      add\n      mload\n        /* \"MLSAGVerify.sol\":13274:13281  v.m*v.n */\n      mul\n        /* \"MLSAGVerify.sol\":13274:13283  v.m*v.n+1 */\n      add\n        /* \"MLSAGVerify.sol\":13253:13262  signature */\n      dup5\n        /* \"MLSAGVerify.sol\":13253:13269  signature.length */\n      mload\n        /* \"MLSAGVerify.sol\":13253:13284  signature.length != (v.m*v.n+1) */\n      eq\n      iszero\n        /* \"MLSAGVerify.sol\":13249:13298  if (signature.length != (v.m*v.n+1)) return false */\n      iszero\n      tag_427\n      jumpi\n        /* \"MLSAGVerify.sol\":13293:13298  false */\n      0x0\n        /* \"MLSAGVerify.sol\":13286:13298  return false */\n      swap3\n      pop\n      jump(tag_420)\n        /* \"MLSAGVerify.sol\":13249:13298  if (signature.length != (v.m*v.n+1)) return false */\n    tag_427:\n        /* \"MLSAGVerify.sol\":13405:13406  1 */\n      0x1\n        /* \"MLSAGVerify.sol\":13401:13402  v */\n      dup3\n        /* \"MLSAGVerify.sol\":13401:13404  v.m */\n      0x0\n      add\n      mload\n        /* \"MLSAGVerify.sol\":13399:13400  4 */\n      0x4\n        /* \"MLSAGVerify.sol\":13399:13404  4*v.m */\n      mul\n        /* \"MLSAGVerify.sol\":13399:13406  4*v.m+1 */\n      add\n        /* \"MLSAGVerify.sol\":13385:13407  new uint256[](4*v.m+1) */\n      mload(0x40)\n      swap1\n      dup1\n      dup3\n      mstore\n      dup1\n      0x20\n      mul\n      0x20\n      add\n      dup3\n      add\n      0x40\n      mstore\n      dup1\n      iszero\n      tag_428\n      jumpi\n      dup2\n      0x20\n      add\n        /* \"--CODEGEN--\":29:31   */\n      0x20\n        /* \"--CODEGEN--\":21:27   */\n      dup3\n        /* \"--CODEGEN--\":17:32   */\n      mul\n        /* \"--CODEGEN--\":117:121   */\n      dup1\n        /* \"--CODEGEN--\":105:115   */\n      codesize\n        /* \"--CODEGEN--\":97:103   */\n      dup4\n        /* \"--CODEGEN--\":88:122   */\n      codecopy\n        /* \"--CODEGEN--\":148:152   */\n      dup1\n        /* \"--CODEGEN--\":140:146   */\n      dup3\n        /* \"--CODEGEN--\":136:153   */\n      add\n        /* \"--CODEGEN--\":126:153   */\n      swap2\n      pop\n        /* \"--CODEGEN--\":0:157   */\n      pop\n        /* \"MLSAGVerify.sol\":13385:13407  new uint256[](4*v.m+1) */\n      swap1\n      pop\n    tag_428:\n      pop\n        /* \"MLSAGVerify.sol\":13364:13407  uint256[] memory c = new uint256[](4*v.m+1) */\n      swap1\n      pop\n        /* \"MLSAGVerify.sol\":13425:13432  msgHash */\n      dup7\n        /* \"MLSAGVerify.sol\":13418:13419  c */\n      dup2\n        /* \"MLSAGVerify.sol\":13420:13421  0 */\n      0x0\n        /* \"MLSAGVerify.sol\":13418:13422  c[0] */\n      dup2\n      mload\n      dup2\n      lt\n      iszero\n      iszero\n      tag_429\n      jumpi\n      invalid\n    tag_429:\n      swap1\n      0x20\n      add\n      swap1\n      0x20\n      mul\n      add\n        /* \"MLSAGVerify.sol\":13418:13432  c[0] = msgHash */\n      dup2\n      dup2\n      mstore\n      pop\n      pop\n        /* \"MLSAGVerify.sol\":13464:13465  0 */\n      0x0\n        /* \"MLSAGVerify.sol\":13458:13459  v */\n      dup3\n        /* \"MLSAGVerify.sol\":13458:13461  v.i */\n      0x40\n      add\n        /* \"MLSAGVerify.sol\":13458:13465  v.i = 0 */\n      dup2\n      dup2\n      mstore\n      pop\n      pop\n        /* \"MLSAGVerify.sol\":13453:14596  for (v.i = 0; v.i < v.m; v.i++) {\r... */\n    tag_430:\n        /* \"MLSAGVerify.sol\":13473:13474  v */\n      dup2\n        /* \"MLSAGVerify.sol\":13473:13476  v.m */\n      0x0\n      add\n      mload\n        /* \"MLSAGVerify.sol\":13467:13468  v */\n      dup3\n        /* \"MLSAGVerify.sol\":13467:13470  v.i */\n      0x40\n      add\n      mload\n        /* \"MLSAGVerify.sol\":13467:13476  v.i < v.m */\n      lt\n        /* \"MLSAGVerify.sol\":13453:14596  for (v.i = 0; v.i < v.m; v.i++) {\r... */\n      iszero\n      tag_431\n      jumpi\n        /* \"MLSAGVerify.sol\":13507:13516  signature */\n      dup4\n        /* \"MLSAGVerify.sol\":13517:13518  0 */\n      0x0\n        /* \"MLSAGVerify.sol\":13507:13519  signature[0] */\n      dup2\n      mload\n      dup2\n      lt\n      iszero\n      iszero\n      tag_433\n      jumpi\n      invalid\n    tag_433:\n      swap1\n      0x20\n      add\n      swap1\n      0x20\n      mul\n      add\n      mload\n        /* \"MLSAGVerify.sol\":13500:13501  v */\n      dup3\n        /* \"MLSAGVerify.sol\":13500:13504  v.ck */\n      0x80\n      add\n        /* \"MLSAGVerify.sol\":13500:13519  v.ck = signature[0] */\n      dup2\n      dup2\n      mstore\n      pop\n      pop\n        /* \"MLSAGVerify.sol\":13554:13589  v.keyImage = [I[2*v.i], I[2*v.i+1]] */\n      0x40\n      dup1\n      mload\n      swap1\n      dup2\n      add\n      0x40\n      mstore\n      dup1\n        /* \"MLSAGVerify.sol\":13568:13569  I */\n      dup8\n        /* \"MLSAGVerify.sol\":13572:13573  v */\n      dup5\n        /* \"MLSAGVerify.sol\":13572:13575  v.i */\n      0x40\n      add\n      mload\n        /* \"MLSAGVerify.sol\":13570:13571  2 */\n      0x2\n        /* \"MLSAGVerify.sol\":13570:13575  2*v.i */\n      mul\n        /* \"MLSAGVerify.sol\":13568:13576  I[2*v.i] */\n      dup2\n      mload\n      dup2\n      lt\n      iszero\n      iszero\n      tag_434\n      jumpi\n      invalid\n    tag_434:\n      swap1\n      0x20\n      add\n      swap1\n      0x20\n      mul\n      add\n      mload\n        /* \"MLSAGVerify.sol\":13554:13589  v.keyImage = [I[2*v.i], I[2*v.i+1]] */\n      dup2\n      mstore\n      0x20\n      add\n        /* \"MLSAGVerify.sol\":13578:13579  I */\n      dup8\n        /* \"MLSAGVerify.sol\":13586:13587  1 */\n      0x1\n        /* \"MLSAGVerify.sol\":13582:13583  v */\n      dup6\n        /* \"MLSAGVerify.sol\":13582:13585  v.i */\n      0x40\n      add\n      mload\n        /* \"MLSAGVerify.sol\":13580:13581  2 */\n      0x2\n        /* \"MLSAGVerify.sol\":13580:13585  2*v.i */\n      mul\n        /* \"MLSAGVerify.sol\":13580:13587  2*v.i+1 */\n      add\n        /* \"MLSAGVerify.sol\":13578:13588  I[2*v.i+1] */\n      dup2\n      mload\n      dup2\n      lt\n      iszero\n      iszero\n      tag_435\n      jumpi\n      invalid\n    tag_435:\n      swap1\n      0x20\n      add\n      swap1\n      0x20\n      mul\n      add\n      mload\n        /* \"MLSAGVerify.sol\":13554:13589  v.keyImage = [I[2*v.i], I[2*v.i+1]] */\n      dup2\n      mstore\n      pop\n        /* \"MLSAGVerify.sol\":13554:13555  v */\n      dup3\n        /* \"MLSAGVerify.sol\":13554:13564  v.keyImage */\n      0x100\n      add\n        /* \"MLSAGVerify.sol\":13554:13589  v.keyImage = [I[2*v.i], I[2*v.i+1]] */\n      dup2\n      swap1\n      mstore\n      pop\n        /* \"MLSAGVerify.sol\":13713:13714  0 */\n      0x0\n        /* \"MLSAGVerify.sol\":13707:13708  v */\n      dup3\n        /* \"MLSAGVerify.sol\":13707:13710  v.j */\n      0x60\n      add\n        /* \"MLSAGVerify.sol\":13707:13714  v.j = 0 */\n      dup2\n      dup2\n      mstore\n      pop\n      pop\n        /* \"MLSAGVerify.sol\":13702:13990  for (v.j = 0; v.j < (v.n-1); v.j++) {\r... */\n    tag_436:\n        /* \"MLSAGVerify.sol\":13727:13728  1 */\n      0x1\n        /* \"MLSAGVerify.sol\":13723:13724  v */\n      dup3\n        /* \"MLSAGVerify.sol\":13723:13726  v.n */\n      0x20\n      add\n      mload\n        /* \"MLSAGVerify.sol\":13723:13728  v.n-1 */\n      sub\n        /* \"MLSAGVerify.sol\":13716:13717  v */\n      dup3\n        /* \"MLSAGVerify.sol\":13716:13719  v.j */\n      0x60\n      add\n      mload\n        /* \"MLSAGVerify.sol\":13716:13729  v.j < (v.n-1) */\n      lt\n        /* \"MLSAGVerify.sol\":13702:13990  for (v.j = 0; v.j < (v.n-1); v.j++) {\r... */\n      iszero\n      tag_437\n      jumpi\n        /* \"MLSAGVerify.sol\":13777:13778  v */\n      dup2\n        /* \"MLSAGVerify.sol\":13777:13780  v.i */\n      0x40\n      add\n      mload\n        /* \"MLSAGVerify.sol\":13771:13772  v */\n      dup3\n        /* \"MLSAGVerify.sol\":13771:13774  v.j */\n      0x60\n      add\n      mload\n        /* \"MLSAGVerify.sol\":13767:13768  v */\n      dup4\n        /* \"MLSAGVerify.sol\":13767:13770  v.m */\n      0x0\n      add\n      mload\n        /* \"MLSAGVerify.sol\":13767:13774  v.m*v.j */\n      mul\n        /* \"MLSAGVerify.sol\":13767:13780  v.m*v.j + v.i */\n      add\n        /* \"MLSAGVerify.sol\":13757:13758  v */\n      dup3\n        /* \"MLSAGVerify.sol\":13757:13764  v.index */\n      0xa0\n      add\n        /* \"MLSAGVerify.sol\":13757:13780  v.index = v.m*v.j + v.i */\n      dup2\n      dup2\n      mstore\n      pop\n      pop\n        /* \"MLSAGVerify.sol\":13799:13840  v.point1 = [P[2*v.index], P[2*v.index+1]] */\n      0x40\n      dup1\n      mload\n      swap1\n      dup2\n      add\n      0x40\n      mstore\n      dup1\n        /* \"MLSAGVerify.sol\":13811:13812  P */\n      dup7\n        /* \"MLSAGVerify.sol\":13815:13816  v */\n      dup5\n        /* \"MLSAGVerify.sol\":13815:13822  v.index */\n      0xa0\n      add\n      mload\n        /* \"MLSAGVerify.sol\":13813:13814  2 */\n      0x2\n        /* \"MLSAGVerify.sol\":13813:13822  2*v.index */\n      mul\n        /* \"MLSAGVerify.sol\":13811:13823  P[2*v.index] */\n      dup2\n      mload\n      dup2\n      lt\n      iszero\n      iszero\n      tag_439\n      jumpi\n      invalid\n    tag_439:\n      swap1\n      0x20\n      add\n      swap1\n      0x20\n      mul\n      add\n      mload\n        /* \"MLSAGVerify.sol\":13799:13840  v.point1 = [P[2*v.index], P[2*v.index+1]] */\n      dup2\n      mstore\n      0x20\n      add\n        /* \"MLSAGVerify.sol\":13825:13826  P */\n      dup7\n        /* \"MLSAGVerify.sol\":13837:13838  1 */\n      0x1\n        /* \"MLSAGVerify.sol\":13829:13830  v */\n      dup6\n        /* \"MLSAGVerify.sol\":13829:13836  v.index */\n      0xa0\n      add\n      mload\n        /* \"MLSAGVerify.sol\":13827:13828  2 */\n      0x2\n        /* \"MLSAGVerify.sol\":13827:13836  2*v.index */\n      mul\n        /* \"MLSAGVerify.sol\":13827:13838  2*v.index+1 */\n      add\n        /* \"MLSAGVerify.sol\":13825:13839  P[2*v.index+1] */\n      dup2\n      mload\n      dup2\n      lt\n      iszero\n      iszero\n      tag_440\n      jumpi\n      invalid\n    tag_440:\n      swap1\n      0x20\n      add\n      swap1\n      0x20\n      mul\n      add\n      mload\n        /* \"MLSAGVerify.sol\":13799:13840  v.point1 = [P[2*v.index], P[2*v.index+1]] */\n      dup2\n      mstore\n      pop\n        /* \"MLSAGVerify.sol\":13799:13800  v */\n      dup3\n        /* \"MLSAGVerify.sol\":13799:13807  v.point1 */\n      0xc0\n      add\n        /* \"MLSAGVerify.sol\":13799:13840  v.point1 = [P[2*v.index], P[2*v.index+1]] */\n      dup2\n      swap1\n      mstore\n      pop\n        /* \"MLSAGVerify.sol\":13887:13974  CalculateLinkableRingSegment(msgHash, v.ck, signature[v.index+1], v.point1, v.keyImage) */\n      tag_441\n        /* \"MLSAGVerify.sol\":13916:13923  msgHash */\n      dup8\n        /* \"MLSAGVerify.sol\":13925:13926  v */\n      dup4\n        /* \"MLSAGVerify.sol\":13925:13929  v.ck */\n      0x80\n      add\n      mload\n        /* \"MLSAGVerify.sol\":13931:13940  signature */\n      dup7\n        /* \"MLSAGVerify.sol\":13949:13950  1 */\n      0x1\n        /* \"MLSAGVerify.sol\":13941:13942  v */\n      dup7\n        /* \"MLSAGVerify.sol\":13941:13948  v.index */\n      0xa0\n      add\n      mload\n        /* \"MLSAGVerify.sol\":13941:13950  v.index+1 */\n      add\n        /* \"MLSAGVerify.sol\":13931:13951  signature[v.index+1] */\n      dup2\n      mload\n      dup2\n      lt\n      iszero\n      iszero\n      tag_442\n      jumpi\n      invalid\n    tag_442:\n      swap1\n      0x20\n      add\n      swap1\n      0x20\n      mul\n      add\n      mload\n        /* \"MLSAGVerify.sol\":13953:13954  v */\n      dup6\n        /* \"MLSAGVerify.sol\":13953:13961  v.point1 */\n      0xc0\n      add\n      mload\n        /* \"MLSAGVerify.sol\":13963:13964  v */\n      dup7\n        /* \"MLSAGVerify.sol\":13963:13973  v.keyImage */\n      0x100\n      add\n      mload\n        /* \"MLSAGVerify.sol\":13887:13915  CalculateLinkableRingSegment */\n      tag_123\n        /* \"MLSAGVerify.sol\":13887:13974  CalculateLinkableRingSegment(msgHash, v.ck, signature[v.index+1], v.point1, v.keyImage) */\n      jump\t// in\n    tag_441:\n        /* \"MLSAGVerify.sol\":13880:13881  v */\n      dup3\n        /* \"MLSAGVerify.sol\":13880:13884  v.ck */\n      0x80\n      add\n        /* \"MLSAGVerify.sol\":13880:13974  v.ck = CalculateLinkableRingSegment(msgHash, v.ck, signature[v.index+1], v.point1, v.keyImage) */\n      dup2\n      dup2\n      mstore\n      pop\n      pop\n        /* \"MLSAGVerify.sol\":13731:13732  v */\n      dup2\n        /* \"MLSAGVerify.sol\":13731:13734  v.j */\n      0x60\n      add\n        /* \"MLSAGVerify.sol\":13731:13736  v.j++ */\n      dup1\n      mload\n      dup1\n      swap2\n      swap1\n      0x1\n      add\n      dup2\n      mstore\n      pop\n      pop\n        /* \"MLSAGVerify.sol\":13702:13990  for (v.j = 0; v.j < (v.n-1); v.j++) {\r... */\n      jump(tag_436)\n    tag_437:\n        /* \"MLSAGVerify.sol\":14128:14129  v */\n      dup2\n        /* \"MLSAGVerify.sol\":14128:14131  v.i */\n      0x40\n      add\n      mload\n        /* \"MLSAGVerify.sol\":14123:14124  1 */\n      0x1\n        /* \"MLSAGVerify.sol\":14119:14120  v */\n      dup4\n        /* \"MLSAGVerify.sol\":14119:14122  v.n */\n      0x20\n      add\n      mload\n        /* \"MLSAGVerify.sol\":14119:14124  v.n-1 */\n      sub\n        /* \"MLSAGVerify.sol\":14114:14115  v */\n      dup4\n        /* \"MLSAGVerify.sol\":14114:14117  v.m */\n      0x0\n      add\n      mload\n        /* \"MLSAGVerify.sol\":14114:14125  v.m*(v.n-1) */\n      mul\n        /* \"MLSAGVerify.sol\":14114:14131  v.m*(v.n-1) + v.i */\n      add\n        /* \"MLSAGVerify.sol\":14104:14105  v */\n      dup3\n        /* \"MLSAGVerify.sol\":14104:14111  v.index */\n      0xa0\n      add\n        /* \"MLSAGVerify.sol\":14104:14131  v.index = v.m*(v.n-1) + v.i */\n      dup2\n      dup2\n      mstore\n      pop\n      pop\n        /* \"MLSAGVerify.sol\":14146:14187  v.point1 = [P[2*v.index], P[2*v.index+1]] */\n      0x40\n      dup1\n      mload\n      swap1\n      dup2\n      add\n      0x40\n      mstore\n      dup1\n        /* \"MLSAGVerify.sol\":14158:14159  P */\n      dup7\n        /* \"MLSAGVerify.sol\":14162:14163  v */\n      dup5\n        /* \"MLSAGVerify.sol\":14162:14169  v.index */\n      0xa0\n      add\n      mload\n        /* \"MLSAGVerify.sol\":14160:14161  2 */\n      0x2\n        /* \"MLSAGVerify.sol\":14160:14169  2*v.index */\n      mul\n        /* \"MLSAGVerify.sol\":14158:14170  P[2*v.index] */\n      dup2\n      mload\n      dup2\n      lt\n      iszero\n      iszero\n      tag_443\n      jumpi\n      invalid\n    tag_443:\n      swap1\n      0x20\n      add\n      swap1\n      0x20\n      mul\n      add\n      mload\n        /* \"MLSAGVerify.sol\":14146:14187  v.point1 = [P[2*v.index], P[2*v.index+1]] */\n      dup2\n      mstore\n      0x20\n      add\n        /* \"MLSAGVerify.sol\":14172:14173  P */\n      dup7\n        /* \"MLSAGVerify.sol\":14184:14185  1 */\n      0x1\n        /* \"MLSAGVerify.sol\":14176:14177  v */\n      dup6\n        /* \"MLSAGVerify.sol\":14176:14183  v.index */\n      0xa0\n      add\n      mload\n        /* \"MLSAGVerify.sol\":14174:14175  2 */\n      0x2\n        /* \"MLSAGVerify.sol\":14174:14183  2*v.index */\n      mul\n        /* \"MLSAGVerify.sol\":14174:14185  2*v.index+1 */\n      add\n        /* \"MLSAGVerify.sol\":14172:14186  P[2*v.index+1] */\n      dup2\n      mload\n      dup2\n      lt\n      iszero\n      iszero\n      tag_444\n      jumpi\n      invalid\n    tag_444:\n      swap1\n      0x20\n      add\n      swap1\n      0x20\n      mul\n      add\n      mload\n        /* \"MLSAGVerify.sol\":14146:14187  v.point1 = [P[2*v.index], P[2*v.index+1]] */\n      dup2\n      mstore\n      pop\n        /* \"MLSAGVerify.sol\":14146:14147  v */\n      dup3\n        /* \"MLSAGVerify.sol\":14146:14154  v.point1 */\n      0xc0\n      add\n        /* \"MLSAGVerify.sol\":14146:14187  v.point1 = [P[2*v.index], P[2*v.index+1]] */\n      dup2\n      swap1\n      mstore\n      pop\n        /* \"MLSAGVerify.sol\":14246:14331  CalculateLinkableRingSegment_NoHash(v.ck, signature[v.index+1], v.point1, v.keyImage) */\n      tag_445\n        /* \"MLSAGVerify.sol\":14282:14283  v */\n      dup3\n        /* \"MLSAGVerify.sol\":14282:14286  v.ck */\n      0x80\n      add\n      mload\n        /* \"MLSAGVerify.sol\":14288:14297  signature */\n      dup6\n        /* \"MLSAGVerify.sol\":14306:14307  1 */\n      0x1\n        /* \"MLSAGVerify.sol\":14298:14299  v */\n      dup6\n        /* \"MLSAGVerify.sol\":14298:14305  v.index */\n      0xa0\n      add\n      mload\n        /* \"MLSAGVerify.sol\":14298:14307  v.index+1 */\n      add\n        /* \"MLSAGVerify.sol\":14288:14308  signature[v.index+1] */\n      dup2\n      mload\n      dup2\n      lt\n      iszero\n      iszero\n      tag_446\n      jumpi\n      invalid\n    tag_446:\n      swap1\n      0x20\n      add\n      swap1\n      0x20\n      mul\n      add\n      mload\n        /* \"MLSAGVerify.sol\":14310:14311  v */\n      dup5\n        /* \"MLSAGVerify.sol\":14310:14318  v.point1 */\n      0xc0\n      add\n      mload\n        /* \"MLSAGVerify.sol\":14320:14321  v */\n      dup6\n        /* \"MLSAGVerify.sol\":14320:14330  v.keyImage */\n      0x100\n      add\n      mload\n        /* \"MLSAGVerify.sol\":14246:14281  CalculateLinkableRingSegment_NoHash */\n      tag_78\n        /* \"MLSAGVerify.sol\":14246:14331  CalculateLinkableRingSegment_NoHash(v.ck, signature[v.index+1], v.point1, v.keyImage) */\n      jump\t// in\n    tag_445:\n        /* \"MLSAGVerify.sol\":14223:14331  (v.point1, v.point2) = CalculateLinkableRingSegment_NoHash(v.ck, signature[v.index+1], v.point1, v.keyImage) */\n      dup2\n      swap2\n      pop\n      dup1\n      swap1\n      pop\n        /* \"MLSAGVerify.sol\":14224:14225  v */\n      dup4\n        /* \"MLSAGVerify.sol\":14224:14232  v.point1 */\n      0xc0\n      add\n        /* \"MLSAGVerify.sol\":14234:14235  v */\n      dup5\n        /* \"MLSAGVerify.sol\":14234:14242  v.point2 */\n      0xe0\n      add\n        /* \"MLSAGVerify.sol\":14223:14331  (v.point1, v.point2) = CalculateLinkableRingSegment_NoHash(v.ck, signature[v.index+1], v.point1, v.keyImage) */\n      dup3\n      swap1\n      mstore\n      dup3\n      swap1\n      mstore\n      pop\n      pop\n        /* \"MLSAGVerify.sol\":14421:14422  1 */\n      0x1\n        /* \"MLSAGVerify.sol\":14419:14420  4 */\n      0x4\n        /* \"MLSAGVerify.sol\":14415:14416  v */\n      dup4\n        /* \"MLSAGVerify.sol\":14415:14418  v.i */\n      0x40\n      add\n      mload\n        /* \"MLSAGVerify.sol\":14415:14420  v.i*4 */\n      mul\n        /* \"MLSAGVerify.sol\":14415:14422  v.i*4+1 */\n      add\n        /* \"MLSAGVerify.sol\":14405:14406  v */\n      dup3\n        /* \"MLSAGVerify.sol\":14405:14412  v.index */\n      0xa0\n      add\n        /* \"MLSAGVerify.sol\":14405:14422  v.index = v.i*4+1 */\n      dup2\n      dup2\n      mstore\n      pop\n      pop\n        /* \"MLSAGVerify.sol\":14450:14451  v */\n      dup2\n        /* \"MLSAGVerify.sol\":14450:14458  v.point1 */\n      0xc0\n      add\n      mload\n        /* \"MLSAGVerify.sol\":14459:14460  0 */\n      0x0\n        /* \"MLSAGVerify.sol\":14450:14461  v.point1[0] */\n      0x2\n      dup2\n      lt\n      iszero\n      iszero\n      tag_447\n      jumpi\n      invalid\n    tag_447:\n      0x20\n      mul\n      add\n      mload\n        /* \"MLSAGVerify.sol\":14437:14438  c */\n      dup2\n        /* \"MLSAGVerify.sol\":14439:14440  v */\n      dup4\n        /* \"MLSAGVerify.sol\":14439:14446  v.index */\n      0xa0\n      add\n      mload\n        /* \"MLSAGVerify.sol\":14437:14447  c[v.index] */\n      dup2\n      mload\n      dup2\n      lt\n      iszero\n      iszero\n      tag_448\n      jumpi\n      invalid\n    tag_448:\n      swap1\n      0x20\n      add\n      swap1\n      0x20\n      mul\n      add\n        /* \"MLSAGVerify.sol\":14437:14461  c[v.index] = v.point1[0] */\n      dup2\n      dup2\n      mstore\n      pop\n      pop\n        /* \"MLSAGVerify.sol\":14491:14492  v */\n      dup2\n        /* \"MLSAGVerify.sol\":14491:14499  v.point1 */\n      0xc0\n      add\n      mload\n        /* \"MLSAGVerify.sol\":14500:14501  1 */\n      0x1\n        /* \"MLSAGVerify.sol\":14491:14502  v.point1[1] */\n      0x2\n      dup2\n      lt\n      iszero\n      iszero\n      tag_449\n      jumpi\n      invalid\n    tag_449:\n      0x20\n      mul\n      add\n      mload\n        /* \"MLSAGVerify.sol\":14476:14477  c */\n      dup2\n        /* \"MLSAGVerify.sol\":14486:14487  1 */\n      0x1\n        /* \"MLSAGVerify.sol\":14478:14479  v */\n      dup5\n        /* \"MLSAGVerify.sol\":14478:14485  v.index */\n      0xa0\n      add\n      mload\n        /* \"MLSAGVerify.sol\":14478:14487  v.index+1 */\n      add\n        /* \"MLSAGVerify.sol\":14476:14488  c[v.index+1] */\n      dup2\n      mload\n      dup2\n      lt\n      iszero\n      iszero\n      tag_450\n      jumpi\n      invalid\n    tag_450:\n      swap1\n      0x20\n      add\n      swap1\n      0x20\n      mul\n      add\n        /* \"MLSAGVerify.sol\":14476:14502  c[v.index+1] = v.point1[1] */\n      dup2\n      dup2\n      mstore\n      pop\n      pop\n        /* \"MLSAGVerify.sol\":14532:14533  v */\n      dup2\n        /* \"MLSAGVerify.sol\":14532:14540  v.point2 */\n      0xe0\n      add\n      mload\n        /* \"MLSAGVerify.sol\":14541:14542  0 */\n      0x0\n        /* \"MLSAGVerify.sol\":14532:14543  v.point2[0] */\n      0x2\n      dup2\n      lt\n      iszero\n      iszero\n      tag_451\n      jumpi\n      invalid\n    tag_451:\n      0x20\n      mul\n      add\n      mload\n        /* \"MLSAGVerify.sol\":14517:14518  c */\n      dup2\n        /* \"MLSAGVerify.sol\":14527:14528  2 */\n      0x2\n        /* \"MLSAGVerify.sol\":14519:14520  v */\n      dup5\n        /* \"MLSAGVerify.sol\":14519:14526  v.index */\n      0xa0\n      add\n      mload\n        /* \"MLSAGVerify.sol\":14519:14528  v.index+2 */\n      add\n        /* \"MLSAGVerify.sol\":14517:14529  c[v.index+2] */\n      dup2\n      mload\n      dup2\n      lt\n      iszero\n      iszero\n      tag_452\n      jumpi\n      invalid\n    tag_452:\n      swap1\n      0x20\n      add\n      swap1\n      0x20\n      mul\n      add\n        /* \"MLSAGVerify.sol\":14517:14543  c[v.index+2] = v.point2[0] */\n      dup2\n      dup2\n      mstore\n      pop\n      pop\n        /* \"MLSAGVerify.sol\":14573:14574  v */\n      dup2\n        /* \"MLSAGVerify.sol\":14573:14581  v.point2 */\n      0xe0\n      add\n      mload\n        /* \"MLSAGVerify.sol\":14582:14583  1 */\n      0x1\n        /* \"MLSAGVerify.sol\":14573:14584  v.point2[1] */\n      0x2\n      dup2\n      lt\n      iszero\n      iszero\n      tag_453\n      jumpi\n      invalid\n    tag_453:\n      0x20\n      mul\n      add\n      mload\n        /* \"MLSAGVerify.sol\":14558:14559  c */\n      dup2\n        /* \"MLSAGVerify.sol\":14568:14569  3 */\n      0x3\n        /* \"MLSAGVerify.sol\":14560:14561  v */\n      dup5\n        /* \"MLSAGVerify.sol\":14560:14567  v.index */\n      0xa0\n      add\n      mload\n        /* \"MLSAGVerify.sol\":14560:14569  v.index+3 */\n      add\n        /* \"MLSAGVerify.sol\":14558:14570  c[v.index+3] */\n      dup2\n      mload\n      dup2\n      lt\n      iszero\n      iszero\n      tag_454\n      jumpi\n      invalid\n    tag_454:\n      swap1\n      0x20\n      add\n      swap1\n      0x20\n      mul\n      add\n        /* \"MLSAGVerify.sol\":14558:14584  c[v.index+3] = v.point2[1] */\n      dup2\n      dup2\n      mstore\n      pop\n      pop\n        /* \"MLSAGVerify.sol\":13478:13479  v */\n      dup2\n        /* \"MLSAGVerify.sol\":13478:13481  v.i */\n      0x40\n      add\n        /* \"MLSAGVerify.sol\":13478:13483  v.i++ */\n      dup1\n      mload\n      dup1\n      swap2\n      swap1\n      0x1\n      add\n      dup2\n      mstore\n      pop\n      pop\n        /* \"MLSAGVerify.sol\":13453:14596  for (v.i = 0; v.i < v.m; v.i++) {\r... */\n      jump(tag_430)\n    tag_431:\n        /* \"MLSAGVerify.sol\":14744:14763  Keccak256OfArray(c) */\n      tag_455\n        /* \"MLSAGVerify.sol\":14761:14762  c */\n      dup2\n        /* \"MLSAGVerify.sol\":14744:14760  Keccak256OfArray */\n      tag_63\n        /* \"MLSAGVerify.sol\":14744:14763  Keccak256OfArray(c) */\n      jump\t// in\n    tag_455:\n        /* \"MLSAGVerify.sol\":14737:14738  v */\n      dup3\n        /* \"MLSAGVerify.sol\":14737:14741  v.ck */\n      0x80\n      add\n        /* \"MLSAGVerify.sol\":14737:14763  v.ck = Keccak256OfArray(c) */\n      dup2\n      dup2\n      mstore\n      pop\n      pop\n        /* \"MLSAGVerify.sol\":14848:14857  signature */\n      dup4\n        /* \"MLSAGVerify.sol\":14858:14859  0 */\n      0x0\n        /* \"MLSAGVerify.sol\":14848:14860  signature[0] */\n      dup2\n      mload\n      dup2\n      lt\n      iszero\n      iszero\n      tag_456\n      jumpi\n      invalid\n    tag_456:\n      swap1\n      0x20\n      add\n      swap1\n      0x20\n      mul\n      add\n      mload\n        /* \"MLSAGVerify.sol\":14840:14841  v */\n      dup3\n        /* \"MLSAGVerify.sol\":14840:14844  v.ck */\n      0x80\n      add\n      mload\n        /* \"MLSAGVerify.sol\":14840:14860  v.ck == signature[0] */\n      eq\n        /* \"MLSAGVerify.sol\":14829:14861  success = (v.ck == signature[0]) */\n      swap3\n      pop\n        /* \"MLSAGVerify.sol\":12861:14869  function VerifyMLSAG(uint256 msgHash, uint256[] I, uint256[] P, uint256[] signature)\r... */\n    tag_420:\n      pop\n      pop\n      swap5\n      swap4\n      pop\n      pop\n      pop\n      pop\n      jump\t// out\n        /* \"MLSAGVerify.sol\":5625:6359  function VerifySAG(uint256 msgHash, uint256[] P, uint256[] signature)\r... */\n    tag_105:\n        /* \"MLSAGVerify.sol\":5729:5741  bool success */\n      0x0\n        /* \"MLSAGVerify.sol\":5796:5814  Variables memory v */\n      tag_457\n      jump\t// in(tag_171)\n    tag_457:\n        /* \"MLSAGVerify.sol\":5845:5846  0 */\n      0x0\n        /* \"MLSAGVerify.sol\":5840:5841  2 */\n      0x2\n        /* \"MLSAGVerify.sol\":5829:5830  P */\n      dup6\n        /* \"MLSAGVerify.sol\":5829:5837  P.length */\n      mload\n        /* \"MLSAGVerify.sol\":5829:5841  P.length % 2 */\n      dup2\n      iszero\n      iszero\n      tag_459\n      jumpi\n      invalid\n    tag_459:\n      mod\n        /* \"MLSAGVerify.sol\":5829:5846  P.length % 2 != 0 */\n      eq\n      iszero\n        /* \"MLSAGVerify.sol\":5825:5860  if (P.length % 2 != 0) return false */\n      iszero\n      tag_460\n      jumpi\n        /* \"MLSAGVerify.sol\":5855:5860  false */\n      0x0\n        /* \"MLSAGVerify.sol\":5848:5860  return false */\n      swap2\n      pop\n      jump(tag_458)\n        /* \"MLSAGVerify.sol\":5825:5860  if (P.length % 2 != 0) return false */\n    tag_460:\n        /* \"MLSAGVerify.sol\":5889:5890  2 */\n      0x2\n        /* \"MLSAGVerify.sol\":5878:5879  P */\n      dup5\n        /* \"MLSAGVerify.sol\":5878:5886  P.length */\n      mload\n        /* \"MLSAGVerify.sol\":5878:5890  P.length / 2 */\n      dup2\n      iszero\n      iszero\n      tag_461\n      jumpi\n      invalid\n    tag_461:\n      div\n        /* \"MLSAGVerify.sol\":5871:5872  v */\n      dup2\n        /* \"MLSAGVerify.sol\":5871:5874  v.n */\n      0x20\n      add\n        /* \"MLSAGVerify.sol\":5871:5891  v.n = (P.length / 2) */\n      dup2\n      dup2\n      mstore\n      pop\n      pop\n        /* \"MLSAGVerify.sol\":5931:5932  1 */\n      0x1\n        /* \"MLSAGVerify.sol\":5927:5928  v */\n      dup2\n        /* \"MLSAGVerify.sol\":5927:5930  v.n */\n      0x20\n      add\n      mload\n        /* \"MLSAGVerify.sol\":5927:5932  v.n+1 */\n      add\n        /* \"MLSAGVerify.sol\":5906:5915  signature */\n      dup4\n        /* \"MLSAGVerify.sol\":5906:5922  signature.length */\n      mload\n        /* \"MLSAGVerify.sol\":5906:5933  signature.length != (v.n+1) */\n      eq\n      iszero\n        /* \"MLSAGVerify.sol\":5902:5947  if (signature.length != (v.n+1)) return false */\n      iszero\n      tag_462\n      jumpi\n        /* \"MLSAGVerify.sol\":5942:5947  false */\n      0x0\n        /* \"MLSAGVerify.sol\":5935:5947  return false */\n      swap2\n      pop\n      jump(tag_458)\n        /* \"MLSAGVerify.sol\":5902:5947  if (signature.length != (v.n+1)) return false */\n    tag_462:\n        /* \"MLSAGVerify.sol\":5975:5984  signature */\n      dup3\n        /* \"MLSAGVerify.sol\":5985:5986  0 */\n      0x0\n        /* \"MLSAGVerify.sol\":5975:5987  signature[0] */\n      dup2\n      mload\n      dup2\n      lt\n      iszero\n      iszero\n      tag_463\n      jumpi\n      invalid\n    tag_463:\n      swap1\n      0x20\n      add\n      swap1\n      0x20\n      mul\n      add\n      mload\n        /* \"MLSAGVerify.sol\":5968:5969  v */\n      dup2\n        /* \"MLSAGVerify.sol\":5968:5972  v.ck */\n      0x80\n      add\n        /* \"MLSAGVerify.sol\":5968:5987  v.ck = signature[0] */\n      dup2\n      dup2\n      mstore\n      pop\n      pop\n        /* \"MLSAGVerify.sol\":6049:6050  0 */\n      0x0\n        /* \"MLSAGVerify.sol\":6043:6044  v */\n      dup2\n        /* \"MLSAGVerify.sol\":6043:6046  v.i */\n      0x40\n      add\n        /* \"MLSAGVerify.sol\":6043:6050  v.i = 0 */\n      dup2\n      dup2\n      mstore\n      pop\n      pop\n        /* \"MLSAGVerify.sol\":6038:6254  for (v.i = 0; v.i < v.n; v.i++) {\r... */\n    tag_464:\n        /* \"MLSAGVerify.sol\":6058:6059  v */\n      dup1\n        /* \"MLSAGVerify.sol\":6058:6061  v.n */\n      0x20\n      add\n      mload\n        /* \"MLSAGVerify.sol\":6052:6053  v */\n      dup2\n        /* \"MLSAGVerify.sol\":6052:6055  v.i */\n      0x40\n      add\n      mload\n        /* \"MLSAGVerify.sol\":6052:6061  v.i < v.n */\n      lt\n        /* \"MLSAGVerify.sol\":6038:6254  for (v.i = 0; v.i < v.n; v.i++) {\r... */\n      iszero\n      tag_465\n      jumpi\n        /* \"MLSAGVerify.sol\":6115:6116  P */\n      dup4\n        /* \"MLSAGVerify.sol\":6119:6120  v */\n      dup2\n        /* \"MLSAGVerify.sol\":6119:6122  v.i */\n      0x40\n      add\n      mload\n        /* \"MLSAGVerify.sol\":6117:6118  2 */\n      0x2\n        /* \"MLSAGVerify.sol\":6117:6122  2*v.i */\n      mul\n        /* \"MLSAGVerify.sol\":6115:6123  P[2*v.i] */\n      dup2\n      mload\n      dup2\n      lt\n      iszero\n      iszero\n      tag_467\n      jumpi\n      invalid\n    tag_467:\n      swap1\n      0x20\n      add\n      swap1\n      0x20\n      mul\n      add\n      mload\n        /* \"MLSAGVerify.sol\":6125:6126  P */\n      dup5\n        /* \"MLSAGVerify.sol\":6133:6134  1 */\n      0x1\n        /* \"MLSAGVerify.sol\":6129:6130  v */\n      dup4\n        /* \"MLSAGVerify.sol\":6129:6132  v.i */\n      0x40\n      add\n      mload\n        /* \"MLSAGVerify.sol\":6127:6128  2 */\n      0x2\n        /* \"MLSAGVerify.sol\":6127:6132  2*v.i */\n      mul\n        /* \"MLSAGVerify.sol\":6127:6134  2*v.i+1 */\n      add\n        /* \"MLSAGVerify.sol\":6125:6135  P[2*v.i+1] */\n      dup2\n      mload\n      dup2\n      lt\n      iszero\n      iszero\n      tag_468\n      jumpi\n      invalid\n    tag_468:\n      swap1\n      0x20\n      add\n      swap1\n      0x20\n      mul\n      add\n      mload\n        /* \"MLSAGVerify.sol\":6086:6087  v */\n      dup3\n        /* \"MLSAGVerify.sol\":6086:6094  v.point1 */\n      0xc0\n      add\n      mload\n        /* \"MLSAGVerify.sol\":6095:6096  0 */\n      0x0\n        /* \"MLSAGVerify.sol\":6086:6097  v.point1[0] */\n      0x2\n      dup2\n      lt\n      iszero\n      iszero\n      tag_469\n      jumpi\n      invalid\n    tag_469:\n      0x20\n      mul\n      add\n        /* \"MLSAGVerify.sol\":6099:6100  v */\n      dup4\n        /* \"MLSAGVerify.sol\":6099:6107  v.point1 */\n      0xc0\n      add\n      mload\n        /* \"MLSAGVerify.sol\":6108:6109  1 */\n      0x1\n        /* \"MLSAGVerify.sol\":6099:6110  v.point1[1] */\n      0x2\n      dup2\n      lt\n      iszero\n      iszero\n      tag_470\n      jumpi\n      invalid\n    tag_470:\n      0x20\n      mul\n      add\n        /* \"MLSAGVerify.sol\":6085:6136  (v.point1[0], v.point1[1]) = (P[2*v.i], P[2*v.i+1]) */\n      dup3\n      dup2\n      mstore\n      pop\n      dup3\n      dup2\n      mstore\n      pop\n      pop\n      pop\n        /* \"MLSAGVerify.sol\":6179:6242  CalculateRingSegment(msgHash, v.ck, signature[v.i+1], v.point1) */\n      tag_471\n        /* \"MLSAGVerify.sol\":6200:6207  msgHash */\n      dup6\n        /* \"MLSAGVerify.sol\":6209:6210  v */\n      dup3\n        /* \"MLSAGVerify.sol\":6209:6213  v.ck */\n      0x80\n      add\n      mload\n        /* \"MLSAGVerify.sol\":6215:6224  signature */\n      dup6\n        /* \"MLSAGVerify.sol\":6229:6230  1 */\n      0x1\n        /* \"MLSAGVerify.sol\":6225:6226  v */\n      dup6\n        /* \"MLSAGVerify.sol\":6225:6228  v.i */\n      0x40\n      add\n      mload\n        /* \"MLSAGVerify.sol\":6225:6230  v.i+1 */\n      add\n        /* \"MLSAGVerify.sol\":6215:6231  signature[v.i+1] */\n      dup2\n      mload\n      dup2\n      lt\n      iszero\n      iszero\n      tag_472\n      jumpi\n      invalid\n    tag_472:\n      swap1\n      0x20\n      add\n      swap1\n      0x20\n      mul\n      add\n      mload\n        /* \"MLSAGVerify.sol\":6233:6234  v */\n      dup5\n        /* \"MLSAGVerify.sol\":6233:6241  v.point1 */\n      0xc0\n      add\n      mload\n        /* \"MLSAGVerify.sol\":6179:6199  CalculateRingSegment */\n      tag_117\n        /* \"MLSAGVerify.sol\":6179:6242  CalculateRingSegment(msgHash, v.ck, signature[v.i+1], v.point1) */\n      jump\t// in\n    tag_471:\n        /* \"MLSAGVerify.sol\":6172:6173  v */\n      dup2\n        /* \"MLSAGVerify.sol\":6172:6176  v.ck */\n      0x80\n      add\n        /* \"MLSAGVerify.sol\":6172:6242  v.ck = CalculateRingSegment(msgHash, v.ck, signature[v.i+1], v.point1) */\n      dup2\n      dup2\n      mstore\n      pop\n      pop\n        /* \"MLSAGVerify.sol\":6063:6064  v */\n      dup1\n        /* \"MLSAGVerify.sol\":6063:6066  v.i */\n      0x40\n      add\n        /* \"MLSAGVerify.sol\":6063:6068  v.i++ */\n      dup1\n      mload\n      dup1\n      swap2\n      swap1\n      0x1\n      add\n      dup2\n      mstore\n      pop\n      pop\n        /* \"MLSAGVerify.sol\":6038:6254  for (v.i = 0; v.i < v.n; v.i++) {\r... */\n      jump(tag_464)\n    tag_465:\n        /* \"MLSAGVerify.sol\":6338:6347  signature */\n      dup3\n        /* \"MLSAGVerify.sol\":6348:6349  0 */\n      0x0\n        /* \"MLSAGVerify.sol\":6338:6350  signature[0] */\n      dup2\n      mload\n      dup2\n      lt\n      iszero\n      iszero\n      tag_473\n      jumpi\n      invalid\n    tag_473:\n      swap1\n      0x20\n      add\n      swap1\n      0x20\n      mul\n      add\n      mload\n        /* \"MLSAGVerify.sol\":6330:6331  v */\n      dup2\n        /* \"MLSAGVerify.sol\":6330:6334  v.ck */\n      0x80\n      add\n      mload\n        /* \"MLSAGVerify.sol\":6330:6350  v.ck == signature[0] */\n      eq\n        /* \"MLSAGVerify.sol\":6319:6351  success = (v.ck == signature[0]) */\n      swap2\n      pop\n        /* \"MLSAGVerify.sol\":5625:6359  function VerifySAG(uint256 msgHash, uint256[] P, uint256[] signature)\r... */\n    tag_458:\n      pop\n      swap4\n      swap3\n      pop\n      pop\n      pop\n      jump\t// out\n        /* \"MLSAGVerify.sol\":1286:1447  function StartRing_NoHash(uint256 alpha)\r... */\n    tag_108:\n        /* \"MLSAGVerify.sol\":1361:1376  uint256[2] Pout */\n      tag_474\n      jump\t// in(tag_128)\n    tag_474:\n        /* \"MLSAGVerify.sol\":1401:1407  ecMath */\n      0x1\n      0x0\n      swap1\n      sload\n      swap1\n      0x100\n      exp\n      swap1\n      div\n      0xffffffffffffffffffffffffffffffffffffffff\n      and\n        /* \"MLSAGVerify.sol\":1401:1416  ecMath.Multiply */\n      0xffffffffffffffffffffffffffffffffffffffff\n      and\n      0xc025d89b\n        /* \"MLSAGVerify.sol\":1417:1423  ecMath */\n      0x1\n      0x0\n      swap1\n      sload\n      swap1\n      0x100\n      exp\n      swap1\n      div\n      0xffffffffffffffffffffffffffffffffffffffff\n      and\n        /* \"MLSAGVerify.sol\":1417:1429  ecMath.GetG1 */\n      0xffffffffffffffffffffffffffffffffffffffff\n      and\n      0xae5d39f6\n        /* \"MLSAGVerify.sol\":1417:1431  ecMath.GetG1() */\n      mload(0x40)\n      dup2\n      0xffffffff\n      and\n      0x100000000000000000000000000000000000000000000000000000000\n      mul\n      dup2\n      mstore\n      0x4\n      add\n      0x40\n      dup1\n      mload\n      dup1\n      dup4\n      sub\n      dup2\n      0x0\n      dup8\n      dup1\n      extcodesize\n      iszero\n        /* \"--CODEGEN--\":8:17   */\n      dup1\n        /* \"--CODEGEN--\":5:7   */\n      iszero\n      tag_476\n      jumpi\n        /* \"--CODEGEN--\":30:31   */\n      0x0\n        /* \"--CODEGEN--\":27:28   */\n      dup1\n        /* \"--CODEGEN--\":20:32   */\n      revert\n        /* \"--CODEGEN--\":5:7   */\n    tag_476:\n        /* \"MLSAGVerify.sol\":1417:1431  ecMath.GetG1() */\n      pop\n      gas\n      call\n      iszero\n        /* \"--CODEGEN--\":8:17   */\n      dup1\n        /* \"--CODEGEN--\":5:7   */\n      iszero\n      tag_477\n      jumpi\n        /* \"--CODEGEN--\":45:61   */\n      returndatasize\n        /* \"--CODEGEN--\":42:43   */\n      0x0\n        /* \"--CODEGEN--\":39:40   */\n      dup1\n        /* \"--CODEGEN--\":24:62   */\n      returndatacopy\n        /* \"--CODEGEN--\":77:93   */\n      returndatasize\n        /* \"--CODEGEN--\":74:75   */\n      0x0\n        /* \"--CODEGEN--\":67:94   */\n      revert\n        /* \"--CODEGEN--\":5:7   */\n    tag_477:\n        /* \"MLSAGVerify.sol\":1417:1431  ecMath.GetG1() */\n      pop\n      pop\n      pop\n      pop\n      mload(0x40)\n      returndatasize\n        /* \"--CODEGEN--\":101:105   */\n      0x1f\n        /* \"--CODEGEN--\":97:106   */\n      not\n        /* \"--CODEGEN--\":90:94   */\n      0x1f\n        /* \"--CODEGEN--\":84:88   */\n      dup3\n        /* \"--CODEGEN--\":80:95   */\n      add\n        /* \"--CODEGEN--\":76:107   */\n      and\n        /* \"--CODEGEN--\":69:74   */\n      dup3\n        /* \"--CODEGEN--\":65:108   */\n      add\n        /* \"--CODEGEN--\":126:132   */\n      dup1\n        /* \"--CODEGEN--\":120:124   */\n      0x40\n        /* \"--CODEGEN--\":113:133   */\n      mstore\n        /* \"--CODEGEN--\":0:138   */\n      pop\n        /* \"--CODEGEN--\":13:15   */\n      0x40\n        /* \"--CODEGEN--\":8:11   */\n      dup2\n        /* \"--CODEGEN--\":5:16   */\n      lt\n        /* \"--CODEGEN--\":2:4   */\n      iszero\n      tag_478\n      jumpi\n        /* \"--CODEGEN--\":29:30   */\n      0x0\n        /* \"--CODEGEN--\":26:27   */\n      dup1\n        /* \"--CODEGEN--\":19:31   */\n      revert\n        /* \"--CODEGEN--\":2:4   */\n    tag_478:\n        /* \"MLSAGVerify.sol\":1417:1431  ecMath.GetG1() */\n      dup2\n      add\n      swap1\n      dup1\n      swap2\n      swap1\n      pop\n      pop\n        /* \"MLSAGVerify.sol\":1433:1438  alpha */\n      dup5\n        /* \"MLSAGVerify.sol\":1401:1439  ecMath.Multiply(ecMath.GetG1(), alpha) */\n      mload(0x40)\n      dup4\n      0xffffffff\n      and\n      0x100000000000000000000000000000000000000000000000000000000\n      mul\n      dup2\n      mstore\n      0x4\n      add\n      dup1\n      dup4\n      mul(0x20, 0x2)\n      dup1\n      dup4\n      dup4\n        /* \"--CODEGEN--\":23:24   */\n      0x0\n        /* \"--CODEGEN--\":8:108   */\n    tag_479:\n        /* \"--CODEGEN--\":33:36   */\n      dup4\n        /* \"--CODEGEN--\":30:31   */\n      dup2\n        /* \"--CODEGEN--\":27:37   */\n      lt\n        /* \"--CODEGEN--\":8:108   */\n      iszero\n      tag_480\n      jumpi\n        /* \"--CODEGEN--\":99:100   */\n      dup1\n        /* \"--CODEGEN--\":94:97   */\n      dup3\n        /* \"--CODEGEN--\":90:101   */\n      add\n        /* \"--CODEGEN--\":84:102   */\n      mload\n        /* \"--CODEGEN--\":80:81   */\n      dup2\n        /* \"--CODEGEN--\":75:78   */\n      dup5\n        /* \"--CODEGEN--\":71:82   */\n      add\n        /* \"--CODEGEN--\":64:103   */\n      mstore\n        /* \"--CODEGEN--\":52:54   */\n      0x20\n        /* \"--CODEGEN--\":49:50   */\n      dup2\n        /* \"--CODEGEN--\":45:55   */\n      add\n        /* \"--CODEGEN--\":40:55   */\n      swap1\n      pop\n        /* \"--CODEGEN--\":8:108   */\n      jump(tag_479)\n    tag_480:\n        /* \"--CODEGEN--\":12:26   */\n      pop\n        /* \"MLSAGVerify.sol\":1401:1439  ecMath.Multiply(ecMath.GetG1(), alpha) */\n      pop\n      pop\n      pop\n      swap1\n      pop\n      add\n      dup3\n      dup2\n      mstore\n      0x20\n      add\n      swap3\n      pop\n      pop\n      pop\n      0x40\n      dup1\n      mload\n      dup1\n      dup4\n      sub\n      dup2\n      0x0\n      dup8\n      dup1\n      extcodesize\n      iszero\n        /* \"--CODEGEN--\":8:17   */\n      dup1\n        /* \"--CODEGEN--\":5:7   */\n      iszero\n      tag_482\n      jumpi\n        /* \"--CODEGEN--\":30:31   */\n      0x0\n        /* \"--CODEGEN--\":27:28   */\n      dup1\n        /* \"--CODEGEN--\":20:32   */\n      revert\n        /* \"--CODEGEN--\":5:7   */\n    tag_482:\n        /* \"MLSAGVerify.sol\":1401:1439  ecMath.Multiply(ecMath.GetG1(), alpha) */\n      pop\n      gas\n      call\n      iszero\n        /* \"--CODEGEN--\":8:17   */\n      dup1\n        /* \"--CODEGEN--\":5:7   */\n      iszero\n      tag_483\n      jumpi\n        /* \"--CODEGEN--\":45:61   */\n      returndatasize\n        /* \"--CODEGEN--\":42:43   */\n      0x0\n        /* \"--CODEGEN--\":39:40   */\n      dup1\n        /* \"--CODEGEN--\":24:62   */\n      returndatacopy\n        /* \"--CODEGEN--\":77:93   */\n      returndatasize\n        /* \"--CODEGEN--\":74:75   */\n      0x0\n        /* \"--CODEGEN--\":67:94   */\n      revert\n        /* \"--CODEGEN--\":5:7   */\n    tag_483:\n        /* \"MLSAGVerify.sol\":1401:1439  ecMath.Multiply(ecMath.GetG1(), alpha) */\n      pop\n      pop\n      pop\n      pop\n      mload(0x40)\n      returndatasize\n        /* \"--CODEGEN--\":101:105   */\n      0x1f\n        /* \"--CODEGEN--\":97:106   */\n      not\n        /* \"--CODEGEN--\":90:94   */\n      0x1f\n        /* \"--CODEGEN--\":84:88   */\n      dup3\n        /* \"--CODEGEN--\":80:95   */\n      add\n        /* \"--CODEGEN--\":76:107   */\n      and\n        /* \"--CODEGEN--\":69:74   */\n      dup3\n        /* \"--CODEGEN--\":65:108   */\n      add\n        /* \"--CODEGEN--\":126:132   */\n      dup1\n        /* \"--CODEGEN--\":120:124   */\n      0x40\n        /* \"--CODEGEN--\":113:133   */\n      mstore\n        /* \"--CODEGEN--\":0:138   */\n      pop\n        /* \"--CODEGEN--\":13:15   */\n      0x40\n        /* \"--CODEGEN--\":8:11   */\n      dup2\n        /* \"--CODEGEN--\":5:16   */\n      lt\n        /* \"--CODEGEN--\":2:4   */\n      iszero\n      tag_484\n      jumpi\n        /* \"--CODEGEN--\":29:30   */\n      0x0\n        /* \"--CODEGEN--\":26:27   */\n      dup1\n        /* \"--CODEGEN--\":19:31   */\n      revert\n        /* \"--CODEGEN--\":2:4   */\n    tag_484:\n        /* \"MLSAGVerify.sol\":1401:1439  ecMath.Multiply(ecMath.GetG1(), alpha) */\n      dup2\n      add\n      swap1\n      dup1\n      swap2\n      swap1\n      pop\n      pop\n        /* \"MLSAGVerify.sol\":1394:1439  Pout = ecMath.Multiply(ecMath.GetG1(), alpha) */\n      swap1\n      pop\n        /* \"MLSAGVerify.sol\":1286:1447  function StartRing_NoHash(uint256 alpha)\r... */\n      swap2\n      swap1\n      pop\n      jump\t// out\n        /* \"ECMathInterface.sol\":3790:3888  function ECMath_GetAddress() public constant returns (address) {\r... */\n    tag_114:\n        /* \"ECMathInterface.sol\":3844:3851  address */\n      0x0\n        /* \"ECMathInterface.sol\":3876:3882  ecMath */\n      0x1\n      0x0\n      swap1\n      sload\n      swap1\n      0x100\n      exp\n      swap1\n      div\n      0xffffffffffffffffffffffffffffffffffffffff\n      and\n        /* \"ECMathInterface.sol\":3861:3883  return address(ecMath) */\n      swap1\n      pop\n        /* \"ECMathInterface.sol\":3790:3888  function ECMath_GetAddress() public constant returns (address) {\r... */\n      swap1\n      jump\t// out\n        /* \"MLSAGVerify.sol\":1966:2248  function CalculateRingSegment(uint256 msgHash, uint256 ck, uint256 sk, uint256[2] P)\r... */\n    tag_117:\n        /* \"MLSAGVerify.sol\":2085:2096  uint256 ckp */\n      0x0\n        /* \"MLSAGVerify.sol\":2114:2136  uint256[2] memory temp */\n      tag_486\n      jump\t// in(tag_128)\n    tag_486:\n        /* \"MLSAGVerify.sol\":2154:2192  CalculateRingSegment_NoHash(ck, sk, P) */\n      tag_488\n        /* \"MLSAGVerify.sol\":2182:2184  ck */\n      dup6\n        /* \"MLSAGVerify.sol\":2186:2188  sk */\n      dup6\n        /* \"MLSAGVerify.sol\":2190:2191  P */\n      dup6\n        /* \"MLSAGVerify.sol\":2154:2181  CalculateRingSegment_NoHash */\n      tag_51\n        /* \"MLSAGVerify.sol\":2154:2192  CalculateRingSegment_NoHash(ck, sk, P) */\n      jump\t// in\n    tag_488:\n        /* \"MLSAGVerify.sol\":2147:2192  temp = CalculateRingSegment_NoHash(ck, sk, P) */\n      swap1\n      pop\n        /* \"MLSAGVerify.sol\":2209:2240  RingHashFunction(msgHash, temp) */\n      tag_489\n        /* \"MLSAGVerify.sol\":2226:2233  msgHash */\n      dup7\n        /* \"MLSAGVerify.sol\":2235:2239  temp */\n      dup3\n        /* \"MLSAGVerify.sol\":2209:2225  RingHashFunction */\n      tag_75\n        /* \"MLSAGVerify.sol\":2209:2240  RingHashFunction(msgHash, temp) */\n      jump\t// in\n    tag_489:\n        /* \"MLSAGVerify.sol\":2203:2240  ckp = RingHashFunction(msgHash, temp) */\n      swap2\n      pop\n        /* \"MLSAGVerify.sol\":1966:2248  function CalculateRingSegment(uint256 msgHash, uint256 ck, uint256 sk, uint256[2] P)\r... */\n      pop\n      swap5\n      swap4\n      pop\n      pop\n      pop\n      pop\n      jump\t// out\n        /* \"ECMathInterface.sol\":3894:4103  function ECMath_GetCodeSize() public constant returns (uint) {\r... */\n    tag_120:\n        /* \"ECMathInterface.sol\":3949:3953  uint */\n      0x0\n        /* \"ECMathInterface.sol\":3963:3977  uint code_size */\n      dup1\n        /* \"ECMathInterface.sol\":3982:3994  address addr */\n      0x0\n        /* \"ECMathInterface.sol\":3997:4016  ECMath_GetAddress() */\n      tag_491\n        /* \"ECMathInterface.sol\":3997:4014  ECMath_GetAddress */\n      tag_114\n        /* \"ECMathInterface.sol\":3997:4016  ECMath_GetAddress() */\n      jump\t// in\n    tag_491:\n        /* \"ECMathInterface.sol\":3982:4016  address addr = ECMath_GetAddress() */\n      swap1\n      pop\n        /* \"ECMathInterface.sol\":4064:4068  addr */\n      dup1\n        /* \"ECMathInterface.sol\":4052:4069  extcodesize(addr) */\n      extcodesize\n        /* \"ECMathInterface.sol\":4039:4069  code_size := extcodesize(addr) */\n      swap2\n      pop\n        /* \"ECMathInterface.sol\":4089:4098  code_size */\n      dup2\n        /* \"ECMathInterface.sol\":4082:4098  return code_size */\n      swap3\n      pop\n        /* \"ECMathInterface.sol\":3894:4103  function ECMath_GetCodeSize() public constant returns (uint) {\r... */\n      pop\n      pop\n      swap1\n      jump\t// out\n        /* \"MLSAGVerify.sol\":4405:4778  function CalculateLinkableRingSegment(uint256 msgHash, uint256 ck, uint256 sk, uint256[2] P, uint256[2] I)\r... */\n    tag_123:\n        /* \"MLSAGVerify.sol\":4546:4557  uint256 ckp */\n      0x0\n        /* \"MLSAGVerify.sol\":4575:4597  uint256[2] memory left */\n      tag_492\n      jump\t// in(tag_128)\n    tag_492:\n        /* \"MLSAGVerify.sol\":4608:4631  uint256[2] memory right */\n      tag_493\n      jump\t// in(tag_128)\n    tag_493:\n        /* \"MLSAGVerify.sol\":4658:4707  CalculateLinkableRingSegment_NoHash(ck, sk, P, I) */\n      tag_495\n        /* \"MLSAGVerify.sol\":4694:4696  ck */\n      dup8\n        /* \"MLSAGVerify.sol\":4698:4700  sk */\n      dup8\n        /* \"MLSAGVerify.sol\":4702:4703  P */\n      dup8\n        /* \"MLSAGVerify.sol\":4705:4706  I */\n      dup8\n        /* \"MLSAGVerify.sol\":4658:4693  CalculateLinkableRingSegment_NoHash */\n      tag_78\n        /* \"MLSAGVerify.sol\":4658:4707  CalculateLinkableRingSegment_NoHash(ck, sk, P, I) */\n      jump\t// in\n    tag_495:\n        /* \"MLSAGVerify.sol\":4642:4707  (left, right) = CalculateLinkableRingSegment_NoHash(ck, sk, P, I) */\n      dup1\n      swap3\n      pop\n      dup2\n      swap4\n      pop\n      pop\n      pop\n        /* \"MLSAGVerify.sol\":4724:4770  LinkableRingHashFunction(msgHash, left, right) */\n      tag_496\n        /* \"MLSAGVerify.sol\":4749:4756  msgHash */\n      dup9\n        /* \"MLSAGVerify.sol\":4758:4762  left */\n      dup4\n        /* \"MLSAGVerify.sol\":4764:4769  right */\n      dup4\n        /* \"MLSAGVerify.sol\":4724:4748  LinkableRingHashFunction */\n      tag_72\n        /* \"MLSAGVerify.sol\":4724:4770  LinkableRingHashFunction(msgHash, left, right) */\n      jump\t// in\n    tag_496:\n        /* \"MLSAGVerify.sol\":4718:4770  ckp = LinkableRingHashFunction(msgHash, left, right) */\n      swap3\n      pop\n        /* \"MLSAGVerify.sol\":4405:4778  function CalculateLinkableRingSegment(uint256 msgHash, uint256 ck, uint256 sk, uint256[2] P, uint256[2] I)\r... */\n      pop\n      pop\n      swap6\n      swap5\n      pop\n      pop\n      pop\n      pop\n      pop\n      jump\t// out\n        /* \"MLSAGVerify.sol\":8520:9218  function VerifyLSAG_Compressed(uint256 msgHash, uint256 I, uint256[] P, uint256[] signature)\r... */\n    tag_126:\n        /* \"MLSAGVerify.sol\":8647:8659  bool success */\n      0x0\n        /* \"MLSAGVerify.sol\":8677:8699  uint256[2] memory temp */\n      tag_497\n      jump\t// in(tag_128)\n    tag_497:\n        /* \"MLSAGVerify.sol\":8710:8735  uint256[] memory P_uncomp */\n      0x60\n        /* \"MLSAGVerify.sol\":8774:8799  uint256[] memory I_uncomp */\n      dup1\n        /* \"MLSAGVerify.sol\":8839:8848  uint256 i */\n      0x0\n        /* \"MLSAGVerify.sol\":8761:8762  2 */\n      0x2\n        /* \"MLSAGVerify.sol\":8752:8753  P */\n      dup8\n        /* \"MLSAGVerify.sol\":8752:8760  P.length */\n      mload\n        /* \"MLSAGVerify.sol\":8752:8762  P.length*2 */\n      mul\n        /* \"MLSAGVerify.sol\":8738:8763  new uint256[](P.length*2) */\n      mload(0x40)\n      swap1\n      dup1\n      dup3\n      mstore\n      dup1\n      0x20\n      mul\n      0x20\n      add\n      dup3\n      add\n      0x40\n      mstore\n      dup1\n      iszero\n      tag_499\n      jumpi\n      dup2\n      0x20\n      add\n        /* \"--CODEGEN--\":29:31   */\n      0x20\n        /* \"--CODEGEN--\":21:27   */\n      dup3\n        /* \"--CODEGEN--\":17:32   */\n      mul\n        /* \"--CODEGEN--\":117:121   */\n      dup1\n        /* \"--CODEGEN--\":105:115   */\n      codesize\n        /* \"--CODEGEN--\":97:103   */\n      dup4\n        /* \"--CODEGEN--\":88:122   */\n      codecopy\n        /* \"--CODEGEN--\":148:152   */\n      dup1\n        /* \"--CODEGEN--\":140:146   */\n      dup3\n        /* \"--CODEGEN--\":136:153   */\n      add\n        /* \"--CODEGEN--\":126:153   */\n      swap2\n      pop\n        /* \"--CODEGEN--\":0:157   */\n      pop\n        /* \"MLSAGVerify.sol\":8738:8763  new uint256[](P.length*2) */\n      swap1\n      pop\n    tag_499:\n      pop\n        /* \"MLSAGVerify.sol\":8710:8763  uint256[] memory P_uncomp = new uint256[](P.length*2) */\n      swap3\n      pop\n        /* \"MLSAGVerify.sol\":8816:8817  2 */\n      0x2\n        /* \"MLSAGVerify.sol\":8802:8818  new uint256[](2) */\n      mload(0x40)\n      swap1\n      dup1\n      dup3\n      mstore\n      dup1\n      0x20\n      mul\n      0x20\n      add\n      dup3\n      add\n      0x40\n      mstore\n      dup1\n      iszero\n      tag_500\n      jumpi\n      dup2\n      0x20\n      add\n        /* \"--CODEGEN--\":29:31   */\n      0x20\n        /* \"--CODEGEN--\":21:27   */\n      dup3\n        /* \"--CODEGEN--\":17:32   */\n      mul\n        /* \"--CODEGEN--\":117:121   */\n      dup1\n        /* \"--CODEGEN--\":105:115   */\n      codesize\n        /* \"--CODEGEN--\":97:103   */\n      dup4\n        /* \"--CODEGEN--\":88:122   */\n      codecopy\n        /* \"--CODEGEN--\":148:152   */\n      dup1\n        /* \"--CODEGEN--\":140:146   */\n      dup3\n        /* \"--CODEGEN--\":136:153   */\n      add\n        /* \"--CODEGEN--\":126:153   */\n      swap2\n      pop\n        /* \"--CODEGEN--\":0:157   */\n      pop\n        /* \"MLSAGVerify.sol\":8802:8818  new uint256[](2) */\n      swap1\n      pop\n    tag_500:\n      pop\n        /* \"MLSAGVerify.sol\":8774:8818  uint256[] memory I_uncomp = new uint256[](2) */\n      swap2\n      pop\n        /* \"MLSAGVerify.sol\":8868:8869  0 */\n      0x0\n        /* \"MLSAGVerify.sol\":8864:8869  i = 0 */\n      swap1\n      pop\n        /* \"MLSAGVerify.sol\":8859:9026  for (i = 0; i < P.length; i++) {\r... */\n    tag_501:\n        /* \"MLSAGVerify.sol\":8875:8876  P */\n      dup7\n        /* \"MLSAGVerify.sol\":8875:8883  P.length */\n      mload\n        /* \"MLSAGVerify.sol\":8871:8872  i */\n      dup2\n        /* \"MLSAGVerify.sol\":8871:8883  i < P.length */\n      lt\n        /* \"MLSAGVerify.sol\":8859:9026  for (i = 0; i < P.length; i++) {\r... */\n      iszero\n      tag_502\n      jumpi\n        /* \"MLSAGVerify.sol\":8912:8918  ecMath */\n      0x1\n      0x0\n      swap1\n      sload\n      swap1\n      0x100\n      exp\n      swap1\n      div\n      0xffffffffffffffffffffffffffffffffffffffff\n      and\n        /* \"MLSAGVerify.sol\":8912:8930  ecMath.ExpandPoint */\n      0xffffffffffffffffffffffffffffffffffffffff\n      and\n      0x5da7f69e\n        /* \"MLSAGVerify.sol\":8931:8932  P */\n      dup9\n        /* \"MLSAGVerify.sol\":8933:8934  i */\n      dup4\n        /* \"MLSAGVerify.sol\":8931:8935  P[i] */\n      dup2\n      mload\n      dup2\n      lt\n      iszero\n      iszero\n      tag_504\n      jumpi\n      invalid\n    tag_504:\n      swap1\n      0x20\n      add\n      swap1\n      0x20\n      mul\n      add\n      mload\n        /* \"MLSAGVerify.sol\":8912:8936  ecMath.ExpandPoint(P[i]) */\n      mload(0x40)\n      dup3\n      0xffffffff\n      and\n      0x100000000000000000000000000000000000000000000000000000000\n      mul\n      dup2\n      mstore\n      0x4\n      add\n      dup1\n      dup3\n      dup2\n      mstore\n      0x20\n      add\n      swap2\n      pop\n      pop\n      0x40\n      dup1\n      mload\n      dup1\n      dup4\n      sub\n      dup2\n      0x0\n      dup8\n      dup1\n      extcodesize\n      iszero\n        /* \"--CODEGEN--\":8:17   */\n      dup1\n        /* \"--CODEGEN--\":5:7   */\n      iszero\n      tag_505\n      jumpi\n        /* \"--CODEGEN--\":30:31   */\n      0x0\n        /* \"--CODEGEN--\":27:28   */\n      dup1\n        /* \"--CODEGEN--\":20:32   */\n      revert\n        /* \"--CODEGEN--\":5:7   */\n    tag_505:\n        /* \"MLSAGVerify.sol\":8912:8936  ecMath.ExpandPoint(P[i]) */\n      pop\n      gas\n      call\n      iszero\n        /* \"--CODEGEN--\":8:17   */\n      dup1\n        /* \"--CODEGEN--\":5:7   */\n      iszero\n      tag_506\n      jumpi\n        /* \"--CODEGEN--\":45:61   */\n      returndatasize\n        /* \"--CODEGEN--\":42:43   */\n      0x0\n        /* \"--CODEGEN--\":39:40   */\n      dup1\n        /* \"--CODEGEN--\":24:62   */\n      returndatacopy\n        /* \"--CODEGEN--\":77:93   */\n      returndatasize\n        /* \"--CODEGEN--\":74:75   */\n      0x0\n        /* \"--CODEGEN--\":67:94   */\n      revert\n        /* \"--CODEGEN--\":5:7   */\n    tag_506:\n        /* \"MLSAGVerify.sol\":8912:8936  ecMath.ExpandPoint(P[i]) */\n      pop\n      pop\n      pop\n      pop\n      mload(0x40)\n      returndatasize\n        /* \"--CODEGEN--\":101:105   */\n      0x1f\n        /* \"--CODEGEN--\":97:106   */\n      not\n        /* \"--CODEGEN--\":90:94   */\n      0x1f\n        /* \"--CODEGEN--\":84:88   */\n      dup3\n        /* \"--CODEGEN--\":80:95   */\n      add\n        /* \"--CODEGEN--\":76:107   */\n      and\n        /* \"--CODEGEN--\":69:74   */\n      dup3\n        /* \"--CODEGEN--\":65:108   */\n      add\n        /* \"--CODEGEN--\":126:132   */\n      dup1\n        /* \"--CODEGEN--\":120:124   */\n      0x40\n        /* \"--CODEGEN--\":113:133   */\n      mstore\n        /* \"--CODEGEN--\":0:138   */\n      pop\n        /* \"--CODEGEN--\":13:15   */\n      0x40\n        /* \"--CODEGEN--\":8:11   */\n      dup2\n        /* \"--CODEGEN--\":5:16   */\n      lt\n        /* \"--CODEGEN--\":2:4   */\n      iszero\n      tag_507\n      jumpi\n        /* \"--CODEGEN--\":29:30   */\n      0x0\n        /* \"--CODEGEN--\":26:27   */\n      dup1\n        /* \"--CODEGEN--\":19:31   */\n      revert\n        /* \"--CODEGEN--\":2:4   */\n    tag_507:\n        /* \"MLSAGVerify.sol\":8912:8936  ecMath.ExpandPoint(P[i]) */\n      dup2\n      add\n      swap1\n      dup1\n      swap2\n      swap1\n      pop\n      pop\n        /* \"MLSAGVerify.sol\":8905:8936  temp = ecMath.ExpandPoint(P[i]) */\n      swap4\n      pop\n        /* \"MLSAGVerify.sol\":8967:8971  temp */\n      dup4\n        /* \"MLSAGVerify.sol\":8972:8973  0 */\n      0x0\n        /* \"MLSAGVerify.sol\":8967:8974  temp[0] */\n      0x2\n      dup2\n      lt\n      iszero\n      iszero\n      tag_508\n      jumpi\n      invalid\n    tag_508:\n      0x20\n      mul\n      add\n      mload\n        /* \"MLSAGVerify.sol\":8951:8959  P_uncomp */\n      dup4\n        /* \"MLSAGVerify.sol\":8962:8963  i */\n      dup3\n        /* \"MLSAGVerify.sol\":8960:8961  2 */\n      0x2\n        /* \"MLSAGVerify.sol\":8960:8963  2*i */\n      mul\n        /* \"MLSAGVerify.sol\":8951:8964  P_uncomp[2*i] */\n      dup2\n      mload\n      dup2\n      lt\n      iszero\n      iszero\n      tag_509\n      jumpi\n      invalid\n    tag_509:\n      swap1\n      0x20\n      add\n      swap1\n      0x20\n      mul\n      add\n        /* \"MLSAGVerify.sol\":8951:8974  P_uncomp[2*i] = temp[0] */\n      dup2\n      dup2\n      mstore\n      pop\n      pop\n        /* \"MLSAGVerify.sol\":9007:9011  temp */\n      dup4\n        /* \"MLSAGVerify.sol\":9012:9013  1 */\n      0x1\n        /* \"MLSAGVerify.sol\":9007:9014  temp[1] */\n      0x2\n      dup2\n      lt\n      iszero\n      iszero\n      tag_510\n      jumpi\n      invalid\n    tag_510:\n      0x20\n      mul\n      add\n      mload\n        /* \"MLSAGVerify.sol\":8989:8997  P_uncomp */\n      dup4\n        /* \"MLSAGVerify.sol\":9002:9003  1 */\n      0x1\n        /* \"MLSAGVerify.sol\":9000:9001  i */\n      dup4\n        /* \"MLSAGVerify.sol\":8998:8999  2 */\n      0x2\n        /* \"MLSAGVerify.sol\":8998:9001  2*i */\n      mul\n        /* \"MLSAGVerify.sol\":8998:9003  2*i+1 */\n      add\n        /* \"MLSAGVerify.sol\":8989:9004  P_uncomp[2*i+1] */\n      dup2\n      mload\n      dup2\n      lt\n      iszero\n      iszero\n      tag_511\n      jumpi\n      invalid\n    tag_511:\n      swap1\n      0x20\n      add\n      swap1\n      0x20\n      mul\n      add\n        /* \"MLSAGVerify.sol\":8989:9014  P_uncomp[2*i+1] = temp[1] */\n      dup2\n      dup2\n      mstore\n      pop\n      pop\n        /* \"MLSAGVerify.sol\":8885:8888  i++ */\n      dup1\n      dup1\n      0x1\n      add\n      swap2\n      pop\n      pop\n        /* \"MLSAGVerify.sol\":8859:9026  for (i = 0; i < P.length; i++) {\r... */\n      jump(tag_501)\n    tag_502:\n        /* \"MLSAGVerify.sol\":9053:9059  ecMath */\n      0x1\n      0x0\n      swap1\n      sload\n      swap1\n      0x100\n      exp\n      swap1\n      div\n      0xffffffffffffffffffffffffffffffffffffffff\n      and\n        /* \"MLSAGVerify.sol\":9053:9071  ecMath.ExpandPoint */\n      0xffffffffffffffffffffffffffffffffffffffff\n      and\n      0x5da7f69e\n        /* \"MLSAGVerify.sol\":9072:9073  I */\n      dup10\n        /* \"MLSAGVerify.sol\":9053:9074  ecMath.ExpandPoint(I) */\n      mload(0x40)\n      dup3\n      0xffffffff\n      and\n      0x100000000000000000000000000000000000000000000000000000000\n      mul\n      dup2\n      mstore\n      0x4\n      add\n      dup1\n      dup3\n      dup2\n      mstore\n      0x20\n      add\n      swap2\n      pop\n      pop\n      0x40\n      dup1\n      mload\n      dup1\n      dup4\n      sub\n      dup2\n      0x0\n      dup8\n      dup1\n      extcodesize\n      iszero\n        /* \"--CODEGEN--\":8:17   */\n      dup1\n        /* \"--CODEGEN--\":5:7   */\n      iszero\n      tag_512\n      jumpi\n        /* \"--CODEGEN--\":30:31   */\n      0x0\n        /* \"--CODEGEN--\":27:28   */\n      dup1\n        /* \"--CODEGEN--\":20:32   */\n      revert\n        /* \"--CODEGEN--\":5:7   */\n    tag_512:\n        /* \"MLSAGVerify.sol\":9053:9074  ecMath.ExpandPoint(I) */\n      pop\n      gas\n      call\n      iszero\n        /* \"--CODEGEN--\":8:17   */\n      dup1\n        /* \"--CODEGEN--\":5:7   */\n      iszero\n      tag_513\n      jumpi\n        /* \"--CODEGEN--\":45:61   */\n      returndatasize\n        /* \"--CODEGEN--\":42:43   */\n      0x0\n        /* \"--CODEGEN--\":39:40   */\n      dup1\n        /* \"--CODEGEN--\":24:62   */\n      returndatacopy\n        /* \"--CODEGEN--\":77:93   */\n      returndatasize\n        /* \"--CODEGEN--\":74:75   */\n      0x0\n        /* \"--CODEGEN--\":67:94   */\n      revert\n        /* \"--CODEGEN--\":5:7   */\n    tag_513:\n        /* \"MLSAGVerify.sol\":9053:9074  ecMath.ExpandPoint(I) */\n      pop\n      pop\n      pop\n      pop\n      mload(0x40)\n      returndatasize\n        /* \"--CODEGEN--\":101:105   */\n      0x1f\n        /* \"--CODEGEN--\":97:106   */\n      not\n        /* \"--CODEGEN--\":90:94   */\n      0x1f\n        /* \"--CODEGEN--\":84:88   */\n      dup3\n        /* \"--CODEGEN--\":80:95   */\n      add\n        /* \"--CODEGEN--\":76:107   */\n      and\n        /* \"--CODEGEN--\":69:74   */\n      dup3\n        /* \"--CODEGEN--\":65:108   */\n      add\n        /* \"--CODEGEN--\":126:132   */\n      dup1\n        /* \"--CODEGEN--\":120:124   */\n      0x40\n        /* \"--CODEGEN--\":113:133   */\n      mstore\n        /* \"--CODEGEN--\":0:138   */\n      pop\n        /* \"--CODEGEN--\":13:15   */\n      0x40\n        /* \"--CODEGEN--\":8:11   */\n      dup2\n        /* \"--CODEGEN--\":5:16   */\n      lt\n        /* \"--CODEGEN--\":2:4   */\n      iszero\n      tag_514\n      jumpi\n        /* \"--CODEGEN--\":29:30   */\n      0x0\n        /* \"--CODEGEN--\":26:27   */\n      dup1\n        /* \"--CODEGEN--\":19:31   */\n      revert\n        /* \"--CODEGEN--\":2:4   */\n    tag_514:\n        /* \"MLSAGVerify.sol\":9053:9074  ecMath.ExpandPoint(I) */\n      dup2\n      add\n      swap1\n      dup1\n      swap2\n      swap1\n      pop\n      pop\n        /* \"MLSAGVerify.sol\":9046:9074  temp = ecMath.ExpandPoint(I) */\n      swap4\n      pop\n        /* \"MLSAGVerify.sol\":9115:9119  temp */\n      dup4\n        /* \"MLSAGVerify.sol\":9120:9121  0 */\n      0x0\n        /* \"MLSAGVerify.sol\":9115:9122  temp[0] */\n      0x2\n      dup2\n      lt\n      iszero\n      iszero\n      tag_515\n      jumpi\n      invalid\n    tag_515:\n      0x20\n      mul\n      add\n      mload\n        /* \"MLSAGVerify.sol\":9124:9128  temp */\n      dup5\n        /* \"MLSAGVerify.sol\":9129:9130  1 */\n      0x1\n        /* \"MLSAGVerify.sol\":9124:9131  temp[1] */\n      0x2\n      dup2\n      lt\n      iszero\n      iszero\n      tag_516\n      jumpi\n      invalid\n    tag_516:\n      0x20\n      mul\n      add\n      mload\n        /* \"MLSAGVerify.sol\":9086:9094  I_uncomp */\n      dup4\n        /* \"MLSAGVerify.sol\":9095:9096  0 */\n      0x0\n        /* \"MLSAGVerify.sol\":9086:9097  I_uncomp[0] */\n      dup2\n      mload\n      dup2\n      lt\n      iszero\n      iszero\n      tag_517\n      jumpi\n      invalid\n    tag_517:\n      swap1\n      0x20\n      add\n      swap1\n      0x20\n      mul\n      add\n        /* \"MLSAGVerify.sol\":9099:9107  I_uncomp */\n      dup5\n        /* \"MLSAGVerify.sol\":9108:9109  1 */\n      0x1\n        /* \"MLSAGVerify.sol\":9099:9110  I_uncomp[1] */\n      dup2\n      mload\n      dup2\n      lt\n      iszero\n      iszero\n      tag_518\n      jumpi\n      invalid\n    tag_518:\n      swap1\n      0x20\n      add\n      swap1\n      0x20\n      mul\n      add\n        /* \"MLSAGVerify.sol\":9085:9132  (I_uncomp[0], I_uncomp[1]) = (temp[0], temp[1]) */\n      dup3\n      dup2\n      mstore\n      pop\n      dup3\n      dup2\n      mstore\n      pop\n      pop\n      pop\n        /* \"MLSAGVerify.sol\":9160:9210  VerifyLSAG(msgHash, I_uncomp, P_uncomp, signature) */\n      tag_519\n        /* \"MLSAGVerify.sol\":9171:9178  msgHash */\n      dup10\n        /* \"MLSAGVerify.sol\":9180:9188  I_uncomp */\n      dup4\n        /* \"MLSAGVerify.sol\":9190:9198  P_uncomp */\n      dup6\n        /* \"MLSAGVerify.sol\":9200:9209  signature */\n      dup10\n        /* \"MLSAGVerify.sol\":9160:9170  VerifyLSAG */\n      tag_36\n        /* \"MLSAGVerify.sol\":9160:9210  VerifyLSAG(msgHash, I_uncomp, P_uncomp, signature) */\n      jump\t// in\n    tag_519:\n        /* \"MLSAGVerify.sol\":9153:9210  return VerifyLSAG(msgHash, I_uncomp, P_uncomp, signature) */\n      swap5\n      pop\n        /* \"MLSAGVerify.sol\":8520:9218  function VerifyLSAG_Compressed(uint256 msgHash, uint256 I, uint256[] P, uint256[] signature)\r... */\n      pop\n      pop\n      pop\n      pop\n      swap5\n      swap4\n      pop\n      pop\n      pop\n      pop\n      jump\t// out\n        /* \"MLSAGVerify.sol\":91:16066  contract MLSAGVerify is ECMathInterface {\r... */\n    tag_128:\n      0x40\n      dup1\n      mload\n      swap1\n      dup2\n      add\n      0x40\n      mstore\n      dup1\n      0x2\n      swap1\n        /* \"--CODEGEN--\":29:31   */\n      0x20\n        /* \"--CODEGEN--\":21:27   */\n      dup3\n        /* \"--CODEGEN--\":17:32   */\n      mul\n        /* \"--CODEGEN--\":117:121   */\n      dup1\n        /* \"--CODEGEN--\":105:115   */\n      codesize\n        /* \"--CODEGEN--\":97:103   */\n      dup4\n        /* \"--CODEGEN--\":88:122   */\n      codecopy\n        /* \"--CODEGEN--\":148:152   */\n      dup1\n        /* \"--CODEGEN--\":140:146   */\n      dup3\n        /* \"--CODEGEN--\":136:153   */\n      add\n        /* \"--CODEGEN--\":126:153   */\n      swap2\n      pop\n        /* \"--CODEGEN--\":0:157   */\n      pop\n        /* \"MLSAGVerify.sol\":91:16066  contract MLSAGVerify is ECMathInterface {\r... */\n      swap1\n      pop\n      pop\n      swap1\n      jump\t// out\n    tag_171:\n      0x180\n      mload(0x40)\n      swap1\n      dup2\n      add\n      0x40\n      mstore\n      dup1\n      0x0\n      dup2\n      mstore\n      0x20\n      add\n      0x0\n      dup2\n      mstore\n      0x20\n      add\n      0x0\n      dup2\n      mstore\n      0x20\n      add\n      0x0\n      dup2\n      mstore\n      0x20\n      add\n      0x0\n      dup2\n      mstore\n      0x20\n      add\n      0x0\n      dup2\n      mstore\n      0x20\n      add\n      tag_520\n      jump\t// in(tag_521)\n    tag_520:\n      dup2\n      mstore\n      0x20\n      add\n      tag_522\n      jump\t// in(tag_521)\n    tag_522:\n      dup2\n      mstore\n      0x20\n      add\n      tag_523\n      jump\t// in(tag_521)\n    tag_523:\n      dup2\n      mstore\n      pop\n      swap1\n      jump\t// out\n    tag_268:\n      0x20\n      mload(0x40)\n      swap1\n      dup2\n      add\n      0x40\n      mstore\n      dup1\n      0x1\n      swap1\n        /* \"--CODEGEN--\":29:31   */\n      0x20\n        /* \"--CODEGEN--\":21:27   */\n      dup3\n        /* \"--CODEGEN--\":17:32   */\n      mul\n        /* \"--CODEGEN--\":117:121   */\n      dup1\n        /* \"--CODEGEN--\":105:115   */\n      codesize\n        /* \"--CODEGEN--\":97:103   */\n      dup4\n        /* \"--CODEGEN--\":88:122   */\n      codecopy\n        /* \"--CODEGEN--\":148:152   */\n      dup1\n        /* \"--CODEGEN--\":140:146   */\n      dup3\n        /* \"--CODEGEN--\":136:153   */\n      add\n        /* \"--CODEGEN--\":126:153   */\n      swap2\n      pop\n        /* \"--CODEGEN--\":0:157   */\n      pop\n        /* \"MLSAGVerify.sol\":91:16066  contract MLSAGVerify is ECMathInterface {\r... */\n      swap1\n      pop\n      pop\n      swap1\n      jump\t// out\n    tag_521:\n      0x40\n      dup1\n      mload\n      swap1\n      dup2\n      add\n      0x40\n      mstore\n      dup1\n      0x2\n      swap1\n        /* \"--CODEGEN--\":29:31   */\n      0x20\n        /* \"--CODEGEN--\":21:27   */\n      dup3\n        /* \"--CODEGEN--\":17:32   */\n      mul\n        /* \"--CODEGEN--\":117:121   */\n      dup1\n        /* \"--CODEGEN--\":105:115   */\n      codesize\n        /* \"--CODEGEN--\":97:103   */\n      dup4\n        /* \"--CODEGEN--\":88:122   */\n      codecopy\n        /* \"--CODEGEN--\":148:152   */\n      dup1\n        /* \"--CODEGEN--\":140:146   */\n      dup3\n        /* \"--CODEGEN--\":136:153   */\n      add\n        /* \"--CODEGEN--\":126:153   */\n      swap2\n      pop\n        /* \"--CODEGEN--\":0:157   */\n      pop\n        /* \"MLSAGVerify.sol\":91:16066  contract MLSAGVerify is ECMathInterface {\r... */\n      swap1\n      pop\n      pop\n      swap1\n      jump\t// out\n\n    auxdata: 0xa165627a7a72305820aada2f4c302f892e7f4c77e27b061ad863e12d25c425936f1a9887a1f2f5eba20029\n}\n",
				"bytecode": {
					"linkReferences": {},
					"object": "60806040523480156200001157600080fd5b506040516020806200489b8339810180604052810190808051906020019092919050505080336000806101000a81548173ffffffffffffffffffffffffffffffffffffffff021916908373ffffffffffffffffffffffffffffffffffffffff160217905550620000908162000098640100000000026401000000009004565b505062000219565b6000809054906101000a900473ffffffffffffffffffffffffffffffffffffffff1673ffffffffffffffffffffffffffffffffffffffff163373ffffffffffffffffffffffffffffffffffffffff16141580156200012e575060008060009054906101000a900473ffffffffffffffffffffffffffffffffffffffff1673ffffffffffffffffffffffffffffffffffffffff1614155b156200013957600080fd5b80600160006101000a81548173ffffffffffffffffffffffffffffffffffffffff021916908373ffffffffffffffffffffffffffffffffffffffff1602179055507f7cc5320aa18fb40c93aed6f76ae28088a8aaf67a112e0ca55367cd087b21802f8160405180806020018373ffffffffffffffffffffffffffffffffffffffff1673ffffffffffffffffffffffffffffffffffffffff168152602001828103825260068152602001807f45434d61746800000000000000000000000000000000000000000000000000008152506020019250505060405180910390a150565b61467280620002296000396000f300608060405260043610610154576000357c0100000000000000000000000000000000000000000000000000000000900463ffffffff168063066d1749146101595780630813d72a14610224578063200fc39c1461033257806326e37ec5146104405780632d57f6e71461048b578063364904581461055257806338f3e171146105f457806344fc0c931461066e578063490ee1cb146107435780634f2ce9a3146107bd5780635c859d09146108925780636fb015cc146108e757806381b4ef311461098657806388c01ed8146109f65780638da5cb5b14610af65780639c8fda7214610b4d578063a3d5329814610b90578063be26733c14610bf9578063c17065d014610c10578063c4e8e6a614610d1e578063c8fc7ca814610de9578063cba51ff314610e52578063db8c735e14610ea9578063efd6b30614610f2d578063f8c8b0ca14610f58578063ff7d69a81461100b575b600080fd5b34801561016557600080fd5b5061020a6004803603810190808035906020019092919080359060200190820180359060200190808060200260200160405190810160405280939291908181526020018383602002808284378201915050505050509192919290803590602001908201803590602001908080602002602001604051908101604052809392919081815260200183836020028082843782019150505050505091929192905050506110e0565b604051808215151515815260200191505060405180910390f35b34801561023057600080fd5b50610318600480360381019080803590602001909291908035906020019082018035906020019080806020026020016040519081016040528093929190818152602001838360200280828437820191505050505050919291929080359060200190820180359060200190808060200260200160405190810160405280939291908181526020018383602002808284378201915050505050509192919290803590602001908201803590602001908080602002602001604051908101604052809392919081815260200183836020028082843782019150505050505091929192905050506112a9565b604051808215151515815260200191505060405180910390f35b34801561033e57600080fd5b506104266004803603810190808035906020019092919080359060200190820180359060200190808060200260200160405190810160405280939291908181526020018383602002808284378201915050505050509192919290803590602001908201803590602001908080602002602001604051908101604052809392919081815260200183836020028082843782019150505050505091929192908035906020019082018035906020019080806020026020016040519081016040528093929190818152602001838360200280828437820191505050505050919291929050505061161a565b604051808215151515815260200191505060405180910390f35b34801561044c57600080fd5b50610475600480360381019080803590602001909291908035906020019092919050505061182d565b6040518082815260200191505060405180910390f35b34801561049757600080fd5b506104e5600480360381019080803590602001909291908060400190600280602002604051908101604052809291908260026020028082843782019150505050509192919290505050611849565b6040518083600260200280838360005b838110156105105780820151818401526020810190506104f5565b5050505090500182600260200280838360005b8381101561053e578082015181840152602081019050610523565b505050509050019250505060405180910390f35b34801561055e57600080fd5b506105b660048036038101908080359060200190929190803590602001909291908060400190600280602002604051908101604052809291908260026020028082843782019150505050509192919290505050611c26565b6040518082600260200280838360005b838110156105e15780820151818401526020810190506105c6565b5050505090500191505060405180910390f35b34801561060057600080fd5b5061065860048036038101908080359060200190929190803590602001909291908060400190600280602002604051908101604052809291908260026020028082843782019150505050509192919290505050612034565b6040518082815260200191505060405180910390f35b34801561067a57600080fd5b506107296004803603810190808035906020019092919080359060200190929190803590602001908201803590602001908080602002602001604051908101604052809392919081815260200183836020028082843782019150505050505091929192908035906020019082018035906020019080806020026020016040519081016040528093929190818152602001838360200280828437820191505050505050919291929050505061206e565b604051808215151515815260200191505060405180910390f35b34801561074f57600080fd5b506107a760048036038101908080359060200190820180359060200190808060200260200160405190810160405280939291908181526020018383602002808284378201915050505050509192919290505050612239565b6040518082815260200191505060405180910390f35b3480156107c957600080fd5b5061087860048036038101908080359060200190929190803590602001909291908035906020019082018035906020019080806020026020016040519081016040528093929190818152602001838360200280828437820191505050505050919291929080359060200190820180359060200190808060200260200160405190810160405280939291908181526020018383602002808284378201915050505050509192919290505050612277565b604051808215151515815260200191505060405180910390f35b34801561089e57600080fd5b506108d1600480360381019080803590602001909291908035906020019092919080359060200190929190505050612633565b6040518082815260200191505060405180910390f35b3480156108f357600080fd5b50610970600480360381019080803590602001909291908060400190600280602002604051908101604052809291908260026020028082843782019150505050509192919290806040019060028060200260405190810160405280929190826002602002808284378201915050505050919291929050505061289f565b6040518082815260200191505060405180910390f35b34801561099257600080fd5b506109e06004803603810190808035906020019092919080604001906002806020026040519081016040528092919082600260200280828437820191505050505091929192905050506129fb565b6040518082815260200191505060405180910390f35b348015610a0257600080fd5b50610a89600480360381019080803590602001909291908035906020019092919080604001906002806020026040519081016040528092919082600260200280828437820191505050505091929192908060400190600280602002604051908101604052809291908260026020028082843782019150505050509192919290505050612b20565b6040518083600260200280838360005b83811015610ab4578082015181840152602081019050610a99565b5050505090500182600260200280838360005b83811015610ae2578082015181840152602081019050610ac7565b505050509050019250505060405180910390f35b348015610b0257600080fd5b50610b0b613364565b604051808273ffffffffffffffffffffffffffffffffffffffff1673ffffffffffffffffffffffffffffffffffffffff16815260200191505060405180910390f35b348015610b5957600080fd5b50610b8e600480360381019080803573ffffffffffffffffffffffffffffffffffffffff169060200190929190505050613389565b005b348015610b9c57600080fd5b50610bbb60048036038101908080359060200190929190505050613508565b6040518082600260200280838360005b83811015610be6578082015181840152602081019050610bcb565b5050505090500191505060405180910390f35b348015610c0557600080fd5b50610c0e6138e7565b005b348015610c1c57600080fd5b50610d046004803603810190808035906020019092919080359060200190820180359060200190808060200260200160405190810160405280939291908181526020018383602002808284378201915050505050509192919290803590602001908201803590602001908080602002602001604051908101604052809392919081815260200183836020028082843782019150505050505091929192908035906020019082018035906020019080806020026020016040519081016040528093929190818152602001838360200280828437820191505050505050919291929050505061399f565b604051808215151515815260200191505060405180910390f35b348015610d2a57600080fd5b50610dcf600480360381019080803590602001909291908035906020019082018035906020019080806020026020016040519081016040528093929190818152602001838360200280828437820191505050505050919291929080359060200190820180359060200190808060200260200160405190810160405280939291908181526020018383602002808284378201915050505050509192919290505050613e3b565b604051808215151515815260200191505060405180910390f35b348015610df557600080fd5b50610e1460048036038101908080359060200190929190505050613fc7565b6040518082600260200280838360005b83811015610e3f578082015181840152602081019050610e24565b5050505090500191505060405180910390f35b348015610e5e57600080fd5b50610e6761419c565b604051808273ffffffffffffffffffffffffffffffffffffffff1673ffffffffffffffffffffffffffffffffffffffff16815260200191505060405180910390f35b348015610eb557600080fd5b50610f1760048036038101908080359060200190929190803590602001909291908035906020019092919080604001906002806020026040519081016040528092919082600260200280828437820191505050505091929192905050506141c6565b6040518082815260200191505060405180910390f35b348015610f3957600080fd5b50610f426141f2565b6040518082815260200191505060405180910390f35b348015610f6457600080fd5b50610ff56004803603810190808035906020019092919080359060200190929190803590602001909291908060400190600280602002604051908101604052809291908260026020028082843782019150505050509192919290806040019060028060200260405190810160405280929190826002602002808284378201915050505050919291929050505061420d565b6040518082815260200191505060405180910390f35b34801561101757600080fd5b506110c66004803603810190808035906020019092919080359060200190929190803590602001908201803590602001908080602002602001604051908101604052809392919081815260200183836020028082843782019150505050505091929192908035906020019082018035906020019080806020026020016040519081016040528093929190818152602001838360200280828437820191505050505050919291929050505061424b565b604051808215151515815260200191505060405180910390f35b60006110ea614580565b6060600060028651026040519080825280602002602001820160405280156111215781602001602082028038833980820191505090505b509150600090505b855181101561129257600160009054906101000a900473ffffffffffffffffffffffffffffffffffffffff1673ffffffffffffffffffffffffffffffffffffffff16635da7f69e878381518110151561117e57fe5b906020019060200201516040518263ffffffff167c0100000000000000000000000000000000000000000000000000000000028152600401808281526020019150506040805180830381600087803b1580156111d957600080fd5b505af11580156111ed573d6000803e3d6000fd5b505050506040513d601f19601f82011682018060405250604081101561121257600080fd5b8101908091905050925082600060028110151561122b57fe5b6020020151828260020281518110151561124157fe5b906020019060200201818152505082600160028110151561125e57fe5b6020020151826001836002020181518110151561127757fe5b90602001906020020181815250508080600101915050611129565b61129d878387613e3b565b93505050509392505050565b60006112b3614580565b606080600060028751026040519080825280602002602001820160405280156112eb5781602001602082028038833980820191505090505b50925060028851026040519080825280602002602001820160405280156113215781602001602082028038833980820191505090505b509150600090505b865181101561149257600160009054906101000a900473ffffffffffffffffffffffffffffffffffffffff1673ffffffffffffffffffffffffffffffffffffffff16635da7f69e888381518110151561137e57fe5b906020019060200201516040518263ffffffff167c0100000000000000000000000000000000000000000000000000000000028152600401808281526020019150506040805180830381600087803b1580156113d957600080fd5b505af11580156113ed573d6000803e3d6000fd5b505050506040513d601f19601f82011682018060405250604081101561141257600080fd5b8101908091905050935083600060028110151561142b57fe5b6020020151838260020281518110151561144157fe5b906020019060200201818152505083600160028110151561145e57fe5b6020020151836001836002020181518110151561147757fe5b90602001906020020181815250508080600101915050611329565b600090505b875181101561160057600160009054906101000a900473ffffffffffffffffffffffffffffffffffffffff1673ffffffffffffffffffffffffffffffffffffffff16635da7f69e89838151811015156114ec57fe5b906020019060200201516040518263ffffffff167c0100000000000000000000000000000000000000000000000000000000028152600401808281526020019150506040805180830381600087803b15801561154757600080fd5b505af115801561155b573d6000803e3d6000fd5b505050506040513d601f19601f82011682018060405250604081101561158057600080fd5b8101908091905050935083600060028110151561159957fe5b602002015182826002028151811015156115af57fe5b90602001906020020181815250508360016002811015156115cc57fe5b602002015182600183600202018151811015156115e557fe5b90602001906020020181815250508080600101915050611497565b61160c8983858961399f565b945050505050949350505050565b60006116246145a2565b600285511415156116385760009150611824565b60006002855181151561164757fe5b061415156116585760009150611824565b6002845181151561166557fe5b04816020018181525050600181602001510183511415156116895760009150611824565b82600081518110151561169857fe5b906020019060200201518160800181815250508460008151811015156116ba57fe5b906020019060200201518560018151811015156116d357fe5b9060200190602002015182610100015160006002811015156116f157fe5b60200201836101000151600160028110151561170957fe5b602002018281525082815250505060008160400181815250505b8060200151816040015110156118025783816040015160020281518110151561174857fe5b9060200190602002015184600183604001516002020181518110151561176a57fe5b906020019060200201518260c00151600060028110151561178757fe5b602002018360c00151600160028110151561179e57fe5b60200201828152508281525050506117e48682608001518560018560400151018151811015156117ca57fe5b906020019060200201518460c0015185610100015161420d565b81608001818152505080604001805180919060010181525050611723565b82600081518110151561181157fe5b9060200190602002015181608001511491505b50949350505050565b60006118418361183c84613fc7565b6129fb565b905092915050565b611851614580565b611859614580565b600160009054906101000a900473ffffffffffffffffffffffffffffffffffffffff1673ffffffffffffffffffffffffffffffffffffffff1663c025d89b600160009054906101000a900473ffffffffffffffffffffffffffffffffffffffff1673ffffffffffffffffffffffffffffffffffffffff1663ae5d39f66040518163ffffffff167c01000000000000000000000000000000000000000000000000000000000281526004016040805180830381600087803b15801561191c57600080fd5b505af1158015611930573d6000803e3d6000fd5b505050506040513d601f19601f82011682018060405250604081101561195557600080fd5b8101908091905050866040518363ffffffff167c01000000000000000000000000000000000000000000000000000000000281526004018083600260200280838360005b838110156119b4578082015181840152602081019050611999565b50505050905001828152602001925050506040805180830381600087803b1580156119de57600080fd5b505af11580156119f2573d6000803e3d6000fd5b505050506040513d601f19601f820116820180604052506040811015611a1757600080fd5b81019080919050509150600160009054906101000a900473ffffffffffffffffffffffffffffffffffffffff1673ffffffffffffffffffffffffffffffffffffffff16636032fc3f846040518263ffffffff167c01000000000000000000000000000000000000000000000000000000000281526004018082600260200280838360005b83811015611ab6578082015181840152602081019050611a9b565b505050509050019150506040805180830381600087803b158015611ad957600080fd5b505af1158015611aed573d6000803e3d6000fd5b505050506040513d601f19601f820116820180604052506040811015611b1257600080fd5b81019080919050509050600160009054906101000a900473ffffffffffffffffffffffffffffffffffffffff1673ffffffffffffffffffffffffffffffffffffffff1663c025d89b82866040518363ffffffff167c01000000000000000000000000000000000000000000000000000000000281526004018083600260200280838360005b83811015611bb2578082015181840152602081019050611b97565b50505050905001828152602001925050506040805180830381600087803b158015611bdc57600080fd5b505af1158015611bf0573d6000803e3d6000fd5b505050506040513d601f19601f820116820180604052506040811015611c1557600080fd5b810190809190505090509250929050565b611c2e614580565b611c36614580565b600160009054906101000a900473ffffffffffffffffffffffffffffffffffffffff1673ffffffffffffffffffffffffffffffffffffffff1663c025d89b600160009054906101000a900473ffffffffffffffffffffffffffffffffffffffff1673ffffffffffffffffffffffffffffffffffffffff1663ae5d39f66040518163ffffffff167c01000000000000000000000000000000000000000000000000000000000281526004016040805180830381600087803b158015611cf957600080fd5b505af1158015611d0d573d6000803e3d6000fd5b505050506040513d601f19601f820116820180604052506040811015611d3257600080fd5b8101908091905050866040518363ffffffff167c01000000000000000000000000000000000000000000000000000000000281526004018083600260200280838360005b83811015611d91578082015181840152602081019050611d76565b50505050905001828152602001925050506040805180830381600087803b158015611dbb57600080fd5b505af1158015611dcf573d6000803e3d6000fd5b505050506040513d601f19601f820116820180604052506040811015611df457600080fd5b81019080919050509150600160009054906101000a900473ffffffffffffffffffffffffffffffffffffffff1673ffffffffffffffffffffffffffffffffffffffff1663c025d89b84876040518363ffffffff167c01000000000000000000000000000000000000000000000000000000000281526004018083600260200280838360005b83811015611e94578082015181840152602081019050611e79565b50505050905001828152602001925050506040805180830381600087803b158015611ebe57600080fd5b505af1158015611ed2573d6000803e3d6000fd5b505050506040513d601f19601f820116820180604052506040811015611ef757600080fd5b81019080919050509050600160009054906101000a900473ffffffffffffffffffffffffffffffffffffffff1673ffffffffffffffffffffffffffffffffffffffff16630c753fe883836040518363ffffffff167c01000000000000000000000000000000000000000000000000000000000281526004018083600260200280838360005b83811015611f97578082015181840152602081019050611f7c565b5050505090500182600260200280838360005b83811015611fc5578082015181840152602081019050611faa565b50505050905001925050506040805180830381600087803b158015611fe957600080fd5b505af1158015611ffd573d6000803e3d6000fd5b505050506040513d601f19601f82011682018060405250604081101561202257600080fd5b81019080919050509150509392505050565b600061203e614580565b612046614580565b6120508585611849565b809250819350505061206386838361289f565b925050509392505050565b6000612078614580565b6060600060028651026040519080825280602002602001820160405280156120af5781602001602082028038833980820191505090505b509150600090505b855181101561222057600160009054906101000a900473ffffffffffffffffffffffffffffffffffffffff1673ffffffffffffffffffffffffffffffffffffffff16635da7f69e878381518110151561210c57fe5b906020019060200201516040518263ffffffff167c0100000000000000000000000000000000000000000000000000000000028152600401808281526020019150506040805180830381600087803b15801561216757600080fd5b505af115801561217b573d6000803e3d6000fd5b505050506040513d601f19601f8201168201806040525060408110156121a057600080fd5b810190809190505092508260006002811015156121b957fe5b602002015182826002028151811015156121cf57fe5b90602001906020020181815250508260016002811015156121ec57fe5b6020020151826001836002020181518110151561220557fe5b906020019060200201818152505080806001019150506120b7565b61222c88888488612277565b9350505050949350505050565b600080612244614601565b8351915060405160208084020181528051852082525080600060018110151561226957fe5b602002015192505050919050565b60006122816145a2565b6060868260000181815250506000826000015160020286518115156122a257fe5b061415156122b35760009250612629565b816000015160020285518115156122c657fe5b04826020018181525050600182602001518360000151020184511415156122f05760009250612629565b60018260000151600202016040519080825280602002602001820160405280156123295781602001602082028038833980820191505090505b5090508581600081518110151561233c57fe5b906020019060200201818152505060008260400181815250505b8160000151826040015110156125f55783600081518110151561237557fe5b9060200190602002015182608001818152505060008260600181815250505b60018260200151038260600151101561248a5781604001518260600151836000015102018260a0018181525050848260a001516002028151811015156123d657fe5b906020019060200201518560018460a00151600202018151811015156123f857fe5b906020019060200201518360c00151600060028110151561241557fe5b602002018460c00151600160028110151561242c57fe5b602002018281525082815250505061246c8683608001518660018660a001510181518110151561245857fe5b906020019060200201518560c001516141c6565b82608001818152505081606001805180919060010181525050612394565b81604001516001836020015103836000015102018260a0018181525050848260a001516002028151811015156124bc57fe5b906020019060200201518560018460a00151600202018151811015156124de57fe5b906020019060200201518360c0015160006002811015156124fb57fe5b602002018460c00151600160028110151561251257fe5b602002018281525082815250505061255182608001518560018560a001510181518110151561253d57fe5b906020019060200201518460c00151611c26565b8260c0018190525060016002836040015102018260a00181815250508160c00151600060028110151561258057fe5b6020020151818360a0015181518110151561259757fe5b90602001906020020181815250508160c0015160016002811015156125b857fe5b60200201518160018460a00151018151811015156125d257fe5b906020019060200201818152505081604001805180919060010181525050612356565b6125fe81612239565b82608001818152505083600081518110151561261657fe5b9060200190602002015182608001511492505b5050949350505050565b6000600160009054906101000a900473ffffffffffffffffffffffffffffffffffffffff1673ffffffffffffffffffffffffffffffffffffffff1663d1ff535b6040518163ffffffff167c0100000000000000000000000000000000000000000000000000000000028152600401602060405180830381600087803b1580156126bb57600080fd5b505af11580156126cf573d6000803e3d6000fd5b505050506040513d60208110156126e557600080fd5b81019080805190602001909291905050508015156126ff57fe5b828409905080600160009054906101000a900473ffffffffffffffffffffffffffffffffffffffff1673ffffffffffffffffffffffffffffffffffffffff1663d1ff535b6040518163ffffffff167c0100000000000000000000000000000000000000000000000000000000028152600401602060405180830381600087803b15801561278b57600080fd5b505af115801561279f573d6000803e3d6000fd5b505050506040513d60208110156127b557600080fd5b8101908080519060200190929190505050039050600160009054906101000a900473ffffffffffffffffffffffffffffffffffffffff1673ffffffffffffffffffffffffffffffffffffffff1663d1ff535b6040518163ffffffff167c0100000000000000000000000000000000000000000000000000000000028152600401602060405180830381600087803b15801561284f57600080fd5b505af1158015612863573d6000803e3d6000fd5b505050506040513d602081101561287957600080fd5b810190808051906020019092919050505080151561289357fe5b81850890509392505050565b6000600160009054906101000a900473ffffffffffffffffffffffffffffffffffffffff1673ffffffffffffffffffffffffffffffffffffffff1663d1ff535b6040518163ffffffff167c0100000000000000000000000000000000000000000000000000000000028152600401602060405180830381600087803b15801561292757600080fd5b505af115801561293b573d6000803e3d6000fd5b505050506040513d602081101561295157600080fd5b81019080805190602001909291905050508484600060028110151561297257fe5b602002015185600160028110151561298657fe5b602002015185600060028110151561299a57fe5b60200201518660016002811015156129ae57fe5b602002015160405180868152602001858152602001848152602001838152602001828152602001955050505050506040518091039020600190048115156129f157fe5b0690509392505050565b6000600160009054906101000a900473ffffffffffffffffffffffffffffffffffffffff1673ffffffffffffffffffffffffffffffffffffffff1663d1ff535b6040518163ffffffff167c0100000000000000000000000000000000000000000000000000000000028152600401602060405180830381600087803b158015612a8357600080fd5b505af1158015612a97573d6000803e3d6000fd5b505050506040513d6020811015612aad57600080fd5b810190808051906020019092919050505083836000600281101515612ace57fe5b6020020151846001600281101515612ae257fe5b6020020151604051808481526020018381526020018281526020019350505050604051809103902060019004811515612b1757fe5b06905092915050565b612b28614580565b612b30614580565b612b38614580565b600160009054906101000a900473ffffffffffffffffffffffffffffffffffffffff1673ffffffffffffffffffffffffffffffffffffffff1663c025d89b600160009054906101000a900473ffffffffffffffffffffffffffffffffffffffff1673ffffffffffffffffffffffffffffffffffffffff1663ae5d39f66040518163ffffffff167c01000000000000000000000000000000000000000000000000000000000281526004016040805180830381600087803b158015612bfb57600080fd5b505af1158015612c0f573d6000803e3d6000fd5b505050506040513d601f19601f820116820180604052506040811015612c3457600080fd5b8101908091905050886040518363ffffffff167c01000000000000000000000000000000000000000000000000000000000281526004018083600260200280838360005b83811015612c93578082015181840152602081019050612c78565b50505050905001828152602001925050506040805180830381600087803b158015612cbd57600080fd5b505af1158015612cd1573d6000803e3d6000fd5b505050506040513d601f19601f820116820180604052506040811015612cf657600080fd5b81019080919050509250600160009054906101000a900473ffffffffffffffffffffffffffffffffffffffff1673ffffffffffffffffffffffffffffffffffffffff1663c025d89b86896040518363ffffffff167c01000000000000000000000000000000000000000000000000000000000281526004018083600260200280838360005b83811015612d96578082015181840152602081019050612d7b565b50505050905001828152602001925050506040805180830381600087803b158015612dc057600080fd5b505af1158015612dd4573d6000803e3d6000fd5b505050506040513d601f19601f820116820180604052506040811015612df957600080fd5b81019080919050509050600160009054906101000a900473ffffffffffffffffffffffffffffffffffffffff1673ffffffffffffffffffffffffffffffffffffffff16630c753fe884836040518363ffffffff167c01000000000000000000000000000000000000000000000000000000000281526004018083600260200280838360005b83811015612e99578082015181840152602081019050612e7e565b5050505090500182600260200280838360005b83811015612ec7578082015181840152602081019050612eac565b50505050905001925050506040805180830381600087803b158015612eeb57600080fd5b505af1158015612eff573d6000803e3d6000fd5b505050506040513d601f19601f820116820180604052506040811015612f2457600080fd5b81019080919050509250600160009054906101000a900473ffffffffffffffffffffffffffffffffffffffff1673ffffffffffffffffffffffffffffffffffffffff16636032fc3f866040518263ffffffff167c01000000000000000000000000000000000000000000000000000000000281526004018082600260200280838360005b83811015612fc3578082015181840152602081019050612fa8565b505050509050019150506040805180830381600087803b158015612fe657600080fd5b505af1158015612ffa573d6000803e3d6000fd5b505050506040513d601f19601f82011682018060405250604081101561301f57600080fd5b81019080919050509150600160009054906101000a900473ffffffffffffffffffffffffffffffffffffffff1673ffffffffffffffffffffffffffffffffffffffff1663c025d89b83886040518363ffffffff167c01000000000000000000000000000000000000000000000000000000000281526004018083600260200280838360005b838110156130bf5780820151818401526020810190506130a4565b50505050905001828152602001925050506040805180830381600087803b1580156130e957600080fd5b505af11580156130fd573d6000803e3d6000fd5b505050506040513d601f19601f82011682018060405250604081101561312257600080fd5b81019080919050509150600160009054906101000a900473ffffffffffffffffffffffffffffffffffffffff1673ffffffffffffffffffffffffffffffffffffffff1663c025d89b85896040518363ffffffff167c01000000000000000000000000000000000000000000000000000000000281526004018083600260200280838360005b838110156131c25780820151818401526020810190506131a7565b50505050905001828152602001925050506040805180830381600087803b1580156131ec57600080fd5b505af1158015613200573d6000803e3d6000fd5b505050506040513d601f19601f82011682018060405250604081101561322557600080fd5b81019080919050509050600160009054906101000a900473ffffffffffffffffffffffffffffffffffffffff1673ffffffffffffffffffffffffffffffffffffffff16630c753fe883836040518363ffffffff167c01000000000000000000000000000000000000000000000000000000000281526004018083600260200280838360005b838110156132c55780820151818401526020810190506132aa565b5050505090500182600260200280838360005b838110156132f35780820151818401526020810190506132d8565b50505050905001925050506040805180830381600087803b15801561331757600080fd5b505af115801561332b573d6000803e3d6000fd5b505050506040513d601f19601f82011682018060405250604081101561335057600080fd5b810190809190505091505094509492505050565b6000809054906101000a900473ffffffffffffffffffffffffffffffffffffffff1681565b6000809054906101000a900473ffffffffffffffffffffffffffffffffffffffff1673ffffffffffffffffffffffffffffffffffffffff163373ffffffffffffffffffffffffffffffffffffffff161415801561341e575060008060009054906101000a900473ffffffffffffffffffffffffffffffffffffffff1673ffffffffffffffffffffffffffffffffffffffff1614155b1561342857600080fd5b80600160006101000a81548173ffffffffffffffffffffffffffffffffffffffff021916908373ffffffffffffffffffffffffffffffffffffffff1602179055507f7cc5320aa18fb40c93aed6f76ae28088a8aaf67a112e0ca55367cd087b21802f8160405180806020018373ffffffffffffffffffffffffffffffffffffffff1673ffffffffffffffffffffffffffffffffffffffff168152602001828103825260068152602001807f45434d61746800000000000000000000000000000000000000000000000000008152506020019250505060405180910390a150565b613510614580565b613518614580565b600160009054906101000a900473ffffffffffffffffffffffffffffffffffffffff1673ffffffffffffffffffffffffffffffffffffffff1663c025d89b600160009054906101000a900473ffffffffffffffffffffffffffffffffffffffff1673ffffffffffffffffffffffffffffffffffffffff1663ae5d39f66040518163ffffffff167c01000000000000000000000000000000000000000000000000000000000281526004016040805180830381600087803b1580156135db57600080fd5b505af11580156135ef573d6000803e3d6000fd5b505050506040513d601f19601f82011682018060405250604081101561361457600080fd5b8101908091905050856040518363ffffffff167c01000000000000000000000000000000000000000000000000000000000281526004018083600260200280838360005b83811015613673578082015181840152602081019050613658565b50505050905001828152602001925050506040805180830381600087803b15801561369d57600080fd5b505af11580156136b1573d6000803e3d6000fd5b505050506040513d601f19601f8201168201806040525060408110156136d657600080fd5b81019080919050509050600160009054906101000a900473ffffffffffffffffffffffffffffffffffffffff1673ffffffffffffffffffffffffffffffffffffffff16636032fc3f826040518263ffffffff167c01000000000000000000000000000000000000000000000000000000000281526004018082600260200280838360005b8381101561377557808201518184015260208101905061375a565b505050509050019150506040805180830381600087803b15801561379857600080fd5b505af11580156137ac573d6000803e3d6000fd5b505050506040513d601f19601f8201168201806040525060408110156137d157600080fd5b81019080919050509050600160009054906101000a900473ffffffffffffffffffffffffffffffffffffffff1673ffffffffffffffffffffffffffffffffffffffff1663c025d89b82856040518363ffffffff167c01000000000000000000000000000000000000000000000000000000000281526004018083600260200280838360005b83811015613871578082015181840152602081019050613856565b50505050905001828152602001925050506040805180830381600087803b15801561389b57600080fd5b505af11580156138af573d6000803e3d6000fd5b505050506040513d601f19601f8201168201806040525060408110156138d457600080fd5b8101908091905050905080915050919050565b6000809054906101000a900473ffffffffffffffffffffffffffffffffffffffff1673ffffffffffffffffffffffffffffffffffffffff163373ffffffffffffffffffffffffffffffffffffffff161415801561397c575060008060009054906101000a900473ffffffffffffffffffffffffffffffffffffffff1673ffffffffffffffffffffffffffffffffffffffff1614155b1561398657600080fd5b3373ffffffffffffffffffffffffffffffffffffffff16ff5b60006139a96145a2565b60606000600287518115156139ba57fe5b061415156139cb5760009250613e31565b600286518115156139d857fe5b048260000181815250506000826000015160020286518115156139f757fe5b06141515613a085760009250613e31565b81600001516002028551811515613a1b57fe5b0482602001818152505060018260200151836000015102018451141515613a455760009250613e31565b6001826000015160040201604051908082528060200260200182016040528015613a7e5781602001602082028038833980820191505090505b50905086816000815181101515613a9157fe5b906020019060200201818152505060008260400181815250505b816000015182604001511015613dfd57836000815181101515613aca57fe5b906020019060200201518260800181815250506040805190810160405280878460400151600202815181101515613afd57fe5b906020019060200201518152602001876001856040015160020201815181101515613b2457fe5b9060200190602002015181525082610100018190525060008260600181815250505b600182602001510382606001511015613c255781604001518260600151836000015102018260a00181815250506040805190810160405280868460a00151600202815181101515613b9357fe5b9060200190602002015181526020018660018560a0015160020201815181101515613bba57fe5b906020019060200201518152508260c00181905250613c078783608001518660018660a0015101815181101515613bed57fe5b906020019060200201518560c0015186610100015161420d565b82608001818152505081606001805180919060010181525050613b46565b81604001516001836020015103836000015102018260a00181815250506040805190810160405280868460a00151600202815181101515613c6257fe5b9060200190602002015181526020018660018560a0015160020201815181101515613c8957fe5b906020019060200201518152508260c00181905250613cd582608001518560018560a0015101815181101515613cbb57fe5b906020019060200201518460c00151856101000151612b20565b8191508090508360c0018460e001829052829052505060016004836040015102018260a00181815250508160c001516000600281101515613d1257fe5b6020020151818360a00151815181101515613d2957fe5b90602001906020020181815250508160c001516001600281101515613d4a57fe5b60200201518160018460a0015101815181101515613d6457fe5b90602001906020020181815250508160e001516000600281101515613d8557fe5b60200201518160028460a0015101815181101515613d9f57fe5b90602001906020020181815250508160e001516001600281101515613dc057fe5b60200201518160038460a0015101815181101515613dda57fe5b906020019060200201818152505081604001805180919060010181525050613aab565b613e0681612239565b826080018181525050836000815181101515613e1e57fe5b9060200190602002015182608001511492505b5050949350505050565b6000613e456145a2565b600060028551811515613e5457fe5b06141515613e655760009150613fbf565b60028451811515613e7257fe5b0481602001818152505060018160200151018351141515613e965760009150613fbf565b826000815181101515613ea557fe5b9060200190602002015181608001818152505060008160400181815250505b806020015181604001511015613f9d57838160400151600202815181101515613ee957fe5b90602001906020020151846001836040015160020201815181101515613f0b57fe5b906020019060200201518260c001516000600281101515613f2857fe5b602002018360c001516001600281101515613f3f57fe5b6020020182815250828152505050613f7f858260800151856001856040015101815181101515613f6b57fe5b906020019060200201518460c001516141c6565b81608001818152505080604001805180919060010181525050613ec4565b826000815181101515613fac57fe5b9060200190602002015181608001511491505b509392505050565b613fcf614580565b600160009054906101000a900473ffffffffffffffffffffffffffffffffffffffff1673ffffffffffffffffffffffffffffffffffffffff1663c025d89b600160009054906101000a900473ffffffffffffffffffffffffffffffffffffffff1673ffffffffffffffffffffffffffffffffffffffff1663ae5d39f66040518163ffffffff167c01000000000000000000000000000000000000000000000000000000000281526004016040805180830381600087803b15801561409257600080fd5b505af11580156140a6573d6000803e3d6000fd5b505050506040513d601f19601f8201168201806040525060408110156140cb57600080fd5b8101908091905050846040518363ffffffff167c01000000000000000000000000000000000000000000000000000000000281526004018083600260200280838360005b8381101561412a57808201518184015260208101905061410f565b50505050905001828152602001925050506040805180830381600087803b15801561415457600080fd5b505af1158015614168573d6000803e3d6000fd5b505050506040513d601f19601f82011682018060405250604081101561418d57600080fd5b81019080919050509050919050565b6000600160009054906101000a900473ffffffffffffffffffffffffffffffffffffffff16905090565b60006141d0614580565b6141db858585611c26565b90506141e786826129fb565b915050949350505050565b60008060006141ff61419c565b9050803b9150819250505090565b6000614217614580565b61421f614580565b61422b87878787612b20565b809250819350505061423e88838361289f565b9250505095945050505050565b6000614255614580565b6060806000600287510260405190808252806020026020018201604052801561428d5781602001602082028038833980820191505090505b50925060026040519080825280602002602001820160405280156142c05781602001602082028038833980820191505090505b509150600090505b865181101561443157600160009054906101000a900473ffffffffffffffffffffffffffffffffffffffff1673ffffffffffffffffffffffffffffffffffffffff16635da7f69e888381518110151561431d57fe5b906020019060200201516040518263ffffffff167c0100000000000000000000000000000000000000000000000000000000028152600401808281526020019150506040805180830381600087803b15801561437857600080fd5b505af115801561438c573d6000803e3d6000fd5b505050506040513d601f19601f8201168201806040525060408110156143b157600080fd5b810190809190505093508360006002811015156143ca57fe5b602002015183826002028151811015156143e057fe5b90602001906020020181815250508360016002811015156143fd57fe5b6020020151836001836002020181518110151561441657fe5b906020019060200201818152505080806001019150506142c8565b600160009054906101000a900473ffffffffffffffffffffffffffffffffffffffff1673ffffffffffffffffffffffffffffffffffffffff16635da7f69e896040518263ffffffff167c0100000000000000000000000000000000000000000000000000000000028152600401808281526020019150506040805180830381600087803b1580156144c157600080fd5b505af11580156144d5573d6000803e3d6000fd5b505050506040513d601f19601f8201168201806040525060408110156144fa57600080fd5b8101908091905050935083600060028110151561451357fe5b602002015184600160028110151561452757fe5b602002015183600081518110151561453b57fe5b90602001906020020184600181518110151561455357fe5b906020019060200201828152508281525050506145728983858961161a565b945050505050949350505050565b6040805190810160405280600290602082028038833980820191505090505090565b610180604051908101604052806000815260200160008152602001600081526020016000815260200160008152602001600081526020016145e1614624565b81526020016145ee614624565b81526020016145fb614624565b81525090565b602060405190810160405280600190602082028038833980820191505090505090565b60408051908101604052806002906020820280388339808201915050905050905600a165627a7a72305820aada2f4c302f892e7f4c77e27b061ad863e12d25c425936f1a9887a1f2f5eba20029",
					"opcodes": "PUSH1 0x80 PUSH1 0x40 MSTORE CALLVALUE DUP1 ISZERO PUSH3 0x11 JUMPI PUSH1 0x0 DUP1 REVERT JUMPDEST POP PUSH1 0x40 MLOAD PUSH1 0x20 DUP1 PUSH3 0x489B DUP4 CODECOPY DUP2 ADD DUP1 PUSH1 0x40 MSTORE DUP2 ADD SWAP1 DUP1 DUP1 MLOAD SWAP1 PUSH1 0x20 ADD SWAP1 SWAP3 SWAP2 SWAP1 POP POP POP DUP1 CALLER PUSH1 0x0 DUP1 PUSH2 0x100 EXP DUP2 SLOAD DUP2 PUSH20 0xFFFFFFFFFFFFFFFFFFFFFFFFFFFFFFFFFFFFFFFF MUL NOT AND SWAP1 DUP4 PUSH20 0xFFFFFFFFFFFFFFFFFFFFFFFFFFFFFFFFFFFFFFFF AND MUL OR SWAP1 SSTORE POP PUSH3 0x90 DUP2 PUSH3 0x98 PUSH5 0x100000000 MUL PUSH5 0x100000000 SWAP1 DIV JUMP JUMPDEST POP POP PUSH3 0x219 JUMP JUMPDEST PUSH1 0x0 DUP1 SWAP1 SLOAD SWAP1 PUSH2 0x100 EXP SWAP1 DIV PUSH20 0xFFFFFFFFFFFFFFFFFFFFFFFFFFFFFFFFFFFFFFFF AND PUSH20 0xFFFFFFFFFFFFFFFFFFFFFFFFFFFFFFFFFFFFFFFF AND CALLER PUSH20 0xFFFFFFFFFFFFFFFFFFFFFFFFFFFFFFFFFFFFFFFF AND EQ ISZERO DUP1 ISZERO PUSH3 0x12E JUMPI POP PUSH1 0x0 DUP1 PUSH1 0x0 SWAP1 SLOAD SWAP1 PUSH2 0x100 EXP SWAP1 DIV PUSH20 0xFFFFFFFFFFFFFFFFFFFFFFFFFFFFFFFFFFFFFFFF AND PUSH20 0xFFFFFFFFFFFFFFFFFFFFFFFFFFFFFFFFFFFFFFFF AND EQ ISZERO JUMPDEST ISZERO PUSH3 0x139 JUMPI PUSH1 0x0 DUP1 REVERT JUMPDEST DUP1 PUSH1 0x1 PUSH1 0x0 PUSH2 0x100 EXP DUP2 SLOAD DUP2 PUSH20 0xFFFFFFFFFFFFFFFFFFFFFFFFFFFFFFFFFFFFFFFF MUL NOT AND SWAP1 DUP4 PUSH20 0xFFFFFFFFFFFFFFFFFFFFFFFFFFFFFFFFFFFFFFFF AND MUL OR SWAP1 SSTORE POP PUSH32 0x7CC5320AA18FB40C93AED6F76AE28088A8AAF67A112E0CA55367CD087B21802F DUP2 PUSH1 0x40 MLOAD DUP1 DUP1 PUSH1 0x20 ADD DUP4 PUSH20 0xFFFFFFFFFFFFFFFFFFFFFFFFFFFFFFFFFFFFFFFF AND PUSH20 0xFFFFFFFFFFFFFFFFFFFFFFFFFFFFFFFFFFFFFFFF AND DUP2 MSTORE PUSH1 0x20 ADD DUP3 DUP2 SUB DUP3 MSTORE PUSH1 0x6 DUP2 MSTORE PUSH1 0x20 ADD DUP1 PUSH32 0x45434D6174680000000000000000000000000000000000000000000000000000 DUP2 MSTORE POP PUSH1 0x20 ADD SWAP3 POP POP POP PUSH1 0x40 MLOAD DUP1 SWAP2 SUB SWAP1 LOG1 POP JUMP JUMPDEST PUSH2 0x4672 DUP1 PUSH3 0x229 PUSH1 0x0 CODECOPY PUSH1 0x0 RETURN STOP PUSH1 0x80 PUSH1 0x40 MSTORE PUSH1 0x4 CALLDATASIZE LT PUSH2 0x154 JUMPI PUSH1 0x0 CALLDATALOAD PUSH29 0x100000000000000000000000000000000000000000000000000000000 SWAP1 DIV PUSH4 0xFFFFFFFF AND DUP1 PUSH4 0x66D1749 EQ PUSH2 0x159 JUMPI DUP1 PUSH4 0x813D72A EQ PUSH2 0x224 JUMPI DUP1 PUSH4 0x200FC39C EQ PUSH2 0x332 JUMPI DUP1 PUSH4 0x26E37EC5 EQ PUSH2 0x440 JUMPI DUP1 PUSH4 0x2D57F6E7 EQ PUSH2 0x48B JUMPI DUP1 PUSH4 0x36490458 EQ PUSH2 0x552 JUMPI DUP1 PUSH4 0x38F3E171 EQ PUSH2 0x5F4 JUMPI DUP1 PUSH4 0x44FC0C93 EQ PUSH2 0x66E JUMPI DUP1 PUSH4 0x490EE1CB EQ PUSH2 0x743 JUMPI DUP1 PUSH4 0x4F2CE9A3 EQ PUSH2 0x7BD JUMPI DUP1 PUSH4 0x5C859D09 EQ PUSH2 0x892 JUMPI DUP1 PUSH4 0x6FB015CC EQ PUSH2 0x8E7 JUMPI DUP1 PUSH4 0x81B4EF31 EQ PUSH2 0x986 JUMPI DUP1 PUSH4 0x88C01ED8 EQ PUSH2 0x9F6 JUMPI DUP1 PUSH4 0x8DA5CB5B EQ PUSH2 0xAF6 JUMPI DUP1 PUSH4 0x9C8FDA72 EQ PUSH2 0xB4D JUMPI DUP1 PUSH4 0xA3D53298 EQ PUSH2 0xB90 JUMPI DUP1 PUSH4 0xBE26733C EQ PUSH2 0xBF9 JUMPI DUP1 PUSH4 0xC17065D0 EQ PUSH2 0xC10 JUMPI DUP1 PUSH4 0xC4E8E6A6 EQ PUSH2 0xD1E JUMPI DUP1 PUSH4 0xC8FC7CA8 EQ PUSH2 0xDE9 JUMPI DUP1 PUSH4 0xCBA51FF3 EQ PUSH2 0xE52 JUMPI DUP1 PUSH4 0xDB8C735E EQ PUSH2 0xEA9 JUMPI DUP1 PUSH4 0xEFD6B306 EQ PUSH2 0xF2D JUMPI DUP1 PUSH4 0xF8C8B0CA EQ PUSH2 0xF58 JUMPI DUP1 PUSH4 0xFF7D69A8 EQ PUSH2 0x100B JUMPI JUMPDEST PUSH1 0x0 DUP1 REVERT JUMPDEST CALLVALUE DUP1 ISZERO PUSH2 0x165 JUMPI PUSH1 0x0 DUP1 REVERT JUMPDEST POP PUSH2 0x20A PUSH1 0x4 DUP1 CALLDATASIZE SUB DUP2 ADD SWAP1 DUP1 DUP1 CALLDATALOAD SWAP1 PUSH1 0x20 ADD SWAP1 SWAP3 SWAP2 SWAP1 DUP1 CALLDATALOAD SWAP1 PUSH1 0x20 ADD SWAP1 DUP3 ADD DUP1 CALLDATALOAD SWAP1 PUSH1 0x20 ADD SWAP1 DUP1 DUP1 PUSH1 0x20 MUL PUSH1 0x20 ADD PUSH1 0x40 MLOAD SWAP1 DUP2 ADD PUSH1 0x40 MSTORE DUP1 SWAP4 SWAP3 SWAP2 SWAP1 DUP2 DUP2 MSTORE PUSH1 0x20 ADD DUP4 DUP4 PUSH1 0x20 MUL DUP1 DUP3 DUP5 CALLDATACOPY DUP3 ADD SWAP2 POP POP POP POP POP POP SWAP2 SWAP3 SWAP2 SWAP3 SWAP1 DUP1 CALLDATALOAD SWAP1 PUSH1 0x20 ADD SWAP1 DUP3 ADD DUP1 CALLDATALOAD SWAP1 PUSH1 0x20 ADD SWAP1 DUP1 DUP1 PUSH1 0x20 MUL PUSH1 0x20 ADD PUSH1 0x40 MLOAD SWAP1 DUP2 ADD PUSH1 0x40 MSTORE DUP1 SWAP4 SWAP3 SWAP2 SWAP1 DUP2 DUP2 MSTORE PUSH1 0x20 ADD DUP4 DUP4 PUSH1 0x20 MUL DUP1 DUP3 DUP5 CALLDATACOPY DUP3 ADD SWAP2 POP POP POP POP POP POP SWAP2 SWAP3 SWAP2 SWAP3 SWAP1 POP POP POP PUSH2 0x10E0 JUMP JUMPDEST PUSH1 0x40 MLOAD DUP1 DUP3 ISZERO ISZERO ISZERO ISZERO DUP2 MSTORE PUSH1 0x20 ADD SWAP2 POP POP PUSH1 0x40 MLOAD DUP1 SWAP2 SUB SWAP1 RETURN JUMPDEST CALLVALUE DUP1 ISZERO PUSH2 0x230 JUMPI PUSH1 0x0 DUP1 REVERT JUMPDEST POP PUSH2 0x318 PUSH1 0x4 DUP1 CALLDATASIZE SUB DUP2 ADD SWAP1 DUP1 DUP1 CALLDATALOAD SWAP1 PUSH1 0x20 ADD SWAP1 SWAP3 SWAP2 SWAP1 DUP1 CALLDATALOAD SWAP1 PUSH1 0x20 ADD SWAP1 DUP3 ADD DUP1 CALLDATALOAD SWAP1 PUSH1 0x20 ADD SWAP1 DUP1 DUP1 PUSH1 0x20 MUL PUSH1 0x20 ADD PUSH1 0x40 MLOAD SWAP1 DUP2 ADD PUSH1 0x40 MSTORE DUP1 SWAP4 SWAP3 SWAP2 SWAP1 DUP2 DUP2 MSTORE PUSH1 0x20 ADD DUP4 DUP4 PUSH1 0x20 MUL DUP1 DUP3 DUP5 CALLDATACOPY DUP3 ADD SWAP2 POP POP POP POP POP POP SWAP2 SWAP3 SWAP2 SWAP3 SWAP1 DUP1 CALLDATALOAD SWAP1 PUSH1 0x20 ADD SWAP1 DUP3 ADD DUP1 CALLDATALOAD SWAP1 PUSH1 0x20 ADD SWAP1 DUP1 DUP1 PUSH1 0x20 MUL PUSH1 0x20 ADD PUSH1 0x40 MLOAD SWAP1 DUP2 ADD PUSH1 0x40 MSTORE DUP1 SWAP4 SWAP3 SWAP2 SWAP1 DUP2 DUP2 MSTORE PUSH1 0x20 ADD DUP4 DUP4 PUSH1 0x20 MUL DUP1 DUP3 DUP5 CALLDATACOPY DUP3 ADD SWAP2 POP POP POP POP POP POP SWAP2 SWAP3 SWAP2 SWAP3 SWAP1 DUP1 CALLDATALOAD SWAP1 PUSH1 0x20 ADD SWAP1 DUP3 ADD DUP1 CALLDATALOAD SWAP1 PUSH1 0x20 ADD SWAP1 DUP1 DUP1 PUSH1 0x20 MUL PUSH1 0x20 ADD PUSH1 0x40 MLOAD SWAP1 DUP2 ADD PUSH1 0x40 MSTORE DUP1 SWAP4 SWAP3 SWAP2 SWAP1 DUP2 DUP2 MSTORE PUSH1 0x20 ADD DUP4 DUP4 PUSH1 0x20 MUL DUP1 DUP3 DUP5 CALLDATACOPY DUP3 ADD SWAP2 POP POP POP POP POP POP SWAP2 SWAP3 SWAP2 SWAP3 SWAP1 POP POP POP PUSH2 0x12A9 JUMP JUMPDEST PUSH1 0x40 MLOAD DUP1 DUP3 ISZERO ISZERO ISZERO ISZERO DUP2 MSTORE PUSH1 0x20 ADD SWAP2 POP POP PUSH1 0x40 MLOAD DUP1 SWAP2 SUB SWAP1 RETURN JUMPDEST CALLVALUE DUP1 ISZERO PUSH2 0x33E JUMPI PUSH1 0x0 DUP1 REVERT JUMPDEST POP PUSH2 0x426 PUSH1 0x4 DUP1 CALLDATASIZE SUB DUP2 ADD SWAP1 DUP1 DUP1 CALLDATALOAD SWAP1 PUSH1 0x20 ADD SWAP1 SWAP3 SWAP2 SWAP1 DUP1 CALLDATALOAD SWAP1 PUSH1 0x20 ADD SWAP1 DUP3 ADD DUP1 CALLDATALOAD SWAP1 PUSH1 0x20 ADD SWAP1 DUP1 DUP1 PUSH1 0x20 MUL PUSH1 0x20 ADD PUSH1 0x40 MLOAD SWAP1 DUP2 ADD PUSH1 0x40 MSTORE DUP1 SWAP4 SWAP3 SWAP2 SWAP1 DUP2 DUP2 MSTORE PUSH1 0x20 ADD DUP4 DUP4 PUSH1 0x20 MUL DUP1 DUP3 DUP5 CALLDATACOPY DUP3 ADD SWAP2 POP POP POP POP POP POP SWAP2 SWAP3 SWAP2 SWAP3 SWAP1 DUP1 CALLDATALOAD SWAP1 PUSH1 0x20 ADD SWAP1 DUP3 ADD DUP1 CALLDATALOAD SWAP1 PUSH1 0x20 ADD SWAP1 DUP1 DUP1 PUSH1 0x20 MUL PUSH1 0x20 ADD PUSH1 0x40 MLOAD SWAP1 DUP2 ADD PUSH1 0x40 MSTORE DUP1 SWAP4 SWAP3 SWAP2 SWAP1 DUP2 DUP2 MSTORE PUSH1 0x20 ADD DUP4 DUP4 PUSH1 0x20 MUL DUP1 DUP3 DUP5 CALLDATACOPY DUP3 ADD SWAP2 POP POP POP POP POP POP SWAP2 SWAP3 SWAP2 SWAP3 SWAP1 DUP1 CALLDATALOAD SWAP1 PUSH1 0x20 ADD SWAP1 DUP3 ADD DUP1 CALLDATALOAD SWAP1 PUSH1 0x20 ADD SWAP1 DUP1 DUP1 PUSH1 0x20 MUL PUSH1 0x20 ADD PUSH1 0x40 MLOAD SWAP1 DUP2 ADD PUSH1 0x40 MSTORE DUP1 SWAP4 SWAP3 SWAP2 SWAP1 DUP2 DUP2 MSTORE PUSH1 0x20 ADD DUP4 DUP4 PUSH1 0x20 MUL DUP1 DUP3 DUP5 CALLDATACOPY DUP3 ADD SWAP2 POP POP POP POP POP POP SWAP2 SWAP3 SWAP2 SWAP3 SWAP1 POP POP POP PUSH2 0x161A JUMP JUMPDEST PUSH1 0x40 MLOAD DUP1 DUP3 ISZERO ISZERO ISZERO ISZERO DUP2 MSTORE PUSH1 0x20 ADD SWAP2 POP POP PUSH1 0x40 MLOAD DUP1 SWAP2 SUB SWAP1 RETURN JUMPDEST CALLVALUE DUP1 ISZERO PUSH2 0x44C JUMPI PUSH1 0x0 DUP1 REVERT JUMPDEST POP PUSH2 0x475 PUSH1 0x4 DUP1 CALLDATASIZE SUB DUP2 ADD SWAP1 DUP1 DUP1 CALLDATALOAD SWAP1 PUSH1 0x20 ADD SWAP1 SWAP3 SWAP2 SWAP1 DUP1 CALLDATALOAD SWAP1 PUSH1 0x20 ADD SWAP1 SWAP3 SWAP2 SWAP1 POP POP POP PUSH2 0x182D JUMP JUMPDEST PUSH1 0x40 MLOAD DUP1 DUP3 DUP2 MSTORE PUSH1 0x20 ADD SWAP2 POP POP PUSH1 0x40 MLOAD DUP1 SWAP2 SUB SWAP1 RETURN JUMPDEST CALLVALUE DUP1 ISZERO PUSH2 0x497 JUMPI PUSH1 0x0 DUP1 REVERT JUMPDEST POP PUSH2 0x4E5 PUSH1 0x4 DUP1 CALLDATASIZE SUB DUP2 ADD SWAP1 DUP1 DUP1 CALLDATALOAD SWAP1 PUSH1 0x20 ADD SWAP1 SWAP3 SWAP2 SWAP1 DUP1 PUSH1 0x40 ADD SWAP1 PUSH1 0x2 DUP1 PUSH1 0x20 MUL PUSH1 0x40 MLOAD SWAP1 DUP2 ADD PUSH1 0x40 MSTORE DUP1 SWAP3 SWAP2 SWAP1 DUP3 PUSH1 0x2 PUSH1 0x20 MUL DUP1 DUP3 DUP5 CALLDATACOPY DUP3 ADD SWAP2 POP POP POP POP POP SWAP2 SWAP3 SWAP2 SWAP3 SWAP1 POP POP POP PUSH2 0x1849 JUMP JUMPDEST PUSH1 0x40 MLOAD DUP1 DUP4 PUSH1 0x2 PUSH1 0x20 MUL DUP1 DUP4 DUP4 PUSH1 0x0 JUMPDEST DUP4 DUP2 LT ISZERO PUSH2 0x510 JUMPI DUP1 DUP3 ADD MLOAD DUP2 DUP5 ADD MSTORE PUSH1 0x20 DUP2 ADD SWAP1 POP PUSH2 0x4F5 JUMP JUMPDEST POP POP POP POP SWAP1 POP ADD DUP3 PUSH1 0x2 PUSH1 0x20 MUL DUP1 DUP4 DUP4 PUSH1 0x0 JUMPDEST DUP4 DUP2 LT ISZERO PUSH2 0x53E JUMPI DUP1 DUP3 ADD MLOAD DUP2 DUP5 ADD MSTORE PUSH1 0x20 DUP2 ADD SWAP1 POP PUSH2 0x523 JUMP JUMPDEST POP POP POP POP SWAP1 POP ADD SWAP3 POP POP POP PUSH1 0x40 MLOAD DUP1 SWAP2 SUB SWAP1 RETURN JUMPDEST CALLVALUE DUP1 ISZERO PUSH2 0x55E JUMPI PUSH1 0x0 DUP1 REVERT JUMPDEST POP PUSH2 0x5B6 PUSH1 0x4 DUP1 CALLDATASIZE SUB DUP2 ADD SWAP1 DUP1 DUP1 CALLDATALOAD SWAP1 PUSH1 0x20 ADD SWAP1 SWAP3 SWAP2 SWAP1 DUP1 CALLDATALOAD SWAP1 PUSH1 0x20 ADD SWAP1 SWAP3 SWAP2 SWAP1 DUP1 PUSH1 0x40 ADD SWAP1 PUSH1 0x2 DUP1 PUSH1 0x20 MUL PUSH1 0x40 MLOAD SWAP1 DUP2 ADD PUSH1 0x40 MSTORE DUP1 SWAP3 SWAP2 SWAP1 DUP3 PUSH1 0x2 PUSH1 0x20 MUL DUP1 DUP3 DUP5 CALLDATACOPY DUP3 ADD SWAP2 POP POP POP POP POP SWAP2 SWAP3 SWAP2 SWAP3 SWAP1 POP POP POP PUSH2 0x1C26 JUMP JUMPDEST PUSH1 0x40 MLOAD DUP1 DUP3 PUSH1 0x2 PUSH1 0x20 MUL DUP1 DUP4 DUP4 PUSH1 0x0 JUMPDEST DUP4 DUP2 LT ISZERO PUSH2 0x5E1 JUMPI DUP1 DUP3 ADD MLOAD DUP2 DUP5 ADD MSTORE PUSH1 0x20 DUP2 ADD SWAP1 POP PUSH2 0x5C6 JUMP JUMPDEST POP POP POP POP SWAP1 POP ADD SWAP2 POP POP PUSH1 0x40 MLOAD DUP1 SWAP2 SUB SWAP1 RETURN JUMPDEST CALLVALUE DUP1 ISZERO PUSH2 0x600 JUMPI PUSH1 0x0 DUP1 REVERT JUMPDEST POP PUSH2 0x658 PUSH1 0x4 DUP1 CALLDATASIZE SUB DUP2 ADD SWAP1 DUP1 DUP1 CALLDATALOAD SWAP1 PUSH1 0x20 ADD SWAP1 SWAP3 SWAP2 SWAP1 DUP1 CALLDATALOAD SWAP1 PUSH1 0x20 ADD SWAP1 SWAP3 SWAP2 SWAP1 DUP1 PUSH1 0x40 ADD SWAP1 PUSH1 0x2 DUP1 PUSH1 0x20 MUL PUSH1 0x40 MLOAD SWAP1 DUP2 ADD PUSH1 0x40 MSTORE DUP1 SWAP3 SWAP2 SWAP1 DUP3 PUSH1 0x2 PUSH1 0x20 MUL DUP1 DUP3 DUP5 CALLDATACOPY DUP3 ADD SWAP2 POP POP POP POP POP SWAP2 SWAP3 SWAP2 SWAP3 SWAP1 POP POP POP PUSH2 0x2034 JUMP JUMPDEST PUSH1 0x40 MLOAD DUP1 DUP3 DUP2 MSTORE PUSH1 0x20 ADD SWAP2 POP POP PUSH1 0x40 MLOAD DUP1 SWAP2 SUB SWAP1 RETURN JUMPDEST CALLVALUE DUP1 ISZERO PUSH2 0x67A JUMPI PUSH1 0x0 DUP1 REVERT JUMPDEST POP PUSH2 0x729 PUSH1 0x4 DUP1 CALLDATASIZE SUB DUP2 ADD SWAP1 DUP1 DUP1 CALLDATALOAD SWAP1 PUSH1 0x20 ADD SWAP1 SWAP3 SWAP2 SWAP1 DUP1 CALLDATALOAD SWAP1 PUSH1 0x20 ADD SWAP1 SWAP3 SWAP2 SWAP1 DUP1 CALLDATALOAD SWAP1 PUSH1 0x20 ADD SWAP1 DUP3 ADD DUP1 CALLDATALOAD SWAP1 PUSH1 0x20 ADD SWAP1 DUP1 DUP1 PUSH1 0x20 MUL PUSH1 0x20 ADD PUSH1 0x40 MLOAD SWAP1 DUP2 ADD PUSH1 0x40 MSTORE DUP1 SWAP4 SWAP3 SWAP2 SWAP1 DUP2 DUP2 MSTORE PUSH1 0x20 ADD DUP4 DUP4 PUSH1 0x20 MUL DUP1 DUP3 DUP5 CALLDATACOPY DUP3 ADD SWAP2 POP POP POP POP POP POP SWAP2 SWAP3 SWAP2 SWAP3 SWAP1 DUP1 CALLDATALOAD SWAP1 PUSH1 0x20 ADD SWAP1 DUP3 ADD DUP1 CALLDATALOAD SWAP1 PUSH1 0x20 ADD SWAP1 DUP1 DUP1 PUSH1 0x20 MUL PUSH1 0x20 ADD PUSH1 0x40 MLOAD SWAP1 DUP2 ADD PUSH1 0x40 MSTORE DUP1 SWAP4 SWAP3 SWAP2 SWAP1 DUP2 DUP2 MSTORE PUSH1 0x20 ADD DUP4 DUP4 PUSH1 0x20 MUL DUP1 DUP3 DUP5 CALLDATACOPY DUP3 ADD SWAP2 POP POP POP POP POP POP SWAP2 SWAP3 SWAP2 SWAP3 SWAP1 POP POP POP PUSH2 0x206E JUMP JUMPDEST PUSH1 0x40 MLOAD DUP1 DUP3 ISZERO ISZERO ISZERO ISZERO DUP2 MSTORE PUSH1 0x20 ADD SWAP2 POP POP PUSH1 0x40 MLOAD DUP1 SWAP2 SUB SWAP1 RETURN JUMPDEST CALLVALUE DUP1 ISZERO PUSH2 0x74F JUMPI PUSH1 0x0 DUP1 REVERT JUMPDEST POP PUSH2 0x7A7 PUSH1 0x4 DUP1 CALLDATASIZE SUB DUP2 ADD SWAP1 DUP1 DUP1 CALLDATALOAD SWAP1 PUSH1 0x20 ADD SWAP1 DUP3 ADD DUP1 CALLDATALOAD SWAP1 PUSH1 0x20 ADD SWAP1 DUP1 DUP1 PUSH1 0x20 MUL PUSH1 0x20 ADD PUSH1 0x40 MLOAD SWAP1 DUP2 ADD PUSH1 0x40 MSTORE DUP1 SWAP4 SWAP3 SWAP2 SWAP1 DUP2 DUP2 MSTORE PUSH1 0x20 ADD DUP4 DUP4 PUSH1 0x20 MUL DUP1 DUP3 DUP5 CALLDATACOPY DUP3 ADD SWAP2 POP POP POP POP POP POP SWAP2 SWAP3 SWAP2 SWAP3 SWAP1 POP POP POP PUSH2 0x2239 JUMP JUMPDEST PUSH1 0x40 MLOAD DUP1 DUP3 DUP2 MSTORE PUSH1 0x20 ADD SWAP2 POP POP PUSH1 0x40 MLOAD DUP1 SWAP2 SUB SWAP1 RETURN JUMPDEST CALLVALUE DUP1 ISZERO PUSH2 0x7C9 JUMPI PUSH1 0x0 DUP1 REVERT JUMPDEST POP PUSH2 0x878 PUSH1 0x4 DUP1 CALLDATASIZE SUB DUP2 ADD SWAP1 DUP1 DUP1 CALLDATALOAD SWAP1 PUSH1 0x20 ADD SWAP1 SWAP3 SWAP2 SWAP1 DUP1 CALLDATALOAD SWAP1 PUSH1 0x20 ADD SWAP1 SWAP3 SWAP2 SWAP1 DUP1 CALLDATALOAD SWAP1 PUSH1 0x20 ADD SWAP1 DUP3 ADD DUP1 CALLDATALOAD SWAP1 PUSH1 0x20 ADD SWAP1 DUP1 DUP1 PUSH1 0x20 MUL PUSH1 0x20 ADD PUSH1 0x40 MLOAD SWAP1 DUP2 ADD PUSH1 0x40 MSTORE DUP1 SWAP4 SWAP3 SWAP2 SWAP1 DUP2 DUP2 MSTORE PUSH1 0x20 ADD DUP4 DUP4 PUSH1 0x20 MUL DUP1 DUP3 DUP5 CALLDATACOPY DUP3 ADD SWAP2 POP POP POP POP POP POP SWAP2 SWAP3 SWAP2 SWAP3 SWAP1 DUP1 CALLDATALOAD SWAP1 PUSH1 0x20 ADD SWAP1 DUP3 ADD DUP1 CALLDATALOAD SWAP1 PUSH1 0x20 ADD SWAP1 DUP1 DUP1 PUSH1 0x20 MUL PUSH1 0x20 ADD PUSH1 0x40 MLOAD SWAP1 DUP2 ADD PUSH1 0x40 MSTORE DUP1 SWAP4 SWAP3 SWAP2 SWAP1 DUP2 DUP2 MSTORE PUSH1 0x20 ADD DUP4 DUP4 PUSH1 0x20 MUL DUP1 DUP3 DUP5 CALLDATACOPY DUP3 ADD SWAP2 POP POP POP POP POP POP SWAP2 SWAP3 SWAP2 SWAP3 SWAP1 POP POP POP PUSH2 0x2277 JUMP JUMPDEST PUSH1 0x40 MLOAD DUP1 DUP3 ISZERO ISZERO ISZERO ISZERO DUP2 MSTORE PUSH1 0x20 ADD SWAP2 POP POP PUSH1 0x40 MLOAD DUP1 SWAP2 SUB SWAP1 RETURN JUMPDEST CALLVALUE DUP1 ISZERO PUSH2 0x89E JUMPI PUSH1 0x0 DUP1 REVERT JUMPDEST POP PUSH2 0x8D1 PUSH1 0x4 DUP1 CALLDATASIZE SUB DUP2 ADD SWAP1 DUP1 DUP1 CALLDATALOAD SWAP1 PUSH1 0x20 ADD SWAP1 SWAP3 SWAP2 SWAP1 DUP1 CALLDATALOAD SWAP1 PUSH1 0x20 ADD SWAP1 SWAP3 SWAP2 SWAP1 DUP1 CALLDATALOAD SWAP1 PUSH1 0x20 ADD SWAP1 SWAP3 SWAP2 SWAP1 POP POP POP PUSH2 0x2633 JUMP JUMPDEST PUSH1 0x40 MLOAD DUP1 DUP3 DUP2 MSTORE PUSH1 0x20 ADD SWAP2 POP POP PUSH1 0x40 MLOAD DUP1 SWAP2 SUB SWAP1 RETURN JUMPDEST CALLVALUE DUP1 ISZERO PUSH2 0x8F3 JUMPI PUSH1 0x0 DUP1 REVERT JUMPDEST POP PUSH2 0x970 PUSH1 0x4 DUP1 CALLDATASIZE SUB DUP2 ADD SWAP1 DUP1 DUP1 CALLDATALOAD SWAP1 PUSH1 0x20 ADD SWAP1 SWAP3 SWAP2 SWAP1 DUP1 PUSH1 0x40 ADD SWAP1 PUSH1 0x2 DUP1 PUSH1 0x20 MUL PUSH1 0x40 MLOAD SWAP1 DUP2 ADD PUSH1 0x40 MSTORE DUP1 SWAP3 SWAP2 SWAP1 DUP3 PUSH1 0x2 PUSH1 0x20 MUL DUP1 DUP3 DUP5 CALLDATACOPY DUP3 ADD SWAP2 POP POP POP POP POP SWAP2 SWAP3 SWAP2 SWAP3 SWAP1 DUP1 PUSH1 0x40 ADD SWAP1 PUSH1 0x2 DUP1 PUSH1 0x20 MUL PUSH1 0x40 MLOAD SWAP1 DUP2 ADD PUSH1 0x40 MSTORE DUP1 SWAP3 SWAP2 SWAP1 DUP3 PUSH1 0x2 PUSH1 0x20 MUL DUP1 DUP3 DUP5 CALLDATACOPY DUP3 ADD SWAP2 POP POP POP POP POP SWAP2 SWAP3 SWAP2 SWAP3 SWAP1 POP POP POP PUSH2 0x289F JUMP JUMPDEST PUSH1 0x40 MLOAD DUP1 DUP3 DUP2 MSTORE PUSH1 0x20 ADD SWAP2 POP POP PUSH1 0x40 MLOAD DUP1 SWAP2 SUB SWAP1 RETURN JUMPDEST CALLVALUE DUP1 ISZERO PUSH2 0x992 JUMPI PUSH1 0x0 DUP1 REVERT JUMPDEST POP PUSH2 0x9E0 PUSH1 0x4 DUP1 CALLDATASIZE SUB DUP2 ADD SWAP1 DUP1 DUP1 CALLDATALOAD SWAP1 PUSH1 0x20 ADD SWAP1 SWAP3 SWAP2 SWAP1 DUP1 PUSH1 0x40 ADD SWAP1 PUSH1 0x2 DUP1 PUSH1 0x20 MUL PUSH1 0x40 MLOAD SWAP1 DUP2 ADD PUSH1 0x40 MSTORE DUP1 SWAP3 SWAP2 SWAP1 DUP3 PUSH1 0x2 PUSH1 0x20 MUL DUP1 DUP3 DUP5 CALLDATACOPY DUP3 ADD SWAP2 POP POP POP POP POP SWAP2 SWAP3 SWAP2 SWAP3 SWAP1 POP POP POP PUSH2 0x29FB JUMP JUMPDEST PUSH1 0x40 MLOAD DUP1 DUP3 DUP2 MSTORE PUSH1 0x20 ADD SWAP2 POP POP PUSH1 0x40 MLOAD DUP1 SWAP2 SUB SWAP1 RETURN JUMPDEST CALLVALUE DUP1 ISZERO PUSH2 0xA02 JUMPI PUSH1 0x0 DUP1 REVERT JUMPDEST POP PUSH2 0xA89 PUSH1 0x4 DUP1 CALLDATASIZE SUB DUP2 ADD SWAP1 DUP1 DUP1 CALLDATALOAD SWAP1 PUSH1 0x20 ADD SWAP1 SWAP3 SWAP2 SWAP1 DUP1 CALLDATALOAD SWAP1 PUSH1 0x20 ADD SWAP1 SWAP3 SWAP2 SWAP1 DUP1 PUSH1 0x40 ADD SWAP1 PUSH1 0x2 DUP1 PUSH1 0x20 MUL PUSH1 0x40 MLOAD SWAP1 DUP2 ADD PUSH1 0x40 MSTORE DUP1 SWAP3 SWAP2 SWAP1 DUP3 PUSH1 0x2 PUSH1 0x20 MUL DUP1 DUP3 DUP5 CALLDATACOPY DUP3 ADD SWAP2 POP POP POP POP POP SWAP2 SWAP3 SWAP2 SWAP3 SWAP1 DUP1 PUSH1 0x40 ADD SWAP1 PUSH1 0x2 DUP1 PUSH1 0x20 MUL PUSH1 0x40 MLOAD SWAP1 DUP2 ADD PUSH1 0x40 MSTORE DUP1 SWAP3 SWAP2 SWAP1 DUP3 PUSH1 0x2 PUSH1 0x20 MUL DUP1 DUP3 DUP5 CALLDATACOPY DUP3 ADD SWAP2 POP POP POP POP POP SWAP2 SWAP3 SWAP2 SWAP3 SWAP1 POP POP POP PUSH2 0x2B20 JUMP JUMPDEST PUSH1 0x40 MLOAD DUP1 DUP4 PUSH1 0x2 PUSH1 0x20 MUL DUP1 DUP4 DUP4 PUSH1 0x0 JUMPDEST DUP4 DUP2 LT ISZERO PUSH2 0xAB4 JUMPI DUP1 DUP3 ADD MLOAD DUP2 DUP5 ADD MSTORE PUSH1 0x20 DUP2 ADD SWAP1 POP PUSH2 0xA99 JUMP JUMPDEST POP POP POP POP SWAP1 POP ADD DUP3 PUSH1 0x2 PUSH1 0x20 MUL DUP1 DUP4 DUP4 PUSH1 0x0 JUMPDEST DUP4 DUP2 LT ISZERO PUSH2 0xAE2 JUMPI DUP1 DUP3 ADD MLOAD DUP2 DUP5 ADD MSTORE PUSH1 0x20 DUP2 ADD SWAP1 POP PUSH2 0xAC7 JUMP JUMPDEST POP POP POP POP SWAP1 POP ADD SWAP3 POP POP POP PUSH1 0x40 MLOAD DUP1 SWAP2 SUB SWAP1 RETURN JUMPDEST CALLVALUE DUP1 ISZERO PUSH2 0xB02 JUMPI PUSH1 0x0 DUP1 REVERT JUMPDEST POP PUSH2 0xB0B PUSH2 0x3364 JUMP JUMPDEST PUSH1 0x40 MLOAD DUP1 DUP3 PUSH20 0xFFFFFFFFFFFFFFFFFFFFFFFFFFFFFFFFFFFFFFFF AND PUSH20 0xFFFFFFFFFFFFFFFFFFFFFFFFFFFFFFFFFFFFFFFF AND DUP2 MSTORE PUSH1 0x20 ADD SWAP2 POP POP PUSH1 0x40 MLOAD DUP1 SWAP2 SUB SWAP1 RETURN JUMPDEST CALLVALUE DUP1 ISZERO PUSH2 0xB59 JUMPI PUSH1 0x0 DUP1 REVERT JUMPDEST POP PUSH2 0xB8E PUSH1 0x4 DUP1 CALLDATASIZE SUB DUP2 ADD SWAP1 DUP1 DUP1 CALLDATALOAD PUSH20 0xFFFFFFFFFFFFFFFFFFFFFFFFFFFFFFFFFFFFFFFF AND SWAP1 PUSH1 0x20 ADD SWAP1 SWAP3 SWAP2 SWAP1 POP POP POP PUSH2 0x3389 JUMP JUMPDEST STOP JUMPDEST CALLVALUE DUP1 ISZERO PUSH2 0xB9C JUMPI PUSH1 0x0 DUP1 REVERT JUMPDEST POP PUSH2 0xBBB PUSH1 0x4 DUP1 CALLDATASIZE SUB DUP2 ADD SWAP1 DUP1 DUP1 CALLDATALOAD SWAP1 PUSH1 0x20 ADD SWAP1 SWAP3 SWAP2 SWAP1 POP POP POP PUSH2 0x3508 JUMP JUMPDEST PUSH1 0x40 MLOAD DUP1 DUP3 PUSH1 0x2 PUSH1 0x20 MUL DUP1 DUP4 DUP4 PUSH1 0x0 JUMPDEST DUP4 DUP2 LT ISZERO PUSH2 0xBE6 JUMPI DUP1 DUP3 ADD MLOAD DUP2 DUP5 ADD MSTORE PUSH1 0x20 DUP2 ADD SWAP1 POP PUSH2 0xBCB JUMP JUMPDEST POP POP POP POP SWAP1 POP ADD SWAP2 POP POP PUSH1 0x40 MLOAD DUP1 SWAP2 SUB SWAP1 RETURN JUMPDEST CALLVALUE DUP1 ISZERO PUSH2 0xC05 JUMPI PUSH1 0x0 DUP1 REVERT JUMPDEST POP PUSH2 0xC0E PUSH2 0x38E7 JUMP JUMPDEST STOP JUMPDEST CALLVALUE DUP1 ISZERO PUSH2 0xC1C JUMPI PUSH1 0x0 DUP1 REVERT JUMPDEST POP PUSH2 0xD04 PUSH1 0x4 DUP1 CALLDATASIZE SUB DUP2 ADD SWAP1 DUP1 DUP1 CALLDATALOAD SWAP1 PUSH1 0x20 ADD SWAP1 SWAP3 SWAP2 SWAP1 DUP1 CALLDATALOAD SWAP1 PUSH1 0x20 ADD SWAP1 DUP3 ADD DUP1 CALLDATALOAD SWAP1 PUSH1 0x20 ADD SWAP1 DUP1 DUP1 PUSH1 0x20 MUL PUSH1 0x20 ADD PUSH1 0x40 MLOAD SWAP1 DUP2 ADD PUSH1 0x40 MSTORE DUP1 SWAP4 SWAP3 SWAP2 SWAP1 DUP2 DUP2 MSTORE PUSH1 0x20 ADD DUP4 DUP4 PUSH1 0x20 MUL DUP1 DUP3 DUP5 CALLDATACOPY DUP3 ADD SWAP2 POP POP POP POP POP POP SWAP2 SWAP3 SWAP2 SWAP3 SWAP1 DUP1 CALLDATALOAD SWAP1 PUSH1 0x20 ADD SWAP1 DUP3 ADD DUP1 CALLDATALOAD SWAP1 PUSH1 0x20 ADD SWAP1 DUP1 DUP1 PUSH1 0x20 MUL PUSH1 0x20 ADD PUSH1 0x40 MLOAD SWAP1 DUP2 ADD PUSH1 0x40 MSTORE DUP1 SWAP4 SWAP3 SWAP2 SWAP1 DUP2 DUP2 MSTORE PUSH1 0x20 ADD DUP4 DUP4 PUSH1 0x20 MUL DUP1 DUP3 DUP5 CALLDATACOPY DUP3 ADD SWAP2 POP POP POP POP POP POP SWAP2 SWAP3 SWAP2 SWAP3 SWAP1 DUP1 CALLDATALOAD SWAP1 PUSH1 0x20 ADD SWAP1 DUP3 ADD DUP1 CALLDATALOAD SWAP1 PUSH1 0x20 ADD SWAP1 DUP1 DUP1 PUSH1 0x20 MUL PUSH1 0x20 ADD PUSH1 0x40 MLOAD SWAP1 DUP2 ADD PUSH1 0x40 MSTORE DUP1 SWAP4 SWAP3 SWAP2 SWAP1 DUP2 DUP2 MSTORE PUSH1 0x20 ADD DUP4 DUP4 PUSH1 0x20 MUL DUP1 DUP3 DUP5 CALLDATACOPY DUP3 ADD SWAP2 POP POP POP POP POP POP SWAP2 SWAP3 SWAP2 SWAP3 SWAP1 POP POP POP PUSH2 0x399F JUMP JUMPDEST PUSH1 0x40 MLOAD DUP1 DUP3 ISZERO ISZERO ISZERO ISZERO DUP2 MSTORE PUSH1 0x20 ADD SWAP2 POP POP PUSH1 0x40 MLOAD DUP1 SWAP2 SUB SWAP1 RETURN JUMPDEST CALLVALUE DUP1 ISZERO PUSH2 0xD2A JUMPI PUSH1 0x0 DUP1 REVERT JUMPDEST POP PUSH2 0xDCF PUSH1 0x4 DUP1 CALLDATASIZE SUB DUP2 ADD SWAP1 DUP1 DUP1 CALLDATALOAD SWAP1 PUSH1 0x20 ADD SWAP1 SWAP3 SWAP2 SWAP1 DUP1 CALLDATALOAD SWAP1 PUSH1 0x20 ADD SWAP1 DUP3 ADD DUP1 CALLDATALOAD SWAP1 PUSH1 0x20 ADD SWAP1 DUP1 DUP1 PUSH1 0x20 MUL PUSH1 0x20 ADD PUSH1 0x40 MLOAD SWAP1 DUP2 ADD PUSH1 0x40 MSTORE DUP1 SWAP4 SWAP3 SWAP2 SWAP1 DUP2 DUP2 MSTORE PUSH1 0x20 ADD DUP4 DUP4 PUSH1 0x20 MUL DUP1 DUP3 DUP5 CALLDATACOPY DUP3 ADD SWAP2 POP POP POP POP POP POP SWAP2 SWAP3 SWAP2 SWAP3 SWAP1 DUP1 CALLDATALOAD SWAP1 PUSH1 0x20 ADD SWAP1 DUP3 ADD DUP1 CALLDATALOAD SWAP1 PUSH1 0x20 ADD SWAP1 DUP1 DUP1 PUSH1 0x20 MUL PUSH1 0x20 ADD PUSH1 0x40 MLOAD SWAP1 DUP2 ADD PUSH1 0x40 MSTORE DUP1 SWAP4 SWAP3 SWAP2 SWAP1 DUP2 DUP2 MSTORE PUSH1 0x20 ADD DUP4 DUP4 PUSH1 0x20 MUL DUP1 DUP3 DUP5 CALLDATACOPY DUP3 ADD SWAP2 POP POP POP POP POP POP SWAP2 SWAP3 SWAP2 SWAP3 SWAP1 POP POP POP PUSH2 0x3E3B JUMP JUMPDEST PUSH1 0x40 MLOAD DUP1 DUP3 ISZERO ISZERO ISZERO ISZERO DUP2 MSTORE PUSH1 0x20 ADD SWAP2 POP POP PUSH1 0x40 MLOAD DUP1 SWAP2 SUB SWAP1 RETURN JUMPDEST CALLVALUE DUP1 ISZERO PUSH2 0xDF5 JUMPI PUSH1 0x0 DUP1 REVERT JUMPDEST POP PUSH2 0xE14 PUSH1 0x4 DUP1 CALLDATASIZE SUB DUP2 ADD SWAP1 DUP1 DUP1 CALLDATALOAD SWAP1 PUSH1 0x20 ADD SWAP1 SWAP3 SWAP2 SWAP1 POP POP POP PUSH2 0x3FC7 JUMP JUMPDEST PUSH1 0x40 MLOAD DUP1 DUP3 PUSH1 0x2 PUSH1 0x20 MUL DUP1 DUP4 DUP4 PUSH1 0x0 JUMPDEST DUP4 DUP2 LT ISZERO PUSH2 0xE3F JUMPI DUP1 DUP3 ADD MLOAD DUP2 DUP5 ADD MSTORE PUSH1 0x20 DUP2 ADD SWAP1 POP PUSH2 0xE24 JUMP JUMPDEST POP POP POP POP SWAP1 POP ADD SWAP2 POP POP PUSH1 0x40 MLOAD DUP1 SWAP2 SUB SWAP1 RETURN JUMPDEST CALLVALUE DUP1 ISZERO PUSH2 0xE5E JUMPI PUSH1 0x0 DUP1 REVERT JUMPDEST POP PUSH2 0xE67 PUSH2 0x419C JUMP JUMPDEST PUSH1 0x40 MLOAD DUP1 DUP3 PUSH20 0xFFFFFFFFFFFFFFFFFFFFFFFFFFFFFFFFFFFFFFFF AND PUSH20 0xFFFFFFFFFFFFFFFFFFFFFFFFFFFFFFFFFFFFFFFF AND DUP2 MSTORE PUSH1 0x20 ADD SWAP2 POP POP PUSH1 0x40 MLOAD DUP1 SWAP2 SUB SWAP1 RETURN JUMPDEST CALLVALUE DUP1 ISZERO PUSH2 0xEB5 JUMPI PUSH1 0x0 DUP1 REVERT JUMPDEST POP PUSH2 0xF17 PUSH1 0x4 DUP1 CALLDATASIZE SUB DUP2 ADD SWAP1 DUP1 DUP1 CALLDATALOAD SWAP1 PUSH1 0x20 ADD SWAP1 SWAP3 SWAP2 SWAP1 DUP1 CALLDATALOAD SWAP1 PUSH1 0x20 ADD SWAP1 SWAP3 SWAP2 SWAP1 DUP1 CALLDATALOAD SWAP1 PUSH1 0x20 ADD SWAP1 SWAP3 SWAP2 SWAP1 DUP1 PUSH1 0x40 ADD SWAP1 PUSH1 0x2 DUP1 PUSH1 0x20 MUL PUSH1 0x40 MLOAD SWAP1 DUP2 ADD PUSH1 0x40 MSTORE DUP1 SWAP3 SWAP2 SWAP1 DUP3 PUSH1 0x2 PUSH1 0x20 MUL DUP1 DUP3 DUP5 CALLDATACOPY DUP3 ADD SWAP2 POP POP POP POP POP SWAP2 SWAP3 SWAP2 SWAP3 SWAP1 POP POP POP PUSH2 0x41C6 JUMP JUMPDEST PUSH1 0x40 MLOAD DUP1 DUP3 DUP2 MSTORE PUSH1 0x20 ADD SWAP2 POP POP PUSH1 0x40 MLOAD DUP1 SWAP2 SUB SWAP1 RETURN JUMPDEST CALLVALUE DUP1 ISZERO PUSH2 0xF39 JUMPI PUSH1 0x0 DUP1 REVERT JUMPDEST POP PUSH2 0xF42 PUSH2 0x41F2 JUMP JUMPDEST PUSH1 0x40 MLOAD DUP1 DUP3 DUP2 MSTORE PUSH1 0x20 ADD SWAP2 POP POP PUSH1 0x40 MLOAD DUP1 SWAP2 SUB SWAP1 RETURN JUMPDEST CALLVALUE DUP1 ISZERO PUSH2 0xF64 JUMPI PUSH1 0x0 DUP1 REVERT JUMPDEST POP PUSH2 0xFF5 PUSH1 0x4 DUP1 CALLDATASIZE SUB DUP2 ADD SWAP1 DUP1 DUP1 CALLDATALOAD SWAP1 PUSH1 0x20 ADD SWAP1 SWAP3 SWAP2 SWAP1 DUP1 CALLDATALOAD SWAP1 PUSH1 0x20 ADD SWAP1 SWAP3 SWAP2 SWAP1 DUP1 CALLDATALOAD SWAP1 PUSH1 0x20 ADD SWAP1 SWAP3 SWAP2 SWAP1 DUP1 PUSH1 0x40 ADD SWAP1 PUSH1 0x2 DUP1 PUSH1 0x20 MUL PUSH1 0x40 MLOAD SWAP1 DUP2 ADD PUSH1 0x40 MSTORE DUP1 SWAP3 SWAP2 SWAP1 DUP3 PUSH1 0x2 PUSH1 0x20 MUL DUP1 DUP3 DUP5 CALLDATACOPY DUP3 ADD SWAP2 POP POP POP POP POP SWAP2 SWAP3 SWAP2 SWAP3 SWAP1 DUP1 PUSH1 0x40 ADD SWAP1 PUSH1 0x2 DUP1 PUSH1 0x20 MUL PUSH1 0x40 MLOAD SWAP1 DUP2 ADD PUSH1 0x40 MSTORE DUP1 SWAP3 SWAP2 SWAP1 DUP3 PUSH1 0x2 PUSH1 0x20 MUL DUP1 DUP3 DUP5 CALLDATACOPY DUP3 ADD SWAP2 POP POP POP POP POP SWAP2 SWAP3 SWAP2 SWAP3 SWAP1 POP POP POP PUSH2 0x420D JUMP JUMPDEST PUSH1 0x40 MLOAD DUP1 DUP3 DUP2 MSTORE PUSH1 0x20 ADD SWAP2 POP POP PUSH1 0x40 MLOAD DUP1 SWAP2 SUB SWAP1 RETURN JUMPDEST CALLVALUE DUP1 ISZERO PUSH2 0x1017 JUMPI PUSH1 0x0 DUP1 REVERT JUMPDEST POP PUSH2 0x10C6 PUSH1 0x4 DUP1 CALLDATASIZE SUB DUP2 ADD SWAP1 DUP1 DUP1 CALLDATALOAD SWAP1 PUSH1 0x20 ADD SWAP1 SWAP3 SWAP2 SWAP1 DUP1 CALLDATALOAD SWAP1 PUSH1 0x20 ADD SWAP1 SWAP3 SWAP2 SWAP1 DUP1 CALLDATALOAD SWAP1 PUSH1 0x20 ADD SWAP1 DUP3 ADD DUP1 CALLDATALOAD SWAP1 PUSH1 0x20 ADD SWAP1 DUP1 DUP1 PUSH1 0x20 MUL PUSH1 0x20 ADD PUSH1 0x40 MLOAD SWAP1 DUP2 ADD PUSH1 0x40 MSTORE DUP1 SWAP4 SWAP3 SWAP2 SWAP1 DUP2 DUP2 MSTORE PUSH1 0x20 ADD DUP4 DUP4 PUSH1 0x20 MUL DUP1 DUP3 DUP5 CALLDATACOPY DUP3 ADD SWAP2 POP POP POP POP POP POP SWAP2 SWAP3 SWAP2 SWAP3 SWAP1 DUP1 CALLDATALOAD SWAP1 PUSH1 0x20 ADD SWAP1 DUP3 ADD DUP1 CALLDATALOAD SWAP1 PUSH1 0x20 ADD SWAP1 DUP1 DUP1 PUSH1 0x20 MUL PUSH1 0x20 ADD PUSH1 0x40 MLOAD SWAP1 DUP2 ADD PUSH1 0x40 MSTORE DUP1 SWAP4 SWAP3 SWAP2 SWAP1 DUP2 DUP2 MSTORE PUSH1 0x20 ADD DUP4 DUP4 PUSH1 0x20 MUL DUP1 DUP3 DUP5 CALLDATACOPY DUP3 ADD SWAP2 POP POP POP POP POP POP SWAP2 SWAP3 SWAP2 SWAP3 SWAP1 POP POP POP PUSH2 0x424B JUMP JUMPDEST PUSH1 0x40 MLOAD DUP1 DUP3 ISZERO ISZERO ISZERO ISZERO DUP2 MSTORE PUSH1 0x20 ADD SWAP2 POP POP PUSH1 0x40 MLOAD DUP1 SWAP2 SUB SWAP1 RETURN JUMPDEST PUSH1 0x0 PUSH2 0x10EA PUSH2 0x4580 JUMP JUMPDEST PUSH1 0x60 PUSH1 0x0 PUSH1 0x2 DUP7 MLOAD MUL PUSH1 0x40 MLOAD SWAP1 DUP1 DUP3 MSTORE DUP1 PUSH1 0x20 MUL PUSH1 0x20 ADD DUP3 ADD PUSH1 0x40 MSTORE DUP1 ISZERO PUSH2 0x1121 JUMPI DUP2 PUSH1 0x20 ADD PUSH1 0x20 DUP3 MUL DUP1 CODESIZE DUP4 CODECOPY DUP1 DUP3 ADD SWAP2 POP POP SWAP1 POP JUMPDEST POP SWAP2 POP PUSH1 0x0 SWAP1 POP JUMPDEST DUP6 MLOAD DUP2 LT ISZERO PUSH2 0x1292 JUMPI PUSH1 0x1 PUSH1 0x0 SWAP1 SLOAD SWAP1 PUSH2 0x100 EXP SWAP1 DIV PUSH20 0xFFFFFFFFFFFFFFFFFFFFFFFFFFFFFFFFFFFFFFFF AND PUSH20 0xFFFFFFFFFFFFFFFFFFFFFFFFFFFFFFFFFFFFFFFF AND PUSH4 0x5DA7F69E DUP8 DUP4 DUP2 MLOAD DUP2 LT ISZERO ISZERO PUSH2 0x117E JUMPI INVALID JUMPDEST SWAP1 PUSH1 0x20 ADD SWAP1 PUSH1 0x20 MUL ADD MLOAD PUSH1 0x40 MLOAD DUP3 PUSH4 0xFFFFFFFF AND PUSH29 0x100000000000000000000000000000000000000000000000000000000 MUL DUP2 MSTORE PUSH1 0x4 ADD DUP1 DUP3 DUP2 MSTORE PUSH1 0x20 ADD SWAP2 POP POP PUSH1 0x40 DUP1 MLOAD DUP1 DUP4 SUB DUP2 PUSH1 0x0 DUP8 DUP1 EXTCODESIZE ISZERO DUP1 ISZERO PUSH2 0x11D9 JUMPI PUSH1 0x0 DUP1 REVERT JUMPDEST POP GAS CALL ISZERO DUP1 ISZERO PUSH2 0x11ED JUMPI RETURNDATASIZE PUSH1 0x0 DUP1 RETURNDATACOPY RETURNDATASIZE PUSH1 0x0 REVERT JUMPDEST POP POP POP POP PUSH1 0x40 MLOAD RETURNDATASIZE PUSH1 0x1F NOT PUSH1 0x1F DUP3 ADD AND DUP3 ADD DUP1 PUSH1 0x40 MSTORE POP PUSH1 0x40 DUP2 LT ISZERO PUSH2 0x1212 JUMPI PUSH1 0x0 DUP1 REVERT JUMPDEST DUP2 ADD SWAP1 DUP1 SWAP2 SWAP1 POP POP SWAP3 POP DUP3 PUSH1 0x0 PUSH1 0x2 DUP2 LT ISZERO ISZERO PUSH2 0x122B JUMPI INVALID JUMPDEST PUSH1 0x20 MUL ADD MLOAD DUP3 DUP3 PUSH1 0x2 MUL DUP2 MLOAD DUP2 LT ISZERO ISZERO PUSH2 0x1241 JUMPI INVALID JUMPDEST SWAP1 PUSH1 0x20 ADD SWAP1 PUSH1 0x20 MUL ADD DUP2 DUP2 MSTORE POP POP DUP3 PUSH1 0x1 PUSH1 0x2 DUP2 LT ISZERO ISZERO PUSH2 0x125E JUMPI INVALID JUMPDEST PUSH1 0x20 MUL ADD MLOAD DUP3 PUSH1 0x1 DUP4 PUSH1 0x2 MUL ADD DUP2 MLOAD DUP2 LT ISZERO ISZERO PUSH2 0x1277 JUMPI INVALID JUMPDEST SWAP1 PUSH1 0x20 ADD SWAP1 PUSH1 0x20 MUL ADD DUP2 DUP2 MSTORE POP POP DUP1 DUP1 PUSH1 0x1 ADD SWAP2 POP POP PUSH2 0x1129 JUMP JUMPDEST PUSH2 0x129D DUP8 DUP4 DUP8 PUSH2 0x3E3B JUMP JUMPDEST SWAP4 POP POP POP POP SWAP4 SWAP3 POP POP POP JUMP JUMPDEST PUSH1 0x0 PUSH2 0x12B3 PUSH2 0x4580 JUMP JUMPDEST PUSH1 0x60 DUP1 PUSH1 0x0 PUSH1 0x2 DUP8 MLOAD MUL PUSH1 0x40 MLOAD SWAP1 DUP1 DUP3 MSTORE DUP1 PUSH1 0x20 MUL PUSH1 0x20 ADD DUP3 ADD PUSH1 0x40 MSTORE DUP1 ISZERO PUSH2 0x12EB JUMPI DUP2 PUSH1 0x20 ADD PUSH1 0x20 DUP3 MUL DUP1 CODESIZE DUP4 CODECOPY DUP1 DUP3 ADD SWAP2 POP POP SWAP1 POP JUMPDEST POP SWAP3 POP PUSH1 0x2 DUP9 MLOAD MUL PUSH1 0x40 MLOAD SWAP1 DUP1 DUP3 MSTORE DUP1 PUSH1 0x20 MUL PUSH1 0x20 ADD DUP3 ADD PUSH1 0x40 MSTORE DUP1 ISZERO PUSH2 0x1321 JUMPI DUP2 PUSH1 0x20 ADD PUSH1 0x20 DUP3 MUL DUP1 CODESIZE DUP4 CODECOPY DUP1 DUP3 ADD SWAP2 POP POP SWAP1 POP JUMPDEST POP SWAP2 POP PUSH1 0x0 SWAP1 POP JUMPDEST DUP7 MLOAD DUP2 LT ISZERO PUSH2 0x1492 JUMPI PUSH1 0x1 PUSH1 0x0 SWAP1 SLOAD SWAP1 PUSH2 0x100 EXP SWAP1 DIV PUSH20 0xFFFFFFFFFFFFFFFFFFFFFFFFFFFFFFFFFFFFFFFF AND PUSH20 0xFFFFFFFFFFFFFFFFFFFFFFFFFFFFFFFFFFFFFFFF AND PUSH4 0x5DA7F69E DUP9 DUP4 DUP2 MLOAD DUP2 LT ISZERO ISZERO PUSH2 0x137E JUMPI INVALID JUMPDEST SWAP1 PUSH1 0x20 ADD SWAP1 PUSH1 0x20 MUL ADD MLOAD PUSH1 0x40 MLOAD DUP3 PUSH4 0xFFFFFFFF AND PUSH29 0x100000000000000000000000000000000000000000000000000000000 MUL DUP2 MSTORE PUSH1 0x4 ADD DUP1 DUP3 DUP2 MSTORE PUSH1 0x20 ADD SWAP2 POP POP PUSH1 0x40 DUP1 MLOAD DUP1 DUP4 SUB DUP2 PUSH1 0x0 DUP8 DUP1 EXTCODESIZE ISZERO DUP1 ISZERO PUSH2 0x13D9 JUMPI PUSH1 0x0 DUP1 REVERT JUMPDEST POP GAS CALL ISZERO DUP1 ISZERO PUSH2 0x13ED JUMPI RETURNDATASIZE PUSH1 0x0 DUP1 RETURNDATACOPY RETURNDATASIZE PUSH1 0x0 REVERT JUMPDEST POP POP POP POP PUSH1 0x40 MLOAD RETURNDATASIZE PUSH1 0x1F NOT PUSH1 0x1F DUP3 ADD AND DUP3 ADD DUP1 PUSH1 0x40 MSTORE POP PUSH1 0x40 DUP2 LT ISZERO PUSH2 0x1412 JUMPI PUSH1 0x0 DUP1 REVERT JUMPDEST DUP2 ADD SWAP1 DUP1 SWAP2 SWAP1 POP POP SWAP4 POP DUP4 PUSH1 0x0 PUSH1 0x2 DUP2 LT ISZERO ISZERO PUSH2 0x142B JUMPI INVALID JUMPDEST PUSH1 0x20 MUL ADD MLOAD DUP4 DUP3 PUSH1 0x2 MUL DUP2 MLOAD DUP2 LT ISZERO ISZERO PUSH2 0x1441 JUMPI INVALID JUMPDEST SWAP1 PUSH1 0x20 ADD SWAP1 PUSH1 0x20 MUL ADD DUP2 DUP2 MSTORE POP POP DUP4 PUSH1 0x1 PUSH1 0x2 DUP2 LT ISZERO ISZERO PUSH2 0x145E JUMPI INVALID JUMPDEST PUSH1 0x20 MUL ADD MLOAD DUP4 PUSH1 0x1 DUP4 PUSH1 0x2 MUL ADD DUP2 MLOAD DUP2 LT ISZERO ISZERO PUSH2 0x1477 JUMPI INVALID JUMPDEST SWAP1 PUSH1 0x20 ADD SWAP1 PUSH1 0x20 MUL ADD DUP2 DUP2 MSTORE POP POP DUP1 DUP1 PUSH1 0x1 ADD SWAP2 POP POP PUSH2 0x1329 JUMP JUMPDEST PUSH1 0x0 SWAP1 POP JUMPDEST DUP8 MLOAD DUP2 LT ISZERO PUSH2 0x1600 JUMPI PUSH1 0x1 PUSH1 0x0 SWAP1 SLOAD SWAP1 PUSH2 0x100 EXP SWAP1 DIV PUSH20 0xFFFFFFFFFFFFFFFFFFFFFFFFFFFFFFFFFFFFFFFF AND PUSH20 0xFFFFFFFFFFFFFFFFFFFFFFFFFFFFFFFFFFFFFFFF AND PUSH4 0x5DA7F69E DUP10 DUP4 DUP2 MLOAD DUP2 LT ISZERO ISZERO PUSH2 0x14EC JUMPI INVALID JUMPDEST SWAP1 PUSH1 0x20 ADD SWAP1 PUSH1 0x20 MUL ADD MLOAD PUSH1 0x40 MLOAD DUP3 PUSH4 0xFFFFFFFF AND PUSH29 0x100000000000000000000000000000000000000000000000000000000 MUL DUP2 MSTORE PUSH1 0x4 ADD DUP1 DUP3 DUP2 MSTORE PUSH1 0x20 ADD SWAP2 POP POP PUSH1 0x40 DUP1 MLOAD DUP1 DUP4 SUB DUP2 PUSH1 0x0 DUP8 DUP1 EXTCODESIZE ISZERO DUP1 ISZERO PUSH2 0x1547 JUMPI PUSH1 0x0 DUP1 REVERT JUMPDEST POP GAS CALL ISZERO DUP1 ISZERO PUSH2 0x155B JUMPI RETURNDATASIZE PUSH1 0x0 DUP1 RETURNDATACOPY RETURNDATASIZE PUSH1 0x0 REVERT JUMPDEST POP POP POP POP PUSH1 0x40 MLOAD RETURNDATASIZE PUSH1 0x1F NOT PUSH1 0x1F DUP3 ADD AND DUP3 ADD DUP1 PUSH1 0x40 MSTORE POP PUSH1 0x40 DUP2 LT ISZERO PUSH2 0x1580 JUMPI PUSH1 0x0 DUP1 REVERT JUMPDEST DUP2 ADD SWAP1 DUP1 SWAP2 SWAP1 POP POP SWAP4 POP DUP4 PUSH1 0x0 PUSH1 0x2 DUP2 LT ISZERO ISZERO PUSH2 0x1599 JUMPI INVALID JUMPDEST PUSH1 0x20 MUL ADD MLOAD DUP3 DUP3 PUSH1 0x2 MUL DUP2 MLOAD DUP2 LT ISZERO ISZERO PUSH2 0x15AF JUMPI INVALID JUMPDEST SWAP1 PUSH1 0x20 ADD SWAP1 PUSH1 0x20 MUL ADD DUP2 DUP2 MSTORE POP POP DUP4 PUSH1 0x1 PUSH1 0x2 DUP2 LT ISZERO ISZERO PUSH2 0x15CC JUMPI INVALID JUMPDEST PUSH1 0x20 MUL ADD MLOAD DUP3 PUSH1 0x1 DUP4 PUSH1 0x2 MUL ADD DUP2 MLOAD DUP2 LT ISZERO ISZERO PUSH2 0x15E5 JUMPI INVALID JUMPDEST SWAP1 PUSH1 0x20 ADD SWAP1 PUSH1 0x20 MUL ADD DUP2 DUP2 MSTORE POP POP DUP1 DUP1 PUSH1 0x1 ADD SWAP2 POP POP PUSH2 0x1497 JUMP JUMPDEST PUSH2 0x160C DUP10 DUP4 DUP6 DUP10 PUSH2 0x399F JUMP JUMPDEST SWAP5 POP POP POP POP POP SWAP5 SWAP4 POP POP POP POP JUMP JUMPDEST PUSH1 0x0 PUSH2 0x1624 PUSH2 0x45A2 JUMP JUMPDEST PUSH1 0x2 DUP6 MLOAD EQ ISZERO ISZERO PUSH2 0x1638 JUMPI PUSH1 0x0 SWAP2 POP PUSH2 0x1824 JUMP JUMPDEST PUSH1 0x0 PUSH1 0x2 DUP6 MLOAD DUP2 ISZERO ISZERO PUSH2 0x1647 JUMPI INVALID JUMPDEST MOD EQ ISZERO ISZERO PUSH2 0x1658 JUMPI PUSH1 0x0 SWAP2 POP PUSH2 0x1824 JUMP JUMPDEST PUSH1 0x2 DUP5 MLOAD DUP2 ISZERO ISZERO PUSH2 0x1665 JUMPI INVALID JUMPDEST DIV DUP2 PUSH1 0x20 ADD DUP2 DUP2 MSTORE POP POP PUSH1 0x1 DUP2 PUSH1 0x20 ADD MLOAD ADD DUP4 MLOAD EQ ISZERO ISZERO PUSH2 0x1689 JUMPI PUSH1 0x0 SWAP2 POP PUSH2 0x1824 JUMP JUMPDEST DUP3 PUSH1 0x0 DUP2 MLOAD DUP2 LT ISZERO ISZERO PUSH2 0x1698 JUMPI INVALID JUMPDEST SWAP1 PUSH1 0x20 ADD SWAP1 PUSH1 0x20 MUL ADD MLOAD DUP2 PUSH1 0x80 ADD DUP2 DUP2 MSTORE POP POP DUP5 PUSH1 0x0 DUP2 MLOAD DUP2 LT ISZERO ISZERO PUSH2 0x16BA JUMPI INVALID JUMPDEST SWAP1 PUSH1 0x20 ADD SWAP1 PUSH1 0x20 MUL ADD MLOAD DUP6 PUSH1 0x1 DUP2 MLOAD DUP2 LT ISZERO ISZERO PUSH2 0x16D3 JUMPI INVALID JUMPDEST SWAP1 PUSH1 0x20 ADD SWAP1 PUSH1 0x20 MUL ADD MLOAD DUP3 PUSH2 0x100 ADD MLOAD PUSH1 0x0 PUSH1 0x2 DUP2 LT ISZERO ISZERO PUSH2 0x16F1 JUMPI INVALID JUMPDEST PUSH1 0x20 MUL ADD DUP4 PUSH2 0x100 ADD MLOAD PUSH1 0x1 PUSH1 0x2 DUP2 LT ISZERO ISZERO PUSH2 0x1709 JUMPI INVALID JUMPDEST PUSH1 0x20 MUL ADD DUP3 DUP2 MSTORE POP DUP3 DUP2 MSTORE POP POP POP PUSH1 0x0 DUP2 PUSH1 0x40 ADD DUP2 DUP2 MSTORE POP POP JUMPDEST DUP1 PUSH1 0x20 ADD MLOAD DUP2 PUSH1 0x40 ADD MLOAD LT ISZERO PUSH2 0x1802 JUMPI DUP4 DUP2 PUSH1 0x40 ADD MLOAD PUSH1 0x2 MUL DUP2 MLOAD DUP2 LT ISZERO ISZERO PUSH2 0x1748 JUMPI INVALID JUMPDEST SWAP1 PUSH1 0x20 ADD SWAP1 PUSH1 0x20 MUL ADD MLOAD DUP5 PUSH1 0x1 DUP4 PUSH1 0x40 ADD MLOAD PUSH1 0x2 MUL ADD DUP2 MLOAD DUP2 LT ISZERO ISZERO PUSH2 0x176A JUMPI INVALID JUMPDEST SWAP1 PUSH1 0x20 ADD SWAP1 PUSH1 0x20 MUL ADD MLOAD DUP3 PUSH1 0xC0 ADD MLOAD PUSH1 0x0 PUSH1 0x2 DUP2 LT ISZERO ISZERO PUSH2 0x1787 JUMPI INVALID JUMPDEST PUSH1 0x20 MUL ADD DUP4 PUSH1 0xC0 ADD MLOAD PUSH1 0x1 PUSH1 0x2 DUP2 LT ISZERO ISZERO PUSH2 0x179E JUMPI INVALID JUMPDEST PUSH1 0x20 MUL ADD DUP3 DUP2 MSTORE POP DUP3 DUP2 MSTORE POP POP POP PUSH2 0x17E4 DUP7 DUP3 PUSH1 0x80 ADD MLOAD DUP6 PUSH1 0x1 DUP6 PUSH1 0x40 ADD MLOAD ADD DUP2 MLOAD DUP2 LT ISZERO ISZERO PUSH2 0x17CA JUMPI INVALID JUMPDEST SWAP1 PUSH1 0x20 ADD SWAP1 PUSH1 0x20 MUL ADD MLOAD DUP5 PUSH1 0xC0 ADD MLOAD DUP6 PUSH2 0x100 ADD MLOAD PUSH2 0x420D JUMP JUMPDEST DUP2 PUSH1 0x80 ADD DUP2 DUP2 MSTORE POP POP DUP1 PUSH1 0x40 ADD DUP1 MLOAD DUP1 SWAP2 SWAP1 PUSH1 0x1 ADD DUP2 MSTORE POP POP PUSH2 0x1723 JUMP JUMPDEST DUP3 PUSH1 0x0 DUP2 MLOAD DUP2 LT ISZERO ISZERO PUSH2 0x1811 JUMPI INVALID JUMPDEST SWAP1 PUSH1 0x20 ADD SWAP1 PUSH1 0x20 MUL ADD MLOAD DUP2 PUSH1 0x80 ADD MLOAD EQ SWAP2 POP JUMPDEST POP SWAP5 SWAP4 POP POP POP POP JUMP JUMPDEST PUSH1 0x0 PUSH2 0x1841 DUP4 PUSH2 0x183C DUP5 PUSH2 0x3FC7 JUMP JUMPDEST PUSH2 0x29FB JUMP JUMPDEST SWAP1 POP SWAP3 SWAP2 POP POP JUMP JUMPDEST PUSH2 0x1851 PUSH2 0x4580 JUMP JUMPDEST PUSH2 0x1859 PUSH2 0x4580 JUMP JUMPDEST PUSH1 0x1 PUSH1 0x0 SWAP1 SLOAD SWAP1 PUSH2 0x100 EXP SWAP1 DIV PUSH20 0xFFFFFFFFFFFFFFFFFFFFFFFFFFFFFFFFFFFFFFFF AND PUSH20 0xFFFFFFFFFFFFFFFFFFFFFFFFFFFFFFFFFFFFFFFF AND PUSH4 0xC025D89B PUSH1 0x1 PUSH1 0x0 SWAP1 SLOAD SWAP1 PUSH2 0x100 EXP SWAP1 DIV PUSH20 0xFFFFFFFFFFFFFFFFFFFFFFFFFFFFFFFFFFFFFFFF AND PUSH20 0xFFFFFFFFFFFFFFFFFFFFFFFFFFFFFFFFFFFFFFFF AND PUSH4 0xAE5D39F6 PUSH1 0x40 MLOAD DUP2 PUSH4 0xFFFFFFFF AND PUSH29 0x100000000000000000000000000000000000000000000000000000000 MUL DUP2 MSTORE PUSH1 0x4 ADD PUSH1 0x40 DUP1 MLOAD DUP1 DUP4 SUB DUP2 PUSH1 0x0 DUP8 DUP1 EXTCODESIZE ISZERO DUP1 ISZERO PUSH2 0x191C JUMPI PUSH1 0x0 DUP1 REVERT JUMPDEST POP GAS CALL ISZERO DUP1 ISZERO PUSH2 0x1930 JUMPI RETURNDATASIZE PUSH1 0x0 DUP1 RETURNDATACOPY RETURNDATASIZE PUSH1 0x0 REVERT JUMPDEST POP POP POP POP PUSH1 0x40 MLOAD RETURNDATASIZE PUSH1 0x1F NOT PUSH1 0x1F DUP3 ADD AND DUP3 ADD DUP1 PUSH1 0x40 MSTORE POP PUSH1 0x40 DUP2 LT ISZERO PUSH2 0x1955 JUMPI PUSH1 0x0 DUP1 REVERT JUMPDEST DUP2 ADD SWAP1 DUP1 SWAP2 SWAP1 POP POP DUP7 PUSH1 0x40 MLOAD DUP4 PUSH4 0xFFFFFFFF AND PUSH29 0x100000000000000000000000000000000000000000000000000000000 MUL DUP2 MSTORE PUSH1 0x4 ADD DUP1 DUP4 PUSH1 0x2 PUSH1 0x20 MUL DUP1 DUP4 DUP4 PUSH1 0x0 JUMPDEST DUP4 DUP2 LT ISZERO PUSH2 0x19B4 JUMPI DUP1 DUP3 ADD MLOAD DUP2 DUP5 ADD MSTORE PUSH1 0x20 DUP2 ADD SWAP1 POP PUSH2 0x1999 JUMP JUMPDEST POP POP POP POP SWAP1 POP ADD DUP3 DUP2 MSTORE PUSH1 0x20 ADD SWAP3 POP POP POP PUSH1 0x40 DUP1 MLOAD DUP1 DUP4 SUB DUP2 PUSH1 0x0 DUP8 DUP1 EXTCODESIZE ISZERO DUP1 ISZERO PUSH2 0x19DE JUMPI PUSH1 0x0 DUP1 REVERT JUMPDEST POP GAS CALL ISZERO DUP1 ISZERO PUSH2 0x19F2 JUMPI RETURNDATASIZE PUSH1 0x0 DUP1 RETURNDATACOPY RETURNDATASIZE PUSH1 0x0 REVERT JUMPDEST POP POP POP POP PUSH1 0x40 MLOAD RETURNDATASIZE PUSH1 0x1F NOT PUSH1 0x1F DUP3 ADD AND DUP3 ADD DUP1 PUSH1 0x40 MSTORE POP PUSH1 0x40 DUP2 LT ISZERO PUSH2 0x1A17 JUMPI PUSH1 0x0 DUP1 REVERT JUMPDEST DUP2 ADD SWAP1 DUP1 SWAP2 SWAP1 POP POP SWAP2 POP PUSH1 0x1 PUSH1 0x0 SWAP1 SLOAD SWAP1 PUSH2 0x100 EXP SWAP1 DIV PUSH20 0xFFFFFFFFFFFFFFFFFFFFFFFFFFFFFFFFFFFFFFFF AND PUSH20 0xFFFFFFFFFFFFFFFFFFFFFFFFFFFFFFFFFFFFFFFF AND PUSH4 0x6032FC3F DUP5 PUSH1 0x40 MLOAD DUP3 PUSH4 0xFFFFFFFF AND PUSH29 0x100000000000000000000000000000000000000000000000000000000 MUL DUP2 MSTORE PUSH1 0x4 ADD DUP1 DUP3 PUSH1 0x2 PUSH1 0x20 MUL DUP1 DUP4 DUP4 PUSH1 0x0 JUMPDEST DUP4 DUP2 LT ISZERO PUSH2 0x1AB6 JUMPI DUP1 DUP3 ADD MLOAD DUP2 DUP5 ADD MSTORE PUSH1 0x20 DUP2 ADD SWAP1 POP PUSH2 0x1A9B JUMP JUMPDEST POP POP POP POP SWAP1 POP ADD SWAP2 POP POP PUSH1 0x40 DUP1 MLOAD DUP1 DUP4 SUB DUP2 PUSH1 0x0 DUP8 DUP1 EXTCODESIZE ISZERO DUP1 ISZERO PUSH2 0x1AD9 JUMPI PUSH1 0x0 DUP1 REVERT JUMPDEST POP GAS CALL ISZERO DUP1 ISZERO PUSH2 0x1AED JUMPI RETURNDATASIZE PUSH1 0x0 DUP1 RETURNDATACOPY RETURNDATASIZE PUSH1 0x0 REVERT JUMPDEST POP POP POP POP PUSH1 0x40 MLOAD RETURNDATASIZE PUSH1 0x1F NOT PUSH1 0x1F DUP3 ADD AND DUP3 ADD DUP1 PUSH1 0x40 MSTORE POP PUSH1 0x40 DUP2 LT ISZERO PUSH2 0x1B12 JUMPI PUSH1 0x0 DUP1 REVERT JUMPDEST DUP2 ADD SWAP1 DUP1 SWAP2 SWAP1 POP POP SWAP1 POP PUSH1 0x1 PUSH1 0x0 SWAP1 SLOAD SWAP1 PUSH2 0x100 EXP SWAP1 DIV PUSH20 0xFFFFFFFFFFFFFFFFFFFFFFFFFFFFFFFFFFFFFFFF AND PUSH20 0xFFFFFFFFFFFFFFFFFFFFFFFFFFFFFFFFFFFFFFFF AND PUSH4 0xC025D89B DUP3 DUP7 PUSH1 0x40 MLOAD DUP4 PUSH4 0xFFFFFFFF AND PUSH29 0x100000000000000000000000000000000000000000000000000000000 MUL DUP2 MSTORE PUSH1 0x4 ADD DUP1 DUP4 PUSH1 0x2 PUSH1 0x20 MUL DUP1 DUP4 DUP4 PUSH1 0x0 JUMPDEST DUP4 DUP2 LT ISZERO PUSH2 0x1BB2 JUMPI DUP1 DUP3 ADD MLOAD DUP2 DUP5 ADD MSTORE PUSH1 0x20 DUP2 ADD SWAP1 POP PUSH2 0x1B97 JUMP JUMPDEST POP POP POP POP SWAP1 POP ADD DUP3 DUP2 MSTORE PUSH1 0x20 ADD SWAP3 POP POP POP PUSH1 0x40 DUP1 MLOAD DUP1 DUP4 SUB DUP2 PUSH1 0x0 DUP8 DUP1 EXTCODESIZE ISZERO DUP1 ISZERO PUSH2 0x1BDC JUMPI PUSH1 0x0 DUP1 REVERT JUMPDEST POP GAS CALL ISZERO DUP1 ISZERO PUSH2 0x1BF0 JUMPI RETURNDATASIZE PUSH1 0x0 DUP1 RETURNDATACOPY RETURNDATASIZE PUSH1 0x0 REVERT JUMPDEST POP POP POP POP PUSH1 0x40 MLOAD RETURNDATASIZE PUSH1 0x1F NOT PUSH1 0x1F DUP3 ADD AND DUP3 ADD DUP1 PUSH1 0x40 MSTORE POP PUSH1 0x40 DUP2 LT ISZERO PUSH2 0x1C15 JUMPI PUSH1 0x0 DUP1 REVERT JUMPDEST DUP2 ADD SWAP1 DUP1 SWAP2 SWAP1 POP POP SWAP1 POP SWAP3 POP SWAP3 SWAP1 POP JUMP JUMPDEST PUSH2 0x1C2E PUSH2 0x4580 JUMP JUMPDEST PUSH2 0x1C36 PUSH2 0x4580 JUMP JUMPDEST PUSH1 0x1 PUSH1 0x0 SWAP1 SLOAD SWAP1 PUSH2 0x100 EXP SWAP1 DIV PUSH20 0xFFFFFFFFFFFFFFFFFFFFFFFFFFFFFFFFFFFFFFFF AND PUSH20 0xFFFFFFFFFFFFFFFFFFFFFFFFFFFFFFFFFFFFFFFF AND PUSH4 0xC025D89B PUSH1 0x1 PUSH1 0x0 SWAP1 SLOAD SWAP1 PUSH2 0x100 EXP SWAP1 DIV PUSH20 0xFFFFFFFFFFFFFFFFFFFFFFFFFFFFFFFFFFFFFFFF AND PUSH20 0xFFFFFFFFFFFFFFFFFFFFFFFFFFFFFFFFFFFFFFFF AND PUSH4 0xAE5D39F6 PUSH1 0x40 MLOAD DUP2 PUSH4 0xFFFFFFFF AND PUSH29 0x100000000000000000000000000000000000000000000000000000000 MUL DUP2 MSTORE PUSH1 0x4 ADD PUSH1 0x40 DUP1 MLOAD DUP1 DUP4 SUB DUP2 PUSH1 0x0 DUP8 DUP1 EXTCODESIZE ISZERO DUP1 ISZERO PUSH2 0x1CF9 JUMPI PUSH1 0x0 DUP1 REVERT JUMPDEST POP GAS CALL ISZERO DUP1 ISZERO PUSH2 0x1D0D JUMPI RETURNDATASIZE PUSH1 0x0 DUP1 RETURNDATACOPY RETURNDATASIZE PUSH1 0x0 REVERT JUMPDEST POP POP POP POP PUSH1 0x40 MLOAD RETURNDATASIZE PUSH1 0x1F NOT PUSH1 0x1F DUP3 ADD AND DUP3 ADD DUP1 PUSH1 0x40 MSTORE POP PUSH1 0x40 DUP2 LT ISZERO PUSH2 0x1D32 JUMPI PUSH1 0x0 DUP1 REVERT JUMPDEST DUP2 ADD SWAP1 DUP1 SWAP2 SWAP1 POP POP DUP7 PUSH1 0x40 MLOAD DUP4 PUSH4 0xFFFFFFFF AND PUSH29 0x100000000000000000000000000000000000000000000000000000000 MUL DUP2 MSTORE PUSH1 0x4 ADD DUP1 DUP4 PUSH1 0x2 PUSH1 0x20 MUL DUP1 DUP4 DUP4 PUSH1 0x0 JUMPDEST DUP4 DUP2 LT ISZERO PUSH2 0x1D91 JUMPI DUP1 DUP3 ADD MLOAD DUP2 DUP5 ADD MSTORE PUSH1 0x20 DUP2 ADD SWAP1 POP PUSH2 0x1D76 JUMP JUMPDEST POP POP POP POP SWAP1 POP ADD DUP3 DUP2 MSTORE PUSH1 0x20 ADD SWAP3 POP POP POP PUSH1 0x40 DUP1 MLOAD DUP1 DUP4 SUB DUP2 PUSH1 0x0 DUP8 DUP1 EXTCODESIZE ISZERO DUP1 ISZERO PUSH2 0x1DBB JUMPI PUSH1 0x0 DUP1 REVERT JUMPDEST POP GAS CALL ISZERO DUP1 ISZERO PUSH2 0x1DCF JUMPI RETURNDATASIZE PUSH1 0x0 DUP1 RETURNDATACOPY RETURNDATASIZE PUSH1 0x0 REVERT JUMPDEST POP POP POP POP PUSH1 0x40 MLOAD RETURNDATASIZE PUSH1 0x1F NOT PUSH1 0x1F DUP3 ADD AND DUP3 ADD DUP1 PUSH1 0x40 MSTORE POP PUSH1 0x40 DUP2 LT ISZERO PUSH2 0x1DF4 JUMPI PUSH1 0x0 DUP1 REVERT JUMPDEST DUP2 ADD SWAP1 DUP1 SWAP2 SWAP1 POP POP SWAP2 POP PUSH1 0x1 PUSH1 0x0 SWAP1 SLOAD SWAP1 PUSH2 0x100 EXP SWAP1 DIV PUSH20 0xFFFFFFFFFFFFFFFFFFFFFFFFFFFFFFFFFFFFFFFF AND PUSH20 0xFFFFFFFFFFFFFFFFFFFFFFFFFFFFFFFFFFFFFFFF AND PUSH4 0xC025D89B DUP5 DUP8 PUSH1 0x40 MLOAD DUP4 PUSH4 0xFFFFFFFF AND PUSH29 0x100000000000000000000000000000000000000000000000000000000 MUL DUP2 MSTORE PUSH1 0x4 ADD DUP1 DUP4 PUSH1 0x2 PUSH1 0x20 MUL DUP1 DUP4 DUP4 PUSH1 0x0 JUMPDEST DUP4 DUP2 LT ISZERO PUSH2 0x1E94 JUMPI DUP1 DUP3 ADD MLOAD DUP2 DUP5 ADD MSTORE PUSH1 0x20 DUP2 ADD SWAP1 POP PUSH2 0x1E79 JUMP JUMPDEST POP POP POP POP SWAP1 POP ADD DUP3 DUP2 MSTORE PUSH1 0x20 ADD SWAP3 POP POP POP PUSH1 0x40 DUP1 MLOAD DUP1 DUP4 SUB DUP2 PUSH1 0x0 DUP8 DUP1 EXTCODESIZE ISZERO DUP1 ISZERO PUSH2 0x1EBE JUMPI PUSH1 0x0 DUP1 REVERT JUMPDEST POP GAS CALL ISZERO DUP1 ISZERO PUSH2 0x1ED2 JUMPI RETURNDATASIZE PUSH1 0x0 DUP1 RETURNDATACOPY RETURNDATASIZE PUSH1 0x0 REVERT JUMPDEST POP POP POP POP PUSH1 0x40 MLOAD RETURNDATASIZE PUSH1 0x1F NOT PUSH1 0x1F DUP3 ADD AND DUP3 ADD DUP1 PUSH1 0x40 MSTORE POP PUSH1 0x40 DUP2 LT ISZERO PUSH2 0x1EF7 JUMPI PUSH1 0x0 DUP1 REVERT JUMPDEST DUP2 ADD SWAP1 DUP1 SWAP2 SWAP1 POP POP SWAP1 POP PUSH1 0x1 PUSH1 0x0 SWAP1 SLOAD SWAP1 PUSH2 0x100 EXP SWAP1 DIV PUSH20 0xFFFFFFFFFFFFFFFFFFFFFFFFFFFFFFFFFFFFFFFF AND PUSH20 0xFFFFFFFFFFFFFFFFFFFFFFFFFFFFFFFFFFFFFFFF AND PUSH4 0xC753FE8 DUP4 DUP4 PUSH1 0x40 MLOAD DUP4 PUSH4 0xFFFFFFFF AND PUSH29 0x100000000000000000000000000000000000000000000000000000000 MUL DUP2 MSTORE PUSH1 0x4 ADD DUP1 DUP4 PUSH1 0x2 PUSH1 0x20 MUL DUP1 DUP4 DUP4 PUSH1 0x0 JUMPDEST DUP4 DUP2 LT ISZERO PUSH2 0x1F97 JUMPI DUP1 DUP3 ADD MLOAD DUP2 DUP5 ADD MSTORE PUSH1 0x20 DUP2 ADD SWAP1 POP PUSH2 0x1F7C JUMP JUMPDEST POP POP POP POP SWAP1 POP ADD DUP3 PUSH1 0x2 PUSH1 0x20 MUL DUP1 DUP4 DUP4 PUSH1 0x0 JUMPDEST DUP4 DUP2 LT ISZERO PUSH2 0x1FC5 JUMPI DUP1 DUP3 ADD MLOAD DUP2 DUP5 ADD MSTORE PUSH1 0x20 DUP2 ADD SWAP1 POP PUSH2 0x1FAA JUMP JUMPDEST POP POP POP POP SWAP1 POP ADD SWAP3 POP POP POP PUSH1 0x40 DUP1 MLOAD DUP1 DUP4 SUB DUP2 PUSH1 0x0 DUP8 DUP1 EXTCODESIZE ISZERO DUP1 ISZERO PUSH2 0x1FE9 JUMPI PUSH1 0x0 DUP1 REVERT JUMPDEST POP GAS CALL ISZERO DUP1 ISZERO PUSH2 0x1FFD JUMPI RETURNDATASIZE PUSH1 0x0 DUP1 RETURNDATACOPY RETURNDATASIZE PUSH1 0x0 REVERT JUMPDEST POP POP POP POP PUSH1 0x40 MLOAD RETURNDATASIZE PUSH1 0x1F NOT PUSH1 0x1F DUP3 ADD AND DUP3 ADD DUP1 PUSH1 0x40 MSTORE POP PUSH1 0x40 DUP2 LT ISZERO PUSH2 0x2022 JUMPI PUSH1 0x0 DUP1 REVERT JUMPDEST DUP2 ADD SWAP1 DUP1 SWAP2 SWAP1 POP POP SWAP2 POP POP SWAP4 SWAP3 POP POP POP JUMP JUMPDEST PUSH1 0x0 PUSH2 0x203E PUSH2 0x4580 JUMP JUMPDEST PUSH2 0x2046 PUSH2 0x4580 JUMP JUMPDEST PUSH2 0x2050 DUP6 DUP6 PUSH2 0x1849 JUMP JUMPDEST DUP1 SWAP3 POP DUP2 SWAP4 POP POP POP PUSH2 0x2063 DUP7 DUP4 DUP4 PUSH2 0x289F JUMP JUMPDEST SWAP3 POP POP POP SWAP4 SWAP3 POP POP POP JUMP JUMPDEST PUSH1 0x0 PUSH2 0x2078 PUSH2 0x4580 JUMP JUMPDEST PUSH1 0x60 PUSH1 0x0 PUSH1 0x2 DUP7 MLOAD MUL PUSH1 0x40 MLOAD SWAP1 DUP1 DUP3 MSTORE DUP1 PUSH1 0x20 MUL PUSH1 0x20 ADD DUP3 ADD PUSH1 0x40 MSTORE DUP1 ISZERO PUSH2 0x20AF JUMPI DUP2 PUSH1 0x20 ADD PUSH1 0x20 DUP3 MUL DUP1 CODESIZE DUP4 CODECOPY DUP1 DUP3 ADD SWAP2 POP POP SWAP1 POP JUMPDEST POP SWAP2 POP PUSH1 0x0 SWAP1 POP JUMPDEST DUP6 MLOAD DUP2 LT ISZERO PUSH2 0x2220 JUMPI PUSH1 0x1 PUSH1 0x0 SWAP1 SLOAD SWAP1 PUSH2 0x100 EXP SWAP1 DIV PUSH20 0xFFFFFFFFFFFFFFFFFFFFFFFFFFFFFFFFFFFFFFFF AND PUSH20 0xFFFFFFFFFFFFFFFFFFFFFFFFFFFFFFFFFFFFFFFF AND PUSH4 0x5DA7F69E DUP8 DUP4 DUP2 MLOAD DUP2 LT ISZERO ISZERO PUSH2 0x210C JUMPI INVALID JUMPDEST SWAP1 PUSH1 0x20 ADD SWAP1 PUSH1 0x20 MUL ADD MLOAD PUSH1 0x40 MLOAD DUP3 PUSH4 0xFFFFFFFF AND PUSH29 0x100000000000000000000000000000000000000000000000000000000 MUL DUP2 MSTORE PUSH1 0x4 ADD DUP1 DUP3 DUP2 MSTORE PUSH1 0x20 ADD SWAP2 POP POP PUSH1 0x40 DUP1 MLOAD DUP1 DUP4 SUB DUP2 PUSH1 0x0 DUP8 DUP1 EXTCODESIZE ISZERO DUP1 ISZERO PUSH2 0x2167 JUMPI PUSH1 0x0 DUP1 REVERT JUMPDEST POP GAS CALL ISZERO DUP1 ISZERO PUSH2 0x217B JUMPI RETURNDATASIZE PUSH1 0x0 DUP1 RETURNDATACOPY RETURNDATASIZE PUSH1 0x0 REVERT JUMPDEST POP POP POP POP PUSH1 0x40 MLOAD RETURNDATASIZE PUSH1 0x1F NOT PUSH1 0x1F DUP3 ADD AND DUP3 ADD DUP1 PUSH1 0x40 MSTORE POP PUSH1 0x40 DUP2 LT ISZERO PUSH2 0x21A0 JUMPI PUSH1 0x0 DUP1 REVERT JUMPDEST DUP2 ADD SWAP1 DUP1 SWAP2 SWAP1 POP POP SWAP3 POP DUP3 PUSH1 0x0 PUSH1 0x2 DUP2 LT ISZERO ISZERO PUSH2 0x21B9 JUMPI INVALID JUMPDEST PUSH1 0x20 MUL ADD MLOAD DUP3 DUP3 PUSH1 0x2 MUL DUP2 MLOAD DUP2 LT ISZERO ISZERO PUSH2 0x21CF JUMPI INVALID JUMPDEST SWAP1 PUSH1 0x20 ADD SWAP1 PUSH1 0x20 MUL ADD DUP2 DUP2 MSTORE POP POP DUP3 PUSH1 0x1 PUSH1 0x2 DUP2 LT ISZERO ISZERO PUSH2 0x21EC JUMPI INVALID JUMPDEST PUSH1 0x20 MUL ADD MLOAD DUP3 PUSH1 0x1 DUP4 PUSH1 0x2 MUL ADD DUP2 MLOAD DUP2 LT ISZERO ISZERO PUSH2 0x2205 JUMPI INVALID JUMPDEST SWAP1 PUSH1 0x20 ADD SWAP1 PUSH1 0x20 MUL ADD DUP2 DUP2 MSTORE POP POP DUP1 DUP1 PUSH1 0x1 ADD SWAP2 POP POP PUSH2 0x20B7 JUMP JUMPDEST PUSH2 0x222C DUP9 DUP9 DUP5 DUP9 PUSH2 0x2277 JUMP JUMPDEST SWAP4 POP POP POP POP SWAP5 SWAP4 POP POP POP POP JUMP JUMPDEST PUSH1 0x0 DUP1 PUSH2 0x2244 PUSH2 0x4601 JUMP JUMPDEST DUP4 MLOAD SWAP2 POP PUSH1 0x40 MLOAD PUSH1 0x20 DUP1 DUP5 MUL ADD DUP2 MSTORE DUP1 MLOAD DUP6 KECCAK256 DUP3 MSTORE POP DUP1 PUSH1 0x0 PUSH1 0x1 DUP2 LT ISZERO ISZERO PUSH2 0x2269 JUMPI INVALID JUMPDEST PUSH1 0x20 MUL ADD MLOAD SWAP3 POP POP POP SWAP2 SWAP1 POP JUMP JUMPDEST PUSH1 0x0 PUSH2 0x2281 PUSH2 0x45A2 JUMP JUMPDEST PUSH1 0x60 DUP7 DUP3 PUSH1 0x0 ADD DUP2 DUP2 MSTORE POP POP PUSH1 0x0 DUP3 PUSH1 0x0 ADD MLOAD PUSH1 0x2 MUL DUP7 MLOAD DUP2 ISZERO ISZERO PUSH2 0x22A2 JUMPI INVALID JUMPDEST MOD EQ ISZERO ISZERO PUSH2 0x22B3 JUMPI PUSH1 0x0 SWAP3 POP PUSH2 0x2629 JUMP JUMPDEST DUP2 PUSH1 0x0 ADD MLOAD PUSH1 0x2 MUL DUP6 MLOAD DUP2 ISZERO ISZERO PUSH2 0x22C6 JUMPI INVALID JUMPDEST DIV DUP3 PUSH1 0x20 ADD DUP2 DUP2 MSTORE POP POP PUSH1 0x1 DUP3 PUSH1 0x20 ADD MLOAD DUP4 PUSH1 0x0 ADD MLOAD MUL ADD DUP5 MLOAD EQ ISZERO ISZERO PUSH2 0x22F0 JUMPI PUSH1 0x0 SWAP3 POP PUSH2 0x2629 JUMP JUMPDEST PUSH1 0x1 DUP3 PUSH1 0x0 ADD MLOAD PUSH1 0x2 MUL ADD PUSH1 0x40 MLOAD SWAP1 DUP1 DUP3 MSTORE DUP1 PUSH1 0x20 MUL PUSH1 0x20 ADD DUP3 ADD PUSH1 0x40 MSTORE DUP1 ISZERO PUSH2 0x2329 JUMPI DUP2 PUSH1 0x20 ADD PUSH1 0x20 DUP3 MUL DUP1 CODESIZE DUP4 CODECOPY DUP1 DUP3 ADD SWAP2 POP POP SWAP1 POP JUMPDEST POP SWAP1 POP DUP6 DUP2 PUSH1 0x0 DUP2 MLOAD DUP2 LT ISZERO ISZERO PUSH2 0x233C JUMPI INVALID JUMPDEST SWAP1 PUSH1 0x20 ADD SWAP1 PUSH1 0x20 MUL ADD DUP2 DUP2 MSTORE POP POP PUSH1 0x0 DUP3 PUSH1 0x40 ADD DUP2 DUP2 MSTORE POP POP JUMPDEST DUP2 PUSH1 0x0 ADD MLOAD DUP3 PUSH1 0x40 ADD MLOAD LT ISZERO PUSH2 0x25F5 JUMPI DUP4 PUSH1 0x0 DUP2 MLOAD DUP2 LT ISZERO ISZERO PUSH2 0x2375 JUMPI INVALID JUMPDEST SWAP1 PUSH1 0x20 ADD SWAP1 PUSH1 0x20 MUL ADD MLOAD DUP3 PUSH1 0x80 ADD DUP2 DUP2 MSTORE POP POP PUSH1 0x0 DUP3 PUSH1 0x60 ADD DUP2 DUP2 MSTORE POP POP JUMPDEST PUSH1 0x1 DUP3 PUSH1 0x20 ADD MLOAD SUB DUP3 PUSH1 0x60 ADD MLOAD LT ISZERO PUSH2 0x248A JUMPI DUP2 PUSH1 0x40 ADD MLOAD DUP3 PUSH1 0x60 ADD MLOAD DUP4 PUSH1 0x0 ADD MLOAD MUL ADD DUP3 PUSH1 0xA0 ADD DUP2 DUP2 MSTORE POP POP DUP5 DUP3 PUSH1 0xA0 ADD MLOAD PUSH1 0x2 MUL DUP2 MLOAD DUP2 LT ISZERO ISZERO PUSH2 0x23D6 JUMPI INVALID JUMPDEST SWAP1 PUSH1 0x20 ADD SWAP1 PUSH1 0x20 MUL ADD MLOAD DUP6 PUSH1 0x1 DUP5 PUSH1 0xA0 ADD MLOAD PUSH1 0x2 MUL ADD DUP2 MLOAD DUP2 LT ISZERO ISZERO PUSH2 0x23F8 JUMPI INVALID JUMPDEST SWAP1 PUSH1 0x20 ADD SWAP1 PUSH1 0x20 MUL ADD MLOAD DUP4 PUSH1 0xC0 ADD MLOAD PUSH1 0x0 PUSH1 0x2 DUP2 LT ISZERO ISZERO PUSH2 0x2415 JUMPI INVALID JUMPDEST PUSH1 0x20 MUL ADD DUP5 PUSH1 0xC0 ADD MLOAD PUSH1 0x1 PUSH1 0x2 DUP2 LT ISZERO ISZERO PUSH2 0x242C JUMPI INVALID JUMPDEST PUSH1 0x20 MUL ADD DUP3 DUP2 MSTORE POP DUP3 DUP2 MSTORE POP POP POP PUSH2 0x246C DUP7 DUP4 PUSH1 0x80 ADD MLOAD DUP7 PUSH1 0x1 DUP7 PUSH1 0xA0 ADD MLOAD ADD DUP2 MLOAD DUP2 LT ISZERO ISZERO PUSH2 0x2458 JUMPI INVALID JUMPDEST SWAP1 PUSH1 0x20 ADD SWAP1 PUSH1 0x20 MUL ADD MLOAD DUP6 PUSH1 0xC0 ADD MLOAD PUSH2 0x41C6 JUMP JUMPDEST DUP3 PUSH1 0x80 ADD DUP2 DUP2 MSTORE POP POP DUP2 PUSH1 0x60 ADD DUP1 MLOAD DUP1 SWAP2 SWAP1 PUSH1 0x1 ADD DUP2 MSTORE POP POP PUSH2 0x2394 JUMP JUMPDEST DUP2 PUSH1 0x40 ADD MLOAD PUSH1 0x1 DUP4 PUSH1 0x20 ADD MLOAD SUB DUP4 PUSH1 0x0 ADD MLOAD MUL ADD DUP3 PUSH1 0xA0 ADD DUP2 DUP2 MSTORE POP POP DUP5 DUP3 PUSH1 0xA0 ADD MLOAD PUSH1 0x2 MUL DUP2 MLOAD DUP2 LT ISZERO ISZERO PUSH2 0x24BC JUMPI INVALID JUMPDEST SWAP1 PUSH1 0x20 ADD SWAP1 PUSH1 0x20 MUL ADD MLOAD DUP6 PUSH1 0x1 DUP5 PUSH1 0xA0 ADD MLOAD PUSH1 0x2 MUL ADD DUP2 MLOAD DUP2 LT ISZERO ISZERO PUSH2 0x24DE JUMPI INVALID JUMPDEST SWAP1 PUSH1 0x20 ADD SWAP1 PUSH1 0x20 MUL ADD MLOAD DUP4 PUSH1 0xC0 ADD MLOAD PUSH1 0x0 PUSH1 0x2 DUP2 LT ISZERO ISZERO PUSH2 0x24FB JUMPI INVALID JUMPDEST PUSH1 0x20 MUL ADD DUP5 PUSH1 0xC0 ADD MLOAD PUSH1 0x1 PUSH1 0x2 DUP2 LT ISZERO ISZERO PUSH2 0x2512 JUMPI INVALID JUMPDEST PUSH1 0x20 MUL ADD DUP3 DUP2 MSTORE POP DUP3 DUP2 MSTORE POP POP POP PUSH2 0x2551 DUP3 PUSH1 0x80 ADD MLOAD DUP6 PUSH1 0x1 DUP6 PUSH1 0xA0 ADD MLOAD ADD DUP2 MLOAD DUP2 LT ISZERO ISZERO PUSH2 0x253D JUMPI INVALID JUMPDEST SWAP1 PUSH1 0x20 ADD SWAP1 PUSH1 0x20 MUL ADD MLOAD DUP5 PUSH1 0xC0 ADD MLOAD PUSH2 0x1C26 JUMP JUMPDEST DUP3 PUSH1 0xC0 ADD DUP2 SWAP1 MSTORE POP PUSH1 0x1 PUSH1 0x2 DUP4 PUSH1 0x40 ADD MLOAD MUL ADD DUP3 PUSH1 0xA0 ADD DUP2 DUP2 MSTORE POP POP DUP2 PUSH1 0xC0 ADD MLOAD PUSH1 0x0 PUSH1 0x2 DUP2 LT ISZERO ISZERO PUSH2 0x2580 JUMPI INVALID JUMPDEST PUSH1 0x20 MUL ADD MLOAD DUP2 DUP4 PUSH1 0xA0 ADD MLOAD DUP2 MLOAD DUP2 LT ISZERO ISZERO PUSH2 0x2597 JUMPI INVALID JUMPDEST SWAP1 PUSH1 0x20 ADD SWAP1 PUSH1 0x20 MUL ADD DUP2 DUP2 MSTORE POP POP DUP2 PUSH1 0xC0 ADD MLOAD PUSH1 0x1 PUSH1 0x2 DUP2 LT ISZERO ISZERO PUSH2 0x25B8 JUMPI INVALID JUMPDEST PUSH1 0x20 MUL ADD MLOAD DUP2 PUSH1 0x1 DUP5 PUSH1 0xA0 ADD MLOAD ADD DUP2 MLOAD DUP2 LT ISZERO ISZERO PUSH2 0x25D2 JUMPI INVALID JUMPDEST SWAP1 PUSH1 0x20 ADD SWAP1 PUSH1 0x20 MUL ADD DUP2 DUP2 MSTORE POP POP DUP2 PUSH1 0x40 ADD DUP1 MLOAD DUP1 SWAP2 SWAP1 PUSH1 0x1 ADD DUP2 MSTORE POP POP PUSH2 0x2356 JUMP JUMPDEST PUSH2 0x25FE DUP2 PUSH2 0x2239 JUMP JUMPDEST DUP3 PUSH1 0x80 ADD DUP2 DUP2 MSTORE POP POP DUP4 PUSH1 0x0 DUP2 MLOAD DUP2 LT ISZERO ISZERO PUSH2 0x2616 JUMPI INVALID JUMPDEST SWAP1 PUSH1 0x20 ADD SWAP1 PUSH1 0x20 MUL ADD MLOAD DUP3 PUSH1 0x80 ADD MLOAD EQ SWAP3 POP JUMPDEST POP POP SWAP5 SWAP4 POP POP POP POP JUMP JUMPDEST PUSH1 0x0 PUSH1 0x1 PUSH1 0x0 SWAP1 SLOAD SWAP1 PUSH2 0x100 EXP SWAP1 DIV PUSH20 0xFFFFFFFFFFFFFFFFFFFFFFFFFFFFFFFFFFFFFFFF AND PUSH20 0xFFFFFFFFFFFFFFFFFFFFFFFFFFFFFFFFFFFFFFFF AND PUSH4 0xD1FF535B PUSH1 0x40 MLOAD DUP2 PUSH4 0xFFFFFFFF AND PUSH29 0x100000000000000000000000000000000000000000000000000000000 MUL DUP2 MSTORE PUSH1 0x4 ADD PUSH1 0x20 PUSH1 0x40 MLOAD DUP1 DUP4 SUB DUP2 PUSH1 0x0 DUP8 DUP1 EXTCODESIZE ISZERO DUP1 ISZERO PUSH2 0x26BB JUMPI PUSH1 0x0 DUP1 REVERT JUMPDEST POP GAS CALL ISZERO DUP1 ISZERO PUSH2 0x26CF JUMPI RETURNDATASIZE PUSH1 0x0 DUP1 RETURNDATACOPY RETURNDATASIZE PUSH1 0x0 REVERT JUMPDEST POP POP POP POP PUSH1 0x40 MLOAD RETURNDATASIZE PUSH1 0x20 DUP2 LT ISZERO PUSH2 0x26E5 JUMPI PUSH1 0x0 DUP1 REVERT JUMPDEST DUP2 ADD SWAP1 DUP1 DUP1 MLOAD SWAP1 PUSH1 0x20 ADD SWAP1 SWAP3 SWAP2 SWAP1 POP POP POP DUP1 ISZERO ISZERO PUSH2 0x26FF JUMPI INVALID JUMPDEST DUP3 DUP5 MULMOD SWAP1 POP DUP1 PUSH1 0x1 PUSH1 0x0 SWAP1 SLOAD SWAP1 PUSH2 0x100 EXP SWAP1 DIV PUSH20 0xFFFFFFFFFFFFFFFFFFFFFFFFFFFFFFFFFFFFFFFF AND PUSH20 0xFFFFFFFFFFFFFFFFFFFFFFFFFFFFFFFFFFFFFFFF AND PUSH4 0xD1FF535B PUSH1 0x40 MLOAD DUP2 PUSH4 0xFFFFFFFF AND PUSH29 0x100000000000000000000000000000000000000000000000000000000 MUL DUP2 MSTORE PUSH1 0x4 ADD PUSH1 0x20 PUSH1 0x40 MLOAD DUP1 DUP4 SUB DUP2 PUSH1 0x0 DUP8 DUP1 EXTCODESIZE ISZERO DUP1 ISZERO PUSH2 0x278B JUMPI PUSH1 0x0 DUP1 REVERT JUMPDEST POP GAS CALL ISZERO DUP1 ISZERO PUSH2 0x279F JUMPI RETURNDATASIZE PUSH1 0x0 DUP1 RETURNDATACOPY RETURNDATASIZE PUSH1 0x0 REVERT JUMPDEST POP POP POP POP PUSH1 0x40 MLOAD RETURNDATASIZE PUSH1 0x20 DUP2 LT ISZERO PUSH2 0x27B5 JUMPI PUSH1 0x0 DUP1 REVERT JUMPDEST DUP2 ADD SWAP1 DUP1 DUP1 MLOAD SWAP1 PUSH1 0x20 ADD SWAP1 SWAP3 SWAP2 SWAP1 POP POP POP SUB SWAP1 POP PUSH1 0x1 PUSH1 0x0 SWAP1 SLOAD SWAP1 PUSH2 0x100 EXP SWAP1 DIV PUSH20 0xFFFFFFFFFFFFFFFFFFFFFFFFFFFFFFFFFFFFFFFF AND PUSH20 0xFFFFFFFFFFFFFFFFFFFFFFFFFFFFFFFFFFFFFFFF AND PUSH4 0xD1FF535B PUSH1 0x40 MLOAD DUP2 PUSH4 0xFFFFFFFF AND PUSH29 0x100000000000000000000000000000000000000000000000000000000 MUL DUP2 MSTORE PUSH1 0x4 ADD PUSH1 0x20 PUSH1 0x40 MLOAD DUP1 DUP4 SUB DUP2 PUSH1 0x0 DUP8 DUP1 EXTCODESIZE ISZERO DUP1 ISZERO PUSH2 0x284F JUMPI PUSH1 0x0 DUP1 REVERT JUMPDEST POP GAS CALL ISZERO DUP1 ISZERO PUSH2 0x2863 JUMPI RETURNDATASIZE PUSH1 0x0 DUP1 RETURNDATACOPY RETURNDATASIZE PUSH1 0x0 REVERT JUMPDEST POP POP POP POP PUSH1 0x40 MLOAD RETURNDATASIZE PUSH1 0x20 DUP2 LT ISZERO PUSH2 0x2879 JUMPI PUSH1 0x0 DUP1 REVERT JUMPDEST DUP2 ADD SWAP1 DUP1 DUP1 MLOAD SWAP1 PUSH1 0x20 ADD SWAP1 SWAP3 SWAP2 SWAP1 POP POP POP DUP1 ISZERO ISZERO PUSH2 0x2893 JUMPI INVALID JUMPDEST DUP2 DUP6 ADDMOD SWAP1 POP SWAP4 SWAP3 POP POP POP JUMP JUMPDEST PUSH1 0x0 PUSH1 0x1 PUSH1 0x0 SWAP1 SLOAD SWAP1 PUSH2 0x100 EXP SWAP1 DIV PUSH20 0xFFFFFFFFFFFFFFFFFFFFFFFFFFFFFFFFFFFFFFFF AND PUSH20 0xFFFFFFFFFFFFFFFFFFFFFFFFFFFFFFFFFFFFFFFF AND PUSH4 0xD1FF535B PUSH1 0x40 MLOAD DUP2 PUSH4 0xFFFFFFFF AND PUSH29 0x100000000000000000000000000000000000000000000000000000000 MUL DUP2 MSTORE PUSH1 0x4 ADD PUSH1 0x20 PUSH1 0x40 MLOAD DUP1 DUP4 SUB DUP2 PUSH1 0x0 DUP8 DUP1 EXTCODESIZE ISZERO DUP1 ISZERO PUSH2 0x2927 JUMPI PUSH1 0x0 DUP1 REVERT JUMPDEST POP GAS CALL ISZERO DUP1 ISZERO PUSH2 0x293B JUMPI RETURNDATASIZE PUSH1 0x0 DUP1 RETURNDATACOPY RETURNDATASIZE PUSH1 0x0 REVERT JUMPDEST POP POP POP POP PUSH1 0x40 MLOAD RETURNDATASIZE PUSH1 0x20 DUP2 LT ISZERO PUSH2 0x2951 JUMPI PUSH1 0x0 DUP1 REVERT JUMPDEST DUP2 ADD SWAP1 DUP1 DUP1 MLOAD SWAP1 PUSH1 0x20 ADD SWAP1 SWAP3 SWAP2 SWAP1 POP POP POP DUP5 DUP5 PUSH1 0x0 PUSH1 0x2 DUP2 LT ISZERO ISZERO PUSH2 0x2972 JUMPI INVALID JUMPDEST PUSH1 0x20 MUL ADD MLOAD DUP6 PUSH1 0x1 PUSH1 0x2 DUP2 LT ISZERO ISZERO PUSH2 0x2986 JUMPI INVALID JUMPDEST PUSH1 0x20 MUL ADD MLOAD DUP6 PUSH1 0x0 PUSH1 0x2 DUP2 LT ISZERO ISZERO PUSH2 0x299A JUMPI INVALID JUMPDEST PUSH1 0x20 MUL ADD MLOAD DUP7 PUSH1 0x1 PUSH1 0x2 DUP2 LT ISZERO ISZERO PUSH2 0x29AE JUMPI INVALID JUMPDEST PUSH1 0x20 MUL ADD MLOAD PUSH1 0x40 MLOAD DUP1 DUP7 DUP2 MSTORE PUSH1 0x20 ADD DUP6 DUP2 MSTORE PUSH1 0x20 ADD DUP5 DUP2 MSTORE PUSH1 0x20 ADD DUP4 DUP2 MSTORE PUSH1 0x20 ADD DUP3 DUP2 MSTORE PUSH1 0x20 ADD SWAP6 POP POP POP POP POP POP PUSH1 0x40 MLOAD DUP1 SWAP2 SUB SWAP1 KECCAK256 PUSH1 0x1 SWAP1 DIV DUP2 ISZERO ISZERO PUSH2 0x29F1 JUMPI INVALID JUMPDEST MOD SWAP1 POP SWAP4 SWAP3 POP POP POP JUMP JUMPDEST PUSH1 0x0 PUSH1 0x1 PUSH1 0x0 SWAP1 SLOAD SWAP1 PUSH2 0x100 EXP SWAP1 DIV PUSH20 0xFFFFFFFFFFFFFFFFFFFFFFFFFFFFFFFFFFFFFFFF AND PUSH20 0xFFFFFFFFFFFFFFFFFFFFFFFFFFFFFFFFFFFFFFFF AND PUSH4 0xD1FF535B PUSH1 0x40 MLOAD DUP2 PUSH4 0xFFFFFFFF AND PUSH29 0x100000000000000000000000000000000000000000000000000000000 MUL DUP2 MSTORE PUSH1 0x4 ADD PUSH1 0x20 PUSH1 0x40 MLOAD DUP1 DUP4 SUB DUP2 PUSH1 0x0 DUP8 DUP1 EXTCODESIZE ISZERO DUP1 ISZERO PUSH2 0x2A83 JUMPI PUSH1 0x0 DUP1 REVERT JUMPDEST POP GAS CALL ISZERO DUP1 ISZERO PUSH2 0x2A97 JUMPI RETURNDATASIZE PUSH1 0x0 DUP1 RETURNDATACOPY RETURNDATASIZE PUSH1 0x0 REVERT JUMPDEST POP POP POP POP PUSH1 0x40 MLOAD RETURNDATASIZE PUSH1 0x20 DUP2 LT ISZERO PUSH2 0x2AAD JUMPI PUSH1 0x0 DUP1 REVERT JUMPDEST DUP2 ADD SWAP1 DUP1 DUP1 MLOAD SWAP1 PUSH1 0x20 ADD SWAP1 SWAP3 SWAP2 SWAP1 POP POP POP DUP4 DUP4 PUSH1 0x0 PUSH1 0x2 DUP2 LT ISZERO ISZERO PUSH2 0x2ACE JUMPI INVALID JUMPDEST PUSH1 0x20 MUL ADD MLOAD DUP5 PUSH1 0x1 PUSH1 0x2 DUP2 LT ISZERO ISZERO PUSH2 0x2AE2 JUMPI INVALID JUMPDEST PUSH1 0x20 MUL ADD MLOAD PUSH1 0x40 MLOAD DUP1 DUP5 DUP2 MSTORE PUSH1 0x20 ADD DUP4 DUP2 MSTORE PUSH1 0x20 ADD DUP3 DUP2 MSTORE PUSH1 0x20 ADD SWAP4 POP POP POP POP PUSH1 0x40 MLOAD DUP1 SWAP2 SUB SWAP1 KECCAK256 PUSH1 0x1 SWAP1 DIV DUP2 ISZERO ISZERO PUSH2 0x2B17 JUMPI INVALID JUMPDEST MOD SWAP1 POP SWAP3 SWAP2 POP POP JUMP JUMPDEST PUSH2 0x2B28 PUSH2 0x4580 JUMP JUMPDEST PUSH2 0x2B30 PUSH2 0x4580 JUMP JUMPDEST PUSH2 0x2B38 PUSH2 0x4580 JUMP JUMPDEST PUSH1 0x1 PUSH1 0x0 SWAP1 SLOAD SWAP1 PUSH2 0x100 EXP SWAP1 DIV PUSH20 0xFFFFFFFFFFFFFFFFFFFFFFFFFFFFFFFFFFFFFFFF AND PUSH20 0xFFFFFFFFFFFFFFFFFFFFFFFFFFFFFFFFFFFFFFFF AND PUSH4 0xC025D89B PUSH1 0x1 PUSH1 0x0 SWAP1 SLOAD SWAP1 PUSH2 0x100 EXP SWAP1 DIV PUSH20 0xFFFFFFFFFFFFFFFFFFFFFFFFFFFFFFFFFFFFFFFF AND PUSH20 0xFFFFFFFFFFFFFFFFFFFFFFFFFFFFFFFFFFFFFFFF AND PUSH4 0xAE5D39F6 PUSH1 0x40 MLOAD DUP2 PUSH4 0xFFFFFFFF AND PUSH29 0x100000000000000000000000000000000000000000000000000000000 MUL DUP2 MSTORE PUSH1 0x4 ADD PUSH1 0x40 DUP1 MLOAD DUP1 DUP4 SUB DUP2 PUSH1 0x0 DUP8 DUP1 EXTCODESIZE ISZERO DUP1 ISZERO PUSH2 0x2BFB JUMPI PUSH1 0x0 DUP1 REVERT JUMPDEST POP GAS CALL ISZERO DUP1 ISZERO PUSH2 0x2C0F JUMPI RETURNDATASIZE PUSH1 0x0 DUP1 RETURNDATACOPY RETURNDATASIZE PUSH1 0x0 REVERT JUMPDEST POP POP POP POP PUSH1 0x40 MLOAD RETURNDATASIZE PUSH1 0x1F NOT PUSH1 0x1F DUP3 ADD AND DUP3 ADD DUP1 PUSH1 0x40 MSTORE POP PUSH1 0x40 DUP2 LT ISZERO PUSH2 0x2C34 JUMPI PUSH1 0x0 DUP1 REVERT JUMPDEST DUP2 ADD SWAP1 DUP1 SWAP2 SWAP1 POP POP DUP9 PUSH1 0x40 MLOAD DUP4 PUSH4 0xFFFFFFFF AND PUSH29 0x100000000000000000000000000000000000000000000000000000000 MUL DUP2 MSTORE PUSH1 0x4 ADD DUP1 DUP4 PUSH1 0x2 PUSH1 0x20 MUL DUP1 DUP4 DUP4 PUSH1 0x0 JUMPDEST DUP4 DUP2 LT ISZERO PUSH2 0x2C93 JUMPI DUP1 DUP3 ADD MLOAD DUP2 DUP5 ADD MSTORE PUSH1 0x20 DUP2 ADD SWAP1 POP PUSH2 0x2C78 JUMP JUMPDEST POP POP POP POP SWAP1 POP ADD DUP3 DUP2 MSTORE PUSH1 0x20 ADD SWAP3 POP POP POP PUSH1 0x40 DUP1 MLOAD DUP1 DUP4 SUB DUP2 PUSH1 0x0 DUP8 DUP1 EXTCODESIZE ISZERO DUP1 ISZERO PUSH2 0x2CBD JUMPI PUSH1 0x0 DUP1 REVERT JUMPDEST POP GAS CALL ISZERO DUP1 ISZERO PUSH2 0x2CD1 JUMPI RETURNDATASIZE PUSH1 0x0 DUP1 RETURNDATACOPY RETURNDATASIZE PUSH1 0x0 REVERT JUMPDEST POP POP POP POP PUSH1 0x40 MLOAD RETURNDATASIZE PUSH1 0x1F NOT PUSH1 0x1F DUP3 ADD AND DUP3 ADD DUP1 PUSH1 0x40 MSTORE POP PUSH1 0x40 DUP2 LT ISZERO PUSH2 0x2CF6 JUMPI PUSH1 0x0 DUP1 REVERT JUMPDEST DUP2 ADD SWAP1 DUP1 SWAP2 SWAP1 POP POP SWAP3 POP PUSH1 0x1 PUSH1 0x0 SWAP1 SLOAD SWAP1 PUSH2 0x100 EXP SWAP1 DIV PUSH20 0xFFFFFFFFFFFFFFFFFFFFFFFFFFFFFFFFFFFFFFFF AND PUSH20 0xFFFFFFFFFFFFFFFFFFFFFFFFFFFFFFFFFFFFFFFF AND PUSH4 0xC025D89B DUP7 DUP10 PUSH1 0x40 MLOAD DUP4 PUSH4 0xFFFFFFFF AND PUSH29 0x100000000000000000000000000000000000000000000000000000000 MUL DUP2 MSTORE PUSH1 0x4 ADD DUP1 DUP4 PUSH1 0x2 PUSH1 0x20 MUL DUP1 DUP4 DUP4 PUSH1 0x0 JUMPDEST DUP4 DUP2 LT ISZERO PUSH2 0x2D96 JUMPI DUP1 DUP3 ADD MLOAD DUP2 DUP5 ADD MSTORE PUSH1 0x20 DUP2 ADD SWAP1 POP PUSH2 0x2D7B JUMP JUMPDEST POP POP POP POP SWAP1 POP ADD DUP3 DUP2 MSTORE PUSH1 0x20 ADD SWAP3 POP POP POP PUSH1 0x40 DUP1 MLOAD DUP1 DUP4 SUB DUP2 PUSH1 0x0 DUP8 DUP1 EXTCODESIZE ISZERO DUP1 ISZERO PUSH2 0x2DC0 JUMPI PUSH1 0x0 DUP1 REVERT JUMPDEST POP GAS CALL ISZERO DUP1 ISZERO PUSH2 0x2DD4 JUMPI RETURNDATASIZE PUSH1 0x0 DUP1 RETURNDATACOPY RETURNDATASIZE PUSH1 0x0 REVERT JUMPDEST POP POP POP POP PUSH1 0x40 MLOAD RETURNDATASIZE PUSH1 0x1F NOT PUSH1 0x1F DUP3 ADD AND DUP3 ADD DUP1 PUSH1 0x40 MSTORE POP PUSH1 0x40 DUP2 LT ISZERO PUSH2 0x2DF9 JUMPI PUSH1 0x0 DUP1 REVERT JUMPDEST DUP2 ADD SWAP1 DUP1 SWAP2 SWAP1 POP POP SWAP1 POP PUSH1 0x1 PUSH1 0x0 SWAP1 SLOAD SWAP1 PUSH2 0x100 EXP SWAP1 DIV PUSH20 0xFFFFFFFFFFFFFFFFFFFFFFFFFFFFFFFFFFFFFFFF AND PUSH20 0xFFFFFFFFFFFFFFFFFFFFFFFFFFFFFFFFFFFFFFFF AND PUSH4 0xC753FE8 DUP5 DUP4 PUSH1 0x40 MLOAD DUP4 PUSH4 0xFFFFFFFF AND PUSH29 0x100000000000000000000000000000000000000000000000000000000 MUL DUP2 MSTORE PUSH1 0x4 ADD DUP1 DUP4 PUSH1 0x2 PUSH1 0x20 MUL DUP1 DUP4 DUP4 PUSH1 0x0 JUMPDEST DUP4 DUP2 LT ISZERO PUSH2 0x2E99 JUMPI DUP1 DUP3 ADD MLOAD DUP2 DUP5 ADD MSTORE PUSH1 0x20 DUP2 ADD SWAP1 POP PUSH2 0x2E7E JUMP JUMPDEST POP POP POP POP SWAP1 POP ADD DUP3 PUSH1 0x2 PUSH1 0x20 MUL DUP1 DUP4 DUP4 PUSH1 0x0 JUMPDEST DUP4 DUP2 LT ISZERO PUSH2 0x2EC7 JUMPI DUP1 DUP3 ADD MLOAD DUP2 DUP5 ADD MSTORE PUSH1 0x20 DUP2 ADD SWAP1 POP PUSH2 0x2EAC JUMP JUMPDEST POP POP POP POP SWAP1 POP ADD SWAP3 POP POP POP PUSH1 0x40 DUP1 MLOAD DUP1 DUP4 SUB DUP2 PUSH1 0x0 DUP8 DUP1 EXTCODESIZE ISZERO DUP1 ISZERO PUSH2 0x2EEB JUMPI PUSH1 0x0 DUP1 REVERT JUMPDEST POP GAS CALL ISZERO DUP1 ISZERO PUSH2 0x2EFF JUMPI RETURNDATASIZE PUSH1 0x0 DUP1 RETURNDATACOPY RETURNDATASIZE PUSH1 0x0 REVERT JUMPDEST POP POP POP POP PUSH1 0x40 MLOAD RETURNDATASIZE PUSH1 0x1F NOT PUSH1 0x1F DUP3 ADD AND DUP3 ADD DUP1 PUSH1 0x40 MSTORE POP PUSH1 0x40 DUP2 LT ISZERO PUSH2 0x2F24 JUMPI PUSH1 0x0 DUP1 REVERT JUMPDEST DUP2 ADD SWAP1 DUP1 SWAP2 SWAP1 POP POP SWAP3 POP PUSH1 0x1 PUSH1 0x0 SWAP1 SLOAD SWAP1 PUSH2 0x100 EXP SWAP1 DIV PUSH20 0xFFFFFFFFFFFFFFFFFFFFFFFFFFFFFFFFFFFFFFFF AND PUSH20 0xFFFFFFFFFFFFFFFFFFFFFFFFFFFFFFFFFFFFFFFF AND PUSH4 0x6032FC3F DUP7 PUSH1 0x40 MLOAD DUP3 PUSH4 0xFFFFFFFF AND PUSH29 0x100000000000000000000000000000000000000000000000000000000 MUL DUP2 MSTORE PUSH1 0x4 ADD DUP1 DUP3 PUSH1 0x2 PUSH1 0x20 MUL DUP1 DUP4 DUP4 PUSH1 0x0 JUMPDEST DUP4 DUP2 LT ISZERO PUSH2 0x2FC3 JUMPI DUP1 DUP3 ADD MLOAD DUP2 DUP5 ADD MSTORE PUSH1 0x20 DUP2 ADD SWAP1 POP PUSH2 0x2FA8 JUMP JUMPDEST POP POP POP POP SWAP1 POP ADD SWAP2 POP POP PUSH1 0x40 DUP1 MLOAD DUP1 DUP4 SUB DUP2 PUSH1 0x0 DUP8 DUP1 EXTCODESIZE ISZERO DUP1 ISZERO PUSH2 0x2FE6 JUMPI PUSH1 0x0 DUP1 REVERT JUMPDEST POP GAS CALL ISZERO DUP1 ISZERO PUSH2 0x2FFA JUMPI RETURNDATASIZE PUSH1 0x0 DUP1 RETURNDATACOPY RETURNDATASIZE PUSH1 0x0 REVERT JUMPDEST POP POP POP POP PUSH1 0x40 MLOAD RETURNDATASIZE PUSH1 0x1F NOT PUSH1 0x1F DUP3 ADD AND DUP3 ADD DUP1 PUSH1 0x40 MSTORE POP PUSH1 0x40 DUP2 LT ISZERO PUSH2 0x301F JUMPI PUSH1 0x0 DUP1 REVERT JUMPDEST DUP2 ADD SWAP1 DUP1 SWAP2 SWAP1 POP POP SWAP2 POP PUSH1 0x1 PUSH1 0x0 SWAP1 SLOAD SWAP1 PUSH2 0x100 EXP SWAP1 DIV PUSH20 0xFFFFFFFFFFFFFFFFFFFFFFFFFFFFFFFFFFFFFFFF AND PUSH20 0xFFFFFFFFFFFFFFFFFFFFFFFFFFFFFFFFFFFFFFFF AND PUSH4 0xC025D89B DUP4 DUP9 PUSH1 0x40 MLOAD DUP4 PUSH4 0xFFFFFFFF AND PUSH29 0x100000000000000000000000000000000000000000000000000000000 MUL DUP2 MSTORE PUSH1 0x4 ADD DUP1 DUP4 PUSH1 0x2 PUSH1 0x20 MUL DUP1 DUP4 DUP4 PUSH1 0x0 JUMPDEST DUP4 DUP2 LT ISZERO PUSH2 0x30BF JUMPI DUP1 DUP3 ADD MLOAD DUP2 DUP5 ADD MSTORE PUSH1 0x20 DUP2 ADD SWAP1 POP PUSH2 0x30A4 JUMP JUMPDEST POP POP POP POP SWAP1 POP ADD DUP3 DUP2 MSTORE PUSH1 0x20 ADD SWAP3 POP POP POP PUSH1 0x40 DUP1 MLOAD DUP1 DUP4 SUB DUP2 PUSH1 0x0 DUP8 DUP1 EXTCODESIZE ISZERO DUP1 ISZERO PUSH2 0x30E9 JUMPI PUSH1 0x0 DUP1 REVERT JUMPDEST POP GAS CALL ISZERO DUP1 ISZERO PUSH2 0x30FD JUMPI RETURNDATASIZE PUSH1 0x0 DUP1 RETURNDATACOPY RETURNDATASIZE PUSH1 0x0 REVERT JUMPDEST POP POP POP POP PUSH1 0x40 MLOAD RETURNDATASIZE PUSH1 0x1F NOT PUSH1 0x1F DUP3 ADD AND DUP3 ADD DUP1 PUSH1 0x40 MSTORE POP PUSH1 0x40 DUP2 LT ISZERO PUSH2 0x3122 JUMPI PUSH1 0x0 DUP1 REVERT JUMPDEST DUP2 ADD SWAP1 DUP1 SWAP2 SWAP1 POP POP SWAP2 POP PUSH1 0x1 PUSH1 0x0 SWAP1 SLOAD SWAP1 PUSH2 0x100 EXP SWAP1 DIV PUSH20 0xFFFFFFFFFFFFFFFFFFFFFFFFFFFFFFFFFFFFFFFF AND PUSH20 0xFFFFFFFFFFFFFFFFFFFFFFFFFFFFFFFFFFFFFFFF AND PUSH4 0xC025D89B DUP6 DUP10 PUSH1 0x40 MLOAD DUP4 PUSH4 0xFFFFFFFF AND PUSH29 0x100000000000000000000000000000000000000000000000000000000 MUL DUP2 MSTORE PUSH1 0x4 ADD DUP1 DUP4 PUSH1 0x2 PUSH1 0x20 MUL DUP1 DUP4 DUP4 PUSH1 0x0 JUMPDEST DUP4 DUP2 LT ISZERO PUSH2 0x31C2 JUMPI DUP1 DUP3 ADD MLOAD DUP2 DUP5 ADD MSTORE PUSH1 0x20 DUP2 ADD SWAP1 POP PUSH2 0x31A7 JUMP JUMPDEST POP POP POP POP SWAP1 POP ADD DUP3 DUP2 MSTORE PUSH1 0x20 ADD SWAP3 POP POP POP PUSH1 0x40 DUP1 MLOAD DUP1 DUP4 SUB DUP2 PUSH1 0x0 DUP8 DUP1 EXTCODESIZE ISZERO DUP1 ISZERO PUSH2 0x31EC JUMPI PUSH1 0x0 DUP1 REVERT JUMPDEST POP GAS CALL ISZERO DUP1 ISZERO PUSH2 0x3200 JUMPI RETURNDATASIZE PUSH1 0x0 DUP1 RETURNDATACOPY RETURNDATASIZE PUSH1 0x0 REVERT JUMPDEST POP POP POP POP PUSH1 0x40 MLOAD RETURNDATASIZE PUSH1 0x1F NOT PUSH1 0x1F DUP3 ADD AND DUP3 ADD DUP1 PUSH1 0x40 MSTORE POP PUSH1 0x40 DUP2 LT ISZERO PUSH2 0x3225 JUMPI PUSH1 0x0 DUP1 REVERT JUMPDEST DUP2 ADD SWAP1 DUP1 SWAP2 SWAP1 POP POP SWAP1 POP PUSH1 0x1 PUSH1 0x0 SWAP1 SLOAD SWAP1 PUSH2 0x100 EXP SWAP1 DIV PUSH20 0xFFFFFFFFFFFFFFFFFFFFFFFFFFFFFFFFFFFFFFFF AND PUSH20 0xFFFFFFFFFFFFFFFFFFFFFFFFFFFFFFFFFFFFFFFF AND PUSH4 0xC753FE8 DUP4 DUP4 PUSH1 0x40 MLOAD DUP4 PUSH4 0xFFFFFFFF AND PUSH29 0x100000000000000000000000000000000000000000000000000000000 MUL DUP2 MSTORE PUSH1 0x4 ADD DUP1 DUP4 PUSH1 0x2 PUSH1 0x20 MUL DUP1 DUP4 DUP4 PUSH1 0x0 JUMPDEST DUP4 DUP2 LT ISZERO PUSH2 0x32C5 JUMPI DUP1 DUP3 ADD MLOAD DUP2 DUP5 ADD MSTORE PUSH1 0x20 DUP2 ADD SWAP1 POP PUSH2 0x32AA JUMP JUMPDEST POP POP POP POP SWAP1 POP ADD DUP3 PUSH1 0x2 PUSH1 0x20 MUL DUP1 DUP4 DUP4 PUSH1 0x0 JUMPDEST DUP4 DUP2 LT ISZERO PUSH2 0x32F3 JUMPI DUP1 DUP3 ADD MLOAD DUP2 DUP5 ADD MSTORE PUSH1 0x20 DUP2 ADD SWAP1 POP PUSH2 0x32D8 JUMP JUMPDEST POP POP POP POP SWAP1 POP ADD SWAP3 POP POP POP PUSH1 0x40 DUP1 MLOAD DUP1 DUP4 SUB DUP2 PUSH1 0x0 DUP8 DUP1 EXTCODESIZE ISZERO DUP1 ISZERO PUSH2 0x3317 JUMPI PUSH1 0x0 DUP1 REVERT JUMPDEST POP GAS CALL ISZERO DUP1 ISZERO PUSH2 0x332B JUMPI RETURNDATASIZE PUSH1 0x0 DUP1 RETURNDATACOPY RETURNDATASIZE PUSH1 0x0 REVERT JUMPDEST POP POP POP POP PUSH1 0x40 MLOAD RETURNDATASIZE PUSH1 0x1F NOT PUSH1 0x1F DUP3 ADD AND DUP3 ADD DUP1 PUSH1 0x40 MSTORE POP PUSH1 0x40 DUP2 LT ISZERO PUSH2 0x3350 JUMPI PUSH1 0x0 DUP1 REVERT JUMPDEST DUP2 ADD SWAP1 DUP1 SWAP2 SWAP1 POP POP SWAP2 POP POP SWAP5 POP SWAP5 SWAP3 POP POP POP JUMP JUMPDEST PUSH1 0x0 DUP1 SWAP1 SLOAD SWAP1 PUSH2 0x100 EXP SWAP1 DIV PUSH20 0xFFFFFFFFFFFFFFFFFFFFFFFFFFFFFFFFFFFFFFFF AND DUP2 JUMP JUMPDEST PUSH1 0x0 DUP1 SWAP1 SLOAD SWAP1 PUSH2 0x100 EXP SWAP1 DIV PUSH20 0xFFFFFFFFFFFFFFFFFFFFFFFFFFFFFFFFFFFFFFFF AND PUSH20 0xFFFFFFFFFFFFFFFFFFFFFFFFFFFFFFFFFFFFFFFF AND CALLER PUSH20 0xFFFFFFFFFFFFFFFFFFFFFFFFFFFFFFFFFFFFFFFF AND EQ ISZERO DUP1 ISZERO PUSH2 0x341E JUMPI POP PUSH1 0x0 DUP1 PUSH1 0x0 SWAP1 SLOAD SWAP1 PUSH2 0x100 EXP SWAP1 DIV PUSH20 0xFFFFFFFFFFFFFFFFFFFFFFFFFFFFFFFFFFFFFFFF AND PUSH20 0xFFFFFFFFFFFFFFFFFFFFFFFFFFFFFFFFFFFFFFFF AND EQ ISZERO JUMPDEST ISZERO PUSH2 0x3428 JUMPI PUSH1 0x0 DUP1 REVERT JUMPDEST DUP1 PUSH1 0x1 PUSH1 0x0 PUSH2 0x100 EXP DUP2 SLOAD DUP2 PUSH20 0xFFFFFFFFFFFFFFFFFFFFFFFFFFFFFFFFFFFFFFFF MUL NOT AND SWAP1 DUP4 PUSH20 0xFFFFFFFFFFFFFFFFFFFFFFFFFFFFFFFFFFFFFFFF AND MUL OR SWAP1 SSTORE POP PUSH32 0x7CC5320AA18FB40C93AED6F76AE28088A8AAF67A112E0CA55367CD087B21802F DUP2 PUSH1 0x40 MLOAD DUP1 DUP1 PUSH1 0x20 ADD DUP4 PUSH20 0xFFFFFFFFFFFFFFFFFFFFFFFFFFFFFFFFFFFFFFFF AND PUSH20 0xFFFFFFFFFFFFFFFFFFFFFFFFFFFFFFFFFFFFFFFF AND DUP2 MSTORE PUSH1 0x20 ADD DUP3 DUP2 SUB DUP3 MSTORE PUSH1 0x6 DUP2 MSTORE PUSH1 0x20 ADD DUP1 PUSH32 0x45434D6174680000000000000000000000000000000000000000000000000000 DUP2 MSTORE POP PUSH1 0x20 ADD SWAP3 POP POP POP PUSH1 0x40 MLOAD DUP1 SWAP2 SUB SWAP1 LOG1 POP JUMP JUMPDEST PUSH2 0x3510 PUSH2 0x4580 JUMP JUMPDEST PUSH2 0x3518 PUSH2 0x4580 JUMP JUMPDEST PUSH1 0x1 PUSH1 0x0 SWAP1 SLOAD SWAP1 PUSH2 0x100 EXP SWAP1 DIV PUSH20 0xFFFFFFFFFFFFFFFFFFFFFFFFFFFFFFFFFFFFFFFF AND PUSH20 0xFFFFFFFFFFFFFFFFFFFFFFFFFFFFFFFFFFFFFFFF AND PUSH4 0xC025D89B PUSH1 0x1 PUSH1 0x0 SWAP1 SLOAD SWAP1 PUSH2 0x100 EXP SWAP1 DIV PUSH20 0xFFFFFFFFFFFFFFFFFFFFFFFFFFFFFFFFFFFFFFFF AND PUSH20 0xFFFFFFFFFFFFFFFFFFFFFFFFFFFFFFFFFFFFFFFF AND PUSH4 0xAE5D39F6 PUSH1 0x40 MLOAD DUP2 PUSH4 0xFFFFFFFF AND PUSH29 0x100000000000000000000000000000000000000000000000000000000 MUL DUP2 MSTORE PUSH1 0x4 ADD PUSH1 0x40 DUP1 MLOAD DUP1 DUP4 SUB DUP2 PUSH1 0x0 DUP8 DUP1 EXTCODESIZE ISZERO DUP1 ISZERO PUSH2 0x35DB JUMPI PUSH1 0x0 DUP1 REVERT JUMPDEST POP GAS CALL ISZERO DUP1 ISZERO PUSH2 0x35EF JUMPI RETURNDATASIZE PUSH1 0x0 DUP1 RETURNDATACOPY RETURNDATASIZE PUSH1 0x0 REVERT JUMPDEST POP POP POP POP PUSH1 0x40 MLOAD RETURNDATASIZE PUSH1 0x1F NOT PUSH1 0x1F DUP3 ADD AND DUP3 ADD DUP1 PUSH1 0x40 MSTORE POP PUSH1 0x40 DUP2 LT ISZERO PUSH2 0x3614 JUMPI PUSH1 0x0 DUP1 REVERT JUMPDEST DUP2 ADD SWAP1 DUP1 SWAP2 SWAP1 POP POP DUP6 PUSH1 0x40 MLOAD DUP4 PUSH4 0xFFFFFFFF AND PUSH29 0x100000000000000000000000000000000000000000000000000000000 MUL DUP2 MSTORE PUSH1 0x4 ADD DUP1 DUP4 PUSH1 0x2 PUSH1 0x20 MUL DUP1 DUP4 DUP4 PUSH1 0x0 JUMPDEST DUP4 DUP2 LT ISZERO PUSH2 0x3673 JUMPI DUP1 DUP3 ADD MLOAD DUP2 DUP5 ADD MSTORE PUSH1 0x20 DUP2 ADD SWAP1 POP PUSH2 0x3658 JUMP JUMPDEST POP POP POP POP SWAP1 POP ADD DUP3 DUP2 MSTORE PUSH1 0x20 ADD SWAP3 POP POP POP PUSH1 0x40 DUP1 MLOAD DUP1 DUP4 SUB DUP2 PUSH1 0x0 DUP8 DUP1 EXTCODESIZE ISZERO DUP1 ISZERO PUSH2 0x369D JUMPI PUSH1 0x0 DUP1 REVERT JUMPDEST POP GAS CALL ISZERO DUP1 ISZERO PUSH2 0x36B1 JUMPI RETURNDATASIZE PUSH1 0x0 DUP1 RETURNDATACOPY RETURNDATASIZE PUSH1 0x0 REVERT JUMPDEST POP POP POP POP PUSH1 0x40 MLOAD RETURNDATASIZE PUSH1 0x1F NOT PUSH1 0x1F DUP3 ADD AND DUP3 ADD DUP1 PUSH1 0x40 MSTORE POP PUSH1 0x40 DUP2 LT ISZERO PUSH2 0x36D6 JUMPI PUSH1 0x0 DUP1 REVERT JUMPDEST DUP2 ADD SWAP1 DUP1 SWAP2 SWAP1 POP POP SWAP1 POP PUSH1 0x1 PUSH1 0x0 SWAP1 SLOAD SWAP1 PUSH2 0x100 EXP SWAP1 DIV PUSH20 0xFFFFFFFFFFFFFFFFFFFFFFFFFFFFFFFFFFFFFFFF AND PUSH20 0xFFFFFFFFFFFFFFFFFFFFFFFFFFFFFFFFFFFFFFFF AND PUSH4 0x6032FC3F DUP3 PUSH1 0x40 MLOAD DUP3 PUSH4 0xFFFFFFFF AND PUSH29 0x100000000000000000000000000000000000000000000000000000000 MUL DUP2 MSTORE PUSH1 0x4 ADD DUP1 DUP3 PUSH1 0x2 PUSH1 0x20 MUL DUP1 DUP4 DUP4 PUSH1 0x0 JUMPDEST DUP4 DUP2 LT ISZERO PUSH2 0x3775 JUMPI DUP1 DUP3 ADD MLOAD DUP2 DUP5 ADD MSTORE PUSH1 0x20 DUP2 ADD SWAP1 POP PUSH2 0x375A JUMP JUMPDEST POP POP POP POP SWAP1 POP ADD SWAP2 POP POP PUSH1 0x40 DUP1 MLOAD DUP1 DUP4 SUB DUP2 PUSH1 0x0 DUP8 DUP1 EXTCODESIZE ISZERO DUP1 ISZERO PUSH2 0x3798 JUMPI PUSH1 0x0 DUP1 REVERT JUMPDEST POP GAS CALL ISZERO DUP1 ISZERO PUSH2 0x37AC JUMPI RETURNDATASIZE PUSH1 0x0 DUP1 RETURNDATACOPY RETURNDATASIZE PUSH1 0x0 REVERT JUMPDEST POP POP POP POP PUSH1 0x40 MLOAD RETURNDATASIZE PUSH1 0x1F NOT PUSH1 0x1F DUP3 ADD AND DUP3 ADD DUP1 PUSH1 0x40 MSTORE POP PUSH1 0x40 DUP2 LT ISZERO PUSH2 0x37D1 JUMPI PUSH1 0x0 DUP1 REVERT JUMPDEST DUP2 ADD SWAP1 DUP1 SWAP2 SWAP1 POP POP SWAP1 POP PUSH1 0x1 PUSH1 0x0 SWAP1 SLOAD SWAP1 PUSH2 0x100 EXP SWAP1 DIV PUSH20 0xFFFFFFFFFFFFFFFFFFFFFFFFFFFFFFFFFFFFFFFF AND PUSH20 0xFFFFFFFFFFFFFFFFFFFFFFFFFFFFFFFFFFFFFFFF AND PUSH4 0xC025D89B DUP3 DUP6 PUSH1 0x40 MLOAD DUP4 PUSH4 0xFFFFFFFF AND PUSH29 0x100000000000000000000000000000000000000000000000000000000 MUL DUP2 MSTORE PUSH1 0x4 ADD DUP1 DUP4 PUSH1 0x2 PUSH1 0x20 MUL DUP1 DUP4 DUP4 PUSH1 0x0 JUMPDEST DUP4 DUP2 LT ISZERO PUSH2 0x3871 JUMPI DUP1 DUP3 ADD MLOAD DUP2 DUP5 ADD MSTORE PUSH1 0x20 DUP2 ADD SWAP1 POP PUSH2 0x3856 JUMP JUMPDEST POP POP POP POP SWAP1 POP ADD DUP3 DUP2 MSTORE PUSH1 0x20 ADD SWAP3 POP POP POP PUSH1 0x40 DUP1 MLOAD DUP1 DUP4 SUB DUP2 PUSH1 0x0 DUP8 DUP1 EXTCODESIZE ISZERO DUP1 ISZERO PUSH2 0x389B JUMPI PUSH1 0x0 DUP1 REVERT JUMPDEST POP GAS CALL ISZERO DUP1 ISZERO PUSH2 0x38AF JUMPI RETURNDATASIZE PUSH1 0x0 DUP1 RETURNDATACOPY RETURNDATASIZE PUSH1 0x0 REVERT JUMPDEST POP POP POP POP PUSH1 0x40 MLOAD RETURNDATASIZE PUSH1 0x1F NOT PUSH1 0x1F DUP3 ADD AND DUP3 ADD DUP1 PUSH1 0x40 MSTORE POP PUSH1 0x40 DUP2 LT ISZERO PUSH2 0x38D4 JUMPI PUSH1 0x0 DUP1 REVERT JUMPDEST DUP2 ADD SWAP1 DUP1 SWAP2 SWAP1 POP POP SWAP1 POP DUP1 SWAP2 POP POP SWAP2 SWAP1 POP JUMP JUMPDEST PUSH1 0x0 DUP1 SWAP1 SLOAD SWAP1 PUSH2 0x100 EXP SWAP1 DIV PUSH20 0xFFFFFFFFFFFFFFFFFFFFFFFFFFFFFFFFFFFFFFFF AND PUSH20 0xFFFFFFFFFFFFFFFFFFFFFFFFFFFFFFFFFFFFFFFF AND CALLER PUSH20 0xFFFFFFFFFFFFFFFFFFFFFFFFFFFFFFFFFFFFFFFF AND EQ ISZERO DUP1 ISZERO PUSH2 0x397C JUMPI POP PUSH1 0x0 DUP1 PUSH1 0x0 SWAP1 SLOAD SWAP1 PUSH2 0x100 EXP SWAP1 DIV PUSH20 0xFFFFFFFFFFFFFFFFFFFFFFFFFFFFFFFFFFFFFFFF AND PUSH20 0xFFFFFFFFFFFFFFFFFFFFFFFFFFFFFFFFFFFFFFFF AND EQ ISZERO JUMPDEST ISZERO PUSH2 0x3986 JUMPI PUSH1 0x0 DUP1 REVERT JUMPDEST CALLER PUSH20 0xFFFFFFFFFFFFFFFFFFFFFFFFFFFFFFFFFFFFFFFF AND SELFDESTRUCT JUMPDEST PUSH1 0x0 PUSH2 0x39A9 PUSH2 0x45A2 JUMP JUMPDEST PUSH1 0x60 PUSH1 0x0 PUSH1 0x2 DUP8 MLOAD DUP2 ISZERO ISZERO PUSH2 0x39BA JUMPI INVALID JUMPDEST MOD EQ ISZERO ISZERO PUSH2 0x39CB JUMPI PUSH1 0x0 SWAP3 POP PUSH2 0x3E31 JUMP JUMPDEST PUSH1 0x2 DUP7 MLOAD DUP2 ISZERO ISZERO PUSH2 0x39D8 JUMPI INVALID JUMPDEST DIV DUP3 PUSH1 0x0 ADD DUP2 DUP2 MSTORE POP POP PUSH1 0x0 DUP3 PUSH1 0x0 ADD MLOAD PUSH1 0x2 MUL DUP7 MLOAD DUP2 ISZERO ISZERO PUSH2 0x39F7 JUMPI INVALID JUMPDEST MOD EQ ISZERO ISZERO PUSH2 0x3A08 JUMPI PUSH1 0x0 SWAP3 POP PUSH2 0x3E31 JUMP JUMPDEST DUP2 PUSH1 0x0 ADD MLOAD PUSH1 0x2 MUL DUP6 MLOAD DUP2 ISZERO ISZERO PUSH2 0x3A1B JUMPI INVALID JUMPDEST DIV DUP3 PUSH1 0x20 ADD DUP2 DUP2 MSTORE POP POP PUSH1 0x1 DUP3 PUSH1 0x20 ADD MLOAD DUP4 PUSH1 0x0 ADD MLOAD MUL ADD DUP5 MLOAD EQ ISZERO ISZERO PUSH2 0x3A45 JUMPI PUSH1 0x0 SWAP3 POP PUSH2 0x3E31 JUMP JUMPDEST PUSH1 0x1 DUP3 PUSH1 0x0 ADD MLOAD PUSH1 0x4 MUL ADD PUSH1 0x40 MLOAD SWAP1 DUP1 DUP3 MSTORE DUP1 PUSH1 0x20 MUL PUSH1 0x20 ADD DUP3 ADD PUSH1 0x40 MSTORE DUP1 ISZERO PUSH2 0x3A7E JUMPI DUP2 PUSH1 0x20 ADD PUSH1 0x20 DUP3 MUL DUP1 CODESIZE DUP4 CODECOPY DUP1 DUP3 ADD SWAP2 POP POP SWAP1 POP JUMPDEST POP SWAP1 POP DUP7 DUP2 PUSH1 0x0 DUP2 MLOAD DUP2 LT ISZERO ISZERO PUSH2 0x3A91 JUMPI INVALID JUMPDEST SWAP1 PUSH1 0x20 ADD SWAP1 PUSH1 0x20 MUL ADD DUP2 DUP2 MSTORE POP POP PUSH1 0x0 DUP3 PUSH1 0x40 ADD DUP2 DUP2 MSTORE POP POP JUMPDEST DUP2 PUSH1 0x0 ADD MLOAD DUP3 PUSH1 0x40 ADD MLOAD LT ISZERO PUSH2 0x3DFD JUMPI DUP4 PUSH1 0x0 DUP2 MLOAD DUP2 LT ISZERO ISZERO PUSH2 0x3ACA JUMPI INVALID JUMPDEST SWAP1 PUSH1 0x20 ADD SWAP1 PUSH1 0x20 MUL ADD MLOAD DUP3 PUSH1 0x80 ADD DUP2 DUP2 MSTORE POP POP PUSH1 0x40 DUP1 MLOAD SWAP1 DUP2 ADD PUSH1 0x40 MSTORE DUP1 DUP8 DUP5 PUSH1 0x40 ADD MLOAD PUSH1 0x2 MUL DUP2 MLOAD DUP2 LT ISZERO ISZERO PUSH2 0x3AFD JUMPI INVALID JUMPDEST SWAP1 PUSH1 0x20 ADD SWAP1 PUSH1 0x20 MUL ADD MLOAD DUP2 MSTORE PUSH1 0x20 ADD DUP8 PUSH1 0x1 DUP6 PUSH1 0x40 ADD MLOAD PUSH1 0x2 MUL ADD DUP2 MLOAD DUP2 LT ISZERO ISZERO PUSH2 0x3B24 JUMPI INVALID JUMPDEST SWAP1 PUSH1 0x20 ADD SWAP1 PUSH1 0x20 MUL ADD MLOAD DUP2 MSTORE POP DUP3 PUSH2 0x100 ADD DUP2 SWAP1 MSTORE POP PUSH1 0x0 DUP3 PUSH1 0x60 ADD DUP2 DUP2 MSTORE POP POP JUMPDEST PUSH1 0x1 DUP3 PUSH1 0x20 ADD MLOAD SUB DUP3 PUSH1 0x60 ADD MLOAD LT ISZERO PUSH2 0x3C25 JUMPI DUP2 PUSH1 0x40 ADD MLOAD DUP3 PUSH1 0x60 ADD MLOAD DUP4 PUSH1 0x0 ADD MLOAD MUL ADD DUP3 PUSH1 0xA0 ADD DUP2 DUP2 MSTORE POP POP PUSH1 0x40 DUP1 MLOAD SWAP1 DUP2 ADD PUSH1 0x40 MSTORE DUP1 DUP7 DUP5 PUSH1 0xA0 ADD MLOAD PUSH1 0x2 MUL DUP2 MLOAD DUP2 LT ISZERO ISZERO PUSH2 0x3B93 JUMPI INVALID JUMPDEST SWAP1 PUSH1 0x20 ADD SWAP1 PUSH1 0x20 MUL ADD MLOAD DUP2 MSTORE PUSH1 0x20 ADD DUP7 PUSH1 0x1 DUP6 PUSH1 0xA0 ADD MLOAD PUSH1 0x2 MUL ADD DUP2 MLOAD DUP2 LT ISZERO ISZERO PUSH2 0x3BBA JUMPI INVALID JUMPDEST SWAP1 PUSH1 0x20 ADD SWAP1 PUSH1 0x20 MUL ADD MLOAD DUP2 MSTORE POP DUP3 PUSH1 0xC0 ADD DUP2 SWAP1 MSTORE POP PUSH2 0x3C07 DUP8 DUP4 PUSH1 0x80 ADD MLOAD DUP7 PUSH1 0x1 DUP7 PUSH1 0xA0 ADD MLOAD ADD DUP2 MLOAD DUP2 LT ISZERO ISZERO PUSH2 0x3BED JUMPI INVALID JUMPDEST SWAP1 PUSH1 0x20 ADD SWAP1 PUSH1 0x20 MUL ADD MLOAD DUP6 PUSH1 0xC0 ADD MLOAD DUP7 PUSH2 0x100 ADD MLOAD PUSH2 0x420D JUMP JUMPDEST DUP3 PUSH1 0x80 ADD DUP2 DUP2 MSTORE POP POP DUP2 PUSH1 0x60 ADD DUP1 MLOAD DUP1 SWAP2 SWAP1 PUSH1 0x1 ADD DUP2 MSTORE POP POP PUSH2 0x3B46 JUMP JUMPDEST DUP2 PUSH1 0x40 ADD MLOAD PUSH1 0x1 DUP4 PUSH1 0x20 ADD MLOAD SUB DUP4 PUSH1 0x0 ADD MLOAD MUL ADD DUP3 PUSH1 0xA0 ADD DUP2 DUP2 MSTORE POP POP PUSH1 0x40 DUP1 MLOAD SWAP1 DUP2 ADD PUSH1 0x40 MSTORE DUP1 DUP7 DUP5 PUSH1 0xA0 ADD MLOAD PUSH1 0x2 MUL DUP2 MLOAD DUP2 LT ISZERO ISZERO PUSH2 0x3C62 JUMPI INVALID JUMPDEST SWAP1 PUSH1 0x20 ADD SWAP1 PUSH1 0x20 MUL ADD MLOAD DUP2 MSTORE PUSH1 0x20 ADD DUP7 PUSH1 0x1 DUP6 PUSH1 0xA0 ADD MLOAD PUSH1 0x2 MUL ADD DUP2 MLOAD DUP2 LT ISZERO ISZERO PUSH2 0x3C89 JUMPI INVALID JUMPDEST SWAP1 PUSH1 0x20 ADD SWAP1 PUSH1 0x20 MUL ADD MLOAD DUP2 MSTORE POP DUP3 PUSH1 0xC0 ADD DUP2 SWAP1 MSTORE POP PUSH2 0x3CD5 DUP3 PUSH1 0x80 ADD MLOAD DUP6 PUSH1 0x1 DUP6 PUSH1 0xA0 ADD MLOAD ADD DUP2 MLOAD DUP2 LT ISZERO ISZERO PUSH2 0x3CBB JUMPI INVALID JUMPDEST SWAP1 PUSH1 0x20 ADD SWAP1 PUSH1 0x20 MUL ADD MLOAD DUP5 PUSH1 0xC0 ADD MLOAD DUP6 PUSH2 0x100 ADD MLOAD PUSH2 0x2B20 JUMP JUMPDEST DUP2 SWAP2 POP DUP1 SWAP1 POP DUP4 PUSH1 0xC0 ADD DUP5 PUSH1 0xE0 ADD DUP3 SWAP1 MSTORE DUP3 SWAP1 MSTORE POP POP PUSH1 0x1 PUSH1 0x4 DUP4 PUSH1 0x40 ADD MLOAD MUL ADD DUP3 PUSH1 0xA0 ADD DUP2 DUP2 MSTORE POP POP DUP2 PUSH1 0xC0 ADD MLOAD PUSH1 0x0 PUSH1 0x2 DUP2 LT ISZERO ISZERO PUSH2 0x3D12 JUMPI INVALID JUMPDEST PUSH1 0x20 MUL ADD MLOAD DUP2 DUP4 PUSH1 0xA0 ADD MLOAD DUP2 MLOAD DUP2 LT ISZERO ISZERO PUSH2 0x3D29 JUMPI INVALID JUMPDEST SWAP1 PUSH1 0x20 ADD SWAP1 PUSH1 0x20 MUL ADD DUP2 DUP2 MSTORE POP POP DUP2 PUSH1 0xC0 ADD MLOAD PUSH1 0x1 PUSH1 0x2 DUP2 LT ISZERO ISZERO PUSH2 0x3D4A JUMPI INVALID JUMPDEST PUSH1 0x20 MUL ADD MLOAD DUP2 PUSH1 0x1 DUP5 PUSH1 0xA0 ADD MLOAD ADD DUP2 MLOAD DUP2 LT ISZERO ISZERO PUSH2 0x3D64 JUMPI INVALID JUMPDEST SWAP1 PUSH1 0x20 ADD SWAP1 PUSH1 0x20 MUL ADD DUP2 DUP2 MSTORE POP POP DUP2 PUSH1 0xE0 ADD MLOAD PUSH1 0x0 PUSH1 0x2 DUP2 LT ISZERO ISZERO PUSH2 0x3D85 JUMPI INVALID JUMPDEST PUSH1 0x20 MUL ADD MLOAD DUP2 PUSH1 0x2 DUP5 PUSH1 0xA0 ADD MLOAD ADD DUP2 MLOAD DUP2 LT ISZERO ISZERO PUSH2 0x3D9F JUMPI INVALID JUMPDEST SWAP1 PUSH1 0x20 ADD SWAP1 PUSH1 0x20 MUL ADD DUP2 DUP2 MSTORE POP POP DUP2 PUSH1 0xE0 ADD MLOAD PUSH1 0x1 PUSH1 0x2 DUP2 LT ISZERO ISZERO PUSH2 0x3DC0 JUMPI INVALID JUMPDEST PUSH1 0x20 MUL ADD MLOAD DUP2 PUSH1 0x3 DUP5 PUSH1 0xA0 ADD MLOAD ADD DUP2 MLOAD DUP2 LT ISZERO ISZERO PUSH2 0x3DDA JUMPI INVALID JUMPDEST SWAP1 PUSH1 0x20 ADD SWAP1 PUSH1 0x20 MUL ADD DUP2 DUP2 MSTORE POP POP DUP2 PUSH1 0x40 ADD DUP1 MLOAD DUP1 SWAP2 SWAP1 PUSH1 0x1 ADD DUP2 MSTORE POP POP PUSH2 0x3AAB JUMP JUMPDEST PUSH2 0x3E06 DUP2 PUSH2 0x2239 JUMP JUMPDEST DUP3 PUSH1 0x80 ADD DUP2 DUP2 MSTORE POP POP DUP4 PUSH1 0x0 DUP2 MLOAD DUP2 LT ISZERO ISZERO PUSH2 0x3E1E JUMPI INVALID JUMPDEST SWAP1 PUSH1 0x20 ADD SWAP1 PUSH1 0x20 MUL ADD MLOAD DUP3 PUSH1 0x80 ADD MLOAD EQ SWAP3 POP JUMPDEST POP POP SWAP5 SWAP4 POP POP POP POP JUMP JUMPDEST PUSH1 0x0 PUSH2 0x3E45 PUSH2 0x45A2 JUMP JUMPDEST PUSH1 0x0 PUSH1 0x2 DUP6 MLOAD DUP2 ISZERO ISZERO PUSH2 0x3E54 JUMPI INVALID JUMPDEST MOD EQ ISZERO ISZERO PUSH2 0x3E65 JUMPI PUSH1 0x0 SWAP2 POP PUSH2 0x3FBF JUMP JUMPDEST PUSH1 0x2 DUP5 MLOAD DUP2 ISZERO ISZERO PUSH2 0x3E72 JUMPI INVALID JUMPDEST DIV DUP2 PUSH1 0x20 ADD DUP2 DUP2 MSTORE POP POP PUSH1 0x1 DUP2 PUSH1 0x20 ADD MLOAD ADD DUP4 MLOAD EQ ISZERO ISZERO PUSH2 0x3E96 JUMPI PUSH1 0x0 SWAP2 POP PUSH2 0x3FBF JUMP JUMPDEST DUP3 PUSH1 0x0 DUP2 MLOAD DUP2 LT ISZERO ISZERO PUSH2 0x3EA5 JUMPI INVALID JUMPDEST SWAP1 PUSH1 0x20 ADD SWAP1 PUSH1 0x20 MUL ADD MLOAD DUP2 PUSH1 0x80 ADD DUP2 DUP2 MSTORE POP POP PUSH1 0x0 DUP2 PUSH1 0x40 ADD DUP2 DUP2 MSTORE POP POP JUMPDEST DUP1 PUSH1 0x20 ADD MLOAD DUP2 PUSH1 0x40 ADD MLOAD LT ISZERO PUSH2 0x3F9D JUMPI DUP4 DUP2 PUSH1 0x40 ADD MLOAD PUSH1 0x2 MUL DUP2 MLOAD DUP2 LT ISZERO ISZERO PUSH2 0x3EE9 JUMPI INVALID JUMPDEST SWAP1 PUSH1 0x20 ADD SWAP1 PUSH1 0x20 MUL ADD MLOAD DUP5 PUSH1 0x1 DUP4 PUSH1 0x40 ADD MLOAD PUSH1 0x2 MUL ADD DUP2 MLOAD DUP2 LT ISZERO ISZERO PUSH2 0x3F0B JUMPI INVALID JUMPDEST SWAP1 PUSH1 0x20 ADD SWAP1 PUSH1 0x20 MUL ADD MLOAD DUP3 PUSH1 0xC0 ADD MLOAD PUSH1 0x0 PUSH1 0x2 DUP2 LT ISZERO ISZERO PUSH2 0x3F28 JUMPI INVALID JUMPDEST PUSH1 0x20 MUL ADD DUP4 PUSH1 0xC0 ADD MLOAD PUSH1 0x1 PUSH1 0x2 DUP2 LT ISZERO ISZERO PUSH2 0x3F3F JUMPI INVALID JUMPDEST PUSH1 0x20 MUL ADD DUP3 DUP2 MSTORE POP DUP3 DUP2 MSTORE POP POP POP PUSH2 0x3F7F DUP6 DUP3 PUSH1 0x80 ADD MLOAD DUP6 PUSH1 0x1 DUP6 PUSH1 0x40 ADD MLOAD ADD DUP2 MLOAD DUP2 LT ISZERO ISZERO PUSH2 0x3F6B JUMPI INVALID JUMPDEST SWAP1 PUSH1 0x20 ADD SWAP1 PUSH1 0x20 MUL ADD MLOAD DUP5 PUSH1 0xC0 ADD MLOAD PUSH2 0x41C6 JUMP JUMPDEST DUP2 PUSH1 0x80 ADD DUP2 DUP2 MSTORE POP POP DUP1 PUSH1 0x40 ADD DUP1 MLOAD DUP1 SWAP2 SWAP1 PUSH1 0x1 ADD DUP2 MSTORE POP POP PUSH2 0x3EC4 JUMP JUMPDEST DUP3 PUSH1 0x0 DUP2 MLOAD DUP2 LT ISZERO ISZERO PUSH2 0x3FAC JUMPI INVALID JUMPDEST SWAP1 PUSH1 0x20 ADD SWAP1 PUSH1 0x20 MUL ADD MLOAD DUP2 PUSH1 0x80 ADD MLOAD EQ SWAP2 POP JUMPDEST POP SWAP4 SWAP3 POP POP POP JUMP JUMPDEST PUSH2 0x3FCF PUSH2 0x4580 JUMP JUMPDEST PUSH1 0x1 PUSH1 0x0 SWAP1 SLOAD SWAP1 PUSH2 0x100 EXP SWAP1 DIV PUSH20 0xFFFFFFFFFFFFFFFFFFFFFFFFFFFFFFFFFFFFFFFF AND PUSH20 0xFFFFFFFFFFFFFFFFFFFFFFFFFFFFFFFFFFFFFFFF AND PUSH4 0xC025D89B PUSH1 0x1 PUSH1 0x0 SWAP1 SLOAD SWAP1 PUSH2 0x100 EXP SWAP1 DIV PUSH20 0xFFFFFFFFFFFFFFFFFFFFFFFFFFFFFFFFFFFFFFFF AND PUSH20 0xFFFFFFFFFFFFFFFFFFFFFFFFFFFFFFFFFFFFFFFF AND PUSH4 0xAE5D39F6 PUSH1 0x40 MLOAD DUP2 PUSH4 0xFFFFFFFF AND PUSH29 0x100000000000000000000000000000000000000000000000000000000 MUL DUP2 MSTORE PUSH1 0x4 ADD PUSH1 0x40 DUP1 MLOAD DUP1 DUP4 SUB DUP2 PUSH1 0x0 DUP8 DUP1 EXTCODESIZE ISZERO DUP1 ISZERO PUSH2 0x4092 JUMPI PUSH1 0x0 DUP1 REVERT JUMPDEST POP GAS CALL ISZERO DUP1 ISZERO PUSH2 0x40A6 JUMPI RETURNDATASIZE PUSH1 0x0 DUP1 RETURNDATACOPY RETURNDATASIZE PUSH1 0x0 REVERT JUMPDEST POP POP POP POP PUSH1 0x40 MLOAD RETURNDATASIZE PUSH1 0x1F NOT PUSH1 0x1F DUP3 ADD AND DUP3 ADD DUP1 PUSH1 0x40 MSTORE POP PUSH1 0x40 DUP2 LT ISZERO PUSH2 0x40CB JUMPI PUSH1 0x0 DUP1 REVERT JUMPDEST DUP2 ADD SWAP1 DUP1 SWAP2 SWAP1 POP POP DUP5 PUSH1 0x40 MLOAD DUP4 PUSH4 0xFFFFFFFF AND PUSH29 0x100000000000000000000000000000000000000000000000000000000 MUL DUP2 MSTORE PUSH1 0x4 ADD DUP1 DUP4 PUSH1 0x2 PUSH1 0x20 MUL DUP1 DUP4 DUP4 PUSH1 0x0 JUMPDEST DUP4 DUP2 LT ISZERO PUSH2 0x412A JUMPI DUP1 DUP3 ADD MLOAD DUP2 DUP5 ADD MSTORE PUSH1 0x20 DUP2 ADD SWAP1 POP PUSH2 0x410F JUMP JUMPDEST POP POP POP POP SWAP1 POP ADD DUP3 DUP2 MSTORE PUSH1 0x20 ADD SWAP3 POP POP POP PUSH1 0x40 DUP1 MLOAD DUP1 DUP4 SUB DUP2 PUSH1 0x0 DUP8 DUP1 EXTCODESIZE ISZERO DUP1 ISZERO PUSH2 0x4154 JUMPI PUSH1 0x0 DUP1 REVERT JUMPDEST POP GAS CALL ISZERO DUP1 ISZERO PUSH2 0x4168 JUMPI RETURNDATASIZE PUSH1 0x0 DUP1 RETURNDATACOPY RETURNDATASIZE PUSH1 0x0 REVERT JUMPDEST POP POP POP POP PUSH1 0x40 MLOAD RETURNDATASIZE PUSH1 0x1F NOT PUSH1 0x1F DUP3 ADD AND DUP3 ADD DUP1 PUSH1 0x40 MSTORE POP PUSH1 0x40 DUP2 LT ISZERO PUSH2 0x418D JUMPI PUSH1 0x0 DUP1 REVERT JUMPDEST DUP2 ADD SWAP1 DUP1 SWAP2 SWAP1 POP POP SWAP1 POP SWAP2 SWAP1 POP JUMP JUMPDEST PUSH1 0x0 PUSH1 0x1 PUSH1 0x0 SWAP1 SLOAD SWAP1 PUSH2 0x100 EXP SWAP1 DIV PUSH20 0xFFFFFFFFFFFFFFFFFFFFFFFFFFFFFFFFFFFFFFFF AND SWAP1 POP SWAP1 JUMP JUMPDEST PUSH1 0x0 PUSH2 0x41D0 PUSH2 0x4580 JUMP JUMPDEST PUSH2 0x41DB DUP6 DUP6 DUP6 PUSH2 0x1C26 JUMP JUMPDEST SWAP1 POP PUSH2 0x41E7 DUP7 DUP3 PUSH2 0x29FB JUMP JUMPDEST SWAP2 POP POP SWAP5 SWAP4 POP POP POP POP JUMP JUMPDEST PUSH1 0x0 DUP1 PUSH1 0x0 PUSH2 0x41FF PUSH2 0x419C JUMP JUMPDEST SWAP1 POP DUP1 EXTCODESIZE SWAP2 POP DUP2 SWAP3 POP POP POP SWAP1 JUMP JUMPDEST PUSH1 0x0 PUSH2 0x4217 PUSH2 0x4580 JUMP JUMPDEST PUSH2 0x421F PUSH2 0x4580 JUMP JUMPDEST PUSH2 0x422B DUP8 DUP8 DUP8 DUP8 PUSH2 0x2B20 JUMP JUMPDEST DUP1 SWAP3 POP DUP2 SWAP4 POP POP POP PUSH2 0x423E DUP9 DUP4 DUP4 PUSH2 0x289F JUMP JUMPDEST SWAP3 POP POP POP SWAP6 SWAP5 POP POP POP POP POP JUMP JUMPDEST PUSH1 0x0 PUSH2 0x4255 PUSH2 0x4580 JUMP JUMPDEST PUSH1 0x60 DUP1 PUSH1 0x0 PUSH1 0x2 DUP8 MLOAD MUL PUSH1 0x40 MLOAD SWAP1 DUP1 DUP3 MSTORE DUP1 PUSH1 0x20 MUL PUSH1 0x20 ADD DUP3 ADD PUSH1 0x40 MSTORE DUP1 ISZERO PUSH2 0x428D JUMPI DUP2 PUSH1 0x20 ADD PUSH1 0x20 DUP3 MUL DUP1 CODESIZE DUP4 CODECOPY DUP1 DUP3 ADD SWAP2 POP POP SWAP1 POP JUMPDEST POP SWAP3 POP PUSH1 0x2 PUSH1 0x40 MLOAD SWAP1 DUP1 DUP3 MSTORE DUP1 PUSH1 0x20 MUL PUSH1 0x20 ADD DUP3 ADD PUSH1 0x40 MSTORE DUP1 ISZERO PUSH2 0x42C0 JUMPI DUP2 PUSH1 0x20 ADD PUSH1 0x20 DUP3 MUL DUP1 CODESIZE DUP4 CODECOPY DUP1 DUP3 ADD SWAP2 POP POP SWAP1 POP JUMPDEST POP SWAP2 POP PUSH1 0x0 SWAP1 POP JUMPDEST DUP7 MLOAD DUP2 LT ISZERO PUSH2 0x4431 JUMPI PUSH1 0x1 PUSH1 0x0 SWAP1 SLOAD SWAP1 PUSH2 0x100 EXP SWAP1 DIV PUSH20 0xFFFFFFFFFFFFFFFFFFFFFFFFFFFFFFFFFFFFFFFF AND PUSH20 0xFFFFFFFFFFFFFFFFFFFFFFFFFFFFFFFFFFFFFFFF AND PUSH4 0x5DA7F69E DUP9 DUP4 DUP2 MLOAD DUP2 LT ISZERO ISZERO PUSH2 0x431D JUMPI INVALID JUMPDEST SWAP1 PUSH1 0x20 ADD SWAP1 PUSH1 0x20 MUL ADD MLOAD PUSH1 0x40 MLOAD DUP3 PUSH4 0xFFFFFFFF AND PUSH29 0x100000000000000000000000000000000000000000000000000000000 MUL DUP2 MSTORE PUSH1 0x4 ADD DUP1 DUP3 DUP2 MSTORE PUSH1 0x20 ADD SWAP2 POP POP PUSH1 0x40 DUP1 MLOAD DUP1 DUP4 SUB DUP2 PUSH1 0x0 DUP8 DUP1 EXTCODESIZE ISZERO DUP1 ISZERO PUSH2 0x4378 JUMPI PUSH1 0x0 DUP1 REVERT JUMPDEST POP GAS CALL ISZERO DUP1 ISZERO PUSH2 0x438C JUMPI RETURNDATASIZE PUSH1 0x0 DUP1 RETURNDATACOPY RETURNDATASIZE PUSH1 0x0 REVERT JUMPDEST POP POP POP POP PUSH1 0x40 MLOAD RETURNDATASIZE PUSH1 0x1F NOT PUSH1 0x1F DUP3 ADD AND DUP3 ADD DUP1 PUSH1 0x40 MSTORE POP PUSH1 0x40 DUP2 LT ISZERO PUSH2 0x43B1 JUMPI PUSH1 0x0 DUP1 REVERT JUMPDEST DUP2 ADD SWAP1 DUP1 SWAP2 SWAP1 POP POP SWAP4 POP DUP4 PUSH1 0x0 PUSH1 0x2 DUP2 LT ISZERO ISZERO PUSH2 0x43CA JUMPI INVALID JUMPDEST PUSH1 0x20 MUL ADD MLOAD DUP4 DUP3 PUSH1 0x2 MUL DUP2 MLOAD DUP2 LT ISZERO ISZERO PUSH2 0x43E0 JUMPI INVALID JUMPDEST SWAP1 PUSH1 0x20 ADD SWAP1 PUSH1 0x20 MUL ADD DUP2 DUP2 MSTORE POP POP DUP4 PUSH1 0x1 PUSH1 0x2 DUP2 LT ISZERO ISZERO PUSH2 0x43FD JUMPI INVALID JUMPDEST PUSH1 0x20 MUL ADD MLOAD DUP4 PUSH1 0x1 DUP4 PUSH1 0x2 MUL ADD DUP2 MLOAD DUP2 LT ISZERO ISZERO PUSH2 0x4416 JUMPI INVALID JUMPDEST SWAP1 PUSH1 0x20 ADD SWAP1 PUSH1 0x20 MUL ADD DUP2 DUP2 MSTORE POP POP DUP1 DUP1 PUSH1 0x1 ADD SWAP2 POP POP PUSH2 0x42C8 JUMP JUMPDEST PUSH1 0x1 PUSH1 0x0 SWAP1 SLOAD SWAP1 PUSH2 0x100 EXP SWAP1 DIV PUSH20 0xFFFFFFFFFFFFFFFFFFFFFFFFFFFFFFFFFFFFFFFF AND PUSH20 0xFFFFFFFFFFFFFFFFFFFFFFFFFFFFFFFFFFFFFFFF AND PUSH4 0x5DA7F69E DUP10 PUSH1 0x40 MLOAD DUP3 PUSH4 0xFFFFFFFF AND PUSH29 0x100000000000000000000000000000000000000000000000000000000 MUL DUP2 MSTORE PUSH1 0x4 ADD DUP1 DUP3 DUP2 MSTORE PUSH1 0x20 ADD SWAP2 POP POP PUSH1 0x40 DUP1 MLOAD DUP1 DUP4 SUB DUP2 PUSH1 0x0 DUP8 DUP1 EXTCODESIZE ISZERO DUP1 ISZERO PUSH2 0x44C1 JUMPI PUSH1 0x0 DUP1 REVERT JUMPDEST POP GAS CALL ISZERO DUP1 ISZERO PUSH2 0x44D5 JUMPI RETURNDATASIZE PUSH1 0x0 DUP1 RETURNDATACOPY RETURNDATASIZE PUSH1 0x0 REVERT JUMPDEST POP POP POP POP PUSH1 0x40 MLOAD RETURNDATASIZE PUSH1 0x1F NOT PUSH1 0x1F DUP3 ADD AND DUP3 ADD DUP1 PUSH1 0x40 MSTORE POP PUSH1 0x40 DUP2 LT ISZERO PUSH2 0x44FA JUMPI PUSH1 0x0 DUP1 REVERT JUMPDEST DUP2 ADD SWAP1 DUP1 SWAP2 SWAP1 POP POP SWAP4 POP DUP4 PUSH1 0x0 PUSH1 0x2 DUP2 LT ISZERO ISZERO PUSH2 0x4513 JUMPI INVALID JUMPDEST PUSH1 0x20 MUL ADD MLOAD DUP5 PUSH1 0x1 PUSH1 0x2 DUP2 LT ISZERO ISZERO PUSH2 0x4527 JUMPI INVALID JUMPDEST PUSH1 0x20 MUL ADD MLOAD DUP4 PUSH1 0x0 DUP2 MLOAD DUP2 LT ISZERO ISZERO PUSH2 0x453B JUMPI INVALID JUMPDEST SWAP1 PUSH1 0x20 ADD SWAP1 PUSH1 0x20 MUL ADD DUP5 PUSH1 0x1 DUP2 MLOAD DUP2 LT ISZERO ISZERO PUSH2 0x4553 JUMPI INVALID JUMPDEST SWAP1 PUSH1 0x20 ADD SWAP1 PUSH1 0x20 MUL ADD DUP3 DUP2 MSTORE POP DUP3 DUP2 MSTORE POP POP POP PUSH2 0x4572 DUP10 DUP4 DUP6 DUP10 PUSH2 0x161A JUMP JUMPDEST SWAP5 POP POP POP POP POP SWAP5 SWAP4 POP POP POP POP JUMP JUMPDEST PUSH1 0x40 DUP1 MLOAD SWAP1 DUP2 ADD PUSH1 0x40 MSTORE DUP1 PUSH1 0x2 SWAP1 PUSH1 0x20 DUP3 MUL DUP1 CODESIZE DUP4 CODECOPY DUP1 DUP3 ADD SWAP2 POP POP SWAP1 POP POP SWAP1 JUMP JUMPDEST PUSH2 0x180 PUSH1 0x40 MLOAD SWAP1 DUP2 ADD PUSH1 0x40 MSTORE DUP1 PUSH1 0x0 DUP2 MSTORE PUSH1 0x20 ADD PUSH1 0x0 DUP2 MSTORE PUSH1 0x20 ADD PUSH1 0x0 DUP2 MSTORE PUSH1 0x20 ADD PUSH1 0x0 DUP2 MSTORE PUSH1 0x20 ADD PUSH1 0x0 DUP2 MSTORE PUSH1 0x20 ADD PUSH1 0x0 DUP2 MSTORE PUSH1 0x20 ADD PUSH2 0x45E1 PUSH2 0x4624 JUMP JUMPDEST DUP2 MSTORE PUSH1 0x20 ADD PUSH2 0x45EE PUSH2 0x4624 JUMP JUMPDEST DUP2 MSTORE PUSH1 0x20 ADD PUSH2 0x45FB PUSH2 0x4624 JUMP JUMPDEST DUP2 MSTORE POP SWAP1 JUMP JUMPDEST PUSH1 0x20 PUSH1 0x40 MLOAD SWAP1 DUP2 ADD PUSH1 0x40 MSTORE DUP1 PUSH1 0x1 SWAP1 PUSH1 0x20 DUP3 MUL DUP1 CODESIZE DUP4 CODECOPY DUP1 DUP3 ADD SWAP2 POP POP SWAP1 POP POP SWAP1 JUMP JUMPDEST PUSH1 0x40 DUP1 MLOAD SWAP1 DUP2 ADD PUSH1 0x40 MSTORE DUP1 PUSH1 0x2 SWAP1 PUSH1 0x20 DUP3 MUL DUP1 CODESIZE DUP4 CODECOPY DUP1 DUP3 ADD SWAP2 POP POP SWAP1 POP POP SWAP1 JUMP STOP LOG1 PUSH6 0x627A7A723058 KECCAK256 0xaa 0xda 0x2f 0x4c ADDRESS 0x2f DUP10 0x2e PUSH32 0x4C77E27B061AD863E12D25C425936F1A9887A1F2F5EBA2002900000000000000 "
				},
				"gasEstimates": {
					"creation": {
						"codeDepositCost": "3606800",
						"executionCost": "infinite",
						"totalCost": "infinite"
					},
					"external": {
						"CalculateKeyImageFromPrivKey(uint256)": "infinite",
						"CalculateLinkableRingSegment(uint256,uint256,uint256,uint256[2],uint256[2])": "infinite",
						"CalculateLinkableRingSegment_NoHash(uint256,uint256,uint256[2],uint256[2])": "infinite",
						"CalculateRingSegment(uint256,uint256,uint256,uint256[2])": "infinite",
						"CalculateRingSegment_NoHash(uint256,uint256,uint256[2])": "infinite",
						"CompleteRing(uint256,uint256,uint256)": "infinite",
						"ECMath_ChangeAddress(address)": "23263",
						"ECMath_GetAddress()": "912",
						"ECMath_GetCodeSize()": "1705",
						"Keccak256OfArray(uint256[])": "infinite",
						"Kill()": "31058",
						"LinkableRingHashFunction(uint256,uint256[2],uint256[2])": "infinite",
						"RingHashFunction(uint256,uint256[2])": "infinite",
						"StartLinkableRing(uint256,uint256,uint256[2])": "infinite",
						"StartLinkableRing_NoHash(uint256,uint256[2])": "infinite",
						"StartRing(uint256,uint256)": "infinite",
						"StartRing_NoHash(uint256)": "infinite",
						"VerifyLSAG(uint256,uint256[],uint256[],uint256[])": "infinite",
						"VerifyLSAG_Compressed(uint256,uint256,uint256[],uint256[])": "infinite",
						"VerifyMLSAG(uint256,uint256[],uint256[],uint256[])": "infinite",
						"VerifyMLSAG_Compressed(uint256,uint256[],uint256[],uint256[])": "infinite",
						"VerifyMSAG(uint256,uint256,uint256[],uint256[])": "infinite",
						"VerifyMSAG_Compressed(uint256,uint256,uint256[],uint256[])": "infinite",
						"VerifySAG(uint256,uint256[],uint256[])": "infinite",
						"VerifySAG_Compressed(uint256,uint256[],uint256[])": "infinite",
						"owner()": "750"
					}
				},
				"methodIdentifiers": {
					"CalculateKeyImageFromPrivKey(uint256)": "a3d53298",
					"CalculateLinkableRingSegment(uint256,uint256,uint256,uint256[2],uint256[2])": "f8c8b0ca",
					"CalculateLinkableRingSegment_NoHash(uint256,uint256,uint256[2],uint256[2])": "88c01ed8",
					"CalculateRingSegment(uint256,uint256,uint256,uint256[2])": "db8c735e",
					"CalculateRingSegment_NoHash(uint256,uint256,uint256[2])": "36490458",
					"CompleteRing(uint256,uint256,uint256)": "5c859d09",
					"ECMath_ChangeAddress(address)": "9c8fda72",
					"ECMath_GetAddress()": "cba51ff3",
					"ECMath_GetCodeSize()": "efd6b306",
					"Keccak256OfArray(uint256[])": "490ee1cb",
					"Kill()": "be26733c",
					"LinkableRingHashFunction(uint256,uint256[2],uint256[2])": "6fb015cc",
					"RingHashFunction(uint256,uint256[2])": "81b4ef31",
					"StartLinkableRing(uint256,uint256,uint256[2])": "38f3e171",
					"StartLinkableRing_NoHash(uint256,uint256[2])": "2d57f6e7",
					"StartRing(uint256,uint256)": "26e37ec5",
					"StartRing_NoHash(uint256)": "c8fc7ca8",
					"VerifyLSAG(uint256,uint256[],uint256[],uint256[])": "200fc39c",
					"VerifyLSAG_Compressed(uint256,uint256,uint256[],uint256[])": "ff7d69a8",
					"VerifyMLSAG(uint256,uint256[],uint256[],uint256[])": "c17065d0",
					"VerifyMLSAG_Compressed(uint256,uint256[],uint256[],uint256[])": "0813d72a",
					"VerifyMSAG(uint256,uint256,uint256[],uint256[])": "4f2ce9a3",
					"VerifyMSAG_Compressed(uint256,uint256,uint256[],uint256[])": "44fc0c93",
					"VerifySAG(uint256,uint256[],uint256[])": "c4e8e6a6",
					"VerifySAG_Compressed(uint256,uint256[],uint256[])": "066d1749",
					"owner()": "8da5cb5b"
				}
			},
			"userdoc": {
				"methods": {}
			}
		}
	}
}