{
	"ECMathInterface.sol": {
		"ECMathInterface": {
			"abi": [
				{
					"constant": true,
					"inputs": [],
					"name": "owner",
					"outputs": [
						{
							"name": "",
							"type": "address"
						}
					],
					"payable": false,
					"stateMutability": "view",
					"type": "function"
				},
				{
					"constant": false,
					"inputs": [
						{
							"name": "ecMathAddr",
							"type": "address"
						}
					],
					"name": "ECMath_ChangeAddress",
					"outputs": [],
					"payable": false,
					"stateMutability": "nonpayable",
					"type": "function"
				},
				{
					"constant": false,
					"inputs": [],
					"name": "Kill",
					"outputs": [],
					"payable": false,
					"stateMutability": "nonpayable",
					"type": "function"
				},
				{
					"constant": true,
					"inputs": [],
					"name": "ECMath_GetAddress",
					"outputs": [
						{
							"name": "",
							"type": "address"
						}
					],
					"payable": false,
					"stateMutability": "view",
					"type": "function"
				},
				{
					"constant": true,
					"inputs": [],
					"name": "ECMath_GetCodeSize",
					"outputs": [
						{
							"name": "",
							"type": "uint256"
						}
					],
					"payable": false,
					"stateMutability": "view",
					"type": "function"
				},
				{
					"inputs": [
						{
							"name": "ecMathAddr",
							"type": "address"
						}
					],
					"payable": false,
					"stateMutability": "nonpayable",
					"type": "constructor"
				},
				{
					"anonymous": false,
					"inputs": [
						{
							"indexed": false,
							"name": "_name",
							"type": "string"
						},
						{
							"indexed": false,
							"name": "_new",
							"type": "address"
						}
					],
					"name": "ContractAddressChanged",
					"type": "event"
				},
				{
					"anonymous": false,
					"inputs": [
						{
							"indexed": false,
							"name": "marker",
							"type": "string"
						},
						{
							"indexed": false,
							"name": "data",
							"type": "uint256"
						}
					],
					"name": "DebugEvent",
					"type": "event"
				},
				{
					"anonymous": false,
					"inputs": [
						{
							"indexed": false,
							"name": "marker",
							"type": "string"
						},
						{
							"indexed": false,
							"name": "data",
							"type": "uint256[]"
						}
					],
					"name": "DebugEvent2",
					"type": "event"
				}
			],
			"devdoc": {
				"methods": {}
			},
			"evm": {
				"assembly": "    /* \"ECMathInterface.sol\":3590:4636  contract ECMathInterface is Debuggable {\r... */\n  mstore(0x40, 0x80)\n    /* \"ECMathInterface.sol\":4549:4633  constructor(address ecMathAddr) public {\r... */\n  callvalue\n    /* \"--CODEGEN--\":8:17   */\n  dup1\n    /* \"--CODEGEN--\":5:7   */\n  iszero\n  tag_1\n  jumpi\n    /* \"--CODEGEN--\":30:31   */\n  0x0\n    /* \"--CODEGEN--\":27:28   */\n  dup1\n    /* \"--CODEGEN--\":20:32   */\n  revert\n    /* \"--CODEGEN--\":5:7   */\ntag_1:\n    /* \"ECMathInterface.sol\":4549:4633  constructor(address ecMathAddr) public {\r... */\n  pop\n  mload(0x40)\n  0x20\n  dup1\n  bytecodeSize\n  dup4\n  codecopy\n  dup2\n  add\n  dup1\n  0x40\n  mstore\n  dup2\n  add\n  swap1\n  dup1\n  dup1\n  mload\n  swap1\n  0x20\n  add\n  swap1\n  swap3\n  swap2\n  swap1\n  pop\n  pop\n  pop\n    /* \"Debuggable.sol\":146:156  msg.sender */\n  caller\n    /* \"Debuggable.sol\":138:143  owner */\n  0x0\n  dup1\n    /* \"Debuggable.sol\":138:156  owner = msg.sender */\n  0x100\n  exp\n  dup2\n  sload\n  dup2\n  0xffffffffffffffffffffffffffffffffffffffff\n  mul\n  not\n  and\n  swap1\n  dup4\n  0xffffffffffffffffffffffffffffffffffffffff\n  and\n  mul\n  or\n  swap1\n  sstore\n  pop\n    /* \"ECMathInterface.sol\":4596:4628  ECMath_ChangeAddress(ecMathAddr) */\n  tag_6\n    /* \"ECMathInterface.sol\":4617:4627  ecMathAddr */\n  dup2\n    /* \"ECMathInterface.sol\":4596:4616  ECMath_ChangeAddress */\n  mul(0x100000000, tag_7)\n    /* \"ECMathInterface.sol\":4596:4628  ECMath_ChangeAddress(ecMathAddr) */\n  0x100000000\n  swap1\n  div\n  jump\t// in\ntag_6:\n    /* \"ECMathInterface.sol\":4549:4633  constructor(address ecMathAddr) public {\r... */\n  pop\n    /* \"ECMathInterface.sol\":3590:4636  contract ECMathInterface is Debuggable {\r... */\n  jump(tag_8)\n    /* \"ECMathInterface.sol\":4109:4394  function ECMath_ChangeAddress(address ecMathAddr) public ownerOnly {\r... */\ntag_7:\n    /* \"Debuggable.sol\":226:231  owner */\n  0x0\n  dup1\n  swap1\n  sload\n  swap1\n  0x100\n  exp\n  swap1\n  div\n  0xffffffffffffffffffffffffffffffffffffffff\n  and\n    /* \"Debuggable.sol\":212:231  msg.sender != owner */\n  0xffffffffffffffffffffffffffffffffffffffff\n  and\n    /* \"Debuggable.sol\":212:222  msg.sender */\n  caller\n    /* \"Debuggable.sol\":212:231  msg.sender != owner */\n  0xffffffffffffffffffffffffffffffffffffffff\n  and\n  eq\n  iszero\n    /* \"Debuggable.sol\":211:248  (msg.sender != owner) && (owner != 0) */\n  dup1\n  iszero\n  tag_10\n  jumpi\n  pop\n    /* \"Debuggable.sol\":246:247  0 */\n  0x0\n    /* \"Debuggable.sol\":237:242  owner */\n  dup1\n  0x0\n  swap1\n  sload\n  swap1\n  0x100\n  exp\n  swap1\n  div\n  0xffffffffffffffffffffffffffffffffffffffff\n  and\n    /* \"Debuggable.sol\":237:247  owner != 0 */\n  0xffffffffffffffffffffffffffffffffffffffff\n  and\n  eq\n  iszero\n    /* \"Debuggable.sol\":211:248  (msg.sender != owner) && (owner != 0) */\ntag_10:\n    /* \"Debuggable.sol\":206:259  if ( (msg.sender != owner) && (owner != 0) ) revert() */\n  iszero\n  tag_11\n  jumpi\n    /* \"Debuggable.sol\":251:259  revert() */\n  0x0\n  dup1\n  revert\n    /* \"Debuggable.sol\":206:259  if ( (msg.sender != owner) && (owner != 0) ) revert() */\ntag_11:\n    /* \"ECMathInterface.sol\":4324:4334  ecMathAddr */\n  dup1\n    /* \"ECMathInterface.sol\":4308:4314  ecMath */\n  0x1\n  0x0\n    /* \"ECMathInterface.sol\":4308:4335  ecMath = ECMath(ecMathAddr) */\n  0x100\n  exp\n  dup2\n  sload\n  dup2\n  0xffffffffffffffffffffffffffffffffffffffff\n  mul\n  not\n  and\n  swap1\n  dup4\n  0xffffffffffffffffffffffffffffffffffffffff\n  and\n  mul\n  or\n  swap1\n  sstore\n  pop\n    /* \"ECMathInterface.sol\":4345:4389  ContractAddressChanged(\"ECMath\", ecMathAddr) */\n  0x7cc5320aa18fb40c93aed6f76ae28088a8aaf67a112e0ca55367cd087b21802f\n    /* \"ECMathInterface.sol\":4378:4388  ecMathAddr */\n  dup2\n    /* \"ECMathInterface.sol\":4345:4389  ContractAddressChanged(\"ECMath\", ecMathAddr) */\n  mload(0x40)\n  dup1\n  dup1\n  0x20\n  add\n  dup4\n  0xffffffffffffffffffffffffffffffffffffffff\n  and\n  0xffffffffffffffffffffffffffffffffffffffff\n  and\n  dup2\n  mstore\n  0x20\n  add\n  dup3\n  dup2\n  sub\n  dup3\n  mstore\n  0x6\n  dup2\n  mstore\n  0x20\n  add\n  dup1\n  0x45434d6174680000000000000000000000000000000000000000000000000000\n  dup2\n  mstore\n  pop\n  0x20\n  add\n  swap3\n  pop\n  pop\n  pop\n  mload(0x40)\n  dup1\n  swap2\n  sub\n  swap1\n  log1\n    /* \"ECMathInterface.sol\":4109:4394  function ECMath_ChangeAddress(address ecMathAddr) public ownerOnly {\r... */\n  pop\n  jump\t// out\n    /* \"ECMathInterface.sol\":3590:4636  contract ECMathInterface is Debuggable {\r... */\ntag_8:\n  dataSize(sub_0)\n  dup1\n  dataOffset(sub_0)\n  0x0\n  codecopy\n  0x0\n  return\nstop\n\nsub_0: assembly {\n        /* \"ECMathInterface.sol\":3590:4636  contract ECMathInterface is Debuggable {\r... */\n      mstore(0x40, 0x80)\n      jumpi(tag_1, lt(calldatasize, 0x4))\n      calldataload(0x0)\n      0x100000000000000000000000000000000000000000000000000000000\n      swap1\n      div\n      0xffffffff\n      and\n      dup1\n      0x8da5cb5b\n      eq\n      tag_2\n      jumpi\n      dup1\n      0x9c8fda72\n      eq\n      tag_3\n      jumpi\n      dup1\n      0xbe26733c\n      eq\n      tag_4\n      jumpi\n      dup1\n      0xcba51ff3\n      eq\n      tag_5\n      jumpi\n      dup1\n      0xefd6b306\n      eq\n      tag_6\n      jumpi\n    tag_1:\n      0x0\n      dup1\n      revert\n        /* \"Debuggable.sol\":73:93  address public owner */\n    tag_2:\n      callvalue\n        /* \"--CODEGEN--\":8:17   */\n      dup1\n        /* \"--CODEGEN--\":5:7   */\n      iszero\n      tag_7\n      jumpi\n        /* \"--CODEGEN--\":30:31   */\n      0x0\n        /* \"--CODEGEN--\":27:28   */\n      dup1\n        /* \"--CODEGEN--\":20:32   */\n      revert\n        /* \"--CODEGEN--\":5:7   */\n    tag_7:\n        /* \"Debuggable.sol\":73:93  address public owner */\n      pop\n      tag_8\n      jump(tag_9)\n    tag_8:\n      mload(0x40)\n      dup1\n      dup3\n      0xffffffffffffffffffffffffffffffffffffffff\n      and\n      0xffffffffffffffffffffffffffffffffffffffff\n      and\n      dup2\n      mstore\n      0x20\n      add\n      swap2\n      pop\n      pop\n      mload(0x40)\n      dup1\n      swap2\n      sub\n      swap1\n      return\n        /* \"ECMathInterface.sol\":4109:4394  function ECMath_ChangeAddress(address ecMathAddr) public ownerOnly {\r... */\n    tag_3:\n      callvalue\n        /* \"--CODEGEN--\":8:17   */\n      dup1\n        /* \"--CODEGEN--\":5:7   */\n      iszero\n      tag_10\n      jumpi\n        /* \"--CODEGEN--\":30:31   */\n      0x0\n        /* \"--CODEGEN--\":27:28   */\n      dup1\n        /* \"--CODEGEN--\":20:32   */\n      revert\n        /* \"--CODEGEN--\":5:7   */\n    tag_10:\n        /* \"ECMathInterface.sol\":4109:4394  function ECMath_ChangeAddress(address ecMathAddr) public ownerOnly {\r... */\n      pop\n      tag_11\n      0x4\n      dup1\n      calldatasize\n      sub\n      dup2\n      add\n      swap1\n      dup1\n      dup1\n      calldataload\n      0xffffffffffffffffffffffffffffffffffffffff\n      and\n      swap1\n      0x20\n      add\n      swap1\n      swap3\n      swap2\n      swap1\n      pop\n      pop\n      pop\n      jump(tag_12)\n    tag_11:\n      stop\n        /* \"Debuggable.sol\":288:358  function Kill() public ownerOnly {\r... */\n    tag_4:\n      callvalue\n        /* \"--CODEGEN--\":8:17   */\n      dup1\n        /* \"--CODEGEN--\":5:7   */\n      iszero\n      tag_13\n      jumpi\n        /* \"--CODEGEN--\":30:31   */\n      0x0\n        /* \"--CODEGEN--\":27:28   */\n      dup1\n        /* \"--CODEGEN--\":20:32   */\n      revert\n        /* \"--CODEGEN--\":5:7   */\n    tag_13:\n        /* \"Debuggable.sol\":288:358  function Kill() public ownerOnly {\r... */\n      pop\n      tag_14\n      jump(tag_15)\n    tag_14:\n      stop\n        /* \"ECMathInterface.sol\":3790:3888  function ECMath_GetAddress() public constant returns (address) {\r... */\n    tag_5:\n      callvalue\n        /* \"--CODEGEN--\":8:17   */\n      dup1\n        /* \"--CODEGEN--\":5:7   */\n      iszero\n      tag_16\n      jumpi\n        /* \"--CODEGEN--\":30:31   */\n      0x0\n        /* \"--CODEGEN--\":27:28   */\n      dup1\n        /* \"--CODEGEN--\":20:32   */\n      revert\n        /* \"--CODEGEN--\":5:7   */\n    tag_16:\n        /* \"ECMathInterface.sol\":3790:3888  function ECMath_GetAddress() public constant returns (address) {\r... */\n      pop\n      tag_17\n      jump(tag_18)\n    tag_17:\n      mload(0x40)\n      dup1\n      dup3\n      0xffffffffffffffffffffffffffffffffffffffff\n      and\n      0xffffffffffffffffffffffffffffffffffffffff\n      and\n      dup2\n      mstore\n      0x20\n      add\n      swap2\n      pop\n      pop\n      mload(0x40)\n      dup1\n      swap2\n      sub\n      swap1\n      return\n        /* \"ECMathInterface.sol\":3894:4103  function ECMath_GetCodeSize() public constant returns (uint) {\r... */\n    tag_6:\n      callvalue\n        /* \"--CODEGEN--\":8:17   */\n      dup1\n        /* \"--CODEGEN--\":5:7   */\n      iszero\n      tag_19\n      jumpi\n        /* \"--CODEGEN--\":30:31   */\n      0x0\n        /* \"--CODEGEN--\":27:28   */\n      dup1\n        /* \"--CODEGEN--\":20:32   */\n      revert\n        /* \"--CODEGEN--\":5:7   */\n    tag_19:\n        /* \"ECMathInterface.sol\":3894:4103  function ECMath_GetCodeSize() public constant returns (uint) {\r... */\n      pop\n      tag_20\n      jump(tag_21)\n    tag_20:\n      mload(0x40)\n      dup1\n      dup3\n      dup2\n      mstore\n      0x20\n      add\n      swap2\n      pop\n      pop\n      mload(0x40)\n      dup1\n      swap2\n      sub\n      swap1\n      return\n        /* \"Debuggable.sol\":73:93  address public owner */\n    tag_9:\n      0x0\n      dup1\n      swap1\n      sload\n      swap1\n      0x100\n      exp\n      swap1\n      div\n      0xffffffffffffffffffffffffffffffffffffffff\n      and\n      dup2\n      jump\t// out\n        /* \"ECMathInterface.sol\":4109:4394  function ECMath_ChangeAddress(address ecMathAddr) public ownerOnly {\r... */\n    tag_12:\n        /* \"Debuggable.sol\":226:231  owner */\n      0x0\n      dup1\n      swap1\n      sload\n      swap1\n      0x100\n      exp\n      swap1\n      div\n      0xffffffffffffffffffffffffffffffffffffffff\n      and\n        /* \"Debuggable.sol\":212:231  msg.sender != owner */\n      0xffffffffffffffffffffffffffffffffffffffff\n      and\n        /* \"Debuggable.sol\":212:222  msg.sender */\n      caller\n        /* \"Debuggable.sol\":212:231  msg.sender != owner */\n      0xffffffffffffffffffffffffffffffffffffffff\n      and\n      eq\n      iszero\n        /* \"Debuggable.sol\":211:248  (msg.sender != owner) && (owner != 0) */\n      dup1\n      iszero\n      tag_23\n      jumpi\n      pop\n        /* \"Debuggable.sol\":246:247  0 */\n      0x0\n        /* \"Debuggable.sol\":237:242  owner */\n      dup1\n      0x0\n      swap1\n      sload\n      swap1\n      0x100\n      exp\n      swap1\n      div\n      0xffffffffffffffffffffffffffffffffffffffff\n      and\n        /* \"Debuggable.sol\":237:247  owner != 0 */\n      0xffffffffffffffffffffffffffffffffffffffff\n      and\n      eq\n      iszero\n        /* \"Debuggable.sol\":211:248  (msg.sender != owner) && (owner != 0) */\n    tag_23:\n        /* \"Debuggable.sol\":206:259  if ( (msg.sender != owner) && (owner != 0) ) revert() */\n      iszero\n      tag_24\n      jumpi\n        /* \"Debuggable.sol\":251:259  revert() */\n      0x0\n      dup1\n      revert\n        /* \"Debuggable.sol\":206:259  if ( (msg.sender != owner) && (owner != 0) ) revert() */\n    tag_24:\n        /* \"ECMathInterface.sol\":4324:4334  ecMathAddr */\n      dup1\n        /* \"ECMathInterface.sol\":4308:4314  ecMath */\n      0x1\n      0x0\n        /* \"ECMathInterface.sol\":4308:4335  ecMath = ECMath(ecMathAddr) */\n      0x100\n      exp\n      dup2\n      sload\n      dup2\n      0xffffffffffffffffffffffffffffffffffffffff\n      mul\n      not\n      and\n      swap1\n      dup4\n      0xffffffffffffffffffffffffffffffffffffffff\n      and\n      mul\n      or\n      swap1\n      sstore\n      pop\n        /* \"ECMathInterface.sol\":4345:4389  ContractAddressChanged(\"ECMath\", ecMathAddr) */\n      0x7cc5320aa18fb40c93aed6f76ae28088a8aaf67a112e0ca55367cd087b21802f\n        /* \"ECMathInterface.sol\":4378:4388  ecMathAddr */\n      dup2\n        /* \"ECMathInterface.sol\":4345:4389  ContractAddressChanged(\"ECMath\", ecMathAddr) */\n      mload(0x40)\n      dup1\n      dup1\n      0x20\n      add\n      dup4\n      0xffffffffffffffffffffffffffffffffffffffff\n      and\n      0xffffffffffffffffffffffffffffffffffffffff\n      and\n      dup2\n      mstore\n      0x20\n      add\n      dup3\n      dup2\n      sub\n      dup3\n      mstore\n      0x6\n      dup2\n      mstore\n      0x20\n      add\n      dup1\n      0x45434d6174680000000000000000000000000000000000000000000000000000\n      dup2\n      mstore\n      pop\n      0x20\n      add\n      swap3\n      pop\n      pop\n      pop\n      mload(0x40)\n      dup1\n      swap2\n      sub\n      swap1\n      log1\n        /* \"ECMathInterface.sol\":4109:4394  function ECMath_ChangeAddress(address ecMathAddr) public ownerOnly {\r... */\n      pop\n      jump\t// out\n        /* \"Debuggable.sol\":288:358  function Kill() public ownerOnly {\r... */\n    tag_15:\n        /* \"Debuggable.sol\":226:231  owner */\n      0x0\n      dup1\n      swap1\n      sload\n      swap1\n      0x100\n      exp\n      swap1\n      div\n      0xffffffffffffffffffffffffffffffffffffffff\n      and\n        /* \"Debuggable.sol\":212:231  msg.sender != owner */\n      0xffffffffffffffffffffffffffffffffffffffff\n      and\n        /* \"Debuggable.sol\":212:222  msg.sender */\n      caller\n        /* \"Debuggable.sol\":212:231  msg.sender != owner */\n      0xffffffffffffffffffffffffffffffffffffffff\n      and\n      eq\n      iszero\n        /* \"Debuggable.sol\":211:248  (msg.sender != owner) && (owner != 0) */\n      dup1\n      iszero\n      tag_27\n      jumpi\n      pop\n        /* \"Debuggable.sol\":246:247  0 */\n      0x0\n        /* \"Debuggable.sol\":237:242  owner */\n      dup1\n      0x0\n      swap1\n      sload\n      swap1\n      0x100\n      exp\n      swap1\n      div\n      0xffffffffffffffffffffffffffffffffffffffff\n      and\n        /* \"Debuggable.sol\":237:247  owner != 0 */\n      0xffffffffffffffffffffffffffffffffffffffff\n      and\n      eq\n      iszero\n        /* \"Debuggable.sol\":211:248  (msg.sender != owner) && (owner != 0) */\n    tag_27:\n        /* \"Debuggable.sol\":206:259  if ( (msg.sender != owner) && (owner != 0) ) revert() */\n      iszero\n      tag_28\n      jumpi\n        /* \"Debuggable.sol\":251:259  revert() */\n      0x0\n      dup1\n      revert\n        /* \"Debuggable.sol\":206:259  if ( (msg.sender != owner) && (owner != 0) ) revert() */\n    tag_28:\n        /* \"Debuggable.sol\":342:352  msg.sender */\n      caller\n        /* \"Debuggable.sol\":329:353  selfdestruct(msg.sender) */\n      0xffffffffffffffffffffffffffffffffffffffff\n      and\n      selfdestruct\n        /* \"ECMathInterface.sol\":3790:3888  function ECMath_GetAddress() public constant returns (address) {\r... */\n    tag_18:\n        /* \"ECMathInterface.sol\":3844:3851  address */\n      0x0\n        /* \"ECMathInterface.sol\":3876:3882  ecMath */\n      0x1\n      0x0\n      swap1\n      sload\n      swap1\n      0x100\n      exp\n      swap1\n      div\n      0xffffffffffffffffffffffffffffffffffffffff\n      and\n        /* \"ECMathInterface.sol\":3861:3883  return address(ecMath) */\n      swap1\n      pop\n        /* \"ECMathInterface.sol\":3790:3888  function ECMath_GetAddress() public constant returns (address) {\r... */\n      swap1\n      jump\t// out\n        /* \"ECMathInterface.sol\":3894:4103  function ECMath_GetCodeSize() public constant returns (uint) {\r... */\n    tag_21:\n        /* \"ECMathInterface.sol\":3949:3953  uint */\n      0x0\n        /* \"ECMathInterface.sol\":3963:3977  uint code_size */\n      dup1\n        /* \"ECMathInterface.sol\":3982:3994  address addr */\n      0x0\n        /* \"ECMathInterface.sol\":3997:4016  ECMath_GetAddress() */\n      tag_32\n        /* \"ECMathInterface.sol\":3997:4014  ECMath_GetAddress */\n      tag_18\n        /* \"ECMathInterface.sol\":3997:4016  ECMath_GetAddress() */\n      jump\t// in\n    tag_32:\n        /* \"ECMathInterface.sol\":3982:4016  address addr = ECMath_GetAddress() */\n      swap1\n      pop\n        /* \"ECMathInterface.sol\":4064:4068  addr */\n      dup1\n        /* \"ECMathInterface.sol\":4052:4069  extcodesize(addr) */\n      extcodesize\n        /* \"ECMathInterface.sol\":4039:4069  code_size := extcodesize(addr) */\n      swap2\n      pop\n        /* \"ECMathInterface.sol\":4089:4098  code_size */\n      dup2\n        /* \"ECMathInterface.sol\":4082:4098  return code_size */\n      swap3\n      pop\n        /* \"ECMathInterface.sol\":3894:4103  function ECMath_GetCodeSize() public constant returns (uint) {\r... */\n      pop\n      pop\n      swap1\n      jump\t// out\n\n    auxdata: 0xa165627a7a7230582021fc5577c78079da27c503652cc04a8358994dd1f78b14906d9a561801a6ea4b0029\n}\n",
				"bytecode": {
					"linkReferences": {},
					"object": "608060405234801561001057600080fd5b5060405160208061069183398101806040528101908080519060200190929190505050336000806101000a81548173ffffffffffffffffffffffffffffffffffffffff021916908373ffffffffffffffffffffffffffffffffffffffff16021790555061008b81610091640100000000026401000000009004565b50610210565b6000809054906101000a900473ffffffffffffffffffffffffffffffffffffffff1673ffffffffffffffffffffffffffffffffffffffff163373ffffffffffffffffffffffffffffffffffffffff1614158015610126575060008060009054906101000a900473ffffffffffffffffffffffffffffffffffffffff1673ffffffffffffffffffffffffffffffffffffffff1614155b1561013057600080fd5b80600160006101000a81548173ffffffffffffffffffffffffffffffffffffffff021916908373ffffffffffffffffffffffffffffffffffffffff1602179055507f7cc5320aa18fb40c93aed6f76ae28088a8aaf67a112e0ca55367cd087b21802f8160405180806020018373ffffffffffffffffffffffffffffffffffffffff1673ffffffffffffffffffffffffffffffffffffffff168152602001828103825260068152602001807f45434d61746800000000000000000000000000000000000000000000000000008152506020019250505060405180910390a150565b6104728061021f6000396000f30060806040526004361061006d576000357c0100000000000000000000000000000000000000000000000000000000900463ffffffff1680638da5cb5b146100725780639c8fda72146100c9578063be26733c1461010c578063cba51ff314610123578063efd6b3061461017a575b600080fd5b34801561007e57600080fd5b506100876101a5565b604051808273ffffffffffffffffffffffffffffffffffffffff1673ffffffffffffffffffffffffffffffffffffffff16815260200191505060405180910390f35b3480156100d557600080fd5b5061010a600480360381019080803573ffffffffffffffffffffffffffffffffffffffff1690602001909291905050506101ca565b005b34801561011857600080fd5b50610121610349565b005b34801561012f57600080fd5b50610138610401565b604051808273ffffffffffffffffffffffffffffffffffffffff1673ffffffffffffffffffffffffffffffffffffffff16815260200191505060405180910390f35b34801561018657600080fd5b5061018f61042b565b6040518082815260200191505060405180910390f35b6000809054906101000a900473ffffffffffffffffffffffffffffffffffffffff1681565b6000809054906101000a900473ffffffffffffffffffffffffffffffffffffffff1673ffffffffffffffffffffffffffffffffffffffff163373ffffffffffffffffffffffffffffffffffffffff161415801561025f575060008060009054906101000a900473ffffffffffffffffffffffffffffffffffffffff1673ffffffffffffffffffffffffffffffffffffffff1614155b1561026957600080fd5b80600160006101000a81548173ffffffffffffffffffffffffffffffffffffffff021916908373ffffffffffffffffffffffffffffffffffffffff1602179055507f7cc5320aa18fb40c93aed6f76ae28088a8aaf67a112e0ca55367cd087b21802f8160405180806020018373ffffffffffffffffffffffffffffffffffffffff1673ffffffffffffffffffffffffffffffffffffffff168152602001828103825260068152602001807f45434d61746800000000000000000000000000000000000000000000000000008152506020019250505060405180910390a150565b6000809054906101000a900473ffffffffffffffffffffffffffffffffffffffff1673ffffffffffffffffffffffffffffffffffffffff163373ffffffffffffffffffffffffffffffffffffffff16141580156103de575060008060009054906101000a900473ffffffffffffffffffffffffffffffffffffffff1673ffffffffffffffffffffffffffffffffffffffff1614155b156103e857600080fd5b3373ffffffffffffffffffffffffffffffffffffffff16ff5b6000600160009054906101000a900473ffffffffffffffffffffffffffffffffffffffff16905090565b6000806000610438610401565b9050803b91508192505050905600a165627a7a7230582021fc5577c78079da27c503652cc04a8358994dd1f78b14906d9a561801a6ea4b0029",
					"opcodes": "PUSH1 0x80 PUSH1 0x40 MSTORE CALLVALUE DUP1 ISZERO PUSH2 0x10 JUMPI PUSH1 0x0 DUP1 REVERT JUMPDEST POP PUSH1 0x40 MLOAD PUSH1 0x20 DUP1 PUSH2 0x691 DUP4 CODECOPY DUP2 ADD DUP1 PUSH1 0x40 MSTORE DUP2 ADD SWAP1 DUP1 DUP1 MLOAD SWAP1 PUSH1 0x20 ADD SWAP1 SWAP3 SWAP2 SWAP1 POP POP POP CALLER PUSH1 0x0 DUP1 PUSH2 0x100 EXP DUP2 SLOAD DUP2 PUSH20 0xFFFFFFFFFFFFFFFFFFFFFFFFFFFFFFFFFFFFFFFF MUL NOT AND SWAP1 DUP4 PUSH20 0xFFFFFFFFFFFFFFFFFFFFFFFFFFFFFFFFFFFFFFFF AND MUL OR SWAP1 SSTORE POP PUSH2 0x8B DUP2 PUSH2 0x91 PUSH5 0x100000000 MUL PUSH5 0x100000000 SWAP1 DIV JUMP JUMPDEST POP PUSH2 0x210 JUMP JUMPDEST PUSH1 0x0 DUP1 SWAP1 SLOAD SWAP1 PUSH2 0x100 EXP SWAP1 DIV PUSH20 0xFFFFFFFFFFFFFFFFFFFFFFFFFFFFFFFFFFFFFFFF AND PUSH20 0xFFFFFFFFFFFFFFFFFFFFFFFFFFFFFFFFFFFFFFFF AND CALLER PUSH20 0xFFFFFFFFFFFFFFFFFFFFFFFFFFFFFFFFFFFFFFFF AND EQ ISZERO DUP1 ISZERO PUSH2 0x126 JUMPI POP PUSH1 0x0 DUP1 PUSH1 0x0 SWAP1 SLOAD SWAP1 PUSH2 0x100 EXP SWAP1 DIV PUSH20 0xFFFFFFFFFFFFFFFFFFFFFFFFFFFFFFFFFFFFFFFF AND PUSH20 0xFFFFFFFFFFFFFFFFFFFFFFFFFFFFFFFFFFFFFFFF AND EQ ISZERO JUMPDEST ISZERO PUSH2 0x130 JUMPI PUSH1 0x0 DUP1 REVERT JUMPDEST DUP1 PUSH1 0x1 PUSH1 0x0 PUSH2 0x100 EXP DUP2 SLOAD DUP2 PUSH20 0xFFFFFFFFFFFFFFFFFFFFFFFFFFFFFFFFFFFFFFFF MUL NOT AND SWAP1 DUP4 PUSH20 0xFFFFFFFFFFFFFFFFFFFFFFFFFFFFFFFFFFFFFFFF AND MUL OR SWAP1 SSTORE POP PUSH32 0x7CC5320AA18FB40C93AED6F76AE28088A8AAF67A112E0CA55367CD087B21802F DUP2 PUSH1 0x40 MLOAD DUP1 DUP1 PUSH1 0x20 ADD DUP4 PUSH20 0xFFFFFFFFFFFFFFFFFFFFFFFFFFFFFFFFFFFFFFFF AND PUSH20 0xFFFFFFFFFFFFFFFFFFFFFFFFFFFFFFFFFFFFFFFF AND DUP2 MSTORE PUSH1 0x20 ADD DUP3 DUP2 SUB DUP3 MSTORE PUSH1 0x6 DUP2 MSTORE PUSH1 0x20 ADD DUP1 PUSH32 0x45434D6174680000000000000000000000000000000000000000000000000000 DUP2 MSTORE POP PUSH1 0x20 ADD SWAP3 POP POP POP PUSH1 0x40 MLOAD DUP1 SWAP2 SUB SWAP1 LOG1 POP JUMP JUMPDEST PUSH2 0x472 DUP1 PUSH2 0x21F PUSH1 0x0 CODECOPY PUSH1 0x0 RETURN STOP PUSH1 0x80 PUSH1 0x40 MSTORE PUSH1 0x4 CALLDATASIZE LT PUSH2 0x6D JUMPI PUSH1 0x0 CALLDATALOAD PUSH29 0x100000000000000000000000000000000000000000000000000000000 SWAP1 DIV PUSH4 0xFFFFFFFF AND DUP1 PUSH4 0x8DA5CB5B EQ PUSH2 0x72 JUMPI DUP1 PUSH4 0x9C8FDA72 EQ PUSH2 0xC9 JUMPI DUP1 PUSH4 0xBE26733C EQ PUSH2 0x10C JUMPI DUP1 PUSH4 0xCBA51FF3 EQ PUSH2 0x123 JUMPI DUP1 PUSH4 0xEFD6B306 EQ PUSH2 0x17A JUMPI JUMPDEST PUSH1 0x0 DUP1 REVERT JUMPDEST CALLVALUE DUP1 ISZERO PUSH2 0x7E JUMPI PUSH1 0x0 DUP1 REVERT JUMPDEST POP PUSH2 0x87 PUSH2 0x1A5 JUMP JUMPDEST PUSH1 0x40 MLOAD DUP1 DUP3 PUSH20 0xFFFFFFFFFFFFFFFFFFFFFFFFFFFFFFFFFFFFFFFF AND PUSH20 0xFFFFFFFFFFFFFFFFFFFFFFFFFFFFFFFFFFFFFFFF AND DUP2 MSTORE PUSH1 0x20 ADD SWAP2 POP POP PUSH1 0x40 MLOAD DUP1 SWAP2 SUB SWAP1 RETURN JUMPDEST CALLVALUE DUP1 ISZERO PUSH2 0xD5 JUMPI PUSH1 0x0 DUP1 REVERT JUMPDEST POP PUSH2 0x10A PUSH1 0x4 DUP1 CALLDATASIZE SUB DUP2 ADD SWAP1 DUP1 DUP1 CALLDATALOAD PUSH20 0xFFFFFFFFFFFFFFFFFFFFFFFFFFFFFFFFFFFFFFFF AND SWAP1 PUSH1 0x20 ADD SWAP1 SWAP3 SWAP2 SWAP1 POP POP POP PUSH2 0x1CA JUMP JUMPDEST STOP JUMPDEST CALLVALUE DUP1 ISZERO PUSH2 0x118 JUMPI PUSH1 0x0 DUP1 REVERT JUMPDEST POP PUSH2 0x121 PUSH2 0x349 JUMP JUMPDEST STOP JUMPDEST CALLVALUE DUP1 ISZERO PUSH2 0x12F JUMPI PUSH1 0x0 DUP1 REVERT JUMPDEST POP PUSH2 0x138 PUSH2 0x401 JUMP JUMPDEST PUSH1 0x40 MLOAD DUP1 DUP3 PUSH20 0xFFFFFFFFFFFFFFFFFFFFFFFFFFFFFFFFFFFFFFFF AND PUSH20 0xFFFFFFFFFFFFFFFFFFFFFFFFFFFFFFFFFFFFFFFF AND DUP2 MSTORE PUSH1 0x20 ADD SWAP2 POP POP PUSH1 0x40 MLOAD DUP1 SWAP2 SUB SWAP1 RETURN JUMPDEST CALLVALUE DUP1 ISZERO PUSH2 0x186 JUMPI PUSH1 0x0 DUP1 REVERT JUMPDEST POP PUSH2 0x18F PUSH2 0x42B JUMP JUMPDEST PUSH1 0x40 MLOAD DUP1 DUP3 DUP2 MSTORE PUSH1 0x20 ADD SWAP2 POP POP PUSH1 0x40 MLOAD DUP1 SWAP2 SUB SWAP1 RETURN JUMPDEST PUSH1 0x0 DUP1 SWAP1 SLOAD SWAP1 PUSH2 0x100 EXP SWAP1 DIV PUSH20 0xFFFFFFFFFFFFFFFFFFFFFFFFFFFFFFFFFFFFFFFF AND DUP2 JUMP JUMPDEST PUSH1 0x0 DUP1 SWAP1 SLOAD SWAP1 PUSH2 0x100 EXP SWAP1 DIV PUSH20 0xFFFFFFFFFFFFFFFFFFFFFFFFFFFFFFFFFFFFFFFF AND PUSH20 0xFFFFFFFFFFFFFFFFFFFFFFFFFFFFFFFFFFFFFFFF AND CALLER PUSH20 0xFFFFFFFFFFFFFFFFFFFFFFFFFFFFFFFFFFFFFFFF AND EQ ISZERO DUP1 ISZERO PUSH2 0x25F JUMPI POP PUSH1 0x0 DUP1 PUSH1 0x0 SWAP1 SLOAD SWAP1 PUSH2 0x100 EXP SWAP1 DIV PUSH20 0xFFFFFFFFFFFFFFFFFFFFFFFFFFFFFFFFFFFFFFFF AND PUSH20 0xFFFFFFFFFFFFFFFFFFFFFFFFFFFFFFFFFFFFFFFF AND EQ ISZERO JUMPDEST ISZERO PUSH2 0x269 JUMPI PUSH1 0x0 DUP1 REVERT JUMPDEST DUP1 PUSH1 0x1 PUSH1 0x0 PUSH2 0x100 EXP DUP2 SLOAD DUP2 PUSH20 0xFFFFFFFFFFFFFFFFFFFFFFFFFFFFFFFFFFFFFFFF MUL NOT AND SWAP1 DUP4 PUSH20 0xFFFFFFFFFFFFFFFFFFFFFFFFFFFFFFFFFFFFFFFF AND MUL OR SWAP1 SSTORE POP PUSH32 0x7CC5320AA18FB40C93AED6F76AE28088A8AAF67A112E0CA55367CD087B21802F DUP2 PUSH1 0x40 MLOAD DUP1 DUP1 PUSH1 0x20 ADD DUP4 PUSH20 0xFFFFFFFFFFFFFFFFFFFFFFFFFFFFFFFFFFFFFFFF AND PUSH20 0xFFFFFFFFFFFFFFFFFFFFFFFFFFFFFFFFFFFFFFFF AND DUP2 MSTORE PUSH1 0x20 ADD DUP3 DUP2 SUB DUP3 MSTORE PUSH1 0x6 DUP2 MSTORE PUSH1 0x20 ADD DUP1 PUSH32 0x45434D6174680000000000000000000000000000000000000000000000000000 DUP2 MSTORE POP PUSH1 0x20 ADD SWAP3 POP POP POP PUSH1 0x40 MLOAD DUP1 SWAP2 SUB SWAP1 LOG1 POP JUMP JUMPDEST PUSH1 0x0 DUP1 SWAP1 SLOAD SWAP1 PUSH2 0x100 EXP SWAP1 DIV PUSH20 0xFFFFFFFFFFFFFFFFFFFFFFFFFFFFFFFFFFFFFFFF AND PUSH20 0xFFFFFFFFFFFFFFFFFFFFFFFFFFFFFFFFFFFFFFFF AND CALLER PUSH20 0xFFFFFFFFFFFFFFFFFFFFFFFFFFFFFFFFFFFFFFFF AND EQ ISZERO DUP1 ISZERO PUSH2 0x3DE JUMPI POP PUSH1 0x0 DUP1 PUSH1 0x0 SWAP1 SLOAD SWAP1 PUSH2 0x100 EXP SWAP1 DIV PUSH20 0xFFFFFFFFFFFFFFFFFFFFFFFFFFFFFFFFFFFFFFFF AND PUSH20 0xFFFFFFFFFFFFFFFFFFFFFFFFFFFFFFFFFFFFFFFF AND EQ ISZERO JUMPDEST ISZERO PUSH2 0x3E8 JUMPI PUSH1 0x0 DUP1 REVERT JUMPDEST CALLER PUSH20 0xFFFFFFFFFFFFFFFFFFFFFFFFFFFFFFFFFFFFFFFF AND SELFDESTRUCT JUMPDEST PUSH1 0x0 PUSH1 0x1 PUSH1 0x0 SWAP1 SLOAD SWAP1 PUSH2 0x100 EXP SWAP1 DIV PUSH20 0xFFFFFFFFFFFFFFFFFFFFFFFFFFFFFFFFFFFFFFFF AND SWAP1 POP SWAP1 JUMP JUMPDEST PUSH1 0x0 DUP1 PUSH1 0x0 PUSH2 0x438 PUSH2 0x401 JUMP JUMPDEST SWAP1 POP DUP1 EXTCODESIZE SWAP2 POP DUP2 SWAP3 POP POP POP SWAP1 JUMP STOP LOG1 PUSH6 0x627A7A723058 KECCAK256 0x21 0xfc SSTORE PUSH24 0xC78079DA27C503652CC04A8358994DD1F78B14906D9A5618 ADD 0xa6 0xea 0x4b STOP 0x29 "
				},
				"gasEstimates": {
					"creation": {
						"codeDepositCost": "227600",
						"executionCost": "infinite",
						"totalCost": "infinite"
					},
					"external": {
						"ECMath_ChangeAddress(address)": "22955",
						"ECMath_GetAddress()": "516",
						"ECMath_GetCodeSize()": "1287",
						"Kill()": "30728",
						"owner()": "442"
					}
				},
				"methodIdentifiers": {
					"ECMath_ChangeAddress(address)": "9c8fda72",
					"ECMath_GetAddress()": "cba51ff3",
					"ECMath_GetCodeSize()": "efd6b306",
					"Kill()": "be26733c",
					"owner()": "8da5cb5b"
				}
			},
			"userdoc": {
				"methods": {}
			}
		}
	}
}