{
	"ECMath.sol": {
		"ECMath": {
			"abi": [
				{
					"constant": true,
					"inputs": [
						{
							"name": "p_add",
							"type": "uint256[2]"
						},
						{
							"name": "s",
							"type": "uint256"
						}
					],
					"name": "AddMultiplyH",
					"outputs": [
						{
							"name": "p0",
							"type": "uint256[2]"
						}
					],
					"payable": false,
					"stateMutability": "view",
					"type": "function"
				},
				{
					"constant": true,
					"inputs": [
						{
							"name": "s",
							"type": "uint256"
						}
					],
					"name": "MultiplyG1",
					"outputs": [
						{
							"name": "p0",
							"type": "uint256[2]"
						}
					],
					"payable": false,
					"stateMutability": "view",
					"type": "function"
				},
				{
					"constant": true,
					"inputs": [
						{
							"name": "p0",
							"type": "uint256[2]"
						},
						{
							"name": "p1",
							"type": "uint256[2]"
						}
					],
					"name": "Add",
					"outputs": [
						{
							"name": "p2",
							"type": "uint256[2]"
						}
					],
					"payable": false,
					"stateMutability": "view",
					"type": "function"
				},
				{
					"constant": true,
					"inputs": [
						{
							"name": "privatekey",
							"type": "uint256"
						}
					],
					"name": "GetPublicKeyFromPrivateKey",
					"outputs": [
						{
							"name": "PubKey",
							"type": "uint256[2]"
						}
					],
					"payable": false,
					"stateMutability": "view",
					"type": "function"
				},
				{
					"constant": true,
					"inputs": [
						{
							"name": "privatekey",
							"type": "uint256"
						}
					],
					"name": "GetAddressFromPrivateKey",
					"outputs": [
						{
							"name": "addr",
							"type": "address"
						}
					],
					"payable": false,
					"stateMutability": "view",
					"type": "function"
				},
				{
					"constant": true,
					"inputs": [
						{
							"name": "p1",
							"type": "uint256[2]"
						},
						{
							"name": "p2",
							"type": "uint256[2]"
						}
					],
					"name": "Equals",
					"outputs": [
						{
							"name": "",
							"type": "bool"
						}
					],
					"payable": false,
					"stateMutability": "view",
					"type": "function"
				},
				{
					"constant": true,
					"inputs": [
						{
							"name": "X",
							"type": "uint256[]"
						},
						{
							"name": "Y",
							"type": "uint256[]"
						}
					],
					"name": "VectorAdd",
					"outputs": [
						{
							"name": "Z",
							"type": "uint256[]"
						}
					],
					"payable": false,
					"stateMutability": "view",
					"type": "function"
				},
				{
					"constant": true,
					"inputs": [
						{
							"name": "PubKey",
							"type": "uint256[2]"
						}
					],
					"name": "GetAddress",
					"outputs": [
						{
							"name": "addr",
							"type": "address"
						}
					],
					"payable": false,
					"stateMutability": "view",
					"type": "function"
				},
				{
					"constant": true,
					"inputs": [
						{
							"name": "X",
							"type": "uint256[]"
						},
						{
							"name": "s",
							"type": "uint256"
						}
					],
					"name": "VectorScale",
					"outputs": [
						{
							"name": "Z",
							"type": "uint256[]"
						}
					],
					"payable": false,
					"stateMutability": "view",
					"type": "function"
				},
				{
					"constant": true,
					"inputs": [
						{
							"name": "Pin",
							"type": "uint256"
						}
					],
					"name": "ExpandPoint",
					"outputs": [
						{
							"name": "Pout",
							"type": "uint256[2]"
						}
					],
					"payable": false,
					"stateMutability": "view",
					"type": "function"
				},
				{
					"constant": true,
					"inputs": [
						{
							"name": "p1",
							"type": "uint256[2]"
						}
					],
					"name": "Negate",
					"outputs": [
						{
							"name": "p2",
							"type": "uint256[2]"
						}
					],
					"payable": false,
					"stateMutability": "view",
					"type": "function"
				},
				{
					"constant": true,
					"inputs": [
						{
							"name": "p",
							"type": "uint256[2]"
						}
					],
					"name": "HashToPoint",
					"outputs": [
						{
							"name": "h",
							"type": "uint256[2]"
						}
					],
					"payable": false,
					"stateMutability": "view",
					"type": "function"
				},
				{
					"constant": true,
					"inputs": [
						{
							"name": "s",
							"type": "uint256"
						}
					],
					"name": "MultiplyH",
					"outputs": [
						{
							"name": "p0",
							"type": "uint256[2]"
						}
					],
					"payable": false,
					"stateMutability": "view",
					"type": "function"
				},
				{
					"constant": true,
					"inputs": [
						{
							"name": "x",
							"type": "uint256"
						}
					],
					"name": "EvaluateCurve",
					"outputs": [
						{
							"name": "y",
							"type": "uint256"
						},
						{
							"name": "onCurve",
							"type": "bool"
						}
					],
					"payable": false,
					"stateMutability": "view",
					"type": "function"
				},
				{
					"constant": true,
					"inputs": [
						{
							"name": "Pin",
							"type": "uint256[2]"
						}
					],
					"name": "CompressPoint",
					"outputs": [
						{
							"name": "Pout",
							"type": "uint256"
						}
					],
					"payable": false,
					"stateMutability": "view",
					"type": "function"
				},
				{
					"constant": true,
					"inputs": [
						{
							"name": "point",
							"type": "uint256[2]"
						}
					],
					"name": "HashOfPoint",
					"outputs": [
						{
							"name": "h",
							"type": "uint256"
						}
					],
					"payable": false,
					"stateMutability": "view",
					"type": "function"
				},
				{
					"constant": true,
					"inputs": [
						{
							"name": "p0",
							"type": "uint256[2]"
						},
						{
							"name": "p1",
							"type": "uint256[2]"
						}
					],
					"name": "Subtract",
					"outputs": [
						{
							"name": "p2",
							"type": "uint256[2]"
						}
					],
					"payable": false,
					"stateMutability": "view",
					"type": "function"
				},
				{
					"constant": true,
					"inputs": [
						{
							"name": "X",
							"type": "uint256[]"
						},
						{
							"name": "Y",
							"type": "uint256[]"
						},
						{
							"name": "x",
							"type": "uint256[]"
						},
						{
							"name": "y",
							"type": "uint256[]"
						}
					],
					"name": "CommitAB",
					"outputs": [
						{
							"name": "px",
							"type": "uint256[2]"
						},
						{
							"name": "py",
							"type": "uint256[2]"
						}
					],
					"payable": false,
					"stateMutability": "view",
					"type": "function"
				},
				{
					"constant": true,
					"inputs": [
						{
							"name": "N",
							"type": "uint256"
						}
					],
					"name": "GetGiHi",
					"outputs": [
						{
							"name": "",
							"type": "uint256[]"
						},
						{
							"name": "",
							"type": "uint256[]"
						}
					],
					"payable": false,
					"stateMutability": "view",
					"type": "function"
				},
				{
					"constant": false,
					"inputs": [
						{
							"name": "N",
							"type": "uint256"
						}
					],
					"name": "GenerateBasePointVectors",
					"outputs": [],
					"payable": false,
					"stateMutability": "nonpayable",
					"type": "function"
				},
				{
					"constant": true,
					"inputs": [],
					"name": "owner",
					"outputs": [
						{
							"name": "",
							"type": "address"
						}
					],
					"payable": false,
					"stateMutability": "view",
					"type": "function"
				},
				{
					"constant": true,
					"inputs": [
						{
							"name": "p_add",
							"type": "uint256[2]"
						},
						{
							"name": "p_mul",
							"type": "uint256[2]"
						},
						{
							"name": "s",
							"type": "uint256"
						}
					],
					"name": "AddMultiply",
					"outputs": [
						{
							"name": "p0",
							"type": "uint256[2]"
						}
					],
					"payable": false,
					"stateMutability": "view",
					"type": "function"
				},
				{
					"constant": true,
					"inputs": [],
					"name": "GetGiHiLength",
					"outputs": [
						{
							"name": "",
							"type": "uint256"
						}
					],
					"payable": false,
					"stateMutability": "view",
					"type": "function"
				},
				{
					"constant": true,
					"inputs": [
						{
							"name": "Pin",
							"type": "uint256[2]"
						},
						{
							"name": "P",
							"type": "uint256[]"
						},
						{
							"name": "s",
							"type": "uint256[]"
						},
						{
							"name": "start",
							"type": "uint256"
						},
						{
							"name": "end",
							"type": "uint256"
						}
					],
					"name": "AddMultiExp",
					"outputs": [
						{
							"name": "Pout",
							"type": "uint256[2]"
						}
					],
					"payable": false,
					"stateMutability": "view",
					"type": "function"
				},
				{
					"constant": true,
					"inputs": [],
					"name": "GetG1",
					"outputs": [
						{
							"name": "",
							"type": "uint256[2]"
						}
					],
					"payable": false,
					"stateMutability": "view",
					"type": "function"
				},
				{
					"constant": true,
					"inputs": [
						{
							"name": "p_add",
							"type": "uint256[2]"
						},
						{
							"name": "s",
							"type": "uint256"
						}
					],
					"name": "AddMultiplyG1",
					"outputs": [
						{
							"name": "p0",
							"type": "uint256[2]"
						}
					],
					"payable": false,
					"stateMutability": "view",
					"type": "function"
				},
				{
					"constant": true,
					"inputs": [],
					"name": "GetInfinity",
					"outputs": [
						{
							"name": "",
							"type": "uint256[2]"
						}
					],
					"payable": false,
					"stateMutability": "view",
					"type": "function"
				},
				{
					"constant": true,
					"inputs": [
						{
							"name": "P",
							"type": "uint256[]"
						},
						{
							"name": "s",
							"type": "uint256[]"
						},
						{
							"name": "start",
							"type": "uint256"
						},
						{
							"name": "end",
							"type": "uint256"
						}
					],
					"name": "MultiExp",
					"outputs": [
						{
							"name": "Pout",
							"type": "uint256[2]"
						}
					],
					"payable": false,
					"stateMutability": "view",
					"type": "function"
				},
				{
					"constant": true,
					"inputs": [],
					"name": "GetPCurve",
					"outputs": [
						{
							"name": "",
							"type": "uint256"
						}
					],
					"payable": false,
					"stateMutability": "view",
					"type": "function"
				},
				{
					"constant": false,
					"inputs": [],
					"name": "Kill",
					"outputs": [],
					"payable": false,
					"stateMutability": "nonpayable",
					"type": "function"
				},
				{
					"constant": true,
					"inputs": [
						{
							"name": "p0",
							"type": "uint256[2]"
						},
						{
							"name": "s",
							"type": "uint256"
						}
					],
					"name": "Multiply",
					"outputs": [
						{
							"name": "p1",
							"type": "uint256[2]"
						}
					],
					"payable": false,
					"stateMutability": "view",
					"type": "function"
				},
				{
					"constant": true,
					"inputs": [],
					"name": "GetH",
					"outputs": [
						{
							"name": "",
							"type": "uint256[2]"
						}
					],
					"payable": false,
					"stateMutability": "view",
					"type": "function"
				},
				{
					"constant": true,
					"inputs": [
						{
							"name": "X",
							"type": "uint256[]"
						},
						{
							"name": "s",
							"type": "uint256[]"
						}
					],
					"name": "VectorMul",
					"outputs": [
						{
							"name": "Z",
							"type": "uint256[]"
						}
					],
					"payable": false,
					"stateMutability": "view",
					"type": "function"
				},
				{
					"constant": true,
					"inputs": [],
					"name": "GetNCurve",
					"outputs": [
						{
							"name": "",
							"type": "uint256"
						}
					],
					"payable": false,
					"stateMutability": "view",
					"type": "function"
				},
				{
					"constant": true,
					"inputs": [
						{
							"name": "s_G1",
							"type": "uint256"
						},
						{
							"name": "s_H",
							"type": "uint256"
						}
					],
					"name": "CommitG1H",
					"outputs": [
						{
							"name": "p0",
							"type": "uint256[2]"
						}
					],
					"payable": false,
					"stateMutability": "view",
					"type": "function"
				},
				{
					"inputs": [
						{
							"name": "N",
							"type": "uint256"
						}
					],
					"payable": false,
					"stateMutability": "nonpayable",
					"type": "constructor"
				},
				{
					"anonymous": false,
					"inputs": [
						{
							"indexed": false,
							"name": "marker",
							"type": "string"
						},
						{
							"indexed": false,
							"name": "data",
							"type": "uint256"
						}
					],
					"name": "DebugEvent",
					"type": "event"
				},
				{
					"anonymous": false,
					"inputs": [
						{
							"indexed": false,
							"name": "marker",
							"type": "string"
						},
						{
							"indexed": false,
							"name": "data",
							"type": "uint256[]"
						}
					],
					"name": "DebugEvent2",
					"type": "event"
				}
			],
			"devdoc": {
				"methods": {}
			},
			"evm": {
				"assembly": "    /* \"ECMath.sol\":58:12599  contract ECMath is Debuggable {\r... */\n  mstore(0x40, 0x80)\n    /* \"ECMath.sol\":714:873  constructor(uint256 N) public {\r... */\n  callvalue\n    /* \"--CODEGEN--\":8:17   */\n  dup1\n    /* \"--CODEGEN--\":5:7   */\n  iszero\n  tag_1\n  jumpi\n    /* \"--CODEGEN--\":30:31   */\n  0x0\n    /* \"--CODEGEN--\":27:28   */\n  dup1\n    /* \"--CODEGEN--\":20:32   */\n  revert\n    /* \"--CODEGEN--\":5:7   */\ntag_1:\n    /* \"ECMath.sol\":714:873  constructor(uint256 N) public {\r... */\n  pop\n  mload(0x40)\n  0x20\n  dup1\n  bytecodeSize\n  dup4\n  codecopy\n  dup2\n  add\n  dup1\n  0x40\n  mstore\n  dup2\n  add\n  swap1\n  dup1\n  dup1\n  mload\n  swap1\n  0x20\n  add\n  swap1\n  swap3\n  swap2\n  swap1\n  pop\n  pop\n  pop\n    /* \"Debuggable.sol\":146:156  msg.sender */\n  caller\n    /* \"Debuggable.sol\":138:143  owner */\n  0x0\n  dup1\n    /* \"Debuggable.sol\":138:156  owner = msg.sender */\n  0x100\n  exp\n  dup2\n  sload\n  dup2\n  0xffffffffffffffffffffffffffffffffffffffff\n  mul\n  not\n  and\n  swap1\n  dup4\n  0xffffffffffffffffffffffffffffffffffffffff\n  and\n  mul\n  or\n  swap1\n  sstore\n  pop\n    /* \"ECMath.sol\":755:775  G1 = [uint256(1), 2] */\n  0x40\n  dup1\n  mload\n  swap1\n  dup2\n  add\n  0x40\n  mstore\n  dup1\n    /* \"ECMath.sol\":769:770  1 */\n  0x1\n    /* \"ECMath.sol\":755:775  G1 = [uint256(1), 2] */\n  dup2\n  mstore\n  0x20\n  add\n    /* \"ECMath.sol\":773:774  2 */\n  0x2\n    /* \"ECMath.sol\":755:775  G1 = [uint256(1), 2] */\n  dup2\n  mstore\n  pop\n    /* \"ECMath.sol\":755:757  G1 */\n  0x1\n    /* \"ECMath.sol\":755:775  G1 = [uint256(1), 2] */\n  swap1\n  0x2\n  tag_6\n  swap3\n  swap2\n  swap1\n  jump\t// in(tag_7)\ntag_6:\n  pop\n    /* \"ECMath.sol\":787:802  HashToPoint(G1) */\n  tag_8\n    /* \"ECMath.sol\":799:801  G1 */\n  0x1\n    /* \"ECMath.sol\":787:802  HashToPoint(G1) */\n  0x2\n  dup1\n  0x20\n  mul\n  mload(0x40)\n  swap1\n  dup2\n  add\n  0x40\n  mstore\n  dup1\n  swap3\n  swap2\n  swap1\n  dup3\n  0x2\n  dup1\n  iszero\n  tag_9\n  jumpi\n  0x20\n  mul\n  dup3\n  add\n  swap2\ntag_10:\n  dup2\n  sload\n  dup2\n  mstore\n  0x20\n  add\n  swap1\n  0x1\n  add\n  swap1\n  dup1\n  dup4\n  gt\n  tag_10\n  jumpi\ntag_9:\n  pop\n  pop\n  pop\n  pop\n  pop\n    /* \"ECMath.sol\":787:798  HashToPoint */\n  mul(0x100000000, tag_11)\n    /* \"ECMath.sol\":787:802  HashToPoint(G1) */\n  0x100000000\n  swap1\n  div\n  jump\t// in\ntag_8:\n    /* \"ECMath.sol\":783:784  H */\n  0x3\n    /* \"ECMath.sol\":783:802  H = HashToPoint(G1) */\n  swap1\n  0x2\n  tag_12\n  swap3\n  swap2\n  swap1\n  jump\t// in(tag_7)\ntag_12:\n  pop\n    /* \"ECMath.sol\":811:832  Inf = [uint256(0), 0] */\n  0x40\n  dup1\n  mload\n  swap1\n  dup2\n  add\n  0x40\n  mstore\n  dup1\n    /* \"ECMath.sol\":826:827  0 */\n  0x0\n    /* \"ECMath.sol\":811:832  Inf = [uint256(0), 0] */\n  dup2\n  mstore\n  0x20\n  add\n    /* \"ECMath.sol\":830:831  0 */\n  0x0\n    /* \"ECMath.sol\":811:832  Inf = [uint256(0), 0] */\n  dup2\n  mstore\n  pop\n    /* \"ECMath.sol\":811:814  Inf */\n  0x5\n    /* \"ECMath.sol\":811:832  Inf = [uint256(0), 0] */\n  swap1\n  0x2\n  tag_13\n  swap3\n  swap2\n  swap1\n  jump\t// in(tag_7)\ntag_13:\n  pop\n    /* \"ECMath.sol\":841:868  GenerateBasePointVectors(N) */\n  tag_14\n    /* \"ECMath.sol\":866:867  N */\n  dup2\n    /* \"ECMath.sol\":841:865  GenerateBasePointVectors */\n  mul(0x100000000, tag_15)\n    /* \"ECMath.sol\":841:868  GenerateBasePointVectors(N) */\n  0x100000000\n  swap1\n  div\n  jump\t// in\ntag_14:\n    /* \"ECMath.sol\":714:873  constructor(uint256 N) public {\r... */\n  pop\n    /* \"ECMath.sol\":58:12599  contract ECMath is Debuggable {\r... */\n  jump(tag_16)\n    /* \"ECMath.sol\":12251:12596  function HashToPoint(uint256[2] p)\r... */\ntag_11:\n    /* \"ECMath.sol\":12320:12332  uint256[2] h */\n  tag_17\n  jump\t// in(tag_18)\ntag_17:\n    /* \"ECMath.sol\":12401:12413  bool onCurve */\n  0x0\n    /* \"ECMath.sol\":377:443  0x30644e72e131a029b85045b68181585d97816a916871ca8d3c208c16d87cfd47 */\n  0x30644e72e131a029b85045b68181585d97816a916871ca8d3c208c16d87cfd47\n    /* \"ECMath.sol\":12357:12371  HashOfPoint(p) */\n  tag_20\n    /* \"ECMath.sol\":12369:12370  p */\n  dup5\n    /* \"ECMath.sol\":12357:12368  HashOfPoint */\n  mul(0x100000000, tag_21)\n    /* \"ECMath.sol\":12357:12371  HashOfPoint(p) */\n  0x100000000\n  swap1\n  div\n  jump\t// in\ntag_20:\n    /* \"ECMath.sol\":12357:12380  HashOfPoint(p) % PCurve */\n  dup2\n  iszero\n  iszero\n  tag_22\n  jumpi\n  invalid\ntag_22:\n  mod\n    /* \"ECMath.sol\":12350:12351  h */\n  dup3\n    /* \"ECMath.sol\":12352:12353  0 */\n  0x0\n    /* \"ECMath.sol\":12350:12354  h[0] */\n  0x2\n  dup2\n  lt\n  iszero\n  iszero\n  tag_23\n  jumpi\n  invalid\ntag_23:\n  0x20\n  mul\n  add\n    /* \"ECMath.sol\":12350:12380  h[0] = HashOfPoint(p) % PCurve */\n  dup2\n  dup2\n  mstore\n  pop\n  pop\n    /* \"ECMath.sol\":12416:12421  false */\n  0x0\n    /* \"ECMath.sol\":12401:12421  bool onCurve = false */\n  swap1\n  pop\n    /* \"ECMath.sol\":12432:12589  while(!onCurve) {\r... */\ntag_24:\n    /* \"ECMath.sol\":12439:12446  onCurve */\n  dup1\n    /* \"ECMath.sol\":12438:12446  !onCurve */\n  iszero\n    /* \"ECMath.sol\":12432:12589  while(!onCurve) {\r... */\n  iszero\n  tag_25\n  jumpi\n    /* \"ECMath.sol\":12481:12500  EvaluateCurve(h[0]) */\n  tag_26\n    /* \"ECMath.sol\":12495:12496  h */\n  dup3\n    /* \"ECMath.sol\":12497:12498  0 */\n  0x0\n    /* \"ECMath.sol\":12495:12499  h[0] */\n  0x2\n  dup2\n  lt\n  iszero\n  iszero\n  tag_27\n  jumpi\n  invalid\ntag_27:\n  0x20\n  mul\n  add\n  mload\n    /* \"ECMath.sol\":12481:12494  EvaluateCurve */\n  mul(0x100000000, tag_28)\n    /* \"ECMath.sol\":12481:12500  EvaluateCurve(h[0]) */\n  0x100000000\n  swap1\n  div\n  jump\t// in\ntag_26:\n    /* \"ECMath.sol\":12464:12465  h */\n  dup4\n    /* \"ECMath.sol\":12466:12467  1 */\n  0x1\n    /* \"ECMath.sol\":12464:12468  h[1] */\n  0x2\n  dup2\n  lt\n  iszero\n  iszero\n  tag_29\n  jumpi\n  invalid\ntag_29:\n  0x20\n  mul\n  add\n    /* \"ECMath.sol\":12463:12500  (h[1], onCurve) = EvaluateCurve(h[0]) */\n  dup2\n  swap4\n  pop\n  dup3\n  dup2\n  mstore\n  pop\n  pop\n  pop\n    /* \"ECMath.sol\":12525:12532  onCurve */\n  dup1\n    /* \"ECMath.sol\":12524:12532  !onCurve */\n  iszero\n    /* \"ECMath.sol\":12520:12578  if (!onCurve) {\r... */\n  iszero\n  tag_30\n  jumpi\n    /* \"ECMath.sol\":377:443  0x30644e72e131a029b85045b68181585d97816a916871ca8d3c208c16d87cfd47 */\n  0x30644e72e131a029b85045b68181585d97816a916871ca8d3c208c16d87cfd47\n    /* \"ECMath.sol\":12548:12571  addmod(h[0], 1, PCurve) */\n  dup1\n  iszero\n  iszero\n  tag_31\n  jumpi\n  invalid\ntag_31:\n    /* \"ECMath.sol\":12561:12562  1 */\n  0x1\n    /* \"ECMath.sol\":12555:12556  h */\n  dup4\n    /* \"ECMath.sol\":12557:12558  0 */\n  0x0\n    /* \"ECMath.sol\":12555:12559  h[0] */\n  0x2\n  dup2\n  lt\n  iszero\n  iszero\n  tag_32\n  jumpi\n  invalid\ntag_32:\n  0x20\n  mul\n  add\n  mload\n    /* \"ECMath.sol\":12548:12571  addmod(h[0], 1, PCurve) */\n  addmod\n    /* \"ECMath.sol\":12541:12542  h */\n  dup3\n    /* \"ECMath.sol\":12543:12544  0 */\n  0x0\n    /* \"ECMath.sol\":12541:12545  h[0] */\n  0x2\n  dup2\n  lt\n  iszero\n  iszero\n  tag_33\n  jumpi\n  invalid\ntag_33:\n  0x20\n  mul\n  add\n    /* \"ECMath.sol\":12541:12571  h[0] = addmod(h[0], 1, PCurve) */\n  dup2\n  dup2\n  mstore\n  pop\n  pop\n    /* \"ECMath.sol\":12520:12578  if (!onCurve) {\r... */\ntag_30:\n    /* \"ECMath.sol\":12432:12589  while(!onCurve) {\r... */\n  jump(tag_24)\ntag_25:\n    /* \"ECMath.sol\":12251:12596  function HashToPoint(uint256[2] p)\r... */\n  pop\n  swap2\n  swap1\n  pop\n  jump\t// out\n    /* \"ECMath.sol\":2320:3458  function GenerateBasePointVectors(uint256 N) ownerOnly public {\r... */\ntag_15:\n    /* \"ECMath.sol\":2390:2406  uint256 existing */\n  0x0\n    /* \"ECMath.sol\":2462:2485  uint256[] memory Gi_new */\n  0x60\n    /* \"ECMath.sol\":2518:2541  uint256[] memory Hi_new */\n  dup1\n    /* \"ECMath.sol\":2585:2594  uint256 i */\n  0x0\n    /* \"ECMath.sol\":2837:2850  uint256 index */\n  dup1\n    /* \"ECMath.sol\":2862:2884  uint256[2] memory temp */\n  tag_34\n  jump\t// in(tag_18)\ntag_34:\n    /* \"Debuggable.sol\":226:231  owner */\n  0x0\n  dup1\n  swap1\n  sload\n  swap1\n  0x100\n  exp\n  swap1\n  div\n  0xffffffffffffffffffffffffffffffffffffffff\n  and\n    /* \"Debuggable.sol\":212:231  msg.sender != owner */\n  0xffffffffffffffffffffffffffffffffffffffff\n  and\n    /* \"Debuggable.sol\":212:222  msg.sender */\n  caller\n    /* \"Debuggable.sol\":212:231  msg.sender != owner */\n  0xffffffffffffffffffffffffffffffffffffffff\n  and\n  eq\n  iszero\n    /* \"Debuggable.sol\":211:248  (msg.sender != owner) && (owner != 0) */\n  dup1\n  iszero\n  tag_36\n  jumpi\n  pop\n    /* \"Debuggable.sol\":246:247  0 */\n  0x0\n    /* \"Debuggable.sol\":237:242  owner */\n  dup1\n  0x0\n  swap1\n  sload\n  swap1\n  0x100\n  exp\n  swap1\n  div\n  0xffffffffffffffffffffffffffffffffffffffff\n  and\n    /* \"Debuggable.sol\":237:247  owner != 0 */\n  0xffffffffffffffffffffffffffffffffffffffff\n  and\n  eq\n  iszero\n    /* \"Debuggable.sol\":211:248  (msg.sender != owner) && (owner != 0) */\ntag_36:\n    /* \"Debuggable.sol\":206:259  if ( (msg.sender != owner) && (owner != 0) ) revert() */\n  iszero\n  tag_37\n  jumpi\n    /* \"Debuggable.sol\":251:259  revert() */\n  0x0\n  dup1\n  revert\n    /* \"Debuggable.sol\":206:259  if ( (msg.sender != owner) && (owner != 0) ) revert() */\ntag_37:\n    /* \"ECMath.sol\":2422:2423  2 */\n  0x2\n    /* \"ECMath.sol\":2410:2412  Gi */\n  0x7\n    /* \"ECMath.sol\":2410:2419  Gi.length */\n  dup1\n  sload\n  swap1\n  pop\n    /* \"ECMath.sol\":2410:2423  Gi.length / 2 */\n  dup2\n  iszero\n  iszero\n  tag_39\n  jumpi\n  invalid\ntag_39:\n  div\n    /* \"ECMath.sol\":2390:2424  uint256 existing = (Gi.length / 2) */\n  swap6\n  pop\n    /* \"ECMath.sol\":2440:2448  existing */\n  dup6\n    /* \"ECMath.sol\":2436:2437  N */\n  dup8\n    /* \"ECMath.sol\":2436:2448  N > existing */\n  gt\n    /* \"ECMath.sol\":2432:3454  if (N > existing) {\r... */\n  iszero\n  tag_40\n  jumpi\n    /* \"ECMath.sol\":2504:2505  2 */\n  0x2\n    /* \"ECMath.sol\":2502:2503  N */\n  dup8\n    /* \"ECMath.sol\":2502:2505  N*2 */\n  mul\n    /* \"ECMath.sol\":2488:2506  new uint256[](N*2) */\n  mload(0x40)\n  swap1\n  dup1\n  dup3\n  mstore\n  dup1\n  0x20\n  mul\n  0x20\n  add\n  dup3\n  add\n  0x40\n  mstore\n  dup1\n  iszero\n  tag_41\n  jumpi\n  dup2\n  0x20\n  add\n    /* \"--CODEGEN--\":29:31   */\n  0x20\n    /* \"--CODEGEN--\":21:27   */\n  dup3\n    /* \"--CODEGEN--\":17:32   */\n  mul\n    /* \"--CODEGEN--\":117:121   */\n  dup1\n    /* \"--CODEGEN--\":105:115   */\n  codesize\n    /* \"--CODEGEN--\":97:103   */\n  dup4\n    /* \"--CODEGEN--\":88:122   */\n  codecopy\n    /* \"--CODEGEN--\":148:152   */\n  dup1\n    /* \"--CODEGEN--\":140:146   */\n  dup3\n    /* \"--CODEGEN--\":136:153   */\n  add\n    /* \"--CODEGEN--\":126:153   */\n  swap2\n  pop\n    /* \"--CODEGEN--\":0:157   */\n  pop\n    /* \"ECMath.sol\":2488:2506  new uint256[](N*2) */\n  swap1\n  pop\ntag_41:\n  pop\n    /* \"ECMath.sol\":2462:2506  uint256[] memory Gi_new = new uint256[](N*2) */\n  swap5\n  pop\n    /* \"ECMath.sol\":2560:2561  2 */\n  0x2\n    /* \"ECMath.sol\":2558:2559  N */\n  dup8\n    /* \"ECMath.sol\":2558:2561  N*2 */\n  mul\n    /* \"ECMath.sol\":2544:2562  new uint256[](N*2) */\n  mload(0x40)\n  swap1\n  dup1\n  dup3\n  mstore\n  dup1\n  0x20\n  mul\n  0x20\n  add\n  dup3\n  add\n  0x40\n  mstore\n  dup1\n  iszero\n  tag_42\n  jumpi\n  dup2\n  0x20\n  add\n    /* \"--CODEGEN--\":29:31   */\n  0x20\n    /* \"--CODEGEN--\":21:27   */\n  dup3\n    /* \"--CODEGEN--\":17:32   */\n  mul\n    /* \"--CODEGEN--\":117:121   */\n  dup1\n    /* \"--CODEGEN--\":105:115   */\n  codesize\n    /* \"--CODEGEN--\":97:103   */\n  dup4\n    /* \"--CODEGEN--\":88:122   */\n  codecopy\n    /* \"--CODEGEN--\":148:152   */\n  dup1\n    /* \"--CODEGEN--\":140:146   */\n  dup3\n    /* \"--CODEGEN--\":136:153   */\n  add\n    /* \"--CODEGEN--\":126:153   */\n  swap2\n  pop\n    /* \"--CODEGEN--\":0:157   */\n  pop\n    /* \"ECMath.sol\":2544:2562  new uint256[](N*2) */\n  swap1\n  pop\ntag_42:\n  pop\n    /* \"ECMath.sol\":2518:2562  uint256[] memory Hi_new = new uint256[](N*2) */\n  swap4\n  pop\n    /* \"ECMath.sol\":2653:2654  0 */\n  0x0\n    /* \"ECMath.sol\":2649:2654  i = 0 */\n  swap3\n  pop\n    /* \"ECMath.sol\":2644:2755  for (i = 0; i < Gi.length; i++) {\r... */\ntag_43:\n    /* \"ECMath.sol\":2660:2662  Gi */\n  0x7\n    /* \"ECMath.sol\":2660:2669  Gi.length */\n  dup1\n  sload\n  swap1\n  pop\n    /* \"ECMath.sol\":2656:2657  i */\n  dup4\n    /* \"ECMath.sol\":2656:2669  i < Gi.length */\n  lt\n    /* \"ECMath.sol\":2644:2755  for (i = 0; i < Gi.length; i++) {\r... */\n  iszero\n  tag_44\n  jumpi\n    /* \"ECMath.sol\":2704:2706  Gi */\n  0x7\n    /* \"ECMath.sol\":2707:2708  i */\n  dup4\n    /* \"ECMath.sol\":2704:2709  Gi[i] */\n  dup2\n  sload\n  dup2\n  lt\n  iszero\n  iszero\n  tag_46\n  jumpi\n  invalid\ntag_46:\n  swap1\n  0x0\n  mstore\n  keccak256(0x0, 0x20)\n  add\n  sload\n    /* \"ECMath.sol\":2692:2698  Gi_new */\n  dup6\n    /* \"ECMath.sol\":2699:2700  i */\n  dup5\n    /* \"ECMath.sol\":2692:2701  Gi_new[i] */\n  dup2\n  mload\n  dup2\n  lt\n  iszero\n  iszero\n  tag_48\n  jumpi\n  invalid\ntag_48:\n  swap1\n  0x20\n  add\n  swap1\n  0x20\n  mul\n  add\n    /* \"ECMath.sol\":2692:2709  Gi_new[i] = Gi[i] */\n  dup2\n  dup2\n  mstore\n  pop\n  pop\n    /* \"ECMath.sol\":2737:2739  Hi */\n  0x8\n    /* \"ECMath.sol\":2740:2741  i */\n  dup4\n    /* \"ECMath.sol\":2737:2742  Hi[i] */\n  dup2\n  sload\n  dup2\n  lt\n  iszero\n  iszero\n  tag_49\n  jumpi\n  invalid\ntag_49:\n  swap1\n  0x0\n  mstore\n  keccak256(0x0, 0x20)\n  add\n  sload\n    /* \"ECMath.sol\":2725:2731  Hi_new */\n  dup5\n    /* \"ECMath.sol\":2732:2733  i */\n  dup5\n    /* \"ECMath.sol\":2725:2734  Hi_new[i] */\n  dup2\n  mload\n  dup2\n  lt\n  iszero\n  iszero\n  tag_51\n  jumpi\n  invalid\ntag_51:\n  swap1\n  0x20\n  add\n  swap1\n  0x20\n  mul\n  add\n    /* \"ECMath.sol\":2725:2742  Hi_new[i] = Hi[i] */\n  dup2\n  dup2\n  mstore\n  pop\n  pop\n    /* \"ECMath.sol\":2671:2674  i++ */\n  dup3\n  dup1\n  0x1\n  add\n  swap4\n  pop\n  pop\n    /* \"ECMath.sol\":2644:2755  for (i = 0; i < Gi.length; i++) {\r... */\n  jump(tag_43)\ntag_44:\n    /* \"ECMath.sol\":2912:2913  0 */\n  0x0\n    /* \"ECMath.sol\":2900:2908  existing */\n  dup7\n    /* \"ECMath.sol\":2900:2913  existing == 0 */\n  eq\n    /* \"ECMath.sol\":2896:3063  if (existing == 0) {\r... */\n  iszero\n  tag_52\n  jumpi\n    /* \"ECMath.sol\":2938:2939  H */\n  0x3\n    /* \"ECMath.sol\":2931:2939  temp = H */\n  0x2\n  dup1\n  0x20\n  mul\n  mload(0x40)\n  swap1\n  dup2\n  add\n  0x40\n  mstore\n  dup1\n  swap3\n  swap2\n  swap1\n  dup3\n  0x2\n  dup1\n  iszero\n  tag_53\n  jumpi\n  0x20\n  mul\n  dup3\n  add\n  swap2\ntag_54:\n  dup2\n  sload\n  dup2\n  mstore\n  0x20\n  add\n  swap1\n  0x1\n  add\n  swap1\n  dup1\n  dup4\n  gt\n  tag_54\n  jumpi\ntag_53:\n  pop\n  pop\n  pop\n  pop\n  pop\n  swap1\n  pop\n    /* \"ECMath.sol\":2896:3063  if (existing == 0) {\r... */\n  jump(tag_55)\ntag_52:\n    /* \"ECMath.sol\":3002:3003  2 */\n  0x2\n    /* \"ECMath.sol\":2992:2994  Hi */\n  0x8\n    /* \"ECMath.sol\":2992:3001  Hi.length */\n  dup1\n  sload\n  swap1\n  pop\n    /* \"ECMath.sol\":2992:3003  Hi.length-2 */\n  sub\n    /* \"ECMath.sol\":2984:3003  index = Hi.length-2 */\n  swap2\n  pop\n    /* \"ECMath.sol\":3019:3050  temp = [Hi[index], Hi[index+1]] */\n  0x40\n  dup1\n  mload\n  swap1\n  dup2\n  add\n  0x40\n  mstore\n  dup1\n    /* \"ECMath.sol\":3027:3029  Hi */\n  0x8\n    /* \"ECMath.sol\":3030:3035  index */\n  dup5\n    /* \"ECMath.sol\":3027:3036  Hi[index] */\n  dup2\n  sload\n  dup2\n  lt\n  iszero\n  iszero\n  tag_56\n  jumpi\n  invalid\ntag_56:\n  swap1\n  0x0\n  mstore\n  keccak256(0x0, 0x20)\n  add\n  sload\n    /* \"ECMath.sol\":3019:3050  temp = [Hi[index], Hi[index+1]] */\n  dup2\n  mstore\n  0x20\n  add\n    /* \"ECMath.sol\":3038:3040  Hi */\n  0x8\n    /* \"ECMath.sol\":3047:3048  1 */\n  0x1\n    /* \"ECMath.sol\":3041:3046  index */\n  dup6\n    /* \"ECMath.sol\":3041:3048  index+1 */\n  add\n    /* \"ECMath.sol\":3038:3049  Hi[index+1] */\n  dup2\n  sload\n  dup2\n  lt\n  iszero\n  iszero\n  tag_58\n  jumpi\n  invalid\ntag_58:\n  swap1\n  0x0\n  mstore\n  keccak256(0x0, 0x20)\n  add\n  sload\n    /* \"ECMath.sol\":3019:3050  temp = [Hi[index], Hi[index+1]] */\n  dup2\n  mstore\n  pop\n  swap1\n  pop\n    /* \"ECMath.sol\":2896:3063  if (existing == 0) {\r... */\ntag_55:\n    /* \"ECMath.sol\":3094:3102  existing */\n  dup6\n    /* \"ECMath.sol\":3090:3102  i = existing */\n  swap3\n  pop\n    /* \"ECMath.sol\":3085:3389  for (i = existing; i < N; i++) {\r... */\ntag_60:\n    /* \"ECMath.sol\":3108:3109  N */\n  dup7\n    /* \"ECMath.sol\":3104:3105  i */\n  dup4\n    /* \"ECMath.sol\":3104:3109  i < N */\n  lt\n    /* \"ECMath.sol\":3085:3389  for (i = existing; i < N; i++) {\r... */\n  iszero\n  tag_61\n  jumpi\n    /* \"ECMath.sol\":3142:3143  i */\n  dup3\n    /* \"ECMath.sol\":3140:3141  2 */\n  0x2\n    /* \"ECMath.sol\":3140:3143  2*i */\n  mul\n    /* \"ECMath.sol\":3132:3143  index = 2*i */\n  swap2\n  pop\n    /* \"ECMath.sol\":3166:3183  HashToPoint(temp) */\n  tag_63\n    /* \"ECMath.sol\":3178:3182  temp */\n  dup2\n    /* \"ECMath.sol\":3166:3177  HashToPoint */\n  mul(0x100000000, tag_11)\n    /* \"ECMath.sol\":3166:3183  HashToPoint(temp) */\n  0x100000000\n  swap1\n  div\n  jump\t// in\ntag_63:\n    /* \"ECMath.sol\":3159:3183  temp = HashToPoint(temp) */\n  swap1\n  pop\n    /* \"ECMath.sol\":3235:3239  temp */\n  dup1\n    /* \"ECMath.sol\":3240:3241  0 */\n  0x0\n    /* \"ECMath.sol\":3235:3242  temp[0] */\n  0x2\n  dup2\n  lt\n  iszero\n  iszero\n  tag_64\n  jumpi\n  invalid\ntag_64:\n  0x20\n  mul\n  add\n  mload\n    /* \"ECMath.sol\":3244:3248  temp */\n  dup2\n    /* \"ECMath.sol\":3249:3250  1 */\n  0x1\n    /* \"ECMath.sol\":3244:3251  temp[1] */\n  0x2\n  dup2\n  lt\n  iszero\n  iszero\n  tag_65\n  jumpi\n  invalid\ntag_65:\n  0x20\n  mul\n  add\n  mload\n    /* \"ECMath.sol\":3200:3206  Gi_new */\n  dup7\n    /* \"ECMath.sol\":3207:3212  index */\n  dup5\n    /* \"ECMath.sol\":3200:3213  Gi_new[index] */\n  dup2\n  mload\n  dup2\n  lt\n  iszero\n  iszero\n  tag_66\n  jumpi\n  invalid\ntag_66:\n  swap1\n  0x20\n  add\n  swap1\n  0x20\n  mul\n  add\n    /* \"ECMath.sol\":3215:3221  Gi_new */\n  dup8\n    /* \"ECMath.sol\":3228:3229  1 */\n  0x1\n    /* \"ECMath.sol\":3222:3227  index */\n  dup7\n    /* \"ECMath.sol\":3222:3229  index+1 */\n  add\n    /* \"ECMath.sol\":3215:3230  Gi_new[index+1] */\n  dup2\n  mload\n  dup2\n  lt\n  iszero\n  iszero\n  tag_67\n  jumpi\n  invalid\ntag_67:\n  swap1\n  0x20\n  add\n  swap1\n  0x20\n  mul\n  add\n    /* \"ECMath.sol\":3199:3252  (Gi_new[index], Gi_new[index+1]) = (temp[0], temp[1]) */\n  dup3\n  dup2\n  mstore\n  pop\n  dup3\n  dup2\n  mstore\n  pop\n  pop\n  pop\n    /* \"ECMath.sol\":3290:3307  HashToPoint(temp) */\n  tag_68\n    /* \"ECMath.sol\":3302:3306  temp */\n  dup2\n    /* \"ECMath.sol\":3290:3301  HashToPoint */\n  mul(0x100000000, tag_11)\n    /* \"ECMath.sol\":3290:3307  HashToPoint(temp) */\n  0x100000000\n  swap1\n  div\n  jump\t// in\ntag_68:\n    /* \"ECMath.sol\":3283:3307  temp = HashToPoint(temp) */\n  swap1\n  pop\n    /* \"ECMath.sol\":3359:3363  temp */\n  dup1\n    /* \"ECMath.sol\":3364:3365  0 */\n  0x0\n    /* \"ECMath.sol\":3359:3366  temp[0] */\n  0x2\n  dup2\n  lt\n  iszero\n  iszero\n  tag_69\n  jumpi\n  invalid\ntag_69:\n  0x20\n  mul\n  add\n  mload\n    /* \"ECMath.sol\":3368:3372  temp */\n  dup2\n    /* \"ECMath.sol\":3373:3374  1 */\n  0x1\n    /* \"ECMath.sol\":3368:3375  temp[1] */\n  0x2\n  dup2\n  lt\n  iszero\n  iszero\n  tag_70\n  jumpi\n  invalid\ntag_70:\n  0x20\n  mul\n  add\n  mload\n    /* \"ECMath.sol\":3324:3330  Hi_new */\n  dup6\n    /* \"ECMath.sol\":3331:3336  index */\n  dup5\n    /* \"ECMath.sol\":3324:3337  Hi_new[index] */\n  dup2\n  mload\n  dup2\n  lt\n  iszero\n  iszero\n  tag_71\n  jumpi\n  invalid\ntag_71:\n  swap1\n  0x20\n  add\n  swap1\n  0x20\n  mul\n  add\n    /* \"ECMath.sol\":3339:3345  Hi_new */\n  dup7\n    /* \"ECMath.sol\":3352:3353  1 */\n  0x1\n    /* \"ECMath.sol\":3346:3351  index */\n  dup7\n    /* \"ECMath.sol\":3346:3353  index+1 */\n  add\n    /* \"ECMath.sol\":3339:3354  Hi_new[index+1] */\n  dup2\n  mload\n  dup2\n  lt\n  iszero\n  iszero\n  tag_72\n  jumpi\n  invalid\ntag_72:\n  swap1\n  0x20\n  add\n  swap1\n  0x20\n  mul\n  add\n    /* \"ECMath.sol\":3323:3376  (Hi_new[index], Hi_new[index+1]) = (temp[0], temp[1]) */\n  dup3\n  dup2\n  mstore\n  pop\n  dup3\n  dup2\n  mstore\n  pop\n  pop\n  pop\n    /* \"ECMath.sol\":3111:3114  i++ */\n  dup3\n  dup1\n  0x1\n  add\n  swap4\n  pop\n  pop\n    /* \"ECMath.sol\":3085:3389  for (i = existing; i < N; i++) {\r... */\n  jump(tag_60)\ntag_61:\n    /* \"ECMath.sol\":3416:3422  Gi_new */\n  dup5\n    /* \"ECMath.sol\":3411:3413  Gi */\n  0x7\n    /* \"ECMath.sol\":3411:3422  Gi = Gi_new */\n  swap1\n  dup1\n  mload\n  swap1\n  0x20\n  add\n  swap1\n  tag_73\n  swap3\n  swap2\n  swap1\n  jump\t// in(tag_74)\ntag_73:\n  pop\n    /* \"ECMath.sol\":3439:3445  Hi_new */\n  dup4\n    /* \"ECMath.sol\":3434:3436  Hi */\n  0x8\n    /* \"ECMath.sol\":3434:3445  Hi = Hi_new */\n  swap1\n  dup1\n  mload\n  swap1\n  0x20\n  add\n  swap1\n  tag_75\n  swap3\n  swap2\n  swap1\n  jump\t// in(tag_74)\ntag_75:\n  pop\n    /* \"ECMath.sol\":2432:3454  if (N > existing) {\r... */\ntag_40:\n    /* \"ECMath.sol\":2320:3458  function GenerateBasePointVectors(uint256 N) ownerOnly public {\r... */\n  pop\n  pop\n  pop\n  pop\n  pop\n  pop\n  pop\n  jump\t// out\n    /* \"ECMath.sol\":12042:12188  function HashOfPoint(uint256[2] point)\r... */\ntag_21:\n    /* \"ECMath.sol\":12111:12120  uint256 h */\n  0x0\n    /* \"ECMath.sol\":12160:12165  point */\n  dup2\n    /* \"ECMath.sol\":12166:12167  0 */\n  0x0\n    /* \"ECMath.sol\":12160:12168  point[0] */\n  0x2\n  dup2\n  lt\n  iszero\n  iszero\n  tag_77\n  jumpi\n  invalid\ntag_77:\n  0x20\n  mul\n  add\n  mload\n    /* \"ECMath.sol\":12170:12175  point */\n  dup3\n    /* \"ECMath.sol\":12176:12177  1 */\n  0x1\n    /* \"ECMath.sol\":12170:12178  point[1] */\n  0x2\n  dup2\n  lt\n  iszero\n  iszero\n  tag_78\n  jumpi\n  invalid\ntag_78:\n  0x20\n  mul\n  add\n  mload\n    /* \"ECMath.sol\":12150:12179  keccak256(point[0], point[1]) */\n  mload(0x40)\n  dup1\n  dup4\n  dup2\n  mstore\n  0x20\n  add\n  dup3\n  dup2\n  mstore\n  0x20\n  add\n  swap3\n  pop\n  pop\n  pop\n  mload(0x40)\n  dup1\n  swap2\n  sub\n  swap1\n  keccak256\n    /* \"ECMath.sol\":12142:12180  uint256(keccak256(point[0], point[1])) */\n  0x1\n  swap1\n  div\n    /* \"ECMath.sol\":12138:12180  h = uint256(keccak256(point[0], point[1])) */\n  swap1\n  pop\n    /* \"ECMath.sol\":12042:12188  function HashOfPoint(uint256[2] point)\r... */\n  swap2\n  swap1\n  pop\n  jump\t// out\n    /* \"ECMath.sol\":9397:10576  function EvaluateCurve(uint256 x)\r... */\ntag_28:\n    /* \"ECMath.sol\":9462:9471  uint256 y */\n  0x0\n    /* \"ECMath.sol\":9473:9485  bool onCurve */\n  dup1\n    /* \"ECMath.sol\":9497:9514  uint256 y_squared */\n  0x0\n    /* \"ECMath.sol\":9648:9663  uint256 p_local */\n  dup1\n    /* \"ECMath.sol\":9680:9695  uint256 a_local */\n  0x0\n    /* \"ECMath.sol\":377:443  0x30644e72e131a029b85045b68181585d97816a916871ca8d3c208c16d87cfd47 */\n  0x30644e72e131a029b85045b68181585d97816a916871ca8d3c208c16d87cfd47\n    /* \"ECMath.sol\":9517:9537  mulmod(x, x, PCurve) */\n  dup1\n  iszero\n  iszero\n  tag_80\n  jumpi\n  invalid\ntag_80:\n    /* \"ECMath.sol\":9527:9528  x */\n  dup7\n    /* \"ECMath.sol\":9524:9525  x */\n  dup8\n    /* \"ECMath.sol\":9517:9537  mulmod(x, x, PCurve) */\n  mulmod\n    /* \"ECMath.sol\":9497:9537  uint256 y_squared = mulmod(x, x, PCurve) */\n  swap3\n  pop\n    /* \"ECMath.sol\":377:443  0x30644e72e131a029b85045b68181585d97816a916871ca8d3c208c16d87cfd47 */\n  0x30644e72e131a029b85045b68181585d97816a916871ca8d3c208c16d87cfd47\n    /* \"ECMath.sol\":9557:9585  mulmod(y_squared, x, PCurve) */\n  dup1\n  iszero\n  iszero\n  tag_81\n  jumpi\n  invalid\ntag_81:\n    /* \"ECMath.sol\":9575:9576  x */\n  dup7\n    /* \"ECMath.sol\":9564:9573  y_squared */\n  dup5\n    /* \"ECMath.sol\":9557:9585  mulmod(y_squared, x, PCurve) */\n  mulmod\n    /* \"ECMath.sol\":9545:9585  y_squared = mulmod(y_squared, x, PCurve) */\n  swap3\n  pop\n    /* \"ECMath.sol\":377:443  0x30644e72e131a029b85045b68181585d97816a916871ca8d3c208c16d87cfd47 */\n  0x30644e72e131a029b85045b68181585d97816a916871ca8d3c208c16d87cfd47\n    /* \"ECMath.sol\":9605:9633  addmod(y_squared, 3, PCurve) */\n  dup1\n  iszero\n  iszero\n  tag_82\n  jumpi\n  invalid\ntag_82:\n    /* \"ECMath.sol\":9623:9624  3 */\n  0x3\n    /* \"ECMath.sol\":9612:9621  y_squared */\n  dup5\n    /* \"ECMath.sol\":9605:9633  addmod(y_squared, 3, PCurve) */\n  addmod\n    /* \"ECMath.sol\":9593:9633  y_squared = addmod(y_squared, 3, PCurve) */\n  swap3\n  pop\n    /* \"ECMath.sol\":377:443  0x30644e72e131a029b85045b68181585d97816a916871ca8d3c208c16d87cfd47 */\n  0x30644e72e131a029b85045b68181585d97816a916871ca8d3c208c16d87cfd47\n    /* \"ECMath.sol\":9648:9672  uint256 p_local = PCurve */\n  swap2\n  pop\n    /* \"ECMath.sol\":631:696  0xc19139cb84c680a6e14116da060561765e05aa45a1c72a34f082305b61f3f52 */\n  0xc19139cb84c680a6e14116da060561765e05aa45a1c72a34f082305b61f3f52\n    /* \"ECMath.sol\":9680:9699  uint256 a_local = a */\n  swap1\n  pop\n    /* \"ECMath.sol\":9786:9790  0x40 */\n  0x40\n    /* \"ECMath.sol\":9780:9791  mload(0x40) */\n  mload\n    /* \"ECMath.sol\":9871:9875  0x20 */\n  0x20\n    /* \"ECMath.sol\":9868:9869  p */\n  dup2\n    /* \"ECMath.sol\":9861:9876  mstore(p, 0x20) */\n  mstore\n    /* \"ECMath.sol\":9938:9942  0x20 */\n  0x20\n    /* \"ECMath.sol\":9931:9935  0x20 */\n  dup1\n    /* \"ECMath.sol\":9928:9929  p */\n  dup3\n    /* \"ECMath.sol\":9924:9936  add(p, 0x20) */\n  add\n    /* \"ECMath.sol\":9917:9943  mstore(add(p, 0x20), 0x20) */\n  mstore\n    /* \"ECMath.sol\":9998:10002  0x20 */\n  0x20\n    /* \"ECMath.sol\":9991:9995  0x40 */\n  0x40\n    /* \"ECMath.sol\":9988:9989  p */\n  dup3\n    /* \"ECMath.sol\":9984:9996  add(p, 0x40) */\n  add\n    /* \"ECMath.sol\":9977:10003  mstore(add(p, 0x40), 0x20) */\n  mstore\n    /* \"ECMath.sol\":10057:10066  y_squared */\n  dup4\n    /* \"ECMath.sol\":10050:10054  0x60 */\n  0x60\n    /* \"ECMath.sol\":10047:10048  p */\n  dup3\n    /* \"ECMath.sol\":10043:10055  add(p, 0x60) */\n  add\n    /* \"ECMath.sol\":10036:10067  mstore(add(p, 0x60), y_squared) */\n  mstore\n    /* \"ECMath.sol\":10106:10113  a_local */\n  dup2\n    /* \"ECMath.sol\":10099:10103  0x80 */\n  0x80\n    /* \"ECMath.sol\":10096:10097  p */\n  dup3\n    /* \"ECMath.sol\":10092:10104  add(p, 0x80) */\n  add\n    /* \"ECMath.sol\":10085:10114  mstore(add(p, 0x80), a_local) */\n  mstore\n    /* \"ECMath.sol\":10159:10166  p_local */\n  dup3\n    /* \"ECMath.sol\":10152:10156  0xA0 */\n  0xa0\n    /* \"ECMath.sol\":10149:10150  p */\n  dup3\n    /* \"ECMath.sol\":10145:10157  add(p, 0xA0) */\n  add\n    /* \"ECMath.sol\":10138:10167  mstore(add(p, 0xA0), p_local) */\n  mstore\n    /* \"ECMath.sol\":10291:10295  0x20 */\n  0x20\n    /* \"ECMath.sol\":10288:10289  p */\n  dup2\n    /* \"ECMath.sol\":10282:10286  0xC0 */\n  0xc0\n    /* \"ECMath.sol\":10279:10280  p */\n  dup4\n    /* \"ECMath.sol\":10276:10277  0 */\n  0x0\n    /* \"ECMath.sol\":10270:10274  0x05 */\n  0x5\n    /* \"ECMath.sol\":10263:10267  2000 */\n  0x7d0\n    /* \"ECMath.sol\":10258:10261  gas */\n  gas\n    /* \"ECMath.sol\":10254:10268  sub(gas, 2000) */\n  sub\n    /* \"ECMath.sol\":10249:10296  call(sub(gas, 2000), 0x05, 0, p, 0xC0, p, 0x20) */\n  call\n    /* \"ECMath.sol\":10381:10388  success */\n  dup1\n    /* \"ECMath.sol\":10394:10395  0 */\n  0x0\n    /* \"ECMath.sol\":10389:10415  case 0 { revert(p, 0xC0) } */\n  dup2\n  eq\n  tag_84\n  jumpi\n    /* \"ECMath.sol\":10374:10415  switch success case 0 { revert(p, 0xC0) } */\n  jump(tag_83)\n    /* \"ECMath.sol\":10389:10415  case 0 { revert(p, 0xC0) } */\ntag_84:\n    /* \"ECMath.sol\":10408:10412  0xC0 */\n  0xc0\n    /* \"ECMath.sol\":10405:10406  p */\n  dup4\n    /* \"ECMath.sol\":10398:10413  revert(p, 0xC0) */\n  revert\n    /* \"ECMath.sol\":10374:10415  switch success case 0 { revert(p, 0xC0) } */\ntag_83:\n  pop\n    /* \"ECMath.sol\":10481:10482  p */\n  dup2\n    /* \"ECMath.sol\":10475:10483  mload(p) */\n  mload\n    /* \"ECMath.sol\":10470:10483  y := mload(p) */\n  swap7\n  pop\n    /* \"ECMath.sol\":9723:10491  {\r... */\n  pop\n  pop\n    /* \"ECMath.sol\":377:443  0x30644e72e131a029b85045b68181585d97816a916871ca8d3c208c16d87cfd47 */\n  0x30644e72e131a029b85045b68181585d97816a916871ca8d3c208c16d87cfd47\n    /* \"ECMath.sol\":10550:10570  mulmod(y, y, PCurve) */\n  dup1\n  iszero\n  iszero\n  tag_85\n  jumpi\n  invalid\ntag_85:\n    /* \"ECMath.sol\":10560:10561  y */\n  dup6\n    /* \"ECMath.sol\":10557:10558  y */\n  dup7\n    /* \"ECMath.sol\":10550:10570  mulmod(y, y, PCurve) */\n  mulmod\n    /* \"ECMath.sol\":10537:10546  y_squared */\n  dup4\n    /* \"ECMath.sol\":10537:10570  y_squared == mulmod(y, y, PCurve) */\n  eq\n    /* \"ECMath.sol\":10526:10571  onCurve = (y_squared == mulmod(y, y, PCurve)) */\n  swap4\n  pop\n    /* \"ECMath.sol\":9397:10576  function EvaluateCurve(uint256 x)\r... */\n  pop\n  pop\n  pop\n  swap2\n  pop\n  swap2\n  jump\t// out\n    /* \"ECMath.sol\":58:12599  contract ECMath is Debuggable {\r... */\ntag_7:\n  dup3\n  0x2\n  dup2\n  add\n  swap3\n  dup3\n  iszero\n  tag_86\n  jumpi\n  swap2\n  0x20\n  mul\n  dup3\n  add\ntag_87:\n  dup3\n  dup2\n  gt\n  iszero\n  tag_88\n  jumpi\n  dup3\n  mload\n  dup3\n  sstore\n  swap2\n  0x20\n  add\n  swap2\n  swap1\n  0x1\n  add\n  swap1\n  jump(tag_87)\ntag_88:\ntag_86:\n  pop\n  swap1\n  pop\n  tag_89\n  swap2\n  swap1\n  jump\t// in(tag_90)\ntag_89:\n  pop\n  swap1\n  jump\t// out\ntag_18:\n  0x40\n  dup1\n  mload\n  swap1\n  dup2\n  add\n  0x40\n  mstore\n  dup1\n  0x2\n  swap1\n    /* \"--CODEGEN--\":29:31   */\n  0x20\n    /* \"--CODEGEN--\":21:27   */\n  dup3\n    /* \"--CODEGEN--\":17:32   */\n  mul\n    /* \"--CODEGEN--\":117:121   */\n  dup1\n    /* \"--CODEGEN--\":105:115   */\n  codesize\n    /* \"--CODEGEN--\":97:103   */\n  dup4\n    /* \"--CODEGEN--\":88:122   */\n  codecopy\n    /* \"--CODEGEN--\":148:152   */\n  dup1\n    /* \"--CODEGEN--\":140:146   */\n  dup3\n    /* \"--CODEGEN--\":136:153   */\n  add\n    /* \"--CODEGEN--\":126:153   */\n  swap2\n  pop\n    /* \"--CODEGEN--\":0:157   */\n  pop\n    /* \"ECMath.sol\":58:12599  contract ECMath is Debuggable {\r... */\n  swap1\n  pop\n  pop\n  swap1\n  jump\t// out\ntag_74:\n  dup3\n  dup1\n  sload\n  dup3\n  dup3\n  sstore\n  swap1\n  0x0\n  mstore\n  keccak256(0x0, 0x20)\n  swap1\n  dup2\n  add\n  swap3\n  dup3\n  iszero\n  tag_91\n  jumpi\n  swap2\n  0x20\n  mul\n  dup3\n  add\ntag_92:\n  dup3\n  dup2\n  gt\n  iszero\n  tag_93\n  jumpi\n  dup3\n  mload\n  dup3\n  sstore\n  swap2\n  0x20\n  add\n  swap2\n  swap1\n  0x1\n  add\n  swap1\n  jump(tag_92)\ntag_93:\ntag_91:\n  pop\n  swap1\n  pop\n  tag_94\n  swap2\n  swap1\n  jump\t// in(tag_90)\ntag_94:\n  pop\n  swap1\n  jump\t// out\ntag_90:\n  tag_95\n  swap2\n  swap1\ntag_96:\n  dup1\n  dup3\n  gt\n  iszero\n  tag_97\n  jumpi\n  0x0\n  dup2\n  0x0\n  swap1\n  sstore\n  pop\n  0x1\n  add\n  jump(tag_96)\ntag_97:\n  pop\n  swap1\n  jump\ntag_95:\n  swap1\n  jump\t// out\ntag_16:\n  dataSize(sub_0)\n  dup1\n  dataOffset(sub_0)\n  0x0\n  codecopy\n  0x0\n  return\nstop\n\nsub_0: assembly {\n        /* \"ECMath.sol\":58:12599  contract ECMath is Debuggable {\r... */\n      mstore(0x40, 0x80)\n      jumpi(tag_1, lt(calldatasize, 0x4))\n      calldataload(0x0)\n      0x100000000000000000000000000000000000000000000000000000000\n      swap1\n      div\n      0xffffffff\n      and\n      dup1\n      0x12421f9\n      eq\n      tag_2\n      jumpi\n      dup1\n      0x819336a\n      eq\n      tag_3\n      jumpi\n      dup1\n      0xc753fe8\n      eq\n      tag_4\n      jumpi\n      dup1\n      0x16491f3e\n      eq\n      tag_5\n      jumpi\n      dup1\n      0x1bea22e6\n      eq\n      tag_6\n      jumpi\n      dup1\n      0x1ce9d895\n      eq\n      tag_7\n      jumpi\n      dup1\n      0x20cebc5c\n      eq\n      tag_8\n      jumpi\n      dup1\n      0x37a8b202\n      eq\n      tag_9\n      jumpi\n      dup1\n      0x3b4c2ede\n      eq\n      tag_10\n      jumpi\n      dup1\n      0x5da7f69e\n      eq\n      tag_11\n      jumpi\n      dup1\n      0x5f033797\n      eq\n      tag_12\n      jumpi\n      dup1\n      0x6032fc3f\n      eq\n      tag_13\n      jumpi\n      dup1\n      0x639649c4\n      eq\n      tag_14\n      jumpi\n      dup1\n      0x66230bd9\n      eq\n      tag_15\n      jumpi\n      dup1\n      0x71b1c161\n      eq\n      tag_16\n      jumpi\n      dup1\n      0x758bad98\n      eq\n      tag_17\n      jumpi\n      dup1\n      0x80bca979\n      eq\n      tag_18\n      jumpi\n      dup1\n      0x841675c9\n      eq\n      tag_19\n      jumpi\n      dup1\n      0x8ac1c8d4\n      eq\n      tag_20\n      jumpi\n      dup1\n      0x8b05a64a\n      eq\n      tag_21\n      jumpi\n      dup1\n      0x8da5cb5b\n      eq\n      tag_22\n      jumpi\n      dup1\n      0x9c050a4a\n      eq\n      tag_23\n      jumpi\n      dup1\n      0xa77a970d\n      eq\n      tag_24\n      jumpi\n      dup1\n      0xad4310f5\n      eq\n      tag_25\n      jumpi\n      dup1\n      0xae5d39f6\n      eq\n      tag_26\n      jumpi\n      dup1\n      0xb0f5c83a\n      eq\n      tag_27\n      jumpi\n      dup1\n      0xb866cf29\n      eq\n      tag_28\n      jumpi\n      dup1\n      0xba7d3977\n      eq\n      tag_29\n      jumpi\n      dup1\n      0xbab5064c\n      eq\n      tag_30\n      jumpi\n      dup1\n      0xbe26733c\n      eq\n      tag_31\n      jumpi\n      dup1\n      0xc025d89b\n      eq\n      tag_32\n      jumpi\n      dup1\n      0xc1eeb1fe\n      eq\n      tag_33\n      jumpi\n      dup1\n      0xcf60976a\n      eq\n      tag_34\n      jumpi\n      dup1\n      0xd1ff535b\n      eq\n      tag_35\n      jumpi\n      dup1\n      0xe76f8e66\n      eq\n      tag_36\n      jumpi\n    tag_1:\n      0x0\n      dup1\n      revert\n        /* \"ECMath.sol\":6168:6323  function AddMultiplyH(uint256[2] p_add, uint256 s)\r... */\n    tag_2:\n      callvalue\n        /* \"--CODEGEN--\":8:17   */\n      dup1\n        /* \"--CODEGEN--\":5:7   */\n      iszero\n      tag_37\n      jumpi\n        /* \"--CODEGEN--\":30:31   */\n      0x0\n        /* \"--CODEGEN--\":27:28   */\n      dup1\n        /* \"--CODEGEN--\":20:32   */\n      revert\n        /* \"--CODEGEN--\":5:7   */\n    tag_37:\n        /* \"ECMath.sol\":6168:6323  function AddMultiplyH(uint256[2] p_add, uint256 s)\r... */\n      pop\n      tag_38\n      0x4\n      dup1\n      calldatasize\n      sub\n      dup2\n      add\n      swap1\n      dup1\n      dup1\n      0x40\n      add\n      swap1\n      0x2\n      dup1\n      0x20\n      mul\n      mload(0x40)\n      swap1\n      dup2\n      add\n      0x40\n      mstore\n      dup1\n      swap3\n      swap2\n      swap1\n      dup3\n      mul(0x20, 0x2)\n      dup1\n      dup3\n      dup5\n      calldatacopy\n      dup3\n      add\n      swap2\n      pop\n      pop\n      pop\n      pop\n      pop\n      swap2\n      swap3\n      swap2\n      swap3\n      swap1\n      dup1\n      calldataload\n      swap1\n      0x20\n      add\n      swap1\n      swap3\n      swap2\n      swap1\n      pop\n      pop\n      pop\n      jump(tag_39)\n    tag_38:\n      mload(0x40)\n      dup1\n      dup3\n      mul(0x20, 0x2)\n      dup1\n      dup4\n      dup4\n        /* \"--CODEGEN--\":23:24   */\n      0x0\n        /* \"--CODEGEN--\":8:108   */\n    tag_40:\n        /* \"--CODEGEN--\":33:36   */\n      dup4\n        /* \"--CODEGEN--\":30:31   */\n      dup2\n        /* \"--CODEGEN--\":27:37   */\n      lt\n        /* \"--CODEGEN--\":8:108   */\n      iszero\n      tag_41\n      jumpi\n        /* \"--CODEGEN--\":99:100   */\n      dup1\n        /* \"--CODEGEN--\":94:97   */\n      dup3\n        /* \"--CODEGEN--\":90:101   */\n      add\n        /* \"--CODEGEN--\":84:102   */\n      mload\n        /* \"--CODEGEN--\":80:81   */\n      dup2\n        /* \"--CODEGEN--\":75:78   */\n      dup5\n        /* \"--CODEGEN--\":71:82   */\n      add\n        /* \"--CODEGEN--\":64:103   */\n      mstore\n        /* \"--CODEGEN--\":52:54   */\n      0x20\n        /* \"--CODEGEN--\":49:50   */\n      dup2\n        /* \"--CODEGEN--\":45:55   */\n      add\n        /* \"--CODEGEN--\":40:55   */\n      swap1\n      pop\n        /* \"--CODEGEN--\":8:108   */\n      jump(tag_40)\n    tag_41:\n        /* \"--CODEGEN--\":12:26   */\n      pop\n        /* \"ECMath.sol\":6168:6323  function AddMultiplyH(uint256[2] p_add, uint256 s)\r... */\n      pop\n      pop\n      pop\n      swap1\n      pop\n      add\n      swap2\n      pop\n      pop\n      mload(0x40)\n      dup1\n      swap2\n      sub\n      swap1\n      return\n        /* \"ECMath.sol\":5430:5556  function MultiplyG1(uint256 s)\r... */\n    tag_3:\n      callvalue\n        /* \"--CODEGEN--\":8:17   */\n      dup1\n        /* \"--CODEGEN--\":5:7   */\n      iszero\n      tag_43\n      jumpi\n        /* \"--CODEGEN--\":30:31   */\n      0x0\n        /* \"--CODEGEN--\":27:28   */\n      dup1\n        /* \"--CODEGEN--\":20:32   */\n      revert\n        /* \"--CODEGEN--\":5:7   */\n    tag_43:\n        /* \"ECMath.sol\":5430:5556  function MultiplyG1(uint256 s)\r... */\n      pop\n      tag_44\n      0x4\n      dup1\n      calldatasize\n      sub\n      dup2\n      add\n      swap1\n      dup1\n      dup1\n      calldataload\n      swap1\n      0x20\n      add\n      swap1\n      swap3\n      swap2\n      swap1\n      pop\n      pop\n      pop\n      jump(tag_45)\n    tag_44:\n      mload(0x40)\n      dup1\n      dup3\n      mul(0x20, 0x2)\n      dup1\n      dup4\n      dup4\n        /* \"--CODEGEN--\":23:24   */\n      0x0\n        /* \"--CODEGEN--\":8:108   */\n    tag_46:\n        /* \"--CODEGEN--\":33:36   */\n      dup4\n        /* \"--CODEGEN--\":30:31   */\n      dup2\n        /* \"--CODEGEN--\":27:37   */\n      lt\n        /* \"--CODEGEN--\":8:108   */\n      iszero\n      tag_47\n      jumpi\n        /* \"--CODEGEN--\":99:100   */\n      dup1\n        /* \"--CODEGEN--\":94:97   */\n      dup3\n        /* \"--CODEGEN--\":90:101   */\n      add\n        /* \"--CODEGEN--\":84:102   */\n      mload\n        /* \"--CODEGEN--\":80:81   */\n      dup2\n        /* \"--CODEGEN--\":75:78   */\n      dup5\n        /* \"--CODEGEN--\":71:82   */\n      add\n        /* \"--CODEGEN--\":64:103   */\n      mstore\n        /* \"--CODEGEN--\":52:54   */\n      0x20\n        /* \"--CODEGEN--\":49:50   */\n      dup2\n        /* \"--CODEGEN--\":45:55   */\n      add\n        /* \"--CODEGEN--\":40:55   */\n      swap1\n      pop\n        /* \"--CODEGEN--\":8:108   */\n      jump(tag_46)\n    tag_47:\n        /* \"--CODEGEN--\":12:26   */\n      pop\n        /* \"ECMath.sol\":5430:5556  function MultiplyG1(uint256 s)\r... */\n      pop\n      pop\n      pop\n      swap1\n      pop\n      add\n      swap2\n      pop\n      pop\n      mload(0x40)\n      dup1\n      swap2\n      sub\n      swap1\n      return\n        /* \"ECMath.sol\":3765:4535  function Add(uint256[2] p0, uint256[2] p1)\r... */\n    tag_4:\n      callvalue\n        /* \"--CODEGEN--\":8:17   */\n      dup1\n        /* \"--CODEGEN--\":5:7   */\n      iszero\n      tag_49\n      jumpi\n        /* \"--CODEGEN--\":30:31   */\n      0x0\n        /* \"--CODEGEN--\":27:28   */\n      dup1\n        /* \"--CODEGEN--\":20:32   */\n      revert\n        /* \"--CODEGEN--\":5:7   */\n    tag_49:\n        /* \"ECMath.sol\":3765:4535  function Add(uint256[2] p0, uint256[2] p1)\r... */\n      pop\n      tag_50\n      0x4\n      dup1\n      calldatasize\n      sub\n      dup2\n      add\n      swap1\n      dup1\n      dup1\n      0x40\n      add\n      swap1\n      0x2\n      dup1\n      0x20\n      mul\n      mload(0x40)\n      swap1\n      dup2\n      add\n      0x40\n      mstore\n      dup1\n      swap3\n      swap2\n      swap1\n      dup3\n      mul(0x20, 0x2)\n      dup1\n      dup3\n      dup5\n      calldatacopy\n      dup3\n      add\n      swap2\n      pop\n      pop\n      pop\n      pop\n      pop\n      swap2\n      swap3\n      swap2\n      swap3\n      swap1\n      dup1\n      0x40\n      add\n      swap1\n      0x2\n      dup1\n      0x20\n      mul\n      mload(0x40)\n      swap1\n      dup2\n      add\n      0x40\n      mstore\n      dup1\n      swap3\n      swap2\n      swap1\n      dup3\n      mul(0x20, 0x2)\n      dup1\n      dup3\n      dup5\n      calldatacopy\n      dup3\n      add\n      swap2\n      pop\n      pop\n      pop\n      pop\n      pop\n      swap2\n      swap3\n      swap2\n      swap3\n      swap1\n      pop\n      pop\n      pop\n      jump(tag_51)\n    tag_50:\n      mload(0x40)\n      dup1\n      dup3\n      mul(0x20, 0x2)\n      dup1\n      dup4\n      dup4\n        /* \"--CODEGEN--\":23:24   */\n      0x0\n        /* \"--CODEGEN--\":8:108   */\n    tag_52:\n        /* \"--CODEGEN--\":33:36   */\n      dup4\n        /* \"--CODEGEN--\":30:31   */\n      dup2\n        /* \"--CODEGEN--\":27:37   */\n      lt\n        /* \"--CODEGEN--\":8:108   */\n      iszero\n      tag_53\n      jumpi\n        /* \"--CODEGEN--\":99:100   */\n      dup1\n        /* \"--CODEGEN--\":94:97   */\n      dup3\n        /* \"--CODEGEN--\":90:101   */\n      add\n        /* \"--CODEGEN--\":84:102   */\n      mload\n        /* \"--CODEGEN--\":80:81   */\n      dup2\n        /* \"--CODEGEN--\":75:78   */\n      dup5\n        /* \"--CODEGEN--\":71:82   */\n      add\n        /* \"--CODEGEN--\":64:103   */\n      mstore\n        /* \"--CODEGEN--\":52:54   */\n      0x20\n        /* \"--CODEGEN--\":49:50   */\n      dup2\n        /* \"--CODEGEN--\":45:55   */\n      add\n        /* \"--CODEGEN--\":40:55   */\n      swap1\n      pop\n        /* \"--CODEGEN--\":8:108   */\n      jump(tag_52)\n    tag_53:\n        /* \"--CODEGEN--\":12:26   */\n      pop\n        /* \"ECMath.sol\":3765:4535  function Add(uint256[2] p0, uint256[2] p1)\r... */\n      pop\n      pop\n      pop\n      swap1\n      pop\n      add\n      swap2\n      pop\n      pop\n      mload(0x40)\n      dup1\n      swap2\n      sub\n      swap1\n      return\n        /* \"ECMath.sol\":11642:11808  function GetPublicKeyFromPrivateKey(uint256 privatekey)\r... */\n    tag_5:\n      callvalue\n        /* \"--CODEGEN--\":8:17   */\n      dup1\n        /* \"--CODEGEN--\":5:7   */\n      iszero\n      tag_55\n      jumpi\n        /* \"--CODEGEN--\":30:31   */\n      0x0\n        /* \"--CODEGEN--\":27:28   */\n      dup1\n        /* \"--CODEGEN--\":20:32   */\n      revert\n        /* \"--CODEGEN--\":5:7   */\n    tag_55:\n        /* \"ECMath.sol\":11642:11808  function GetPublicKeyFromPrivateKey(uint256 privatekey)\r... */\n      pop\n      tag_56\n      0x4\n      dup1\n      calldatasize\n      sub\n      dup2\n      add\n      swap1\n      dup1\n      dup1\n      calldataload\n      swap1\n      0x20\n      add\n      swap1\n      swap3\n      swap2\n      swap1\n      pop\n      pop\n      pop\n      jump(tag_57)\n    tag_56:\n      mload(0x40)\n      dup1\n      dup3\n      mul(0x20, 0x2)\n      dup1\n      dup4\n      dup4\n        /* \"--CODEGEN--\":23:24   */\n      0x0\n        /* \"--CODEGEN--\":8:108   */\n    tag_58:\n        /* \"--CODEGEN--\":33:36   */\n      dup4\n        /* \"--CODEGEN--\":30:31   */\n      dup2\n        /* \"--CODEGEN--\":27:37   */\n      lt\n        /* \"--CODEGEN--\":8:108   */\n      iszero\n      tag_59\n      jumpi\n        /* \"--CODEGEN--\":99:100   */\n      dup1\n        /* \"--CODEGEN--\":94:97   */\n      dup3\n        /* \"--CODEGEN--\":90:101   */\n      add\n        /* \"--CODEGEN--\":84:102   */\n      mload\n        /* \"--CODEGEN--\":80:81   */\n      dup2\n        /* \"--CODEGEN--\":75:78   */\n      dup5\n        /* \"--CODEGEN--\":71:82   */\n      add\n        /* \"--CODEGEN--\":64:103   */\n      mstore\n        /* \"--CODEGEN--\":52:54   */\n      0x20\n        /* \"--CODEGEN--\":49:50   */\n      dup2\n        /* \"--CODEGEN--\":45:55   */\n      add\n        /* \"--CODEGEN--\":40:55   */\n      swap1\n      pop\n        /* \"--CODEGEN--\":8:108   */\n      jump(tag_58)\n    tag_59:\n        /* \"--CODEGEN--\":12:26   */\n      pop\n        /* \"ECMath.sol\":11642:11808  function GetPublicKeyFromPrivateKey(uint256 privatekey)\r... */\n      pop\n      pop\n      pop\n      swap1\n      pop\n      add\n      swap2\n      pop\n      pop\n      mload(0x40)\n      dup1\n      swap2\n      sub\n      swap1\n      return\n        /* \"ECMath.sol\":11820:12003  function GetAddressFromPrivateKey(uint256 privatekey)\r... */\n    tag_6:\n      callvalue\n        /* \"--CODEGEN--\":8:17   */\n      dup1\n        /* \"--CODEGEN--\":5:7   */\n      iszero\n      tag_61\n      jumpi\n        /* \"--CODEGEN--\":30:31   */\n      0x0\n        /* \"--CODEGEN--\":27:28   */\n      dup1\n        /* \"--CODEGEN--\":20:32   */\n      revert\n        /* \"--CODEGEN--\":5:7   */\n    tag_61:\n        /* \"ECMath.sol\":11820:12003  function GetAddressFromPrivateKey(uint256 privatekey)\r... */\n      pop\n      tag_62\n      0x4\n      dup1\n      calldatasize\n      sub\n      dup2\n      add\n      swap1\n      dup1\n      dup1\n      calldataload\n      swap1\n      0x20\n      add\n      swap1\n      swap3\n      swap2\n      swap1\n      pop\n      pop\n      pop\n      jump(tag_63)\n    tag_62:\n      mload(0x40)\n      dup1\n      dup3\n      0xffffffffffffffffffffffffffffffffffffffff\n      and\n      0xffffffffffffffffffffffffffffffffffffffff\n      and\n      dup2\n      mstore\n      0x20\n      add\n      swap2\n      pop\n      pop\n      mload(0x40)\n      dup1\n      swap2\n      sub\n      swap1\n      return\n        /* \"ECMath.sol\":3626:3759  function Equals(uint256[2] p1, uint256[2] p2)\r... */\n    tag_7:\n      callvalue\n        /* \"--CODEGEN--\":8:17   */\n      dup1\n        /* \"--CODEGEN--\":5:7   */\n      iszero\n      tag_64\n      jumpi\n        /* \"--CODEGEN--\":30:31   */\n      0x0\n        /* \"--CODEGEN--\":27:28   */\n      dup1\n        /* \"--CODEGEN--\":20:32   */\n      revert\n        /* \"--CODEGEN--\":5:7   */\n    tag_64:\n        /* \"ECMath.sol\":3626:3759  function Equals(uint256[2] p1, uint256[2] p2)\r... */\n      pop\n      tag_65\n      0x4\n      dup1\n      calldatasize\n      sub\n      dup2\n      add\n      swap1\n      dup1\n      dup1\n      0x40\n      add\n      swap1\n      0x2\n      dup1\n      0x20\n      mul\n      mload(0x40)\n      swap1\n      dup2\n      add\n      0x40\n      mstore\n      dup1\n      swap3\n      swap2\n      swap1\n      dup3\n      mul(0x20, 0x2)\n      dup1\n      dup3\n      dup5\n      calldatacopy\n      dup3\n      add\n      swap2\n      pop\n      pop\n      pop\n      pop\n      pop\n      swap2\n      swap3\n      swap2\n      swap3\n      swap1\n      dup1\n      0x40\n      add\n      swap1\n      0x2\n      dup1\n      0x20\n      mul\n      mload(0x40)\n      swap1\n      dup2\n      add\n      0x40\n      mstore\n      dup1\n      swap3\n      swap2\n      swap1\n      dup3\n      mul(0x20, 0x2)\n      dup1\n      dup3\n      dup5\n      calldatacopy\n      dup3\n      add\n      swap2\n      pop\n      pop\n      pop\n      pop\n      pop\n      swap2\n      swap3\n      swap2\n      swap3\n      swap1\n      pop\n      pop\n      pop\n      jump(tag_66)\n    tag_65:\n      mload(0x40)\n      dup1\n      dup3\n      iszero\n      iszero\n      iszero\n      iszero\n      dup2\n      mstore\n      0x20\n      add\n      swap2\n      pop\n      pop\n      mload(0x40)\n      dup1\n      swap2\n      sub\n      swap1\n      return\n        /* \"ECMath.sol\":6920:7318  function VectorAdd(uint256[] X, uint256[] Y)\r... */\n    tag_8:\n      callvalue\n        /* \"--CODEGEN--\":8:17   */\n      dup1\n        /* \"--CODEGEN--\":5:7   */\n      iszero\n      tag_67\n      jumpi\n        /* \"--CODEGEN--\":30:31   */\n      0x0\n        /* \"--CODEGEN--\":27:28   */\n      dup1\n        /* \"--CODEGEN--\":20:32   */\n      revert\n        /* \"--CODEGEN--\":5:7   */\n    tag_67:\n        /* \"ECMath.sol\":6920:7318  function VectorAdd(uint256[] X, uint256[] Y)\r... */\n      pop\n      tag_68\n      0x4\n      dup1\n      calldatasize\n      sub\n      dup2\n      add\n      swap1\n      dup1\n      dup1\n      calldataload\n      swap1\n      0x20\n      add\n      swap1\n      dup3\n      add\n      dup1\n      calldataload\n      swap1\n      0x20\n      add\n      swap1\n      dup1\n      dup1\n      0x20\n      mul\n      0x20\n      add\n      mload(0x40)\n      swap1\n      dup2\n      add\n      0x40\n      mstore\n      dup1\n      swap4\n      swap3\n      swap2\n      swap1\n      dup2\n      dup2\n      mstore\n      0x20\n      add\n      dup4\n      dup4\n      0x20\n      mul\n      dup1\n      dup3\n      dup5\n      calldatacopy\n      dup3\n      add\n      swap2\n      pop\n      pop\n      pop\n      pop\n      pop\n      pop\n      swap2\n      swap3\n      swap2\n      swap3\n      swap1\n      dup1\n      calldataload\n      swap1\n      0x20\n      add\n      swap1\n      dup3\n      add\n      dup1\n      calldataload\n      swap1\n      0x20\n      add\n      swap1\n      dup1\n      dup1\n      0x20\n      mul\n      0x20\n      add\n      mload(0x40)\n      swap1\n      dup2\n      add\n      0x40\n      mstore\n      dup1\n      swap4\n      swap3\n      swap2\n      swap1\n      dup2\n      dup2\n      mstore\n      0x20\n      add\n      dup4\n      dup4\n      0x20\n      mul\n      dup1\n      dup3\n      dup5\n      calldatacopy\n      dup3\n      add\n      swap2\n      pop\n      pop\n      pop\n      pop\n      pop\n      pop\n      swap2\n      swap3\n      swap2\n      swap3\n      swap1\n      pop\n      pop\n      pop\n      jump(tag_69)\n    tag_68:\n      mload(0x40)\n      dup1\n      dup1\n      0x20\n      add\n      dup3\n      dup2\n      sub\n      dup3\n      mstore\n      dup4\n      dup2\n      dup2\n      mload\n      dup2\n      mstore\n      0x20\n      add\n      swap2\n      pop\n      dup1\n      mload\n      swap1\n      0x20\n      add\n      swap1\n      0x20\n      mul\n      dup1\n      dup4\n      dup4\n        /* \"--CODEGEN--\":23:24   */\n      0x0\n        /* \"--CODEGEN--\":8:108   */\n    tag_70:\n        /* \"--CODEGEN--\":33:36   */\n      dup4\n        /* \"--CODEGEN--\":30:31   */\n      dup2\n        /* \"--CODEGEN--\":27:37   */\n      lt\n        /* \"--CODEGEN--\":8:108   */\n      iszero\n      tag_71\n      jumpi\n        /* \"--CODEGEN--\":99:100   */\n      dup1\n        /* \"--CODEGEN--\":94:97   */\n      dup3\n        /* \"--CODEGEN--\":90:101   */\n      add\n        /* \"--CODEGEN--\":84:102   */\n      mload\n        /* \"--CODEGEN--\":80:81   */\n      dup2\n        /* \"--CODEGEN--\":75:78   */\n      dup5\n        /* \"--CODEGEN--\":71:82   */\n      add\n        /* \"--CODEGEN--\":64:103   */\n      mstore\n        /* \"--CODEGEN--\":52:54   */\n      0x20\n        /* \"--CODEGEN--\":49:50   */\n      dup2\n        /* \"--CODEGEN--\":45:55   */\n      add\n        /* \"--CODEGEN--\":40:55   */\n      swap1\n      pop\n        /* \"--CODEGEN--\":8:108   */\n      jump(tag_70)\n    tag_71:\n        /* \"--CODEGEN--\":12:26   */\n      pop\n        /* \"ECMath.sol\":6920:7318  function VectorAdd(uint256[] X, uint256[] Y)\r... */\n      pop\n      pop\n      pop\n      swap1\n      pop\n      add\n      swap3\n      pop\n      pop\n      pop\n      mload(0x40)\n      dup1\n      swap2\n      sub\n      swap1\n      return\n        /* \"ECMath.sol\":11474:11630  function GetAddress(uint256[2] PubKey)\r... */\n    tag_9:\n      callvalue\n        /* \"--CODEGEN--\":8:17   */\n      dup1\n        /* \"--CODEGEN--\":5:7   */\n      iszero\n      tag_73\n      jumpi\n        /* \"--CODEGEN--\":30:31   */\n      0x0\n        /* \"--CODEGEN--\":27:28   */\n      dup1\n        /* \"--CODEGEN--\":20:32   */\n      revert\n        /* \"--CODEGEN--\":5:7   */\n    tag_73:\n        /* \"ECMath.sol\":11474:11630  function GetAddress(uint256[2] PubKey)\r... */\n      pop\n      tag_74\n      0x4\n      dup1\n      calldatasize\n      sub\n      dup2\n      add\n      swap1\n      dup1\n      dup1\n      0x40\n      add\n      swap1\n      0x2\n      dup1\n      0x20\n      mul\n      mload(0x40)\n      swap1\n      dup2\n      add\n      0x40\n      mstore\n      dup1\n      swap3\n      swap2\n      swap1\n      dup3\n      mul(0x20, 0x2)\n      dup1\n      dup3\n      dup5\n      calldatacopy\n      dup3\n      add\n      swap2\n      pop\n      pop\n      pop\n      pop\n      pop\n      swap2\n      swap3\n      swap2\n      swap3\n      swap1\n      pop\n      pop\n      pop\n      jump(tag_75)\n    tag_74:\n      mload(0x40)\n      dup1\n      dup3\n      0xffffffffffffffffffffffffffffffffffffffff\n      and\n      0xffffffffffffffffffffffffffffffffffffffff\n      and\n      dup2\n      mstore\n      0x20\n      add\n      swap2\n      pop\n      pop\n      mload(0x40)\n      dup1\n      swap2\n      sub\n      swap1\n      return\n        /* \"ECMath.sol\":6558:6914  function VectorScale(uint256[] X, uint256 s)\r... */\n    tag_10:\n      callvalue\n        /* \"--CODEGEN--\":8:17   */\n      dup1\n        /* \"--CODEGEN--\":5:7   */\n      iszero\n      tag_76\n      jumpi\n        /* \"--CODEGEN--\":30:31   */\n      0x0\n        /* \"--CODEGEN--\":27:28   */\n      dup1\n        /* \"--CODEGEN--\":20:32   */\n      revert\n        /* \"--CODEGEN--\":5:7   */\n    tag_76:\n        /* \"ECMath.sol\":6558:6914  function VectorScale(uint256[] X, uint256 s)\r... */\n      pop\n      tag_77\n      0x4\n      dup1\n      calldatasize\n      sub\n      dup2\n      add\n      swap1\n      dup1\n      dup1\n      calldataload\n      swap1\n      0x20\n      add\n      swap1\n      dup3\n      add\n      dup1\n      calldataload\n      swap1\n      0x20\n      add\n      swap1\n      dup1\n      dup1\n      0x20\n      mul\n      0x20\n      add\n      mload(0x40)\n      swap1\n      dup2\n      add\n      0x40\n      mstore\n      dup1\n      swap4\n      swap3\n      swap2\n      swap1\n      dup2\n      dup2\n      mstore\n      0x20\n      add\n      dup4\n      dup4\n      0x20\n      mul\n      dup1\n      dup3\n      dup5\n      calldatacopy\n      dup3\n      add\n      swap2\n      pop\n      pop\n      pop\n      pop\n      pop\n      pop\n      swap2\n      swap3\n      swap2\n      swap3\n      swap1\n      dup1\n      calldataload\n      swap1\n      0x20\n      add\n      swap1\n      swap3\n      swap2\n      swap1\n      pop\n      pop\n      pop\n      jump(tag_78)\n    tag_77:\n      mload(0x40)\n      dup1\n      dup1\n      0x20\n      add\n      dup3\n      dup2\n      sub\n      dup3\n      mstore\n      dup4\n      dup2\n      dup2\n      mload\n      dup2\n      mstore\n      0x20\n      add\n      swap2\n      pop\n      dup1\n      mload\n      swap1\n      0x20\n      add\n      swap1\n      0x20\n      mul\n      dup1\n      dup4\n      dup4\n        /* \"--CODEGEN--\":23:24   */\n      0x0\n        /* \"--CODEGEN--\":8:108   */\n    tag_79:\n        /* \"--CODEGEN--\":33:36   */\n      dup4\n        /* \"--CODEGEN--\":30:31   */\n      dup2\n        /* \"--CODEGEN--\":27:37   */\n      lt\n        /* \"--CODEGEN--\":8:108   */\n      iszero\n      tag_80\n      jumpi\n        /* \"--CODEGEN--\":99:100   */\n      dup1\n        /* \"--CODEGEN--\":94:97   */\n      dup3\n        /* \"--CODEGEN--\":90:101   */\n      add\n        /* \"--CODEGEN--\":84:102   */\n      mload\n        /* \"--CODEGEN--\":80:81   */\n      dup2\n        /* \"--CODEGEN--\":75:78   */\n      dup5\n        /* \"--CODEGEN--\":71:82   */\n      add\n        /* \"--CODEGEN--\":64:103   */\n      mstore\n        /* \"--CODEGEN--\":52:54   */\n      0x20\n        /* \"--CODEGEN--\":49:50   */\n      dup2\n        /* \"--CODEGEN--\":45:55   */\n      add\n        /* \"--CODEGEN--\":40:55   */\n      swap1\n      pop\n        /* \"--CODEGEN--\":8:108   */\n      jump(tag_79)\n    tag_80:\n        /* \"--CODEGEN--\":12:26   */\n      pop\n        /* \"ECMath.sol\":6558:6914  function VectorScale(uint256[] X, uint256 s)\r... */\n      pop\n      pop\n      pop\n      swap1\n      pop\n      add\n      swap3\n      pop\n      pop\n      pop\n      mload(0x40)\n      dup1\n      swap2\n      sub\n      swap1\n      return\n        /* \"ECMath.sol\":10585:11446  function ExpandPoint(uint256 Pin)\r... */\n    tag_11:\n      callvalue\n        /* \"--CODEGEN--\":8:17   */\n      dup1\n        /* \"--CODEGEN--\":5:7   */\n      iszero\n      tag_82\n      jumpi\n        /* \"--CODEGEN--\":30:31   */\n      0x0\n        /* \"--CODEGEN--\":27:28   */\n      dup1\n        /* \"--CODEGEN--\":20:32   */\n      revert\n        /* \"--CODEGEN--\":5:7   */\n    tag_82:\n        /* \"ECMath.sol\":10585:11446  function ExpandPoint(uint256 Pin)\r... */\n      pop\n      tag_83\n      0x4\n      dup1\n      calldatasize\n      sub\n      dup2\n      add\n      swap1\n      dup1\n      dup1\n      calldataload\n      swap1\n      0x20\n      add\n      swap1\n      swap3\n      swap2\n      swap1\n      pop\n      pop\n      pop\n      jump(tag_84)\n    tag_83:\n      mload(0x40)\n      dup1\n      dup3\n      mul(0x20, 0x2)\n      dup1\n      dup4\n      dup4\n        /* \"--CODEGEN--\":23:24   */\n      0x0\n        /* \"--CODEGEN--\":8:108   */\n    tag_85:\n        /* \"--CODEGEN--\":33:36   */\n      dup4\n        /* \"--CODEGEN--\":30:31   */\n      dup2\n        /* \"--CODEGEN--\":27:37   */\n      lt\n        /* \"--CODEGEN--\":8:108   */\n      iszero\n      tag_86\n      jumpi\n        /* \"--CODEGEN--\":99:100   */\n      dup1\n        /* \"--CODEGEN--\":94:97   */\n      dup3\n        /* \"--CODEGEN--\":90:101   */\n      add\n        /* \"--CODEGEN--\":84:102   */\n      mload\n        /* \"--CODEGEN--\":80:81   */\n      dup2\n        /* \"--CODEGEN--\":75:78   */\n      dup5\n        /* \"--CODEGEN--\":71:82   */\n      add\n        /* \"--CODEGEN--\":64:103   */\n      mstore\n        /* \"--CODEGEN--\":52:54   */\n      0x20\n        /* \"--CODEGEN--\":49:50   */\n      dup2\n        /* \"--CODEGEN--\":45:55   */\n      add\n        /* \"--CODEGEN--\":40:55   */\n      swap1\n      pop\n        /* \"--CODEGEN--\":8:108   */\n      jump(tag_85)\n    tag_86:\n        /* \"--CODEGEN--\":12:26   */\n      pop\n        /* \"ECMath.sol\":10585:11446  function ExpandPoint(uint256 Pin)\r... */\n      pop\n      pop\n      pop\n      swap1\n      pop\n      add\n      swap2\n      pop\n      pop\n      mload(0x40)\n      dup1\n      swap2\n      sub\n      swap1\n      return\n        /* \"ECMath.sol\":3486:3620  function Negate(uint256[2] p1)\r... */\n    tag_12:\n      callvalue\n        /* \"--CODEGEN--\":8:17   */\n      dup1\n        /* \"--CODEGEN--\":5:7   */\n      iszero\n      tag_88\n      jumpi\n        /* \"--CODEGEN--\":30:31   */\n      0x0\n        /* \"--CODEGEN--\":27:28   */\n      dup1\n        /* \"--CODEGEN--\":20:32   */\n      revert\n        /* \"--CODEGEN--\":5:7   */\n    tag_88:\n        /* \"ECMath.sol\":3486:3620  function Negate(uint256[2] p1)\r... */\n      pop\n      tag_89\n      0x4\n      dup1\n      calldatasize\n      sub\n      dup2\n      add\n      swap1\n      dup1\n      dup1\n      0x40\n      add\n      swap1\n      0x2\n      dup1\n      0x20\n      mul\n      mload(0x40)\n      swap1\n      dup2\n      add\n      0x40\n      mstore\n      dup1\n      swap3\n      swap2\n      swap1\n      dup3\n      mul(0x20, 0x2)\n      dup1\n      dup3\n      dup5\n      calldatacopy\n      dup3\n      add\n      swap2\n      pop\n      pop\n      pop\n      pop\n      pop\n      swap2\n      swap3\n      swap2\n      swap3\n      swap1\n      pop\n      pop\n      pop\n      jump(tag_90)\n    tag_89:\n      mload(0x40)\n      dup1\n      dup3\n      mul(0x20, 0x2)\n      dup1\n      dup4\n      dup4\n        /* \"--CODEGEN--\":23:24   */\n      0x0\n        /* \"--CODEGEN--\":8:108   */\n    tag_91:\n        /* \"--CODEGEN--\":33:36   */\n      dup4\n        /* \"--CODEGEN--\":30:31   */\n      dup2\n        /* \"--CODEGEN--\":27:37   */\n      lt\n        /* \"--CODEGEN--\":8:108   */\n      iszero\n      tag_92\n      jumpi\n        /* \"--CODEGEN--\":99:100   */\n      dup1\n        /* \"--CODEGEN--\":94:97   */\n      dup3\n        /* \"--CODEGEN--\":90:101   */\n      add\n        /* \"--CODEGEN--\":84:102   */\n      mload\n        /* \"--CODEGEN--\":80:81   */\n      dup2\n        /* \"--CODEGEN--\":75:78   */\n      dup5\n        /* \"--CODEGEN--\":71:82   */\n      add\n        /* \"--CODEGEN--\":64:103   */\n      mstore\n        /* \"--CODEGEN--\":52:54   */\n      0x20\n        /* \"--CODEGEN--\":49:50   */\n      dup2\n        /* \"--CODEGEN--\":45:55   */\n      add\n        /* \"--CODEGEN--\":40:55   */\n      swap1\n      pop\n        /* \"--CODEGEN--\":8:108   */\n      jump(tag_91)\n    tag_92:\n        /* \"--CODEGEN--\":12:26   */\n      pop\n        /* \"ECMath.sol\":3486:3620  function Negate(uint256[2] p1)\r... */\n      pop\n      pop\n      pop\n      swap1\n      pop\n      add\n      swap2\n      pop\n      pop\n      mload(0x40)\n      dup1\n      swap2\n      sub\n      swap1\n      return\n        /* \"ECMath.sol\":12251:12596  function HashToPoint(uint256[2] p)\r... */\n    tag_13:\n      callvalue\n        /* \"--CODEGEN--\":8:17   */\n      dup1\n        /* \"--CODEGEN--\":5:7   */\n      iszero\n      tag_94\n      jumpi\n        /* \"--CODEGEN--\":30:31   */\n      0x0\n        /* \"--CODEGEN--\":27:28   */\n      dup1\n        /* \"--CODEGEN--\":20:32   */\n      revert\n        /* \"--CODEGEN--\":5:7   */\n    tag_94:\n        /* \"ECMath.sol\":12251:12596  function HashToPoint(uint256[2] p)\r... */\n      pop\n      tag_95\n      0x4\n      dup1\n      calldatasize\n      sub\n      dup2\n      add\n      swap1\n      dup1\n      dup1\n      0x40\n      add\n      swap1\n      0x2\n      dup1\n      0x20\n      mul\n      mload(0x40)\n      swap1\n      dup2\n      add\n      0x40\n      mstore\n      dup1\n      swap3\n      swap2\n      swap1\n      dup3\n      mul(0x20, 0x2)\n      dup1\n      dup3\n      dup5\n      calldatacopy\n      dup3\n      add\n      swap2\n      pop\n      pop\n      pop\n      pop\n      pop\n      swap2\n      swap3\n      swap2\n      swap3\n      swap1\n      pop\n      pop\n      pop\n      jump(tag_96)\n    tag_95:\n      mload(0x40)\n      dup1\n      dup3\n      mul(0x20, 0x2)\n      dup1\n      dup4\n      dup4\n        /* \"--CODEGEN--\":23:24   */\n      0x0\n        /* \"--CODEGEN--\":8:108   */\n    tag_97:\n        /* \"--CODEGEN--\":33:36   */\n      dup4\n        /* \"--CODEGEN--\":30:31   */\n      dup2\n        /* \"--CODEGEN--\":27:37   */\n      lt\n        /* \"--CODEGEN--\":8:108   */\n      iszero\n      tag_98\n      jumpi\n        /* \"--CODEGEN--\":99:100   */\n      dup1\n        /* \"--CODEGEN--\":94:97   */\n      dup3\n        /* \"--CODEGEN--\":90:101   */\n      add\n        /* \"--CODEGEN--\":84:102   */\n      mload\n        /* \"--CODEGEN--\":80:81   */\n      dup2\n        /* \"--CODEGEN--\":75:78   */\n      dup5\n        /* \"--CODEGEN--\":71:82   */\n      add\n        /* \"--CODEGEN--\":64:103   */\n      mstore\n        /* \"--CODEGEN--\":52:54   */\n      0x20\n        /* \"--CODEGEN--\":49:50   */\n      dup2\n        /* \"--CODEGEN--\":45:55   */\n      add\n        /* \"--CODEGEN--\":40:55   */\n      swap1\n      pop\n        /* \"--CODEGEN--\":8:108   */\n      jump(tag_97)\n    tag_98:\n        /* \"--CODEGEN--\":12:26   */\n      pop\n        /* \"ECMath.sol\":12251:12596  function HashToPoint(uint256[2] p)\r... */\n      pop\n      pop\n      pop\n      swap1\n      pop\n      add\n      swap2\n      pop\n      pop\n      mload(0x40)\n      dup1\n      swap2\n      sub\n      swap1\n      return\n        /* \"ECMath.sol\":5568:5692  function MultiplyH(uint256 s)\r... */\n    tag_14:\n      callvalue\n        /* \"--CODEGEN--\":8:17   */\n      dup1\n        /* \"--CODEGEN--\":5:7   */\n      iszero\n      tag_100\n      jumpi\n        /* \"--CODEGEN--\":30:31   */\n      0x0\n        /* \"--CODEGEN--\":27:28   */\n      dup1\n        /* \"--CODEGEN--\":20:32   */\n      revert\n        /* \"--CODEGEN--\":5:7   */\n    tag_100:\n        /* \"ECMath.sol\":5568:5692  function MultiplyH(uint256 s)\r... */\n      pop\n      tag_101\n      0x4\n      dup1\n      calldatasize\n      sub\n      dup2\n      add\n      swap1\n      dup1\n      dup1\n      calldataload\n      swap1\n      0x20\n      add\n      swap1\n      swap3\n      swap2\n      swap1\n      pop\n      pop\n      pop\n      jump(tag_102)\n    tag_101:\n      mload(0x40)\n      dup1\n      dup3\n      mul(0x20, 0x2)\n      dup1\n      dup4\n      dup4\n        /* \"--CODEGEN--\":23:24   */\n      0x0\n        /* \"--CODEGEN--\":8:108   */\n    tag_103:\n        /* \"--CODEGEN--\":33:36   */\n      dup4\n        /* \"--CODEGEN--\":30:31   */\n      dup2\n        /* \"--CODEGEN--\":27:37   */\n      lt\n        /* \"--CODEGEN--\":8:108   */\n      iszero\n      tag_104\n      jumpi\n        /* \"--CODEGEN--\":99:100   */\n      dup1\n        /* \"--CODEGEN--\":94:97   */\n      dup3\n        /* \"--CODEGEN--\":90:101   */\n      add\n        /* \"--CODEGEN--\":84:102   */\n      mload\n        /* \"--CODEGEN--\":80:81   */\n      dup2\n        /* \"--CODEGEN--\":75:78   */\n      dup5\n        /* \"--CODEGEN--\":71:82   */\n      add\n        /* \"--CODEGEN--\":64:103   */\n      mstore\n        /* \"--CODEGEN--\":52:54   */\n      0x20\n        /* \"--CODEGEN--\":49:50   */\n      dup2\n        /* \"--CODEGEN--\":45:55   */\n      add\n        /* \"--CODEGEN--\":40:55   */\n      swap1\n      pop\n        /* \"--CODEGEN--\":8:108   */\n      jump(tag_103)\n    tag_104:\n        /* \"--CODEGEN--\":12:26   */\n      pop\n        /* \"ECMath.sol\":5568:5692  function MultiplyH(uint256 s)\r... */\n      pop\n      pop\n      pop\n      swap1\n      pop\n      add\n      swap2\n      pop\n      pop\n      mload(0x40)\n      dup1\n      swap2\n      sub\n      swap1\n      return\n        /* \"ECMath.sol\":9397:10576  function EvaluateCurve(uint256 x)\r... */\n    tag_15:\n      callvalue\n        /* \"--CODEGEN--\":8:17   */\n      dup1\n        /* \"--CODEGEN--\":5:7   */\n      iszero\n      tag_106\n      jumpi\n        /* \"--CODEGEN--\":30:31   */\n      0x0\n        /* \"--CODEGEN--\":27:28   */\n      dup1\n        /* \"--CODEGEN--\":20:32   */\n      revert\n        /* \"--CODEGEN--\":5:7   */\n    tag_106:\n        /* \"ECMath.sol\":9397:10576  function EvaluateCurve(uint256 x)\r... */\n      pop\n      tag_107\n      0x4\n      dup1\n      calldatasize\n      sub\n      dup2\n      add\n      swap1\n      dup1\n      dup1\n      calldataload\n      swap1\n      0x20\n      add\n      swap1\n      swap3\n      swap2\n      swap1\n      pop\n      pop\n      pop\n      jump(tag_108)\n    tag_107:\n      mload(0x40)\n      dup1\n      dup4\n      dup2\n      mstore\n      0x20\n      add\n      dup3\n      iszero\n      iszero\n      iszero\n      iszero\n      dup2\n      mstore\n      0x20\n      add\n      swap3\n      pop\n      pop\n      pop\n      mload(0x40)\n      dup1\n      swap2\n      sub\n      swap1\n      return\n        /* \"ECMath.sol\":9155:9388  function CompressPoint(uint256[2] Pin)\r... */\n    tag_16:\n      callvalue\n        /* \"--CODEGEN--\":8:17   */\n      dup1\n        /* \"--CODEGEN--\":5:7   */\n      iszero\n      tag_109\n      jumpi\n        /* \"--CODEGEN--\":30:31   */\n      0x0\n        /* \"--CODEGEN--\":27:28   */\n      dup1\n        /* \"--CODEGEN--\":20:32   */\n      revert\n        /* \"--CODEGEN--\":5:7   */\n    tag_109:\n        /* \"ECMath.sol\":9155:9388  function CompressPoint(uint256[2] Pin)\r... */\n      pop\n      tag_110\n      0x4\n      dup1\n      calldatasize\n      sub\n      dup2\n      add\n      swap1\n      dup1\n      dup1\n      0x40\n      add\n      swap1\n      0x2\n      dup1\n      0x20\n      mul\n      mload(0x40)\n      swap1\n      dup2\n      add\n      0x40\n      mstore\n      dup1\n      swap3\n      swap2\n      swap1\n      dup3\n      mul(0x20, 0x2)\n      dup1\n      dup3\n      dup5\n      calldatacopy\n      dup3\n      add\n      swap2\n      pop\n      pop\n      pop\n      pop\n      pop\n      swap2\n      swap3\n      swap2\n      swap3\n      swap1\n      pop\n      pop\n      pop\n      jump(tag_111)\n    tag_110:\n      mload(0x40)\n      dup1\n      dup3\n      dup2\n      mstore\n      0x20\n      add\n      swap2\n      pop\n      pop\n      mload(0x40)\n      dup1\n      swap2\n      sub\n      swap1\n      return\n        /* \"ECMath.sol\":12042:12188  function HashOfPoint(uint256[2] point)\r... */\n    tag_17:\n      callvalue\n        /* \"--CODEGEN--\":8:17   */\n      dup1\n        /* \"--CODEGEN--\":5:7   */\n      iszero\n      tag_112\n      jumpi\n        /* \"--CODEGEN--\":30:31   */\n      0x0\n        /* \"--CODEGEN--\":27:28   */\n      dup1\n        /* \"--CODEGEN--\":20:32   */\n      revert\n        /* \"--CODEGEN--\":5:7   */\n    tag_112:\n        /* \"ECMath.sol\":12042:12188  function HashOfPoint(uint256[2] point)\r... */\n      pop\n      tag_113\n      0x4\n      dup1\n      calldatasize\n      sub\n      dup2\n      add\n      swap1\n      dup1\n      dup1\n      0x40\n      add\n      swap1\n      0x2\n      dup1\n      0x20\n      mul\n      mload(0x40)\n      swap1\n      dup2\n      add\n      0x40\n      mstore\n      dup1\n      swap3\n      swap2\n      swap1\n      dup3\n      mul(0x20, 0x2)\n      dup1\n      dup3\n      dup5\n      calldatacopy\n      dup3\n      add\n      swap2\n      pop\n      pop\n      pop\n      pop\n      pop\n      swap2\n      swap3\n      swap2\n      swap3\n      swap1\n      pop\n      pop\n      pop\n      jump(tag_114)\n    tag_113:\n      mload(0x40)\n      dup1\n      dup3\n      dup2\n      mstore\n      0x20\n      add\n      swap2\n      pop\n      pop\n      mload(0x40)\n      dup1\n      swap2\n      sub\n      swap1\n      return\n        /* \"ECMath.sol\":4544:4676  function Subtract(uint256[2] p0, uint256[2] p1)\r... */\n    tag_18:\n      callvalue\n        /* \"--CODEGEN--\":8:17   */\n      dup1\n        /* \"--CODEGEN--\":5:7   */\n      iszero\n      tag_115\n      jumpi\n        /* \"--CODEGEN--\":30:31   */\n      0x0\n        /* \"--CODEGEN--\":27:28   */\n      dup1\n        /* \"--CODEGEN--\":20:32   */\n      revert\n        /* \"--CODEGEN--\":5:7   */\n    tag_115:\n        /* \"ECMath.sol\":4544:4676  function Subtract(uint256[2] p0, uint256[2] p1)\r... */\n      pop\n      tag_116\n      0x4\n      dup1\n      calldatasize\n      sub\n      dup2\n      add\n      swap1\n      dup1\n      dup1\n      0x40\n      add\n      swap1\n      0x2\n      dup1\n      0x20\n      mul\n      mload(0x40)\n      swap1\n      dup2\n      add\n      0x40\n      mstore\n      dup1\n      swap3\n      swap2\n      swap1\n      dup3\n      mul(0x20, 0x2)\n      dup1\n      dup3\n      dup5\n      calldatacopy\n      dup3\n      add\n      swap2\n      pop\n      pop\n      pop\n      pop\n      pop\n      swap2\n      swap3\n      swap2\n      swap3\n      swap1\n      dup1\n      0x40\n      add\n      swap1\n      0x2\n      dup1\n      0x20\n      mul\n      mload(0x40)\n      swap1\n      dup2\n      add\n      0x40\n      mstore\n      dup1\n      swap3\n      swap2\n      swap1\n      dup3\n      mul(0x20, 0x2)\n      dup1\n      dup3\n      dup5\n      calldatacopy\n      dup3\n      add\n      swap2\n      pop\n      pop\n      pop\n      pop\n      pop\n      swap2\n      swap3\n      swap2\n      swap3\n      swap1\n      pop\n      pop\n      pop\n      jump(tag_117)\n    tag_116:\n      mload(0x40)\n      dup1\n      dup3\n      mul(0x20, 0x2)\n      dup1\n      dup4\n      dup4\n        /* \"--CODEGEN--\":23:24   */\n      0x0\n        /* \"--CODEGEN--\":8:108   */\n    tag_118:\n        /* \"--CODEGEN--\":33:36   */\n      dup4\n        /* \"--CODEGEN--\":30:31   */\n      dup2\n        /* \"--CODEGEN--\":27:37   */\n      lt\n        /* \"--CODEGEN--\":8:108   */\n      iszero\n      tag_119\n      jumpi\n        /* \"--CODEGEN--\":99:100   */\n      dup1\n        /* \"--CODEGEN--\":94:97   */\n      dup3\n        /* \"--CODEGEN--\":90:101   */\n      add\n        /* \"--CODEGEN--\":84:102   */\n      mload\n        /* \"--CODEGEN--\":80:81   */\n      dup2\n        /* \"--CODEGEN--\":75:78   */\n      dup5\n        /* \"--CODEGEN--\":71:82   */\n      add\n        /* \"--CODEGEN--\":64:103   */\n      mstore\n        /* \"--CODEGEN--\":52:54   */\n      0x20\n        /* \"--CODEGEN--\":49:50   */\n      dup2\n        /* \"--CODEGEN--\":45:55   */\n      add\n        /* \"--CODEGEN--\":40:55   */\n      swap1\n      pop\n        /* \"--CODEGEN--\":8:108   */\n      jump(tag_118)\n    tag_119:\n        /* \"--CODEGEN--\":12:26   */\n      pop\n        /* \"ECMath.sol\":4544:4676  function Subtract(uint256[2] p0, uint256[2] p1)\r... */\n      pop\n      pop\n      pop\n      swap1\n      pop\n      add\n      swap2\n      pop\n      pop\n      mload(0x40)\n      dup1\n      swap2\n      sub\n      swap1\n      return\n        /* \"ECMath.sol\":8878:9097  function CommitAB(uint256[] X, uint256[] Y, uint256[] x, uint256[] y)\r... */\n    tag_19:\n      callvalue\n        /* \"--CODEGEN--\":8:17   */\n      dup1\n        /* \"--CODEGEN--\":5:7   */\n      iszero\n      tag_121\n      jumpi\n        /* \"--CODEGEN--\":30:31   */\n      0x0\n        /* \"--CODEGEN--\":27:28   */\n      dup1\n        /* \"--CODEGEN--\":20:32   */\n      revert\n        /* \"--CODEGEN--\":5:7   */\n    tag_121:\n        /* \"ECMath.sol\":8878:9097  function CommitAB(uint256[] X, uint256[] Y, uint256[] x, uint256[] y)\r... */\n      pop\n      tag_122\n      0x4\n      dup1\n      calldatasize\n      sub\n      dup2\n      add\n      swap1\n      dup1\n      dup1\n      calldataload\n      swap1\n      0x20\n      add\n      swap1\n      dup3\n      add\n      dup1\n      calldataload\n      swap1\n      0x20\n      add\n      swap1\n      dup1\n      dup1\n      0x20\n      mul\n      0x20\n      add\n      mload(0x40)\n      swap1\n      dup2\n      add\n      0x40\n      mstore\n      dup1\n      swap4\n      swap3\n      swap2\n      swap1\n      dup2\n      dup2\n      mstore\n      0x20\n      add\n      dup4\n      dup4\n      0x20\n      mul\n      dup1\n      dup3\n      dup5\n      calldatacopy\n      dup3\n      add\n      swap2\n      pop\n      pop\n      pop\n      pop\n      pop\n      pop\n      swap2\n      swap3\n      swap2\n      swap3\n      swap1\n      dup1\n      calldataload\n      swap1\n      0x20\n      add\n      swap1\n      dup3\n      add\n      dup1\n      calldataload\n      swap1\n      0x20\n      add\n      swap1\n      dup1\n      dup1\n      0x20\n      mul\n      0x20\n      add\n      mload(0x40)\n      swap1\n      dup2\n      add\n      0x40\n      mstore\n      dup1\n      swap4\n      swap3\n      swap2\n      swap1\n      dup2\n      dup2\n      mstore\n      0x20\n      add\n      dup4\n      dup4\n      0x20\n      mul\n      dup1\n      dup3\n      dup5\n      calldatacopy\n      dup3\n      add\n      swap2\n      pop\n      pop\n      pop\n      pop\n      pop\n      pop\n      swap2\n      swap3\n      swap2\n      swap3\n      swap1\n      dup1\n      calldataload\n      swap1\n      0x20\n      add\n      swap1\n      dup3\n      add\n      dup1\n      calldataload\n      swap1\n      0x20\n      add\n      swap1\n      dup1\n      dup1\n      0x20\n      mul\n      0x20\n      add\n      mload(0x40)\n      swap1\n      dup2\n      add\n      0x40\n      mstore\n      dup1\n      swap4\n      swap3\n      swap2\n      swap1\n      dup2\n      dup2\n      mstore\n      0x20\n      add\n      dup4\n      dup4\n      0x20\n      mul\n      dup1\n      dup3\n      dup5\n      calldatacopy\n      dup3\n      add\n      swap2\n      pop\n      pop\n      pop\n      pop\n      pop\n      pop\n      swap2\n      swap3\n      swap2\n      swap3\n      swap1\n      dup1\n      calldataload\n      swap1\n      0x20\n      add\n      swap1\n      dup3\n      add\n      dup1\n      calldataload\n      swap1\n      0x20\n      add\n      swap1\n      dup1\n      dup1\n      0x20\n      mul\n      0x20\n      add\n      mload(0x40)\n      swap1\n      dup2\n      add\n      0x40\n      mstore\n      dup1\n      swap4\n      swap3\n      swap2\n      swap1\n      dup2\n      dup2\n      mstore\n      0x20\n      add\n      dup4\n      dup4\n      0x20\n      mul\n      dup1\n      dup3\n      dup5\n      calldatacopy\n      dup3\n      add\n      swap2\n      pop\n      pop\n      pop\n      pop\n      pop\n      pop\n      swap2\n      swap3\n      swap2\n      swap3\n      swap1\n      pop\n      pop\n      pop\n      jump(tag_123)\n    tag_122:\n      mload(0x40)\n      dup1\n      dup4\n      mul(0x20, 0x2)\n      dup1\n      dup4\n      dup4\n        /* \"--CODEGEN--\":23:24   */\n      0x0\n        /* \"--CODEGEN--\":8:108   */\n    tag_124:\n        /* \"--CODEGEN--\":33:36   */\n      dup4\n        /* \"--CODEGEN--\":30:31   */\n      dup2\n        /* \"--CODEGEN--\":27:37   */\n      lt\n        /* \"--CODEGEN--\":8:108   */\n      iszero\n      tag_125\n      jumpi\n        /* \"--CODEGEN--\":99:100   */\n      dup1\n        /* \"--CODEGEN--\":94:97   */\n      dup3\n        /* \"--CODEGEN--\":90:101   */\n      add\n        /* \"--CODEGEN--\":84:102   */\n      mload\n        /* \"--CODEGEN--\":80:81   */\n      dup2\n        /* \"--CODEGEN--\":75:78   */\n      dup5\n        /* \"--CODEGEN--\":71:82   */\n      add\n        /* \"--CODEGEN--\":64:103   */\n      mstore\n        /* \"--CODEGEN--\":52:54   */\n      0x20\n        /* \"--CODEGEN--\":49:50   */\n      dup2\n        /* \"--CODEGEN--\":45:55   */\n      add\n        /* \"--CODEGEN--\":40:55   */\n      swap1\n      pop\n        /* \"--CODEGEN--\":8:108   */\n      jump(tag_124)\n    tag_125:\n        /* \"--CODEGEN--\":12:26   */\n      pop\n        /* \"ECMath.sol\":8878:9097  function CommitAB(uint256[] X, uint256[] Y, uint256[] x, uint256[] y)\r... */\n      pop\n      pop\n      pop\n      swap1\n      pop\n      add\n      dup3\n      mul(0x20, 0x2)\n      dup1\n      dup4\n      dup4\n        /* \"--CODEGEN--\":23:24   */\n      0x0\n        /* \"--CODEGEN--\":8:108   */\n    tag_127:\n        /* \"--CODEGEN--\":33:36   */\n      dup4\n        /* \"--CODEGEN--\":30:31   */\n      dup2\n        /* \"--CODEGEN--\":27:37   */\n      lt\n        /* \"--CODEGEN--\":8:108   */\n      iszero\n      tag_128\n      jumpi\n        /* \"--CODEGEN--\":99:100   */\n      dup1\n        /* \"--CODEGEN--\":94:97   */\n      dup3\n        /* \"--CODEGEN--\":90:101   */\n      add\n        /* \"--CODEGEN--\":84:102   */\n      mload\n        /* \"--CODEGEN--\":80:81   */\n      dup2\n        /* \"--CODEGEN--\":75:78   */\n      dup5\n        /* \"--CODEGEN--\":71:82   */\n      add\n        /* \"--CODEGEN--\":64:103   */\n      mstore\n        /* \"--CODEGEN--\":52:54   */\n      0x20\n        /* \"--CODEGEN--\":49:50   */\n      dup2\n        /* \"--CODEGEN--\":45:55   */\n      add\n        /* \"--CODEGEN--\":40:55   */\n      swap1\n      pop\n        /* \"--CODEGEN--\":8:108   */\n      jump(tag_127)\n    tag_128:\n        /* \"--CODEGEN--\":12:26   */\n      pop\n        /* \"ECMath.sol\":8878:9097  function CommitAB(uint256[] X, uint256[] Y, uint256[] x, uint256[] y)\r... */\n      pop\n      pop\n      pop\n      swap1\n      pop\n      add\n      swap3\n      pop\n      pop\n      pop\n      mload(0x40)\n      dup1\n      swap2\n      sub\n      swap1\n      return\n        /* \"ECMath.sol\":1255:2067  function GetGiHi(uint256 N)\r... */\n    tag_20:\n      callvalue\n        /* \"--CODEGEN--\":8:17   */\n      dup1\n        /* \"--CODEGEN--\":5:7   */\n      iszero\n      tag_130\n      jumpi\n        /* \"--CODEGEN--\":30:31   */\n      0x0\n        /* \"--CODEGEN--\":27:28   */\n      dup1\n        /* \"--CODEGEN--\":20:32   */\n      revert\n        /* \"--CODEGEN--\":5:7   */\n    tag_130:\n        /* \"ECMath.sol\":1255:2067  function GetGiHi(uint256 N)\r... */\n      pop\n      tag_131\n      0x4\n      dup1\n      calldatasize\n      sub\n      dup2\n      add\n      swap1\n      dup1\n      dup1\n      calldataload\n      swap1\n      0x20\n      add\n      swap1\n      swap3\n      swap2\n      swap1\n      pop\n      pop\n      pop\n      jump(tag_132)\n    tag_131:\n      mload(0x40)\n      dup1\n      dup1\n      0x20\n      add\n      dup1\n      0x20\n      add\n      dup4\n      dup2\n      sub\n      dup4\n      mstore\n      dup6\n      dup2\n      dup2\n      mload\n      dup2\n      mstore\n      0x20\n      add\n      swap2\n      pop\n      dup1\n      mload\n      swap1\n      0x20\n      add\n      swap1\n      0x20\n      mul\n      dup1\n      dup4\n      dup4\n        /* \"--CODEGEN--\":23:24   */\n      0x0\n        /* \"--CODEGEN--\":8:108   */\n    tag_133:\n        /* \"--CODEGEN--\":33:36   */\n      dup4\n        /* \"--CODEGEN--\":30:31   */\n      dup2\n        /* \"--CODEGEN--\":27:37   */\n      lt\n        /* \"--CODEGEN--\":8:108   */\n      iszero\n      tag_134\n      jumpi\n        /* \"--CODEGEN--\":99:100   */\n      dup1\n        /* \"--CODEGEN--\":94:97   */\n      dup3\n        /* \"--CODEGEN--\":90:101   */\n      add\n        /* \"--CODEGEN--\":84:102   */\n      mload\n        /* \"--CODEGEN--\":80:81   */\n      dup2\n        /* \"--CODEGEN--\":75:78   */\n      dup5\n        /* \"--CODEGEN--\":71:82   */\n      add\n        /* \"--CODEGEN--\":64:103   */\n      mstore\n        /* \"--CODEGEN--\":52:54   */\n      0x20\n        /* \"--CODEGEN--\":49:50   */\n      dup2\n        /* \"--CODEGEN--\":45:55   */\n      add\n        /* \"--CODEGEN--\":40:55   */\n      swap1\n      pop\n        /* \"--CODEGEN--\":8:108   */\n      jump(tag_133)\n    tag_134:\n        /* \"--CODEGEN--\":12:26   */\n      pop\n        /* \"ECMath.sol\":1255:2067  function GetGiHi(uint256 N)\r... */\n      pop\n      pop\n      pop\n      swap1\n      pop\n      add\n      dup4\n      dup2\n      sub\n      dup3\n      mstore\n      dup5\n      dup2\n      dup2\n      mload\n      dup2\n      mstore\n      0x20\n      add\n      swap2\n      pop\n      dup1\n      mload\n      swap1\n      0x20\n      add\n      swap1\n      0x20\n      mul\n      dup1\n      dup4\n      dup4\n        /* \"--CODEGEN--\":23:24   */\n      0x0\n        /* \"--CODEGEN--\":8:108   */\n    tag_136:\n        /* \"--CODEGEN--\":33:36   */\n      dup4\n        /* \"--CODEGEN--\":30:31   */\n      dup2\n        /* \"--CODEGEN--\":27:37   */\n      lt\n        /* \"--CODEGEN--\":8:108   */\n      iszero\n      tag_137\n      jumpi\n        /* \"--CODEGEN--\":99:100   */\n      dup1\n        /* \"--CODEGEN--\":94:97   */\n      dup3\n        /* \"--CODEGEN--\":90:101   */\n      add\n        /* \"--CODEGEN--\":84:102   */\n      mload\n        /* \"--CODEGEN--\":80:81   */\n      dup2\n        /* \"--CODEGEN--\":75:78   */\n      dup5\n        /* \"--CODEGEN--\":71:82   */\n      add\n        /* \"--CODEGEN--\":64:103   */\n      mstore\n        /* \"--CODEGEN--\":52:54   */\n      0x20\n        /* \"--CODEGEN--\":49:50   */\n      dup2\n        /* \"--CODEGEN--\":45:55   */\n      add\n        /* \"--CODEGEN--\":40:55   */\n      swap1\n      pop\n        /* \"--CODEGEN--\":8:108   */\n      jump(tag_136)\n    tag_137:\n        /* \"--CODEGEN--\":12:26   */\n      pop\n        /* \"ECMath.sol\":1255:2067  function GetGiHi(uint256 N)\r... */\n      pop\n      pop\n      pop\n      swap1\n      pop\n      add\n      swap5\n      pop\n      pop\n      pop\n      pop\n      pop\n      mload(0x40)\n      dup1\n      swap2\n      sub\n      swap1\n      return\n        /* \"ECMath.sol\":2320:3458  function GenerateBasePointVectors(uint256 N) ownerOnly public {\r... */\n    tag_21:\n      callvalue\n        /* \"--CODEGEN--\":8:17   */\n      dup1\n        /* \"--CODEGEN--\":5:7   */\n      iszero\n      tag_139\n      jumpi\n        /* \"--CODEGEN--\":30:31   */\n      0x0\n        /* \"--CODEGEN--\":27:28   */\n      dup1\n        /* \"--CODEGEN--\":20:32   */\n      revert\n        /* \"--CODEGEN--\":5:7   */\n    tag_139:\n        /* \"ECMath.sol\":2320:3458  function GenerateBasePointVectors(uint256 N) ownerOnly public {\r... */\n      pop\n      tag_140\n      0x4\n      dup1\n      calldatasize\n      sub\n      dup2\n      add\n      swap1\n      dup1\n      dup1\n      calldataload\n      swap1\n      0x20\n      add\n      swap1\n      swap3\n      swap2\n      swap1\n      pop\n      pop\n      pop\n      jump(tag_141)\n    tag_140:\n      stop\n        /* \"Debuggable.sol\":73:93  address public owner */\n    tag_22:\n      callvalue\n        /* \"--CODEGEN--\":8:17   */\n      dup1\n        /* \"--CODEGEN--\":5:7   */\n      iszero\n      tag_142\n      jumpi\n        /* \"--CODEGEN--\":30:31   */\n      0x0\n        /* \"--CODEGEN--\":27:28   */\n      dup1\n        /* \"--CODEGEN--\":20:32   */\n      revert\n        /* \"--CODEGEN--\":5:7   */\n    tag_142:\n        /* \"Debuggable.sol\":73:93  address public owner */\n      pop\n      tag_143\n      jump(tag_144)\n    tag_143:\n      mload(0x40)\n      dup1\n      dup3\n      0xffffffffffffffffffffffffffffffffffffffff\n      and\n      0xffffffffffffffffffffffffffffffffffffffff\n      and\n      dup2\n      mstore\n      0x20\n      add\n      swap2\n      pop\n      pop\n      mload(0x40)\n      dup1\n      swap2\n      sub\n      swap1\n      return\n        /* \"ECMath.sol\":5740:5918  function AddMultiply(uint256[2] p_add, uint256[2] p_mul, uint256 s)\r... */\n    tag_23:\n      callvalue\n        /* \"--CODEGEN--\":8:17   */\n      dup1\n        /* \"--CODEGEN--\":5:7   */\n      iszero\n      tag_145\n      jumpi\n        /* \"--CODEGEN--\":30:31   */\n      0x0\n        /* \"--CODEGEN--\":27:28   */\n      dup1\n        /* \"--CODEGEN--\":20:32   */\n      revert\n        /* \"--CODEGEN--\":5:7   */\n    tag_145:\n        /* \"ECMath.sol\":5740:5918  function AddMultiply(uint256[2] p_add, uint256[2] p_mul, uint256 s)\r... */\n      pop\n      tag_146\n      0x4\n      dup1\n      calldatasize\n      sub\n      dup2\n      add\n      swap1\n      dup1\n      dup1\n      0x40\n      add\n      swap1\n      0x2\n      dup1\n      0x20\n      mul\n      mload(0x40)\n      swap1\n      dup2\n      add\n      0x40\n      mstore\n      dup1\n      swap3\n      swap2\n      swap1\n      dup3\n      mul(0x20, 0x2)\n      dup1\n      dup3\n      dup5\n      calldatacopy\n      dup3\n      add\n      swap2\n      pop\n      pop\n      pop\n      pop\n      pop\n      swap2\n      swap3\n      swap2\n      swap3\n      swap1\n      dup1\n      0x40\n      add\n      swap1\n      0x2\n      dup1\n      0x20\n      mul\n      mload(0x40)\n      swap1\n      dup2\n      add\n      0x40\n      mstore\n      dup1\n      swap3\n      swap2\n      swap1\n      dup3\n      mul(0x20, 0x2)\n      dup1\n      dup3\n      dup5\n      calldatacopy\n      dup3\n      add\n      swap2\n      pop\n      pop\n      pop\n      pop\n      pop\n      swap2\n      swap3\n      swap2\n      swap3\n      swap1\n      dup1\n      calldataload\n      swap1\n      0x20\n      add\n      swap1\n      swap3\n      swap2\n      swap1\n      pop\n      pop\n      pop\n      jump(tag_147)\n    tag_146:\n      mload(0x40)\n      dup1\n      dup3\n      mul(0x20, 0x2)\n      dup1\n      dup4\n      dup4\n        /* \"--CODEGEN--\":23:24   */\n      0x0\n        /* \"--CODEGEN--\":8:108   */\n    tag_148:\n        /* \"--CODEGEN--\":33:36   */\n      dup4\n        /* \"--CODEGEN--\":30:31   */\n      dup2\n        /* \"--CODEGEN--\":27:37   */\n      lt\n        /* \"--CODEGEN--\":8:108   */\n      iszero\n      tag_149\n      jumpi\n        /* \"--CODEGEN--\":99:100   */\n      dup1\n        /* \"--CODEGEN--\":94:97   */\n      dup3\n        /* \"--CODEGEN--\":90:101   */\n      add\n        /* \"--CODEGEN--\":84:102   */\n      mload\n        /* \"--CODEGEN--\":80:81   */\n      dup2\n        /* \"--CODEGEN--\":75:78   */\n      dup5\n        /* \"--CODEGEN--\":71:82   */\n      add\n        /* \"--CODEGEN--\":64:103   */\n      mstore\n        /* \"--CODEGEN--\":52:54   */\n      0x20\n        /* \"--CODEGEN--\":49:50   */\n      dup2\n        /* \"--CODEGEN--\":45:55   */\n      add\n        /* \"--CODEGEN--\":40:55   */\n      swap1\n      pop\n        /* \"--CODEGEN--\":8:108   */\n      jump(tag_148)\n    tag_149:\n        /* \"--CODEGEN--\":12:26   */\n      pop\n        /* \"ECMath.sol\":5740:5918  function AddMultiply(uint256[2] p_add, uint256[2] p_mul, uint256 s)\r... */\n      pop\n      pop\n      pop\n      swap1\n      pop\n      add\n      swap2\n      pop\n      pop\n      mload(0x40)\n      dup1\n      swap2\n      sub\n      swap1\n      return\n        /* \"ECMath.sol\":2073:2163  function GetGiHiLength() public view returns (uint256) {\r... */\n    tag_24:\n      callvalue\n        /* \"--CODEGEN--\":8:17   */\n      dup1\n        /* \"--CODEGEN--\":5:7   */\n      iszero\n      tag_151\n      jumpi\n        /* \"--CODEGEN--\":30:31   */\n      0x0\n        /* \"--CODEGEN--\":27:28   */\n      dup1\n        /* \"--CODEGEN--\":20:32   */\n      revert\n        /* \"--CODEGEN--\":5:7   */\n    tag_151:\n        /* \"ECMath.sol\":2073:2163  function GetGiHiLength() public view returns (uint256) {\r... */\n      pop\n      tag_152\n      jump(tag_153)\n    tag_152:\n      mload(0x40)\n      dup1\n      dup3\n      dup2\n      mstore\n      0x20\n      add\n      swap2\n      pop\n      pop\n      mload(0x40)\n      dup1\n      swap2\n      sub\n      swap1\n      return\n        /* \"ECMath.sol\":8538:8738  function AddMultiExp(uint256[2] Pin, uint256[] P, uint256[] s, uint256 start, uint256 end)\r... */\n    tag_25:\n      callvalue\n        /* \"--CODEGEN--\":8:17   */\n      dup1\n        /* \"--CODEGEN--\":5:7   */\n      iszero\n      tag_154\n      jumpi\n        /* \"--CODEGEN--\":30:31   */\n      0x0\n        /* \"--CODEGEN--\":27:28   */\n      dup1\n        /* \"--CODEGEN--\":20:32   */\n      revert\n        /* \"--CODEGEN--\":5:7   */\n    tag_154:\n        /* \"ECMath.sol\":8538:8738  function AddMultiExp(uint256[2] Pin, uint256[] P, uint256[] s, uint256 start, uint256 end)\r... */\n      pop\n      tag_155\n      0x4\n      dup1\n      calldatasize\n      sub\n      dup2\n      add\n      swap1\n      dup1\n      dup1\n      0x40\n      add\n      swap1\n      0x2\n      dup1\n      0x20\n      mul\n      mload(0x40)\n      swap1\n      dup2\n      add\n      0x40\n      mstore\n      dup1\n      swap3\n      swap2\n      swap1\n      dup3\n      mul(0x20, 0x2)\n      dup1\n      dup3\n      dup5\n      calldatacopy\n      dup3\n      add\n      swap2\n      pop\n      pop\n      pop\n      pop\n      pop\n      swap2\n      swap3\n      swap2\n      swap3\n      swap1\n      dup1\n      calldataload\n      swap1\n      0x20\n      add\n      swap1\n      dup3\n      add\n      dup1\n      calldataload\n      swap1\n      0x20\n      add\n      swap1\n      dup1\n      dup1\n      0x20\n      mul\n      0x20\n      add\n      mload(0x40)\n      swap1\n      dup2\n      add\n      0x40\n      mstore\n      dup1\n      swap4\n      swap3\n      swap2\n      swap1\n      dup2\n      dup2\n      mstore\n      0x20\n      add\n      dup4\n      dup4\n      0x20\n      mul\n      dup1\n      dup3\n      dup5\n      calldatacopy\n      dup3\n      add\n      swap2\n      pop\n      pop\n      pop\n      pop\n      pop\n      pop\n      swap2\n      swap3\n      swap2\n      swap3\n      swap1\n      dup1\n      calldataload\n      swap1\n      0x20\n      add\n      swap1\n      dup3\n      add\n      dup1\n      calldataload\n      swap1\n      0x20\n      add\n      swap1\n      dup1\n      dup1\n      0x20\n      mul\n      0x20\n      add\n      mload(0x40)\n      swap1\n      dup2\n      add\n      0x40\n      mstore\n      dup1\n      swap4\n      swap3\n      swap2\n      swap1\n      dup2\n      dup2\n      mstore\n      0x20\n      add\n      dup4\n      dup4\n      0x20\n      mul\n      dup1\n      dup3\n      dup5\n      calldatacopy\n      dup3\n      add\n      swap2\n      pop\n      pop\n      pop\n      pop\n      pop\n      pop\n      swap2\n      swap3\n      swap2\n      swap3\n      swap1\n      dup1\n      calldataload\n      swap1\n      0x20\n      add\n      swap1\n      swap3\n      swap2\n      swap1\n      dup1\n      calldataload\n      swap1\n      0x20\n      add\n      swap1\n      swap3\n      swap2\n      swap1\n      pop\n      pop\n      pop\n      jump(tag_156)\n    tag_155:\n      mload(0x40)\n      dup1\n      dup3\n      mul(0x20, 0x2)\n      dup1\n      dup4\n      dup4\n        /* \"--CODEGEN--\":23:24   */\n      0x0\n        /* \"--CODEGEN--\":8:108   */\n    tag_157:\n        /* \"--CODEGEN--\":33:36   */\n      dup4\n        /* \"--CODEGEN--\":30:31   */\n      dup2\n        /* \"--CODEGEN--\":27:37   */\n      lt\n        /* \"--CODEGEN--\":8:108   */\n      iszero\n      tag_158\n      jumpi\n        /* \"--CODEGEN--\":99:100   */\n      dup1\n        /* \"--CODEGEN--\":94:97   */\n      dup3\n        /* \"--CODEGEN--\":90:101   */\n      add\n        /* \"--CODEGEN--\":84:102   */\n      mload\n        /* \"--CODEGEN--\":80:81   */\n      dup2\n        /* \"--CODEGEN--\":75:78   */\n      dup5\n        /* \"--CODEGEN--\":71:82   */\n      add\n        /* \"--CODEGEN--\":64:103   */\n      mstore\n        /* \"--CODEGEN--\":52:54   */\n      0x20\n        /* \"--CODEGEN--\":49:50   */\n      dup2\n        /* \"--CODEGEN--\":45:55   */\n      add\n        /* \"--CODEGEN--\":40:55   */\n      swap1\n      pop\n        /* \"--CODEGEN--\":8:108   */\n      jump(tag_157)\n    tag_158:\n        /* \"--CODEGEN--\":12:26   */\n      pop\n        /* \"ECMath.sol\":8538:8738  function AddMultiExp(uint256[2] Pin, uint256[] P, uint256[] s, uint256 start, uint256 end)\r... */\n      pop\n      pop\n      pop\n      swap1\n      pop\n      add\n      swap2\n      pop\n      pop\n      mload(0x40)\n      dup1\n      swap2\n      sub\n      swap1\n      return\n        /* \"ECMath.sol\":902:966  function GetG1() public view returns (uint256[2]) { return G1; } */\n    tag_26:\n      callvalue\n        /* \"--CODEGEN--\":8:17   */\n      dup1\n        /* \"--CODEGEN--\":5:7   */\n      iszero\n      tag_160\n      jumpi\n        /* \"--CODEGEN--\":30:31   */\n      0x0\n        /* \"--CODEGEN--\":27:28   */\n      dup1\n        /* \"--CODEGEN--\":20:32   */\n      revert\n        /* \"--CODEGEN--\":5:7   */\n    tag_160:\n        /* \"ECMath.sol\":902:966  function GetG1() public view returns (uint256[2]) { return G1; } */\n      pop\n      tag_161\n      jump(tag_162)\n    tag_161:\n      mload(0x40)\n      dup1\n      dup3\n      mul(0x20, 0x2)\n      dup1\n      dup4\n      dup4\n        /* \"--CODEGEN--\":23:24   */\n      0x0\n        /* \"--CODEGEN--\":8:108   */\n    tag_163:\n        /* \"--CODEGEN--\":33:36   */\n      dup4\n        /* \"--CODEGEN--\":30:31   */\n      dup2\n        /* \"--CODEGEN--\":27:37   */\n      lt\n        /* \"--CODEGEN--\":8:108   */\n      iszero\n      tag_164\n      jumpi\n        /* \"--CODEGEN--\":99:100   */\n      dup1\n        /* \"--CODEGEN--\":94:97   */\n      dup3\n        /* \"--CODEGEN--\":90:101   */\n      add\n        /* \"--CODEGEN--\":84:102   */\n      mload\n        /* \"--CODEGEN--\":80:81   */\n      dup2\n        /* \"--CODEGEN--\":75:78   */\n      dup5\n        /* \"--CODEGEN--\":71:82   */\n      add\n        /* \"--CODEGEN--\":64:103   */\n      mstore\n        /* \"--CODEGEN--\":52:54   */\n      0x20\n        /* \"--CODEGEN--\":49:50   */\n      dup2\n        /* \"--CODEGEN--\":45:55   */\n      add\n        /* \"--CODEGEN--\":40:55   */\n      swap1\n      pop\n        /* \"--CODEGEN--\":8:108   */\n      jump(tag_163)\n    tag_164:\n        /* \"--CODEGEN--\":12:26   */\n      pop\n        /* \"ECMath.sol\":902:966  function GetG1() public view returns (uint256[2]) { return G1; } */\n      pop\n      pop\n      pop\n      swap1\n      pop\n      add\n      swap2\n      pop\n      pop\n      mload(0x40)\n      dup1\n      swap2\n      sub\n      swap1\n      return\n        /* \"ECMath.sol\":5967:6124  function AddMultiplyG1(uint256[2] p_add, uint256 s)\r... */\n    tag_27:\n      callvalue\n        /* \"--CODEGEN--\":8:17   */\n      dup1\n        /* \"--CODEGEN--\":5:7   */\n      iszero\n      tag_166\n      jumpi\n        /* \"--CODEGEN--\":30:31   */\n      0x0\n        /* \"--CODEGEN--\":27:28   */\n      dup1\n        /* \"--CODEGEN--\":20:32   */\n      revert\n        /* \"--CODEGEN--\":5:7   */\n    tag_166:\n        /* \"ECMath.sol\":5967:6124  function AddMultiplyG1(uint256[2] p_add, uint256 s)\r... */\n      pop\n      tag_167\n      0x4\n      dup1\n      calldatasize\n      sub\n      dup2\n      add\n      swap1\n      dup1\n      dup1\n      0x40\n      add\n      swap1\n      0x2\n      dup1\n      0x20\n      mul\n      mload(0x40)\n      swap1\n      dup2\n      add\n      0x40\n      mstore\n      dup1\n      swap3\n      swap2\n      swap1\n      dup3\n      mul(0x20, 0x2)\n      dup1\n      dup3\n      dup5\n      calldatacopy\n      dup3\n      add\n      swap2\n      pop\n      pop\n      pop\n      pop\n      pop\n      swap2\n      swap3\n      swap2\n      swap3\n      swap1\n      dup1\n      calldataload\n      swap1\n      0x20\n      add\n      swap1\n      swap3\n      swap2\n      swap1\n      pop\n      pop\n      pop\n      jump(tag_168)\n    tag_167:\n      mload(0x40)\n      dup1\n      dup3\n      mul(0x20, 0x2)\n      dup1\n      dup4\n      dup4\n        /* \"--CODEGEN--\":23:24   */\n      0x0\n        /* \"--CODEGEN--\":8:108   */\n    tag_169:\n        /* \"--CODEGEN--\":33:36   */\n      dup4\n        /* \"--CODEGEN--\":30:31   */\n      dup2\n        /* \"--CODEGEN--\":27:37   */\n      lt\n        /* \"--CODEGEN--\":8:108   */\n      iszero\n      tag_170\n      jumpi\n        /* \"--CODEGEN--\":99:100   */\n      dup1\n        /* \"--CODEGEN--\":94:97   */\n      dup3\n        /* \"--CODEGEN--\":90:101   */\n      add\n        /* \"--CODEGEN--\":84:102   */\n      mload\n        /* \"--CODEGEN--\":80:81   */\n      dup2\n        /* \"--CODEGEN--\":75:78   */\n      dup5\n        /* \"--CODEGEN--\":71:82   */\n      add\n        /* \"--CODEGEN--\":64:103   */\n      mstore\n        /* \"--CODEGEN--\":52:54   */\n      0x20\n        /* \"--CODEGEN--\":49:50   */\n      dup2\n        /* \"--CODEGEN--\":45:55   */\n      add\n        /* \"--CODEGEN--\":40:55   */\n      swap1\n      pop\n        /* \"--CODEGEN--\":8:108   */\n      jump(tag_169)\n    tag_170:\n        /* \"--CODEGEN--\":12:26   */\n      pop\n        /* \"ECMath.sol\":5967:6124  function AddMultiplyG1(uint256[2] p_add, uint256 s)\r... */\n      pop\n      pop\n      pop\n      swap1\n      pop\n      add\n      swap2\n      pop\n      pop\n      mload(0x40)\n      dup1\n      swap2\n      sub\n      swap1\n      return\n        /* \"ECMath.sol\":1034:1105  function GetInfinity() public view returns (uint256[2]) { return Inf; } */\n    tag_28:\n      callvalue\n        /* \"--CODEGEN--\":8:17   */\n      dup1\n        /* \"--CODEGEN--\":5:7   */\n      iszero\n      tag_172\n      jumpi\n        /* \"--CODEGEN--\":30:31   */\n      0x0\n        /* \"--CODEGEN--\":27:28   */\n      dup1\n        /* \"--CODEGEN--\":20:32   */\n      revert\n        /* \"--CODEGEN--\":5:7   */\n    tag_172:\n        /* \"ECMath.sol\":1034:1105  function GetInfinity() public view returns (uint256[2]) { return Inf; } */\n      pop\n      tag_173\n      jump(tag_174)\n    tag_173:\n      mload(0x40)\n      dup1\n      dup3\n      mul(0x20, 0x2)\n      dup1\n      dup4\n      dup4\n        /* \"--CODEGEN--\":23:24   */\n      0x0\n        /* \"--CODEGEN--\":8:108   */\n    tag_175:\n        /* \"--CODEGEN--\":33:36   */\n      dup4\n        /* \"--CODEGEN--\":30:31   */\n      dup2\n        /* \"--CODEGEN--\":27:37   */\n      lt\n        /* \"--CODEGEN--\":8:108   */\n      iszero\n      tag_176\n      jumpi\n        /* \"--CODEGEN--\":99:100   */\n      dup1\n        /* \"--CODEGEN--\":94:97   */\n      dup3\n        /* \"--CODEGEN--\":90:101   */\n      add\n        /* \"--CODEGEN--\":84:102   */\n      mload\n        /* \"--CODEGEN--\":80:81   */\n      dup2\n        /* \"--CODEGEN--\":75:78   */\n      dup5\n        /* \"--CODEGEN--\":71:82   */\n      add\n        /* \"--CODEGEN--\":64:103   */\n      mstore\n        /* \"--CODEGEN--\":52:54   */\n      0x20\n        /* \"--CODEGEN--\":49:50   */\n      dup2\n        /* \"--CODEGEN--\":45:55   */\n      add\n        /* \"--CODEGEN--\":40:55   */\n      swap1\n      pop\n        /* \"--CODEGEN--\":8:108   */\n      jump(tag_175)\n    tag_176:\n        /* \"--CODEGEN--\":12:26   */\n      pop\n        /* \"ECMath.sol\":1034:1105  function GetInfinity() public view returns (uint256[2]) { return Inf; } */\n      pop\n      pop\n      pop\n      swap1\n      pop\n      add\n      swap2\n      pop\n      pop\n      mload(0x40)\n      dup1\n      swap2\n      sub\n      swap1\n      return\n        /* \"ECMath.sol\":7785:8480  function MultiExp(uint256[] P, uint256[] s, uint256 start, uint256 end)\r... */\n    tag_29:\n      callvalue\n        /* \"--CODEGEN--\":8:17   */\n      dup1\n        /* \"--CODEGEN--\":5:7   */\n      iszero\n      tag_178\n      jumpi\n        /* \"--CODEGEN--\":30:31   */\n      0x0\n        /* \"--CODEGEN--\":27:28   */\n      dup1\n        /* \"--CODEGEN--\":20:32   */\n      revert\n        /* \"--CODEGEN--\":5:7   */\n    tag_178:\n        /* \"ECMath.sol\":7785:8480  function MultiExp(uint256[] P, uint256[] s, uint256 start, uint256 end)\r... */\n      pop\n      tag_179\n      0x4\n      dup1\n      calldatasize\n      sub\n      dup2\n      add\n      swap1\n      dup1\n      dup1\n      calldataload\n      swap1\n      0x20\n      add\n      swap1\n      dup3\n      add\n      dup1\n      calldataload\n      swap1\n      0x20\n      add\n      swap1\n      dup1\n      dup1\n      0x20\n      mul\n      0x20\n      add\n      mload(0x40)\n      swap1\n      dup2\n      add\n      0x40\n      mstore\n      dup1\n      swap4\n      swap3\n      swap2\n      swap1\n      dup2\n      dup2\n      mstore\n      0x20\n      add\n      dup4\n      dup4\n      0x20\n      mul\n      dup1\n      dup3\n      dup5\n      calldatacopy\n      dup3\n      add\n      swap2\n      pop\n      pop\n      pop\n      pop\n      pop\n      pop\n      swap2\n      swap3\n      swap2\n      swap3\n      swap1\n      dup1\n      calldataload\n      swap1\n      0x20\n      add\n      swap1\n      dup3\n      add\n      dup1\n      calldataload\n      swap1\n      0x20\n      add\n      swap1\n      dup1\n      dup1\n      0x20\n      mul\n      0x20\n      add\n      mload(0x40)\n      swap1\n      dup2\n      add\n      0x40\n      mstore\n      dup1\n      swap4\n      swap3\n      swap2\n      swap1\n      dup2\n      dup2\n      mstore\n      0x20\n      add\n      dup4\n      dup4\n      0x20\n      mul\n      dup1\n      dup3\n      dup5\n      calldatacopy\n      dup3\n      add\n      swap2\n      pop\n      pop\n      pop\n      pop\n      pop\n      pop\n      swap2\n      swap3\n      swap2\n      swap3\n      swap1\n      dup1\n      calldataload\n      swap1\n      0x20\n      add\n      swap1\n      swap3\n      swap2\n      swap1\n      dup1\n      calldataload\n      swap1\n      0x20\n      add\n      swap1\n      swap3\n      swap2\n      swap1\n      pop\n      pop\n      pop\n      jump(tag_180)\n    tag_179:\n      mload(0x40)\n      dup1\n      dup3\n      mul(0x20, 0x2)\n      dup1\n      dup4\n      dup4\n        /* \"--CODEGEN--\":23:24   */\n      0x0\n        /* \"--CODEGEN--\":8:108   */\n    tag_181:\n        /* \"--CODEGEN--\":33:36   */\n      dup4\n        /* \"--CODEGEN--\":30:31   */\n      dup2\n        /* \"--CODEGEN--\":27:37   */\n      lt\n        /* \"--CODEGEN--\":8:108   */\n      iszero\n      tag_182\n      jumpi\n        /* \"--CODEGEN--\":99:100   */\n      dup1\n        /* \"--CODEGEN--\":94:97   */\n      dup3\n        /* \"--CODEGEN--\":90:101   */\n      add\n        /* \"--CODEGEN--\":84:102   */\n      mload\n        /* \"--CODEGEN--\":80:81   */\n      dup2\n        /* \"--CODEGEN--\":75:78   */\n      dup5\n        /* \"--CODEGEN--\":71:82   */\n      add\n        /* \"--CODEGEN--\":64:103   */\n      mstore\n        /* \"--CODEGEN--\":52:54   */\n      0x20\n        /* \"--CODEGEN--\":49:50   */\n      dup2\n        /* \"--CODEGEN--\":45:55   */\n      add\n        /* \"--CODEGEN--\":40:55   */\n      swap1\n      pop\n        /* \"--CODEGEN--\":8:108   */\n      jump(tag_181)\n    tag_182:\n        /* \"--CODEGEN--\":12:26   */\n      pop\n        /* \"ECMath.sol\":7785:8480  function MultiExp(uint256[] P, uint256[] s, uint256 start, uint256 end)\r... */\n      pop\n      pop\n      pop\n      swap1\n      pop\n      add\n      swap2\n      pop\n      pop\n      mload(0x40)\n      dup1\n      swap2\n      sub\n      swap1\n      return\n        /* \"ECMath.sol\":1180:1249  function GetPCurve() public pure returns (uint256) { return PCurve; } */\n    tag_30:\n      callvalue\n        /* \"--CODEGEN--\":8:17   */\n      dup1\n        /* \"--CODEGEN--\":5:7   */\n      iszero\n      tag_184\n      jumpi\n        /* \"--CODEGEN--\":30:31   */\n      0x0\n        /* \"--CODEGEN--\":27:28   */\n      dup1\n        /* \"--CODEGEN--\":20:32   */\n      revert\n        /* \"--CODEGEN--\":5:7   */\n    tag_184:\n        /* \"ECMath.sol\":1180:1249  function GetPCurve() public pure returns (uint256) { return PCurve; } */\n      pop\n      tag_185\n      jump(tag_186)\n    tag_185:\n      mload(0x40)\n      dup1\n      dup3\n      dup2\n      mstore\n      0x20\n      add\n      swap2\n      pop\n      pop\n      mload(0x40)\n      dup1\n      swap2\n      sub\n      swap1\n      return\n        /* \"Debuggable.sol\":288:358  function Kill() public ownerOnly {\r... */\n    tag_31:\n      callvalue\n        /* \"--CODEGEN--\":8:17   */\n      dup1\n        /* \"--CODEGEN--\":5:7   */\n      iszero\n      tag_187\n      jumpi\n        /* \"--CODEGEN--\":30:31   */\n      0x0\n        /* \"--CODEGEN--\":27:28   */\n      dup1\n        /* \"--CODEGEN--\":20:32   */\n      revert\n        /* \"--CODEGEN--\":5:7   */\n    tag_187:\n        /* \"Debuggable.sol\":288:358  function Kill() public ownerOnly {\r... */\n      pop\n      tag_188\n      jump(tag_189)\n    tag_188:\n      stop\n        /* \"ECMath.sol\":4682:5392  function Multiply(uint256[2] p0, uint256 s)\r... */\n    tag_32:\n      callvalue\n        /* \"--CODEGEN--\":8:17   */\n      dup1\n        /* \"--CODEGEN--\":5:7   */\n      iszero\n      tag_190\n      jumpi\n        /* \"--CODEGEN--\":30:31   */\n      0x0\n        /* \"--CODEGEN--\":27:28   */\n      dup1\n        /* \"--CODEGEN--\":20:32   */\n      revert\n        /* \"--CODEGEN--\":5:7   */\n    tag_190:\n        /* \"ECMath.sol\":4682:5392  function Multiply(uint256[2] p0, uint256 s)\r... */\n      pop\n      tag_191\n      0x4\n      dup1\n      calldatasize\n      sub\n      dup2\n      add\n      swap1\n      dup1\n      dup1\n      0x40\n      add\n      swap1\n      0x2\n      dup1\n      0x20\n      mul\n      mload(0x40)\n      swap1\n      dup2\n      add\n      0x40\n      mstore\n      dup1\n      swap3\n      swap2\n      swap1\n      dup3\n      mul(0x20, 0x2)\n      dup1\n      dup3\n      dup5\n      calldatacopy\n      dup3\n      add\n      swap2\n      pop\n      pop\n      pop\n      pop\n      pop\n      swap2\n      swap3\n      swap2\n      swap3\n      swap1\n      dup1\n      calldataload\n      swap1\n      0x20\n      add\n      swap1\n      swap3\n      swap2\n      swap1\n      pop\n      pop\n      pop\n      jump(tag_192)\n    tag_191:\n      mload(0x40)\n      dup1\n      dup3\n      mul(0x20, 0x2)\n      dup1\n      dup4\n      dup4\n        /* \"--CODEGEN--\":23:24   */\n      0x0\n        /* \"--CODEGEN--\":8:108   */\n    tag_193:\n        /* \"--CODEGEN--\":33:36   */\n      dup4\n        /* \"--CODEGEN--\":30:31   */\n      dup2\n        /* \"--CODEGEN--\":27:37   */\n      lt\n        /* \"--CODEGEN--\":8:108   */\n      iszero\n      tag_194\n      jumpi\n        /* \"--CODEGEN--\":99:100   */\n      dup1\n        /* \"--CODEGEN--\":94:97   */\n      dup3\n        /* \"--CODEGEN--\":90:101   */\n      add\n        /* \"--CODEGEN--\":84:102   */\n      mload\n        /* \"--CODEGEN--\":80:81   */\n      dup2\n        /* \"--CODEGEN--\":75:78   */\n      dup5\n        /* \"--CODEGEN--\":71:82   */\n      add\n        /* \"--CODEGEN--\":64:103   */\n      mstore\n        /* \"--CODEGEN--\":52:54   */\n      0x20\n        /* \"--CODEGEN--\":49:50   */\n      dup2\n        /* \"--CODEGEN--\":45:55   */\n      add\n        /* \"--CODEGEN--\":40:55   */\n      swap1\n      pop\n        /* \"--CODEGEN--\":8:108   */\n      jump(tag_193)\n    tag_194:\n        /* \"--CODEGEN--\":12:26   */\n      pop\n        /* \"ECMath.sol\":4682:5392  function Multiply(uint256[2] p0, uint256 s)\r... */\n      pop\n      pop\n      pop\n      swap1\n      pop\n      add\n      swap2\n      pop\n      pop\n      mload(0x40)\n      dup1\n      swap2\n      sub\n      swap1\n      return\n        /* \"ECMath.sol\":969:1031  function GetH() public view returns (uint256[2]) { return H; } */\n    tag_33:\n      callvalue\n        /* \"--CODEGEN--\":8:17   */\n      dup1\n        /* \"--CODEGEN--\":5:7   */\n      iszero\n      tag_196\n      jumpi\n        /* \"--CODEGEN--\":30:31   */\n      0x0\n        /* \"--CODEGEN--\":27:28   */\n      dup1\n        /* \"--CODEGEN--\":20:32   */\n      revert\n        /* \"--CODEGEN--\":5:7   */\n    tag_196:\n        /* \"ECMath.sol\":969:1031  function GetH() public view returns (uint256[2]) { return H; } */\n      pop\n      tag_197\n      jump(tag_198)\n    tag_197:\n      mload(0x40)\n      dup1\n      dup3\n      mul(0x20, 0x2)\n      dup1\n      dup4\n      dup4\n        /* \"--CODEGEN--\":23:24   */\n      0x0\n        /* \"--CODEGEN--\":8:108   */\n    tag_199:\n        /* \"--CODEGEN--\":33:36   */\n      dup4\n        /* \"--CODEGEN--\":30:31   */\n      dup2\n        /* \"--CODEGEN--\":27:37   */\n      lt\n        /* \"--CODEGEN--\":8:108   */\n      iszero\n      tag_200\n      jumpi\n        /* \"--CODEGEN--\":99:100   */\n      dup1\n        /* \"--CODEGEN--\":94:97   */\n      dup3\n        /* \"--CODEGEN--\":90:101   */\n      add\n        /* \"--CODEGEN--\":84:102   */\n      mload\n        /* \"--CODEGEN--\":80:81   */\n      dup2\n        /* \"--CODEGEN--\":75:78   */\n      dup5\n        /* \"--CODEGEN--\":71:82   */\n      add\n        /* \"--CODEGEN--\":64:103   */\n      mstore\n        /* \"--CODEGEN--\":52:54   */\n      0x20\n        /* \"--CODEGEN--\":49:50   */\n      dup2\n        /* \"--CODEGEN--\":45:55   */\n      add\n        /* \"--CODEGEN--\":40:55   */\n      swap1\n      pop\n        /* \"--CODEGEN--\":8:108   */\n      jump(tag_199)\n    tag_200:\n        /* \"--CODEGEN--\":12:26   */\n      pop\n        /* \"ECMath.sol\":969:1031  function GetH() public view returns (uint256[2]) { return H; } */\n      pop\n      pop\n      pop\n      swap1\n      pop\n      add\n      swap2\n      pop\n      pop\n      mload(0x40)\n      dup1\n      swap2\n      sub\n      swap1\n      return\n        /* \"ECMath.sol\":7324:7736  function VectorMul(uint256[] X, uint256[] s)\r... */\n    tag_34:\n      callvalue\n        /* \"--CODEGEN--\":8:17   */\n      dup1\n        /* \"--CODEGEN--\":5:7   */\n      iszero\n      tag_202\n      jumpi\n        /* \"--CODEGEN--\":30:31   */\n      0x0\n        /* \"--CODEGEN--\":27:28   */\n      dup1\n        /* \"--CODEGEN--\":20:32   */\n      revert\n        /* \"--CODEGEN--\":5:7   */\n    tag_202:\n        /* \"ECMath.sol\":7324:7736  function VectorMul(uint256[] X, uint256[] s)\r... */\n      pop\n      tag_203\n      0x4\n      dup1\n      calldatasize\n      sub\n      dup2\n      add\n      swap1\n      dup1\n      dup1\n      calldataload\n      swap1\n      0x20\n      add\n      swap1\n      dup3\n      add\n      dup1\n      calldataload\n      swap1\n      0x20\n      add\n      swap1\n      dup1\n      dup1\n      0x20\n      mul\n      0x20\n      add\n      mload(0x40)\n      swap1\n      dup2\n      add\n      0x40\n      mstore\n      dup1\n      swap4\n      swap3\n      swap2\n      swap1\n      dup2\n      dup2\n      mstore\n      0x20\n      add\n      dup4\n      dup4\n      0x20\n      mul\n      dup1\n      dup3\n      dup5\n      calldatacopy\n      dup3\n      add\n      swap2\n      pop\n      pop\n      pop\n      pop\n      pop\n      pop\n      swap2\n      swap3\n      swap2\n      swap3\n      swap1\n      dup1\n      calldataload\n      swap1\n      0x20\n      add\n      swap1\n      dup3\n      add\n      dup1\n      calldataload\n      swap1\n      0x20\n      add\n      swap1\n      dup1\n      dup1\n      0x20\n      mul\n      0x20\n      add\n      mload(0x40)\n      swap1\n      dup2\n      add\n      0x40\n      mstore\n      dup1\n      swap4\n      swap3\n      swap2\n      swap1\n      dup2\n      dup2\n      mstore\n      0x20\n      add\n      dup4\n      dup4\n      0x20\n      mul\n      dup1\n      dup3\n      dup5\n      calldatacopy\n      dup3\n      add\n      swap2\n      pop\n      pop\n      pop\n      pop\n      pop\n      pop\n      swap2\n      swap3\n      swap2\n      swap3\n      swap1\n      pop\n      pop\n      pop\n      jump(tag_204)\n    tag_203:\n      mload(0x40)\n      dup1\n      dup1\n      0x20\n      add\n      dup3\n      dup2\n      sub\n      dup3\n      mstore\n      dup4\n      dup2\n      dup2\n      mload\n      dup2\n      mstore\n      0x20\n      add\n      swap2\n      pop\n      dup1\n      mload\n      swap1\n      0x20\n      add\n      swap1\n      0x20\n      mul\n      dup1\n      dup4\n      dup4\n        /* \"--CODEGEN--\":23:24   */\n      0x0\n        /* \"--CODEGEN--\":8:108   */\n    tag_205:\n        /* \"--CODEGEN--\":33:36   */\n      dup4\n        /* \"--CODEGEN--\":30:31   */\n      dup2\n        /* \"--CODEGEN--\":27:37   */\n      lt\n        /* \"--CODEGEN--\":8:108   */\n      iszero\n      tag_206\n      jumpi\n        /* \"--CODEGEN--\":99:100   */\n      dup1\n        /* \"--CODEGEN--\":94:97   */\n      dup3\n        /* \"--CODEGEN--\":90:101   */\n      add\n        /* \"--CODEGEN--\":84:102   */\n      mload\n        /* \"--CODEGEN--\":80:81   */\n      dup2\n        /* \"--CODEGEN--\":75:78   */\n      dup5\n        /* \"--CODEGEN--\":71:82   */\n      add\n        /* \"--CODEGEN--\":64:103   */\n      mstore\n        /* \"--CODEGEN--\":52:54   */\n      0x20\n        /* \"--CODEGEN--\":49:50   */\n      dup2\n        /* \"--CODEGEN--\":45:55   */\n      add\n        /* \"--CODEGEN--\":40:55   */\n      swap1\n      pop\n        /* \"--CODEGEN--\":8:108   */\n      jump(tag_205)\n    tag_206:\n        /* \"--CODEGEN--\":12:26   */\n      pop\n        /* \"ECMath.sol\":7324:7736  function VectorMul(uint256[] X, uint256[] s)\r... */\n      pop\n      pop\n      pop\n      swap1\n      pop\n      add\n      swap3\n      pop\n      pop\n      pop\n      mload(0x40)\n      dup1\n      swap2\n      sub\n      swap1\n      return\n        /* \"ECMath.sol\":1108:1177  function GetNCurve() public pure returns (uint256) { return NCurve; } */\n    tag_35:\n      callvalue\n        /* \"--CODEGEN--\":8:17   */\n      dup1\n        /* \"--CODEGEN--\":5:7   */\n      iszero\n      tag_208\n      jumpi\n        /* \"--CODEGEN--\":30:31   */\n      0x0\n        /* \"--CODEGEN--\":27:28   */\n      dup1\n        /* \"--CODEGEN--\":20:32   */\n      revert\n        /* \"--CODEGEN--\":5:7   */\n    tag_208:\n        /* \"ECMath.sol\":1108:1177  function GetNCurve() public pure returns (uint256) { return NCurve; } */\n      pop\n      tag_209\n      jump(tag_210)\n    tag_209:\n      mload(0x40)\n      dup1\n      dup3\n      dup2\n      mstore\n      0x20\n      add\n      swap2\n      pop\n      pop\n      mload(0x40)\n      dup1\n      swap2\n      sub\n      swap1\n      return\n        /* \"ECMath.sol\":6368:6531  function CommitG1H(uint256 s_G1, uint256 s_H)\r... */\n    tag_36:\n      callvalue\n        /* \"--CODEGEN--\":8:17   */\n      dup1\n        /* \"--CODEGEN--\":5:7   */\n      iszero\n      tag_211\n      jumpi\n        /* \"--CODEGEN--\":30:31   */\n      0x0\n        /* \"--CODEGEN--\":27:28   */\n      dup1\n        /* \"--CODEGEN--\":20:32   */\n      revert\n        /* \"--CODEGEN--\":5:7   */\n    tag_211:\n        /* \"ECMath.sol\":6368:6531  function CommitG1H(uint256 s_G1, uint256 s_H)\r... */\n      pop\n      tag_212\n      0x4\n      dup1\n      calldatasize\n      sub\n      dup2\n      add\n      swap1\n      dup1\n      dup1\n      calldataload\n      swap1\n      0x20\n      add\n      swap1\n      swap3\n      swap2\n      swap1\n      dup1\n      calldataload\n      swap1\n      0x20\n      add\n      swap1\n      swap3\n      swap2\n      swap1\n      pop\n      pop\n      pop\n      jump(tag_213)\n    tag_212:\n      mload(0x40)\n      dup1\n      dup3\n      mul(0x20, 0x2)\n      dup1\n      dup4\n      dup4\n        /* \"--CODEGEN--\":23:24   */\n      0x0\n        /* \"--CODEGEN--\":8:108   */\n    tag_214:\n        /* \"--CODEGEN--\":33:36   */\n      dup4\n        /* \"--CODEGEN--\":30:31   */\n      dup2\n        /* \"--CODEGEN--\":27:37   */\n      lt\n        /* \"--CODEGEN--\":8:108   */\n      iszero\n      tag_215\n      jumpi\n        /* \"--CODEGEN--\":99:100   */\n      dup1\n        /* \"--CODEGEN--\":94:97   */\n      dup3\n        /* \"--CODEGEN--\":90:101   */\n      add\n        /* \"--CODEGEN--\":84:102   */\n      mload\n        /* \"--CODEGEN--\":80:81   */\n      dup2\n        /* \"--CODEGEN--\":75:78   */\n      dup5\n        /* \"--CODEGEN--\":71:82   */\n      add\n        /* \"--CODEGEN--\":64:103   */\n      mstore\n        /* \"--CODEGEN--\":52:54   */\n      0x20\n        /* \"--CODEGEN--\":49:50   */\n      dup2\n        /* \"--CODEGEN--\":45:55   */\n      add\n        /* \"--CODEGEN--\":40:55   */\n      swap1\n      pop\n        /* \"--CODEGEN--\":8:108   */\n      jump(tag_214)\n    tag_215:\n        /* \"--CODEGEN--\":12:26   */\n      pop\n        /* \"ECMath.sol\":6368:6531  function CommitG1H(uint256 s_G1, uint256 s_H)\r... */\n      pop\n      pop\n      pop\n      swap1\n      pop\n      add\n      swap2\n      pop\n      pop\n      mload(0x40)\n      dup1\n      swap2\n      sub\n      swap1\n      return\n        /* \"ECMath.sol\":6168:6323  function AddMultiplyH(uint256[2] p_add, uint256 s)\r... */\n    tag_39:\n        /* \"ECMath.sol\":6253:6266  uint256[2] p0 */\n      tag_217\n      jump\t// in(tag_218)\n    tag_217:\n        /* \"ECMath.sol\":6291:6315  AddMultiply(p_add, H, s) */\n      tag_220\n        /* \"ECMath.sol\":6303:6308  p_add */\n      dup4\n        /* \"ECMath.sol\":6310:6311  H */\n      0x3\n        /* \"ECMath.sol\":6291:6315  AddMultiply(p_add, H, s) */\n      0x2\n      dup1\n      0x20\n      mul\n      mload(0x40)\n      swap1\n      dup2\n      add\n      0x40\n      mstore\n      dup1\n      swap3\n      swap2\n      swap1\n      dup3\n      0x2\n      dup1\n      iszero\n      tag_221\n      jumpi\n      0x20\n      mul\n      dup3\n      add\n      swap2\n    tag_222:\n      dup2\n      sload\n      dup2\n      mstore\n      0x20\n      add\n      swap1\n      0x1\n      add\n      swap1\n      dup1\n      dup4\n      gt\n      tag_222\n      jumpi\n    tag_221:\n      pop\n      pop\n      pop\n      pop\n      pop\n        /* \"ECMath.sol\":6313:6314  s */\n      dup5\n        /* \"ECMath.sol\":6291:6302  AddMultiply */\n      tag_147\n        /* \"ECMath.sol\":6291:6315  AddMultiply(p_add, H, s) */\n      jump\t// in\n    tag_220:\n        /* \"ECMath.sol\":6284:6315  return AddMultiply(p_add, H, s) */\n      swap1\n      pop\n        /* \"ECMath.sol\":6168:6323  function AddMultiplyH(uint256[2] p_add, uint256 s)\r... */\n      swap3\n      swap2\n      pop\n      pop\n      jump\t// out\n        /* \"ECMath.sol\":5430:5556  function MultiplyG1(uint256 s)\r... */\n    tag_45:\n        /* \"ECMath.sol\":5495:5508  uint256[2] p0 */\n      tag_223\n      jump\t// in(tag_218)\n    tag_223:\n        /* \"ECMath.sol\":5533:5548  Multiply(G1, s) */\n      tag_225\n        /* \"ECMath.sol\":5542:5544  G1 */\n      0x1\n        /* \"ECMath.sol\":5533:5548  Multiply(G1, s) */\n      0x2\n      dup1\n      0x20\n      mul\n      mload(0x40)\n      swap1\n      dup2\n      add\n      0x40\n      mstore\n      dup1\n      swap3\n      swap2\n      swap1\n      dup3\n      0x2\n      dup1\n      iszero\n      tag_226\n      jumpi\n      0x20\n      mul\n      dup3\n      add\n      swap2\n    tag_227:\n      dup2\n      sload\n      dup2\n      mstore\n      0x20\n      add\n      swap1\n      0x1\n      add\n      swap1\n      dup1\n      dup4\n      gt\n      tag_227\n      jumpi\n    tag_226:\n      pop\n      pop\n      pop\n      pop\n      pop\n        /* \"ECMath.sol\":5546:5547  s */\n      dup4\n        /* \"ECMath.sol\":5533:5541  Multiply */\n      tag_192\n        /* \"ECMath.sol\":5533:5548  Multiply(G1, s) */\n      jump\t// in\n    tag_225:\n        /* \"ECMath.sol\":5526:5548  return Multiply(G1, s) */\n      swap1\n      pop\n        /* \"ECMath.sol\":5430:5556  function MultiplyG1(uint256 s)\r... */\n      swap2\n      swap1\n      pop\n      jump\t// out\n        /* \"ECMath.sol\":3765:4535  function Add(uint256[2] p0, uint256[2] p1)\r... */\n    tag_51:\n        /* \"ECMath.sol\":3839:3852  uint256[2] p2 */\n      tag_228\n      jump\t// in(tag_218)\n    tag_228:\n        /* \"ECMath.sol\":3936:3940  0x40 */\n      0x40\n        /* \"ECMath.sol\":3930:3941  mload(0x40) */\n      mload\n        /* \"ECMath.sol\":4017:4019  p0 */\n      dup4\n        /* \"ECMath.sol\":4011:4020  mload(p0) */\n      mload\n        /* \"ECMath.sol\":4008:4009  p */\n      dup2\n        /* \"ECMath.sol\":4001:4021  mstore(p, mload(p0)) */\n      mstore\n        /* \"ECMath.sol\":4067:4071  0x20 */\n      0x20\n        /* \"ECMath.sol\":4063:4065  p0 */\n      dup5\n        /* \"ECMath.sol\":4059:4072  add(p0, 0x20) */\n      add\n        /* \"ECMath.sol\":4053:4073  mload(add(p0, 0x20)) */\n      mload\n        /* \"ECMath.sol\":4046:4050  0x20 */\n      0x20\n        /* \"ECMath.sol\":4043:4044  p */\n      dup3\n        /* \"ECMath.sol\":4039:4051  add(p, 0x20) */\n      add\n        /* \"ECMath.sol\":4032:4074  mstore(add(p, 0x20), mload(add(p0, 0x20))) */\n      mstore\n        /* \"ECMath.sol\":4112:4114  p1 */\n      dup3\n        /* \"ECMath.sol\":4106:4115  mload(p1) */\n      mload\n        /* \"ECMath.sol\":4099:4103  0x40 */\n      0x40\n        /* \"ECMath.sol\":4096:4097  p */\n      dup3\n        /* \"ECMath.sol\":4092:4104  add(p, 0x40) */\n      add\n        /* \"ECMath.sol\":4085:4116  mstore(add(p, 0x40), mload(p1)) */\n      mstore\n        /* \"ECMath.sol\":4162:4166  0x20 */\n      0x20\n        /* \"ECMath.sol\":4158:4160  p1 */\n      dup4\n        /* \"ECMath.sol\":4154:4167  add(p1, 0x20) */\n      add\n        /* \"ECMath.sol\":4148:4168  mload(add(p1, 0x20)) */\n      mload\n        /* \"ECMath.sol\":4141:4145  0x60 */\n      0x60\n        /* \"ECMath.sol\":4138:4139  p */\n      dup3\n        /* \"ECMath.sol\":4134:4146  add(p, 0x60) */\n      add\n        /* \"ECMath.sol\":4127:4169  mstore(add(p, 0x60), mload(add(p1, 0x20))) */\n      mstore\n        /* \"ECMath.sol\":4271:4275  0x40 */\n      0x40\n        /* \"ECMath.sol\":4268:4269  p */\n      dup2\n        /* \"ECMath.sol\":4262:4266  0x80 */\n      0x80\n        /* \"ECMath.sol\":4259:4260  p */\n      dup4\n        /* \"ECMath.sol\":4256:4257  0 */\n      0x0\n        /* \"ECMath.sol\":4250:4254  0x06 */\n      0x6\n        /* \"ECMath.sol\":4243:4247  2000 */\n      0x7d0\n        /* \"ECMath.sol\":4238:4241  gas */\n      gas\n        /* \"ECMath.sol\":4234:4248  sub(gas, 2000) */\n      sub\n        /* \"ECMath.sol\":4229:4276  call(sub(gas, 2000), 0x06, 0, p, 0x80, p, 0x40) */\n      call\n        /* \"ECMath.sol\":4361:4368  success */\n      dup1\n        /* \"ECMath.sol\":4374:4375  0 */\n      0x0\n        /* \"ECMath.sol\":4369:4395  case 0 { revert(p, 0x80) } */\n      dup2\n      eq\n      tag_231\n      jumpi\n        /* \"ECMath.sol\":4354:4395  switch success case 0 { revert(p, 0x80) } */\n      jump(tag_230)\n        /* \"ECMath.sol\":4369:4395  case 0 { revert(p, 0x80) } */\n    tag_231:\n        /* \"ECMath.sol\":4388:4392  0x80 */\n      0x80\n        /* \"ECMath.sol\":4385:4386  p */\n      dup4\n        /* \"ECMath.sol\":4378:4393  revert(p, 0x80) */\n      revert\n        /* \"ECMath.sol\":4354:4395  switch success case 0 { revert(p, 0x80) } */\n    tag_230:\n      pop\n        /* \"ECMath.sol\":4467:4468  p */\n      dup2\n        /* \"ECMath.sol\":4461:4469  mload(p) */\n      mload\n        /* \"ECMath.sol\":4457:4459  p2 */\n      dup4\n        /* \"ECMath.sol\":4450:4470  mstore(p2, mload(p)) */\n      mstore\n        /* \"ECMath.sol\":4516:4520  0x20 */\n      0x20\n        /* \"ECMath.sol\":4514:4515  p */\n      dup3\n        /* \"ECMath.sol\":4510:4521  add(p,0x20) */\n      add\n        /* \"ECMath.sol\":4504:4522  mload(add(p,0x20)) */\n      mload\n        /* \"ECMath.sol\":4497:4501  0x20 */\n      0x20\n        /* \"ECMath.sol\":4493:4495  p2 */\n      dup5\n        /* \"ECMath.sol\":4489:4502  add(p2, 0x20) */\n      add\n        /* \"ECMath.sol\":4482:4523  mstore(add(p2, 0x20), mload(add(p,0x20))) */\n      mstore\n        /* \"ECMath.sol\":3873:4531  {\r... */\n      pop\n      pop\n      swap3\n      swap2\n      pop\n      pop\n      jump\t// out\n        /* \"ECMath.sol\":11642:11808  function GetPublicKeyFromPrivateKey(uint256 privatekey)\r... */\n    tag_57:\n        /* \"ECMath.sol\":11732:11749  uint256[2] PubKey */\n      tag_232\n      jump\t// in(tag_218)\n    tag_232:\n        /* \"ECMath.sol\":11776:11800  Multiply(G1, privatekey) */\n      tag_234\n        /* \"ECMath.sol\":11785:11787  G1 */\n      0x1\n        /* \"ECMath.sol\":11776:11800  Multiply(G1, privatekey) */\n      0x2\n      dup1\n      0x20\n      mul\n      mload(0x40)\n      swap1\n      dup2\n      add\n      0x40\n      mstore\n      dup1\n      swap3\n      swap2\n      swap1\n      dup3\n      0x2\n      dup1\n      iszero\n      tag_235\n      jumpi\n      0x20\n      mul\n      dup3\n      add\n      swap2\n    tag_236:\n      dup2\n      sload\n      dup2\n      mstore\n      0x20\n      add\n      swap1\n      0x1\n      add\n      swap1\n      dup1\n      dup4\n      gt\n      tag_236\n      jumpi\n    tag_235:\n      pop\n      pop\n      pop\n      pop\n      pop\n        /* \"ECMath.sol\":11789:11799  privatekey */\n      dup4\n        /* \"ECMath.sol\":11776:11784  Multiply */\n      tag_192\n        /* \"ECMath.sol\":11776:11800  Multiply(G1, privatekey) */\n      jump\t// in\n    tag_234:\n        /* \"ECMath.sol\":11767:11800  PubKey = Multiply(G1, privatekey) */\n      swap1\n      pop\n        /* \"ECMath.sol\":11642:11808  function GetPublicKeyFromPrivateKey(uint256 privatekey)\r... */\n      swap2\n      swap1\n      pop\n      jump\t// out\n        /* \"ECMath.sol\":11820:12003  function GetAddressFromPrivateKey(uint256 privatekey)\r... */\n    tag_63:\n        /* \"ECMath.sol\":11908:11920  address addr */\n      0x0\n        /* \"ECMath.sol\":11945:11995  GetAddress(GetPublicKeyFromPrivateKey(privatekey)) */\n      tag_238\n        /* \"ECMath.sol\":11956:11994  GetPublicKeyFromPrivateKey(privatekey) */\n      tag_239\n        /* \"ECMath.sol\":11983:11993  privatekey */\n      dup4\n        /* \"ECMath.sol\":11956:11982  GetPublicKeyFromPrivateKey */\n      tag_57\n        /* \"ECMath.sol\":11956:11994  GetPublicKeyFromPrivateKey(privatekey) */\n      jump\t// in\n    tag_239:\n        /* \"ECMath.sol\":11945:11955  GetAddress */\n      tag_75\n        /* \"ECMath.sol\":11945:11995  GetAddress(GetPublicKeyFromPrivateKey(privatekey)) */\n      jump\t// in\n    tag_238:\n        /* \"ECMath.sol\":11938:11995  addr = GetAddress(GetPublicKeyFromPrivateKey(privatekey)) */\n      swap1\n      pop\n        /* \"ECMath.sol\":11820:12003  function GetAddressFromPrivateKey(uint256 privatekey)\r... */\n      swap2\n      swap1\n      pop\n      jump\t// out\n        /* \"ECMath.sol\":3626:3759  function Equals(uint256[2] p1, uint256[2] p2)\r... */\n    tag_66:\n        /* \"ECMath.sol\":3696:3700  bool */\n      0x0\n        /* \"ECMath.sol\":3727:3729  p2 */\n      dup2\n        /* \"ECMath.sol\":3730:3731  0 */\n      0x0\n        /* \"ECMath.sol\":3727:3732  p2[0] */\n      0x2\n      dup2\n      lt\n      iszero\n      iszero\n      tag_241\n      jumpi\n      invalid\n    tag_241:\n      0x20\n      mul\n      add\n      mload\n        /* \"ECMath.sol\":3718:3720  p1 */\n      dup4\n        /* \"ECMath.sol\":3721:3722  0 */\n      0x0\n        /* \"ECMath.sol\":3718:3723  p1[0] */\n      0x2\n      dup2\n      lt\n      iszero\n      iszero\n      tag_242\n      jumpi\n      invalid\n    tag_242:\n      0x20\n      mul\n      add\n      mload\n        /* \"ECMath.sol\":3718:3732  p1[0] == p2[0] */\n      eq\n        /* \"ECMath.sol\":3717:3753  (p1[0] == p2[0]) && (p1[1] == p2[1]) */\n      dup1\n      iszero\n      tag_243\n      jumpi\n      pop\n        /* \"ECMath.sol\":3747:3749  p2 */\n      dup2\n        /* \"ECMath.sol\":3750:3751  1 */\n      0x1\n        /* \"ECMath.sol\":3747:3752  p2[1] */\n      0x2\n      dup2\n      lt\n      iszero\n      iszero\n      tag_244\n      jumpi\n      invalid\n    tag_244:\n      0x20\n      mul\n      add\n      mload\n        /* \"ECMath.sol\":3738:3740  p1 */\n      dup4\n        /* \"ECMath.sol\":3741:3742  1 */\n      0x1\n        /* \"ECMath.sol\":3738:3743  p1[1] */\n      0x2\n      dup2\n      lt\n      iszero\n      iszero\n      tag_245\n      jumpi\n      invalid\n    tag_245:\n      0x20\n      mul\n      add\n      mload\n        /* \"ECMath.sol\":3738:3752  p1[1] == p2[1] */\n      eq\n        /* \"ECMath.sol\":3717:3753  (p1[0] == p2[0]) && (p1[1] == p2[1]) */\n    tag_243:\n        /* \"ECMath.sol\":3709:3754  return ((p1[0] == p2[0]) && (p1[1] == p2[1])) */\n      swap1\n      pop\n        /* \"ECMath.sol\":3626:3759  function Equals(uint256[2] p1, uint256[2] p2)\r... */\n      swap3\n      swap2\n      pop\n      pop\n      jump\t// out\n        /* \"ECMath.sol\":6920:7318  function VectorAdd(uint256[] X, uint256[] Y)\r... */\n    tag_69:\n        /* \"ECMath.sol\":6993:7004  uint256[] Z */\n      0x60\n        /* \"ECMath.sol\":7144:7153  uint256 i */\n      0x0\n        /* \"ECMath.sol\":7158:7180  uint256[2] memory temp */\n      tag_246\n      jump\t// in(tag_218)\n    tag_246:\n        /* \"ECMath.sol\":7032:7033  1 */\n      0x1\n        /* \"ECMath.sol\":7021:7022  X */\n      dup6\n        /* \"ECMath.sol\":7021:7029  X.length */\n      mload\n        /* \"ECMath.sol\":7021:7033  X.length > 1 */\n      gt\n        /* \"ECMath.sol\":7013:7034  require(X.length > 1) */\n      iszero\n      iszero\n      tag_248\n      jumpi\n      0x0\n      dup1\n      revert\n    tag_248:\n        /* \"ECMath.sol\":7063:7064  0 */\n      0x0\n        /* \"ECMath.sol\":7058:7059  2 */\n      0x2\n        /* \"ECMath.sol\":7047:7048  X */\n      dup7\n        /* \"ECMath.sol\":7047:7055  X.length */\n      mload\n        /* \"ECMath.sol\":7047:7059  X.length % 2 */\n      dup2\n      iszero\n      iszero\n      tag_249\n      jumpi\n      invalid\n    tag_249:\n      mod\n        /* \"ECMath.sol\":7047:7064  X.length % 2 == 0 */\n      eq\n        /* \"ECMath.sol\":7039:7065  require(X.length % 2 == 0) */\n      iszero\n      iszero\n      tag_250\n      jumpi\n      0x0\n      dup1\n      revert\n    tag_250:\n        /* \"ECMath.sol\":7090:7091  X */\n      dup5\n        /* \"ECMath.sol\":7090:7098  X.length */\n      mload\n        /* \"ECMath.sol\":7078:7079  Y */\n      dup5\n        /* \"ECMath.sol\":7078:7086  Y.length */\n      mload\n        /* \"ECMath.sol\":7078:7098  Y.length == X.length */\n      eq\n        /* \"ECMath.sol\":7070:7099  require(Y.length == X.length) */\n      iszero\n      iszero\n      tag_251\n      jumpi\n      0x0\n      dup1\n      revert\n    tag_251:\n        /* \"ECMath.sol\":7126:7127  X */\n      dup5\n        /* \"ECMath.sol\":7126:7134  X.length */\n      mload\n        /* \"ECMath.sol\":7112:7135  new uint256[](X.length) */\n      mload(0x40)\n      swap1\n      dup1\n      dup3\n      mstore\n      dup1\n      0x20\n      mul\n      0x20\n      add\n      dup3\n      add\n      0x40\n      mstore\n      dup1\n      iszero\n      tag_252\n      jumpi\n      dup2\n      0x20\n      add\n        /* \"--CODEGEN--\":29:31   */\n      0x20\n        /* \"--CODEGEN--\":21:27   */\n      dup3\n        /* \"--CODEGEN--\":17:32   */\n      mul\n        /* \"--CODEGEN--\":117:121   */\n      dup1\n        /* \"--CODEGEN--\":105:115   */\n      codesize\n        /* \"--CODEGEN--\":97:103   */\n      dup4\n        /* \"--CODEGEN--\":88:122   */\n      codecopy\n        /* \"--CODEGEN--\":148:152   */\n      dup1\n        /* \"--CODEGEN--\":140:146   */\n      dup3\n        /* \"--CODEGEN--\":136:153   */\n      add\n        /* \"--CODEGEN--\":126:153   */\n      swap2\n      pop\n        /* \"--CODEGEN--\":0:157   */\n      pop\n        /* \"ECMath.sol\":7112:7135  new uint256[](X.length) */\n      swap1\n      pop\n    tag_252:\n      pop\n        /* \"ECMath.sol\":7108:7135  Z = new uint256[](X.length) */\n      swap3\n      pop\n        /* \"ECMath.sol\":7194:7195  0 */\n      0x0\n        /* \"ECMath.sol\":7190:7195  i = 0 */\n      swap2\n      pop\n        /* \"ECMath.sol\":7185:7314  for (i = 0; i < X.length; i += 2) {\r... */\n    tag_253:\n        /* \"ECMath.sol\":7201:7202  X */\n      dup5\n        /* \"ECMath.sol\":7201:7209  X.length */\n      mload\n        /* \"ECMath.sol\":7197:7198  i */\n      dup3\n        /* \"ECMath.sol\":7197:7209  i < X.length */\n      lt\n        /* \"ECMath.sol\":7185:7314  for (i = 0; i < X.length; i += 2) {\r... */\n      iszero\n      tag_254\n      jumpi\n        /* \"ECMath.sol\":7232:7267  Add([X[i], X[i+1]], [Y[i], Y[i+1]]) */\n      tag_256\n      0x40\n      dup1\n      mload\n      swap1\n      dup2\n      add\n      0x40\n      mstore\n      dup1\n        /* \"ECMath.sol\":7237:7238  X */\n      dup8\n        /* \"ECMath.sol\":7239:7240  i */\n      dup6\n        /* \"ECMath.sol\":7237:7241  X[i] */\n      dup2\n      mload\n      dup2\n      lt\n      iszero\n      iszero\n      tag_257\n      jumpi\n      invalid\n    tag_257:\n      swap1\n      0x20\n      add\n      swap1\n      0x20\n      mul\n      add\n      mload\n        /* \"ECMath.sol\":7232:7267  Add([X[i], X[i+1]], [Y[i], Y[i+1]]) */\n      dup2\n      mstore\n      0x20\n      add\n        /* \"ECMath.sol\":7243:7244  X */\n      dup8\n        /* \"ECMath.sol\":7247:7248  1 */\n      0x1\n        /* \"ECMath.sol\":7245:7246  i */\n      dup7\n        /* \"ECMath.sol\":7245:7248  i+1 */\n      add\n        /* \"ECMath.sol\":7243:7249  X[i+1] */\n      dup2\n      mload\n      dup2\n      lt\n      iszero\n      iszero\n      tag_258\n      jumpi\n      invalid\n    tag_258:\n      swap1\n      0x20\n      add\n      swap1\n      0x20\n      mul\n      add\n      mload\n        /* \"ECMath.sol\":7232:7267  Add([X[i], X[i+1]], [Y[i], Y[i+1]]) */\n      dup2\n      mstore\n      pop\n      0x40\n      dup1\n      mload\n      swap1\n      dup2\n      add\n      0x40\n      mstore\n      dup1\n        /* \"ECMath.sol\":7253:7254  Y */\n      dup8\n        /* \"ECMath.sol\":7255:7256  i */\n      dup7\n        /* \"ECMath.sol\":7253:7257  Y[i] */\n      dup2\n      mload\n      dup2\n      lt\n      iszero\n      iszero\n      tag_259\n      jumpi\n      invalid\n    tag_259:\n      swap1\n      0x20\n      add\n      swap1\n      0x20\n      mul\n      add\n      mload\n        /* \"ECMath.sol\":7232:7267  Add([X[i], X[i+1]], [Y[i], Y[i+1]]) */\n      dup2\n      mstore\n      0x20\n      add\n        /* \"ECMath.sol\":7259:7260  Y */\n      dup8\n        /* \"ECMath.sol\":7263:7264  1 */\n      0x1\n        /* \"ECMath.sol\":7261:7262  i */\n      dup8\n        /* \"ECMath.sol\":7261:7264  i+1 */\n      add\n        /* \"ECMath.sol\":7259:7265  Y[i+1] */\n      dup2\n      mload\n      dup2\n      lt\n      iszero\n      iszero\n      tag_260\n      jumpi\n      invalid\n    tag_260:\n      swap1\n      0x20\n      add\n      swap1\n      0x20\n      mul\n      add\n      mload\n        /* \"ECMath.sol\":7232:7267  Add([X[i], X[i+1]], [Y[i], Y[i+1]]) */\n      dup2\n      mstore\n      pop\n        /* \"ECMath.sol\":7232:7235  Add */\n      tag_51\n        /* \"ECMath.sol\":7232:7267  Add([X[i], X[i+1]], [Y[i], Y[i+1]]) */\n      jump\t// in\n    tag_256:\n        /* \"ECMath.sol\":7225:7267  temp = Add([X[i], X[i+1]], [Y[i], Y[i+1]]) */\n      swap1\n      pop\n        /* \"ECMath.sol\":7291:7295  temp */\n      dup1\n        /* \"ECMath.sol\":7296:7297  0 */\n      0x0\n        /* \"ECMath.sol\":7291:7298  temp[0] */\n      0x2\n      dup2\n      lt\n      iszero\n      iszero\n      tag_261\n      jumpi\n      invalid\n    tag_261:\n      0x20\n      mul\n      add\n      mload\n        /* \"ECMath.sol\":7300:7304  temp */\n      dup2\n        /* \"ECMath.sol\":7305:7306  1 */\n      0x1\n        /* \"ECMath.sol\":7300:7307  temp[1] */\n      0x2\n      dup2\n      lt\n      iszero\n      iszero\n      tag_262\n      jumpi\n      invalid\n    tag_262:\n      0x20\n      mul\n      add\n      mload\n        /* \"ECMath.sol\":7274:7275  Z */\n      dup5\n        /* \"ECMath.sol\":7276:7277  i */\n      dup5\n        /* \"ECMath.sol\":7274:7278  Z[i] */\n      dup2\n      mload\n      dup2\n      lt\n      iszero\n      iszero\n      tag_263\n      jumpi\n      invalid\n    tag_263:\n      swap1\n      0x20\n      add\n      swap1\n      0x20\n      mul\n      add\n        /* \"ECMath.sol\":7280:7281  Z */\n      dup6\n        /* \"ECMath.sol\":7284:7285  1 */\n      0x1\n        /* \"ECMath.sol\":7282:7283  i */\n      dup7\n        /* \"ECMath.sol\":7282:7285  i+1 */\n      add\n        /* \"ECMath.sol\":7280:7286  Z[i+1] */\n      dup2\n      mload\n      dup2\n      lt\n      iszero\n      iszero\n      tag_264\n      jumpi\n      invalid\n    tag_264:\n      swap1\n      0x20\n      add\n      swap1\n      0x20\n      mul\n      add\n        /* \"ECMath.sol\":7273:7308  (Z[i], Z[i+1]) = (temp[0], temp[1]) */\n      dup3\n      dup2\n      mstore\n      pop\n      dup3\n      dup2\n      mstore\n      pop\n      pop\n      pop\n        /* \"ECMath.sol\":7216:7217  2 */\n      0x2\n        /* \"ECMath.sol\":7211:7217  i += 2 */\n      dup3\n      add\n      swap2\n      pop\n        /* \"ECMath.sol\":7185:7314  for (i = 0; i < X.length; i += 2) {\r... */\n      jump(tag_253)\n    tag_254:\n        /* \"ECMath.sol\":6920:7318  function VectorAdd(uint256[] X, uint256[] Y)\r... */\n      pop\n      pop\n      swap3\n      swap2\n      pop\n      pop\n      jump\t// out\n        /* \"ECMath.sol\":11474:11630  function GetAddress(uint256[2] PubKey)\r... */\n    tag_75:\n        /* \"ECMath.sol\":11543:11555  address addr */\n      0x0\n        /* \"ECMath.sol\":11599:11605  PubKey */\n      dup2\n        /* \"ECMath.sol\":11606:11607  0 */\n      0x0\n        /* \"ECMath.sol\":11599:11608  PubKey[0] */\n      0x2\n      dup2\n      lt\n      iszero\n      iszero\n      tag_266\n      jumpi\n      invalid\n    tag_266:\n      0x20\n      mul\n      add\n      mload\n        /* \"ECMath.sol\":11610:11616  PubKey */\n      dup3\n        /* \"ECMath.sol\":11617:11618  1 */\n      0x1\n        /* \"ECMath.sol\":11610:11619  PubKey[1] */\n      0x2\n      dup2\n      lt\n      iszero\n      iszero\n      tag_267\n      jumpi\n      invalid\n    tag_267:\n      0x20\n      mul\n      add\n      mload\n        /* \"ECMath.sol\":11589:11620  keccak256(PubKey[0], PubKey[1]) */\n      mload(0x40)\n      dup1\n      dup4\n      dup2\n      mstore\n      0x20\n      add\n      dup3\n      dup2\n      mstore\n      0x20\n      add\n      swap3\n      pop\n      pop\n      pop\n      mload(0x40)\n      dup1\n      swap2\n      sub\n      swap1\n      keccak256\n        /* \"ECMath.sol\":11580:11622  address( keccak256(PubKey[0], PubKey[1]) ) */\n      0x1\n      swap1\n      div\n        /* \"ECMath.sol\":11573:11622  addr = address( keccak256(PubKey[0], PubKey[1]) ) */\n      swap1\n      pop\n        /* \"ECMath.sol\":11474:11630  function GetAddress(uint256[2] PubKey)\r... */\n      swap2\n      swap1\n      pop\n      jump\t// out\n        /* \"ECMath.sol\":6558:6914  function VectorScale(uint256[] X, uint256 s)\r... */\n    tag_78:\n        /* \"ECMath.sol\":6631:6642  uint256[] Z */\n      0x60\n        /* \"ECMath.sol\":6748:6757  uint256 i */\n      0x0\n        /* \"ECMath.sol\":6762:6784  uint256[2] memory temp */\n      tag_268\n      jump\t// in(tag_218)\n    tag_268:\n        /* \"ECMath.sol\":6670:6671  1 */\n      0x1\n        /* \"ECMath.sol\":6659:6660  X */\n      dup6\n        /* \"ECMath.sol\":6659:6667  X.length */\n      mload\n        /* \"ECMath.sol\":6659:6671  X.length > 1 */\n      gt\n        /* \"ECMath.sol\":6651:6672  require(X.length > 1) */\n      iszero\n      iszero\n      tag_270\n      jumpi\n      0x0\n      dup1\n      revert\n    tag_270:\n        /* \"ECMath.sol\":6701:6702  0 */\n      0x0\n        /* \"ECMath.sol\":6696:6697  2 */\n      0x2\n        /* \"ECMath.sol\":6685:6686  X */\n      dup7\n        /* \"ECMath.sol\":6685:6693  X.length */\n      mload\n        /* \"ECMath.sol\":6685:6697  X.length % 2 */\n      dup2\n      iszero\n      iszero\n      tag_271\n      jumpi\n      invalid\n    tag_271:\n      mod\n        /* \"ECMath.sol\":6685:6702  X.length % 2 == 0 */\n      eq\n        /* \"ECMath.sol\":6677:6703  require(X.length % 2 == 0) */\n      iszero\n      iszero\n      tag_272\n      jumpi\n      0x0\n      dup1\n      revert\n    tag_272:\n        /* \"ECMath.sol\":6730:6731  X */\n      dup5\n        /* \"ECMath.sol\":6730:6738  X.length */\n      mload\n        /* \"ECMath.sol\":6716:6739  new uint256[](X.length) */\n      mload(0x40)\n      swap1\n      dup1\n      dup3\n      mstore\n      dup1\n      0x20\n      mul\n      0x20\n      add\n      dup3\n      add\n      0x40\n      mstore\n      dup1\n      iszero\n      tag_273\n      jumpi\n      dup2\n      0x20\n      add\n        /* \"--CODEGEN--\":29:31   */\n      0x20\n        /* \"--CODEGEN--\":21:27   */\n      dup3\n        /* \"--CODEGEN--\":17:32   */\n      mul\n        /* \"--CODEGEN--\":117:121   */\n      dup1\n        /* \"--CODEGEN--\":105:115   */\n      codesize\n        /* \"--CODEGEN--\":97:103   */\n      dup4\n        /* \"--CODEGEN--\":88:122   */\n      codecopy\n        /* \"--CODEGEN--\":148:152   */\n      dup1\n        /* \"--CODEGEN--\":140:146   */\n      dup3\n        /* \"--CODEGEN--\":136:153   */\n      add\n        /* \"--CODEGEN--\":126:153   */\n      swap2\n      pop\n        /* \"--CODEGEN--\":0:157   */\n      pop\n        /* \"ECMath.sol\":6716:6739  new uint256[](X.length) */\n      swap1\n      pop\n    tag_273:\n      pop\n        /* \"ECMath.sol\":6712:6739  Z = new uint256[](X.length) */\n      swap3\n      pop\n        /* \"ECMath.sol\":6798:6799  0 */\n      0x0\n        /* \"ECMath.sol\":6794:6799  i = 0 */\n      swap2\n      pop\n        /* \"ECMath.sol\":6789:6910  for (i = 0; i < X.length; i += 2) {\r... */\n    tag_274:\n        /* \"ECMath.sol\":6805:6806  X */\n      dup5\n        /* \"ECMath.sol\":6805:6813  X.length */\n      mload\n        /* \"ECMath.sol\":6801:6802  i */\n      dup3\n        /* \"ECMath.sol\":6801:6813  i < X.length */\n      lt\n        /* \"ECMath.sol\":6789:6910  for (i = 0; i < X.length; i += 2) {\r... */\n      iszero\n      tag_275\n      jumpi\n        /* \"ECMath.sol\":6836:6863  Multiply([X[i], X[i+1]], s) */\n      tag_277\n      0x40\n      dup1\n      mload\n      swap1\n      dup2\n      add\n      0x40\n      mstore\n      dup1\n        /* \"ECMath.sol\":6846:6847  X */\n      dup8\n        /* \"ECMath.sol\":6848:6849  i */\n      dup6\n        /* \"ECMath.sol\":6846:6850  X[i] */\n      dup2\n      mload\n      dup2\n      lt\n      iszero\n      iszero\n      tag_278\n      jumpi\n      invalid\n    tag_278:\n      swap1\n      0x20\n      add\n      swap1\n      0x20\n      mul\n      add\n      mload\n        /* \"ECMath.sol\":6836:6863  Multiply([X[i], X[i+1]], s) */\n      dup2\n      mstore\n      0x20\n      add\n        /* \"ECMath.sol\":6852:6853  X */\n      dup8\n        /* \"ECMath.sol\":6856:6857  1 */\n      0x1\n        /* \"ECMath.sol\":6854:6855  i */\n      dup7\n        /* \"ECMath.sol\":6854:6857  i+1 */\n      add\n        /* \"ECMath.sol\":6852:6858  X[i+1] */\n      dup2\n      mload\n      dup2\n      lt\n      iszero\n      iszero\n      tag_279\n      jumpi\n      invalid\n    tag_279:\n      swap1\n      0x20\n      add\n      swap1\n      0x20\n      mul\n      add\n      mload\n        /* \"ECMath.sol\":6836:6863  Multiply([X[i], X[i+1]], s) */\n      dup2\n      mstore\n      pop\n        /* \"ECMath.sol\":6861:6862  s */\n      dup6\n        /* \"ECMath.sol\":6836:6844  Multiply */\n      tag_192\n        /* \"ECMath.sol\":6836:6863  Multiply([X[i], X[i+1]], s) */\n      jump\t// in\n    tag_277:\n        /* \"ECMath.sol\":6829:6863  temp = Multiply([X[i], X[i+1]], s) */\n      swap1\n      pop\n        /* \"ECMath.sol\":6887:6891  temp */\n      dup1\n        /* \"ECMath.sol\":6892:6893  0 */\n      0x0\n        /* \"ECMath.sol\":6887:6894  temp[0] */\n      0x2\n      dup2\n      lt\n      iszero\n      iszero\n      tag_280\n      jumpi\n      invalid\n    tag_280:\n      0x20\n      mul\n      add\n      mload\n        /* \"ECMath.sol\":6896:6900  temp */\n      dup2\n        /* \"ECMath.sol\":6901:6902  1 */\n      0x1\n        /* \"ECMath.sol\":6896:6903  temp[1] */\n      0x2\n      dup2\n      lt\n      iszero\n      iszero\n      tag_281\n      jumpi\n      invalid\n    tag_281:\n      0x20\n      mul\n      add\n      mload\n        /* \"ECMath.sol\":6870:6871  Z */\n      dup5\n        /* \"ECMath.sol\":6872:6873  i */\n      dup5\n        /* \"ECMath.sol\":6870:6874  Z[i] */\n      dup2\n      mload\n      dup2\n      lt\n      iszero\n      iszero\n      tag_282\n      jumpi\n      invalid\n    tag_282:\n      swap1\n      0x20\n      add\n      swap1\n      0x20\n      mul\n      add\n        /* \"ECMath.sol\":6876:6877  Z */\n      dup6\n        /* \"ECMath.sol\":6880:6881  1 */\n      0x1\n        /* \"ECMath.sol\":6878:6879  i */\n      dup7\n        /* \"ECMath.sol\":6878:6881  i+1 */\n      add\n        /* \"ECMath.sol\":6876:6882  Z[i+1] */\n      dup2\n      mload\n      dup2\n      lt\n      iszero\n      iszero\n      tag_283\n      jumpi\n      invalid\n    tag_283:\n      swap1\n      0x20\n      add\n      swap1\n      0x20\n      mul\n      add\n        /* \"ECMath.sol\":6869:6904  (Z[i], Z[i+1]) = (temp[0], temp[1]) */\n      dup3\n      dup2\n      mstore\n      pop\n      dup3\n      dup2\n      mstore\n      pop\n      pop\n      pop\n        /* \"ECMath.sol\":6820:6821  2 */\n      0x2\n        /* \"ECMath.sol\":6815:6821  i += 2 */\n      dup3\n      add\n      swap2\n      pop\n        /* \"ECMath.sol\":6789:6910  for (i = 0; i < X.length; i += 2) {\r... */\n      jump(tag_274)\n    tag_275:\n        /* \"ECMath.sol\":6558:6914  function VectorScale(uint256[] X, uint256 s)\r... */\n      pop\n      pop\n      swap3\n      swap2\n      pop\n      pop\n      jump\t// out\n        /* \"ECMath.sol\":10585:11446  function ExpandPoint(uint256 Pin)\r... */\n    tag_84:\n        /* \"ECMath.sol\":10650:10665  uint256[2] Pout */\n      tag_284\n      jump\t// in(tag_218)\n    tag_284:\n        /* \"ECMath.sol\":10781:10793  bool onCurve */\n      0x0\n        /* \"ECMath.sol\":10801:10810  uint256 y */\n      dup1\n        /* \"ECMath.sol\":532:598  0x8000000000000000000000000000000000000000000000000000000000000000 */\n      0x8000000000000000000000000000000000000000000000000000000000000000\n        /* \"ECMath.sol\":10734:10745  ~ECSignMask */\n      not\n        /* \"ECMath.sol\":10727:10730  Pin */\n      dup5\n        /* \"ECMath.sol\":10727:10746  Pin & (~ECSignMask) */\n      and\n        /* \"ECMath.sol\":10717:10721  Pout */\n      dup4\n        /* \"ECMath.sol\":10722:10723  0 */\n      0x0\n        /* \"ECMath.sol\":10717:10724  Pout[0] */\n      0x2\n      dup2\n      lt\n      iszero\n      iszero\n      tag_286\n      jumpi\n      invalid\n    tag_286:\n      0x20\n      mul\n      add\n        /* \"ECMath.sol\":10717:10746  Pout[0] = Pin & (~ECSignMask) */\n      dup2\n      dup2\n      mstore\n      pop\n      pop\n        /* \"ECMath.sol\":10833:10855  EvaluateCurve(Pout[0]) */\n      tag_287\n        /* \"ECMath.sol\":10847:10851  Pout */\n      dup4\n        /* \"ECMath.sol\":10852:10853  0 */\n      0x0\n        /* \"ECMath.sol\":10847:10854  Pout[0] */\n      0x2\n      dup2\n      lt\n      iszero\n      iszero\n      tag_288\n      jumpi\n      invalid\n    tag_288:\n      0x20\n      mul\n      add\n      mload\n        /* \"ECMath.sol\":10833:10846  EvaluateCurve */\n      tag_108\n        /* \"ECMath.sol\":10833:10855  EvaluateCurve(Pout[0]) */\n      jump\t// in\n    tag_287:\n        /* \"ECMath.sol\":10818:10855  (y, onCurve) = EvaluateCurve(Pout[0]) */\n      dup1\n      swap4\n      pop\n      dup2\n      swap3\n      pop\n      pop\n      pop\n        /* \"ECMath.sol\":10937:10944  onCurve */\n      dup2\n        /* \"ECMath.sol\":10936:10944  !onCurve */\n      iszero\n        /* \"ECMath.sol\":10932:11442  if (!onCurve) {\r... */\n      iszero\n      tag_289\n      jumpi\n        /* \"ECMath.sol\":10958:10980  Pout = [uint256(0), 0] */\n      0x40\n      dup1\n      mload\n      swap1\n      dup2\n      add\n      0x40\n      mstore\n      dup1\n        /* \"ECMath.sol\":10974:10975  0 */\n      0x0\n        /* \"ECMath.sol\":10958:10980  Pout = [uint256(0), 0] */\n      dup2\n      mstore\n      0x20\n      add\n        /* \"ECMath.sol\":10978:10979  0 */\n      0x0\n        /* \"ECMath.sol\":10958:10980  Pout = [uint256(0), 0] */\n      dup2\n      mstore\n      pop\n      swap3\n      pop\n        /* \"ECMath.sol\":10932:11442  if (!onCurve) {\r... */\n      jump(tag_290)\n    tag_289:\n        /* \"ECMath.sol\":11066:11067  0 */\n      0x0\n        /* \"ECMath.sol\":532:598  0x8000000000000000000000000000000000000000000000000000000000000000 */\n      0x8000000000000000000000000000000000000000000000000000000000000000\n        /* \"ECMath.sol\":11045:11048  Pin */\n      dup6\n        /* \"ECMath.sol\":11045:11061  Pin & ECSignMask */\n      and\n        /* \"ECMath.sol\":11044:11067  (Pin & ECSignMask) != 0 */\n      eq\n      iszero\n        /* \"ECMath.sol\":11040:11434  if ((Pin & ECSignMask) != 0) {\r... */\n      iszero\n      tag_291\n      jumpi\n        /* \"ECMath.sol\":11102:11105  0x1 */\n      0x1\n        /* \"ECMath.sol\":11094:11097  0x1 */\n      dup1\n        /* \"ECMath.sol\":11090:11091  y */\n      dup3\n        /* \"ECMath.sol\":11090:11097  y & 0x1 */\n      and\n        /* \"ECMath.sol\":11089:11105  (y & 0x1) == 0x1 */\n      eq\n        /* \"ECMath.sol\":11085:11218  if ((y & 0x1) == 0x1) {\r... */\n      iszero\n      tag_292\n      jumpi\n        /* \"ECMath.sol\":11137:11138  y */\n      dup1\n        /* \"ECMath.sol\":11127:11131  Pout */\n      dup4\n        /* \"ECMath.sol\":11132:11133  1 */\n      0x1\n        /* \"ECMath.sol\":11127:11134  Pout[1] */\n      0x2\n      dup2\n      lt\n      iszero\n      iszero\n      tag_293\n      jumpi\n      invalid\n    tag_293:\n      0x20\n      mul\n      add\n        /* \"ECMath.sol\":11127:11138  Pout[1] = y */\n      dup2\n      dup2\n      mstore\n      pop\n      pop\n        /* \"ECMath.sol\":11085:11218  if ((y & 0x1) == 0x1) {\r... */\n      jump(tag_294)\n    tag_292:\n        /* \"ECMath.sol\":11200:11201  y */\n      dup1\n        /* \"ECMath.sol\":377:443  0x30644e72e131a029b85045b68181585d97816a916871ca8d3c208c16d87cfd47 */\n      0x30644e72e131a029b85045b68181585d97816a916871ca8d3c208c16d87cfd47\n        /* \"ECMath.sol\":11191:11201  PCurve - y */\n      sub\n        /* \"ECMath.sol\":11181:11185  Pout */\n      dup4\n        /* \"ECMath.sol\":11186:11187  1 */\n      0x1\n        /* \"ECMath.sol\":11181:11188  Pout[1] */\n      0x2\n      dup2\n      lt\n      iszero\n      iszero\n      tag_295\n      jumpi\n      invalid\n    tag_295:\n      0x20\n      mul\n      add\n        /* \"ECMath.sol\":11181:11201  Pout[1] = PCurve - y */\n      dup2\n      dup2\n      mstore\n      pop\n      pop\n        /* \"ECMath.sol\":11085:11218  if ((y & 0x1) == 0x1) {\r... */\n    tag_294:\n        /* \"ECMath.sol\":11040:11434  if ((Pin & ECSignMask) != 0) {\r... */\n      jump(tag_296)\n    tag_291:\n        /* \"ECMath.sol\":11306:11309  0x1 */\n      0x1\n        /* \"ECMath.sol\":11298:11301  0x1 */\n      dup1\n        /* \"ECMath.sol\":11294:11295  y */\n      dup3\n        /* \"ECMath.sol\":11294:11301  y & 0x1 */\n      and\n        /* \"ECMath.sol\":11293:11309  (y & 0x1) == 0x1 */\n      eq\n        /* \"ECMath.sol\":11289:11422  if ((y & 0x1) == 0x1) {\r... */\n      iszero\n      tag_297\n      jumpi\n        /* \"ECMath.sol\":11350:11351  y */\n      dup1\n        /* \"ECMath.sol\":377:443  0x30644e72e131a029b85045b68181585d97816a916871ca8d3c208c16d87cfd47 */\n      0x30644e72e131a029b85045b68181585d97816a916871ca8d3c208c16d87cfd47\n        /* \"ECMath.sol\":11341:11351  PCurve - y */\n      sub\n        /* \"ECMath.sol\":11331:11335  Pout */\n      dup4\n        /* \"ECMath.sol\":11336:11337  1 */\n      0x1\n        /* \"ECMath.sol\":11331:11338  Pout[1] */\n      0x2\n      dup2\n      lt\n      iszero\n      iszero\n      tag_298\n      jumpi\n      invalid\n    tag_298:\n      0x20\n      mul\n      add\n        /* \"ECMath.sol\":11331:11351  Pout[1] = PCurve - y */\n      dup2\n      dup2\n      mstore\n      pop\n      pop\n        /* \"ECMath.sol\":11289:11422  if ((y & 0x1) == 0x1) {\r... */\n      jump(tag_299)\n    tag_297:\n        /* \"ECMath.sol\":11404:11405  y */\n      dup1\n        /* \"ECMath.sol\":11394:11398  Pout */\n      dup4\n        /* \"ECMath.sol\":11399:11400  1 */\n      0x1\n        /* \"ECMath.sol\":11394:11401  Pout[1] */\n      0x2\n      dup2\n      lt\n      iszero\n      iszero\n      tag_300\n      jumpi\n      invalid\n    tag_300:\n      0x20\n      mul\n      add\n        /* \"ECMath.sol\":11394:11405  Pout[1] = y */\n      dup2\n      dup2\n      mstore\n      pop\n      pop\n        /* \"ECMath.sol\":11289:11422  if ((y & 0x1) == 0x1) {\r... */\n    tag_299:\n        /* \"ECMath.sol\":11040:11434  if ((Pin & ECSignMask) != 0) {\r... */\n    tag_296:\n        /* \"ECMath.sol\":10932:11442  if (!onCurve) {\r... */\n    tag_290:\n        /* \"ECMath.sol\":10585:11446  function ExpandPoint(uint256 Pin)\r... */\n      pop\n      pop\n      swap2\n      swap1\n      pop\n      jump\t// out\n        /* \"ECMath.sol\":3486:3620  function Negate(uint256[2] p1)\r... */\n    tag_90:\n        /* \"ECMath.sol\":3541:3554  uint256[2] p2 */\n      tag_301\n      jump\t// in(tag_218)\n    tag_301:\n        /* \"ECMath.sol\":3572:3574  p1 */\n      dup2\n        /* \"ECMath.sol\":3575:3576  0 */\n      0x0\n        /* \"ECMath.sol\":3572:3577  p1[0] */\n      0x2\n      dup2\n      lt\n      iszero\n      iszero\n      tag_303\n      jumpi\n      invalid\n    tag_303:\n      0x20\n      mul\n      add\n      mload\n        /* \"ECMath.sol\":3564:3566  p2 */\n      dup2\n        /* \"ECMath.sol\":3567:3568  0 */\n      0x0\n        /* \"ECMath.sol\":3564:3569  p2[0] */\n      0x2\n      dup2\n      lt\n      iszero\n      iszero\n      tag_304\n      jumpi\n      invalid\n    tag_304:\n      0x20\n      mul\n      add\n        /* \"ECMath.sol\":3564:3577  p2[0] = p1[0] */\n      dup2\n      dup2\n      mstore\n      pop\n      pop\n        /* \"ECMath.sol\":377:443  0x30644e72e131a029b85045b68181585d97816a916871ca8d3c208c16d87cfd47 */\n      0x30644e72e131a029b85045b68181585d97816a916871ca8d3c208c16d87cfd47\n        /* \"ECMath.sol\":3600:3602  p1 */\n      dup3\n        /* \"ECMath.sol\":3603:3604  1 */\n      0x1\n        /* \"ECMath.sol\":3600:3605  p1[1] */\n      0x2\n      dup2\n      lt\n      iszero\n      iszero\n      tag_305\n      jumpi\n      invalid\n    tag_305:\n      0x20\n      mul\n      add\n      mload\n        /* \"ECMath.sol\":3600:3614  p1[1] % PCurve */\n      dup2\n      iszero\n      iszero\n      tag_306\n      jumpi\n      invalid\n    tag_306:\n      mod\n        /* \"ECMath.sol\":377:443  0x30644e72e131a029b85045b68181585d97816a916871ca8d3c208c16d87cfd47 */\n      0x30644e72e131a029b85045b68181585d97816a916871ca8d3c208c16d87cfd47\n        /* \"ECMath.sol\":3590:3615  PCurve - (p1[1] % PCurve) */\n      sub\n        /* \"ECMath.sol\":3582:3584  p2 */\n      dup2\n        /* \"ECMath.sol\":3585:3586  1 */\n      0x1\n        /* \"ECMath.sol\":3582:3587  p2[1] */\n      0x2\n      dup2\n      lt\n      iszero\n      iszero\n      tag_307\n      jumpi\n      invalid\n    tag_307:\n      0x20\n      mul\n      add\n        /* \"ECMath.sol\":3582:3615  p2[1] = PCurve - (p1[1] % PCurve) */\n      dup2\n      dup2\n      mstore\n      pop\n      pop\n        /* \"ECMath.sol\":3486:3620  function Negate(uint256[2] p1)\r... */\n      swap2\n      swap1\n      pop\n      jump\t// out\n        /* \"ECMath.sol\":12251:12596  function HashToPoint(uint256[2] p)\r... */\n    tag_96:\n        /* \"ECMath.sol\":12320:12332  uint256[2] h */\n      tag_308\n      jump\t// in(tag_218)\n    tag_308:\n        /* \"ECMath.sol\":12401:12413  bool onCurve */\n      0x0\n        /* \"ECMath.sol\":377:443  0x30644e72e131a029b85045b68181585d97816a916871ca8d3c208c16d87cfd47 */\n      0x30644e72e131a029b85045b68181585d97816a916871ca8d3c208c16d87cfd47\n        /* \"ECMath.sol\":12357:12371  HashOfPoint(p) */\n      tag_310\n        /* \"ECMath.sol\":12369:12370  p */\n      dup5\n        /* \"ECMath.sol\":12357:12368  HashOfPoint */\n      tag_114\n        /* \"ECMath.sol\":12357:12371  HashOfPoint(p) */\n      jump\t// in\n    tag_310:\n        /* \"ECMath.sol\":12357:12380  HashOfPoint(p) % PCurve */\n      dup2\n      iszero\n      iszero\n      tag_311\n      jumpi\n      invalid\n    tag_311:\n      mod\n        /* \"ECMath.sol\":12350:12351  h */\n      dup3\n        /* \"ECMath.sol\":12352:12353  0 */\n      0x0\n        /* \"ECMath.sol\":12350:12354  h[0] */\n      0x2\n      dup2\n      lt\n      iszero\n      iszero\n      tag_312\n      jumpi\n      invalid\n    tag_312:\n      0x20\n      mul\n      add\n        /* \"ECMath.sol\":12350:12380  h[0] = HashOfPoint(p) % PCurve */\n      dup2\n      dup2\n      mstore\n      pop\n      pop\n        /* \"ECMath.sol\":12416:12421  false */\n      0x0\n        /* \"ECMath.sol\":12401:12421  bool onCurve = false */\n      swap1\n      pop\n        /* \"ECMath.sol\":12432:12589  while(!onCurve) {\r... */\n    tag_313:\n        /* \"ECMath.sol\":12439:12446  onCurve */\n      dup1\n        /* \"ECMath.sol\":12438:12446  !onCurve */\n      iszero\n        /* \"ECMath.sol\":12432:12589  while(!onCurve) {\r... */\n      iszero\n      tag_314\n      jumpi\n        /* \"ECMath.sol\":12481:12500  EvaluateCurve(h[0]) */\n      tag_315\n        /* \"ECMath.sol\":12495:12496  h */\n      dup3\n        /* \"ECMath.sol\":12497:12498  0 */\n      0x0\n        /* \"ECMath.sol\":12495:12499  h[0] */\n      0x2\n      dup2\n      lt\n      iszero\n      iszero\n      tag_316\n      jumpi\n      invalid\n    tag_316:\n      0x20\n      mul\n      add\n      mload\n        /* \"ECMath.sol\":12481:12494  EvaluateCurve */\n      tag_108\n        /* \"ECMath.sol\":12481:12500  EvaluateCurve(h[0]) */\n      jump\t// in\n    tag_315:\n        /* \"ECMath.sol\":12464:12465  h */\n      dup4\n        /* \"ECMath.sol\":12466:12467  1 */\n      0x1\n        /* \"ECMath.sol\":12464:12468  h[1] */\n      0x2\n      dup2\n      lt\n      iszero\n      iszero\n      tag_317\n      jumpi\n      invalid\n    tag_317:\n      0x20\n      mul\n      add\n        /* \"ECMath.sol\":12463:12500  (h[1], onCurve) = EvaluateCurve(h[0]) */\n      dup2\n      swap4\n      pop\n      dup3\n      dup2\n      mstore\n      pop\n      pop\n      pop\n        /* \"ECMath.sol\":12525:12532  onCurve */\n      dup1\n        /* \"ECMath.sol\":12524:12532  !onCurve */\n      iszero\n        /* \"ECMath.sol\":12520:12578  if (!onCurve) {\r... */\n      iszero\n      tag_318\n      jumpi\n        /* \"ECMath.sol\":377:443  0x30644e72e131a029b85045b68181585d97816a916871ca8d3c208c16d87cfd47 */\n      0x30644e72e131a029b85045b68181585d97816a916871ca8d3c208c16d87cfd47\n        /* \"ECMath.sol\":12548:12571  addmod(h[0], 1, PCurve) */\n      dup1\n      iszero\n      iszero\n      tag_319\n      jumpi\n      invalid\n    tag_319:\n        /* \"ECMath.sol\":12561:12562  1 */\n      0x1\n        /* \"ECMath.sol\":12555:12556  h */\n      dup4\n        /* \"ECMath.sol\":12557:12558  0 */\n      0x0\n        /* \"ECMath.sol\":12555:12559  h[0] */\n      0x2\n      dup2\n      lt\n      iszero\n      iszero\n      tag_320\n      jumpi\n      invalid\n    tag_320:\n      0x20\n      mul\n      add\n      mload\n        /* \"ECMath.sol\":12548:12571  addmod(h[0], 1, PCurve) */\n      addmod\n        /* \"ECMath.sol\":12541:12542  h */\n      dup3\n        /* \"ECMath.sol\":12543:12544  0 */\n      0x0\n        /* \"ECMath.sol\":12541:12545  h[0] */\n      0x2\n      dup2\n      lt\n      iszero\n      iszero\n      tag_321\n      jumpi\n      invalid\n    tag_321:\n      0x20\n      mul\n      add\n        /* \"ECMath.sol\":12541:12571  h[0] = addmod(h[0], 1, PCurve) */\n      dup2\n      dup2\n      mstore\n      pop\n      pop\n        /* \"ECMath.sol\":12520:12578  if (!onCurve) {\r... */\n    tag_318:\n        /* \"ECMath.sol\":12432:12589  while(!onCurve) {\r... */\n      jump(tag_313)\n    tag_314:\n        /* \"ECMath.sol\":12251:12596  function HashToPoint(uint256[2] p)\r... */\n      pop\n      swap2\n      swap1\n      pop\n      jump\t// out\n        /* \"ECMath.sol\":5568:5692  function MultiplyH(uint256 s)\r... */\n    tag_102:\n        /* \"ECMath.sol\":5632:5645  uint256[2] p0 */\n      tag_322\n      jump\t// in(tag_218)\n    tag_322:\n        /* \"ECMath.sol\":5670:5684  Multiply(H, s) */\n      tag_324\n        /* \"ECMath.sol\":5679:5680  H */\n      0x3\n        /* \"ECMath.sol\":5670:5684  Multiply(H, s) */\n      0x2\n      dup1\n      0x20\n      mul\n      mload(0x40)\n      swap1\n      dup2\n      add\n      0x40\n      mstore\n      dup1\n      swap3\n      swap2\n      swap1\n      dup3\n      0x2\n      dup1\n      iszero\n      tag_325\n      jumpi\n      0x20\n      mul\n      dup3\n      add\n      swap2\n    tag_326:\n      dup2\n      sload\n      dup2\n      mstore\n      0x20\n      add\n      swap1\n      0x1\n      add\n      swap1\n      dup1\n      dup4\n      gt\n      tag_326\n      jumpi\n    tag_325:\n      pop\n      pop\n      pop\n      pop\n      pop\n        /* \"ECMath.sol\":5682:5683  s */\n      dup4\n        /* \"ECMath.sol\":5670:5678  Multiply */\n      tag_192\n        /* \"ECMath.sol\":5670:5684  Multiply(H, s) */\n      jump\t// in\n    tag_324:\n        /* \"ECMath.sol\":5663:5684  return Multiply(H, s) */\n      swap1\n      pop\n        /* \"ECMath.sol\":5568:5692  function MultiplyH(uint256 s)\r... */\n      swap2\n      swap1\n      pop\n      jump\t// out\n        /* \"ECMath.sol\":9397:10576  function EvaluateCurve(uint256 x)\r... */\n    tag_108:\n        /* \"ECMath.sol\":9462:9471  uint256 y */\n      0x0\n        /* \"ECMath.sol\":9473:9485  bool onCurve */\n      dup1\n        /* \"ECMath.sol\":9497:9514  uint256 y_squared */\n      0x0\n        /* \"ECMath.sol\":9648:9663  uint256 p_local */\n      dup1\n        /* \"ECMath.sol\":9680:9695  uint256 a_local */\n      0x0\n        /* \"ECMath.sol\":377:443  0x30644e72e131a029b85045b68181585d97816a916871ca8d3c208c16d87cfd47 */\n      0x30644e72e131a029b85045b68181585d97816a916871ca8d3c208c16d87cfd47\n        /* \"ECMath.sol\":9517:9537  mulmod(x, x, PCurve) */\n      dup1\n      iszero\n      iszero\n      tag_328\n      jumpi\n      invalid\n    tag_328:\n        /* \"ECMath.sol\":9527:9528  x */\n      dup7\n        /* \"ECMath.sol\":9524:9525  x */\n      dup8\n        /* \"ECMath.sol\":9517:9537  mulmod(x, x, PCurve) */\n      mulmod\n        /* \"ECMath.sol\":9497:9537  uint256 y_squared = mulmod(x, x, PCurve) */\n      swap3\n      pop\n        /* \"ECMath.sol\":377:443  0x30644e72e131a029b85045b68181585d97816a916871ca8d3c208c16d87cfd47 */\n      0x30644e72e131a029b85045b68181585d97816a916871ca8d3c208c16d87cfd47\n        /* \"ECMath.sol\":9557:9585  mulmod(y_squared, x, PCurve) */\n      dup1\n      iszero\n      iszero\n      tag_329\n      jumpi\n      invalid\n    tag_329:\n        /* \"ECMath.sol\":9575:9576  x */\n      dup7\n        /* \"ECMath.sol\":9564:9573  y_squared */\n      dup5\n        /* \"ECMath.sol\":9557:9585  mulmod(y_squared, x, PCurve) */\n      mulmod\n        /* \"ECMath.sol\":9545:9585  y_squared = mulmod(y_squared, x, PCurve) */\n      swap3\n      pop\n        /* \"ECMath.sol\":377:443  0x30644e72e131a029b85045b68181585d97816a916871ca8d3c208c16d87cfd47 */\n      0x30644e72e131a029b85045b68181585d97816a916871ca8d3c208c16d87cfd47\n        /* \"ECMath.sol\":9605:9633  addmod(y_squared, 3, PCurve) */\n      dup1\n      iszero\n      iszero\n      tag_330\n      jumpi\n      invalid\n    tag_330:\n        /* \"ECMath.sol\":9623:9624  3 */\n      0x3\n        /* \"ECMath.sol\":9612:9621  y_squared */\n      dup5\n        /* \"ECMath.sol\":9605:9633  addmod(y_squared, 3, PCurve) */\n      addmod\n        /* \"ECMath.sol\":9593:9633  y_squared = addmod(y_squared, 3, PCurve) */\n      swap3\n      pop\n        /* \"ECMath.sol\":377:443  0x30644e72e131a029b85045b68181585d97816a916871ca8d3c208c16d87cfd47 */\n      0x30644e72e131a029b85045b68181585d97816a916871ca8d3c208c16d87cfd47\n        /* \"ECMath.sol\":9648:9672  uint256 p_local = PCurve */\n      swap2\n      pop\n        /* \"ECMath.sol\":631:696  0xc19139cb84c680a6e14116da060561765e05aa45a1c72a34f082305b61f3f52 */\n      0xc19139cb84c680a6e14116da060561765e05aa45a1c72a34f082305b61f3f52\n        /* \"ECMath.sol\":9680:9699  uint256 a_local = a */\n      swap1\n      pop\n        /* \"ECMath.sol\":9786:9790  0x40 */\n      0x40\n        /* \"ECMath.sol\":9780:9791  mload(0x40) */\n      mload\n        /* \"ECMath.sol\":9871:9875  0x20 */\n      0x20\n        /* \"ECMath.sol\":9868:9869  p */\n      dup2\n        /* \"ECMath.sol\":9861:9876  mstore(p, 0x20) */\n      mstore\n        /* \"ECMath.sol\":9938:9942  0x20 */\n      0x20\n        /* \"ECMath.sol\":9931:9935  0x20 */\n      dup1\n        /* \"ECMath.sol\":9928:9929  p */\n      dup3\n        /* \"ECMath.sol\":9924:9936  add(p, 0x20) */\n      add\n        /* \"ECMath.sol\":9917:9943  mstore(add(p, 0x20), 0x20) */\n      mstore\n        /* \"ECMath.sol\":9998:10002  0x20 */\n      0x20\n        /* \"ECMath.sol\":9991:9995  0x40 */\n      0x40\n        /* \"ECMath.sol\":9988:9989  p */\n      dup3\n        /* \"ECMath.sol\":9984:9996  add(p, 0x40) */\n      add\n        /* \"ECMath.sol\":9977:10003  mstore(add(p, 0x40), 0x20) */\n      mstore\n        /* \"ECMath.sol\":10057:10066  y_squared */\n      dup4\n        /* \"ECMath.sol\":10050:10054  0x60 */\n      0x60\n        /* \"ECMath.sol\":10047:10048  p */\n      dup3\n        /* \"ECMath.sol\":10043:10055  add(p, 0x60) */\n      add\n        /* \"ECMath.sol\":10036:10067  mstore(add(p, 0x60), y_squared) */\n      mstore\n        /* \"ECMath.sol\":10106:10113  a_local */\n      dup2\n        /* \"ECMath.sol\":10099:10103  0x80 */\n      0x80\n        /* \"ECMath.sol\":10096:10097  p */\n      dup3\n        /* \"ECMath.sol\":10092:10104  add(p, 0x80) */\n      add\n        /* \"ECMath.sol\":10085:10114  mstore(add(p, 0x80), a_local) */\n      mstore\n        /* \"ECMath.sol\":10159:10166  p_local */\n      dup3\n        /* \"ECMath.sol\":10152:10156  0xA0 */\n      0xa0\n        /* \"ECMath.sol\":10149:10150  p */\n      dup3\n        /* \"ECMath.sol\":10145:10157  add(p, 0xA0) */\n      add\n        /* \"ECMath.sol\":10138:10167  mstore(add(p, 0xA0), p_local) */\n      mstore\n        /* \"ECMath.sol\":10291:10295  0x20 */\n      0x20\n        /* \"ECMath.sol\":10288:10289  p */\n      dup2\n        /* \"ECMath.sol\":10282:10286  0xC0 */\n      0xc0\n        /* \"ECMath.sol\":10279:10280  p */\n      dup4\n        /* \"ECMath.sol\":10276:10277  0 */\n      0x0\n        /* \"ECMath.sol\":10270:10274  0x05 */\n      0x5\n        /* \"ECMath.sol\":10263:10267  2000 */\n      0x7d0\n        /* \"ECMath.sol\":10258:10261  gas */\n      gas\n        /* \"ECMath.sol\":10254:10268  sub(gas, 2000) */\n      sub\n        /* \"ECMath.sol\":10249:10296  call(sub(gas, 2000), 0x05, 0, p, 0xC0, p, 0x20) */\n      call\n        /* \"ECMath.sol\":10381:10388  success */\n      dup1\n        /* \"ECMath.sol\":10394:10395  0 */\n      0x0\n        /* \"ECMath.sol\":10389:10415  case 0 { revert(p, 0xC0) } */\n      dup2\n      eq\n      tag_332\n      jumpi\n        /* \"ECMath.sol\":10374:10415  switch success case 0 { revert(p, 0xC0) } */\n      jump(tag_331)\n        /* \"ECMath.sol\":10389:10415  case 0 { revert(p, 0xC0) } */\n    tag_332:\n        /* \"ECMath.sol\":10408:10412  0xC0 */\n      0xc0\n        /* \"ECMath.sol\":10405:10406  p */\n      dup4\n        /* \"ECMath.sol\":10398:10413  revert(p, 0xC0) */\n      revert\n        /* \"ECMath.sol\":10374:10415  switch success case 0 { revert(p, 0xC0) } */\n    tag_331:\n      pop\n        /* \"ECMath.sol\":10481:10482  p */\n      dup2\n        /* \"ECMath.sol\":10475:10483  mload(p) */\n      mload\n        /* \"ECMath.sol\":10470:10483  y := mload(p) */\n      swap7\n      pop\n        /* \"ECMath.sol\":9723:10491  {\r... */\n      pop\n      pop\n        /* \"ECMath.sol\":377:443  0x30644e72e131a029b85045b68181585d97816a916871ca8d3c208c16d87cfd47 */\n      0x30644e72e131a029b85045b68181585d97816a916871ca8d3c208c16d87cfd47\n        /* \"ECMath.sol\":10550:10570  mulmod(y, y, PCurve) */\n      dup1\n      iszero\n      iszero\n      tag_333\n      jumpi\n      invalid\n    tag_333:\n        /* \"ECMath.sol\":10560:10561  y */\n      dup6\n        /* \"ECMath.sol\":10557:10558  y */\n      dup7\n        /* \"ECMath.sol\":10550:10570  mulmod(y, y, PCurve) */\n      mulmod\n        /* \"ECMath.sol\":10537:10546  y_squared */\n      dup4\n        /* \"ECMath.sol\":10537:10570  y_squared == mulmod(y, y, PCurve) */\n      eq\n        /* \"ECMath.sol\":10526:10571  onCurve = (y_squared == mulmod(y, y, PCurve)) */\n      swap4\n      pop\n        /* \"ECMath.sol\":9397:10576  function EvaluateCurve(uint256 x)\r... */\n      pop\n      pop\n      pop\n      swap2\n      pop\n      swap2\n      jump\t// out\n        /* \"ECMath.sol\":9155:9388  function CompressPoint(uint256[2] Pin)\r... */\n    tag_111:\n        /* \"ECMath.sol\":9221:9233  uint256 Pout */\n      0x0\n        /* \"ECMath.sol\":9274:9277  Pin */\n      dup2\n        /* \"ECMath.sol\":9278:9279  0 */\n      0x0\n        /* \"ECMath.sol\":9274:9280  Pin[0] */\n      0x2\n      dup2\n      lt\n      iszero\n      iszero\n      tag_335\n      jumpi\n      invalid\n    tag_335:\n      0x20\n      mul\n      add\n      mload\n        /* \"ECMath.sol\":9267:9280  Pout = Pin[0] */\n      swap1\n      pop\n        /* \"ECMath.sol\":9340:9343  0x1 */\n      0x1\n        /* \"ECMath.sol\":9332:9335  0x1 */\n      dup1\n        /* \"ECMath.sol\":9323:9326  Pin */\n      dup4\n        /* \"ECMath.sol\":9327:9328  1 */\n      0x1\n        /* \"ECMath.sol\":9323:9329  Pin[1] */\n      0x2\n      dup2\n      lt\n      iszero\n      iszero\n      tag_336\n      jumpi\n      invalid\n    tag_336:\n      0x20\n      mul\n      add\n      mload\n        /* \"ECMath.sol\":9323:9335  Pin[1] & 0x1 */\n      and\n        /* \"ECMath.sol\":9322:9343  (Pin[1] & 0x1) == 0x1 */\n      eq\n        /* \"ECMath.sol\":9318:9384  if ((Pin[1] & 0x1) == 0x1) {\r... */\n      iszero\n      tag_337\n      jumpi\n        /* \"ECMath.sol\":532:598  0x8000000000000000000000000000000000000000000000000000000000000000 */\n      0x8000000000000000000000000000000000000000000000000000000000000000\n        /* \"ECMath.sol\":9357:9375  Pout |= ECSignMask */\n      dup2\n      or\n      swap1\n      pop\n        /* \"ECMath.sol\":9318:9384  if ((Pin[1] & 0x1) == 0x1) {\r... */\n    tag_337:\n        /* \"ECMath.sol\":9155:9388  function CompressPoint(uint256[2] Pin)\r... */\n      swap2\n      swap1\n      pop\n      jump\t// out\n        /* \"ECMath.sol\":12042:12188  function HashOfPoint(uint256[2] point)\r... */\n    tag_114:\n        /* \"ECMath.sol\":12111:12120  uint256 h */\n      0x0\n        /* \"ECMath.sol\":12160:12165  point */\n      dup2\n        /* \"ECMath.sol\":12166:12167  0 */\n      0x0\n        /* \"ECMath.sol\":12160:12168  point[0] */\n      0x2\n      dup2\n      lt\n      iszero\n      iszero\n      tag_339\n      jumpi\n      invalid\n    tag_339:\n      0x20\n      mul\n      add\n      mload\n        /* \"ECMath.sol\":12170:12175  point */\n      dup3\n        /* \"ECMath.sol\":12176:12177  1 */\n      0x1\n        /* \"ECMath.sol\":12170:12178  point[1] */\n      0x2\n      dup2\n      lt\n      iszero\n      iszero\n      tag_340\n      jumpi\n      invalid\n    tag_340:\n      0x20\n      mul\n      add\n      mload\n        /* \"ECMath.sol\":12150:12179  keccak256(point[0], point[1]) */\n      mload(0x40)\n      dup1\n      dup4\n      dup2\n      mstore\n      0x20\n      add\n      dup3\n      dup2\n      mstore\n      0x20\n      add\n      swap3\n      pop\n      pop\n      pop\n      mload(0x40)\n      dup1\n      swap2\n      sub\n      swap1\n      keccak256\n        /* \"ECMath.sol\":12142:12180  uint256(keccak256(point[0], point[1])) */\n      0x1\n      swap1\n      div\n        /* \"ECMath.sol\":12138:12180  h = uint256(keccak256(point[0], point[1])) */\n      swap1\n      pop\n        /* \"ECMath.sol\":12042:12188  function HashOfPoint(uint256[2] point)\r... */\n      swap2\n      swap1\n      pop\n      jump\t// out\n        /* \"ECMath.sol\":4544:4676  function Subtract(uint256[2] p0, uint256[2] p1)\r... */\n    tag_117:\n        /* \"ECMath.sol\":4623:4636  uint256[2] p2 */\n      tag_341\n      jump\t// in(tag_218)\n    tag_341:\n        /* \"ECMath.sol\":4652:4671  Add(p0, Negate(p1)) */\n      tag_343\n        /* \"ECMath.sol\":4656:4658  p0 */\n      dup4\n        /* \"ECMath.sol\":4660:4670  Negate(p1) */\n      tag_344\n        /* \"ECMath.sol\":4667:4669  p1 */\n      dup5\n        /* \"ECMath.sol\":4660:4666  Negate */\n      tag_90\n        /* \"ECMath.sol\":4660:4670  Negate(p1) */\n      jump\t// in\n    tag_344:\n        /* \"ECMath.sol\":4652:4655  Add */\n      tag_51\n        /* \"ECMath.sol\":4652:4671  Add(p0, Negate(p1)) */\n      jump\t// in\n    tag_343:\n        /* \"ECMath.sol\":4645:4671  return Add(p0, Negate(p1)) */\n      swap1\n      pop\n        /* \"ECMath.sol\":4544:4676  function Subtract(uint256[2] p0, uint256[2] p1)\r... */\n      swap3\n      swap2\n      pop\n      pop\n      jump\t// out\n        /* \"ECMath.sol\":8878:9097  function CommitAB(uint256[] X, uint256[] Y, uint256[] x, uint256[] y)\r... */\n    tag_123:\n        /* \"ECMath.sol\":8982:8995  uint256[2] px */\n      tag_345\n      jump\t// in(tag_218)\n    tag_345:\n        /* \"ECMath.sol\":8997:9010  uint256[2] py */\n      tag_346\n      jump\t// in(tag_218)\n    tag_346:\n        /* \"ECMath.sol\":9033:9053  MultiExp(X, x, 0, 0) */\n      tag_348\n        /* \"ECMath.sol\":9042:9043  X */\n      dup7\n        /* \"ECMath.sol\":9045:9046  x */\n      dup6\n        /* \"ECMath.sol\":9048:9049  0 */\n      0x0\n        /* \"ECMath.sol\":9051:9052  0 */\n      dup1\n        /* \"ECMath.sol\":9033:9041  MultiExp */\n      tag_180\n        /* \"ECMath.sol\":9033:9053  MultiExp(X, x, 0, 0) */\n      jump\t// in\n    tag_348:\n        /* \"ECMath.sol\":9028:9053  px = MultiExp(X, x, 0, 0) */\n      swap2\n      pop\n        /* \"ECMath.sol\":9069:9089  MultiExp(Y, y, 0, 0) */\n      tag_349\n        /* \"ECMath.sol\":9078:9079  Y */\n      dup6\n        /* \"ECMath.sol\":9081:9082  y */\n      dup5\n        /* \"ECMath.sol\":9084:9085  0 */\n      0x0\n        /* \"ECMath.sol\":9087:9088  0 */\n      dup1\n        /* \"ECMath.sol\":9069:9077  MultiExp */\n      tag_180\n        /* \"ECMath.sol\":9069:9089  MultiExp(Y, y, 0, 0) */\n      jump\t// in\n    tag_349:\n        /* \"ECMath.sol\":9064:9089  py = MultiExp(Y, y, 0, 0) */\n      swap1\n      pop\n        /* \"ECMath.sol\":8878:9097  function CommitAB(uint256[] X, uint256[] Y, uint256[] x, uint256[] y)\r... */\n      swap5\n      pop\n      swap5\n      swap3\n      pop\n      pop\n      pop\n      jump\t// out\n        /* \"ECMath.sol\":1255:2067  function GetGiHi(uint256 N)\r... */\n    tag_132:\n        /* \"ECMath.sol\":1311:1320  uint256[] */\n      0x60\n        /* \"ECMath.sol\":1322:1331  uint256[] */\n      dup1\n        /* \"ECMath.sol\":1394:1405  uint256 len */\n      0x0\n        /* \"ECMath.sol\":1744:1767  uint256[] memory Gi_out */\n      0x60\n        /* \"ECMath.sol\":1803:1826  uint256[] memory Hi_out */\n      dup1\n        /* \"ECMath.sol\":1862:1871  uint256 i */\n      0x0\n        /* \"ECMath.sol\":1410:1411  N */\n      dup7\n        /* \"ECMath.sol\":1408:1409  2 */\n      0x2\n        /* \"ECMath.sol\":1408:1411  2*N */\n      mul\n        /* \"ECMath.sol\":1394:1411  uint256 len = 2*N */\n      swap4\n      pop\n        /* \"ECMath.sol\":1443:1446  len */\n      dup4\n        /* \"ECMath.sol\":1430:1432  Gi */\n      0x7\n        /* \"ECMath.sol\":1430:1439  Gi.length */\n      dup1\n      sload\n      swap1\n      pop\n        /* \"ECMath.sol\":1430:1446  Gi.length >= len */\n      lt\n      iszero\n        /* \"ECMath.sol\":1422:1447  require(Gi.length >= len) */\n      iszero\n      iszero\n      tag_351\n      jumpi\n      0x0\n      dup1\n      revert\n    tag_351:\n        /* \"ECMath.sol\":1619:1620  0 */\n      0x0\n        /* \"ECMath.sol\":1612:1615  len */\n      dup5\n        /* \"ECMath.sol\":1612:1620  len == 0 */\n      eq\n        /* \"ECMath.sol\":1612:1640  len == 0 || Gi.length == len */\n      dup1\n      tag_352\n      jumpi\n      pop\n        /* \"ECMath.sol\":1637:1640  len */\n      dup4\n        /* \"ECMath.sol\":1624:1626  Gi */\n      0x7\n        /* \"ECMath.sol\":1624:1633  Gi.length */\n      dup1\n      sload\n      swap1\n      pop\n        /* \"ECMath.sol\":1624:1640  Gi.length == len */\n      eq\n        /* \"ECMath.sol\":1612:1640  len == 0 || Gi.length == len */\n    tag_352:\n        /* \"ECMath.sol\":1608:2063  if (len == 0 || Gi.length == len) {\r... */\n      iszero\n      tag_353\n      jumpi\n        /* \"ECMath.sol\":1665:1667  Gi */\n      0x7\n        /* \"ECMath.sol\":1669:1671  Hi */\n      0x8\n        /* \"ECMath.sol\":1657:1672  return (Gi, Hi) */\n      dup2\n      dup1\n      sload\n      dup1\n      0x20\n      mul\n      0x20\n      add\n      mload(0x40)\n      swap1\n      dup2\n      add\n      0x40\n      mstore\n      dup1\n      swap3\n      swap2\n      swap1\n      dup2\n      dup2\n      mstore\n      0x20\n      add\n      dup3\n      dup1\n      sload\n      dup1\n      iszero\n      tag_354\n      jumpi\n      0x20\n      mul\n      dup3\n      add\n      swap2\n      swap1\n      0x0\n      mstore\n      keccak256(0x0, 0x20)\n      swap1\n    tag_355:\n      dup2\n      sload\n      dup2\n      mstore\n      0x20\n      add\n      swap1\n      0x1\n      add\n      swap1\n      dup1\n      dup4\n      gt\n      tag_355\n      jumpi\n    tag_354:\n      pop\n      pop\n      pop\n      pop\n      pop\n      swap2\n      pop\n      dup1\n      dup1\n      sload\n      dup1\n      0x20\n      mul\n      0x20\n      add\n      mload(0x40)\n      swap1\n      dup2\n      add\n      0x40\n      mstore\n      dup1\n      swap3\n      swap2\n      swap1\n      dup2\n      dup2\n      mstore\n      0x20\n      add\n      dup3\n      dup1\n      sload\n      dup1\n      iszero\n      tag_356\n      jumpi\n      0x20\n      mul\n      dup3\n      add\n      swap2\n      swap1\n      0x0\n      mstore\n      keccak256(0x0, 0x20)\n      swap1\n    tag_357:\n      dup2\n      sload\n      dup2\n      mstore\n      0x20\n      add\n      swap1\n      0x1\n      add\n      swap1\n      dup1\n      dup4\n      gt\n      tag_357\n      jumpi\n    tag_356:\n      pop\n      pop\n      pop\n      pop\n      pop\n      swap1\n      pop\n      swap6\n      pop\n      swap6\n      pop\n      jump(tag_350)\n        /* \"ECMath.sol\":1608:2063  if (len == 0 || Gi.length == len) {\r... */\n    tag_353:\n        /* \"ECMath.sol\":1784:1787  len */\n      dup4\n        /* \"ECMath.sol\":1770:1788  new uint256[](len) */\n      mload(0x40)\n      swap1\n      dup1\n      dup3\n      mstore\n      dup1\n      0x20\n      mul\n      0x20\n      add\n      dup3\n      add\n      0x40\n      mstore\n      dup1\n      iszero\n      tag_359\n      jumpi\n      dup2\n      0x20\n      add\n        /* \"--CODEGEN--\":29:31   */\n      0x20\n        /* \"--CODEGEN--\":21:27   */\n      dup3\n        /* \"--CODEGEN--\":17:32   */\n      mul\n        /* \"--CODEGEN--\":117:121   */\n      dup1\n        /* \"--CODEGEN--\":105:115   */\n      codesize\n        /* \"--CODEGEN--\":97:103   */\n      dup4\n        /* \"--CODEGEN--\":88:122   */\n      codecopy\n        /* \"--CODEGEN--\":148:152   */\n      dup1\n        /* \"--CODEGEN--\":140:146   */\n      dup3\n        /* \"--CODEGEN--\":136:153   */\n      add\n        /* \"--CODEGEN--\":126:153   */\n      swap2\n      pop\n        /* \"--CODEGEN--\":0:157   */\n      pop\n        /* \"ECMath.sol\":1770:1788  new uint256[](len) */\n      swap1\n      pop\n    tag_359:\n      pop\n        /* \"ECMath.sol\":1744:1788  uint256[] memory Gi_out = new uint256[](len) */\n      swap3\n      pop\n        /* \"ECMath.sol\":1843:1846  len */\n      dup4\n        /* \"ECMath.sol\":1829:1847  new uint256[](len) */\n      mload(0x40)\n      swap1\n      dup1\n      dup3\n      mstore\n      dup1\n      0x20\n      mul\n      0x20\n      add\n      dup3\n      add\n      0x40\n      mstore\n      dup1\n      iszero\n      tag_360\n      jumpi\n      dup2\n      0x20\n      add\n        /* \"--CODEGEN--\":29:31   */\n      0x20\n        /* \"--CODEGEN--\":21:27   */\n      dup3\n        /* \"--CODEGEN--\":17:32   */\n      mul\n        /* \"--CODEGEN--\":117:121   */\n      dup1\n        /* \"--CODEGEN--\":105:115   */\n      codesize\n        /* \"--CODEGEN--\":97:103   */\n      dup4\n        /* \"--CODEGEN--\":88:122   */\n      codecopy\n        /* \"--CODEGEN--\":148:152   */\n      dup1\n        /* \"--CODEGEN--\":140:146   */\n      dup3\n        /* \"--CODEGEN--\":136:153   */\n      add\n        /* \"--CODEGEN--\":126:153   */\n      swap2\n      pop\n        /* \"--CODEGEN--\":0:157   */\n      pop\n        /* \"ECMath.sol\":1829:1847  new uint256[](len) */\n      swap1\n      pop\n    tag_360:\n      pop\n        /* \"ECMath.sol\":1803:1847  uint256[] memory Hi_out = new uint256[](len) */\n      swap2\n      pop\n        /* \"ECMath.sol\":1895:1896  0 */\n      0x0\n        /* \"ECMath.sol\":1891:1896  i = 0 */\n      swap1\n      pop\n        /* \"ECMath.sol\":1886:2000  for (i = 0; i < len; i++) {\r... */\n    tag_361:\n        /* \"ECMath.sol\":1902:1905  len */\n      dup4\n        /* \"ECMath.sol\":1898:1899  i */\n      dup2\n        /* \"ECMath.sol\":1898:1905  i < len */\n      lt\n        /* \"ECMath.sol\":1886:2000  for (i = 0; i < len; i++) {\r... */\n      iszero\n      tag_362\n      jumpi\n        /* \"ECMath.sol\":1943:1945  Gi */\n      0x7\n        /* \"ECMath.sol\":1946:1947  i */\n      dup2\n        /* \"ECMath.sol\":1943:1948  Gi[i] */\n      dup2\n      sload\n      dup2\n      lt\n      iszero\n      iszero\n      tag_364\n      jumpi\n      invalid\n    tag_364:\n      swap1\n      0x0\n      mstore\n      keccak256(0x0, 0x20)\n      add\n      sload\n        /* \"ECMath.sol\":1931:1937  Gi_out */\n      dup4\n        /* \"ECMath.sol\":1938:1939  i */\n      dup3\n        /* \"ECMath.sol\":1931:1940  Gi_out[i] */\n      dup2\n      mload\n      dup2\n      lt\n      iszero\n      iszero\n      tag_366\n      jumpi\n      invalid\n    tag_366:\n      swap1\n      0x20\n      add\n      swap1\n      0x20\n      mul\n      add\n        /* \"ECMath.sol\":1931:1948  Gi_out[i] = Gi[i] */\n      dup2\n      dup2\n      mstore\n      pop\n      pop\n        /* \"ECMath.sol\":1979:1981  Hi */\n      0x8\n        /* \"ECMath.sol\":1982:1983  i */\n      dup2\n        /* \"ECMath.sol\":1979:1984  Hi[i] */\n      dup2\n      sload\n      dup2\n      lt\n      iszero\n      iszero\n      tag_367\n      jumpi\n      invalid\n    tag_367:\n      swap1\n      0x0\n      mstore\n      keccak256(0x0, 0x20)\n      add\n      sload\n        /* \"ECMath.sol\":1967:1973  Hi_out */\n      dup3\n        /* \"ECMath.sol\":1974:1975  i */\n      dup3\n        /* \"ECMath.sol\":1967:1976  Hi_out[i] */\n      dup2\n      mload\n      dup2\n      lt\n      iszero\n      iszero\n      tag_369\n      jumpi\n      invalid\n    tag_369:\n      swap1\n      0x20\n      add\n      swap1\n      0x20\n      mul\n      add\n        /* \"ECMath.sol\":1967:1984  Hi_out[i] = Hi[i] */\n      dup2\n      dup2\n      mstore\n      pop\n      pop\n        /* \"ECMath.sol\":1907:1910  i++ */\n      dup1\n      dup1\n      0x1\n      add\n      swap2\n      pop\n      pop\n        /* \"ECMath.sol\":1886:2000  for (i = 0; i < len; i++) {\r... */\n      jump(tag_361)\n    tag_362:\n        /* \"ECMath.sol\":2036:2042  Gi_out */\n      dup3\n        /* \"ECMath.sol\":2044:2050  Hi_out */\n      dup3\n        /* \"ECMath.sol\":2028:2051  return (Gi_out, Hi_out) */\n      swap6\n      pop\n      swap6\n      pop\n        /* \"ECMath.sol\":1255:2067  function GetGiHi(uint256 N)\r... */\n    tag_350:\n      pop\n      pop\n      pop\n      pop\n      swap2\n      pop\n      swap2\n      jump\t// out\n        /* \"ECMath.sol\":2320:3458  function GenerateBasePointVectors(uint256 N) ownerOnly public {\r... */\n    tag_141:\n        /* \"ECMath.sol\":2390:2406  uint256 existing */\n      0x0\n        /* \"ECMath.sol\":2462:2485  uint256[] memory Gi_new */\n      0x60\n        /* \"ECMath.sol\":2518:2541  uint256[] memory Hi_new */\n      dup1\n        /* \"ECMath.sol\":2585:2594  uint256 i */\n      0x0\n        /* \"ECMath.sol\":2837:2850  uint256 index */\n      dup1\n        /* \"ECMath.sol\":2862:2884  uint256[2] memory temp */\n      tag_370\n      jump\t// in(tag_218)\n    tag_370:\n        /* \"Debuggable.sol\":226:231  owner */\n      0x0\n      dup1\n      swap1\n      sload\n      swap1\n      0x100\n      exp\n      swap1\n      div\n      0xffffffffffffffffffffffffffffffffffffffff\n      and\n        /* \"Debuggable.sol\":212:231  msg.sender != owner */\n      0xffffffffffffffffffffffffffffffffffffffff\n      and\n        /* \"Debuggable.sol\":212:222  msg.sender */\n      caller\n        /* \"Debuggable.sol\":212:231  msg.sender != owner */\n      0xffffffffffffffffffffffffffffffffffffffff\n      and\n      eq\n      iszero\n        /* \"Debuggable.sol\":211:248  (msg.sender != owner) && (owner != 0) */\n      dup1\n      iszero\n      tag_372\n      jumpi\n      pop\n        /* \"Debuggable.sol\":246:247  0 */\n      0x0\n        /* \"Debuggable.sol\":237:242  owner */\n      dup1\n      0x0\n      swap1\n      sload\n      swap1\n      0x100\n      exp\n      swap1\n      div\n      0xffffffffffffffffffffffffffffffffffffffff\n      and\n        /* \"Debuggable.sol\":237:247  owner != 0 */\n      0xffffffffffffffffffffffffffffffffffffffff\n      and\n      eq\n      iszero\n        /* \"Debuggable.sol\":211:248  (msg.sender != owner) && (owner != 0) */\n    tag_372:\n        /* \"Debuggable.sol\":206:259  if ( (msg.sender != owner) && (owner != 0) ) revert() */\n      iszero\n      tag_373\n      jumpi\n        /* \"Debuggable.sol\":251:259  revert() */\n      0x0\n      dup1\n      revert\n        /* \"Debuggable.sol\":206:259  if ( (msg.sender != owner) && (owner != 0) ) revert() */\n    tag_373:\n        /* \"ECMath.sol\":2422:2423  2 */\n      0x2\n        /* \"ECMath.sol\":2410:2412  Gi */\n      0x7\n        /* \"ECMath.sol\":2410:2419  Gi.length */\n      dup1\n      sload\n      swap1\n      pop\n        /* \"ECMath.sol\":2410:2423  Gi.length / 2 */\n      dup2\n      iszero\n      iszero\n      tag_375\n      jumpi\n      invalid\n    tag_375:\n      div\n        /* \"ECMath.sol\":2390:2424  uint256 existing = (Gi.length / 2) */\n      swap6\n      pop\n        /* \"ECMath.sol\":2440:2448  existing */\n      dup6\n        /* \"ECMath.sol\":2436:2437  N */\n      dup8\n        /* \"ECMath.sol\":2436:2448  N > existing */\n      gt\n        /* \"ECMath.sol\":2432:3454  if (N > existing) {\r... */\n      iszero\n      tag_376\n      jumpi\n        /* \"ECMath.sol\":2504:2505  2 */\n      0x2\n        /* \"ECMath.sol\":2502:2503  N */\n      dup8\n        /* \"ECMath.sol\":2502:2505  N*2 */\n      mul\n        /* \"ECMath.sol\":2488:2506  new uint256[](N*2) */\n      mload(0x40)\n      swap1\n      dup1\n      dup3\n      mstore\n      dup1\n      0x20\n      mul\n      0x20\n      add\n      dup3\n      add\n      0x40\n      mstore\n      dup1\n      iszero\n      tag_377\n      jumpi\n      dup2\n      0x20\n      add\n        /* \"--CODEGEN--\":29:31   */\n      0x20\n        /* \"--CODEGEN--\":21:27   */\n      dup3\n        /* \"--CODEGEN--\":17:32   */\n      mul\n        /* \"--CODEGEN--\":117:121   */\n      dup1\n        /* \"--CODEGEN--\":105:115   */\n      codesize\n        /* \"--CODEGEN--\":97:103   */\n      dup4\n        /* \"--CODEGEN--\":88:122   */\n      codecopy\n        /* \"--CODEGEN--\":148:152   */\n      dup1\n        /* \"--CODEGEN--\":140:146   */\n      dup3\n        /* \"--CODEGEN--\":136:153   */\n      add\n        /* \"--CODEGEN--\":126:153   */\n      swap2\n      pop\n        /* \"--CODEGEN--\":0:157   */\n      pop\n        /* \"ECMath.sol\":2488:2506  new uint256[](N*2) */\n      swap1\n      pop\n    tag_377:\n      pop\n        /* \"ECMath.sol\":2462:2506  uint256[] memory Gi_new = new uint256[](N*2) */\n      swap5\n      pop\n        /* \"ECMath.sol\":2560:2561  2 */\n      0x2\n        /* \"ECMath.sol\":2558:2559  N */\n      dup8\n        /* \"ECMath.sol\":2558:2561  N*2 */\n      mul\n        /* \"ECMath.sol\":2544:2562  new uint256[](N*2) */\n      mload(0x40)\n      swap1\n      dup1\n      dup3\n      mstore\n      dup1\n      0x20\n      mul\n      0x20\n      add\n      dup3\n      add\n      0x40\n      mstore\n      dup1\n      iszero\n      tag_378\n      jumpi\n      dup2\n      0x20\n      add\n        /* \"--CODEGEN--\":29:31   */\n      0x20\n        /* \"--CODEGEN--\":21:27   */\n      dup3\n        /* \"--CODEGEN--\":17:32   */\n      mul\n        /* \"--CODEGEN--\":117:121   */\n      dup1\n        /* \"--CODEGEN--\":105:115   */\n      codesize\n        /* \"--CODEGEN--\":97:103   */\n      dup4\n        /* \"--CODEGEN--\":88:122   */\n      codecopy\n        /* \"--CODEGEN--\":148:152   */\n      dup1\n        /* \"--CODEGEN--\":140:146   */\n      dup3\n        /* \"--CODEGEN--\":136:153   */\n      add\n        /* \"--CODEGEN--\":126:153   */\n      swap2\n      pop\n        /* \"--CODEGEN--\":0:157   */\n      pop\n        /* \"ECMath.sol\":2544:2562  new uint256[](N*2) */\n      swap1\n      pop\n    tag_378:\n      pop\n        /* \"ECMath.sol\":2518:2562  uint256[] memory Hi_new = new uint256[](N*2) */\n      swap4\n      pop\n        /* \"ECMath.sol\":2653:2654  0 */\n      0x0\n        /* \"ECMath.sol\":2649:2654  i = 0 */\n      swap3\n      pop\n        /* \"ECMath.sol\":2644:2755  for (i = 0; i < Gi.length; i++) {\r... */\n    tag_379:\n        /* \"ECMath.sol\":2660:2662  Gi */\n      0x7\n        /* \"ECMath.sol\":2660:2669  Gi.length */\n      dup1\n      sload\n      swap1\n      pop\n        /* \"ECMath.sol\":2656:2657  i */\n      dup4\n        /* \"ECMath.sol\":2656:2669  i < Gi.length */\n      lt\n        /* \"ECMath.sol\":2644:2755  for (i = 0; i < Gi.length; i++) {\r... */\n      iszero\n      tag_380\n      jumpi\n        /* \"ECMath.sol\":2704:2706  Gi */\n      0x7\n        /* \"ECMath.sol\":2707:2708  i */\n      dup4\n        /* \"ECMath.sol\":2704:2709  Gi[i] */\n      dup2\n      sload\n      dup2\n      lt\n      iszero\n      iszero\n      tag_382\n      jumpi\n      invalid\n    tag_382:\n      swap1\n      0x0\n      mstore\n      keccak256(0x0, 0x20)\n      add\n      sload\n        /* \"ECMath.sol\":2692:2698  Gi_new */\n      dup6\n        /* \"ECMath.sol\":2699:2700  i */\n      dup5\n        /* \"ECMath.sol\":2692:2701  Gi_new[i] */\n      dup2\n      mload\n      dup2\n      lt\n      iszero\n      iszero\n      tag_384\n      jumpi\n      invalid\n    tag_384:\n      swap1\n      0x20\n      add\n      swap1\n      0x20\n      mul\n      add\n        /* \"ECMath.sol\":2692:2709  Gi_new[i] = Gi[i] */\n      dup2\n      dup2\n      mstore\n      pop\n      pop\n        /* \"ECMath.sol\":2737:2739  Hi */\n      0x8\n        /* \"ECMath.sol\":2740:2741  i */\n      dup4\n        /* \"ECMath.sol\":2737:2742  Hi[i] */\n      dup2\n      sload\n      dup2\n      lt\n      iszero\n      iszero\n      tag_385\n      jumpi\n      invalid\n    tag_385:\n      swap1\n      0x0\n      mstore\n      keccak256(0x0, 0x20)\n      add\n      sload\n        /* \"ECMath.sol\":2725:2731  Hi_new */\n      dup5\n        /* \"ECMath.sol\":2732:2733  i */\n      dup5\n        /* \"ECMath.sol\":2725:2734  Hi_new[i] */\n      dup2\n      mload\n      dup2\n      lt\n      iszero\n      iszero\n      tag_387\n      jumpi\n      invalid\n    tag_387:\n      swap1\n      0x20\n      add\n      swap1\n      0x20\n      mul\n      add\n        /* \"ECMath.sol\":2725:2742  Hi_new[i] = Hi[i] */\n      dup2\n      dup2\n      mstore\n      pop\n      pop\n        /* \"ECMath.sol\":2671:2674  i++ */\n      dup3\n      dup1\n      0x1\n      add\n      swap4\n      pop\n      pop\n        /* \"ECMath.sol\":2644:2755  for (i = 0; i < Gi.length; i++) {\r... */\n      jump(tag_379)\n    tag_380:\n        /* \"ECMath.sol\":2912:2913  0 */\n      0x0\n        /* \"ECMath.sol\":2900:2908  existing */\n      dup7\n        /* \"ECMath.sol\":2900:2913  existing == 0 */\n      eq\n        /* \"ECMath.sol\":2896:3063  if (existing == 0) {\r... */\n      iszero\n      tag_388\n      jumpi\n        /* \"ECMath.sol\":2938:2939  H */\n      0x3\n        /* \"ECMath.sol\":2931:2939  temp = H */\n      0x2\n      dup1\n      0x20\n      mul\n      mload(0x40)\n      swap1\n      dup2\n      add\n      0x40\n      mstore\n      dup1\n      swap3\n      swap2\n      swap1\n      dup3\n      0x2\n      dup1\n      iszero\n      tag_389\n      jumpi\n      0x20\n      mul\n      dup3\n      add\n      swap2\n    tag_390:\n      dup2\n      sload\n      dup2\n      mstore\n      0x20\n      add\n      swap1\n      0x1\n      add\n      swap1\n      dup1\n      dup4\n      gt\n      tag_390\n      jumpi\n    tag_389:\n      pop\n      pop\n      pop\n      pop\n      pop\n      swap1\n      pop\n        /* \"ECMath.sol\":2896:3063  if (existing == 0) {\r... */\n      jump(tag_391)\n    tag_388:\n        /* \"ECMath.sol\":3002:3003  2 */\n      0x2\n        /* \"ECMath.sol\":2992:2994  Hi */\n      0x8\n        /* \"ECMath.sol\":2992:3001  Hi.length */\n      dup1\n      sload\n      swap1\n      pop\n        /* \"ECMath.sol\":2992:3003  Hi.length-2 */\n      sub\n        /* \"ECMath.sol\":2984:3003  index = Hi.length-2 */\n      swap2\n      pop\n        /* \"ECMath.sol\":3019:3050  temp = [Hi[index], Hi[index+1]] */\n      0x40\n      dup1\n      mload\n      swap1\n      dup2\n      add\n      0x40\n      mstore\n      dup1\n        /* \"ECMath.sol\":3027:3029  Hi */\n      0x8\n        /* \"ECMath.sol\":3030:3035  index */\n      dup5\n        /* \"ECMath.sol\":3027:3036  Hi[index] */\n      dup2\n      sload\n      dup2\n      lt\n      iszero\n      iszero\n      tag_392\n      jumpi\n      invalid\n    tag_392:\n      swap1\n      0x0\n      mstore\n      keccak256(0x0, 0x20)\n      add\n      sload\n        /* \"ECMath.sol\":3019:3050  temp = [Hi[index], Hi[index+1]] */\n      dup2\n      mstore\n      0x20\n      add\n        /* \"ECMath.sol\":3038:3040  Hi */\n      0x8\n        /* \"ECMath.sol\":3047:3048  1 */\n      0x1\n        /* \"ECMath.sol\":3041:3046  index */\n      dup6\n        /* \"ECMath.sol\":3041:3048  index+1 */\n      add\n        /* \"ECMath.sol\":3038:3049  Hi[index+1] */\n      dup2\n      sload\n      dup2\n      lt\n      iszero\n      iszero\n      tag_394\n      jumpi\n      invalid\n    tag_394:\n      swap1\n      0x0\n      mstore\n      keccak256(0x0, 0x20)\n      add\n      sload\n        /* \"ECMath.sol\":3019:3050  temp = [Hi[index], Hi[index+1]] */\n      dup2\n      mstore\n      pop\n      swap1\n      pop\n        /* \"ECMath.sol\":2896:3063  if (existing == 0) {\r... */\n    tag_391:\n        /* \"ECMath.sol\":3094:3102  existing */\n      dup6\n        /* \"ECMath.sol\":3090:3102  i = existing */\n      swap3\n      pop\n        /* \"ECMath.sol\":3085:3389  for (i = existing; i < N; i++) {\r... */\n    tag_396:\n        /* \"ECMath.sol\":3108:3109  N */\n      dup7\n        /* \"ECMath.sol\":3104:3105  i */\n      dup4\n        /* \"ECMath.sol\":3104:3109  i < N */\n      lt\n        /* \"ECMath.sol\":3085:3389  for (i = existing; i < N; i++) {\r... */\n      iszero\n      tag_397\n      jumpi\n        /* \"ECMath.sol\":3142:3143  i */\n      dup3\n        /* \"ECMath.sol\":3140:3141  2 */\n      0x2\n        /* \"ECMath.sol\":3140:3143  2*i */\n      mul\n        /* \"ECMath.sol\":3132:3143  index = 2*i */\n      swap2\n      pop\n        /* \"ECMath.sol\":3166:3183  HashToPoint(temp) */\n      tag_399\n        /* \"ECMath.sol\":3178:3182  temp */\n      dup2\n        /* \"ECMath.sol\":3166:3177  HashToPoint */\n      tag_96\n        /* \"ECMath.sol\":3166:3183  HashToPoint(temp) */\n      jump\t// in\n    tag_399:\n        /* \"ECMath.sol\":3159:3183  temp = HashToPoint(temp) */\n      swap1\n      pop\n        /* \"ECMath.sol\":3235:3239  temp */\n      dup1\n        /* \"ECMath.sol\":3240:3241  0 */\n      0x0\n        /* \"ECMath.sol\":3235:3242  temp[0] */\n      0x2\n      dup2\n      lt\n      iszero\n      iszero\n      tag_400\n      jumpi\n      invalid\n    tag_400:\n      0x20\n      mul\n      add\n      mload\n        /* \"ECMath.sol\":3244:3248  temp */\n      dup2\n        /* \"ECMath.sol\":3249:3250  1 */\n      0x1\n        /* \"ECMath.sol\":3244:3251  temp[1] */\n      0x2\n      dup2\n      lt\n      iszero\n      iszero\n      tag_401\n      jumpi\n      invalid\n    tag_401:\n      0x20\n      mul\n      add\n      mload\n        /* \"ECMath.sol\":3200:3206  Gi_new */\n      dup7\n        /* \"ECMath.sol\":3207:3212  index */\n      dup5\n        /* \"ECMath.sol\":3200:3213  Gi_new[index] */\n      dup2\n      mload\n      dup2\n      lt\n      iszero\n      iszero\n      tag_402\n      jumpi\n      invalid\n    tag_402:\n      swap1\n      0x20\n      add\n      swap1\n      0x20\n      mul\n      add\n        /* \"ECMath.sol\":3215:3221  Gi_new */\n      dup8\n        /* \"ECMath.sol\":3228:3229  1 */\n      0x1\n        /* \"ECMath.sol\":3222:3227  index */\n      dup7\n        /* \"ECMath.sol\":3222:3229  index+1 */\n      add\n        /* \"ECMath.sol\":3215:3230  Gi_new[index+1] */\n      dup2\n      mload\n      dup2\n      lt\n      iszero\n      iszero\n      tag_403\n      jumpi\n      invalid\n    tag_403:\n      swap1\n      0x20\n      add\n      swap1\n      0x20\n      mul\n      add\n        /* \"ECMath.sol\":3199:3252  (Gi_new[index], Gi_new[index+1]) = (temp[0], temp[1]) */\n      dup3\n      dup2\n      mstore\n      pop\n      dup3\n      dup2\n      mstore\n      pop\n      pop\n      pop\n        /* \"ECMath.sol\":3290:3307  HashToPoint(temp) */\n      tag_404\n        /* \"ECMath.sol\":3302:3306  temp */\n      dup2\n        /* \"ECMath.sol\":3290:3301  HashToPoint */\n      tag_96\n        /* \"ECMath.sol\":3290:3307  HashToPoint(temp) */\n      jump\t// in\n    tag_404:\n        /* \"ECMath.sol\":3283:3307  temp = HashToPoint(temp) */\n      swap1\n      pop\n        /* \"ECMath.sol\":3359:3363  temp */\n      dup1\n        /* \"ECMath.sol\":3364:3365  0 */\n      0x0\n        /* \"ECMath.sol\":3359:3366  temp[0] */\n      0x2\n      dup2\n      lt\n      iszero\n      iszero\n      tag_405\n      jumpi\n      invalid\n    tag_405:\n      0x20\n      mul\n      add\n      mload\n        /* \"ECMath.sol\":3368:3372  temp */\n      dup2\n        /* \"ECMath.sol\":3373:3374  1 */\n      0x1\n        /* \"ECMath.sol\":3368:3375  temp[1] */\n      0x2\n      dup2\n      lt\n      iszero\n      iszero\n      tag_406\n      jumpi\n      invalid\n    tag_406:\n      0x20\n      mul\n      add\n      mload\n        /* \"ECMath.sol\":3324:3330  Hi_new */\n      dup6\n        /* \"ECMath.sol\":3331:3336  index */\n      dup5\n        /* \"ECMath.sol\":3324:3337  Hi_new[index] */\n      dup2\n      mload\n      dup2\n      lt\n      iszero\n      iszero\n      tag_407\n      jumpi\n      invalid\n    tag_407:\n      swap1\n      0x20\n      add\n      swap1\n      0x20\n      mul\n      add\n        /* \"ECMath.sol\":3339:3345  Hi_new */\n      dup7\n        /* \"ECMath.sol\":3352:3353  1 */\n      0x1\n        /* \"ECMath.sol\":3346:3351  index */\n      dup7\n        /* \"ECMath.sol\":3346:3353  index+1 */\n      add\n        /* \"ECMath.sol\":3339:3354  Hi_new[index+1] */\n      dup2\n      mload\n      dup2\n      lt\n      iszero\n      iszero\n      tag_408\n      jumpi\n      invalid\n    tag_408:\n      swap1\n      0x20\n      add\n      swap1\n      0x20\n      mul\n      add\n        /* \"ECMath.sol\":3323:3376  (Hi_new[index], Hi_new[index+1]) = (temp[0], temp[1]) */\n      dup3\n      dup2\n      mstore\n      pop\n      dup3\n      dup2\n      mstore\n      pop\n      pop\n      pop\n        /* \"ECMath.sol\":3111:3114  i++ */\n      dup3\n      dup1\n      0x1\n      add\n      swap4\n      pop\n      pop\n        /* \"ECMath.sol\":3085:3389  for (i = existing; i < N; i++) {\r... */\n      jump(tag_396)\n    tag_397:\n        /* \"ECMath.sol\":3416:3422  Gi_new */\n      dup5\n        /* \"ECMath.sol\":3411:3413  Gi */\n      0x7\n        /* \"ECMath.sol\":3411:3422  Gi = Gi_new */\n      swap1\n      dup1\n      mload\n      swap1\n      0x20\n      add\n      swap1\n      tag_409\n      swap3\n      swap2\n      swap1\n      jump\t// in(tag_410)\n    tag_409:\n      pop\n        /* \"ECMath.sol\":3439:3445  Hi_new */\n      dup4\n        /* \"ECMath.sol\":3434:3436  Hi */\n      0x8\n        /* \"ECMath.sol\":3434:3445  Hi = Hi_new */\n      swap1\n      dup1\n      mload\n      swap1\n      0x20\n      add\n      swap1\n      tag_411\n      swap3\n      swap2\n      swap1\n      jump\t// in(tag_410)\n    tag_411:\n      pop\n        /* \"ECMath.sol\":2432:3454  if (N > existing) {\r... */\n    tag_376:\n        /* \"ECMath.sol\":2320:3458  function GenerateBasePointVectors(uint256 N) ownerOnly public {\r... */\n      pop\n      pop\n      pop\n      pop\n      pop\n      pop\n      pop\n      jump\t// out\n        /* \"Debuggable.sol\":73:93  address public owner */\n    tag_144:\n      0x0\n      dup1\n      swap1\n      sload\n      swap1\n      0x100\n      exp\n      swap1\n      div\n      0xffffffffffffffffffffffffffffffffffffffff\n      and\n      dup2\n      jump\t// out\n        /* \"ECMath.sol\":5740:5918  function AddMultiply(uint256[2] p_add, uint256[2] p_mul, uint256 s)\r... */\n    tag_147:\n        /* \"ECMath.sol\":5842:5855  uint256[2] p0 */\n      tag_412\n      jump\t// in(tag_218)\n    tag_412:\n        /* \"ECMath.sol\":5880:5910  Add(p_add, Multiply(p_mul, s)) */\n      tag_414\n        /* \"ECMath.sol\":5884:5889  p_add */\n      dup5\n        /* \"ECMath.sol\":5891:5909  Multiply(p_mul, s) */\n      tag_415\n        /* \"ECMath.sol\":5900:5905  p_mul */\n      dup6\n        /* \"ECMath.sol\":5907:5908  s */\n      dup6\n        /* \"ECMath.sol\":5891:5899  Multiply */\n      tag_192\n        /* \"ECMath.sol\":5891:5909  Multiply(p_mul, s) */\n      jump\t// in\n    tag_415:\n        /* \"ECMath.sol\":5880:5883  Add */\n      tag_51\n        /* \"ECMath.sol\":5880:5910  Add(p_add, Multiply(p_mul, s)) */\n      jump\t// in\n    tag_414:\n        /* \"ECMath.sol\":5873:5910  return Add(p_add, Multiply(p_mul, s)) */\n      swap1\n      pop\n        /* \"ECMath.sol\":5740:5918  function AddMultiply(uint256[2] p_add, uint256[2] p_mul, uint256 s)\r... */\n      swap4\n      swap3\n      pop\n      pop\n      pop\n      jump\t// out\n        /* \"ECMath.sol\":2073:2163  function GetGiHiLength() public view returns (uint256) {\r... */\n    tag_153:\n        /* \"ECMath.sol\":2119:2126  uint256 */\n      0x0\n        /* \"ECMath.sol\":2156:2157  2 */\n      0x2\n        /* \"ECMath.sol\":2144:2146  Gi */\n      0x7\n        /* \"ECMath.sol\":2144:2153  Gi.length */\n      dup1\n      sload\n      swap1\n      pop\n        /* \"ECMath.sol\":2144:2157  Gi.length / 2 */\n      dup2\n      iszero\n      iszero\n      tag_417\n      jumpi\n      invalid\n    tag_417:\n      div\n        /* \"ECMath.sol\":2136:2158  return (Gi.length / 2) */\n      swap1\n      pop\n        /* \"ECMath.sol\":2073:2163  function GetGiHiLength() public view returns (uint256) {\r... */\n      swap1\n      jump\t// out\n        /* \"ECMath.sol\":8538:8738  function AddMultiExp(uint256[2] Pin, uint256[] P, uint256[] s, uint256 start, uint256 end)\r... */\n    tag_156:\n        /* \"ECMath.sol\":8663:8678  uint256[2] Pout */\n      tag_418\n      jump\t// in(tag_218)\n    tag_418:\n        /* \"ECMath.sol\":8697:8733  Add(Pin, MultiExp(P, s, start, end)) */\n      tag_420\n        /* \"ECMath.sol\":8701:8704  Pin */\n      dup7\n        /* \"ECMath.sol\":8706:8732  MultiExp(P, s, start, end) */\n      tag_421\n        /* \"ECMath.sol\":8715:8716  P */\n      dup8\n        /* \"ECMath.sol\":8718:8719  s */\n      dup8\n        /* \"ECMath.sol\":8721:8726  start */\n      dup8\n        /* \"ECMath.sol\":8728:8731  end */\n      dup8\n        /* \"ECMath.sol\":8706:8714  MultiExp */\n      tag_180\n        /* \"ECMath.sol\":8706:8732  MultiExp(P, s, start, end) */\n      jump\t// in\n    tag_421:\n        /* \"ECMath.sol\":8697:8700  Add */\n      tag_51\n        /* \"ECMath.sol\":8697:8733  Add(Pin, MultiExp(P, s, start, end)) */\n      jump\t// in\n    tag_420:\n        /* \"ECMath.sol\":8690:8733  Pout = Add(Pin, MultiExp(P, s, start, end)) */\n      swap1\n      pop\n        /* \"ECMath.sol\":8538:8738  function AddMultiExp(uint256[2] Pin, uint256[] P, uint256[] s, uint256 start, uint256 end)\r... */\n      swap6\n      swap5\n      pop\n      pop\n      pop\n      pop\n      pop\n      jump\t// out\n        /* \"ECMath.sol\":902:966  function GetG1() public view returns (uint256[2]) { return G1; } */\n    tag_162:\n        /* \"ECMath.sol\":940:950  uint256[2] */\n      tag_422\n      jump\t// in(tag_218)\n    tag_422:\n        /* \"ECMath.sol\":961:963  G1 */\n      0x1\n        /* \"ECMath.sol\":954:963  return G1 */\n      0x2\n      dup1\n      0x20\n      mul\n      mload(0x40)\n      swap1\n      dup2\n      add\n      0x40\n      mstore\n      dup1\n      swap3\n      swap2\n      swap1\n      dup3\n      0x2\n      dup1\n      iszero\n      tag_424\n      jumpi\n      0x20\n      mul\n      dup3\n      add\n      swap2\n    tag_425:\n      dup2\n      sload\n      dup2\n      mstore\n      0x20\n      add\n      swap1\n      0x1\n      add\n      swap1\n      dup1\n      dup4\n      gt\n      tag_425\n      jumpi\n    tag_424:\n      pop\n      pop\n      pop\n      pop\n      pop\n      swap1\n      pop\n        /* \"ECMath.sol\":902:966  function GetG1() public view returns (uint256[2]) { return G1; } */\n      swap1\n      jump\t// out\n        /* \"ECMath.sol\":5967:6124  function AddMultiplyG1(uint256[2] p_add, uint256 s)\r... */\n    tag_168:\n        /* \"ECMath.sol\":6053:6066  uint256[2] p0 */\n      tag_426\n      jump\t// in(tag_218)\n    tag_426:\n        /* \"ECMath.sol\":6091:6116  AddMultiply(p_add, G1, s) */\n      tag_428\n        /* \"ECMath.sol\":6103:6108  p_add */\n      dup4\n        /* \"ECMath.sol\":6110:6112  G1 */\n      0x1\n        /* \"ECMath.sol\":6091:6116  AddMultiply(p_add, G1, s) */\n      0x2\n      dup1\n      0x20\n      mul\n      mload(0x40)\n      swap1\n      dup2\n      add\n      0x40\n      mstore\n      dup1\n      swap3\n      swap2\n      swap1\n      dup3\n      0x2\n      dup1\n      iszero\n      tag_429\n      jumpi\n      0x20\n      mul\n      dup3\n      add\n      swap2\n    tag_430:\n      dup2\n      sload\n      dup2\n      mstore\n      0x20\n      add\n      swap1\n      0x1\n      add\n      swap1\n      dup1\n      dup4\n      gt\n      tag_430\n      jumpi\n    tag_429:\n      pop\n      pop\n      pop\n      pop\n      pop\n        /* \"ECMath.sol\":6114:6115  s */\n      dup5\n        /* \"ECMath.sol\":6091:6102  AddMultiply */\n      tag_147\n        /* \"ECMath.sol\":6091:6116  AddMultiply(p_add, G1, s) */\n      jump\t// in\n    tag_428:\n        /* \"ECMath.sol\":6084:6116  return AddMultiply(p_add, G1, s) */\n      swap1\n      pop\n        /* \"ECMath.sol\":5967:6124  function AddMultiplyG1(uint256[2] p_add, uint256 s)\r... */\n      swap3\n      swap2\n      pop\n      pop\n      jump\t// out\n        /* \"ECMath.sol\":1034:1105  function GetInfinity() public view returns (uint256[2]) { return Inf; } */\n    tag_174:\n        /* \"ECMath.sol\":1078:1088  uint256[2] */\n      tag_431\n      jump\t// in(tag_218)\n    tag_431:\n        /* \"ECMath.sol\":1099:1102  Inf */\n      0x5\n        /* \"ECMath.sol\":1092:1102  return Inf */\n      0x2\n      dup1\n      0x20\n      mul\n      mload(0x40)\n      swap1\n      dup2\n      add\n      0x40\n      mstore\n      dup1\n      swap3\n      swap2\n      swap1\n      dup3\n      0x2\n      dup1\n      iszero\n      tag_433\n      jumpi\n      0x20\n      mul\n      dup3\n      add\n      swap2\n    tag_434:\n      dup2\n      sload\n      dup2\n      mstore\n      0x20\n      add\n      swap1\n      0x1\n      add\n      swap1\n      dup1\n      dup4\n      gt\n      tag_434\n      jumpi\n    tag_433:\n      pop\n      pop\n      pop\n      pop\n      pop\n      swap1\n      pop\n        /* \"ECMath.sol\":1034:1105  function GetInfinity() public view returns (uint256[2]) { return Inf; } */\n      swap1\n      jump\t// out\n        /* \"ECMath.sol\":7785:8480  function MultiExp(uint256[] P, uint256[] s, uint256 start, uint256 end)\r... */\n    tag_180:\n        /* \"ECMath.sol\":7891:7906  uint256[2] Pout */\n      tag_435\n      jump\t// in(tag_218)\n    tag_435:\n        /* \"ECMath.sol\":8147:8160  uint256 index */\n      0x0\n        /* \"ECMath.sol\":8315:8324  uint256 i */\n      dup1\n        /* \"ECMath.sol\":7943:7944  1 */\n      0x1\n        /* \"ECMath.sol\":7932:7933  P */\n      dup8\n        /* \"ECMath.sol\":7932:7940  P.length */\n      mload\n        /* \"ECMath.sol\":7932:7944  P.length > 1 */\n      gt\n        /* \"ECMath.sol\":7924:7945  require(P.length > 1) */\n      iszero\n      iszero\n      tag_437\n      jumpi\n      0x0\n      dup1\n      revert\n    tag_437:\n        /* \"ECMath.sol\":7980:7981  0 */\n      0x0\n        /* \"ECMath.sol\":7975:7976  2 */\n      0x2\n        /* \"ECMath.sol\":7964:7965  P */\n      dup9\n        /* \"ECMath.sol\":7964:7972  P.length */\n      mload\n        /* \"ECMath.sol\":7964:7976  P.length % 2 */\n      dup2\n      iszero\n      iszero\n      tag_438\n      jumpi\n      invalid\n    tag_438:\n      mod\n        /* \"ECMath.sol\":7964:7981  P.length % 2 == 0 */\n      eq\n        /* \"ECMath.sol\":7956:7982  require(P.length % 2 == 0) */\n      iszero\n      iszero\n      tag_439\n      jumpi\n      0x0\n      dup1\n      revert\n    tag_439:\n        /* \"ECMath.sol\":8015:8016  s */\n      dup6\n        /* \"ECMath.sol\":8015:8023  s.length */\n      mload\n        /* \"ECMath.sol\":8013:8014  2 */\n      0x2\n        /* \"ECMath.sol\":8013:8023  2*s.length */\n      mul\n        /* \"ECMath.sol\":8001:8002  P */\n      dup8\n        /* \"ECMath.sol\":8001:8009  P.length */\n      mload\n        /* \"ECMath.sol\":8001:8023  P.length == 2*s.length */\n      eq\n        /* \"ECMath.sol\":7993:8024  require(P.length == 2*s.length) */\n      iszero\n      iszero\n      tag_440\n      jumpi\n      0x0\n      dup1\n      revert\n    tag_440:\n        /* \"ECMath.sol\":8046:8047  0 */\n      0x0\n        /* \"ECMath.sol\":8039:8042  end */\n      dup5\n        /* \"ECMath.sol\":8039:8047  end == 0 */\n      eq\n        /* \"ECMath.sol\":8035:8063  if (end == 0) end = s.length */\n      iszero\n      tag_441\n      jumpi\n        /* \"ECMath.sol\":8055:8056  s */\n      dup6\n        /* \"ECMath.sol\":8055:8063  s.length */\n      mload\n        /* \"ECMath.sol\":8049:8063  end = s.length */\n      swap4\n      pop\n        /* \"ECMath.sol\":8035:8063  if (end == 0) end = s.length */\n    tag_441:\n        /* \"ECMath.sol\":8088:8093  start */\n      dup5\n        /* \"ECMath.sol\":8082:8085  end */\n      dup5\n        /* \"ECMath.sol\":8082:8093  end > start */\n      gt\n        /* \"ECMath.sol\":8074:8094  require(end > start) */\n      iszero\n      iszero\n      tag_442\n      jumpi\n      0x0\n      dup1\n      revert\n    tag_442:\n        /* \"ECMath.sol\":8165:8170  start */\n      dup5\n        /* \"ECMath.sol\":8163:8164  2 */\n      0x2\n        /* \"ECMath.sol\":8163:8170  2*start */\n      mul\n        /* \"ECMath.sol\":8147:8170  uint256 index = 2*start */\n      swap2\n      pop\n        /* \"ECMath.sol\":8188:8230  Multiply([P[index], P[index+1]], s[start]) */\n      tag_443\n      0x40\n      dup1\n      mload\n      swap1\n      dup2\n      add\n      0x40\n      mstore\n      dup1\n        /* \"ECMath.sol\":8198:8199  P */\n      dup10\n        /* \"ECMath.sol\":8200:8205  index */\n      dup6\n        /* \"ECMath.sol\":8198:8206  P[index] */\n      dup2\n      mload\n      dup2\n      lt\n      iszero\n      iszero\n      tag_444\n      jumpi\n      invalid\n    tag_444:\n      swap1\n      0x20\n      add\n      swap1\n      0x20\n      mul\n      add\n      mload\n        /* \"ECMath.sol\":8188:8230  Multiply([P[index], P[index+1]], s[start]) */\n      dup2\n      mstore\n      0x20\n      add\n        /* \"ECMath.sol\":8208:8209  P */\n      dup10\n        /* \"ECMath.sol\":8216:8217  1 */\n      0x1\n        /* \"ECMath.sol\":8210:8215  index */\n      dup7\n        /* \"ECMath.sol\":8210:8217  index+1 */\n      add\n        /* \"ECMath.sol\":8208:8218  P[index+1] */\n      dup2\n      mload\n      dup2\n      lt\n      iszero\n      iszero\n      tag_445\n      jumpi\n      invalid\n    tag_445:\n      swap1\n      0x20\n      add\n      swap1\n      0x20\n      mul\n      add\n      mload\n        /* \"ECMath.sol\":8188:8230  Multiply([P[index], P[index+1]], s[start]) */\n      dup2\n      mstore\n      pop\n        /* \"ECMath.sol\":8221:8222  s */\n      dup8\n        /* \"ECMath.sol\":8223:8228  start */\n      dup8\n        /* \"ECMath.sol\":8221:8229  s[start] */\n      dup2\n      mload\n      dup2\n      lt\n      iszero\n      iszero\n      tag_446\n      jumpi\n      invalid\n    tag_446:\n      swap1\n      0x20\n      add\n      swap1\n      0x20\n      mul\n      add\n      mload\n        /* \"ECMath.sol\":8188:8196  Multiply */\n      tag_192\n        /* \"ECMath.sol\":8188:8230  Multiply([P[index], P[index+1]], s[start]) */\n      jump\t// in\n    tag_443:\n        /* \"ECMath.sol\":8181:8230  Pout = Multiply([P[index], P[index+1]], s[start]) */\n      swap3\n      pop\n        /* \"ECMath.sol\":8250:8251  2 */\n      0x2\n        /* \"ECMath.sol\":8241:8251  index += 2 */\n      dup3\n      add\n      swap2\n      pop\n        /* \"ECMath.sol\":8350:8351  1 */\n      0x1\n        /* \"ECMath.sol\":8344:8349  start */\n      dup6\n        /* \"ECMath.sol\":8344:8351  start+1 */\n      add\n        /* \"ECMath.sol\":8340:8351  i = start+1 */\n      swap1\n      pop\n        /* \"ECMath.sol\":8335:8473  for (i = start+1; i < end; i++) {\r... */\n    tag_447:\n        /* \"ECMath.sol\":8357:8360  end */\n      dup4\n        /* \"ECMath.sol\":8353:8354  i */\n      dup2\n        /* \"ECMath.sol\":8353:8360  i < end */\n      lt\n        /* \"ECMath.sol\":8335:8473  for (i = start+1; i < end; i++) {\r... */\n      iszero\n      tag_448\n      jumpi\n        /* \"ECMath.sol\":8389:8436  AddMultiply(Pout, [P[index], P[index+1]], s[i]) */\n      tag_450\n        /* \"ECMath.sol\":8401:8405  Pout */\n      dup4\n        /* \"ECMath.sol\":8389:8436  AddMultiply(Pout, [P[index], P[index+1]], s[i]) */\n      0x40\n      dup1\n      mload\n      swap1\n      dup2\n      add\n      0x40\n      mstore\n      dup1\n        /* \"ECMath.sol\":8408:8409  P */\n      dup11\n        /* \"ECMath.sol\":8410:8415  index */\n      dup7\n        /* \"ECMath.sol\":8408:8416  P[index] */\n      dup2\n      mload\n      dup2\n      lt\n      iszero\n      iszero\n      tag_451\n      jumpi\n      invalid\n    tag_451:\n      swap1\n      0x20\n      add\n      swap1\n      0x20\n      mul\n      add\n      mload\n        /* \"ECMath.sol\":8389:8436  AddMultiply(Pout, [P[index], P[index+1]], s[i]) */\n      dup2\n      mstore\n      0x20\n      add\n        /* \"ECMath.sol\":8418:8419  P */\n      dup11\n        /* \"ECMath.sol\":8426:8427  1 */\n      0x1\n        /* \"ECMath.sol\":8420:8425  index */\n      dup8\n        /* \"ECMath.sol\":8420:8427  index+1 */\n      add\n        /* \"ECMath.sol\":8418:8428  P[index+1] */\n      dup2\n      mload\n      dup2\n      lt\n      iszero\n      iszero\n      tag_452\n      jumpi\n      invalid\n    tag_452:\n      swap1\n      0x20\n      add\n      swap1\n      0x20\n      mul\n      add\n      mload\n        /* \"ECMath.sol\":8389:8436  AddMultiply(Pout, [P[index], P[index+1]], s[i]) */\n      dup2\n      mstore\n      pop\n        /* \"ECMath.sol\":8431:8432  s */\n      dup9\n        /* \"ECMath.sol\":8433:8434  i */\n      dup5\n        /* \"ECMath.sol\":8431:8435  s[i] */\n      dup2\n      mload\n      dup2\n      lt\n      iszero\n      iszero\n      tag_453\n      jumpi\n      invalid\n    tag_453:\n      swap1\n      0x20\n      add\n      swap1\n      0x20\n      mul\n      add\n      mload\n        /* \"ECMath.sol\":8389:8400  AddMultiply */\n      tag_147\n        /* \"ECMath.sol\":8389:8436  AddMultiply(Pout, [P[index], P[index+1]], s[i]) */\n      jump\t// in\n    tag_450:\n        /* \"ECMath.sol\":8382:8436  Pout = AddMultiply(Pout, [P[index], P[index+1]], s[i]) */\n      swap3\n      pop\n        /* \"ECMath.sol\":8460:8461  2 */\n      0x2\n        /* \"ECMath.sol\":8451:8461  index += 2 */\n      dup3\n      add\n      swap2\n      pop\n        /* \"ECMath.sol\":8362:8365  i++ */\n      dup1\n      dup1\n      0x1\n      add\n      swap2\n      pop\n      pop\n        /* \"ECMath.sol\":8335:8473  for (i = start+1; i < end; i++) {\r... */\n      jump(tag_447)\n    tag_448:\n        /* \"ECMath.sol\":7785:8480  function MultiExp(uint256[] P, uint256[] s, uint256 start, uint256 end)\r... */\n      pop\n      pop\n      swap5\n      swap4\n      pop\n      pop\n      pop\n      pop\n      jump\t// out\n        /* \"ECMath.sol\":1180:1249  function GetPCurve() public pure returns (uint256) { return PCurve; } */\n    tag_186:\n        /* \"ECMath.sol\":1222:1229  uint256 */\n      0x0\n        /* \"ECMath.sol\":377:443  0x30644e72e131a029b85045b68181585d97816a916871ca8d3c208c16d87cfd47 */\n      0x30644e72e131a029b85045b68181585d97816a916871ca8d3c208c16d87cfd47\n        /* \"ECMath.sol\":1233:1246  return PCurve */\n      swap1\n      pop\n        /* \"ECMath.sol\":1180:1249  function GetPCurve() public pure returns (uint256) { return PCurve; } */\n      swap1\n      jump\t// out\n        /* \"Debuggable.sol\":288:358  function Kill() public ownerOnly {\r... */\n    tag_189:\n        /* \"Debuggable.sol\":226:231  owner */\n      0x0\n      dup1\n      swap1\n      sload\n      swap1\n      0x100\n      exp\n      swap1\n      div\n      0xffffffffffffffffffffffffffffffffffffffff\n      and\n        /* \"Debuggable.sol\":212:231  msg.sender != owner */\n      0xffffffffffffffffffffffffffffffffffffffff\n      and\n        /* \"Debuggable.sol\":212:222  msg.sender */\n      caller\n        /* \"Debuggable.sol\":212:231  msg.sender != owner */\n      0xffffffffffffffffffffffffffffffffffffffff\n      and\n      eq\n      iszero\n        /* \"Debuggable.sol\":211:248  (msg.sender != owner) && (owner != 0) */\n      dup1\n      iszero\n      tag_456\n      jumpi\n      pop\n        /* \"Debuggable.sol\":246:247  0 */\n      0x0\n        /* \"Debuggable.sol\":237:242  owner */\n      dup1\n      0x0\n      swap1\n      sload\n      swap1\n      0x100\n      exp\n      swap1\n      div\n      0xffffffffffffffffffffffffffffffffffffffff\n      and\n        /* \"Debuggable.sol\":237:247  owner != 0 */\n      0xffffffffffffffffffffffffffffffffffffffff\n      and\n      eq\n      iszero\n        /* \"Debuggable.sol\":211:248  (msg.sender != owner) && (owner != 0) */\n    tag_456:\n        /* \"Debuggable.sol\":206:259  if ( (msg.sender != owner) && (owner != 0) ) revert() */\n      iszero\n      tag_457\n      jumpi\n        /* \"Debuggable.sol\":251:259  revert() */\n      0x0\n      dup1\n      revert\n        /* \"Debuggable.sol\":206:259  if ( (msg.sender != owner) && (owner != 0) ) revert() */\n    tag_457:\n        /* \"Debuggable.sol\":342:352  msg.sender */\n      caller\n        /* \"Debuggable.sol\":329:353  selfdestruct(msg.sender) */\n      0xffffffffffffffffffffffffffffffffffffffff\n      and\n      selfdestruct\n        /* \"ECMath.sol\":4682:5392  function Multiply(uint256[2] p0, uint256 s)\r... */\n    tag_192:\n        /* \"ECMath.sol\":4757:4770  uint256[2] p1 */\n      tag_459\n      jump\t// in(tag_218)\n    tag_459:\n        /* \"ECMath.sol\":4854:4858  0x40 */\n      0x40\n        /* \"ECMath.sol\":4848:4859  mload(0x40) */\n      mload\n        /* \"ECMath.sol\":4935:4937  p0 */\n      dup4\n        /* \"ECMath.sol\":4929:4938  mload(p0) */\n      mload\n        /* \"ECMath.sol\":4926:4927  p */\n      dup2\n        /* \"ECMath.sol\":4919:4939  mstore(p, mload(p0)) */\n      mstore\n        /* \"ECMath.sol\":4985:4989  0x20 */\n      0x20\n        /* \"ECMath.sol\":4981:4983  p0 */\n      dup5\n        /* \"ECMath.sol\":4977:4990  add(p0, 0x20) */\n      add\n        /* \"ECMath.sol\":4971:4991  mload(add(p0, 0x20)) */\n      mload\n        /* \"ECMath.sol\":4964:4968  0x20 */\n      0x20\n        /* \"ECMath.sol\":4961:4962  p */\n      dup3\n        /* \"ECMath.sol\":4957:4969  add(p, 0x20) */\n      add\n        /* \"ECMath.sol\":4950:4992  mstore(add(p, 0x20), mload(add(p0, 0x20))) */\n      mstore\n        /* \"ECMath.sol\":5024:5025  s */\n      dup3\n        /* \"ECMath.sol\":5017:5021  0x40 */\n      0x40\n        /* \"ECMath.sol\":5014:5015  p */\n      dup3\n        /* \"ECMath.sol\":5010:5022  add(p, 0x40) */\n      add\n        /* \"ECMath.sol\":5003:5026  mstore(add(p, 0x40), s) */\n      mstore\n        /* \"ECMath.sol\":5128:5132  0x40 */\n      0x40\n        /* \"ECMath.sol\":5125:5126  p */\n      dup2\n        /* \"ECMath.sol\":5119:5123  0x60 */\n      0x60\n        /* \"ECMath.sol\":5116:5117  p */\n      dup4\n        /* \"ECMath.sol\":5113:5114  0 */\n      0x0\n        /* \"ECMath.sol\":5107:5111  0x07 */\n      0x7\n        /* \"ECMath.sol\":5100:5104  2000 */\n      0x7d0\n        /* \"ECMath.sol\":5095:5098  gas */\n      gas\n        /* \"ECMath.sol\":5091:5105  sub(gas, 2000) */\n      sub\n        /* \"ECMath.sol\":5086:5133  call(sub(gas, 2000), 0x07, 0, p, 0x60, p, 0x40) */\n      call\n        /* \"ECMath.sol\":5218:5225  success */\n      dup1\n        /* \"ECMath.sol\":5231:5232  0 */\n      0x0\n        /* \"ECMath.sol\":5226:5252  case 0 { revert(p, 0x80) } */\n      dup2\n      eq\n      tag_462\n      jumpi\n        /* \"ECMath.sol\":5211:5252  switch success case 0 { revert(p, 0x80) } */\n      jump(tag_461)\n        /* \"ECMath.sol\":5226:5252  case 0 { revert(p, 0x80) } */\n    tag_462:\n        /* \"ECMath.sol\":5245:5249  0x80 */\n      0x80\n        /* \"ECMath.sol\":5242:5243  p */\n      dup4\n        /* \"ECMath.sol\":5235:5250  revert(p, 0x80) */\n      revert\n        /* \"ECMath.sol\":5211:5252  switch success case 0 { revert(p, 0x80) } */\n    tag_461:\n      pop\n        /* \"ECMath.sol\":5324:5325  p */\n      dup2\n        /* \"ECMath.sol\":5318:5326  mload(p) */\n      mload\n        /* \"ECMath.sol\":5314:5316  p1 */\n      dup4\n        /* \"ECMath.sol\":5307:5327  mstore(p1, mload(p)) */\n      mstore\n        /* \"ECMath.sol\":5373:5377  0x20 */\n      0x20\n        /* \"ECMath.sol\":5371:5372  p */\n      dup3\n        /* \"ECMath.sol\":5367:5378  add(p,0x20) */\n      add\n        /* \"ECMath.sol\":5361:5379  mload(add(p,0x20)) */\n      mload\n        /* \"ECMath.sol\":5354:5358  0x20 */\n      0x20\n        /* \"ECMath.sol\":5350:5352  p1 */\n      dup5\n        /* \"ECMath.sol\":5346:5359  add(p1, 0x20) */\n      add\n        /* \"ECMath.sol\":5339:5380  mstore(add(p1, 0x20), mload(add(p,0x20))) */\n      mstore\n        /* \"ECMath.sol\":4791:5388  {\r... */\n      pop\n      pop\n      swap3\n      swap2\n      pop\n      pop\n      jump\t// out\n        /* \"ECMath.sol\":969:1031  function GetH() public view returns (uint256[2]) { return H; } */\n    tag_198:\n        /* \"ECMath.sol\":1006:1016  uint256[2] */\n      tag_463\n      jump\t// in(tag_218)\n    tag_463:\n        /* \"ECMath.sol\":1027:1028  H */\n      0x3\n        /* \"ECMath.sol\":1020:1028  return H */\n      0x2\n      dup1\n      0x20\n      mul\n      mload(0x40)\n      swap1\n      dup2\n      add\n      0x40\n      mstore\n      dup1\n      swap3\n      swap2\n      swap1\n      dup3\n      0x2\n      dup1\n      iszero\n      tag_465\n      jumpi\n      0x20\n      mul\n      dup3\n      add\n      swap2\n    tag_466:\n      dup2\n      sload\n      dup2\n      mstore\n      0x20\n      add\n      swap1\n      0x1\n      add\n      swap1\n      dup1\n      dup4\n      gt\n      tag_466\n      jumpi\n    tag_465:\n      pop\n      pop\n      pop\n      pop\n      pop\n      swap1\n      pop\n        /* \"ECMath.sol\":969:1031  function GetH() public view returns (uint256[2]) { return H; } */\n      swap1\n      jump\t// out\n        /* \"ECMath.sol\":7324:7736  function VectorMul(uint256[] X, uint256[] s)\r... */\n    tag_204:\n        /* \"ECMath.sol\":7397:7408  uint256[] Z */\n      0x60\n        /* \"ECMath.sol\":7519:7528  uint256 i */\n      0x0\n        /* \"ECMath.sol\":7533:7546  uint256 index */\n      dup1\n        /* \"ECMath.sol\":7551:7573  uint256[2] memory temp */\n      tag_467\n      jump\t// in(tag_218)\n    tag_467:\n        /* \"ECMath.sol\":7436:7437  0 */\n      0x0\n        /* \"ECMath.sol\":7425:7426  s */\n      dup6\n        /* \"ECMath.sol\":7425:7433  s.length */\n      mload\n        /* \"ECMath.sol\":7425:7437  s.length > 0 */\n      gt\n        /* \"ECMath.sol\":7417:7438  require(s.length > 0) */\n      iszero\n      iszero\n      tag_469\n      jumpi\n      0x0\n      dup1\n      revert\n    tag_469:\n        /* \"ECMath.sol\":7472:7473  2 */\n      0x2\n        /* \"ECMath.sol\":7463:7464  s */\n      dup6\n        /* \"ECMath.sol\":7463:7471  s.length */\n      mload\n        /* \"ECMath.sol\":7463:7473  s.length*2 */\n      mul\n        /* \"ECMath.sol\":7451:7452  X */\n      dup7\n        /* \"ECMath.sol\":7451:7459  X.length */\n      mload\n        /* \"ECMath.sol\":7451:7473  X.length == s.length*2 */\n      eq\n        /* \"ECMath.sol\":7443:7474  require(X.length == s.length*2) */\n      iszero\n      iszero\n      tag_470\n      jumpi\n      0x0\n      dup1\n      revert\n    tag_470:\n        /* \"ECMath.sol\":7501:7502  X */\n      dup6\n        /* \"ECMath.sol\":7501:7509  X.length */\n      mload\n        /* \"ECMath.sol\":7487:7510  new uint256[](X.length) */\n      mload(0x40)\n      swap1\n      dup1\n      dup3\n      mstore\n      dup1\n      0x20\n      mul\n      0x20\n      add\n      dup3\n      add\n      0x40\n      mstore\n      dup1\n      iszero\n      tag_471\n      jumpi\n      dup2\n      0x20\n      add\n        /* \"--CODEGEN--\":29:31   */\n      0x20\n        /* \"--CODEGEN--\":21:27   */\n      dup3\n        /* \"--CODEGEN--\":17:32   */\n      mul\n        /* \"--CODEGEN--\":117:121   */\n      dup1\n        /* \"--CODEGEN--\":105:115   */\n      codesize\n        /* \"--CODEGEN--\":97:103   */\n      dup4\n        /* \"--CODEGEN--\":88:122   */\n      codecopy\n        /* \"--CODEGEN--\":148:152   */\n      dup1\n        /* \"--CODEGEN--\":140:146   */\n      dup3\n        /* \"--CODEGEN--\":136:153   */\n      add\n        /* \"--CODEGEN--\":126:153   */\n      swap2\n      pop\n        /* \"--CODEGEN--\":0:157   */\n      pop\n        /* \"ECMath.sol\":7487:7510  new uint256[](X.length) */\n      swap1\n      pop\n    tag_471:\n      pop\n        /* \"ECMath.sol\":7483:7510  Z = new uint256[](X.length) */\n      swap4\n      pop\n        /* \"ECMath.sol\":7587:7588  0 */\n      0x0\n        /* \"ECMath.sol\":7583:7588  i = 0 */\n      swap3\n      pop\n        /* \"ECMath.sol\":7578:7732  for (i = 0; i < s.length; i++) {\r... */\n    tag_472:\n        /* \"ECMath.sol\":7594:7595  s */\n      dup5\n        /* \"ECMath.sol\":7594:7602  s.length */\n      mload\n        /* \"ECMath.sol\":7590:7591  i */\n      dup4\n        /* \"ECMath.sol\":7590:7602  i < s.length */\n      lt\n        /* \"ECMath.sol\":7578:7732  for (i = 0; i < s.length; i++) {\r... */\n      iszero\n      tag_473\n      jumpi\n        /* \"ECMath.sol\":7625:7626  i */\n      dup3\n        /* \"ECMath.sol\":7623:7624  2 */\n      0x2\n        /* \"ECMath.sol\":7623:7626  2*i */\n      mul\n        /* \"ECMath.sol\":7615:7626  index = 2*i */\n      swap2\n      pop\n        /* \"ECMath.sol\":7639:7677  Multiply([X[index], X[index+1]], s[i]) */\n      tag_475\n      0x40\n      dup1\n      mload\n      swap1\n      dup2\n      add\n      0x40\n      mstore\n      dup1\n        /* \"ECMath.sol\":7649:7650  X */\n      dup9\n        /* \"ECMath.sol\":7651:7656  index */\n      dup6\n        /* \"ECMath.sol\":7649:7657  X[index] */\n      dup2\n      mload\n      dup2\n      lt\n      iszero\n      iszero\n      tag_476\n      jumpi\n      invalid\n    tag_476:\n      swap1\n      0x20\n      add\n      swap1\n      0x20\n      mul\n      add\n      mload\n        /* \"ECMath.sol\":7639:7677  Multiply([X[index], X[index+1]], s[i]) */\n      dup2\n      mstore\n      0x20\n      add\n        /* \"ECMath.sol\":7659:7660  X */\n      dup9\n        /* \"ECMath.sol\":7667:7668  1 */\n      0x1\n        /* \"ECMath.sol\":7661:7666  index */\n      dup7\n        /* \"ECMath.sol\":7661:7668  index+1 */\n      add\n        /* \"ECMath.sol\":7659:7669  X[index+1] */\n      dup2\n      mload\n      dup2\n      lt\n      iszero\n      iszero\n      tag_477\n      jumpi\n      invalid\n    tag_477:\n      swap1\n      0x20\n      add\n      swap1\n      0x20\n      mul\n      add\n      mload\n        /* \"ECMath.sol\":7639:7677  Multiply([X[index], X[index+1]], s[i]) */\n      dup2\n      mstore\n      pop\n        /* \"ECMath.sol\":7672:7673  s */\n      dup7\n        /* \"ECMath.sol\":7674:7675  i */\n      dup6\n        /* \"ECMath.sol\":7672:7676  s[i] */\n      dup2\n      mload\n      dup2\n      lt\n      iszero\n      iszero\n      tag_478\n      jumpi\n      invalid\n    tag_478:\n      swap1\n      0x20\n      add\n      swap1\n      0x20\n      mul\n      add\n      mload\n        /* \"ECMath.sol\":7639:7647  Multiply */\n      tag_192\n        /* \"ECMath.sol\":7639:7677  Multiply([X[index], X[index+1]], s[i]) */\n      jump\t// in\n    tag_475:\n        /* \"ECMath.sol\":7632:7677  temp = Multiply([X[index], X[index+1]], s[i]) */\n      swap1\n      pop\n        /* \"ECMath.sol\":7709:7713  temp */\n      dup1\n        /* \"ECMath.sol\":7714:7715  0 */\n      0x0\n        /* \"ECMath.sol\":7709:7716  temp[0] */\n      0x2\n      dup2\n      lt\n      iszero\n      iszero\n      tag_479\n      jumpi\n      invalid\n    tag_479:\n      0x20\n      mul\n      add\n      mload\n        /* \"ECMath.sol\":7718:7722  temp */\n      dup2\n        /* \"ECMath.sol\":7723:7724  1 */\n      0x1\n        /* \"ECMath.sol\":7718:7725  temp[1] */\n      0x2\n      dup2\n      lt\n      iszero\n      iszero\n      tag_480\n      jumpi\n      invalid\n    tag_480:\n      0x20\n      mul\n      add\n      mload\n        /* \"ECMath.sol\":7684:7685  Z */\n      dup6\n        /* \"ECMath.sol\":7686:7691  index */\n      dup5\n        /* \"ECMath.sol\":7684:7692  Z[index] */\n      dup2\n      mload\n      dup2\n      lt\n      iszero\n      iszero\n      tag_481\n      jumpi\n      invalid\n    tag_481:\n      swap1\n      0x20\n      add\n      swap1\n      0x20\n      mul\n      add\n        /* \"ECMath.sol\":7694:7695  Z */\n      dup7\n        /* \"ECMath.sol\":7702:7703  1 */\n      0x1\n        /* \"ECMath.sol\":7696:7701  index */\n      dup7\n        /* \"ECMath.sol\":7696:7703  index+1 */\n      add\n        /* \"ECMath.sol\":7694:7704  Z[index+1] */\n      dup2\n      mload\n      dup2\n      lt\n      iszero\n      iszero\n      tag_482\n      jumpi\n      invalid\n    tag_482:\n      swap1\n      0x20\n      add\n      swap1\n      0x20\n      mul\n      add\n        /* \"ECMath.sol\":7683:7726  (Z[index], Z[index+1]) = (temp[0], temp[1]) */\n      dup3\n      dup2\n      mstore\n      pop\n      dup3\n      dup2\n      mstore\n      pop\n      pop\n      pop\n        /* \"ECMath.sol\":7604:7607  i++ */\n      dup3\n      dup1\n      0x1\n      add\n      swap4\n      pop\n      pop\n        /* \"ECMath.sol\":7578:7732  for (i = 0; i < s.length; i++) {\r... */\n      jump(tag_472)\n    tag_473:\n        /* \"ECMath.sol\":7324:7736  function VectorMul(uint256[] X, uint256[] s)\r... */\n      pop\n      pop\n      pop\n      swap3\n      swap2\n      pop\n      pop\n      jump\t// out\n        /* \"ECMath.sol\":1108:1177  function GetNCurve() public pure returns (uint256) { return NCurve; } */\n    tag_210:\n        /* \"ECMath.sol\":1150:1157  uint256 */\n      0x0\n        /* \"ECMath.sol\":273:339  0x30644e72e131a029b85045b68181585d2833e84879b9709143e1f593f0000001 */\n      0x30644e72e131a029b85045b68181585d2833e84879b9709143e1f593f0000001\n        /* \"ECMath.sol\":1161:1174  return NCurve */\n      swap1\n      pop\n        /* \"ECMath.sol\":1108:1177  function GetNCurve() public pure returns (uint256) { return NCurve; } */\n      swap1\n      jump\t// out\n        /* \"ECMath.sol\":6368:6531  function CommitG1H(uint256 s_G1, uint256 s_H)\r... */\n    tag_213:\n        /* \"ECMath.sol\":6448:6461  uint256[2] p0 */\n      tag_484\n      jump\t// in(tag_218)\n    tag_484:\n        /* \"ECMath.sol\":6486:6523  Add(MultiplyG1(s_G1), MultiplyH(s_H)) */\n      tag_486\n        /* \"ECMath.sol\":6490:6506  MultiplyG1(s_G1) */\n      tag_487\n        /* \"ECMath.sol\":6501:6505  s_G1 */\n      dup5\n        /* \"ECMath.sol\":6490:6500  MultiplyG1 */\n      tag_45\n        /* \"ECMath.sol\":6490:6506  MultiplyG1(s_G1) */\n      jump\t// in\n    tag_487:\n        /* \"ECMath.sol\":6508:6522  MultiplyH(s_H) */\n      tag_488\n        /* \"ECMath.sol\":6518:6521  s_H */\n      dup5\n        /* \"ECMath.sol\":6508:6517  MultiplyH */\n      tag_102\n        /* \"ECMath.sol\":6508:6522  MultiplyH(s_H) */\n      jump\t// in\n    tag_488:\n        /* \"ECMath.sol\":6486:6489  Add */\n      tag_51\n        /* \"ECMath.sol\":6486:6523  Add(MultiplyG1(s_G1), MultiplyH(s_H)) */\n      jump\t// in\n    tag_486:\n        /* \"ECMath.sol\":6479:6523  return Add(MultiplyG1(s_G1), MultiplyH(s_H)) */\n      swap1\n      pop\n        /* \"ECMath.sol\":6368:6531  function CommitG1H(uint256 s_G1, uint256 s_H)\r... */\n      swap3\n      swap2\n      pop\n      pop\n      jump\t// out\n        /* \"ECMath.sol\":58:12599  contract ECMath is Debuggable {\r... */\n    tag_218:\n      0x40\n      dup1\n      mload\n      swap1\n      dup2\n      add\n      0x40\n      mstore\n      dup1\n      0x2\n      swap1\n        /* \"--CODEGEN--\":29:31   */\n      0x20\n        /* \"--CODEGEN--\":21:27   */\n      dup3\n        /* \"--CODEGEN--\":17:32   */\n      mul\n        /* \"--CODEGEN--\":117:121   */\n      dup1\n        /* \"--CODEGEN--\":105:115   */\n      codesize\n        /* \"--CODEGEN--\":97:103   */\n      dup4\n        /* \"--CODEGEN--\":88:122   */\n      codecopy\n        /* \"--CODEGEN--\":148:152   */\n      dup1\n        /* \"--CODEGEN--\":140:146   */\n      dup3\n        /* \"--CODEGEN--\":136:153   */\n      add\n        /* \"--CODEGEN--\":126:153   */\n      swap2\n      pop\n        /* \"--CODEGEN--\":0:157   */\n      pop\n        /* \"ECMath.sol\":58:12599  contract ECMath is Debuggable {\r... */\n      swap1\n      pop\n      pop\n      swap1\n      jump\t// out\n    tag_410:\n      dup3\n      dup1\n      sload\n      dup3\n      dup3\n      sstore\n      swap1\n      0x0\n      mstore\n      keccak256(0x0, 0x20)\n      swap1\n      dup2\n      add\n      swap3\n      dup3\n      iszero\n      tag_489\n      jumpi\n      swap2\n      0x20\n      mul\n      dup3\n      add\n    tag_490:\n      dup3\n      dup2\n      gt\n      iszero\n      tag_491\n      jumpi\n      dup3\n      mload\n      dup3\n      sstore\n      swap2\n      0x20\n      add\n      swap2\n      swap1\n      0x1\n      add\n      swap1\n      jump(tag_490)\n    tag_491:\n    tag_489:\n      pop\n      swap1\n      pop\n      tag_492\n      swap2\n      swap1\n      jump\t// in(tag_493)\n    tag_492:\n      pop\n      swap1\n      jump\t// out\n    tag_493:\n      tag_494\n      swap2\n      swap1\n    tag_495:\n      dup1\n      dup3\n      gt\n      iszero\n      tag_496\n      jumpi\n      0x0\n      dup2\n      0x0\n      swap1\n      sstore\n      pop\n      0x1\n      add\n      jump(tag_495)\n    tag_496:\n      pop\n      swap1\n      jump\n    tag_494:\n      swap1\n      jump\t// out\n\n    auxdata: 0xa165627a7a723058208889056c51c883c8e8d9173e0782df7ea602cd7bf6316e8ce7ab5ce365e570af0029\n}\n",
				"bytecode": {
					"linkReferences": {},
					"object": "60806040523480156200001157600080fd5b506040516020806200358c83398101806040528101908080519060200190929190505050336000806101000a81548173ffffffffffffffffffffffffffffffffffffffff021916908373ffffffffffffffffffffffffffffffffffffffff160217905550604080519081016040528060018152602001600281525060019060026200009e92919062000825565b50620000f86001600280602002604051908101604052809291908260028015620000de576020028201915b815481526020019060010190808311620000c9575b505050505062000156640100000000026401000000009004565b60039060026200010a92919062000825565b50604080519081016040528060008152602001600081525060059060026200013492919062000825565b506200014f816200028a640100000000026401000000009004565b5062000906565b620001606200086a565b60007f30644e72e131a029b85045b68181585d97816a916871ca8d3c208c16d87cfd476200019d8462000667640100000000026401000000009004565b811515620001a757fe5b06826000600281101515620001b857fe5b602002018181525050600090505b8015156200028457620001fc826000600281101515620001e257fe5b6020020151620006ba640100000000026401000000009004565b8360016002811015156200020c57fe5b602002018193508281525050508015156200027e577f30644e72e131a029b85045b68181585d97816a916871ca8d3c208c16d87cfd478015156200024c57fe5b60018360006002811015156200025e57fe5b6020020151088260006002811015156200027457fe5b6020020181815250505b620001c6565b50919050565b60006060806000806200029c6200086a565b6000809054906101000a900473ffffffffffffffffffffffffffffffffffffffff1673ffffffffffffffffffffffffffffffffffffffff163373ffffffffffffffffffffffffffffffffffffffff161415801562000332575060008060009054906101000a900473ffffffffffffffffffffffffffffffffffffffff1673ffffffffffffffffffffffffffffffffffffffff1614155b156200033d57600080fd5b60026007805490508115156200034f57fe5b049550858711156200065e57600287026040519080825280602002602001820160405280156200038e5781602001602082028038833980820191505090505b50945060028702604051908082528060200260200182016040528015620003c45781602001602082028038833980820191505090505b509350600092505b6007805490508310156200045857600783815481101515620003ea57fe5b906000526020600020015485848151811015156200040457fe5b90602001906020020181815250506008838154811015156200042257fe5b906000526020600020015484848151811015156200043c57fe5b90602001906020020181815250508280600101935050620003cc565b6000861415620004aa5760036002806020026040519081016040528092919082600280156200049d576020028201915b81548152602001906001019080831162000488575b5050505050905062000504565b60026008805490500391506040805190810160405280600884815481101515620004d057fe5b90600052602060002001548152602001600860018501815481101515620004f357fe5b906000526020600020015481525090505b8592505b868310156200062b57826002029150620005318162000156640100000000026401000000009004565b90508060006002811015156200054357fe5b60200201518160016002811015156200055857fe5b602002015186848151811015156200056c57fe5b90602001906020020187600186018151811015156200058757fe5b90602001906020020182815250828152505050620005b48162000156640100000000026401000000009004565b9050806000600281101515620005c657fe5b6020020151816001600281101515620005db57fe5b60200201518584815181101515620005ef57fe5b90602001906020020186600186018151811015156200060a57fe5b90602001906020020182815250828152505050828060010193505062000508565b8460079080519060200190620006439291906200088c565b5083600890805190602001906200065c9291906200088c565b505b50505050505050565b60008160006002811015156200067957fe5b60200201518260016002811015156200068e57fe5b602002015160405180838152602001828152602001925050506040518091039020600190049050919050565b60008060008060007f30644e72e131a029b85045b68181585d97816a916871ca8d3c208c16d87cfd47801515620006ed57fe5b86870992507f30644e72e131a029b85045b68181585d97816a916871ca8d3c208c16d87cfd478015156200071d57fe5b86840992507f30644e72e131a029b85045b68181585d97816a916871ca8d3c208c16d87cfd478015156200074d57fe5b6003840892507f30644e72e131a029b85045b68181585d97816a916871ca8d3c208c16d87cfd4791507f0c19139cb84c680a6e14116da060561765e05aa45a1c72a34f082305b61f3f52905060405160208152602080820152602060408201528360608201528160808201528260a082015260208160c083600060056107d05a03f18060008114620007df57620007e4565b60c083fd5b508151965050507f30644e72e131a029b85045b68181585d97816a916871ca8d3c208c16d87cfd478015156200081657fe5b85860983149350505050915091565b826002810192821562000857579160200282015b828111156200085657825182559160200191906001019062000839565b5b509050620008669190620008de565b5090565b6040805190810160405280600290602082028038833980820191505090505090565b828054828255906000526020600020908101928215620008cb579160200282015b82811115620008ca578251825591602001919060010190620008ad565b5b509050620008da9190620008de565b5090565b6200090391905b80821115620008ff576000816000905550600101620008e5565b5090565b90565b612c7680620009166000396000f3006080604052600436106101b7576000357c0100000000000000000000000000000000000000000000000000000000900463ffffffff168063012421f9146101bc5780630819336a146102545780630c753fe8146102bd57806316491f3e1461037a5780631bea22e6146103e35780631ce9d8951461045057806320cebc5c146104e957806337a8b202146105e75780633b4c2ede146106795780635da7f69e1461073e5780635f033797146107a75780636032fc3f14610835578063639649c4146108c357806366230bd91461092c57806371b1c16114610978578063758bad98146109de57806380bca97914610a44578063841675c914610b015780638ac1c8d414610c9b5780638b05a64a14610d655780638da5cb5b14610d925780639c050a4a14610de9578063a77a970d14610eb0578063ad4310f514610edb578063ae5d39f614611003578063b0f5c83a14611056578063b866cf29146110ee578063ba7d397714611141578063bab5064c1461123a578063be26733c14611265578063c025d89b1461127c578063c1eeb1fe14611314578063cf60976a14611367578063d1ff535b14611465578063e76f8e6614611490575b600080fd5b3480156101c857600080fd5b50610216600480360381019080806040019060028060200260405190810160405280929190826002602002808284378201915050505050919291929080359060200190929190505050611503565b6040518082600260200280838360005b83811015610241578082015181840152602081019050610226565b5050505090500191505060405180910390f35b34801561026057600080fd5b5061027f6004803603810190808035906020019092919050505061155b565b6040518082600260200280838360005b838110156102aa57808201518184015260208101905061028f565b5050505090500191505060405180910390f35b3480156102c957600080fd5b5061033c600480360381019080806040019060028060200260405190810160405280929190826002602002808284378201915050505050919291929080604001906002806020026040519081016040528092919082600260200280828437820191505050505091929192905050506115b1565b6040518082600260200280838360005b8381101561036757808201518184015260208101905061034c565b5050505090500191505060405180910390f35b34801561038657600080fd5b506103a560048036038101908080359060200190929190505050611615565b6040518082600260200280838360005b838110156103d05780820151818401526020810190506103b5565b5050505090500191505060405180910390f35b3480156103ef57600080fd5b5061040e6004803603810190808035906020019092919050505061166b565b604051808273ffffffffffffffffffffffffffffffffffffffff1673ffffffffffffffffffffffffffffffffffffffff16815260200191505060405180910390f35b34801561045c57600080fd5b506104cf60048036038101908080604001906002806020026040519081016040528092919082600260200280828437820191505050505091929192908060400190600280602002604051908101604052809291908260026020028082843782019150505050509192919290505050611685565b604051808215151515815260200191505060405180910390f35b3480156104f557600080fd5b5061059060048036038101908080359060200190820180359060200190808060200260200160405190810160405280939291908181526020018383602002808284378201915050505050509192919290803590602001908201803590602001908080602002602001604051908101604052809392919081815260200183836020028082843782019150505050505091929192905050506116e9565b6040518080602001828103825283818151815260200191508051906020019060200280838360005b838110156105d35780820151818401526020810190506105b8565b505050509050019250505060405180910390f35b3480156105f357600080fd5b50610637600480360381019080806040019060028060200260405190810160405280929190826002602002808284378201915050505050919291929050505061187e565b604051808273ffffffffffffffffffffffffffffffffffffffff1673ffffffffffffffffffffffffffffffffffffffff16815260200191505060405180910390f35b34801561068557600080fd5b506106e760048036038101908080359060200190820180359060200190808060200260200160405190810160405280939291908181526020018383602002808284378201915050505050509192919290803590602001909291905050506118cf565b6040518080602001828103825283818151815260200191508051906020019060200280838360005b8381101561072a57808201518184015260208101905061070f565b505050509050019250505060405180910390f35b34801561074a57600080fd5b5061076960048036038101908080359060200190929190505050611a0f565b6040518082600260200280838360005b83811015610794578082015181840152602081019050610779565b5050505090500191505060405180910390f35b3480156107b357600080fd5b506107f76004803603810190808060400190600280602002604051908101604052809291908260026020028082843782019150505050509192919290505050611ba3565b6040518082600260200280838360005b83811015610822578082015181840152602081019050610807565b5050505090500191505060405180910390f35b34801561084157600080fd5b506108856004803603810190808060400190600280602002604051908101604052809291908260026020028082843782019150505050509192919290505050611c55565b6040518082600260200280838360005b838110156108b0578082015181840152602081019050610895565b5050505090500191505060405180910390f35b3480156108cf57600080fd5b506108ee60048036038101908080359060200190929190505050611d5b565b6040518082600260200280838360005b838110156109195780820151818401526020810190506108fe565b5050505090500191505060405180910390f35b34801561093857600080fd5b5061095760048036038101908080359060200190929190505050611db1565b60405180838152602001821515151581526020019250505060405180910390f35b34801561098457600080fd5b506109c86004803603810190808060400190600280602002604051908101604052809291908260026020028082843782019150505050509192919290505050611f16565b6040518082815260200191505060405180910390f35b3480156109ea57600080fd5b50610a2e6004803603810190808060400190600280602002604051908101604052809291908260026020028082843782019150505050509192919290505050611f77565b6040518082815260200191505060405180910390f35b348015610a5057600080fd5b50610ac360048036038101908080604001906002806020026040519081016040528092919082600260200280828437820191505050505091929192908060400190600280602002604051908101604052809291908260026020028082843782019150505050509192919290505050611fc8565b6040518082600260200280838360005b83811015610aee578082015181840152602081019050610ad3565b5050505090500191505060405180910390f35b348015610b0d57600080fd5b50610c2e60048036038101908080359060200190820180359060200190808060200260200160405190810160405280939291908181526020018383602002808284378201915050505050509192919290803590602001908201803590602001908080602002602001604051908101604052809392919081815260200183836020028082843782019150505050505091929192908035906020019082018035906020019080806020026020016040519081016040528093929190818152602001838360200280828437820191505050505050919291929080359060200190820180359060200190808060200260200160405190810160405280939291908181526020018383602002808284378201915050505050509192919290505050611fea565b6040518083600260200280838360005b83811015610c59578082015181840152602081019050610c3e565b5050505090500182600260200280838360005b83811015610c87578082015181840152602081019050610c6c565b505050509050019250505060405180910390f35b348015610ca757600080fd5b50610cc660048036038101908080359060200190929190505050612021565b604051808060200180602001838103835285818151815260200191508051906020019060200280838360005b83811015610d0d578082015181840152602081019050610cf2565b50505050905001838103825284818151815260200191508051906020019060200280838360005b83811015610d4f578082015181840152602081019050610d34565b5050505090500194505050505060405180910390f35b348015610d7157600080fd5b50610d9060048036038101908080359060200190929190505050612208565b005b348015610d9e57600080fd5b50610da76125a1565b604051808273ffffffffffffffffffffffffffffffffffffffff1673ffffffffffffffffffffffffffffffffffffffff16815260200191505060405180910390f35b348015610df557600080fd5b50610e7260048036038101908080604001906002806020026040519081016040528092919082600260200280828437820191505050505091929192908060400190600280602002604051908101604052809291908260026020028082843782019150505050509192919290803590602001909291905050506125c6565b6040518082600260200280838360005b83811015610e9d578082015181840152602081019050610e82565b5050505090500191505060405180910390f35b348015610ebc57600080fd5b50610ec56125ea565b6040518082815260200191505060405180910390f35b348015610ee757600080fd5b50610fc5600480360381019080806040019060028060200260405190810160405280929190826002602002808284378201915050505050919291929080359060200190820180359060200190808060200260200160405190810160405280939291908181526020018383602002808284378201915050505050509192919290803590602001908201803590602001908080602002602001604051908101604052809392919081815260200183836020028082843782019150505050505091929192908035906020019092919080359060200190929190505050612603565b6040518082600260200280838360005b83811015610ff0578082015181840152602081019050610fd5565b5050505090500191505060405180910390f35b34801561100f57600080fd5b5061101861262b565b6040518082600260200280838360005b83811015611043578082015181840152602081019050611028565b5050505090500191505060405180910390f35b34801561106257600080fd5b506110b0600480360381019080806040019060028060200260405190810160405280929190826002602002808284378201915050505050919291929080359060200190929190505050612676565b6040518082600260200280838360005b838110156110db5780820151818401526020810190506110c0565b5050505090500191505060405180910390f35b3480156110fa57600080fd5b506111036126ce565b6040518082600260200280838360005b8381101561112e578082015181840152602081019050611113565b5050505090500191505060405180910390f35b34801561114d57600080fd5b506111fc60048036038101908080359060200190820180359060200190808060200260200160405190810160405280939291908181526020018383602002808284378201915050505050509192919290803590602001908201803590602001908080602002602001604051908101604052809392919081815260200183836020028082843782019150505050505091929192908035906020019092919080359060200190929190505050612719565b6040518082600260200280838360005b8381101561122757808201518184015260208101905061120c565b5050505090500191505060405180910390f35b34801561124657600080fd5b5061124f612888565b6040518082815260200191505060405180910390f35b34801561127157600080fd5b5061127a6128b0565b005b34801561128857600080fd5b506112d6600480360381019080806040019060028060200260405190810160405280929190826002602002808284378201915050505050919291929080359060200190929190505050612968565b6040518082600260200280838360005b838110156113015780820151818401526020810190506112e6565b5050505090500191505060405180910390f35b34801561132057600080fd5b506113296129c1565b6040518082600260200280838360005b83811015611354578082015181840152602081019050611339565b5050505090500191505060405180910390f35b34801561137357600080fd5b5061140e6004803603810190808035906020019082018035906020019080806020026020016040519081016040528093929190818152602001838360200280828437820191505050505050919291929080359060200190820180359060200190808060200260200160405190810160405280939291908181526020018383602002808284378201915050505050509192919290505050612a0c565b6040518080602001828103825283818151815260200191508051906020019060200280838360005b83811015611451578082015181840152602081019050611436565b505050509050019250505060405180910390f35b34801561147157600080fd5b5061147a612b64565b6040518082815260200191505060405180910390f35b34801561149c57600080fd5b506114c56004803603810190808035906020019092919080359060200190929190505050612b8c565b6040518082600260200280838360005b838110156114f05780820151818401526020810190506114d5565b5050505090500191505060405180910390f35b61150b612bb6565b611553836003600280602002604051908101604052809291908260028015611548576020028201915b815481526020019060010190808311611534575b5050505050846125c6565b905092915050565b611563612bb6565b6115aa600160028060200260405190810160405280929190826002801561159f576020028201915b81548152602001906001019080831161158b575b505050505083612968565b9050919050565b6115b9612bb6565b60405183518152602084015160208201528251604082015260208301516060820152604081608083600060066107d05a03f180600081146115f9576115fe565b608083fd5b508151835260208201516020840152505092915050565b61161d612bb6565b6116646001600280602002604051908101604052809291908260028015611659576020028201915b815481526020019060010190808311611645575b505050505083612968565b9050919050565b600061167e61167983611615565b61187e565b9050919050565b600081600060028110151561169657fe5b60200201518360006002811015156116aa57fe5b60200201511480156116e157508160016002811015156116c657fe5b60200201518360016002811015156116da57fe5b6020020151145b905092915050565b606060006116f5612bb6565b6001855111151561170557600080fd5b60006002865181151561171457fe5b0614151561172157600080fd5b8451845114151561173157600080fd5b84516040519080825280602002602001820160405280156117615781602001602082028038833980820191505090505b509250600091505b8451821015611876576118066040805190810160405280878581518110151561178e57fe5b90602001906020020151815260200187600186018151811015156117ae57fe5b90602001906020020151815250604080519081016040528087868151811015156117d457fe5b90602001906020020151815260200187600187018151811015156117f457fe5b906020019060200201518152506115b1565b905080600060028110151561181757fe5b602002015181600160028110151561182b57fe5b6020020151848481518110151561183e57fe5b906020019060200201856001860181518110151561185857fe5b90602001906020020182815250828152505050600282019150611769565b505092915050565b600081600060028110151561188f57fe5b60200201518260016002811015156118a357fe5b602002015160405180838152602001828152602001925050506040518091039020600190049050919050565b606060006118db612bb6565b600185511115156118eb57600080fd5b6000600286518115156118fa57fe5b0614151561190757600080fd5b84516040519080825280602002602001820160405280156119375781602001602082028038833980820191505090505b509250600091505b8451821015611a07576119976040805190810160405280878581518110151561196457fe5b906020019060200201518152602001876001860181518110151561198457fe5b9060200190602002015181525085612968565b90508060006002811015156119a857fe5b60200201518160016002811015156119bc57fe5b602002015184848151811015156119cf57fe5b90602001906020020185600186018151811015156119e957fe5b9060200190602002018281525082815250505060028201915061193f565b505092915050565b611a17612bb6565b6000807f8000000000000000000000000000000000000000000000000000000000000000198416836000600281101515611a4d57fe5b602002018181525050611a72836000600281101515611a6857fe5b6020020151611db1565b8093508192505050811515611a9f5760408051908101604052806000815260200160008152509250611b9c565b60007f80000000000000000000000000000000000000000000000000000000000000008516141515611b355760018082161415611af45780836001600281101515611ae657fe5b602002018181525050611b30565b807f30644e72e131a029b85045b68181585d97816a916871ca8d3c208c16d87cfd4703836001600281101515611b2657fe5b6020020181815250505b611b9b565b60018082161415611b8057807f30644e72e131a029b85045b68181585d97816a916871ca8d3c208c16d87cfd4703836001600281101515611b7257fe5b602002018181525050611b9a565b80836001600281101515611b9057fe5b6020020181815250505b5b5b5050919050565b611bab612bb6565b816000600281101515611bba57fe5b6020020151816000600281101515611bce57fe5b6020020181815250507f30644e72e131a029b85045b68181585d97816a916871ca8d3c208c16d87cfd47826001600281101515611c0757fe5b6020020151811515611c1557fe5b067f30644e72e131a029b85045b68181585d97816a916871ca8d3c208c16d87cfd4703816001600281101515611c4757fe5b602002018181525050919050565b611c5d612bb6565b60007f30644e72e131a029b85045b68181585d97816a916871ca8d3c208c16d87cfd47611c8984611f77565b811515611c9257fe5b06826000600281101515611ca257fe5b602002018181525050600090505b801515611d5557611cd3826000600281101515611cc957fe5b6020020151611db1565b836001600281101515611ce257fe5b60200201819350828152505050801515611d50577f30644e72e131a029b85045b68181585d97816a916871ca8d3c208c16d87cfd47801515611d2057fe5b6001836000600281101515611d3157fe5b602002015108826000600281101515611d4657fe5b6020020181815250505b611cb0565b50919050565b611d63612bb6565b611daa6003600280602002604051908101604052809291908260028015611d9f576020028201915b815481526020019060010190808311611d8b575b505050505083612968565b9050919050565b60008060008060007f30644e72e131a029b85045b68181585d97816a916871ca8d3c208c16d87cfd47801515611de357fe5b86870992507f30644e72e131a029b85045b68181585d97816a916871ca8d3c208c16d87cfd47801515611e1257fe5b86840992507f30644e72e131a029b85045b68181585d97816a916871ca8d3c208c16d87cfd47801515611e4157fe5b6003840892507f30644e72e131a029b85045b68181585d97816a916871ca8d3c208c16d87cfd4791507f0c19139cb84c680a6e14116da060561765e05aa45a1c72a34f082305b61f3f52905060405160208152602080820152602060408201528360608201528160808201528260a082015260208160c083600060056107d05a03f18060008114611ed157611ed6565b60c083fd5b508151965050507f30644e72e131a029b85045b68181585d97816a916871ca8d3c208c16d87cfd47801515611f0757fe5b85860983149350505050915091565b6000816000600281101515611f2757fe5b60200201519050600180836001600281101515611f4057fe5b6020020151161415611f72577f8000000000000000000000000000000000000000000000000000000000000000811790505b919050565b6000816000600281101515611f8857fe5b6020020151826001600281101515611f9c57fe5b602002015160405180838152602001828152602001925050506040518091039020600190049050919050565b611fd0612bb6565b611fe283611fdd84611ba3565b6115b1565b905092915050565b611ff2612bb6565b611ffa612bb6565b6120078685600080612719565b91506120168584600080612719565b905094509492505050565b60608060006060806000866002029350836007805490501015151561204557600080fd5b6000841480612058575083600780549050145b1561210e5760076008818054806020026020016040519081016040528092919081815260200182805480156120ac57602002820191906000526020600020905b815481526020019060010190808311612098575b50505050509150808054806020026020016040519081016040528092919081815260200182805480156120fe57602002820191906000526020600020905b8154815260200190600101908083116120ea575b50505050509050955095506121ff565b8360405190808252806020026020018201604052801561213d5781602001602082028038833980820191505090505b5092508360405190808252806020026020018201604052801561216f5781602001602082028038833980820191505090505b509150600090505b838110156121f85760078181548110151561218e57fe5b906000526020600020015483828151811015156121a757fe5b90602001906020020181815250506008818154811015156121c457fe5b906000526020600020015482828151811015156121dd57fe5b90602001906020020181815250508080600101915050612177565b8282955095505b50505050915091565b6000606080600080612218612bb6565b6000809054906101000a900473ffffffffffffffffffffffffffffffffffffffff1673ffffffffffffffffffffffffffffffffffffffff163373ffffffffffffffffffffffffffffffffffffffff16141580156122ad575060008060009054906101000a900473ffffffffffffffffffffffffffffffffffffffff1673ffffffffffffffffffffffffffffffffffffffff1614155b156122b757600080fd5b60026007805490508115156122c857fe5b0495508587111561259857600287026040519080825280602002602001820160405280156123055781602001602082028038833980820191505090505b5094506002870260405190808252806020026020018201604052801561233a5781602001602082028038833980820191505090505b509350600092505b6007805490508310156123c85760078381548110151561235e57fe5b9060005260206000200154858481518110151561237757fe5b906020019060200201818152505060088381548110151561239457fe5b906000526020600020015484848151811015156123ad57fe5b90602001906020020181815250508280600101935050612342565b600086141561241657600360028060200260405190810160405280929190826002801561240a576020028201915b8154815260200190600101908083116123f6575b5050505050905061246e565b6002600880549050039150604080519081016040528060088481548110151561243b57fe5b9060005260206000200154815260200160086001850181548110151561245d57fe5b906000526020600020015481525090505b8592505b868310156125695782600202915061248981611c55565b905080600060028110151561249a57fe5b60200201518160016002811015156124ae57fe5b602002015186848151811015156124c157fe5b90602001906020020187600186018151811015156124db57fe5b906020019060200201828152508281525050506124f781611c55565b905080600060028110151561250857fe5b602002015181600160028110151561251c57fe5b6020020151858481518110151561252f57fe5b906020019060200201866001860181518110151561254957fe5b906020019060200201828152508281525050508280600101935050612472565b846007908051906020019061257f929190612bd8565b508360089080519060200190612596929190612bd8565b505b50505050505050565b6000809054906101000a900473ffffffffffffffffffffffffffffffffffffffff1681565b6125ce612bb6565b6125e1846125dc8585612968565b6115b1565b90509392505050565b600060026007805490508115156125fd57fe5b04905090565b61260b612bb6565b6126208661261b87878787612719565b6115b1565b905095945050505050565b612633612bb6565b600160028060200260405190810160405280929190826002801561266c576020028201915b815481526020019060010190808311612658575b5050505050905090565b61267e612bb6565b6126c68360016002806020026040519081016040528092919082600280156126bb576020028201915b8154815260200190600101908083116126a7575b5050505050846125c6565b905092915050565b6126d6612bb6565b600560028060200260405190810160405280929190826002801561270f576020028201915b8154815260200190600101908083116126fb575b5050505050905090565b612721612bb6565b6000806001875111151561273457600080fd5b60006002885181151561274357fe5b0614151561275057600080fd5b8551600202875114151561276357600080fd5b600084141561277157855193505b848411151561277f57600080fd5b8460020291506127eb604080519081016040528089858151811015156127a157fe5b90602001906020020151815260200189600186018151811015156127c157fe5b9060200190602002015181525087878151811015156127dc57fe5b90602001906020020151612968565b92506002820191506001850190505b8381101561287e576128698360408051908101604052808a8681518110151561281f57fe5b9060200190602002015181526020018a6001870181518110151561283f57fe5b90602001906020020151815250888481518110151561285a57fe5b906020019060200201516125c6565b925060028201915080806001019150506127fa565b5050949350505050565b60007f30644e72e131a029b85045b68181585d97816a916871ca8d3c208c16d87cfd47905090565b6000809054906101000a900473ffffffffffffffffffffffffffffffffffffffff1673ffffffffffffffffffffffffffffffffffffffff163373ffffffffffffffffffffffffffffffffffffffff1614158015612945575060008060009054906101000a900473ffffffffffffffffffffffffffffffffffffffff1673ffffffffffffffffffffffffffffffffffffffff1614155b1561294f57600080fd5b3373ffffffffffffffffffffffffffffffffffffffff16ff5b612970612bb6565b6040518351815260208401516020820152826040820152604081606083600060076107d05a03f180600081146129a5576129aa565b608083fd5b508151835260208201516020840152505092915050565b6129c9612bb6565b6003600280602002604051908101604052809291908260028015612a02576020028201915b8154815260200190600101908083116129ee575b5050505050905090565b6060600080612a19612bb6565b60008551111515612a2957600080fd5b60028551028651141515612a3c57600080fd5b8551604051908082528060200260200182016040528015612a6c5781602001602082028038833980820191505090505b509350600092505b8451831015612b5b57826002029150612ae960408051908101604052808885815181101515612a9f57fe5b9060200190602002015181526020018860018601815181101515612abf57fe5b906020019060200201518152508685815181101515612ada57fe5b90602001906020020151612968565b9050806000600281101515612afa57fe5b6020020151816001600281101515612b0e57fe5b60200201518584815181101515612b2157fe5b9060200190602002018660018601815181101515612b3b57fe5b906020019060200201828152508281525050508280600101935050612a74565b50505092915050565b60007f30644e72e131a029b85045b68181585d2833e84879b9709143e1f593f0000001905090565b612b94612bb6565b612bae612ba08461155b565b612ba984611d5b565b6115b1565b905092915050565b6040805190810160405280600290602082028038833980820191505090505090565b828054828255906000526020600020908101928215612c14579160200282015b82811115612c13578251825591602001919060010190612bf8565b5b509050612c219190612c25565b5090565b612c4791905b80821115612c43576000816000905550600101612c2b565b5090565b905600a165627a7a723058208889056c51c883c8e8d9173e0782df7ea602cd7bf6316e8ce7ab5ce365e570af0029",
					"opcodes": "PUSH1 0x80 PUSH1 0x40 MSTORE CALLVALUE DUP1 ISZERO PUSH3 0x11 JUMPI PUSH1 0x0 DUP1 REVERT JUMPDEST POP PUSH1 0x40 MLOAD PUSH1 0x20 DUP1 PUSH3 0x358C DUP4 CODECOPY DUP2 ADD DUP1 PUSH1 0x40 MSTORE DUP2 ADD SWAP1 DUP1 DUP1 MLOAD SWAP1 PUSH1 0x20 ADD SWAP1 SWAP3 SWAP2 SWAP1 POP POP POP CALLER PUSH1 0x0 DUP1 PUSH2 0x100 EXP DUP2 SLOAD DUP2 PUSH20 0xFFFFFFFFFFFFFFFFFFFFFFFFFFFFFFFFFFFFFFFF MUL NOT AND SWAP1 DUP4 PUSH20 0xFFFFFFFFFFFFFFFFFFFFFFFFFFFFFFFFFFFFFFFF AND MUL OR SWAP1 SSTORE POP PUSH1 0x40 DUP1 MLOAD SWAP1 DUP2 ADD PUSH1 0x40 MSTORE DUP1 PUSH1 0x1 DUP2 MSTORE PUSH1 0x20 ADD PUSH1 0x2 DUP2 MSTORE POP PUSH1 0x1 SWAP1 PUSH1 0x2 PUSH3 0x9E SWAP3 SWAP2 SWAP1 PUSH3 0x825 JUMP JUMPDEST POP PUSH3 0xF8 PUSH1 0x1 PUSH1 0x2 DUP1 PUSH1 0x20 MUL PUSH1 0x40 MLOAD SWAP1 DUP2 ADD PUSH1 0x40 MSTORE DUP1 SWAP3 SWAP2 SWAP1 DUP3 PUSH1 0x2 DUP1 ISZERO PUSH3 0xDE JUMPI PUSH1 0x20 MUL DUP3 ADD SWAP2 JUMPDEST DUP2 SLOAD DUP2 MSTORE PUSH1 0x20 ADD SWAP1 PUSH1 0x1 ADD SWAP1 DUP1 DUP4 GT PUSH3 0xC9 JUMPI JUMPDEST POP POP POP POP POP PUSH3 0x156 PUSH5 0x100000000 MUL PUSH5 0x100000000 SWAP1 DIV JUMP JUMPDEST PUSH1 0x3 SWAP1 PUSH1 0x2 PUSH3 0x10A SWAP3 SWAP2 SWAP1 PUSH3 0x825 JUMP JUMPDEST POP PUSH1 0x40 DUP1 MLOAD SWAP1 DUP2 ADD PUSH1 0x40 MSTORE DUP1 PUSH1 0x0 DUP2 MSTORE PUSH1 0x20 ADD PUSH1 0x0 DUP2 MSTORE POP PUSH1 0x5 SWAP1 PUSH1 0x2 PUSH3 0x134 SWAP3 SWAP2 SWAP1 PUSH3 0x825 JUMP JUMPDEST POP PUSH3 0x14F DUP2 PUSH3 0x28A PUSH5 0x100000000 MUL PUSH5 0x100000000 SWAP1 DIV JUMP JUMPDEST POP PUSH3 0x906 JUMP JUMPDEST PUSH3 0x160 PUSH3 0x86A JUMP JUMPDEST PUSH1 0x0 PUSH32 0x30644E72E131A029B85045B68181585D97816A916871CA8D3C208C16D87CFD47 PUSH3 0x19D DUP5 PUSH3 0x667 PUSH5 0x100000000 MUL PUSH5 0x100000000 SWAP1 DIV JUMP JUMPDEST DUP2 ISZERO ISZERO PUSH3 0x1A7 JUMPI INVALID JUMPDEST MOD DUP3 PUSH1 0x0 PUSH1 0x2 DUP2 LT ISZERO ISZERO PUSH3 0x1B8 JUMPI INVALID JUMPDEST PUSH1 0x20 MUL ADD DUP2 DUP2 MSTORE POP POP PUSH1 0x0 SWAP1 POP JUMPDEST DUP1 ISZERO ISZERO PUSH3 0x284 JUMPI PUSH3 0x1FC DUP3 PUSH1 0x0 PUSH1 0x2 DUP2 LT ISZERO ISZERO PUSH3 0x1E2 JUMPI INVALID JUMPDEST PUSH1 0x20 MUL ADD MLOAD PUSH3 0x6BA PUSH5 0x100000000 MUL PUSH5 0x100000000 SWAP1 DIV JUMP JUMPDEST DUP4 PUSH1 0x1 PUSH1 0x2 DUP2 LT ISZERO ISZERO PUSH3 0x20C JUMPI INVALID JUMPDEST PUSH1 0x20 MUL ADD DUP2 SWAP4 POP DUP3 DUP2 MSTORE POP POP POP DUP1 ISZERO ISZERO PUSH3 0x27E JUMPI PUSH32 0x30644E72E131A029B85045B68181585D97816A916871CA8D3C208C16D87CFD47 DUP1 ISZERO ISZERO PUSH3 0x24C JUMPI INVALID JUMPDEST PUSH1 0x1 DUP4 PUSH1 0x0 PUSH1 0x2 DUP2 LT ISZERO ISZERO PUSH3 0x25E JUMPI INVALID JUMPDEST PUSH1 0x20 MUL ADD MLOAD ADDMOD DUP3 PUSH1 0x0 PUSH1 0x2 DUP2 LT ISZERO ISZERO PUSH3 0x274 JUMPI INVALID JUMPDEST PUSH1 0x20 MUL ADD DUP2 DUP2 MSTORE POP POP JUMPDEST PUSH3 0x1C6 JUMP JUMPDEST POP SWAP2 SWAP1 POP JUMP JUMPDEST PUSH1 0x0 PUSH1 0x60 DUP1 PUSH1 0x0 DUP1 PUSH3 0x29C PUSH3 0x86A JUMP JUMPDEST PUSH1 0x0 DUP1 SWAP1 SLOAD SWAP1 PUSH2 0x100 EXP SWAP1 DIV PUSH20 0xFFFFFFFFFFFFFFFFFFFFFFFFFFFFFFFFFFFFFFFF AND PUSH20 0xFFFFFFFFFFFFFFFFFFFFFFFFFFFFFFFFFFFFFFFF AND CALLER PUSH20 0xFFFFFFFFFFFFFFFFFFFFFFFFFFFFFFFFFFFFFFFF AND EQ ISZERO DUP1 ISZERO PUSH3 0x332 JUMPI POP PUSH1 0x0 DUP1 PUSH1 0x0 SWAP1 SLOAD SWAP1 PUSH2 0x100 EXP SWAP1 DIV PUSH20 0xFFFFFFFFFFFFFFFFFFFFFFFFFFFFFFFFFFFFFFFF AND PUSH20 0xFFFFFFFFFFFFFFFFFFFFFFFFFFFFFFFFFFFFFFFF AND EQ ISZERO JUMPDEST ISZERO PUSH3 0x33D JUMPI PUSH1 0x0 DUP1 REVERT JUMPDEST PUSH1 0x2 PUSH1 0x7 DUP1 SLOAD SWAP1 POP DUP2 ISZERO ISZERO PUSH3 0x34F JUMPI INVALID JUMPDEST DIV SWAP6 POP DUP6 DUP8 GT ISZERO PUSH3 0x65E JUMPI PUSH1 0x2 DUP8 MUL PUSH1 0x40 MLOAD SWAP1 DUP1 DUP3 MSTORE DUP1 PUSH1 0x20 MUL PUSH1 0x20 ADD DUP3 ADD PUSH1 0x40 MSTORE DUP1 ISZERO PUSH3 0x38E JUMPI DUP2 PUSH1 0x20 ADD PUSH1 0x20 DUP3 MUL DUP1 CODESIZE DUP4 CODECOPY DUP1 DUP3 ADD SWAP2 POP POP SWAP1 POP JUMPDEST POP SWAP5 POP PUSH1 0x2 DUP8 MUL PUSH1 0x40 MLOAD SWAP1 DUP1 DUP3 MSTORE DUP1 PUSH1 0x20 MUL PUSH1 0x20 ADD DUP3 ADD PUSH1 0x40 MSTORE DUP1 ISZERO PUSH3 0x3C4 JUMPI DUP2 PUSH1 0x20 ADD PUSH1 0x20 DUP3 MUL DUP1 CODESIZE DUP4 CODECOPY DUP1 DUP3 ADD SWAP2 POP POP SWAP1 POP JUMPDEST POP SWAP4 POP PUSH1 0x0 SWAP3 POP JUMPDEST PUSH1 0x7 DUP1 SLOAD SWAP1 POP DUP4 LT ISZERO PUSH3 0x458 JUMPI PUSH1 0x7 DUP4 DUP2 SLOAD DUP2 LT ISZERO ISZERO PUSH3 0x3EA JUMPI INVALID JUMPDEST SWAP1 PUSH1 0x0 MSTORE PUSH1 0x20 PUSH1 0x0 KECCAK256 ADD SLOAD DUP6 DUP5 DUP2 MLOAD DUP2 LT ISZERO ISZERO PUSH3 0x404 JUMPI INVALID JUMPDEST SWAP1 PUSH1 0x20 ADD SWAP1 PUSH1 0x20 MUL ADD DUP2 DUP2 MSTORE POP POP PUSH1 0x8 DUP4 DUP2 SLOAD DUP2 LT ISZERO ISZERO PUSH3 0x422 JUMPI INVALID JUMPDEST SWAP1 PUSH1 0x0 MSTORE PUSH1 0x20 PUSH1 0x0 KECCAK256 ADD SLOAD DUP5 DUP5 DUP2 MLOAD DUP2 LT ISZERO ISZERO PUSH3 0x43C JUMPI INVALID JUMPDEST SWAP1 PUSH1 0x20 ADD SWAP1 PUSH1 0x20 MUL ADD DUP2 DUP2 MSTORE POP POP DUP3 DUP1 PUSH1 0x1 ADD SWAP4 POP POP PUSH3 0x3CC JUMP JUMPDEST PUSH1 0x0 DUP7 EQ ISZERO PUSH3 0x4AA JUMPI PUSH1 0x3 PUSH1 0x2 DUP1 PUSH1 0x20 MUL PUSH1 0x40 MLOAD SWAP1 DUP2 ADD PUSH1 0x40 MSTORE DUP1 SWAP3 SWAP2 SWAP1 DUP3 PUSH1 0x2 DUP1 ISZERO PUSH3 0x49D JUMPI PUSH1 0x20 MUL DUP3 ADD SWAP2 JUMPDEST DUP2 SLOAD DUP2 MSTORE PUSH1 0x20 ADD SWAP1 PUSH1 0x1 ADD SWAP1 DUP1 DUP4 GT PUSH3 0x488 JUMPI JUMPDEST POP POP POP POP POP SWAP1 POP PUSH3 0x504 JUMP JUMPDEST PUSH1 0x2 PUSH1 0x8 DUP1 SLOAD SWAP1 POP SUB SWAP2 POP PUSH1 0x40 DUP1 MLOAD SWAP1 DUP2 ADD PUSH1 0x40 MSTORE DUP1 PUSH1 0x8 DUP5 DUP2 SLOAD DUP2 LT ISZERO ISZERO PUSH3 0x4D0 JUMPI INVALID JUMPDEST SWAP1 PUSH1 0x0 MSTORE PUSH1 0x20 PUSH1 0x0 KECCAK256 ADD SLOAD DUP2 MSTORE PUSH1 0x20 ADD PUSH1 0x8 PUSH1 0x1 DUP6 ADD DUP2 SLOAD DUP2 LT ISZERO ISZERO PUSH3 0x4F3 JUMPI INVALID JUMPDEST SWAP1 PUSH1 0x0 MSTORE PUSH1 0x20 PUSH1 0x0 KECCAK256 ADD SLOAD DUP2 MSTORE POP SWAP1 POP JUMPDEST DUP6 SWAP3 POP JUMPDEST DUP7 DUP4 LT ISZERO PUSH3 0x62B JUMPI DUP3 PUSH1 0x2 MUL SWAP2 POP PUSH3 0x531 DUP2 PUSH3 0x156 PUSH5 0x100000000 MUL PUSH5 0x100000000 SWAP1 DIV JUMP JUMPDEST SWAP1 POP DUP1 PUSH1 0x0 PUSH1 0x2 DUP2 LT ISZERO ISZERO PUSH3 0x543 JUMPI INVALID JUMPDEST PUSH1 0x20 MUL ADD MLOAD DUP2 PUSH1 0x1 PUSH1 0x2 DUP2 LT ISZERO ISZERO PUSH3 0x558 JUMPI INVALID JUMPDEST PUSH1 0x20 MUL ADD MLOAD DUP7 DUP5 DUP2 MLOAD DUP2 LT ISZERO ISZERO PUSH3 0x56C JUMPI INVALID JUMPDEST SWAP1 PUSH1 0x20 ADD SWAP1 PUSH1 0x20 MUL ADD DUP8 PUSH1 0x1 DUP7 ADD DUP2 MLOAD DUP2 LT ISZERO ISZERO PUSH3 0x587 JUMPI INVALID JUMPDEST SWAP1 PUSH1 0x20 ADD SWAP1 PUSH1 0x20 MUL ADD DUP3 DUP2 MSTORE POP DUP3 DUP2 MSTORE POP POP POP PUSH3 0x5B4 DUP2 PUSH3 0x156 PUSH5 0x100000000 MUL PUSH5 0x100000000 SWAP1 DIV JUMP JUMPDEST SWAP1 POP DUP1 PUSH1 0x0 PUSH1 0x2 DUP2 LT ISZERO ISZERO PUSH3 0x5C6 JUMPI INVALID JUMPDEST PUSH1 0x20 MUL ADD MLOAD DUP2 PUSH1 0x1 PUSH1 0x2 DUP2 LT ISZERO ISZERO PUSH3 0x5DB JUMPI INVALID JUMPDEST PUSH1 0x20 MUL ADD MLOAD DUP6 DUP5 DUP2 MLOAD DUP2 LT ISZERO ISZERO PUSH3 0x5EF JUMPI INVALID JUMPDEST SWAP1 PUSH1 0x20 ADD SWAP1 PUSH1 0x20 MUL ADD DUP7 PUSH1 0x1 DUP7 ADD DUP2 MLOAD DUP2 LT ISZERO ISZERO PUSH3 0x60A JUMPI INVALID JUMPDEST SWAP1 PUSH1 0x20 ADD SWAP1 PUSH1 0x20 MUL ADD DUP3 DUP2 MSTORE POP DUP3 DUP2 MSTORE POP POP POP DUP3 DUP1 PUSH1 0x1 ADD SWAP4 POP POP PUSH3 0x508 JUMP JUMPDEST DUP5 PUSH1 0x7 SWAP1 DUP1 MLOAD SWAP1 PUSH1 0x20 ADD SWAP1 PUSH3 0x643 SWAP3 SWAP2 SWAP1 PUSH3 0x88C JUMP JUMPDEST POP DUP4 PUSH1 0x8 SWAP1 DUP1 MLOAD SWAP1 PUSH1 0x20 ADD SWAP1 PUSH3 0x65C SWAP3 SWAP2 SWAP1 PUSH3 0x88C JUMP JUMPDEST POP JUMPDEST POP POP POP POP POP POP POP JUMP JUMPDEST PUSH1 0x0 DUP2 PUSH1 0x0 PUSH1 0x2 DUP2 LT ISZERO ISZERO PUSH3 0x679 JUMPI INVALID JUMPDEST PUSH1 0x20 MUL ADD MLOAD DUP3 PUSH1 0x1 PUSH1 0x2 DUP2 LT ISZERO ISZERO PUSH3 0x68E JUMPI INVALID JUMPDEST PUSH1 0x20 MUL ADD MLOAD PUSH1 0x40 MLOAD DUP1 DUP4 DUP2 MSTORE PUSH1 0x20 ADD DUP3 DUP2 MSTORE PUSH1 0x20 ADD SWAP3 POP POP POP PUSH1 0x40 MLOAD DUP1 SWAP2 SUB SWAP1 KECCAK256 PUSH1 0x1 SWAP1 DIV SWAP1 POP SWAP2 SWAP1 POP JUMP JUMPDEST PUSH1 0x0 DUP1 PUSH1 0x0 DUP1 PUSH1 0x0 PUSH32 0x30644E72E131A029B85045B68181585D97816A916871CA8D3C208C16D87CFD47 DUP1 ISZERO ISZERO PUSH3 0x6ED JUMPI INVALID JUMPDEST DUP7 DUP8 MULMOD SWAP3 POP PUSH32 0x30644E72E131A029B85045B68181585D97816A916871CA8D3C208C16D87CFD47 DUP1 ISZERO ISZERO PUSH3 0x71D JUMPI INVALID JUMPDEST DUP7 DUP5 MULMOD SWAP3 POP PUSH32 0x30644E72E131A029B85045B68181585D97816A916871CA8D3C208C16D87CFD47 DUP1 ISZERO ISZERO PUSH3 0x74D JUMPI INVALID JUMPDEST PUSH1 0x3 DUP5 ADDMOD SWAP3 POP PUSH32 0x30644E72E131A029B85045B68181585D97816A916871CA8D3C208C16D87CFD47 SWAP2 POP PUSH32 0xC19139CB84C680A6E14116DA060561765E05AA45A1C72A34F082305B61F3F52 SWAP1 POP PUSH1 0x40 MLOAD PUSH1 0x20 DUP2 MSTORE PUSH1 0x20 DUP1 DUP3 ADD MSTORE PUSH1 0x20 PUSH1 0x40 DUP3 ADD MSTORE DUP4 PUSH1 0x60 DUP3 ADD MSTORE DUP2 PUSH1 0x80 DUP3 ADD MSTORE DUP3 PUSH1 0xA0 DUP3 ADD MSTORE PUSH1 0x20 DUP2 PUSH1 0xC0 DUP4 PUSH1 0x0 PUSH1 0x5 PUSH2 0x7D0 GAS SUB CALL DUP1 PUSH1 0x0 DUP2 EQ PUSH3 0x7DF JUMPI PUSH3 0x7E4 JUMP JUMPDEST PUSH1 0xC0 DUP4 REVERT JUMPDEST POP DUP2 MLOAD SWAP7 POP POP POP PUSH32 0x30644E72E131A029B85045B68181585D97816A916871CA8D3C208C16D87CFD47 DUP1 ISZERO ISZERO PUSH3 0x816 JUMPI INVALID JUMPDEST DUP6 DUP7 MULMOD DUP4 EQ SWAP4 POP POP POP POP SWAP2 POP SWAP2 JUMP JUMPDEST DUP3 PUSH1 0x2 DUP2 ADD SWAP3 DUP3 ISZERO PUSH3 0x857 JUMPI SWAP2 PUSH1 0x20 MUL DUP3 ADD JUMPDEST DUP3 DUP2 GT ISZERO PUSH3 0x856 JUMPI DUP3 MLOAD DUP3 SSTORE SWAP2 PUSH1 0x20 ADD SWAP2 SWAP1 PUSH1 0x1 ADD SWAP1 PUSH3 0x839 JUMP JUMPDEST JUMPDEST POP SWAP1 POP PUSH3 0x866 SWAP2 SWAP1 PUSH3 0x8DE JUMP JUMPDEST POP SWAP1 JUMP JUMPDEST PUSH1 0x40 DUP1 MLOAD SWAP1 DUP2 ADD PUSH1 0x40 MSTORE DUP1 PUSH1 0x2 SWAP1 PUSH1 0x20 DUP3 MUL DUP1 CODESIZE DUP4 CODECOPY DUP1 DUP3 ADD SWAP2 POP POP SWAP1 POP POP SWAP1 JUMP JUMPDEST DUP3 DUP1 SLOAD DUP3 DUP3 SSTORE SWAP1 PUSH1 0x0 MSTORE PUSH1 0x20 PUSH1 0x0 KECCAK256 SWAP1 DUP2 ADD SWAP3 DUP3 ISZERO PUSH3 0x8CB JUMPI SWAP2 PUSH1 0x20 MUL DUP3 ADD JUMPDEST DUP3 DUP2 GT ISZERO PUSH3 0x8CA JUMPI DUP3 MLOAD DUP3 SSTORE SWAP2 PUSH1 0x20 ADD SWAP2 SWAP1 PUSH1 0x1 ADD SWAP1 PUSH3 0x8AD JUMP JUMPDEST JUMPDEST POP SWAP1 POP PUSH3 0x8DA SWAP2 SWAP1 PUSH3 0x8DE JUMP JUMPDEST POP SWAP1 JUMP JUMPDEST PUSH3 0x903 SWAP2 SWAP1 JUMPDEST DUP1 DUP3 GT ISZERO PUSH3 0x8FF JUMPI PUSH1 0x0 DUP2 PUSH1 0x0 SWAP1 SSTORE POP PUSH1 0x1 ADD PUSH3 0x8E5 JUMP JUMPDEST POP SWAP1 JUMP JUMPDEST SWAP1 JUMP JUMPDEST PUSH2 0x2C76 DUP1 PUSH3 0x916 PUSH1 0x0 CODECOPY PUSH1 0x0 RETURN STOP PUSH1 0x80 PUSH1 0x40 MSTORE PUSH1 0x4 CALLDATASIZE LT PUSH2 0x1B7 JUMPI PUSH1 0x0 CALLDATALOAD PUSH29 0x100000000000000000000000000000000000000000000000000000000 SWAP1 DIV PUSH4 0xFFFFFFFF AND DUP1 PUSH4 0x12421F9 EQ PUSH2 0x1BC JUMPI DUP1 PUSH4 0x819336A EQ PUSH2 0x254 JUMPI DUP1 PUSH4 0xC753FE8 EQ PUSH2 0x2BD JUMPI DUP1 PUSH4 0x16491F3E EQ PUSH2 0x37A JUMPI DUP1 PUSH4 0x1BEA22E6 EQ PUSH2 0x3E3 JUMPI DUP1 PUSH4 0x1CE9D895 EQ PUSH2 0x450 JUMPI DUP1 PUSH4 0x20CEBC5C EQ PUSH2 0x4E9 JUMPI DUP1 PUSH4 0x37A8B202 EQ PUSH2 0x5E7 JUMPI DUP1 PUSH4 0x3B4C2EDE EQ PUSH2 0x679 JUMPI DUP1 PUSH4 0x5DA7F69E EQ PUSH2 0x73E JUMPI DUP1 PUSH4 0x5F033797 EQ PUSH2 0x7A7 JUMPI DUP1 PUSH4 0x6032FC3F EQ PUSH2 0x835 JUMPI DUP1 PUSH4 0x639649C4 EQ PUSH2 0x8C3 JUMPI DUP1 PUSH4 0x66230BD9 EQ PUSH2 0x92C JUMPI DUP1 PUSH4 0x71B1C161 EQ PUSH2 0x978 JUMPI DUP1 PUSH4 0x758BAD98 EQ PUSH2 0x9DE JUMPI DUP1 PUSH4 0x80BCA979 EQ PUSH2 0xA44 JUMPI DUP1 PUSH4 0x841675C9 EQ PUSH2 0xB01 JUMPI DUP1 PUSH4 0x8AC1C8D4 EQ PUSH2 0xC9B JUMPI DUP1 PUSH4 0x8B05A64A EQ PUSH2 0xD65 JUMPI DUP1 PUSH4 0x8DA5CB5B EQ PUSH2 0xD92 JUMPI DUP1 PUSH4 0x9C050A4A EQ PUSH2 0xDE9 JUMPI DUP1 PUSH4 0xA77A970D EQ PUSH2 0xEB0 JUMPI DUP1 PUSH4 0xAD4310F5 EQ PUSH2 0xEDB JUMPI DUP1 PUSH4 0xAE5D39F6 EQ PUSH2 0x1003 JUMPI DUP1 PUSH4 0xB0F5C83A EQ PUSH2 0x1056 JUMPI DUP1 PUSH4 0xB866CF29 EQ PUSH2 0x10EE JUMPI DUP1 PUSH4 0xBA7D3977 EQ PUSH2 0x1141 JUMPI DUP1 PUSH4 0xBAB5064C EQ PUSH2 0x123A JUMPI DUP1 PUSH4 0xBE26733C EQ PUSH2 0x1265 JUMPI DUP1 PUSH4 0xC025D89B EQ PUSH2 0x127C JUMPI DUP1 PUSH4 0xC1EEB1FE EQ PUSH2 0x1314 JUMPI DUP1 PUSH4 0xCF60976A EQ PUSH2 0x1367 JUMPI DUP1 PUSH4 0xD1FF535B EQ PUSH2 0x1465 JUMPI DUP1 PUSH4 0xE76F8E66 EQ PUSH2 0x1490 JUMPI JUMPDEST PUSH1 0x0 DUP1 REVERT JUMPDEST CALLVALUE DUP1 ISZERO PUSH2 0x1C8 JUMPI PUSH1 0x0 DUP1 REVERT JUMPDEST POP PUSH2 0x216 PUSH1 0x4 DUP1 CALLDATASIZE SUB DUP2 ADD SWAP1 DUP1 DUP1 PUSH1 0x40 ADD SWAP1 PUSH1 0x2 DUP1 PUSH1 0x20 MUL PUSH1 0x40 MLOAD SWAP1 DUP2 ADD PUSH1 0x40 MSTORE DUP1 SWAP3 SWAP2 SWAP1 DUP3 PUSH1 0x2 PUSH1 0x20 MUL DUP1 DUP3 DUP5 CALLDATACOPY DUP3 ADD SWAP2 POP POP POP POP POP SWAP2 SWAP3 SWAP2 SWAP3 SWAP1 DUP1 CALLDATALOAD SWAP1 PUSH1 0x20 ADD SWAP1 SWAP3 SWAP2 SWAP1 POP POP POP PUSH2 0x1503 JUMP JUMPDEST PUSH1 0x40 MLOAD DUP1 DUP3 PUSH1 0x2 PUSH1 0x20 MUL DUP1 DUP4 DUP4 PUSH1 0x0 JUMPDEST DUP4 DUP2 LT ISZERO PUSH2 0x241 JUMPI DUP1 DUP3 ADD MLOAD DUP2 DUP5 ADD MSTORE PUSH1 0x20 DUP2 ADD SWAP1 POP PUSH2 0x226 JUMP JUMPDEST POP POP POP POP SWAP1 POP ADD SWAP2 POP POP PUSH1 0x40 MLOAD DUP1 SWAP2 SUB SWAP1 RETURN JUMPDEST CALLVALUE DUP1 ISZERO PUSH2 0x260 JUMPI PUSH1 0x0 DUP1 REVERT JUMPDEST POP PUSH2 0x27F PUSH1 0x4 DUP1 CALLDATASIZE SUB DUP2 ADD SWAP1 DUP1 DUP1 CALLDATALOAD SWAP1 PUSH1 0x20 ADD SWAP1 SWAP3 SWAP2 SWAP1 POP POP POP PUSH2 0x155B JUMP JUMPDEST PUSH1 0x40 MLOAD DUP1 DUP3 PUSH1 0x2 PUSH1 0x20 MUL DUP1 DUP4 DUP4 PUSH1 0x0 JUMPDEST DUP4 DUP2 LT ISZERO PUSH2 0x2AA JUMPI DUP1 DUP3 ADD MLOAD DUP2 DUP5 ADD MSTORE PUSH1 0x20 DUP2 ADD SWAP1 POP PUSH2 0x28F JUMP JUMPDEST POP POP POP POP SWAP1 POP ADD SWAP2 POP POP PUSH1 0x40 MLOAD DUP1 SWAP2 SUB SWAP1 RETURN JUMPDEST CALLVALUE DUP1 ISZERO PUSH2 0x2C9 JUMPI PUSH1 0x0 DUP1 REVERT JUMPDEST POP PUSH2 0x33C PUSH1 0x4 DUP1 CALLDATASIZE SUB DUP2 ADD SWAP1 DUP1 DUP1 PUSH1 0x40 ADD SWAP1 PUSH1 0x2 DUP1 PUSH1 0x20 MUL PUSH1 0x40 MLOAD SWAP1 DUP2 ADD PUSH1 0x40 MSTORE DUP1 SWAP3 SWAP2 SWAP1 DUP3 PUSH1 0x2 PUSH1 0x20 MUL DUP1 DUP3 DUP5 CALLDATACOPY DUP3 ADD SWAP2 POP POP POP POP POP SWAP2 SWAP3 SWAP2 SWAP3 SWAP1 DUP1 PUSH1 0x40 ADD SWAP1 PUSH1 0x2 DUP1 PUSH1 0x20 MUL PUSH1 0x40 MLOAD SWAP1 DUP2 ADD PUSH1 0x40 MSTORE DUP1 SWAP3 SWAP2 SWAP1 DUP3 PUSH1 0x2 PUSH1 0x20 MUL DUP1 DUP3 DUP5 CALLDATACOPY DUP3 ADD SWAP2 POP POP POP POP POP SWAP2 SWAP3 SWAP2 SWAP3 SWAP1 POP POP POP PUSH2 0x15B1 JUMP JUMPDEST PUSH1 0x40 MLOAD DUP1 DUP3 PUSH1 0x2 PUSH1 0x20 MUL DUP1 DUP4 DUP4 PUSH1 0x0 JUMPDEST DUP4 DUP2 LT ISZERO PUSH2 0x367 JUMPI DUP1 DUP3 ADD MLOAD DUP2 DUP5 ADD MSTORE PUSH1 0x20 DUP2 ADD SWAP1 POP PUSH2 0x34C JUMP JUMPDEST POP POP POP POP SWAP1 POP ADD SWAP2 POP POP PUSH1 0x40 MLOAD DUP1 SWAP2 SUB SWAP1 RETURN JUMPDEST CALLVALUE DUP1 ISZERO PUSH2 0x386 JUMPI PUSH1 0x0 DUP1 REVERT JUMPDEST POP PUSH2 0x3A5 PUSH1 0x4 DUP1 CALLDATASIZE SUB DUP2 ADD SWAP1 DUP1 DUP1 CALLDATALOAD SWAP1 PUSH1 0x20 ADD SWAP1 SWAP3 SWAP2 SWAP1 POP POP POP PUSH2 0x1615 JUMP JUMPDEST PUSH1 0x40 MLOAD DUP1 DUP3 PUSH1 0x2 PUSH1 0x20 MUL DUP1 DUP4 DUP4 PUSH1 0x0 JUMPDEST DUP4 DUP2 LT ISZERO PUSH2 0x3D0 JUMPI DUP1 DUP3 ADD MLOAD DUP2 DUP5 ADD MSTORE PUSH1 0x20 DUP2 ADD SWAP1 POP PUSH2 0x3B5 JUMP JUMPDEST POP POP POP POP SWAP1 POP ADD SWAP2 POP POP PUSH1 0x40 MLOAD DUP1 SWAP2 SUB SWAP1 RETURN JUMPDEST CALLVALUE DUP1 ISZERO PUSH2 0x3EF JUMPI PUSH1 0x0 DUP1 REVERT JUMPDEST POP PUSH2 0x40E PUSH1 0x4 DUP1 CALLDATASIZE SUB DUP2 ADD SWAP1 DUP1 DUP1 CALLDATALOAD SWAP1 PUSH1 0x20 ADD SWAP1 SWAP3 SWAP2 SWAP1 POP POP POP PUSH2 0x166B JUMP JUMPDEST PUSH1 0x40 MLOAD DUP1 DUP3 PUSH20 0xFFFFFFFFFFFFFFFFFFFFFFFFFFFFFFFFFFFFFFFF AND PUSH20 0xFFFFFFFFFFFFFFFFFFFFFFFFFFFFFFFFFFFFFFFF AND DUP2 MSTORE PUSH1 0x20 ADD SWAP2 POP POP PUSH1 0x40 MLOAD DUP1 SWAP2 SUB SWAP1 RETURN JUMPDEST CALLVALUE DUP1 ISZERO PUSH2 0x45C JUMPI PUSH1 0x0 DUP1 REVERT JUMPDEST POP PUSH2 0x4CF PUSH1 0x4 DUP1 CALLDATASIZE SUB DUP2 ADD SWAP1 DUP1 DUP1 PUSH1 0x40 ADD SWAP1 PUSH1 0x2 DUP1 PUSH1 0x20 MUL PUSH1 0x40 MLOAD SWAP1 DUP2 ADD PUSH1 0x40 MSTORE DUP1 SWAP3 SWAP2 SWAP1 DUP3 PUSH1 0x2 PUSH1 0x20 MUL DUP1 DUP3 DUP5 CALLDATACOPY DUP3 ADD SWAP2 POP POP POP POP POP SWAP2 SWAP3 SWAP2 SWAP3 SWAP1 DUP1 PUSH1 0x40 ADD SWAP1 PUSH1 0x2 DUP1 PUSH1 0x20 MUL PUSH1 0x40 MLOAD SWAP1 DUP2 ADD PUSH1 0x40 MSTORE DUP1 SWAP3 SWAP2 SWAP1 DUP3 PUSH1 0x2 PUSH1 0x20 MUL DUP1 DUP3 DUP5 CALLDATACOPY DUP3 ADD SWAP2 POP POP POP POP POP SWAP2 SWAP3 SWAP2 SWAP3 SWAP1 POP POP POP PUSH2 0x1685 JUMP JUMPDEST PUSH1 0x40 MLOAD DUP1 DUP3 ISZERO ISZERO ISZERO ISZERO DUP2 MSTORE PUSH1 0x20 ADD SWAP2 POP POP PUSH1 0x40 MLOAD DUP1 SWAP2 SUB SWAP1 RETURN JUMPDEST CALLVALUE DUP1 ISZERO PUSH2 0x4F5 JUMPI PUSH1 0x0 DUP1 REVERT JUMPDEST POP PUSH2 0x590 PUSH1 0x4 DUP1 CALLDATASIZE SUB DUP2 ADD SWAP1 DUP1 DUP1 CALLDATALOAD SWAP1 PUSH1 0x20 ADD SWAP1 DUP3 ADD DUP1 CALLDATALOAD SWAP1 PUSH1 0x20 ADD SWAP1 DUP1 DUP1 PUSH1 0x20 MUL PUSH1 0x20 ADD PUSH1 0x40 MLOAD SWAP1 DUP2 ADD PUSH1 0x40 MSTORE DUP1 SWAP4 SWAP3 SWAP2 SWAP1 DUP2 DUP2 MSTORE PUSH1 0x20 ADD DUP4 DUP4 PUSH1 0x20 MUL DUP1 DUP3 DUP5 CALLDATACOPY DUP3 ADD SWAP2 POP POP POP POP POP POP SWAP2 SWAP3 SWAP2 SWAP3 SWAP1 DUP1 CALLDATALOAD SWAP1 PUSH1 0x20 ADD SWAP1 DUP3 ADD DUP1 CALLDATALOAD SWAP1 PUSH1 0x20 ADD SWAP1 DUP1 DUP1 PUSH1 0x20 MUL PUSH1 0x20 ADD PUSH1 0x40 MLOAD SWAP1 DUP2 ADD PUSH1 0x40 MSTORE DUP1 SWAP4 SWAP3 SWAP2 SWAP1 DUP2 DUP2 MSTORE PUSH1 0x20 ADD DUP4 DUP4 PUSH1 0x20 MUL DUP1 DUP3 DUP5 CALLDATACOPY DUP3 ADD SWAP2 POP POP POP POP POP POP SWAP2 SWAP3 SWAP2 SWAP3 SWAP1 POP POP POP PUSH2 0x16E9 JUMP JUMPDEST PUSH1 0x40 MLOAD DUP1 DUP1 PUSH1 0x20 ADD DUP3 DUP2 SUB DUP3 MSTORE DUP4 DUP2 DUP2 MLOAD DUP2 MSTORE PUSH1 0x20 ADD SWAP2 POP DUP1 MLOAD SWAP1 PUSH1 0x20 ADD SWAP1 PUSH1 0x20 MUL DUP1 DUP4 DUP4 PUSH1 0x0 JUMPDEST DUP4 DUP2 LT ISZERO PUSH2 0x5D3 JUMPI DUP1 DUP3 ADD MLOAD DUP2 DUP5 ADD MSTORE PUSH1 0x20 DUP2 ADD SWAP1 POP PUSH2 0x5B8 JUMP JUMPDEST POP POP POP POP SWAP1 POP ADD SWAP3 POP POP POP PUSH1 0x40 MLOAD DUP1 SWAP2 SUB SWAP1 RETURN JUMPDEST CALLVALUE DUP1 ISZERO PUSH2 0x5F3 JUMPI PUSH1 0x0 DUP1 REVERT JUMPDEST POP PUSH2 0x637 PUSH1 0x4 DUP1 CALLDATASIZE SUB DUP2 ADD SWAP1 DUP1 DUP1 PUSH1 0x40 ADD SWAP1 PUSH1 0x2 DUP1 PUSH1 0x20 MUL PUSH1 0x40 MLOAD SWAP1 DUP2 ADD PUSH1 0x40 MSTORE DUP1 SWAP3 SWAP2 SWAP1 DUP3 PUSH1 0x2 PUSH1 0x20 MUL DUP1 DUP3 DUP5 CALLDATACOPY DUP3 ADD SWAP2 POP POP POP POP POP SWAP2 SWAP3 SWAP2 SWAP3 SWAP1 POP POP POP PUSH2 0x187E JUMP JUMPDEST PUSH1 0x40 MLOAD DUP1 DUP3 PUSH20 0xFFFFFFFFFFFFFFFFFFFFFFFFFFFFFFFFFFFFFFFF AND PUSH20 0xFFFFFFFFFFFFFFFFFFFFFFFFFFFFFFFFFFFFFFFF AND DUP2 MSTORE PUSH1 0x20 ADD SWAP2 POP POP PUSH1 0x40 MLOAD DUP1 SWAP2 SUB SWAP1 RETURN JUMPDEST CALLVALUE DUP1 ISZERO PUSH2 0x685 JUMPI PUSH1 0x0 DUP1 REVERT JUMPDEST POP PUSH2 0x6E7 PUSH1 0x4 DUP1 CALLDATASIZE SUB DUP2 ADD SWAP1 DUP1 DUP1 CALLDATALOAD SWAP1 PUSH1 0x20 ADD SWAP1 DUP3 ADD DUP1 CALLDATALOAD SWAP1 PUSH1 0x20 ADD SWAP1 DUP1 DUP1 PUSH1 0x20 MUL PUSH1 0x20 ADD PUSH1 0x40 MLOAD SWAP1 DUP2 ADD PUSH1 0x40 MSTORE DUP1 SWAP4 SWAP3 SWAP2 SWAP1 DUP2 DUP2 MSTORE PUSH1 0x20 ADD DUP4 DUP4 PUSH1 0x20 MUL DUP1 DUP3 DUP5 CALLDATACOPY DUP3 ADD SWAP2 POP POP POP POP POP POP SWAP2 SWAP3 SWAP2 SWAP3 SWAP1 DUP1 CALLDATALOAD SWAP1 PUSH1 0x20 ADD SWAP1 SWAP3 SWAP2 SWAP1 POP POP POP PUSH2 0x18CF JUMP JUMPDEST PUSH1 0x40 MLOAD DUP1 DUP1 PUSH1 0x20 ADD DUP3 DUP2 SUB DUP3 MSTORE DUP4 DUP2 DUP2 MLOAD DUP2 MSTORE PUSH1 0x20 ADD SWAP2 POP DUP1 MLOAD SWAP1 PUSH1 0x20 ADD SWAP1 PUSH1 0x20 MUL DUP1 DUP4 DUP4 PUSH1 0x0 JUMPDEST DUP4 DUP2 LT ISZERO PUSH2 0x72A JUMPI DUP1 DUP3 ADD MLOAD DUP2 DUP5 ADD MSTORE PUSH1 0x20 DUP2 ADD SWAP1 POP PUSH2 0x70F JUMP JUMPDEST POP POP POP POP SWAP1 POP ADD SWAP3 POP POP POP PUSH1 0x40 MLOAD DUP1 SWAP2 SUB SWAP1 RETURN JUMPDEST CALLVALUE DUP1 ISZERO PUSH2 0x74A JUMPI PUSH1 0x0 DUP1 REVERT JUMPDEST POP PUSH2 0x769 PUSH1 0x4 DUP1 CALLDATASIZE SUB DUP2 ADD SWAP1 DUP1 DUP1 CALLDATALOAD SWAP1 PUSH1 0x20 ADD SWAP1 SWAP3 SWAP2 SWAP1 POP POP POP PUSH2 0x1A0F JUMP JUMPDEST PUSH1 0x40 MLOAD DUP1 DUP3 PUSH1 0x2 PUSH1 0x20 MUL DUP1 DUP4 DUP4 PUSH1 0x0 JUMPDEST DUP4 DUP2 LT ISZERO PUSH2 0x794 JUMPI DUP1 DUP3 ADD MLOAD DUP2 DUP5 ADD MSTORE PUSH1 0x20 DUP2 ADD SWAP1 POP PUSH2 0x779 JUMP JUMPDEST POP POP POP POP SWAP1 POP ADD SWAP2 POP POP PUSH1 0x40 MLOAD DUP1 SWAP2 SUB SWAP1 RETURN JUMPDEST CALLVALUE DUP1 ISZERO PUSH2 0x7B3 JUMPI PUSH1 0x0 DUP1 REVERT JUMPDEST POP PUSH2 0x7F7 PUSH1 0x4 DUP1 CALLDATASIZE SUB DUP2 ADD SWAP1 DUP1 DUP1 PUSH1 0x40 ADD SWAP1 PUSH1 0x2 DUP1 PUSH1 0x20 MUL PUSH1 0x40 MLOAD SWAP1 DUP2 ADD PUSH1 0x40 MSTORE DUP1 SWAP3 SWAP2 SWAP1 DUP3 PUSH1 0x2 PUSH1 0x20 MUL DUP1 DUP3 DUP5 CALLDATACOPY DUP3 ADD SWAP2 POP POP POP POP POP SWAP2 SWAP3 SWAP2 SWAP3 SWAP1 POP POP POP PUSH2 0x1BA3 JUMP JUMPDEST PUSH1 0x40 MLOAD DUP1 DUP3 PUSH1 0x2 PUSH1 0x20 MUL DUP1 DUP4 DUP4 PUSH1 0x0 JUMPDEST DUP4 DUP2 LT ISZERO PUSH2 0x822 JUMPI DUP1 DUP3 ADD MLOAD DUP2 DUP5 ADD MSTORE PUSH1 0x20 DUP2 ADD SWAP1 POP PUSH2 0x807 JUMP JUMPDEST POP POP POP POP SWAP1 POP ADD SWAP2 POP POP PUSH1 0x40 MLOAD DUP1 SWAP2 SUB SWAP1 RETURN JUMPDEST CALLVALUE DUP1 ISZERO PUSH2 0x841 JUMPI PUSH1 0x0 DUP1 REVERT JUMPDEST POP PUSH2 0x885 PUSH1 0x4 DUP1 CALLDATASIZE SUB DUP2 ADD SWAP1 DUP1 DUP1 PUSH1 0x40 ADD SWAP1 PUSH1 0x2 DUP1 PUSH1 0x20 MUL PUSH1 0x40 MLOAD SWAP1 DUP2 ADD PUSH1 0x40 MSTORE DUP1 SWAP3 SWAP2 SWAP1 DUP3 PUSH1 0x2 PUSH1 0x20 MUL DUP1 DUP3 DUP5 CALLDATACOPY DUP3 ADD SWAP2 POP POP POP POP POP SWAP2 SWAP3 SWAP2 SWAP3 SWAP1 POP POP POP PUSH2 0x1C55 JUMP JUMPDEST PUSH1 0x40 MLOAD DUP1 DUP3 PUSH1 0x2 PUSH1 0x20 MUL DUP1 DUP4 DUP4 PUSH1 0x0 JUMPDEST DUP4 DUP2 LT ISZERO PUSH2 0x8B0 JUMPI DUP1 DUP3 ADD MLOAD DUP2 DUP5 ADD MSTORE PUSH1 0x20 DUP2 ADD SWAP1 POP PUSH2 0x895 JUMP JUMPDEST POP POP POP POP SWAP1 POP ADD SWAP2 POP POP PUSH1 0x40 MLOAD DUP1 SWAP2 SUB SWAP1 RETURN JUMPDEST CALLVALUE DUP1 ISZERO PUSH2 0x8CF JUMPI PUSH1 0x0 DUP1 REVERT JUMPDEST POP PUSH2 0x8EE PUSH1 0x4 DUP1 CALLDATASIZE SUB DUP2 ADD SWAP1 DUP1 DUP1 CALLDATALOAD SWAP1 PUSH1 0x20 ADD SWAP1 SWAP3 SWAP2 SWAP1 POP POP POP PUSH2 0x1D5B JUMP JUMPDEST PUSH1 0x40 MLOAD DUP1 DUP3 PUSH1 0x2 PUSH1 0x20 MUL DUP1 DUP4 DUP4 PUSH1 0x0 JUMPDEST DUP4 DUP2 LT ISZERO PUSH2 0x919 JUMPI DUP1 DUP3 ADD MLOAD DUP2 DUP5 ADD MSTORE PUSH1 0x20 DUP2 ADD SWAP1 POP PUSH2 0x8FE JUMP JUMPDEST POP POP POP POP SWAP1 POP ADD SWAP2 POP POP PUSH1 0x40 MLOAD DUP1 SWAP2 SUB SWAP1 RETURN JUMPDEST CALLVALUE DUP1 ISZERO PUSH2 0x938 JUMPI PUSH1 0x0 DUP1 REVERT JUMPDEST POP PUSH2 0x957 PUSH1 0x4 DUP1 CALLDATASIZE SUB DUP2 ADD SWAP1 DUP1 DUP1 CALLDATALOAD SWAP1 PUSH1 0x20 ADD SWAP1 SWAP3 SWAP2 SWAP1 POP POP POP PUSH2 0x1DB1 JUMP JUMPDEST PUSH1 0x40 MLOAD DUP1 DUP4 DUP2 MSTORE PUSH1 0x20 ADD DUP3 ISZERO ISZERO ISZERO ISZERO DUP2 MSTORE PUSH1 0x20 ADD SWAP3 POP POP POP PUSH1 0x40 MLOAD DUP1 SWAP2 SUB SWAP1 RETURN JUMPDEST CALLVALUE DUP1 ISZERO PUSH2 0x984 JUMPI PUSH1 0x0 DUP1 REVERT JUMPDEST POP PUSH2 0x9C8 PUSH1 0x4 DUP1 CALLDATASIZE SUB DUP2 ADD SWAP1 DUP1 DUP1 PUSH1 0x40 ADD SWAP1 PUSH1 0x2 DUP1 PUSH1 0x20 MUL PUSH1 0x40 MLOAD SWAP1 DUP2 ADD PUSH1 0x40 MSTORE DUP1 SWAP3 SWAP2 SWAP1 DUP3 PUSH1 0x2 PUSH1 0x20 MUL DUP1 DUP3 DUP5 CALLDATACOPY DUP3 ADD SWAP2 POP POP POP POP POP SWAP2 SWAP3 SWAP2 SWAP3 SWAP1 POP POP POP PUSH2 0x1F16 JUMP JUMPDEST PUSH1 0x40 MLOAD DUP1 DUP3 DUP2 MSTORE PUSH1 0x20 ADD SWAP2 POP POP PUSH1 0x40 MLOAD DUP1 SWAP2 SUB SWAP1 RETURN JUMPDEST CALLVALUE DUP1 ISZERO PUSH2 0x9EA JUMPI PUSH1 0x0 DUP1 REVERT JUMPDEST POP PUSH2 0xA2E PUSH1 0x4 DUP1 CALLDATASIZE SUB DUP2 ADD SWAP1 DUP1 DUP1 PUSH1 0x40 ADD SWAP1 PUSH1 0x2 DUP1 PUSH1 0x20 MUL PUSH1 0x40 MLOAD SWAP1 DUP2 ADD PUSH1 0x40 MSTORE DUP1 SWAP3 SWAP2 SWAP1 DUP3 PUSH1 0x2 PUSH1 0x20 MUL DUP1 DUP3 DUP5 CALLDATACOPY DUP3 ADD SWAP2 POP POP POP POP POP SWAP2 SWAP3 SWAP2 SWAP3 SWAP1 POP POP POP PUSH2 0x1F77 JUMP JUMPDEST PUSH1 0x40 MLOAD DUP1 DUP3 DUP2 MSTORE PUSH1 0x20 ADD SWAP2 POP POP PUSH1 0x40 MLOAD DUP1 SWAP2 SUB SWAP1 RETURN JUMPDEST CALLVALUE DUP1 ISZERO PUSH2 0xA50 JUMPI PUSH1 0x0 DUP1 REVERT JUMPDEST POP PUSH2 0xAC3 PUSH1 0x4 DUP1 CALLDATASIZE SUB DUP2 ADD SWAP1 DUP1 DUP1 PUSH1 0x40 ADD SWAP1 PUSH1 0x2 DUP1 PUSH1 0x20 MUL PUSH1 0x40 MLOAD SWAP1 DUP2 ADD PUSH1 0x40 MSTORE DUP1 SWAP3 SWAP2 SWAP1 DUP3 PUSH1 0x2 PUSH1 0x20 MUL DUP1 DUP3 DUP5 CALLDATACOPY DUP3 ADD SWAP2 POP POP POP POP POP SWAP2 SWAP3 SWAP2 SWAP3 SWAP1 DUP1 PUSH1 0x40 ADD SWAP1 PUSH1 0x2 DUP1 PUSH1 0x20 MUL PUSH1 0x40 MLOAD SWAP1 DUP2 ADD PUSH1 0x40 MSTORE DUP1 SWAP3 SWAP2 SWAP1 DUP3 PUSH1 0x2 PUSH1 0x20 MUL DUP1 DUP3 DUP5 CALLDATACOPY DUP3 ADD SWAP2 POP POP POP POP POP SWAP2 SWAP3 SWAP2 SWAP3 SWAP1 POP POP POP PUSH2 0x1FC8 JUMP JUMPDEST PUSH1 0x40 MLOAD DUP1 DUP3 PUSH1 0x2 PUSH1 0x20 MUL DUP1 DUP4 DUP4 PUSH1 0x0 JUMPDEST DUP4 DUP2 LT ISZERO PUSH2 0xAEE JUMPI DUP1 DUP3 ADD MLOAD DUP2 DUP5 ADD MSTORE PUSH1 0x20 DUP2 ADD SWAP1 POP PUSH2 0xAD3 JUMP JUMPDEST POP POP POP POP SWAP1 POP ADD SWAP2 POP POP PUSH1 0x40 MLOAD DUP1 SWAP2 SUB SWAP1 RETURN JUMPDEST CALLVALUE DUP1 ISZERO PUSH2 0xB0D JUMPI PUSH1 0x0 DUP1 REVERT JUMPDEST POP PUSH2 0xC2E PUSH1 0x4 DUP1 CALLDATASIZE SUB DUP2 ADD SWAP1 DUP1 DUP1 CALLDATALOAD SWAP1 PUSH1 0x20 ADD SWAP1 DUP3 ADD DUP1 CALLDATALOAD SWAP1 PUSH1 0x20 ADD SWAP1 DUP1 DUP1 PUSH1 0x20 MUL PUSH1 0x20 ADD PUSH1 0x40 MLOAD SWAP1 DUP2 ADD PUSH1 0x40 MSTORE DUP1 SWAP4 SWAP3 SWAP2 SWAP1 DUP2 DUP2 MSTORE PUSH1 0x20 ADD DUP4 DUP4 PUSH1 0x20 MUL DUP1 DUP3 DUP5 CALLDATACOPY DUP3 ADD SWAP2 POP POP POP POP POP POP SWAP2 SWAP3 SWAP2 SWAP3 SWAP1 DUP1 CALLDATALOAD SWAP1 PUSH1 0x20 ADD SWAP1 DUP3 ADD DUP1 CALLDATALOAD SWAP1 PUSH1 0x20 ADD SWAP1 DUP1 DUP1 PUSH1 0x20 MUL PUSH1 0x20 ADD PUSH1 0x40 MLOAD SWAP1 DUP2 ADD PUSH1 0x40 MSTORE DUP1 SWAP4 SWAP3 SWAP2 SWAP1 DUP2 DUP2 MSTORE PUSH1 0x20 ADD DUP4 DUP4 PUSH1 0x20 MUL DUP1 DUP3 DUP5 CALLDATACOPY DUP3 ADD SWAP2 POP POP POP POP POP POP SWAP2 SWAP3 SWAP2 SWAP3 SWAP1 DUP1 CALLDATALOAD SWAP1 PUSH1 0x20 ADD SWAP1 DUP3 ADD DUP1 CALLDATALOAD SWAP1 PUSH1 0x20 ADD SWAP1 DUP1 DUP1 PUSH1 0x20 MUL PUSH1 0x20 ADD PUSH1 0x40 MLOAD SWAP1 DUP2 ADD PUSH1 0x40 MSTORE DUP1 SWAP4 SWAP3 SWAP2 SWAP1 DUP2 DUP2 MSTORE PUSH1 0x20 ADD DUP4 DUP4 PUSH1 0x20 MUL DUP1 DUP3 DUP5 CALLDATACOPY DUP3 ADD SWAP2 POP POP POP POP POP POP SWAP2 SWAP3 SWAP2 SWAP3 SWAP1 DUP1 CALLDATALOAD SWAP1 PUSH1 0x20 ADD SWAP1 DUP3 ADD DUP1 CALLDATALOAD SWAP1 PUSH1 0x20 ADD SWAP1 DUP1 DUP1 PUSH1 0x20 MUL PUSH1 0x20 ADD PUSH1 0x40 MLOAD SWAP1 DUP2 ADD PUSH1 0x40 MSTORE DUP1 SWAP4 SWAP3 SWAP2 SWAP1 DUP2 DUP2 MSTORE PUSH1 0x20 ADD DUP4 DUP4 PUSH1 0x20 MUL DUP1 DUP3 DUP5 CALLDATACOPY DUP3 ADD SWAP2 POP POP POP POP POP POP SWAP2 SWAP3 SWAP2 SWAP3 SWAP1 POP POP POP PUSH2 0x1FEA JUMP JUMPDEST PUSH1 0x40 MLOAD DUP1 DUP4 PUSH1 0x2 PUSH1 0x20 MUL DUP1 DUP4 DUP4 PUSH1 0x0 JUMPDEST DUP4 DUP2 LT ISZERO PUSH2 0xC59 JUMPI DUP1 DUP3 ADD MLOAD DUP2 DUP5 ADD MSTORE PUSH1 0x20 DUP2 ADD SWAP1 POP PUSH2 0xC3E JUMP JUMPDEST POP POP POP POP SWAP1 POP ADD DUP3 PUSH1 0x2 PUSH1 0x20 MUL DUP1 DUP4 DUP4 PUSH1 0x0 JUMPDEST DUP4 DUP2 LT ISZERO PUSH2 0xC87 JUMPI DUP1 DUP3 ADD MLOAD DUP2 DUP5 ADD MSTORE PUSH1 0x20 DUP2 ADD SWAP1 POP PUSH2 0xC6C JUMP JUMPDEST POP POP POP POP SWAP1 POP ADD SWAP3 POP POP POP PUSH1 0x40 MLOAD DUP1 SWAP2 SUB SWAP1 RETURN JUMPDEST CALLVALUE DUP1 ISZERO PUSH2 0xCA7 JUMPI PUSH1 0x0 DUP1 REVERT JUMPDEST POP PUSH2 0xCC6 PUSH1 0x4 DUP1 CALLDATASIZE SUB DUP2 ADD SWAP1 DUP1 DUP1 CALLDATALOAD SWAP1 PUSH1 0x20 ADD SWAP1 SWAP3 SWAP2 SWAP1 POP POP POP PUSH2 0x2021 JUMP JUMPDEST PUSH1 0x40 MLOAD DUP1 DUP1 PUSH1 0x20 ADD DUP1 PUSH1 0x20 ADD DUP4 DUP2 SUB DUP4 MSTORE DUP6 DUP2 DUP2 MLOAD DUP2 MSTORE PUSH1 0x20 ADD SWAP2 POP DUP1 MLOAD SWAP1 PUSH1 0x20 ADD SWAP1 PUSH1 0x20 MUL DUP1 DUP4 DUP4 PUSH1 0x0 JUMPDEST DUP4 DUP2 LT ISZERO PUSH2 0xD0D JUMPI DUP1 DUP3 ADD MLOAD DUP2 DUP5 ADD MSTORE PUSH1 0x20 DUP2 ADD SWAP1 POP PUSH2 0xCF2 JUMP JUMPDEST POP POP POP POP SWAP1 POP ADD DUP4 DUP2 SUB DUP3 MSTORE DUP5 DUP2 DUP2 MLOAD DUP2 MSTORE PUSH1 0x20 ADD SWAP2 POP DUP1 MLOAD SWAP1 PUSH1 0x20 ADD SWAP1 PUSH1 0x20 MUL DUP1 DUP4 DUP4 PUSH1 0x0 JUMPDEST DUP4 DUP2 LT ISZERO PUSH2 0xD4F JUMPI DUP1 DUP3 ADD MLOAD DUP2 DUP5 ADD MSTORE PUSH1 0x20 DUP2 ADD SWAP1 POP PUSH2 0xD34 JUMP JUMPDEST POP POP POP POP SWAP1 POP ADD SWAP5 POP POP POP POP POP PUSH1 0x40 MLOAD DUP1 SWAP2 SUB SWAP1 RETURN JUMPDEST CALLVALUE DUP1 ISZERO PUSH2 0xD71 JUMPI PUSH1 0x0 DUP1 REVERT JUMPDEST POP PUSH2 0xD90 PUSH1 0x4 DUP1 CALLDATASIZE SUB DUP2 ADD SWAP1 DUP1 DUP1 CALLDATALOAD SWAP1 PUSH1 0x20 ADD SWAP1 SWAP3 SWAP2 SWAP1 POP POP POP PUSH2 0x2208 JUMP JUMPDEST STOP JUMPDEST CALLVALUE DUP1 ISZERO PUSH2 0xD9E JUMPI PUSH1 0x0 DUP1 REVERT JUMPDEST POP PUSH2 0xDA7 PUSH2 0x25A1 JUMP JUMPDEST PUSH1 0x40 MLOAD DUP1 DUP3 PUSH20 0xFFFFFFFFFFFFFFFFFFFFFFFFFFFFFFFFFFFFFFFF AND PUSH20 0xFFFFFFFFFFFFFFFFFFFFFFFFFFFFFFFFFFFFFFFF AND DUP2 MSTORE PUSH1 0x20 ADD SWAP2 POP POP PUSH1 0x40 MLOAD DUP1 SWAP2 SUB SWAP1 RETURN JUMPDEST CALLVALUE DUP1 ISZERO PUSH2 0xDF5 JUMPI PUSH1 0x0 DUP1 REVERT JUMPDEST POP PUSH2 0xE72 PUSH1 0x4 DUP1 CALLDATASIZE SUB DUP2 ADD SWAP1 DUP1 DUP1 PUSH1 0x40 ADD SWAP1 PUSH1 0x2 DUP1 PUSH1 0x20 MUL PUSH1 0x40 MLOAD SWAP1 DUP2 ADD PUSH1 0x40 MSTORE DUP1 SWAP3 SWAP2 SWAP1 DUP3 PUSH1 0x2 PUSH1 0x20 MUL DUP1 DUP3 DUP5 CALLDATACOPY DUP3 ADD SWAP2 POP POP POP POP POP SWAP2 SWAP3 SWAP2 SWAP3 SWAP1 DUP1 PUSH1 0x40 ADD SWAP1 PUSH1 0x2 DUP1 PUSH1 0x20 MUL PUSH1 0x40 MLOAD SWAP1 DUP2 ADD PUSH1 0x40 MSTORE DUP1 SWAP3 SWAP2 SWAP1 DUP3 PUSH1 0x2 PUSH1 0x20 MUL DUP1 DUP3 DUP5 CALLDATACOPY DUP3 ADD SWAP2 POP POP POP POP POP SWAP2 SWAP3 SWAP2 SWAP3 SWAP1 DUP1 CALLDATALOAD SWAP1 PUSH1 0x20 ADD SWAP1 SWAP3 SWAP2 SWAP1 POP POP POP PUSH2 0x25C6 JUMP JUMPDEST PUSH1 0x40 MLOAD DUP1 DUP3 PUSH1 0x2 PUSH1 0x20 MUL DUP1 DUP4 DUP4 PUSH1 0x0 JUMPDEST DUP4 DUP2 LT ISZERO PUSH2 0xE9D JUMPI DUP1 DUP3 ADD MLOAD DUP2 DUP5 ADD MSTORE PUSH1 0x20 DUP2 ADD SWAP1 POP PUSH2 0xE82 JUMP JUMPDEST POP POP POP POP SWAP1 POP ADD SWAP2 POP POP PUSH1 0x40 MLOAD DUP1 SWAP2 SUB SWAP1 RETURN JUMPDEST CALLVALUE DUP1 ISZERO PUSH2 0xEBC JUMPI PUSH1 0x0 DUP1 REVERT JUMPDEST POP PUSH2 0xEC5 PUSH2 0x25EA JUMP JUMPDEST PUSH1 0x40 MLOAD DUP1 DUP3 DUP2 MSTORE PUSH1 0x20 ADD SWAP2 POP POP PUSH1 0x40 MLOAD DUP1 SWAP2 SUB SWAP1 RETURN JUMPDEST CALLVALUE DUP1 ISZERO PUSH2 0xEE7 JUMPI PUSH1 0x0 DUP1 REVERT JUMPDEST POP PUSH2 0xFC5 PUSH1 0x4 DUP1 CALLDATASIZE SUB DUP2 ADD SWAP1 DUP1 DUP1 PUSH1 0x40 ADD SWAP1 PUSH1 0x2 DUP1 PUSH1 0x20 MUL PUSH1 0x40 MLOAD SWAP1 DUP2 ADD PUSH1 0x40 MSTORE DUP1 SWAP3 SWAP2 SWAP1 DUP3 PUSH1 0x2 PUSH1 0x20 MUL DUP1 DUP3 DUP5 CALLDATACOPY DUP3 ADD SWAP2 POP POP POP POP POP SWAP2 SWAP3 SWAP2 SWAP3 SWAP1 DUP1 CALLDATALOAD SWAP1 PUSH1 0x20 ADD SWAP1 DUP3 ADD DUP1 CALLDATALOAD SWAP1 PUSH1 0x20 ADD SWAP1 DUP1 DUP1 PUSH1 0x20 MUL PUSH1 0x20 ADD PUSH1 0x40 MLOAD SWAP1 DUP2 ADD PUSH1 0x40 MSTORE DUP1 SWAP4 SWAP3 SWAP2 SWAP1 DUP2 DUP2 MSTORE PUSH1 0x20 ADD DUP4 DUP4 PUSH1 0x20 MUL DUP1 DUP3 DUP5 CALLDATACOPY DUP3 ADD SWAP2 POP POP POP POP POP POP SWAP2 SWAP3 SWAP2 SWAP3 SWAP1 DUP1 CALLDATALOAD SWAP1 PUSH1 0x20 ADD SWAP1 DUP3 ADD DUP1 CALLDATALOAD SWAP1 PUSH1 0x20 ADD SWAP1 DUP1 DUP1 PUSH1 0x20 MUL PUSH1 0x20 ADD PUSH1 0x40 MLOAD SWAP1 DUP2 ADD PUSH1 0x40 MSTORE DUP1 SWAP4 SWAP3 SWAP2 SWAP1 DUP2 DUP2 MSTORE PUSH1 0x20 ADD DUP4 DUP4 PUSH1 0x20 MUL DUP1 DUP3 DUP5 CALLDATACOPY DUP3 ADD SWAP2 POP POP POP POP POP POP SWAP2 SWAP3 SWAP2 SWAP3 SWAP1 DUP1 CALLDATALOAD SWAP1 PUSH1 0x20 ADD SWAP1 SWAP3 SWAP2 SWAP1 DUP1 CALLDATALOAD SWAP1 PUSH1 0x20 ADD SWAP1 SWAP3 SWAP2 SWAP1 POP POP POP PUSH2 0x2603 JUMP JUMPDEST PUSH1 0x40 MLOAD DUP1 DUP3 PUSH1 0x2 PUSH1 0x20 MUL DUP1 DUP4 DUP4 PUSH1 0x0 JUMPDEST DUP4 DUP2 LT ISZERO PUSH2 0xFF0 JUMPI DUP1 DUP3 ADD MLOAD DUP2 DUP5 ADD MSTORE PUSH1 0x20 DUP2 ADD SWAP1 POP PUSH2 0xFD5 JUMP JUMPDEST POP POP POP POP SWAP1 POP ADD SWAP2 POP POP PUSH1 0x40 MLOAD DUP1 SWAP2 SUB SWAP1 RETURN JUMPDEST CALLVALUE DUP1 ISZERO PUSH2 0x100F JUMPI PUSH1 0x0 DUP1 REVERT JUMPDEST POP PUSH2 0x1018 PUSH2 0x262B JUMP JUMPDEST PUSH1 0x40 MLOAD DUP1 DUP3 PUSH1 0x2 PUSH1 0x20 MUL DUP1 DUP4 DUP4 PUSH1 0x0 JUMPDEST DUP4 DUP2 LT ISZERO PUSH2 0x1043 JUMPI DUP1 DUP3 ADD MLOAD DUP2 DUP5 ADD MSTORE PUSH1 0x20 DUP2 ADD SWAP1 POP PUSH2 0x1028 JUMP JUMPDEST POP POP POP POP SWAP1 POP ADD SWAP2 POP POP PUSH1 0x40 MLOAD DUP1 SWAP2 SUB SWAP1 RETURN JUMPDEST CALLVALUE DUP1 ISZERO PUSH2 0x1062 JUMPI PUSH1 0x0 DUP1 REVERT JUMPDEST POP PUSH2 0x10B0 PUSH1 0x4 DUP1 CALLDATASIZE SUB DUP2 ADD SWAP1 DUP1 DUP1 PUSH1 0x40 ADD SWAP1 PUSH1 0x2 DUP1 PUSH1 0x20 MUL PUSH1 0x40 MLOAD SWAP1 DUP2 ADD PUSH1 0x40 MSTORE DUP1 SWAP3 SWAP2 SWAP1 DUP3 PUSH1 0x2 PUSH1 0x20 MUL DUP1 DUP3 DUP5 CALLDATACOPY DUP3 ADD SWAP2 POP POP POP POP POP SWAP2 SWAP3 SWAP2 SWAP3 SWAP1 DUP1 CALLDATALOAD SWAP1 PUSH1 0x20 ADD SWAP1 SWAP3 SWAP2 SWAP1 POP POP POP PUSH2 0x2676 JUMP JUMPDEST PUSH1 0x40 MLOAD DUP1 DUP3 PUSH1 0x2 PUSH1 0x20 MUL DUP1 DUP4 DUP4 PUSH1 0x0 JUMPDEST DUP4 DUP2 LT ISZERO PUSH2 0x10DB JUMPI DUP1 DUP3 ADD MLOAD DUP2 DUP5 ADD MSTORE PUSH1 0x20 DUP2 ADD SWAP1 POP PUSH2 0x10C0 JUMP JUMPDEST POP POP POP POP SWAP1 POP ADD SWAP2 POP POP PUSH1 0x40 MLOAD DUP1 SWAP2 SUB SWAP1 RETURN JUMPDEST CALLVALUE DUP1 ISZERO PUSH2 0x10FA JUMPI PUSH1 0x0 DUP1 REVERT JUMPDEST POP PUSH2 0x1103 PUSH2 0x26CE JUMP JUMPDEST PUSH1 0x40 MLOAD DUP1 DUP3 PUSH1 0x2 PUSH1 0x20 MUL DUP1 DUP4 DUP4 PUSH1 0x0 JUMPDEST DUP4 DUP2 LT ISZERO PUSH2 0x112E JUMPI DUP1 DUP3 ADD MLOAD DUP2 DUP5 ADD MSTORE PUSH1 0x20 DUP2 ADD SWAP1 POP PUSH2 0x1113 JUMP JUMPDEST POP POP POP POP SWAP1 POP ADD SWAP2 POP POP PUSH1 0x40 MLOAD DUP1 SWAP2 SUB SWAP1 RETURN JUMPDEST CALLVALUE DUP1 ISZERO PUSH2 0x114D JUMPI PUSH1 0x0 DUP1 REVERT JUMPDEST POP PUSH2 0x11FC PUSH1 0x4 DUP1 CALLDATASIZE SUB DUP2 ADD SWAP1 DUP1 DUP1 CALLDATALOAD SWAP1 PUSH1 0x20 ADD SWAP1 DUP3 ADD DUP1 CALLDATALOAD SWAP1 PUSH1 0x20 ADD SWAP1 DUP1 DUP1 PUSH1 0x20 MUL PUSH1 0x20 ADD PUSH1 0x40 MLOAD SWAP1 DUP2 ADD PUSH1 0x40 MSTORE DUP1 SWAP4 SWAP3 SWAP2 SWAP1 DUP2 DUP2 MSTORE PUSH1 0x20 ADD DUP4 DUP4 PUSH1 0x20 MUL DUP1 DUP3 DUP5 CALLDATACOPY DUP3 ADD SWAP2 POP POP POP POP POP POP SWAP2 SWAP3 SWAP2 SWAP3 SWAP1 DUP1 CALLDATALOAD SWAP1 PUSH1 0x20 ADD SWAP1 DUP3 ADD DUP1 CALLDATALOAD SWAP1 PUSH1 0x20 ADD SWAP1 DUP1 DUP1 PUSH1 0x20 MUL PUSH1 0x20 ADD PUSH1 0x40 MLOAD SWAP1 DUP2 ADD PUSH1 0x40 MSTORE DUP1 SWAP4 SWAP3 SWAP2 SWAP1 DUP2 DUP2 MSTORE PUSH1 0x20 ADD DUP4 DUP4 PUSH1 0x20 MUL DUP1 DUP3 DUP5 CALLDATACOPY DUP3 ADD SWAP2 POP POP POP POP POP POP SWAP2 SWAP3 SWAP2 SWAP3 SWAP1 DUP1 CALLDATALOAD SWAP1 PUSH1 0x20 ADD SWAP1 SWAP3 SWAP2 SWAP1 DUP1 CALLDATALOAD SWAP1 PUSH1 0x20 ADD SWAP1 SWAP3 SWAP2 SWAP1 POP POP POP PUSH2 0x2719 JUMP JUMPDEST PUSH1 0x40 MLOAD DUP1 DUP3 PUSH1 0x2 PUSH1 0x20 MUL DUP1 DUP4 DUP4 PUSH1 0x0 JUMPDEST DUP4 DUP2 LT ISZERO PUSH2 0x1227 JUMPI DUP1 DUP3 ADD MLOAD DUP2 DUP5 ADD MSTORE PUSH1 0x20 DUP2 ADD SWAP1 POP PUSH2 0x120C JUMP JUMPDEST POP POP POP POP SWAP1 POP ADD SWAP2 POP POP PUSH1 0x40 MLOAD DUP1 SWAP2 SUB SWAP1 RETURN JUMPDEST CALLVALUE DUP1 ISZERO PUSH2 0x1246 JUMPI PUSH1 0x0 DUP1 REVERT JUMPDEST POP PUSH2 0x124F PUSH2 0x2888 JUMP JUMPDEST PUSH1 0x40 MLOAD DUP1 DUP3 DUP2 MSTORE PUSH1 0x20 ADD SWAP2 POP POP PUSH1 0x40 MLOAD DUP1 SWAP2 SUB SWAP1 RETURN JUMPDEST CALLVALUE DUP1 ISZERO PUSH2 0x1271 JUMPI PUSH1 0x0 DUP1 REVERT JUMPDEST POP PUSH2 0x127A PUSH2 0x28B0 JUMP JUMPDEST STOP JUMPDEST CALLVALUE DUP1 ISZERO PUSH2 0x1288 JUMPI PUSH1 0x0 DUP1 REVERT JUMPDEST POP PUSH2 0x12D6 PUSH1 0x4 DUP1 CALLDATASIZE SUB DUP2 ADD SWAP1 DUP1 DUP1 PUSH1 0x40 ADD SWAP1 PUSH1 0x2 DUP1 PUSH1 0x20 MUL PUSH1 0x40 MLOAD SWAP1 DUP2 ADD PUSH1 0x40 MSTORE DUP1 SWAP3 SWAP2 SWAP1 DUP3 PUSH1 0x2 PUSH1 0x20 MUL DUP1 DUP3 DUP5 CALLDATACOPY DUP3 ADD SWAP2 POP POP POP POP POP SWAP2 SWAP3 SWAP2 SWAP3 SWAP1 DUP1 CALLDATALOAD SWAP1 PUSH1 0x20 ADD SWAP1 SWAP3 SWAP2 SWAP1 POP POP POP PUSH2 0x2968 JUMP JUMPDEST PUSH1 0x40 MLOAD DUP1 DUP3 PUSH1 0x2 PUSH1 0x20 MUL DUP1 DUP4 DUP4 PUSH1 0x0 JUMPDEST DUP4 DUP2 LT ISZERO PUSH2 0x1301 JUMPI DUP1 DUP3 ADD MLOAD DUP2 DUP5 ADD MSTORE PUSH1 0x20 DUP2 ADD SWAP1 POP PUSH2 0x12E6 JUMP JUMPDEST POP POP POP POP SWAP1 POP ADD SWAP2 POP POP PUSH1 0x40 MLOAD DUP1 SWAP2 SUB SWAP1 RETURN JUMPDEST CALLVALUE DUP1 ISZERO PUSH2 0x1320 JUMPI PUSH1 0x0 DUP1 REVERT JUMPDEST POP PUSH2 0x1329 PUSH2 0x29C1 JUMP JUMPDEST PUSH1 0x40 MLOAD DUP1 DUP3 PUSH1 0x2 PUSH1 0x20 MUL DUP1 DUP4 DUP4 PUSH1 0x0 JUMPDEST DUP4 DUP2 LT ISZERO PUSH2 0x1354 JUMPI DUP1 DUP3 ADD MLOAD DUP2 DUP5 ADD MSTORE PUSH1 0x20 DUP2 ADD SWAP1 POP PUSH2 0x1339 JUMP JUMPDEST POP POP POP POP SWAP1 POP ADD SWAP2 POP POP PUSH1 0x40 MLOAD DUP1 SWAP2 SUB SWAP1 RETURN JUMPDEST CALLVALUE DUP1 ISZERO PUSH2 0x1373 JUMPI PUSH1 0x0 DUP1 REVERT JUMPDEST POP PUSH2 0x140E PUSH1 0x4 DUP1 CALLDATASIZE SUB DUP2 ADD SWAP1 DUP1 DUP1 CALLDATALOAD SWAP1 PUSH1 0x20 ADD SWAP1 DUP3 ADD DUP1 CALLDATALOAD SWAP1 PUSH1 0x20 ADD SWAP1 DUP1 DUP1 PUSH1 0x20 MUL PUSH1 0x20 ADD PUSH1 0x40 MLOAD SWAP1 DUP2 ADD PUSH1 0x40 MSTORE DUP1 SWAP4 SWAP3 SWAP2 SWAP1 DUP2 DUP2 MSTORE PUSH1 0x20 ADD DUP4 DUP4 PUSH1 0x20 MUL DUP1 DUP3 DUP5 CALLDATACOPY DUP3 ADD SWAP2 POP POP POP POP POP POP SWAP2 SWAP3 SWAP2 SWAP3 SWAP1 DUP1 CALLDATALOAD SWAP1 PUSH1 0x20 ADD SWAP1 DUP3 ADD DUP1 CALLDATALOAD SWAP1 PUSH1 0x20 ADD SWAP1 DUP1 DUP1 PUSH1 0x20 MUL PUSH1 0x20 ADD PUSH1 0x40 MLOAD SWAP1 DUP2 ADD PUSH1 0x40 MSTORE DUP1 SWAP4 SWAP3 SWAP2 SWAP1 DUP2 DUP2 MSTORE PUSH1 0x20 ADD DUP4 DUP4 PUSH1 0x20 MUL DUP1 DUP3 DUP5 CALLDATACOPY DUP3 ADD SWAP2 POP POP POP POP POP POP SWAP2 SWAP3 SWAP2 SWAP3 SWAP1 POP POP POP PUSH2 0x2A0C JUMP JUMPDEST PUSH1 0x40 MLOAD DUP1 DUP1 PUSH1 0x20 ADD DUP3 DUP2 SUB DUP3 MSTORE DUP4 DUP2 DUP2 MLOAD DUP2 MSTORE PUSH1 0x20 ADD SWAP2 POP DUP1 MLOAD SWAP1 PUSH1 0x20 ADD SWAP1 PUSH1 0x20 MUL DUP1 DUP4 DUP4 PUSH1 0x0 JUMPDEST DUP4 DUP2 LT ISZERO PUSH2 0x1451 JUMPI DUP1 DUP3 ADD MLOAD DUP2 DUP5 ADD MSTORE PUSH1 0x20 DUP2 ADD SWAP1 POP PUSH2 0x1436 JUMP JUMPDEST POP POP POP POP SWAP1 POP ADD SWAP3 POP POP POP PUSH1 0x40 MLOAD DUP1 SWAP2 SUB SWAP1 RETURN JUMPDEST CALLVALUE DUP1 ISZERO PUSH2 0x1471 JUMPI PUSH1 0x0 DUP1 REVERT JUMPDEST POP PUSH2 0x147A PUSH2 0x2B64 JUMP JUMPDEST PUSH1 0x40 MLOAD DUP1 DUP3 DUP2 MSTORE PUSH1 0x20 ADD SWAP2 POP POP PUSH1 0x40 MLOAD DUP1 SWAP2 SUB SWAP1 RETURN JUMPDEST CALLVALUE DUP1 ISZERO PUSH2 0x149C JUMPI PUSH1 0x0 DUP1 REVERT JUMPDEST POP PUSH2 0x14C5 PUSH1 0x4 DUP1 CALLDATASIZE SUB DUP2 ADD SWAP1 DUP1 DUP1 CALLDATALOAD SWAP1 PUSH1 0x20 ADD SWAP1 SWAP3 SWAP2 SWAP1 DUP1 CALLDATALOAD SWAP1 PUSH1 0x20 ADD SWAP1 SWAP3 SWAP2 SWAP1 POP POP POP PUSH2 0x2B8C JUMP JUMPDEST PUSH1 0x40 MLOAD DUP1 DUP3 PUSH1 0x2 PUSH1 0x20 MUL DUP1 DUP4 DUP4 PUSH1 0x0 JUMPDEST DUP4 DUP2 LT ISZERO PUSH2 0x14F0 JUMPI DUP1 DUP3 ADD MLOAD DUP2 DUP5 ADD MSTORE PUSH1 0x20 DUP2 ADD SWAP1 POP PUSH2 0x14D5 JUMP JUMPDEST POP POP POP POP SWAP1 POP ADD SWAP2 POP POP PUSH1 0x40 MLOAD DUP1 SWAP2 SUB SWAP1 RETURN JUMPDEST PUSH2 0x150B PUSH2 0x2BB6 JUMP JUMPDEST PUSH2 0x1553 DUP4 PUSH1 0x3 PUSH1 0x2 DUP1 PUSH1 0x20 MUL PUSH1 0x40 MLOAD SWAP1 DUP2 ADD PUSH1 0x40 MSTORE DUP1 SWAP3 SWAP2 SWAP1 DUP3 PUSH1 0x2 DUP1 ISZERO PUSH2 0x1548 JUMPI PUSH1 0x20 MUL DUP3 ADD SWAP2 JUMPDEST DUP2 SLOAD DUP2 MSTORE PUSH1 0x20 ADD SWAP1 PUSH1 0x1 ADD SWAP1 DUP1 DUP4 GT PUSH2 0x1534 JUMPI JUMPDEST POP POP POP POP POP DUP5 PUSH2 0x25C6 JUMP JUMPDEST SWAP1 POP SWAP3 SWAP2 POP POP JUMP JUMPDEST PUSH2 0x1563 PUSH2 0x2BB6 JUMP JUMPDEST PUSH2 0x15AA PUSH1 0x1 PUSH1 0x2 DUP1 PUSH1 0x20 MUL PUSH1 0x40 MLOAD SWAP1 DUP2 ADD PUSH1 0x40 MSTORE DUP1 SWAP3 SWAP2 SWAP1 DUP3 PUSH1 0x2 DUP1 ISZERO PUSH2 0x159F JUMPI PUSH1 0x20 MUL DUP3 ADD SWAP2 JUMPDEST DUP2 SLOAD DUP2 MSTORE PUSH1 0x20 ADD SWAP1 PUSH1 0x1 ADD SWAP1 DUP1 DUP4 GT PUSH2 0x158B JUMPI JUMPDEST POP POP POP POP POP DUP4 PUSH2 0x2968 JUMP JUMPDEST SWAP1 POP SWAP2 SWAP1 POP JUMP JUMPDEST PUSH2 0x15B9 PUSH2 0x2BB6 JUMP JUMPDEST PUSH1 0x40 MLOAD DUP4 MLOAD DUP2 MSTORE PUSH1 0x20 DUP5 ADD MLOAD PUSH1 0x20 DUP3 ADD MSTORE DUP3 MLOAD PUSH1 0x40 DUP3 ADD MSTORE PUSH1 0x20 DUP4 ADD MLOAD PUSH1 0x60 DUP3 ADD MSTORE PUSH1 0x40 DUP2 PUSH1 0x80 DUP4 PUSH1 0x0 PUSH1 0x6 PUSH2 0x7D0 GAS SUB CALL DUP1 PUSH1 0x0 DUP2 EQ PUSH2 0x15F9 JUMPI PUSH2 0x15FE JUMP JUMPDEST PUSH1 0x80 DUP4 REVERT JUMPDEST POP DUP2 MLOAD DUP4 MSTORE PUSH1 0x20 DUP3 ADD MLOAD PUSH1 0x20 DUP5 ADD MSTORE POP POP SWAP3 SWAP2 POP POP JUMP JUMPDEST PUSH2 0x161D PUSH2 0x2BB6 JUMP JUMPDEST PUSH2 0x1664 PUSH1 0x1 PUSH1 0x2 DUP1 PUSH1 0x20 MUL PUSH1 0x40 MLOAD SWAP1 DUP2 ADD PUSH1 0x40 MSTORE DUP1 SWAP3 SWAP2 SWAP1 DUP3 PUSH1 0x2 DUP1 ISZERO PUSH2 0x1659 JUMPI PUSH1 0x20 MUL DUP3 ADD SWAP2 JUMPDEST DUP2 SLOAD DUP2 MSTORE PUSH1 0x20 ADD SWAP1 PUSH1 0x1 ADD SWAP1 DUP1 DUP4 GT PUSH2 0x1645 JUMPI JUMPDEST POP POP POP POP POP DUP4 PUSH2 0x2968 JUMP JUMPDEST SWAP1 POP SWAP2 SWAP1 POP JUMP JUMPDEST PUSH1 0x0 PUSH2 0x167E PUSH2 0x1679 DUP4 PUSH2 0x1615 JUMP JUMPDEST PUSH2 0x187E JUMP JUMPDEST SWAP1 POP SWAP2 SWAP1 POP JUMP JUMPDEST PUSH1 0x0 DUP2 PUSH1 0x0 PUSH1 0x2 DUP2 LT ISZERO ISZERO PUSH2 0x1696 JUMPI INVALID JUMPDEST PUSH1 0x20 MUL ADD MLOAD DUP4 PUSH1 0x0 PUSH1 0x2 DUP2 LT ISZERO ISZERO PUSH2 0x16AA JUMPI INVALID JUMPDEST PUSH1 0x20 MUL ADD MLOAD EQ DUP1 ISZERO PUSH2 0x16E1 JUMPI POP DUP2 PUSH1 0x1 PUSH1 0x2 DUP2 LT ISZERO ISZERO PUSH2 0x16C6 JUMPI INVALID JUMPDEST PUSH1 0x20 MUL ADD MLOAD DUP4 PUSH1 0x1 PUSH1 0x2 DUP2 LT ISZERO ISZERO PUSH2 0x16DA JUMPI INVALID JUMPDEST PUSH1 0x20 MUL ADD MLOAD EQ JUMPDEST SWAP1 POP SWAP3 SWAP2 POP POP JUMP JUMPDEST PUSH1 0x60 PUSH1 0x0 PUSH2 0x16F5 PUSH2 0x2BB6 JUMP JUMPDEST PUSH1 0x1 DUP6 MLOAD GT ISZERO ISZERO PUSH2 0x1705 JUMPI PUSH1 0x0 DUP1 REVERT JUMPDEST PUSH1 0x0 PUSH1 0x2 DUP7 MLOAD DUP2 ISZERO ISZERO PUSH2 0x1714 JUMPI INVALID JUMPDEST MOD EQ ISZERO ISZERO PUSH2 0x1721 JUMPI PUSH1 0x0 DUP1 REVERT JUMPDEST DUP5 MLOAD DUP5 MLOAD EQ ISZERO ISZERO PUSH2 0x1731 JUMPI PUSH1 0x0 DUP1 REVERT JUMPDEST DUP5 MLOAD PUSH1 0x40 MLOAD SWAP1 DUP1 DUP3 MSTORE DUP1 PUSH1 0x20 MUL PUSH1 0x20 ADD DUP3 ADD PUSH1 0x40 MSTORE DUP1 ISZERO PUSH2 0x1761 JUMPI DUP2 PUSH1 0x20 ADD PUSH1 0x20 DUP3 MUL DUP1 CODESIZE DUP4 CODECOPY DUP1 DUP3 ADD SWAP2 POP POP SWAP1 POP JUMPDEST POP SWAP3 POP PUSH1 0x0 SWAP2 POP JUMPDEST DUP5 MLOAD DUP3 LT ISZERO PUSH2 0x1876 JUMPI PUSH2 0x1806 PUSH1 0x40 DUP1 MLOAD SWAP1 DUP2 ADD PUSH1 0x40 MSTORE DUP1 DUP8 DUP6 DUP2 MLOAD DUP2 LT ISZERO ISZERO PUSH2 0x178E JUMPI INVALID JUMPDEST SWAP1 PUSH1 0x20 ADD SWAP1 PUSH1 0x20 MUL ADD MLOAD DUP2 MSTORE PUSH1 0x20 ADD DUP8 PUSH1 0x1 DUP7 ADD DUP2 MLOAD DUP2 LT ISZERO ISZERO PUSH2 0x17AE JUMPI INVALID JUMPDEST SWAP1 PUSH1 0x20 ADD SWAP1 PUSH1 0x20 MUL ADD MLOAD DUP2 MSTORE POP PUSH1 0x40 DUP1 MLOAD SWAP1 DUP2 ADD PUSH1 0x40 MSTORE DUP1 DUP8 DUP7 DUP2 MLOAD DUP2 LT ISZERO ISZERO PUSH2 0x17D4 JUMPI INVALID JUMPDEST SWAP1 PUSH1 0x20 ADD SWAP1 PUSH1 0x20 MUL ADD MLOAD DUP2 MSTORE PUSH1 0x20 ADD DUP8 PUSH1 0x1 DUP8 ADD DUP2 MLOAD DUP2 LT ISZERO ISZERO PUSH2 0x17F4 JUMPI INVALID JUMPDEST SWAP1 PUSH1 0x20 ADD SWAP1 PUSH1 0x20 MUL ADD MLOAD DUP2 MSTORE POP PUSH2 0x15B1 JUMP JUMPDEST SWAP1 POP DUP1 PUSH1 0x0 PUSH1 0x2 DUP2 LT ISZERO ISZERO PUSH2 0x1817 JUMPI INVALID JUMPDEST PUSH1 0x20 MUL ADD MLOAD DUP2 PUSH1 0x1 PUSH1 0x2 DUP2 LT ISZERO ISZERO PUSH2 0x182B JUMPI INVALID JUMPDEST PUSH1 0x20 MUL ADD MLOAD DUP5 DUP5 DUP2 MLOAD DUP2 LT ISZERO ISZERO PUSH2 0x183E JUMPI INVALID JUMPDEST SWAP1 PUSH1 0x20 ADD SWAP1 PUSH1 0x20 MUL ADD DUP6 PUSH1 0x1 DUP7 ADD DUP2 MLOAD DUP2 LT ISZERO ISZERO PUSH2 0x1858 JUMPI INVALID JUMPDEST SWAP1 PUSH1 0x20 ADD SWAP1 PUSH1 0x20 MUL ADD DUP3 DUP2 MSTORE POP DUP3 DUP2 MSTORE POP POP POP PUSH1 0x2 DUP3 ADD SWAP2 POP PUSH2 0x1769 JUMP JUMPDEST POP POP SWAP3 SWAP2 POP POP JUMP JUMPDEST PUSH1 0x0 DUP2 PUSH1 0x0 PUSH1 0x2 DUP2 LT ISZERO ISZERO PUSH2 0x188F JUMPI INVALID JUMPDEST PUSH1 0x20 MUL ADD MLOAD DUP3 PUSH1 0x1 PUSH1 0x2 DUP2 LT ISZERO ISZERO PUSH2 0x18A3 JUMPI INVALID JUMPDEST PUSH1 0x20 MUL ADD MLOAD PUSH1 0x40 MLOAD DUP1 DUP4 DUP2 MSTORE PUSH1 0x20 ADD DUP3 DUP2 MSTORE PUSH1 0x20 ADD SWAP3 POP POP POP PUSH1 0x40 MLOAD DUP1 SWAP2 SUB SWAP1 KECCAK256 PUSH1 0x1 SWAP1 DIV SWAP1 POP SWAP2 SWAP1 POP JUMP JUMPDEST PUSH1 0x60 PUSH1 0x0 PUSH2 0x18DB PUSH2 0x2BB6 JUMP JUMPDEST PUSH1 0x1 DUP6 MLOAD GT ISZERO ISZERO PUSH2 0x18EB JUMPI PUSH1 0x0 DUP1 REVERT JUMPDEST PUSH1 0x0 PUSH1 0x2 DUP7 MLOAD DUP2 ISZERO ISZERO PUSH2 0x18FA JUMPI INVALID JUMPDEST MOD EQ ISZERO ISZERO PUSH2 0x1907 JUMPI PUSH1 0x0 DUP1 REVERT JUMPDEST DUP5 MLOAD PUSH1 0x40 MLOAD SWAP1 DUP1 DUP3 MSTORE DUP1 PUSH1 0x20 MUL PUSH1 0x20 ADD DUP3 ADD PUSH1 0x40 MSTORE DUP1 ISZERO PUSH2 0x1937 JUMPI DUP2 PUSH1 0x20 ADD PUSH1 0x20 DUP3 MUL DUP1 CODESIZE DUP4 CODECOPY DUP1 DUP3 ADD SWAP2 POP POP SWAP1 POP JUMPDEST POP SWAP3 POP PUSH1 0x0 SWAP2 POP JUMPDEST DUP5 MLOAD DUP3 LT ISZERO PUSH2 0x1A07 JUMPI PUSH2 0x1997 PUSH1 0x40 DUP1 MLOAD SWAP1 DUP2 ADD PUSH1 0x40 MSTORE DUP1 DUP8 DUP6 DUP2 MLOAD DUP2 LT ISZERO ISZERO PUSH2 0x1964 JUMPI INVALID JUMPDEST SWAP1 PUSH1 0x20 ADD SWAP1 PUSH1 0x20 MUL ADD MLOAD DUP2 MSTORE PUSH1 0x20 ADD DUP8 PUSH1 0x1 DUP7 ADD DUP2 MLOAD DUP2 LT ISZERO ISZERO PUSH2 0x1984 JUMPI INVALID JUMPDEST SWAP1 PUSH1 0x20 ADD SWAP1 PUSH1 0x20 MUL ADD MLOAD DUP2 MSTORE POP DUP6 PUSH2 0x2968 JUMP JUMPDEST SWAP1 POP DUP1 PUSH1 0x0 PUSH1 0x2 DUP2 LT ISZERO ISZERO PUSH2 0x19A8 JUMPI INVALID JUMPDEST PUSH1 0x20 MUL ADD MLOAD DUP2 PUSH1 0x1 PUSH1 0x2 DUP2 LT ISZERO ISZERO PUSH2 0x19BC JUMPI INVALID JUMPDEST PUSH1 0x20 MUL ADD MLOAD DUP5 DUP5 DUP2 MLOAD DUP2 LT ISZERO ISZERO PUSH2 0x19CF JUMPI INVALID JUMPDEST SWAP1 PUSH1 0x20 ADD SWAP1 PUSH1 0x20 MUL ADD DUP6 PUSH1 0x1 DUP7 ADD DUP2 MLOAD DUP2 LT ISZERO ISZERO PUSH2 0x19E9 JUMPI INVALID JUMPDEST SWAP1 PUSH1 0x20 ADD SWAP1 PUSH1 0x20 MUL ADD DUP3 DUP2 MSTORE POP DUP3 DUP2 MSTORE POP POP POP PUSH1 0x2 DUP3 ADD SWAP2 POP PUSH2 0x193F JUMP JUMPDEST POP POP SWAP3 SWAP2 POP POP JUMP JUMPDEST PUSH2 0x1A17 PUSH2 0x2BB6 JUMP JUMPDEST PUSH1 0x0 DUP1 PUSH32 0x8000000000000000000000000000000000000000000000000000000000000000 NOT DUP5 AND DUP4 PUSH1 0x0 PUSH1 0x2 DUP2 LT ISZERO ISZERO PUSH2 0x1A4D JUMPI INVALID JUMPDEST PUSH1 0x20 MUL ADD DUP2 DUP2 MSTORE POP POP PUSH2 0x1A72 DUP4 PUSH1 0x0 PUSH1 0x2 DUP2 LT ISZERO ISZERO PUSH2 0x1A68 JUMPI INVALID JUMPDEST PUSH1 0x20 MUL ADD MLOAD PUSH2 0x1DB1 JUMP JUMPDEST DUP1 SWAP4 POP DUP2 SWAP3 POP POP POP DUP2 ISZERO ISZERO PUSH2 0x1A9F JUMPI PUSH1 0x40 DUP1 MLOAD SWAP1 DUP2 ADD PUSH1 0x40 MSTORE DUP1 PUSH1 0x0 DUP2 MSTORE PUSH1 0x20 ADD PUSH1 0x0 DUP2 MSTORE POP SWAP3 POP PUSH2 0x1B9C JUMP JUMPDEST PUSH1 0x0 PUSH32 0x8000000000000000000000000000000000000000000000000000000000000000 DUP6 AND EQ ISZERO ISZERO PUSH2 0x1B35 JUMPI PUSH1 0x1 DUP1 DUP3 AND EQ ISZERO PUSH2 0x1AF4 JUMPI DUP1 DUP4 PUSH1 0x1 PUSH1 0x2 DUP2 LT ISZERO ISZERO PUSH2 0x1AE6 JUMPI INVALID JUMPDEST PUSH1 0x20 MUL ADD DUP2 DUP2 MSTORE POP POP PUSH2 0x1B30 JUMP JUMPDEST DUP1 PUSH32 0x30644E72E131A029B85045B68181585D97816A916871CA8D3C208C16D87CFD47 SUB DUP4 PUSH1 0x1 PUSH1 0x2 DUP2 LT ISZERO ISZERO PUSH2 0x1B26 JUMPI INVALID JUMPDEST PUSH1 0x20 MUL ADD DUP2 DUP2 MSTORE POP POP JUMPDEST PUSH2 0x1B9B JUMP JUMPDEST PUSH1 0x1 DUP1 DUP3 AND EQ ISZERO PUSH2 0x1B80 JUMPI DUP1 PUSH32 0x30644E72E131A029B85045B68181585D97816A916871CA8D3C208C16D87CFD47 SUB DUP4 PUSH1 0x1 PUSH1 0x2 DUP2 LT ISZERO ISZERO PUSH2 0x1B72 JUMPI INVALID JUMPDEST PUSH1 0x20 MUL ADD DUP2 DUP2 MSTORE POP POP PUSH2 0x1B9A JUMP JUMPDEST DUP1 DUP4 PUSH1 0x1 PUSH1 0x2 DUP2 LT ISZERO ISZERO PUSH2 0x1B90 JUMPI INVALID JUMPDEST PUSH1 0x20 MUL ADD DUP2 DUP2 MSTORE POP POP JUMPDEST JUMPDEST JUMPDEST POP POP SWAP2 SWAP1 POP JUMP JUMPDEST PUSH2 0x1BAB PUSH2 0x2BB6 JUMP JUMPDEST DUP2 PUSH1 0x0 PUSH1 0x2 DUP2 LT ISZERO ISZERO PUSH2 0x1BBA JUMPI INVALID JUMPDEST PUSH1 0x20 MUL ADD MLOAD DUP2 PUSH1 0x0 PUSH1 0x2 DUP2 LT ISZERO ISZERO PUSH2 0x1BCE JUMPI INVALID JUMPDEST PUSH1 0x20 MUL ADD DUP2 DUP2 MSTORE POP POP PUSH32 0x30644E72E131A029B85045B68181585D97816A916871CA8D3C208C16D87CFD47 DUP3 PUSH1 0x1 PUSH1 0x2 DUP2 LT ISZERO ISZERO PUSH2 0x1C07 JUMPI INVALID JUMPDEST PUSH1 0x20 MUL ADD MLOAD DUP2 ISZERO ISZERO PUSH2 0x1C15 JUMPI INVALID JUMPDEST MOD PUSH32 0x30644E72E131A029B85045B68181585D97816A916871CA8D3C208C16D87CFD47 SUB DUP2 PUSH1 0x1 PUSH1 0x2 DUP2 LT ISZERO ISZERO PUSH2 0x1C47 JUMPI INVALID JUMPDEST PUSH1 0x20 MUL ADD DUP2 DUP2 MSTORE POP POP SWAP2 SWAP1 POP JUMP JUMPDEST PUSH2 0x1C5D PUSH2 0x2BB6 JUMP JUMPDEST PUSH1 0x0 PUSH32 0x30644E72E131A029B85045B68181585D97816A916871CA8D3C208C16D87CFD47 PUSH2 0x1C89 DUP5 PUSH2 0x1F77 JUMP JUMPDEST DUP2 ISZERO ISZERO PUSH2 0x1C92 JUMPI INVALID JUMPDEST MOD DUP3 PUSH1 0x0 PUSH1 0x2 DUP2 LT ISZERO ISZERO PUSH2 0x1CA2 JUMPI INVALID JUMPDEST PUSH1 0x20 MUL ADD DUP2 DUP2 MSTORE POP POP PUSH1 0x0 SWAP1 POP JUMPDEST DUP1 ISZERO ISZERO PUSH2 0x1D55 JUMPI PUSH2 0x1CD3 DUP3 PUSH1 0x0 PUSH1 0x2 DUP2 LT ISZERO ISZERO PUSH2 0x1CC9 JUMPI INVALID JUMPDEST PUSH1 0x20 MUL ADD MLOAD PUSH2 0x1DB1 JUMP JUMPDEST DUP4 PUSH1 0x1 PUSH1 0x2 DUP2 LT ISZERO ISZERO PUSH2 0x1CE2 JUMPI INVALID JUMPDEST PUSH1 0x20 MUL ADD DUP2 SWAP4 POP DUP3 DUP2 MSTORE POP POP POP DUP1 ISZERO ISZERO PUSH2 0x1D50 JUMPI PUSH32 0x30644E72E131A029B85045B68181585D97816A916871CA8D3C208C16D87CFD47 DUP1 ISZERO ISZERO PUSH2 0x1D20 JUMPI INVALID JUMPDEST PUSH1 0x1 DUP4 PUSH1 0x0 PUSH1 0x2 DUP2 LT ISZERO ISZERO PUSH2 0x1D31 JUMPI INVALID JUMPDEST PUSH1 0x20 MUL ADD MLOAD ADDMOD DUP3 PUSH1 0x0 PUSH1 0x2 DUP2 LT ISZERO ISZERO PUSH2 0x1D46 JUMPI INVALID JUMPDEST PUSH1 0x20 MUL ADD DUP2 DUP2 MSTORE POP POP JUMPDEST PUSH2 0x1CB0 JUMP JUMPDEST POP SWAP2 SWAP1 POP JUMP JUMPDEST PUSH2 0x1D63 PUSH2 0x2BB6 JUMP JUMPDEST PUSH2 0x1DAA PUSH1 0x3 PUSH1 0x2 DUP1 PUSH1 0x20 MUL PUSH1 0x40 MLOAD SWAP1 DUP2 ADD PUSH1 0x40 MSTORE DUP1 SWAP3 SWAP2 SWAP1 DUP3 PUSH1 0x2 DUP1 ISZERO PUSH2 0x1D9F JUMPI PUSH1 0x20 MUL DUP3 ADD SWAP2 JUMPDEST DUP2 SLOAD DUP2 MSTORE PUSH1 0x20 ADD SWAP1 PUSH1 0x1 ADD SWAP1 DUP1 DUP4 GT PUSH2 0x1D8B JUMPI JUMPDEST POP POP POP POP POP DUP4 PUSH2 0x2968 JUMP JUMPDEST SWAP1 POP SWAP2 SWAP1 POP JUMP JUMPDEST PUSH1 0x0 DUP1 PUSH1 0x0 DUP1 PUSH1 0x0 PUSH32 0x30644E72E131A029B85045B68181585D97816A916871CA8D3C208C16D87CFD47 DUP1 ISZERO ISZERO PUSH2 0x1DE3 JUMPI INVALID JUMPDEST DUP7 DUP8 MULMOD SWAP3 POP PUSH32 0x30644E72E131A029B85045B68181585D97816A916871CA8D3C208C16D87CFD47 DUP1 ISZERO ISZERO PUSH2 0x1E12 JUMPI INVALID JUMPDEST DUP7 DUP5 MULMOD SWAP3 POP PUSH32 0x30644E72E131A029B85045B68181585D97816A916871CA8D3C208C16D87CFD47 DUP1 ISZERO ISZERO PUSH2 0x1E41 JUMPI INVALID JUMPDEST PUSH1 0x3 DUP5 ADDMOD SWAP3 POP PUSH32 0x30644E72E131A029B85045B68181585D97816A916871CA8D3C208C16D87CFD47 SWAP2 POP PUSH32 0xC19139CB84C680A6E14116DA060561765E05AA45A1C72A34F082305B61F3F52 SWAP1 POP PUSH1 0x40 MLOAD PUSH1 0x20 DUP2 MSTORE PUSH1 0x20 DUP1 DUP3 ADD MSTORE PUSH1 0x20 PUSH1 0x40 DUP3 ADD MSTORE DUP4 PUSH1 0x60 DUP3 ADD MSTORE DUP2 PUSH1 0x80 DUP3 ADD MSTORE DUP3 PUSH1 0xA0 DUP3 ADD MSTORE PUSH1 0x20 DUP2 PUSH1 0xC0 DUP4 PUSH1 0x0 PUSH1 0x5 PUSH2 0x7D0 GAS SUB CALL DUP1 PUSH1 0x0 DUP2 EQ PUSH2 0x1ED1 JUMPI PUSH2 0x1ED6 JUMP JUMPDEST PUSH1 0xC0 DUP4 REVERT JUMPDEST POP DUP2 MLOAD SWAP7 POP POP POP PUSH32 0x30644E72E131A029B85045B68181585D97816A916871CA8D3C208C16D87CFD47 DUP1 ISZERO ISZERO PUSH2 0x1F07 JUMPI INVALID JUMPDEST DUP6 DUP7 MULMOD DUP4 EQ SWAP4 POP POP POP POP SWAP2 POP SWAP2 JUMP JUMPDEST PUSH1 0x0 DUP2 PUSH1 0x0 PUSH1 0x2 DUP2 LT ISZERO ISZERO PUSH2 0x1F27 JUMPI INVALID JUMPDEST PUSH1 0x20 MUL ADD MLOAD SWAP1 POP PUSH1 0x1 DUP1 DUP4 PUSH1 0x1 PUSH1 0x2 DUP2 LT ISZERO ISZERO PUSH2 0x1F40 JUMPI INVALID JUMPDEST PUSH1 0x20 MUL ADD MLOAD AND EQ ISZERO PUSH2 0x1F72 JUMPI PUSH32 0x8000000000000000000000000000000000000000000000000000000000000000 DUP2 OR SWAP1 POP JUMPDEST SWAP2 SWAP1 POP JUMP JUMPDEST PUSH1 0x0 DUP2 PUSH1 0x0 PUSH1 0x2 DUP2 LT ISZERO ISZERO PUSH2 0x1F88 JUMPI INVALID JUMPDEST PUSH1 0x20 MUL ADD MLOAD DUP3 PUSH1 0x1 PUSH1 0x2 DUP2 LT ISZERO ISZERO PUSH2 0x1F9C JUMPI INVALID JUMPDEST PUSH1 0x20 MUL ADD MLOAD PUSH1 0x40 MLOAD DUP1 DUP4 DUP2 MSTORE PUSH1 0x20 ADD DUP3 DUP2 MSTORE PUSH1 0x20 ADD SWAP3 POP POP POP PUSH1 0x40 MLOAD DUP1 SWAP2 SUB SWAP1 KECCAK256 PUSH1 0x1 SWAP1 DIV SWAP1 POP SWAP2 SWAP1 POP JUMP JUMPDEST PUSH2 0x1FD0 PUSH2 0x2BB6 JUMP JUMPDEST PUSH2 0x1FE2 DUP4 PUSH2 0x1FDD DUP5 PUSH2 0x1BA3 JUMP JUMPDEST PUSH2 0x15B1 JUMP JUMPDEST SWAP1 POP SWAP3 SWAP2 POP POP JUMP JUMPDEST PUSH2 0x1FF2 PUSH2 0x2BB6 JUMP JUMPDEST PUSH2 0x1FFA PUSH2 0x2BB6 JUMP JUMPDEST PUSH2 0x2007 DUP7 DUP6 PUSH1 0x0 DUP1 PUSH2 0x2719 JUMP JUMPDEST SWAP2 POP PUSH2 0x2016 DUP6 DUP5 PUSH1 0x0 DUP1 PUSH2 0x2719 JUMP JUMPDEST SWAP1 POP SWAP5 POP SWAP5 SWAP3 POP POP POP JUMP JUMPDEST PUSH1 0x60 DUP1 PUSH1 0x0 PUSH1 0x60 DUP1 PUSH1 0x0 DUP7 PUSH1 0x2 MUL SWAP4 POP DUP4 PUSH1 0x7 DUP1 SLOAD SWAP1 POP LT ISZERO ISZERO ISZERO PUSH2 0x2045 JUMPI PUSH1 0x0 DUP1 REVERT JUMPDEST PUSH1 0x0 DUP5 EQ DUP1 PUSH2 0x2058 JUMPI POP DUP4 PUSH1 0x7 DUP1 SLOAD SWAP1 POP EQ JUMPDEST ISZERO PUSH2 0x210E JUMPI PUSH1 0x7 PUSH1 0x8 DUP2 DUP1 SLOAD DUP1 PUSH1 0x20 MUL PUSH1 0x20 ADD PUSH1 0x40 MLOAD SWAP1 DUP2 ADD PUSH1 0x40 MSTORE DUP1 SWAP3 SWAP2 SWAP1 DUP2 DUP2 MSTORE PUSH1 0x20 ADD DUP3 DUP1 SLOAD DUP1 ISZERO PUSH2 0x20AC JUMPI PUSH1 0x20 MUL DUP3 ADD SWAP2 SWAP1 PUSH1 0x0 MSTORE PUSH1 0x20 PUSH1 0x0 KECCAK256 SWAP1 JUMPDEST DUP2 SLOAD DUP2 MSTORE PUSH1 0x20 ADD SWAP1 PUSH1 0x1 ADD SWAP1 DUP1 DUP4 GT PUSH2 0x2098 JUMPI JUMPDEST POP POP POP POP POP SWAP2 POP DUP1 DUP1 SLOAD DUP1 PUSH1 0x20 MUL PUSH1 0x20 ADD PUSH1 0x40 MLOAD SWAP1 DUP2 ADD PUSH1 0x40 MSTORE DUP1 SWAP3 SWAP2 SWAP1 DUP2 DUP2 MSTORE PUSH1 0x20 ADD DUP3 DUP1 SLOAD DUP1 ISZERO PUSH2 0x20FE JUMPI PUSH1 0x20 MUL DUP3 ADD SWAP2 SWAP1 PUSH1 0x0 MSTORE PUSH1 0x20 PUSH1 0x0 KECCAK256 SWAP1 JUMPDEST DUP2 SLOAD DUP2 MSTORE PUSH1 0x20 ADD SWAP1 PUSH1 0x1 ADD SWAP1 DUP1 DUP4 GT PUSH2 0x20EA JUMPI JUMPDEST POP POP POP POP POP SWAP1 POP SWAP6 POP SWAP6 POP PUSH2 0x21FF JUMP JUMPDEST DUP4 PUSH1 0x40 MLOAD SWAP1 DUP1 DUP3 MSTORE DUP1 PUSH1 0x20 MUL PUSH1 0x20 ADD DUP3 ADD PUSH1 0x40 MSTORE DUP1 ISZERO PUSH2 0x213D JUMPI DUP2 PUSH1 0x20 ADD PUSH1 0x20 DUP3 MUL DUP1 CODESIZE DUP4 CODECOPY DUP1 DUP3 ADD SWAP2 POP POP SWAP1 POP JUMPDEST POP SWAP3 POP DUP4 PUSH1 0x40 MLOAD SWAP1 DUP1 DUP3 MSTORE DUP1 PUSH1 0x20 MUL PUSH1 0x20 ADD DUP3 ADD PUSH1 0x40 MSTORE DUP1 ISZERO PUSH2 0x216F JUMPI DUP2 PUSH1 0x20 ADD PUSH1 0x20 DUP3 MUL DUP1 CODESIZE DUP4 CODECOPY DUP1 DUP3 ADD SWAP2 POP POP SWAP1 POP JUMPDEST POP SWAP2 POP PUSH1 0x0 SWAP1 POP JUMPDEST DUP4 DUP2 LT ISZERO PUSH2 0x21F8 JUMPI PUSH1 0x7 DUP2 DUP2 SLOAD DUP2 LT ISZERO ISZERO PUSH2 0x218E JUMPI INVALID JUMPDEST SWAP1 PUSH1 0x0 MSTORE PUSH1 0x20 PUSH1 0x0 KECCAK256 ADD SLOAD DUP4 DUP3 DUP2 MLOAD DUP2 LT ISZERO ISZERO PUSH2 0x21A7 JUMPI INVALID JUMPDEST SWAP1 PUSH1 0x20 ADD SWAP1 PUSH1 0x20 MUL ADD DUP2 DUP2 MSTORE POP POP PUSH1 0x8 DUP2 DUP2 SLOAD DUP2 LT ISZERO ISZERO PUSH2 0x21C4 JUMPI INVALID JUMPDEST SWAP1 PUSH1 0x0 MSTORE PUSH1 0x20 PUSH1 0x0 KECCAK256 ADD SLOAD DUP3 DUP3 DUP2 MLOAD DUP2 LT ISZERO ISZERO PUSH2 0x21DD JUMPI INVALID JUMPDEST SWAP1 PUSH1 0x20 ADD SWAP1 PUSH1 0x20 MUL ADD DUP2 DUP2 MSTORE POP POP DUP1 DUP1 PUSH1 0x1 ADD SWAP2 POP POP PUSH2 0x2177 JUMP JUMPDEST DUP3 DUP3 SWAP6 POP SWAP6 POP JUMPDEST POP POP POP POP SWAP2 POP SWAP2 JUMP JUMPDEST PUSH1 0x0 PUSH1 0x60 DUP1 PUSH1 0x0 DUP1 PUSH2 0x2218 PUSH2 0x2BB6 JUMP JUMPDEST PUSH1 0x0 DUP1 SWAP1 SLOAD SWAP1 PUSH2 0x100 EXP SWAP1 DIV PUSH20 0xFFFFFFFFFFFFFFFFFFFFFFFFFFFFFFFFFFFFFFFF AND PUSH20 0xFFFFFFFFFFFFFFFFFFFFFFFFFFFFFFFFFFFFFFFF AND CALLER PUSH20 0xFFFFFFFFFFFFFFFFFFFFFFFFFFFFFFFFFFFFFFFF AND EQ ISZERO DUP1 ISZERO PUSH2 0x22AD JUMPI POP PUSH1 0x0 DUP1 PUSH1 0x0 SWAP1 SLOAD SWAP1 PUSH2 0x100 EXP SWAP1 DIV PUSH20 0xFFFFFFFFFFFFFFFFFFFFFFFFFFFFFFFFFFFFFFFF AND PUSH20 0xFFFFFFFFFFFFFFFFFFFFFFFFFFFFFFFFFFFFFFFF AND EQ ISZERO JUMPDEST ISZERO PUSH2 0x22B7 JUMPI PUSH1 0x0 DUP1 REVERT JUMPDEST PUSH1 0x2 PUSH1 0x7 DUP1 SLOAD SWAP1 POP DUP2 ISZERO ISZERO PUSH2 0x22C8 JUMPI INVALID JUMPDEST DIV SWAP6 POP DUP6 DUP8 GT ISZERO PUSH2 0x2598 JUMPI PUSH1 0x2 DUP8 MUL PUSH1 0x40 MLOAD SWAP1 DUP1 DUP3 MSTORE DUP1 PUSH1 0x20 MUL PUSH1 0x20 ADD DUP3 ADD PUSH1 0x40 MSTORE DUP1 ISZERO PUSH2 0x2305 JUMPI DUP2 PUSH1 0x20 ADD PUSH1 0x20 DUP3 MUL DUP1 CODESIZE DUP4 CODECOPY DUP1 DUP3 ADD SWAP2 POP POP SWAP1 POP JUMPDEST POP SWAP5 POP PUSH1 0x2 DUP8 MUL PUSH1 0x40 MLOAD SWAP1 DUP1 DUP3 MSTORE DUP1 PUSH1 0x20 MUL PUSH1 0x20 ADD DUP3 ADD PUSH1 0x40 MSTORE DUP1 ISZERO PUSH2 0x233A JUMPI DUP2 PUSH1 0x20 ADD PUSH1 0x20 DUP3 MUL DUP1 CODESIZE DUP4 CODECOPY DUP1 DUP3 ADD SWAP2 POP POP SWAP1 POP JUMPDEST POP SWAP4 POP PUSH1 0x0 SWAP3 POP JUMPDEST PUSH1 0x7 DUP1 SLOAD SWAP1 POP DUP4 LT ISZERO PUSH2 0x23C8 JUMPI PUSH1 0x7 DUP4 DUP2 SLOAD DUP2 LT ISZERO ISZERO PUSH2 0x235E JUMPI INVALID JUMPDEST SWAP1 PUSH1 0x0 MSTORE PUSH1 0x20 PUSH1 0x0 KECCAK256 ADD SLOAD DUP6 DUP5 DUP2 MLOAD DUP2 LT ISZERO ISZERO PUSH2 0x2377 JUMPI INVALID JUMPDEST SWAP1 PUSH1 0x20 ADD SWAP1 PUSH1 0x20 MUL ADD DUP2 DUP2 MSTORE POP POP PUSH1 0x8 DUP4 DUP2 SLOAD DUP2 LT ISZERO ISZERO PUSH2 0x2394 JUMPI INVALID JUMPDEST SWAP1 PUSH1 0x0 MSTORE PUSH1 0x20 PUSH1 0x0 KECCAK256 ADD SLOAD DUP5 DUP5 DUP2 MLOAD DUP2 LT ISZERO ISZERO PUSH2 0x23AD JUMPI INVALID JUMPDEST SWAP1 PUSH1 0x20 ADD SWAP1 PUSH1 0x20 MUL ADD DUP2 DUP2 MSTORE POP POP DUP3 DUP1 PUSH1 0x1 ADD SWAP4 POP POP PUSH2 0x2342 JUMP JUMPDEST PUSH1 0x0 DUP7 EQ ISZERO PUSH2 0x2416 JUMPI PUSH1 0x3 PUSH1 0x2 DUP1 PUSH1 0x20 MUL PUSH1 0x40 MLOAD SWAP1 DUP2 ADD PUSH1 0x40 MSTORE DUP1 SWAP3 SWAP2 SWAP1 DUP3 PUSH1 0x2 DUP1 ISZERO PUSH2 0x240A JUMPI PUSH1 0x20 MUL DUP3 ADD SWAP2 JUMPDEST DUP2 SLOAD DUP2 MSTORE PUSH1 0x20 ADD SWAP1 PUSH1 0x1 ADD SWAP1 DUP1 DUP4 GT PUSH2 0x23F6 JUMPI JUMPDEST POP POP POP POP POP SWAP1 POP PUSH2 0x246E JUMP JUMPDEST PUSH1 0x2 PUSH1 0x8 DUP1 SLOAD SWAP1 POP SUB SWAP2 POP PUSH1 0x40 DUP1 MLOAD SWAP1 DUP2 ADD PUSH1 0x40 MSTORE DUP1 PUSH1 0x8 DUP5 DUP2 SLOAD DUP2 LT ISZERO ISZERO PUSH2 0x243B JUMPI INVALID JUMPDEST SWAP1 PUSH1 0x0 MSTORE PUSH1 0x20 PUSH1 0x0 KECCAK256 ADD SLOAD DUP2 MSTORE PUSH1 0x20 ADD PUSH1 0x8 PUSH1 0x1 DUP6 ADD DUP2 SLOAD DUP2 LT ISZERO ISZERO PUSH2 0x245D JUMPI INVALID JUMPDEST SWAP1 PUSH1 0x0 MSTORE PUSH1 0x20 PUSH1 0x0 KECCAK256 ADD SLOAD DUP2 MSTORE POP SWAP1 POP JUMPDEST DUP6 SWAP3 POP JUMPDEST DUP7 DUP4 LT ISZERO PUSH2 0x2569 JUMPI DUP3 PUSH1 0x2 MUL SWAP2 POP PUSH2 0x2489 DUP2 PUSH2 0x1C55 JUMP JUMPDEST SWAP1 POP DUP1 PUSH1 0x0 PUSH1 0x2 DUP2 LT ISZERO ISZERO PUSH2 0x249A JUMPI INVALID JUMPDEST PUSH1 0x20 MUL ADD MLOAD DUP2 PUSH1 0x1 PUSH1 0x2 DUP2 LT ISZERO ISZERO PUSH2 0x24AE JUMPI INVALID JUMPDEST PUSH1 0x20 MUL ADD MLOAD DUP7 DUP5 DUP2 MLOAD DUP2 LT ISZERO ISZERO PUSH2 0x24C1 JUMPI INVALID JUMPDEST SWAP1 PUSH1 0x20 ADD SWAP1 PUSH1 0x20 MUL ADD DUP8 PUSH1 0x1 DUP7 ADD DUP2 MLOAD DUP2 LT ISZERO ISZERO PUSH2 0x24DB JUMPI INVALID JUMPDEST SWAP1 PUSH1 0x20 ADD SWAP1 PUSH1 0x20 MUL ADD DUP3 DUP2 MSTORE POP DUP3 DUP2 MSTORE POP POP POP PUSH2 0x24F7 DUP2 PUSH2 0x1C55 JUMP JUMPDEST SWAP1 POP DUP1 PUSH1 0x0 PUSH1 0x2 DUP2 LT ISZERO ISZERO PUSH2 0x2508 JUMPI INVALID JUMPDEST PUSH1 0x20 MUL ADD MLOAD DUP2 PUSH1 0x1 PUSH1 0x2 DUP2 LT ISZERO ISZERO PUSH2 0x251C JUMPI INVALID JUMPDEST PUSH1 0x20 MUL ADD MLOAD DUP6 DUP5 DUP2 MLOAD DUP2 LT ISZERO ISZERO PUSH2 0x252F JUMPI INVALID JUMPDEST SWAP1 PUSH1 0x20 ADD SWAP1 PUSH1 0x20 MUL ADD DUP7 PUSH1 0x1 DUP7 ADD DUP2 MLOAD DUP2 LT ISZERO ISZERO PUSH2 0x2549 JUMPI INVALID JUMPDEST SWAP1 PUSH1 0x20 ADD SWAP1 PUSH1 0x20 MUL ADD DUP3 DUP2 MSTORE POP DUP3 DUP2 MSTORE POP POP POP DUP3 DUP1 PUSH1 0x1 ADD SWAP4 POP POP PUSH2 0x2472 JUMP JUMPDEST DUP5 PUSH1 0x7 SWAP1 DUP1 MLOAD SWAP1 PUSH1 0x20 ADD SWAP1 PUSH2 0x257F SWAP3 SWAP2 SWAP1 PUSH2 0x2BD8 JUMP JUMPDEST POP DUP4 PUSH1 0x8 SWAP1 DUP1 MLOAD SWAP1 PUSH1 0x20 ADD SWAP1 PUSH2 0x2596 SWAP3 SWAP2 SWAP1 PUSH2 0x2BD8 JUMP JUMPDEST POP JUMPDEST POP POP POP POP POP POP POP JUMP JUMPDEST PUSH1 0x0 DUP1 SWAP1 SLOAD SWAP1 PUSH2 0x100 EXP SWAP1 DIV PUSH20 0xFFFFFFFFFFFFFFFFFFFFFFFFFFFFFFFFFFFFFFFF AND DUP2 JUMP JUMPDEST PUSH2 0x25CE PUSH2 0x2BB6 JUMP JUMPDEST PUSH2 0x25E1 DUP5 PUSH2 0x25DC DUP6 DUP6 PUSH2 0x2968 JUMP JUMPDEST PUSH2 0x15B1 JUMP JUMPDEST SWAP1 POP SWAP4 SWAP3 POP POP POP JUMP JUMPDEST PUSH1 0x0 PUSH1 0x2 PUSH1 0x7 DUP1 SLOAD SWAP1 POP DUP2 ISZERO ISZERO PUSH2 0x25FD JUMPI INVALID JUMPDEST DIV SWAP1 POP SWAP1 JUMP JUMPDEST PUSH2 0x260B PUSH2 0x2BB6 JUMP JUMPDEST PUSH2 0x2620 DUP7 PUSH2 0x261B DUP8 DUP8 DUP8 DUP8 PUSH2 0x2719 JUMP JUMPDEST PUSH2 0x15B1 JUMP JUMPDEST SWAP1 POP SWAP6 SWAP5 POP POP POP POP POP JUMP JUMPDEST PUSH2 0x2633 PUSH2 0x2BB6 JUMP JUMPDEST PUSH1 0x1 PUSH1 0x2 DUP1 PUSH1 0x20 MUL PUSH1 0x40 MLOAD SWAP1 DUP2 ADD PUSH1 0x40 MSTORE DUP1 SWAP3 SWAP2 SWAP1 DUP3 PUSH1 0x2 DUP1 ISZERO PUSH2 0x266C JUMPI PUSH1 0x20 MUL DUP3 ADD SWAP2 JUMPDEST DUP2 SLOAD DUP2 MSTORE PUSH1 0x20 ADD SWAP1 PUSH1 0x1 ADD SWAP1 DUP1 DUP4 GT PUSH2 0x2658 JUMPI JUMPDEST POP POP POP POP POP SWAP1 POP SWAP1 JUMP JUMPDEST PUSH2 0x267E PUSH2 0x2BB6 JUMP JUMPDEST PUSH2 0x26C6 DUP4 PUSH1 0x1 PUSH1 0x2 DUP1 PUSH1 0x20 MUL PUSH1 0x40 MLOAD SWAP1 DUP2 ADD PUSH1 0x40 MSTORE DUP1 SWAP3 SWAP2 SWAP1 DUP3 PUSH1 0x2 DUP1 ISZERO PUSH2 0x26BB JUMPI PUSH1 0x20 MUL DUP3 ADD SWAP2 JUMPDEST DUP2 SLOAD DUP2 MSTORE PUSH1 0x20 ADD SWAP1 PUSH1 0x1 ADD SWAP1 DUP1 DUP4 GT PUSH2 0x26A7 JUMPI JUMPDEST POP POP POP POP POP DUP5 PUSH2 0x25C6 JUMP JUMPDEST SWAP1 POP SWAP3 SWAP2 POP POP JUMP JUMPDEST PUSH2 0x26D6 PUSH2 0x2BB6 JUMP JUMPDEST PUSH1 0x5 PUSH1 0x2 DUP1 PUSH1 0x20 MUL PUSH1 0x40 MLOAD SWAP1 DUP2 ADD PUSH1 0x40 MSTORE DUP1 SWAP3 SWAP2 SWAP1 DUP3 PUSH1 0x2 DUP1 ISZERO PUSH2 0x270F JUMPI PUSH1 0x20 MUL DUP3 ADD SWAP2 JUMPDEST DUP2 SLOAD DUP2 MSTORE PUSH1 0x20 ADD SWAP1 PUSH1 0x1 ADD SWAP1 DUP1 DUP4 GT PUSH2 0x26FB JUMPI JUMPDEST POP POP POP POP POP SWAP1 POP SWAP1 JUMP JUMPDEST PUSH2 0x2721 PUSH2 0x2BB6 JUMP JUMPDEST PUSH1 0x0 DUP1 PUSH1 0x1 DUP8 MLOAD GT ISZERO ISZERO PUSH2 0x2734 JUMPI PUSH1 0x0 DUP1 REVERT JUMPDEST PUSH1 0x0 PUSH1 0x2 DUP9 MLOAD DUP2 ISZERO ISZERO PUSH2 0x2743 JUMPI INVALID JUMPDEST MOD EQ ISZERO ISZERO PUSH2 0x2750 JUMPI PUSH1 0x0 DUP1 REVERT JUMPDEST DUP6 MLOAD PUSH1 0x2 MUL DUP8 MLOAD EQ ISZERO ISZERO PUSH2 0x2763 JUMPI PUSH1 0x0 DUP1 REVERT JUMPDEST PUSH1 0x0 DUP5 EQ ISZERO PUSH2 0x2771 JUMPI DUP6 MLOAD SWAP4 POP JUMPDEST DUP5 DUP5 GT ISZERO ISZERO PUSH2 0x277F JUMPI PUSH1 0x0 DUP1 REVERT JUMPDEST DUP5 PUSH1 0x2 MUL SWAP2 POP PUSH2 0x27EB PUSH1 0x40 DUP1 MLOAD SWAP1 DUP2 ADD PUSH1 0x40 MSTORE DUP1 DUP10 DUP6 DUP2 MLOAD DUP2 LT ISZERO ISZERO PUSH2 0x27A1 JUMPI INVALID JUMPDEST SWAP1 PUSH1 0x20 ADD SWAP1 PUSH1 0x20 MUL ADD MLOAD DUP2 MSTORE PUSH1 0x20 ADD DUP10 PUSH1 0x1 DUP7 ADD DUP2 MLOAD DUP2 LT ISZERO ISZERO PUSH2 0x27C1 JUMPI INVALID JUMPDEST SWAP1 PUSH1 0x20 ADD SWAP1 PUSH1 0x20 MUL ADD MLOAD DUP2 MSTORE POP DUP8 DUP8 DUP2 MLOAD DUP2 LT ISZERO ISZERO PUSH2 0x27DC JUMPI INVALID JUMPDEST SWAP1 PUSH1 0x20 ADD SWAP1 PUSH1 0x20 MUL ADD MLOAD PUSH2 0x2968 JUMP JUMPDEST SWAP3 POP PUSH1 0x2 DUP3 ADD SWAP2 POP PUSH1 0x1 DUP6 ADD SWAP1 POP JUMPDEST DUP4 DUP2 LT ISZERO PUSH2 0x287E JUMPI PUSH2 0x2869 DUP4 PUSH1 0x40 DUP1 MLOAD SWAP1 DUP2 ADD PUSH1 0x40 MSTORE DUP1 DUP11 DUP7 DUP2 MLOAD DUP2 LT ISZERO ISZERO PUSH2 0x281F JUMPI INVALID JUMPDEST SWAP1 PUSH1 0x20 ADD SWAP1 PUSH1 0x20 MUL ADD MLOAD DUP2 MSTORE PUSH1 0x20 ADD DUP11 PUSH1 0x1 DUP8 ADD DUP2 MLOAD DUP2 LT ISZERO ISZERO PUSH2 0x283F JUMPI INVALID JUMPDEST SWAP1 PUSH1 0x20 ADD SWAP1 PUSH1 0x20 MUL ADD MLOAD DUP2 MSTORE POP DUP9 DUP5 DUP2 MLOAD DUP2 LT ISZERO ISZERO PUSH2 0x285A JUMPI INVALID JUMPDEST SWAP1 PUSH1 0x20 ADD SWAP1 PUSH1 0x20 MUL ADD MLOAD PUSH2 0x25C6 JUMP JUMPDEST SWAP3 POP PUSH1 0x2 DUP3 ADD SWAP2 POP DUP1 DUP1 PUSH1 0x1 ADD SWAP2 POP POP PUSH2 0x27FA JUMP JUMPDEST POP POP SWAP5 SWAP4 POP POP POP POP JUMP JUMPDEST PUSH1 0x0 PUSH32 0x30644E72E131A029B85045B68181585D97816A916871CA8D3C208C16D87CFD47 SWAP1 POP SWAP1 JUMP JUMPDEST PUSH1 0x0 DUP1 SWAP1 SLOAD SWAP1 PUSH2 0x100 EXP SWAP1 DIV PUSH20 0xFFFFFFFFFFFFFFFFFFFFFFFFFFFFFFFFFFFFFFFF AND PUSH20 0xFFFFFFFFFFFFFFFFFFFFFFFFFFFFFFFFFFFFFFFF AND CALLER PUSH20 0xFFFFFFFFFFFFFFFFFFFFFFFFFFFFFFFFFFFFFFFF AND EQ ISZERO DUP1 ISZERO PUSH2 0x2945 JUMPI POP PUSH1 0x0 DUP1 PUSH1 0x0 SWAP1 SLOAD SWAP1 PUSH2 0x100 EXP SWAP1 DIV PUSH20 0xFFFFFFFFFFFFFFFFFFFFFFFFFFFFFFFFFFFFFFFF AND PUSH20 0xFFFFFFFFFFFFFFFFFFFFFFFFFFFFFFFFFFFFFFFF AND EQ ISZERO JUMPDEST ISZERO PUSH2 0x294F JUMPI PUSH1 0x0 DUP1 REVERT JUMPDEST CALLER PUSH20 0xFFFFFFFFFFFFFFFFFFFFFFFFFFFFFFFFFFFFFFFF AND SELFDESTRUCT JUMPDEST PUSH2 0x2970 PUSH2 0x2BB6 JUMP JUMPDEST PUSH1 0x40 MLOAD DUP4 MLOAD DUP2 MSTORE PUSH1 0x20 DUP5 ADD MLOAD PUSH1 0x20 DUP3 ADD MSTORE DUP3 PUSH1 0x40 DUP3 ADD MSTORE PUSH1 0x40 DUP2 PUSH1 0x60 DUP4 PUSH1 0x0 PUSH1 0x7 PUSH2 0x7D0 GAS SUB CALL DUP1 PUSH1 0x0 DUP2 EQ PUSH2 0x29A5 JUMPI PUSH2 0x29AA JUMP JUMPDEST PUSH1 0x80 DUP4 REVERT JUMPDEST POP DUP2 MLOAD DUP4 MSTORE PUSH1 0x20 DUP3 ADD MLOAD PUSH1 0x20 DUP5 ADD MSTORE POP POP SWAP3 SWAP2 POP POP JUMP JUMPDEST PUSH2 0x29C9 PUSH2 0x2BB6 JUMP JUMPDEST PUSH1 0x3 PUSH1 0x2 DUP1 PUSH1 0x20 MUL PUSH1 0x40 MLOAD SWAP1 DUP2 ADD PUSH1 0x40 MSTORE DUP1 SWAP3 SWAP2 SWAP1 DUP3 PUSH1 0x2 DUP1 ISZERO PUSH2 0x2A02 JUMPI PUSH1 0x20 MUL DUP3 ADD SWAP2 JUMPDEST DUP2 SLOAD DUP2 MSTORE PUSH1 0x20 ADD SWAP1 PUSH1 0x1 ADD SWAP1 DUP1 DUP4 GT PUSH2 0x29EE JUMPI JUMPDEST POP POP POP POP POP SWAP1 POP SWAP1 JUMP JUMPDEST PUSH1 0x60 PUSH1 0x0 DUP1 PUSH2 0x2A19 PUSH2 0x2BB6 JUMP JUMPDEST PUSH1 0x0 DUP6 MLOAD GT ISZERO ISZERO PUSH2 0x2A29 JUMPI PUSH1 0x0 DUP1 REVERT JUMPDEST PUSH1 0x2 DUP6 MLOAD MUL DUP7 MLOAD EQ ISZERO ISZERO PUSH2 0x2A3C JUMPI PUSH1 0x0 DUP1 REVERT JUMPDEST DUP6 MLOAD PUSH1 0x40 MLOAD SWAP1 DUP1 DUP3 MSTORE DUP1 PUSH1 0x20 MUL PUSH1 0x20 ADD DUP3 ADD PUSH1 0x40 MSTORE DUP1 ISZERO PUSH2 0x2A6C JUMPI DUP2 PUSH1 0x20 ADD PUSH1 0x20 DUP3 MUL DUP1 CODESIZE DUP4 CODECOPY DUP1 DUP3 ADD SWAP2 POP POP SWAP1 POP JUMPDEST POP SWAP4 POP PUSH1 0x0 SWAP3 POP JUMPDEST DUP5 MLOAD DUP4 LT ISZERO PUSH2 0x2B5B JUMPI DUP3 PUSH1 0x2 MUL SWAP2 POP PUSH2 0x2AE9 PUSH1 0x40 DUP1 MLOAD SWAP1 DUP2 ADD PUSH1 0x40 MSTORE DUP1 DUP9 DUP6 DUP2 MLOAD DUP2 LT ISZERO ISZERO PUSH2 0x2A9F JUMPI INVALID JUMPDEST SWAP1 PUSH1 0x20 ADD SWAP1 PUSH1 0x20 MUL ADD MLOAD DUP2 MSTORE PUSH1 0x20 ADD DUP9 PUSH1 0x1 DUP7 ADD DUP2 MLOAD DUP2 LT ISZERO ISZERO PUSH2 0x2ABF JUMPI INVALID JUMPDEST SWAP1 PUSH1 0x20 ADD SWAP1 PUSH1 0x20 MUL ADD MLOAD DUP2 MSTORE POP DUP7 DUP6 DUP2 MLOAD DUP2 LT ISZERO ISZERO PUSH2 0x2ADA JUMPI INVALID JUMPDEST SWAP1 PUSH1 0x20 ADD SWAP1 PUSH1 0x20 MUL ADD MLOAD PUSH2 0x2968 JUMP JUMPDEST SWAP1 POP DUP1 PUSH1 0x0 PUSH1 0x2 DUP2 LT ISZERO ISZERO PUSH2 0x2AFA JUMPI INVALID JUMPDEST PUSH1 0x20 MUL ADD MLOAD DUP2 PUSH1 0x1 PUSH1 0x2 DUP2 LT ISZERO ISZERO PUSH2 0x2B0E JUMPI INVALID JUMPDEST PUSH1 0x20 MUL ADD MLOAD DUP6 DUP5 DUP2 MLOAD DUP2 LT ISZERO ISZERO PUSH2 0x2B21 JUMPI INVALID JUMPDEST SWAP1 PUSH1 0x20 ADD SWAP1 PUSH1 0x20 MUL ADD DUP7 PUSH1 0x1 DUP7 ADD DUP2 MLOAD DUP2 LT ISZERO ISZERO PUSH2 0x2B3B JUMPI INVALID JUMPDEST SWAP1 PUSH1 0x20 ADD SWAP1 PUSH1 0x20 MUL ADD DUP3 DUP2 MSTORE POP DUP3 DUP2 MSTORE POP POP POP DUP3 DUP1 PUSH1 0x1 ADD SWAP4 POP POP PUSH2 0x2A74 JUMP JUMPDEST POP POP POP SWAP3 SWAP2 POP POP JUMP JUMPDEST PUSH1 0x0 PUSH32 0x30644E72E131A029B85045B68181585D2833E84879B9709143E1F593F0000001 SWAP1 POP SWAP1 JUMP JUMPDEST PUSH2 0x2B94 PUSH2 0x2BB6 JUMP JUMPDEST PUSH2 0x2BAE PUSH2 0x2BA0 DUP5 PUSH2 0x155B JUMP JUMPDEST PUSH2 0x2BA9 DUP5 PUSH2 0x1D5B JUMP JUMPDEST PUSH2 0x15B1 JUMP JUMPDEST SWAP1 POP SWAP3 SWAP2 POP POP JUMP JUMPDEST PUSH1 0x40 DUP1 MLOAD SWAP1 DUP2 ADD PUSH1 0x40 MSTORE DUP1 PUSH1 0x2 SWAP1 PUSH1 0x20 DUP3 MUL DUP1 CODESIZE DUP4 CODECOPY DUP1 DUP3 ADD SWAP2 POP POP SWAP1 POP POP SWAP1 JUMP JUMPDEST DUP3 DUP1 SLOAD DUP3 DUP3 SSTORE SWAP1 PUSH1 0x0 MSTORE PUSH1 0x20 PUSH1 0x0 KECCAK256 SWAP1 DUP2 ADD SWAP3 DUP3 ISZERO PUSH2 0x2C14 JUMPI SWAP2 PUSH1 0x20 MUL DUP3 ADD JUMPDEST DUP3 DUP2 GT ISZERO PUSH2 0x2C13 JUMPI DUP3 MLOAD DUP3 SSTORE SWAP2 PUSH1 0x20 ADD SWAP2 SWAP1 PUSH1 0x1 ADD SWAP1 PUSH2 0x2BF8 JUMP JUMPDEST JUMPDEST POP SWAP1 POP PUSH2 0x2C21 SWAP2 SWAP1 PUSH2 0x2C25 JUMP JUMPDEST POP SWAP1 JUMP JUMPDEST PUSH2 0x2C47 SWAP2 SWAP1 JUMPDEST DUP1 DUP3 GT ISZERO PUSH2 0x2C43 JUMPI PUSH1 0x0 DUP2 PUSH1 0x0 SWAP1 SSTORE POP PUSH1 0x1 ADD PUSH2 0x2C2B JUMP JUMPDEST POP SWAP1 JUMP JUMPDEST SWAP1 JUMP STOP LOG1 PUSH6 0x627A7A723058 KECCAK256 DUP9 DUP10 SDIV PUSH13 0x51C883C8E8D9173E0782DF7EA6 MUL 0xcd PUSH28 0xF6316E8CE7AB5CE365E570AF00290000000000000000000000000000 "
				},
				"gasEstimates": {
					"creation": {
						"codeDepositCost": "2276400",
						"executionCost": "infinite",
						"totalCost": "infinite"
					},
					"external": {
						"Add(uint256[2],uint256[2])": "infinite",
						"AddMultiExp(uint256[2],uint256[],uint256[],uint256,uint256)": "infinite",
						"AddMultiply(uint256[2],uint256[2],uint256)": "infinite",
						"AddMultiplyG1(uint256[2],uint256)": "infinite",
						"AddMultiplyH(uint256[2],uint256)": "infinite",
						"CommitAB(uint256[],uint256[],uint256[],uint256[])": "infinite",
						"CommitG1H(uint256,uint256)": "infinite",
						"CompressPoint(uint256[2])": "infinite",
						"Equals(uint256[2],uint256[2])": "infinite",
						"EvaluateCurve(uint256)": "infinite",
						"ExpandPoint(uint256)": "infinite",
						"GenerateBasePointVectors(uint256)": "infinite",
						"GetAddress(uint256[2])": "infinite",
						"GetAddressFromPrivateKey(uint256)": "infinite",
						"GetG1()": "infinite",
						"GetGiHi(uint256)": "infinite",
						"GetGiHiLength()": "925",
						"GetH()": "infinite",
						"GetInfinity()": "infinite",
						"GetNCurve()": "928",
						"GetPCurve()": "818",
						"GetPublicKeyFromPrivateKey(uint256)": "infinite",
						"HashOfPoint(uint256[2])": "infinite",
						"HashToPoint(uint256[2])": "infinite",
						"Kill()": "31322",
						"MultiExp(uint256[],uint256[],uint256,uint256)": "infinite",
						"Multiply(uint256[2],uint256)": "infinite",
						"MultiplyG1(uint256)": "infinite",
						"MultiplyH(uint256)": "infinite",
						"Negate(uint256[2])": "infinite",
						"Subtract(uint256[2],uint256[2])": "infinite",
						"VectorAdd(uint256[],uint256[])": "infinite",
						"VectorMul(uint256[],uint256[])": "infinite",
						"VectorScale(uint256[],uint256)": "infinite",
						"owner()": "882"
					}
				},
				"methodIdentifiers": {
					"Add(uint256[2],uint256[2])": "0c753fe8",
					"AddMultiExp(uint256[2],uint256[],uint256[],uint256,uint256)": "ad4310f5",
					"AddMultiply(uint256[2],uint256[2],uint256)": "9c050a4a",
					"AddMultiplyG1(uint256[2],uint256)": "b0f5c83a",
					"AddMultiplyH(uint256[2],uint256)": "012421f9",
					"CommitAB(uint256[],uint256[],uint256[],uint256[])": "841675c9",
					"CommitG1H(uint256,uint256)": "e76f8e66",
					"CompressPoint(uint256[2])": "71b1c161",
					"Equals(uint256[2],uint256[2])": "1ce9d895",
					"EvaluateCurve(uint256)": "66230bd9",
					"ExpandPoint(uint256)": "5da7f69e",
					"GenerateBasePointVectors(uint256)": "8b05a64a",
					"GetAddress(uint256[2])": "37a8b202",
					"GetAddressFromPrivateKey(uint256)": "1bea22e6",
					"GetG1()": "ae5d39f6",
					"GetGiHi(uint256)": "8ac1c8d4",
					"GetGiHiLength()": "a77a970d",
					"GetH()": "c1eeb1fe",
					"GetInfinity()": "b866cf29",
					"GetNCurve()": "d1ff535b",
					"GetPCurve()": "bab5064c",
					"GetPublicKeyFromPrivateKey(uint256)": "16491f3e",
					"HashOfPoint(uint256[2])": "758bad98",
					"HashToPoint(uint256[2])": "6032fc3f",
					"Kill()": "be26733c",
					"MultiExp(uint256[],uint256[],uint256,uint256)": "ba7d3977",
					"Multiply(uint256[2],uint256)": "c025d89b",
					"MultiplyG1(uint256)": "0819336a",
					"MultiplyH(uint256)": "639649c4",
					"Negate(uint256[2])": "5f033797",
					"Subtract(uint256[2],uint256[2])": "80bca979",
					"VectorAdd(uint256[],uint256[])": "20cebc5c",
					"VectorMul(uint256[],uint256[])": "cf60976a",
					"VectorScale(uint256[],uint256)": "3b4c2ede",
					"owner()": "8da5cb5b"
				}
			},
			"userdoc": {
				"methods": {}
			}
		}
	}
}