{
	"data": {
		"bytecode": {
			"linkReferences": {},
			"object": "60806040523480156200001157600080fd5b506040516020806200358c83398101806040528101908080519060200190929190505050336000806101000a81548173ffffffffffffffffffffffffffffffffffffffff021916908373ffffffffffffffffffffffffffffffffffffffff160217905550604080519081016040528060018152602001600281525060019060026200009e92919062000825565b50620000f86001600280602002604051908101604052809291908260028015620000de576020028201915b815481526020019060010190808311620000c9575b505050505062000156640100000000026401000000009004565b60039060026200010a92919062000825565b50604080519081016040528060008152602001600081525060059060026200013492919062000825565b506200014f816200028a640100000000026401000000009004565b5062000906565b620001606200086a565b60007f30644e72e131a029b85045b68181585d97816a916871ca8d3c208c16d87cfd476200019d8462000667640100000000026401000000009004565b811515620001a757fe5b06826000600281101515620001b857fe5b602002018181525050600090505b8015156200028457620001fc826000600281101515620001e257fe5b6020020151620006ba640100000000026401000000009004565b8360016002811015156200020c57fe5b602002018193508281525050508015156200027e577f30644e72e131a029b85045b68181585d97816a916871ca8d3c208c16d87cfd478015156200024c57fe5b60018360006002811015156200025e57fe5b6020020151088260006002811015156200027457fe5b6020020181815250505b620001c6565b50919050565b60006060806000806200029c6200086a565b6000809054906101000a900473ffffffffffffffffffffffffffffffffffffffff1673ffffffffffffffffffffffffffffffffffffffff163373ffffffffffffffffffffffffffffffffffffffff161415801562000332575060008060009054906101000a900473ffffffffffffffffffffffffffffffffffffffff1673ffffffffffffffffffffffffffffffffffffffff1614155b156200033d57600080fd5b60026007805490508115156200034f57fe5b049550858711156200065e57600287026040519080825280602002602001820160405280156200038e5781602001602082028038833980820191505090505b50945060028702604051908082528060200260200182016040528015620003c45781602001602082028038833980820191505090505b509350600092505b6007805490508310156200045857600783815481101515620003ea57fe5b906000526020600020015485848151811015156200040457fe5b90602001906020020181815250506008838154811015156200042257fe5b906000526020600020015484848151811015156200043c57fe5b90602001906020020181815250508280600101935050620003cc565b6000861415620004aa5760036002806020026040519081016040528092919082600280156200049d576020028201915b81548152602001906001019080831162000488575b5050505050905062000504565b60026008805490500391506040805190810160405280600884815481101515620004d057fe5b90600052602060002001548152602001600860018501815481101515620004f357fe5b906000526020600020015481525090505b8592505b868310156200062b57826002029150620005318162000156640100000000026401000000009004565b90508060006002811015156200054357fe5b60200201518160016002811015156200055857fe5b602002015186848151811015156200056c57fe5b90602001906020020187600186018151811015156200058757fe5b90602001906020020182815250828152505050620005b48162000156640100000000026401000000009004565b9050806000600281101515620005c657fe5b6020020151816001600281101515620005db57fe5b60200201518584815181101515620005ef57fe5b90602001906020020186600186018151811015156200060a57fe5b90602001906020020182815250828152505050828060010193505062000508565b8460079080519060200190620006439291906200088c565b5083600890805190602001906200065c9291906200088c565b505b50505050505050565b60008160006002811015156200067957fe5b60200201518260016002811015156200068e57fe5b602002015160405180838152602001828152602001925050506040518091039020600190049050919050565b60008060008060007f30644e72e131a029b85045b68181585d97816a916871ca8d3c208c16d87cfd47801515620006ed57fe5b86870992507f30644e72e131a029b85045b68181585d97816a916871ca8d3c208c16d87cfd478015156200071d57fe5b86840992507f30644e72e131a029b85045b68181585d97816a916871ca8d3c208c16d87cfd478015156200074d57fe5b6003840892507f30644e72e131a029b85045b68181585d97816a916871ca8d3c208c16d87cfd4791507f0c19139cb84c680a6e14116da060561765e05aa45a1c72a34f082305b61f3f52905060405160208152602080820152602060408201528360608201528160808201528260a082015260208160c083600060056107d05a03f18060008114620007df57620007e4565b60c083fd5b508151965050507f30644e72e131a029b85045b68181585d97816a916871ca8d3c208c16d87cfd478015156200081657fe5b85860983149350505050915091565b826002810192821562000857579160200282015b828111156200085657825182559160200191906001019062000839565b5b509050620008669190620008de565b5090565b6040805190810160405280600290602082028038833980820191505090505090565b828054828255906000526020600020908101928215620008cb579160200282015b82811115620008ca578251825591602001919060010190620008ad565b5b509050620008da9190620008de565b5090565b6200090391905b80821115620008ff576000816000905550600101620008e5565b5090565b90565b612c7680620009166000396000f3006080604052600436106101b7576000357c0100000000000000000000000000000000000000000000000000000000900463ffffffff168063012421f9146101bc5780630819336a146102545780630c753fe8146102bd57806316491f3e1461037a5780631bea22e6146103e35780631ce9d8951461045057806320cebc5c146104e957806337a8b202146105e75780633b4c2ede146106795780635da7f69e1461073e5780635f033797146107a75780636032fc3f14610835578063639649c4146108c357806366230bd91461092c57806371b1c16114610978578063758bad98146109de57806380bca97914610a44578063841675c914610b015780638ac1c8d414610c9b5780638b05a64a14610d655780638da5cb5b14610d925780639c050a4a14610de9578063a77a970d14610eb0578063ad4310f514610edb578063ae5d39f614611003578063b0f5c83a14611056578063b866cf29146110ee578063ba7d397714611141578063bab5064c1461123a578063be26733c14611265578063c025d89b1461127c578063c1eeb1fe14611314578063cf60976a14611367578063d1ff535b14611465578063e76f8e6614611490575b600080fd5b3480156101c857600080fd5b50610216600480360381019080806040019060028060200260405190810160405280929190826002602002808284378201915050505050919291929080359060200190929190505050611503565b6040518082600260200280838360005b83811015610241578082015181840152602081019050610226565b5050505090500191505060405180910390f35b34801561026057600080fd5b5061027f6004803603810190808035906020019092919050505061155b565b6040518082600260200280838360005b838110156102aa57808201518184015260208101905061028f565b5050505090500191505060405180910390f35b3480156102c957600080fd5b5061033c600480360381019080806040019060028060200260405190810160405280929190826002602002808284378201915050505050919291929080604001906002806020026040519081016040528092919082600260200280828437820191505050505091929192905050506115b1565b6040518082600260200280838360005b8381101561036757808201518184015260208101905061034c565b5050505090500191505060405180910390f35b34801561038657600080fd5b506103a560048036038101908080359060200190929190505050611615565b6040518082600260200280838360005b838110156103d05780820151818401526020810190506103b5565b5050505090500191505060405180910390f35b3480156103ef57600080fd5b5061040e6004803603810190808035906020019092919050505061166b565b604051808273ffffffffffffffffffffffffffffffffffffffff1673ffffffffffffffffffffffffffffffffffffffff16815260200191505060405180910390f35b34801561045c57600080fd5b506104cf60048036038101908080604001906002806020026040519081016040528092919082600260200280828437820191505050505091929192908060400190600280602002604051908101604052809291908260026020028082843782019150505050509192919290505050611685565b604051808215151515815260200191505060405180910390f35b3480156104f557600080fd5b5061059060048036038101908080359060200190820180359060200190808060200260200160405190810160405280939291908181526020018383602002808284378201915050505050509192919290803590602001908201803590602001908080602002602001604051908101604052809392919081815260200183836020028082843782019150505050505091929192905050506116e9565b6040518080602001828103825283818151815260200191508051906020019060200280838360005b838110156105d35780820151818401526020810190506105b8565b505050509050019250505060405180910390f35b3480156105f357600080fd5b50610637600480360381019080806040019060028060200260405190810160405280929190826002602002808284378201915050505050919291929050505061187e565b604051808273ffffffffffffffffffffffffffffffffffffffff1673ffffffffffffffffffffffffffffffffffffffff16815260200191505060405180910390f35b34801561068557600080fd5b506106e760048036038101908080359060200190820180359060200190808060200260200160405190810160405280939291908181526020018383602002808284378201915050505050509192919290803590602001909291905050506118cf565b6040518080602001828103825283818151815260200191508051906020019060200280838360005b8381101561072a57808201518184015260208101905061070f565b505050509050019250505060405180910390f35b34801561074a57600080fd5b5061076960048036038101908080359060200190929190505050611a0f565b6040518082600260200280838360005b83811015610794578082015181840152602081019050610779565b5050505090500191505060405180910390f35b3480156107b357600080fd5b506107f76004803603810190808060400190600280602002604051908101604052809291908260026020028082843782019150505050509192919290505050611ba3565b6040518082600260200280838360005b83811015610822578082015181840152602081019050610807565b5050505090500191505060405180910390f35b34801561084157600080fd5b506108856004803603810190808060400190600280602002604051908101604052809291908260026020028082843782019150505050509192919290505050611c55565b6040518082600260200280838360005b838110156108b0578082015181840152602081019050610895565b5050505090500191505060405180910390f35b3480156108cf57600080fd5b506108ee60048036038101908080359060200190929190505050611d5b565b6040518082600260200280838360005b838110156109195780820151818401526020810190506108fe565b5050505090500191505060405180910390f35b34801561093857600080fd5b5061095760048036038101908080359060200190929190505050611db1565b60405180838152602001821515151581526020019250505060405180910390f35b34801561098457600080fd5b506109c86004803603810190808060400190600280602002604051908101604052809291908260026020028082843782019150505050509192919290505050611f16565b6040518082815260200191505060405180910390f35b3480156109ea57600080fd5b50610a2e6004803603810190808060400190600280602002604051908101604052809291908260026020028082843782019150505050509192919290505050611f77565b6040518082815260200191505060405180910390f35b348015610a5057600080fd5b50610ac360048036038101908080604001906002806020026040519081016040528092919082600260200280828437820191505050505091929192908060400190600280602002604051908101604052809291908260026020028082843782019150505050509192919290505050611fc8565b6040518082600260200280838360005b83811015610aee578082015181840152602081019050610ad3565b5050505090500191505060405180910390f35b348015610b0d57600080fd5b50610c2e60048036038101908080359060200190820180359060200190808060200260200160405190810160405280939291908181526020018383602002808284378201915050505050509192919290803590602001908201803590602001908080602002602001604051908101604052809392919081815260200183836020028082843782019150505050505091929192908035906020019082018035906020019080806020026020016040519081016040528093929190818152602001838360200280828437820191505050505050919291929080359060200190820180359060200190808060200260200160405190810160405280939291908181526020018383602002808284378201915050505050509192919290505050611fea565b6040518083600260200280838360005b83811015610c59578082015181840152602081019050610c3e565b5050505090500182600260200280838360005b83811015610c87578082015181840152602081019050610c6c565b505050509050019250505060405180910390f35b348015610ca757600080fd5b50610cc660048036038101908080359060200190929190505050612021565b604051808060200180602001838103835285818151815260200191508051906020019060200280838360005b83811015610d0d578082015181840152602081019050610cf2565b50505050905001838103825284818151815260200191508051906020019060200280838360005b83811015610d4f578082015181840152602081019050610d34565b5050505090500194505050505060405180910390f35b348015610d7157600080fd5b50610d9060048036038101908080359060200190929190505050612208565b005b348015610d9e57600080fd5b50610da76125a1565b604051808273ffffffffffffffffffffffffffffffffffffffff1673ffffffffffffffffffffffffffffffffffffffff16815260200191505060405180910390f35b348015610df557600080fd5b50610e7260048036038101908080604001906002806020026040519081016040528092919082600260200280828437820191505050505091929192908060400190600280602002604051908101604052809291908260026020028082843782019150505050509192919290803590602001909291905050506125c6565b6040518082600260200280838360005b83811015610e9d578082015181840152602081019050610e82565b5050505090500191505060405180910390f35b348015610ebc57600080fd5b50610ec56125ea565b6040518082815260200191505060405180910390f35b348015610ee757600080fd5b50610fc5600480360381019080806040019060028060200260405190810160405280929190826002602002808284378201915050505050919291929080359060200190820180359060200190808060200260200160405190810160405280939291908181526020018383602002808284378201915050505050509192919290803590602001908201803590602001908080602002602001604051908101604052809392919081815260200183836020028082843782019150505050505091929192908035906020019092919080359060200190929190505050612603565b6040518082600260200280838360005b83811015610ff0578082015181840152602081019050610fd5565b5050505090500191505060405180910390f35b34801561100f57600080fd5b5061101861262b565b6040518082600260200280838360005b83811015611043578082015181840152602081019050611028565b5050505090500191505060405180910390f35b34801561106257600080fd5b506110b0600480360381019080806040019060028060200260405190810160405280929190826002602002808284378201915050505050919291929080359060200190929190505050612676565b6040518082600260200280838360005b838110156110db5780820151818401526020810190506110c0565b5050505090500191505060405180910390f35b3480156110fa57600080fd5b506111036126ce565b6040518082600260200280838360005b8381101561112e578082015181840152602081019050611113565b5050505090500191505060405180910390f35b34801561114d57600080fd5b506111fc60048036038101908080359060200190820180359060200190808060200260200160405190810160405280939291908181526020018383602002808284378201915050505050509192919290803590602001908201803590602001908080602002602001604051908101604052809392919081815260200183836020028082843782019150505050505091929192908035906020019092919080359060200190929190505050612719565b6040518082600260200280838360005b8381101561122757808201518184015260208101905061120c565b5050505090500191505060405180910390f35b34801561124657600080fd5b5061124f612888565b6040518082815260200191505060405180910390f35b34801561127157600080fd5b5061127a6128b0565b005b34801561128857600080fd5b506112d6600480360381019080806040019060028060200260405190810160405280929190826002602002808284378201915050505050919291929080359060200190929190505050612968565b6040518082600260200280838360005b838110156113015780820151818401526020810190506112e6565b5050505090500191505060405180910390f35b34801561132057600080fd5b506113296129c1565b6040518082600260200280838360005b83811015611354578082015181840152602081019050611339565b5050505090500191505060405180910390f35b34801561137357600080fd5b5061140e6004803603810190808035906020019082018035906020019080806020026020016040519081016040528093929190818152602001838360200280828437820191505050505050919291929080359060200190820180359060200190808060200260200160405190810160405280939291908181526020018383602002808284378201915050505050509192919290505050612a0c565b6040518080602001828103825283818151815260200191508051906020019060200280838360005b83811015611451578082015181840152602081019050611436565b505050509050019250505060405180910390f35b34801561147157600080fd5b5061147a612b64565b6040518082815260200191505060405180910390f35b34801561149c57600080fd5b506114c56004803603810190808035906020019092919080359060200190929190505050612b8c565b6040518082600260200280838360005b838110156114f05780820151818401526020810190506114d5565b5050505090500191505060405180910390f35b61150b612bb6565b611553836003600280602002604051908101604052809291908260028015611548576020028201915b815481526020019060010190808311611534575b5050505050846125c6565b905092915050565b611563612bb6565b6115aa600160028060200260405190810160405280929190826002801561159f576020028201915b81548152602001906001019080831161158b575b505050505083612968565b9050919050565b6115b9612bb6565b60405183518152602084015160208201528251604082015260208301516060820152604081608083600060066107d05a03f180600081146115f9576115fe565b608083fd5b508151835260208201516020840152505092915050565b61161d612bb6565b6116646001600280602002604051908101604052809291908260028015611659576020028201915b815481526020019060010190808311611645575b505050505083612968565b9050919050565b600061167e61167983611615565b61187e565b9050919050565b600081600060028110151561169657fe5b60200201518360006002811015156116aa57fe5b60200201511480156116e157508160016002811015156116c657fe5b60200201518360016002811015156116da57fe5b6020020151145b905092915050565b606060006116f5612bb6565b6001855111151561170557600080fd5b60006002865181151561171457fe5b0614151561172157600080fd5b8451845114151561173157600080fd5b84516040519080825280602002602001820160405280156117615781602001602082028038833980820191505090505b509250600091505b8451821015611876576118066040805190810160405280878581518110151561178e57fe5b90602001906020020151815260200187600186018151811015156117ae57fe5b90602001906020020151815250604080519081016040528087868151811015156117d457fe5b90602001906020020151815260200187600187018151811015156117f457fe5b906020019060200201518152506115b1565b905080600060028110151561181757fe5b602002015181600160028110151561182b57fe5b6020020151848481518110151561183e57fe5b906020019060200201856001860181518110151561185857fe5b90602001906020020182815250828152505050600282019150611769565b505092915050565b600081600060028110151561188f57fe5b60200201518260016002811015156118a357fe5b602002015160405180838152602001828152602001925050506040518091039020600190049050919050565b606060006118db612bb6565b600185511115156118eb57600080fd5b6000600286518115156118fa57fe5b0614151561190757600080fd5b84516040519080825280602002602001820160405280156119375781602001602082028038833980820191505090505b509250600091505b8451821015611a07576119976040805190810160405280878581518110151561196457fe5b906020019060200201518152602001876001860181518110151561198457fe5b9060200190602002015181525085612968565b90508060006002811015156119a857fe5b60200201518160016002811015156119bc57fe5b602002015184848151811015156119cf57fe5b90602001906020020185600186018151811015156119e957fe5b9060200190602002018281525082815250505060028201915061193f565b505092915050565b611a17612bb6565b6000807f8000000000000000000000000000000000000000000000000000000000000000198416836000600281101515611a4d57fe5b602002018181525050611a72836000600281101515611a6857fe5b6020020151611db1565b8093508192505050811515611a9f5760408051908101604052806000815260200160008152509250611b9c565b60007f80000000000000000000000000000000000000000000000000000000000000008516141515611b355760018082161415611af45780836001600281101515611ae657fe5b602002018181525050611b30565b807f30644e72e131a029b85045b68181585d97816a916871ca8d3c208c16d87cfd4703836001600281101515611b2657fe5b6020020181815250505b611b9b565b60018082161415611b8057807f30644e72e131a029b85045b68181585d97816a916871ca8d3c208c16d87cfd4703836001600281101515611b7257fe5b602002018181525050611b9a565b80836001600281101515611b9057fe5b6020020181815250505b5b5b5050919050565b611bab612bb6565b816000600281101515611bba57fe5b6020020151816000600281101515611bce57fe5b6020020181815250507f30644e72e131a029b85045b68181585d97816a916871ca8d3c208c16d87cfd47826001600281101515611c0757fe5b6020020151811515611c1557fe5b067f30644e72e131a029b85045b68181585d97816a916871ca8d3c208c16d87cfd4703816001600281101515611c4757fe5b602002018181525050919050565b611c5d612bb6565b60007f30644e72e131a029b85045b68181585d97816a916871ca8d3c208c16d87cfd47611c8984611f77565b811515611c9257fe5b06826000600281101515611ca257fe5b602002018181525050600090505b801515611d5557611cd3826000600281101515611cc957fe5b6020020151611db1565b836001600281101515611ce257fe5b60200201819350828152505050801515611d50577f30644e72e131a029b85045b68181585d97816a916871ca8d3c208c16d87cfd47801515611d2057fe5b6001836000600281101515611d3157fe5b602002015108826000600281101515611d4657fe5b6020020181815250505b611cb0565b50919050565b611d63612bb6565b611daa6003600280602002604051908101604052809291908260028015611d9f576020028201915b815481526020019060010190808311611d8b575b505050505083612968565b9050919050565b60008060008060007f30644e72e131a029b85045b68181585d97816a916871ca8d3c208c16d87cfd47801515611de357fe5b86870992507f30644e72e131a029b85045b68181585d97816a916871ca8d3c208c16d87cfd47801515611e1257fe5b86840992507f30644e72e131a029b85045b68181585d97816a916871ca8d3c208c16d87cfd47801515611e4157fe5b6003840892507f30644e72e131a029b85045b68181585d97816a916871ca8d3c208c16d87cfd4791507f0c19139cb84c680a6e14116da060561765e05aa45a1c72a34f082305b61f3f52905060405160208152602080820152602060408201528360608201528160808201528260a082015260208160c083600060056107d05a03f18060008114611ed157611ed6565b60c083fd5b508151965050507f30644e72e131a029b85045b68181585d97816a916871ca8d3c208c16d87cfd47801515611f0757fe5b85860983149350505050915091565b6000816000600281101515611f2757fe5b60200201519050600180836001600281101515611f4057fe5b6020020151161415611f72577f8000000000000000000000000000000000000000000000000000000000000000811790505b919050565b6000816000600281101515611f8857fe5b6020020151826001600281101515611f9c57fe5b602002015160405180838152602001828152602001925050506040518091039020600190049050919050565b611fd0612bb6565b611fe283611fdd84611ba3565b6115b1565b905092915050565b611ff2612bb6565b611ffa612bb6565b6120078685600080612719565b91506120168584600080612719565b905094509492505050565b60608060006060806000866002029350836007805490501015151561204557600080fd5b6000841480612058575083600780549050145b1561210e5760076008818054806020026020016040519081016040528092919081815260200182805480156120ac57602002820191906000526020600020905b815481526020019060010190808311612098575b50505050509150808054806020026020016040519081016040528092919081815260200182805480156120fe57602002820191906000526020600020905b8154815260200190600101908083116120ea575b50505050509050955095506121ff565b8360405190808252806020026020018201604052801561213d5781602001602082028038833980820191505090505b5092508360405190808252806020026020018201604052801561216f5781602001602082028038833980820191505090505b509150600090505b838110156121f85760078181548110151561218e57fe5b906000526020600020015483828151811015156121a757fe5b90602001906020020181815250506008818154811015156121c457fe5b906000526020600020015482828151811015156121dd57fe5b90602001906020020181815250508080600101915050612177565b8282955095505b50505050915091565b6000606080600080612218612bb6565b6000809054906101000a900473ffffffffffffffffffffffffffffffffffffffff1673ffffffffffffffffffffffffffffffffffffffff163373ffffffffffffffffffffffffffffffffffffffff16141580156122ad575060008060009054906101000a900473ffffffffffffffffffffffffffffffffffffffff1673ffffffffffffffffffffffffffffffffffffffff1614155b156122b757600080fd5b60026007805490508115156122c857fe5b0495508587111561259857600287026040519080825280602002602001820160405280156123055781602001602082028038833980820191505090505b5094506002870260405190808252806020026020018201604052801561233a5781602001602082028038833980820191505090505b509350600092505b6007805490508310156123c85760078381548110151561235e57fe5b9060005260206000200154858481518110151561237757fe5b906020019060200201818152505060088381548110151561239457fe5b906000526020600020015484848151811015156123ad57fe5b90602001906020020181815250508280600101935050612342565b600086141561241657600360028060200260405190810160405280929190826002801561240a576020028201915b8154815260200190600101908083116123f6575b5050505050905061246e565b6002600880549050039150604080519081016040528060088481548110151561243b57fe5b9060005260206000200154815260200160086001850181548110151561245d57fe5b906000526020600020015481525090505b8592505b868310156125695782600202915061248981611c55565b905080600060028110151561249a57fe5b60200201518160016002811015156124ae57fe5b602002015186848151811015156124c157fe5b90602001906020020187600186018151811015156124db57fe5b906020019060200201828152508281525050506124f781611c55565b905080600060028110151561250857fe5b602002015181600160028110151561251c57fe5b6020020151858481518110151561252f57fe5b906020019060200201866001860181518110151561254957fe5b906020019060200201828152508281525050508280600101935050612472565b846007908051906020019061257f929190612bd8565b508360089080519060200190612596929190612bd8565b505b50505050505050565b6000809054906101000a900473ffffffffffffffffffffffffffffffffffffffff1681565b6125ce612bb6565b6125e1846125dc8585612968565b6115b1565b90509392505050565b600060026007805490508115156125fd57fe5b04905090565b61260b612bb6565b6126208661261b87878787612719565b6115b1565b905095945050505050565b612633612bb6565b600160028060200260405190810160405280929190826002801561266c576020028201915b815481526020019060010190808311612658575b5050505050905090565b61267e612bb6565b6126c68360016002806020026040519081016040528092919082600280156126bb576020028201915b8154815260200190600101908083116126a7575b5050505050846125c6565b905092915050565b6126d6612bb6565b600560028060200260405190810160405280929190826002801561270f576020028201915b8154815260200190600101908083116126fb575b5050505050905090565b612721612bb6565b6000806001875111151561273457600080fd5b60006002885181151561274357fe5b0614151561275057600080fd5b8551600202875114151561276357600080fd5b600084141561277157855193505b848411151561277f57600080fd5b8460020291506127eb604080519081016040528089858151811015156127a157fe5b90602001906020020151815260200189600186018151811015156127c157fe5b9060200190602002015181525087878151811015156127dc57fe5b90602001906020020151612968565b92506002820191506001850190505b8381101561287e576128698360408051908101604052808a8681518110151561281f57fe5b9060200190602002015181526020018a6001870181518110151561283f57fe5b90602001906020020151815250888481518110151561285a57fe5b906020019060200201516125c6565b925060028201915080806001019150506127fa565b5050949350505050565b60007f30644e72e131a029b85045b68181585d97816a916871ca8d3c208c16d87cfd47905090565b6000809054906101000a900473ffffffffffffffffffffffffffffffffffffffff1673ffffffffffffffffffffffffffffffffffffffff163373ffffffffffffffffffffffffffffffffffffffff1614158015612945575060008060009054906101000a900473ffffffffffffffffffffffffffffffffffffffff1673ffffffffffffffffffffffffffffffffffffffff1614155b1561294f57600080fd5b3373ffffffffffffffffffffffffffffffffffffffff16ff5b612970612bb6565b6040518351815260208401516020820152826040820152604081606083600060076107d05a03f180600081146129a5576129aa565b608083fd5b508151835260208201516020840152505092915050565b6129c9612bb6565b6003600280602002604051908101604052809291908260028015612a02576020028201915b8154815260200190600101908083116129ee575b5050505050905090565b6060600080612a19612bb6565b60008551111515612a2957600080fd5b60028551028651141515612a3c57600080fd5b8551604051908082528060200260200182016040528015612a6c5781602001602082028038833980820191505090505b509350600092505b8451831015612b5b57826002029150612ae960408051908101604052808885815181101515612a9f57fe5b9060200190602002015181526020018860018601815181101515612abf57fe5b906020019060200201518152508685815181101515612ada57fe5b90602001906020020151612968565b9050806000600281101515612afa57fe5b6020020151816001600281101515612b0e57fe5b60200201518584815181101515612b2157fe5b9060200190602002018660018601815181101515612b3b57fe5b906020019060200201828152508281525050508280600101935050612a74565b50505092915050565b60007f30644e72e131a029b85045b68181585d2833e84879b9709143e1f593f0000001905090565b612b94612bb6565b612bae612ba08461155b565b612ba984611d5b565b6115b1565b905092915050565b6040805190810160405280600290602082028038833980820191505090505090565b828054828255906000526020600020908101928215612c14579160200282015b82811115612c13578251825591602001919060010190612bf8565b5b509050612c219190612c25565b5090565b612c4791905b80821115612c43576000816000905550600101612c2b565b5090565b905600a165627a7a723058208889056c51c883c8e8d9173e0782df7ea602cd7bf6316e8ce7ab5ce365e570af0029",
			"opcodes": "PUSH1 0x80 PUSH1 0x40 MSTORE CALLVALUE DUP1 ISZERO PUSH3 0x11 JUMPI PUSH1 0x0 DUP1 REVERT JUMPDEST POP PUSH1 0x40 MLOAD PUSH1 0x20 DUP1 PUSH3 0x358C DUP4 CODECOPY DUP2 ADD DUP1 PUSH1 0x40 MSTORE DUP2 ADD SWAP1 DUP1 DUP1 MLOAD SWAP1 PUSH1 0x20 ADD SWAP1 SWAP3 SWAP2 SWAP1 POP POP POP CALLER PUSH1 0x0 DUP1 PUSH2 0x100 EXP DUP2 SLOAD DUP2 PUSH20 0xFFFFFFFFFFFFFFFFFFFFFFFFFFFFFFFFFFFFFFFF MUL NOT AND SWAP1 DUP4 PUSH20 0xFFFFFFFFFFFFFFFFFFFFFFFFFFFFFFFFFFFFFFFF AND MUL OR SWAP1 SSTORE POP PUSH1 0x40 DUP1 MLOAD SWAP1 DUP2 ADD PUSH1 0x40 MSTORE DUP1 PUSH1 0x1 DUP2 MSTORE PUSH1 0x20 ADD PUSH1 0x2 DUP2 MSTORE POP PUSH1 0x1 SWAP1 PUSH1 0x2 PUSH3 0x9E SWAP3 SWAP2 SWAP1 PUSH3 0x825 JUMP JUMPDEST POP PUSH3 0xF8 PUSH1 0x1 PUSH1 0x2 DUP1 PUSH1 0x20 MUL PUSH1 0x40 MLOAD SWAP1 DUP2 ADD PUSH1 0x40 MSTORE DUP1 SWAP3 SWAP2 SWAP1 DUP3 PUSH1 0x2 DUP1 ISZERO PUSH3 0xDE JUMPI PUSH1 0x20 MUL DUP3 ADD SWAP2 JUMPDEST DUP2 SLOAD DUP2 MSTORE PUSH1 0x20 ADD SWAP1 PUSH1 0x1 ADD SWAP1 DUP1 DUP4 GT PUSH3 0xC9 JUMPI JUMPDEST POP POP POP POP POP PUSH3 0x156 PUSH5 0x100000000 MUL PUSH5 0x100000000 SWAP1 DIV JUMP JUMPDEST PUSH1 0x3 SWAP1 PUSH1 0x2 PUSH3 0x10A SWAP3 SWAP2 SWAP1 PUSH3 0x825 JUMP JUMPDEST POP PUSH1 0x40 DUP1 MLOAD SWAP1 DUP2 ADD PUSH1 0x40 MSTORE DUP1 PUSH1 0x0 DUP2 MSTORE PUSH1 0x20 ADD PUSH1 0x0 DUP2 MSTORE POP PUSH1 0x5 SWAP1 PUSH1 0x2 PUSH3 0x134 SWAP3 SWAP2 SWAP1 PUSH3 0x825 JUMP JUMPDEST POP PUSH3 0x14F DUP2 PUSH3 0x28A PUSH5 0x100000000 MUL PUSH5 0x100000000 SWAP1 DIV JUMP JUMPDEST POP PUSH3 0x906 JUMP JUMPDEST PUSH3 0x160 PUSH3 0x86A JUMP JUMPDEST PUSH1 0x0 PUSH32 0x30644E72E131A029B85045B68181585D97816A916871CA8D3C208C16D87CFD47 PUSH3 0x19D DUP5 PUSH3 0x667 PUSH5 0x100000000 MUL PUSH5 0x100000000 SWAP1 DIV JUMP JUMPDEST DUP2 ISZERO ISZERO PUSH3 0x1A7 JUMPI INVALID JUMPDEST MOD DUP3 PUSH1 0x0 PUSH1 0x2 DUP2 LT ISZERO ISZERO PUSH3 0x1B8 JUMPI INVALID JUMPDEST PUSH1 0x20 MUL ADD DUP2 DUP2 MSTORE POP POP PUSH1 0x0 SWAP1 POP JUMPDEST DUP1 ISZERO ISZERO PUSH3 0x284 JUMPI PUSH3 0x1FC DUP3 PUSH1 0x0 PUSH1 0x2 DUP2 LT ISZERO ISZERO PUSH3 0x1E2 JUMPI INVALID JUMPDEST PUSH1 0x20 MUL ADD MLOAD PUSH3 0x6BA PUSH5 0x100000000 MUL PUSH5 0x100000000 SWAP1 DIV JUMP JUMPDEST DUP4 PUSH1 0x1 PUSH1 0x2 DUP2 LT ISZERO ISZERO PUSH3 0x20C JUMPI INVALID JUMPDEST PUSH1 0x20 MUL ADD DUP2 SWAP4 POP DUP3 DUP2 MSTORE POP POP POP DUP1 ISZERO ISZERO PUSH3 0x27E JUMPI PUSH32 0x30644E72E131A029B85045B68181585D97816A916871CA8D3C208C16D87CFD47 DUP1 ISZERO ISZERO PUSH3 0x24C JUMPI INVALID JUMPDEST PUSH1 0x1 DUP4 PUSH1 0x0 PUSH1 0x2 DUP2 LT ISZERO ISZERO PUSH3 0x25E JUMPI INVALID JUMPDEST PUSH1 0x20 MUL ADD MLOAD ADDMOD DUP3 PUSH1 0x0 PUSH1 0x2 DUP2 LT ISZERO ISZERO PUSH3 0x274 JUMPI INVALID JUMPDEST PUSH1 0x20 MUL ADD DUP2 DUP2 MSTORE POP POP JUMPDEST PUSH3 0x1C6 JUMP JUMPDEST POP SWAP2 SWAP1 POP JUMP JUMPDEST PUSH1 0x0 PUSH1 0x60 DUP1 PUSH1 0x0 DUP1 PUSH3 0x29C PUSH3 0x86A JUMP JUMPDEST PUSH1 0x0 DUP1 SWAP1 SLOAD SWAP1 PUSH2 0x100 EXP SWAP1 DIV PUSH20 0xFFFFFFFFFFFFFFFFFFFFFFFFFFFFFFFFFFFFFFFF AND PUSH20 0xFFFFFFFFFFFFFFFFFFFFFFFFFFFFFFFFFFFFFFFF AND CALLER PUSH20 0xFFFFFFFFFFFFFFFFFFFFFFFFFFFFFFFFFFFFFFFF AND EQ ISZERO DUP1 ISZERO PUSH3 0x332 JUMPI POP PUSH1 0x0 DUP1 PUSH1 0x0 SWAP1 SLOAD SWAP1 PUSH2 0x100 EXP SWAP1 DIV PUSH20 0xFFFFFFFFFFFFFFFFFFFFFFFFFFFFFFFFFFFFFFFF AND PUSH20 0xFFFFFFFFFFFFFFFFFFFFFFFFFFFFFFFFFFFFFFFF AND EQ ISZERO JUMPDEST ISZERO PUSH3 0x33D JUMPI PUSH1 0x0 DUP1 REVERT JUMPDEST PUSH1 0x2 PUSH1 0x7 DUP1 SLOAD SWAP1 POP DUP2 ISZERO ISZERO PUSH3 0x34F JUMPI INVALID JUMPDEST DIV SWAP6 POP DUP6 DUP8 GT ISZERO PUSH3 0x65E JUMPI PUSH1 0x2 DUP8 MUL PUSH1 0x40 MLOAD SWAP1 DUP1 DUP3 MSTORE DUP1 PUSH1 0x20 MUL PUSH1 0x20 ADD DUP3 ADD PUSH1 0x40 MSTORE DUP1 ISZERO PUSH3 0x38E JUMPI DUP2 PUSH1 0x20 ADD PUSH1 0x20 DUP3 MUL DUP1 CODESIZE DUP4 CODECOPY DUP1 DUP3 ADD SWAP2 POP POP SWAP1 POP JUMPDEST POP SWAP5 POP PUSH1 0x2 DUP8 MUL PUSH1 0x40 MLOAD SWAP1 DUP1 DUP3 MSTORE DUP1 PUSH1 0x20 MUL PUSH1 0x20 ADD DUP3 ADD PUSH1 0x40 MSTORE DUP1 ISZERO PUSH3 0x3C4 JUMPI DUP2 PUSH1 0x20 ADD PUSH1 0x20 DUP3 MUL DUP1 CODESIZE DUP4 CODECOPY DUP1 DUP3 ADD SWAP2 POP POP SWAP1 POP JUMPDEST POP SWAP4 POP PUSH1 0x0 SWAP3 POP JUMPDEST PUSH1 0x7 DUP1 SLOAD SWAP1 POP DUP4 LT ISZERO PUSH3 0x458 JUMPI PUSH1 0x7 DUP4 DUP2 SLOAD DUP2 LT ISZERO ISZERO PUSH3 0x3EA JUMPI INVALID JUMPDEST SWAP1 PUSH1 0x0 MSTORE PUSH1 0x20 PUSH1 0x0 KECCAK256 ADD SLOAD DUP6 DUP5 DUP2 MLOAD DUP2 LT ISZERO ISZERO PUSH3 0x404 JUMPI INVALID JUMPDEST SWAP1 PUSH1 0x20 ADD SWAP1 PUSH1 0x20 MUL ADD DUP2 DUP2 MSTORE POP POP PUSH1 0x8 DUP4 DUP2 SLOAD DUP2 LT ISZERO ISZERO PUSH3 0x422 JUMPI INVALID JUMPDEST SWAP1 PUSH1 0x0 MSTORE PUSH1 0x20 PUSH1 0x0 KECCAK256 ADD SLOAD DUP5 DUP5 DUP2 MLOAD DUP2 LT ISZERO ISZERO PUSH3 0x43C JUMPI INVALID JUMPDEST SWAP1 PUSH1 0x20 ADD SWAP1 PUSH1 0x20 MUL ADD DUP2 DUP2 MSTORE POP POP DUP3 DUP1 PUSH1 0x1 ADD SWAP4 POP POP PUSH3 0x3CC JUMP JUMPDEST PUSH1 0x0 DUP7 EQ ISZERO PUSH3 0x4AA JUMPI PUSH1 0x3 PUSH1 0x2 DUP1 PUSH1 0x20 MUL PUSH1 0x40 MLOAD SWAP1 DUP2 ADD PUSH1 0x40 MSTORE DUP1 SWAP3 SWAP2 SWAP1 DUP3 PUSH1 0x2 DUP1 ISZERO PUSH3 0x49D JUMPI PUSH1 0x20 MUL DUP3 ADD SWAP2 JUMPDEST DUP2 SLOAD DUP2 MSTORE PUSH1 0x20 ADD SWAP1 PUSH1 0x1 ADD SWAP1 DUP1 DUP4 GT PUSH3 0x488 JUMPI JUMPDEST POP POP POP POP POP SWAP1 POP PUSH3 0x504 JUMP JUMPDEST PUSH1 0x2 PUSH1 0x8 DUP1 SLOAD SWAP1 POP SUB SWAP2 POP PUSH1 0x40 DUP1 MLOAD SWAP1 DUP2 ADD PUSH1 0x40 MSTORE DUP1 PUSH1 0x8 DUP5 DUP2 SLOAD DUP2 LT ISZERO ISZERO PUSH3 0x4D0 JUMPI INVALID JUMPDEST SWAP1 PUSH1 0x0 MSTORE PUSH1 0x20 PUSH1 0x0 KECCAK256 ADD SLOAD DUP2 MSTORE PUSH1 0x20 ADD PUSH1 0x8 PUSH1 0x1 DUP6 ADD DUP2 SLOAD DUP2 LT ISZERO ISZERO PUSH3 0x4F3 JUMPI INVALID JUMPDEST SWAP1 PUSH1 0x0 MSTORE PUSH1 0x20 PUSH1 0x0 KECCAK256 ADD SLOAD DUP2 MSTORE POP SWAP1 POP JUMPDEST DUP6 SWAP3 POP JUMPDEST DUP7 DUP4 LT ISZERO PUSH3 0x62B JUMPI DUP3 PUSH1 0x2 MUL SWAP2 POP PUSH3 0x531 DUP2 PUSH3 0x156 PUSH5 0x100000000 MUL PUSH5 0x100000000 SWAP1 DIV JUMP JUMPDEST SWAP1 POP DUP1 PUSH1 0x0 PUSH1 0x2 DUP2 LT ISZERO ISZERO PUSH3 0x543 JUMPI INVALID JUMPDEST PUSH1 0x20 MUL ADD MLOAD DUP2 PUSH1 0x1 PUSH1 0x2 DUP2 LT ISZERO ISZERO PUSH3 0x558 JUMPI INVALID JUMPDEST PUSH1 0x20 MUL ADD MLOAD DUP7 DUP5 DUP2 MLOAD DUP2 LT ISZERO ISZERO PUSH3 0x56C JUMPI INVALID JUMPDEST SWAP1 PUSH1 0x20 ADD SWAP1 PUSH1 0x20 MUL ADD DUP8 PUSH1 0x1 DUP7 ADD DUP2 MLOAD DUP2 LT ISZERO ISZERO PUSH3 0x587 JUMPI INVALID JUMPDEST SWAP1 PUSH1 0x20 ADD SWAP1 PUSH1 0x20 MUL ADD DUP3 DUP2 MSTORE POP DUP3 DUP2 MSTORE POP POP POP PUSH3 0x5B4 DUP2 PUSH3 0x156 PUSH5 0x100000000 MUL PUSH5 0x100000000 SWAP1 DIV JUMP JUMPDEST SWAP1 POP DUP1 PUSH1 0x0 PUSH1 0x2 DUP2 LT ISZERO ISZERO PUSH3 0x5C6 JUMPI INVALID JUMPDEST PUSH1 0x20 MUL ADD MLOAD DUP2 PUSH1 0x1 PUSH1 0x2 DUP2 LT ISZERO ISZERO PUSH3 0x5DB JUMPI INVALID JUMPDEST PUSH1 0x20 MUL ADD MLOAD DUP6 DUP5 DUP2 MLOAD DUP2 LT ISZERO ISZERO PUSH3 0x5EF JUMPI INVALID JUMPDEST SWAP1 PUSH1 0x20 ADD SWAP1 PUSH1 0x20 MUL ADD DUP7 PUSH1 0x1 DUP7 ADD DUP2 MLOAD DUP2 LT ISZERO ISZERO PUSH3 0x60A JUMPI INVALID JUMPDEST SWAP1 PUSH1 0x20 ADD SWAP1 PUSH1 0x20 MUL ADD DUP3 DUP2 MSTORE POP DUP3 DUP2 MSTORE POP POP POP DUP3 DUP1 PUSH1 0x1 ADD SWAP4 POP POP PUSH3 0x508 JUMP JUMPDEST DUP5 PUSH1 0x7 SWAP1 DUP1 MLOAD SWAP1 PUSH1 0x20 ADD SWAP1 PUSH3 0x643 SWAP3 SWAP2 SWAP1 PUSH3 0x88C JUMP JUMPDEST POP DUP4 PUSH1 0x8 SWAP1 DUP1 MLOAD SWAP1 PUSH1 0x20 ADD SWAP1 PUSH3 0x65C SWAP3 SWAP2 SWAP1 PUSH3 0x88C JUMP JUMPDEST POP JUMPDEST POP POP POP POP POP POP POP JUMP JUMPDEST PUSH1 0x0 DUP2 PUSH1 0x0 PUSH1 0x2 DUP2 LT ISZERO ISZERO PUSH3 0x679 JUMPI INVALID JUMPDEST PUSH1 0x20 MUL ADD MLOAD DUP3 PUSH1 0x1 PUSH1 0x2 DUP2 LT ISZERO ISZERO PUSH3 0x68E JUMPI INVALID JUMPDEST PUSH1 0x20 MUL ADD MLOAD PUSH1 0x40 MLOAD DUP1 DUP4 DUP2 MSTORE PUSH1 0x20 ADD DUP3 DUP2 MSTORE PUSH1 0x20 ADD SWAP3 POP POP POP PUSH1 0x40 MLOAD DUP1 SWAP2 SUB SWAP1 KECCAK256 PUSH1 0x1 SWAP1 DIV SWAP1 POP SWAP2 SWAP1 POP JUMP JUMPDEST PUSH1 0x0 DUP1 PUSH1 0x0 DUP1 PUSH1 0x0 PUSH32 0x30644E72E131A029B85045B68181585D97816A916871CA8D3C208C16D87CFD47 DUP1 ISZERO ISZERO PUSH3 0x6ED JUMPI INVALID JUMPDEST DUP7 DUP8 MULMOD SWAP3 POP PUSH32 0x30644E72E131A029B85045B68181585D97816A916871CA8D3C208C16D87CFD47 DUP1 ISZERO ISZERO PUSH3 0x71D JUMPI INVALID JUMPDEST DUP7 DUP5 MULMOD SWAP3 POP PUSH32 0x30644E72E131A029B85045B68181585D97816A916871CA8D3C208C16D87CFD47 DUP1 ISZERO ISZERO PUSH3 0x74D JUMPI INVALID JUMPDEST PUSH1 0x3 DUP5 ADDMOD SWAP3 POP PUSH32 0x30644E72E131A029B85045B68181585D97816A916871CA8D3C208C16D87CFD47 SWAP2 POP PUSH32 0xC19139CB84C680A6E14116DA060561765E05AA45A1C72A34F082305B61F3F52 SWAP1 POP PUSH1 0x40 MLOAD PUSH1 0x20 DUP2 MSTORE PUSH1 0x20 DUP1 DUP3 ADD MSTORE PUSH1 0x20 PUSH1 0x40 DUP3 ADD MSTORE DUP4 PUSH1 0x60 DUP3 ADD MSTORE DUP2 PUSH1 0x80 DUP3 ADD MSTORE DUP3 PUSH1 0xA0 DUP3 ADD MSTORE PUSH1 0x20 DUP2 PUSH1 0xC0 DUP4 PUSH1 0x0 PUSH1 0x5 PUSH2 0x7D0 GAS SUB CALL DUP1 PUSH1 0x0 DUP2 EQ PUSH3 0x7DF JUMPI PUSH3 0x7E4 JUMP JUMPDEST PUSH1 0xC0 DUP4 REVERT JUMPDEST POP DUP2 MLOAD SWAP7 POP POP POP PUSH32 0x30644E72E131A029B85045B68181585D97816A916871CA8D3C208C16D87CFD47 DUP1 ISZERO ISZERO PUSH3 0x816 JUMPI INVALID JUMPDEST DUP6 DUP7 MULMOD DUP4 EQ SWAP4 POP POP POP POP SWAP2 POP SWAP2 JUMP JUMPDEST DUP3 PUSH1 0x2 DUP2 ADD SWAP3 DUP3 ISZERO PUSH3 0x857 JUMPI SWAP2 PUSH1 0x20 MUL DUP3 ADD JUMPDEST DUP3 DUP2 GT ISZERO PUSH3 0x856 JUMPI DUP3 MLOAD DUP3 SSTORE SWAP2 PUSH1 0x20 ADD SWAP2 SWAP1 PUSH1 0x1 ADD SWAP1 PUSH3 0x839 JUMP JUMPDEST JUMPDEST POP SWAP1 POP PUSH3 0x866 SWAP2 SWAP1 PUSH3 0x8DE JUMP JUMPDEST POP SWAP1 JUMP JUMPDEST PUSH1 0x40 DUP1 MLOAD SWAP1 DUP2 ADD PUSH1 0x40 MSTORE DUP1 PUSH1 0x2 SWAP1 PUSH1 0x20 DUP3 MUL DUP1 CODESIZE DUP4 CODECOPY DUP1 DUP3 ADD SWAP2 POP POP SWAP1 POP POP SWAP1 JUMP JUMPDEST DUP3 DUP1 SLOAD DUP3 DUP3 SSTORE SWAP1 PUSH1 0x0 MSTORE PUSH1 0x20 PUSH1 0x0 KECCAK256 SWAP1 DUP2 ADD SWAP3 DUP3 ISZERO PUSH3 0x8CB JUMPI SWAP2 PUSH1 0x20 MUL DUP3 ADD JUMPDEST DUP3 DUP2 GT ISZERO PUSH3 0x8CA JUMPI DUP3 MLOAD DUP3 SSTORE SWAP2 PUSH1 0x20 ADD SWAP2 SWAP1 PUSH1 0x1 ADD SWAP1 PUSH3 0x8AD JUMP JUMPDEST JUMPDEST POP SWAP1 POP PUSH3 0x8DA SWAP2 SWAP1 PUSH3 0x8DE JUMP JUMPDEST POP SWAP1 JUMP JUMPDEST PUSH3 0x903 SWAP2 SWAP1 JUMPDEST DUP1 DUP3 GT ISZERO PUSH3 0x8FF JUMPI PUSH1 0x0 DUP2 PUSH1 0x0 SWAP1 SSTORE POP PUSH1 0x1 ADD PUSH3 0x8E5 JUMP JUMPDEST POP SWAP1 JUMP JUMPDEST SWAP1 JUMP JUMPDEST PUSH2 0x2C76 DUP1 PUSH3 0x916 PUSH1 0x0 CODECOPY PUSH1 0x0 RETURN STOP PUSH1 0x80 PUSH1 0x40 MSTORE PUSH1 0x4 CALLDATASIZE LT PUSH2 0x1B7 JUMPI PUSH1 0x0 CALLDATALOAD PUSH29 0x100000000000000000000000000000000000000000000000000000000 SWAP1 DIV PUSH4 0xFFFFFFFF AND DUP1 PUSH4 0x12421F9 EQ PUSH2 0x1BC JUMPI DUP1 PUSH4 0x819336A EQ PUSH2 0x254 JUMPI DUP1 PUSH4 0xC753FE8 EQ PUSH2 0x2BD JUMPI DUP1 PUSH4 0x16491F3E EQ PUSH2 0x37A JUMPI DUP1 PUSH4 0x1BEA22E6 EQ PUSH2 0x3E3 JUMPI DUP1 PUSH4 0x1CE9D895 EQ PUSH2 0x450 JUMPI DUP1 PUSH4 0x20CEBC5C EQ PUSH2 0x4E9 JUMPI DUP1 PUSH4 0x37A8B202 EQ PUSH2 0x5E7 JUMPI DUP1 PUSH4 0x3B4C2EDE EQ PUSH2 0x679 JUMPI DUP1 PUSH4 0x5DA7F69E EQ PUSH2 0x73E JUMPI DUP1 PUSH4 0x5F033797 EQ PUSH2 0x7A7 JUMPI DUP1 PUSH4 0x6032FC3F EQ PUSH2 0x835 JUMPI DUP1 PUSH4 0x639649C4 EQ PUSH2 0x8C3 JUMPI DUP1 PUSH4 0x66230BD9 EQ PUSH2 0x92C JUMPI DUP1 PUSH4 0x71B1C161 EQ PUSH2 0x978 JUMPI DUP1 PUSH4 0x758BAD98 EQ PUSH2 0x9DE JUMPI DUP1 PUSH4 0x80BCA979 EQ PUSH2 0xA44 JUMPI DUP1 PUSH4 0x841675C9 EQ PUSH2 0xB01 JUMPI DUP1 PUSH4 0x8AC1C8D4 EQ PUSH2 0xC9B JUMPI DUP1 PUSH4 0x8B05A64A EQ PUSH2 0xD65 JUMPI DUP1 PUSH4 0x8DA5CB5B EQ PUSH2 0xD92 JUMPI DUP1 PUSH4 0x9C050A4A EQ PUSH2 0xDE9 JUMPI DUP1 PUSH4 0xA77A970D EQ PUSH2 0xEB0 JUMPI DUP1 PUSH4 0xAD4310F5 EQ PUSH2 0xEDB JUMPI DUP1 PUSH4 0xAE5D39F6 EQ PUSH2 0x1003 JUMPI DUP1 PUSH4 0xB0F5C83A EQ PUSH2 0x1056 JUMPI DUP1 PUSH4 0xB866CF29 EQ PUSH2 0x10EE JUMPI DUP1 PUSH4 0xBA7D3977 EQ PUSH2 0x1141 JUMPI DUP1 PUSH4 0xBAB5064C EQ PUSH2 0x123A JUMPI DUP1 PUSH4 0xBE26733C EQ PUSH2 0x1265 JUMPI DUP1 PUSH4 0xC025D89B EQ PUSH2 0x127C JUMPI DUP1 PUSH4 0xC1EEB1FE EQ PUSH2 0x1314 JUMPI DUP1 PUSH4 0xCF60976A EQ PUSH2 0x1367 JUMPI DUP1 PUSH4 0xD1FF535B EQ PUSH2 0x1465 JUMPI DUP1 PUSH4 0xE76F8E66 EQ PUSH2 0x1490 JUMPI JUMPDEST PUSH1 0x0 DUP1 REVERT JUMPDEST CALLVALUE DUP1 ISZERO PUSH2 0x1C8 JUMPI PUSH1 0x0 DUP1 REVERT JUMPDEST POP PUSH2 0x216 PUSH1 0x4 DUP1 CALLDATASIZE SUB DUP2 ADD SWAP1 DUP1 DUP1 PUSH1 0x40 ADD SWAP1 PUSH1 0x2 DUP1 PUSH1 0x20 MUL PUSH1 0x40 MLOAD SWAP1 DUP2 ADD PUSH1 0x40 MSTORE DUP1 SWAP3 SWAP2 SWAP1 DUP3 PUSH1 0x2 PUSH1 0x20 MUL DUP1 DUP3 DUP5 CALLDATACOPY DUP3 ADD SWAP2 POP POP POP POP POP SWAP2 SWAP3 SWAP2 SWAP3 SWAP1 DUP1 CALLDATALOAD SWAP1 PUSH1 0x20 ADD SWAP1 SWAP3 SWAP2 SWAP1 POP POP POP PUSH2 0x1503 JUMP JUMPDEST PUSH1 0x40 MLOAD DUP1 DUP3 PUSH1 0x2 PUSH1 0x20 MUL DUP1 DUP4 DUP4 PUSH1 0x0 JUMPDEST DUP4 DUP2 LT ISZERO PUSH2 0x241 JUMPI DUP1 DUP3 ADD MLOAD DUP2 DUP5 ADD MSTORE PUSH1 0x20 DUP2 ADD SWAP1 POP PUSH2 0x226 JUMP JUMPDEST POP POP POP POP SWAP1 POP ADD SWAP2 POP POP PUSH1 0x40 MLOAD DUP1 SWAP2 SUB SWAP1 RETURN JUMPDEST CALLVALUE DUP1 ISZERO PUSH2 0x260 JUMPI PUSH1 0x0 DUP1 REVERT JUMPDEST POP PUSH2 0x27F PUSH1 0x4 DUP1 CALLDATASIZE SUB DUP2 ADD SWAP1 DUP1 DUP1 CALLDATALOAD SWAP1 PUSH1 0x20 ADD SWAP1 SWAP3 SWAP2 SWAP1 POP POP POP PUSH2 0x155B JUMP JUMPDEST PUSH1 0x40 MLOAD DUP1 DUP3 PUSH1 0x2 PUSH1 0x20 MUL DUP1 DUP4 DUP4 PUSH1 0x0 JUMPDEST DUP4 DUP2 LT ISZERO PUSH2 0x2AA JUMPI DUP1 DUP3 ADD MLOAD DUP2 DUP5 ADD MSTORE PUSH1 0x20 DUP2 ADD SWAP1 POP PUSH2 0x28F JUMP JUMPDEST POP POP POP POP SWAP1 POP ADD SWAP2 POP POP PUSH1 0x40 MLOAD DUP1 SWAP2 SUB SWAP1 RETURN JUMPDEST CALLVALUE DUP1 ISZERO PUSH2 0x2C9 JUMPI PUSH1 0x0 DUP1 REVERT JUMPDEST POP PUSH2 0x33C PUSH1 0x4 DUP1 CALLDATASIZE SUB DUP2 ADD SWAP1 DUP1 DUP1 PUSH1 0x40 ADD SWAP1 PUSH1 0x2 DUP1 PUSH1 0x20 MUL PUSH1 0x40 MLOAD SWAP1 DUP2 ADD PUSH1 0x40 MSTORE DUP1 SWAP3 SWAP2 SWAP1 DUP3 PUSH1 0x2 PUSH1 0x20 MUL DUP1 DUP3 DUP5 CALLDATACOPY DUP3 ADD SWAP2 POP POP POP POP POP SWAP2 SWAP3 SWAP2 SWAP3 SWAP1 DUP1 PUSH1 0x40 ADD SWAP1 PUSH1 0x2 DUP1 PUSH1 0x20 MUL PUSH1 0x40 MLOAD SWAP1 DUP2 ADD PUSH1 0x40 MSTORE DUP1 SWAP3 SWAP2 SWAP1 DUP3 PUSH1 0x2 PUSH1 0x20 MUL DUP1 DUP3 DUP5 CALLDATACOPY DUP3 ADD SWAP2 POP POP POP POP POP SWAP2 SWAP3 SWAP2 SWAP3 SWAP1 POP POP POP PUSH2 0x15B1 JUMP JUMPDEST PUSH1 0x40 MLOAD DUP1 DUP3 PUSH1 0x2 PUSH1 0x20 MUL DUP1 DUP4 DUP4 PUSH1 0x0 JUMPDEST DUP4 DUP2 LT ISZERO PUSH2 0x367 JUMPI DUP1 DUP3 ADD MLOAD DUP2 DUP5 ADD MSTORE PUSH1 0x20 DUP2 ADD SWAP1 POP PUSH2 0x34C JUMP JUMPDEST POP POP POP POP SWAP1 POP ADD SWAP2 POP POP PUSH1 0x40 MLOAD DUP1 SWAP2 SUB SWAP1 RETURN JUMPDEST CALLVALUE DUP1 ISZERO PUSH2 0x386 JUMPI PUSH1 0x0 DUP1 REVERT JUMPDEST POP PUSH2 0x3A5 PUSH1 0x4 DUP1 CALLDATASIZE SUB DUP2 ADD SWAP1 DUP1 DUP1 CALLDATALOAD SWAP1 PUSH1 0x20 ADD SWAP1 SWAP3 SWAP2 SWAP1 POP POP POP PUSH2 0x1615 JUMP JUMPDEST PUSH1 0x40 MLOAD DUP1 DUP3 PUSH1 0x2 PUSH1 0x20 MUL DUP1 DUP4 DUP4 PUSH1 0x0 JUMPDEST DUP4 DUP2 LT ISZERO PUSH2 0x3D0 JUMPI DUP1 DUP3 ADD MLOAD DUP2 DUP5 ADD MSTORE PUSH1 0x20 DUP2 ADD SWAP1 POP PUSH2 0x3B5 JUMP JUMPDEST POP POP POP POP SWAP1 POP ADD SWAP2 POP POP PUSH1 0x40 MLOAD DUP1 SWAP2 SUB SWAP1 RETURN JUMPDEST CALLVALUE DUP1 ISZERO PUSH2 0x3EF JUMPI PUSH1 0x0 DUP1 REVERT JUMPDEST POP PUSH2 0x40E PUSH1 0x4 DUP1 CALLDATASIZE SUB DUP2 ADD SWAP1 DUP1 DUP1 CALLDATALOAD SWAP1 PUSH1 0x20 ADD SWAP1 SWAP3 SWAP2 SWAP1 POP POP POP PUSH2 0x166B JUMP JUMPDEST PUSH1 0x40 MLOAD DUP1 DUP3 PUSH20 0xFFFFFFFFFFFFFFFFFFFFFFFFFFFFFFFFFFFFFFFF AND PUSH20 0xFFFFFFFFFFFFFFFFFFFFFFFFFFFFFFFFFFFFFFFF AND DUP2 MSTORE PUSH1 0x20 ADD SWAP2 POP POP PUSH1 0x40 MLOAD DUP1 SWAP2 SUB SWAP1 RETURN JUMPDEST CALLVALUE DUP1 ISZERO PUSH2 0x45C JUMPI PUSH1 0x0 DUP1 REVERT JUMPDEST POP PUSH2 0x4CF PUSH1 0x4 DUP1 CALLDATASIZE SUB DUP2 ADD SWAP1 DUP1 DUP1 PUSH1 0x40 ADD SWAP1 PUSH1 0x2 DUP1 PUSH1 0x20 MUL PUSH1 0x40 MLOAD SWAP1 DUP2 ADD PUSH1 0x40 MSTORE DUP1 SWAP3 SWAP2 SWAP1 DUP3 PUSH1 0x2 PUSH1 0x20 MUL DUP1 DUP3 DUP5 CALLDATACOPY DUP3 ADD SWAP2 POP POP POP POP POP SWAP2 SWAP3 SWAP2 SWAP3 SWAP1 DUP1 PUSH1 0x40 ADD SWAP1 PUSH1 0x2 DUP1 PUSH1 0x20 MUL PUSH1 0x40 MLOAD SWAP1 DUP2 ADD PUSH1 0x40 MSTORE DUP1 SWAP3 SWAP2 SWAP1 DUP3 PUSH1 0x2 PUSH1 0x20 MUL DUP1 DUP3 DUP5 CALLDATACOPY DUP3 ADD SWAP2 POP POP POP POP POP SWAP2 SWAP3 SWAP2 SWAP3 SWAP1 POP POP POP PUSH2 0x1685 JUMP JUMPDEST PUSH1 0x40 MLOAD DUP1 DUP3 ISZERO ISZERO ISZERO ISZERO DUP2 MSTORE PUSH1 0x20 ADD SWAP2 POP POP PUSH1 0x40 MLOAD DUP1 SWAP2 SUB SWAP1 RETURN JUMPDEST CALLVALUE DUP1 ISZERO PUSH2 0x4F5 JUMPI PUSH1 0x0 DUP1 REVERT JUMPDEST POP PUSH2 0x590 PUSH1 0x4 DUP1 CALLDATASIZE SUB DUP2 ADD SWAP1 DUP1 DUP1 CALLDATALOAD SWAP1 PUSH1 0x20 ADD SWAP1 DUP3 ADD DUP1 CALLDATALOAD SWAP1 PUSH1 0x20 ADD SWAP1 DUP1 DUP1 PUSH1 0x20 MUL PUSH1 0x20 ADD PUSH1 0x40 MLOAD SWAP1 DUP2 ADD PUSH1 0x40 MSTORE DUP1 SWAP4 SWAP3 SWAP2 SWAP1 DUP2 DUP2 MSTORE PUSH1 0x20 ADD DUP4 DUP4 PUSH1 0x20 MUL DUP1 DUP3 DUP5 CALLDATACOPY DUP3 ADD SWAP2 POP POP POP POP POP POP SWAP2 SWAP3 SWAP2 SWAP3 SWAP1 DUP1 CALLDATALOAD SWAP1 PUSH1 0x20 ADD SWAP1 DUP3 ADD DUP1 CALLDATALOAD SWAP1 PUSH1 0x20 ADD SWAP1 DUP1 DUP1 PUSH1 0x20 MUL PUSH1 0x20 ADD PUSH1 0x40 MLOAD SWAP1 DUP2 ADD PUSH1 0x40 MSTORE DUP1 SWAP4 SWAP3 SWAP2 SWAP1 DUP2 DUP2 MSTORE PUSH1 0x20 ADD DUP4 DUP4 PUSH1 0x20 MUL DUP1 DUP3 DUP5 CALLDATACOPY DUP3 ADD SWAP2 POP POP POP POP POP POP SWAP2 SWAP3 SWAP2 SWAP3 SWAP1 POP POP POP PUSH2 0x16E9 JUMP JUMPDEST PUSH1 0x40 MLOAD DUP1 DUP1 PUSH1 0x20 ADD DUP3 DUP2 SUB DUP3 MSTORE DUP4 DUP2 DUP2 MLOAD DUP2 MSTORE PUSH1 0x20 ADD SWAP2 POP DUP1 MLOAD SWAP1 PUSH1 0x20 ADD SWAP1 PUSH1 0x20 MUL DUP1 DUP4 DUP4 PUSH1 0x0 JUMPDEST DUP4 DUP2 LT ISZERO PUSH2 0x5D3 JUMPI DUP1 DUP3 ADD MLOAD DUP2 DUP5 ADD MSTORE PUSH1 0x20 DUP2 ADD SWAP1 POP PUSH2 0x5B8 JUMP JUMPDEST POP POP POP POP SWAP1 POP ADD SWAP3 POP POP POP PUSH1 0x40 MLOAD DUP1 SWAP2 SUB SWAP1 RETURN JUMPDEST CALLVALUE DUP1 ISZERO PUSH2 0x5F3 JUMPI PUSH1 0x0 DUP1 REVERT JUMPDEST POP PUSH2 0x637 PUSH1 0x4 DUP1 CALLDATASIZE SUB DUP2 ADD SWAP1 DUP1 DUP1 PUSH1 0x40 ADD SWAP1 PUSH1 0x2 DUP1 PUSH1 0x20 MUL PUSH1 0x40 MLOAD SWAP1 DUP2 ADD PUSH1 0x40 MSTORE DUP1 SWAP3 SWAP2 SWAP1 DUP3 PUSH1 0x2 PUSH1 0x20 MUL DUP1 DUP3 DUP5 CALLDATACOPY DUP3 ADD SWAP2 POP POP POP POP POP SWAP2 SWAP3 SWAP2 SWAP3 SWAP1 POP POP POP PUSH2 0x187E JUMP JUMPDEST PUSH1 0x40 MLOAD DUP1 DUP3 PUSH20 0xFFFFFFFFFFFFFFFFFFFFFFFFFFFFFFFFFFFFFFFF AND PUSH20 0xFFFFFFFFFFFFFFFFFFFFFFFFFFFFFFFFFFFFFFFF AND DUP2 MSTORE PUSH1 0x20 ADD SWAP2 POP POP PUSH1 0x40 MLOAD DUP1 SWAP2 SUB SWAP1 RETURN JUMPDEST CALLVALUE DUP1 ISZERO PUSH2 0x685 JUMPI PUSH1 0x0 DUP1 REVERT JUMPDEST POP PUSH2 0x6E7 PUSH1 0x4 DUP1 CALLDATASIZE SUB DUP2 ADD SWAP1 DUP1 DUP1 CALLDATALOAD SWAP1 PUSH1 0x20 ADD SWAP1 DUP3 ADD DUP1 CALLDATALOAD SWAP1 PUSH1 0x20 ADD SWAP1 DUP1 DUP1 PUSH1 0x20 MUL PUSH1 0x20 ADD PUSH1 0x40 MLOAD SWAP1 DUP2 ADD PUSH1 0x40 MSTORE DUP1 SWAP4 SWAP3 SWAP2 SWAP1 DUP2 DUP2 MSTORE PUSH1 0x20 ADD DUP4 DUP4 PUSH1 0x20 MUL DUP1 DUP3 DUP5 CALLDATACOPY DUP3 ADD SWAP2 POP POP POP POP POP POP SWAP2 SWAP3 SWAP2 SWAP3 SWAP1 DUP1 CALLDATALOAD SWAP1 PUSH1 0x20 ADD SWAP1 SWAP3 SWAP2 SWAP1 POP POP POP PUSH2 0x18CF JUMP JUMPDEST PUSH1 0x40 MLOAD DUP1 DUP1 PUSH1 0x20 ADD DUP3 DUP2 SUB DUP3 MSTORE DUP4 DUP2 DUP2 MLOAD DUP2 MSTORE PUSH1 0x20 ADD SWAP2 POP DUP1 MLOAD SWAP1 PUSH1 0x20 ADD SWAP1 PUSH1 0x20 MUL DUP1 DUP4 DUP4 PUSH1 0x0 JUMPDEST DUP4 DUP2 LT ISZERO PUSH2 0x72A JUMPI DUP1 DUP3 ADD MLOAD DUP2 DUP5 ADD MSTORE PUSH1 0x20 DUP2 ADD SWAP1 POP PUSH2 0x70F JUMP JUMPDEST POP POP POP POP SWAP1 POP ADD SWAP3 POP POP POP PUSH1 0x40 MLOAD DUP1 SWAP2 SUB SWAP1 RETURN JUMPDEST CALLVALUE DUP1 ISZERO PUSH2 0x74A JUMPI PUSH1 0x0 DUP1 REVERT JUMPDEST POP PUSH2 0x769 PUSH1 0x4 DUP1 CALLDATASIZE SUB DUP2 ADD SWAP1 DUP1 DUP1 CALLDATALOAD SWAP1 PUSH1 0x20 ADD SWAP1 SWAP3 SWAP2 SWAP1 POP POP POP PUSH2 0x1A0F JUMP JUMPDEST PUSH1 0x40 MLOAD DUP1 DUP3 PUSH1 0x2 PUSH1 0x20 MUL DUP1 DUP4 DUP4 PUSH1 0x0 JUMPDEST DUP4 DUP2 LT ISZERO PUSH2 0x794 JUMPI DUP1 DUP3 ADD MLOAD DUP2 DUP5 ADD MSTORE PUSH1 0x20 DUP2 ADD SWAP1 POP PUSH2 0x779 JUMP JUMPDEST POP POP POP POP SWAP1 POP ADD SWAP2 POP POP PUSH1 0x40 MLOAD DUP1 SWAP2 SUB SWAP1 RETURN JUMPDEST CALLVALUE DUP1 ISZERO PUSH2 0x7B3 JUMPI PUSH1 0x0 DUP1 REVERT JUMPDEST POP PUSH2 0x7F7 PUSH1 0x4 DUP1 CALLDATASIZE SUB DUP2 ADD SWAP1 DUP1 DUP1 PUSH1 0x40 ADD SWAP1 PUSH1 0x2 DUP1 PUSH1 0x20 MUL PUSH1 0x40 MLOAD SWAP1 DUP2 ADD PUSH1 0x40 MSTORE DUP1 SWAP3 SWAP2 SWAP1 DUP3 PUSH1 0x2 PUSH1 0x20 MUL DUP1 DUP3 DUP5 CALLDATACOPY DUP3 ADD SWAP2 POP POP POP POP POP SWAP2 SWAP3 SWAP2 SWAP3 SWAP1 POP POP POP PUSH2 0x1BA3 JUMP JUMPDEST PUSH1 0x40 MLOAD DUP1 DUP3 PUSH1 0x2 PUSH1 0x20 MUL DUP1 DUP4 DUP4 PUSH1 0x0 JUMPDEST DUP4 DUP2 LT ISZERO PUSH2 0x822 JUMPI DUP1 DUP3 ADD MLOAD DUP2 DUP5 ADD MSTORE PUSH1 0x20 DUP2 ADD SWAP1 POP PUSH2 0x807 JUMP JUMPDEST POP POP POP POP SWAP1 POP ADD SWAP2 POP POP PUSH1 0x40 MLOAD DUP1 SWAP2 SUB SWAP1 RETURN JUMPDEST CALLVALUE DUP1 ISZERO PUSH2 0x841 JUMPI PUSH1 0x0 DUP1 REVERT JUMPDEST POP PUSH2 0x885 PUSH1 0x4 DUP1 CALLDATASIZE SUB DUP2 ADD SWAP1 DUP1 DUP1 PUSH1 0x40 ADD SWAP1 PUSH1 0x2 DUP1 PUSH1 0x20 MUL PUSH1 0x40 MLOAD SWAP1 DUP2 ADD PUSH1 0x40 MSTORE DUP1 SWAP3 SWAP2 SWAP1 DUP3 PUSH1 0x2 PUSH1 0x20 MUL DUP1 DUP3 DUP5 CALLDATACOPY DUP3 ADD SWAP2 POP POP POP POP POP SWAP2 SWAP3 SWAP2 SWAP3 SWAP1 POP POP POP PUSH2 0x1C55 JUMP JUMPDEST PUSH1 0x40 MLOAD DUP1 DUP3 PUSH1 0x2 PUSH1 0x20 MUL DUP1 DUP4 DUP4 PUSH1 0x0 JUMPDEST DUP4 DUP2 LT ISZERO PUSH2 0x8B0 JUMPI DUP1 DUP3 ADD MLOAD DUP2 DUP5 ADD MSTORE PUSH1 0x20 DUP2 ADD SWAP1 POP PUSH2 0x895 JUMP JUMPDEST POP POP POP POP SWAP1 POP ADD SWAP2 POP POP PUSH1 0x40 MLOAD DUP1 SWAP2 SUB SWAP1 RETURN JUMPDEST CALLVALUE DUP1 ISZERO PUSH2 0x8CF JUMPI PUSH1 0x0 DUP1 REVERT JUMPDEST POP PUSH2 0x8EE PUSH1 0x4 DUP1 CALLDATASIZE SUB DUP2 ADD SWAP1 DUP1 DUP1 CALLDATALOAD SWAP1 PUSH1 0x20 ADD SWAP1 SWAP3 SWAP2 SWAP1 POP POP POP PUSH2 0x1D5B JUMP JUMPDEST PUSH1 0x40 MLOAD DUP1 DUP3 PUSH1 0x2 PUSH1 0x20 MUL DUP1 DUP4 DUP4 PUSH1 0x0 JUMPDEST DUP4 DUP2 LT ISZERO PUSH2 0x919 JUMPI DUP1 DUP3 ADD MLOAD DUP2 DUP5 ADD MSTORE PUSH1 0x20 DUP2 ADD SWAP1 POP PUSH2 0x8FE JUMP JUMPDEST POP POP POP POP SWAP1 POP ADD SWAP2 POP POP PUSH1 0x40 MLOAD DUP1 SWAP2 SUB SWAP1 RETURN JUMPDEST CALLVALUE DUP1 ISZERO PUSH2 0x938 JUMPI PUSH1 0x0 DUP1 REVERT JUMPDEST POP PUSH2 0x957 PUSH1 0x4 DUP1 CALLDATASIZE SUB DUP2 ADD SWAP1 DUP1 DUP1 CALLDATALOAD SWAP1 PUSH1 0x20 ADD SWAP1 SWAP3 SWAP2 SWAP1 POP POP POP PUSH2 0x1DB1 JUMP JUMPDEST PUSH1 0x40 MLOAD DUP1 DUP4 DUP2 MSTORE PUSH1 0x20 ADD DUP3 ISZERO ISZERO ISZERO ISZERO DUP2 MSTORE PUSH1 0x20 ADD SWAP3 POP POP POP PUSH1 0x40 MLOAD DUP1 SWAP2 SUB SWAP1 RETURN JUMPDEST CALLVALUE DUP1 ISZERO PUSH2 0x984 JUMPI PUSH1 0x0 DUP1 REVERT JUMPDEST POP PUSH2 0x9C8 PUSH1 0x4 DUP1 CALLDATASIZE SUB DUP2 ADD SWAP1 DUP1 DUP1 PUSH1 0x40 ADD SWAP1 PUSH1 0x2 DUP1 PUSH1 0x20 MUL PUSH1 0x40 MLOAD SWAP1 DUP2 ADD PUSH1 0x40 MSTORE DUP1 SWAP3 SWAP2 SWAP1 DUP3 PUSH1 0x2 PUSH1 0x20 MUL DUP1 DUP3 DUP5 CALLDATACOPY DUP3 ADD SWAP2 POP POP POP POP POP SWAP2 SWAP3 SWAP2 SWAP3 SWAP1 POP POP POP PUSH2 0x1F16 JUMP JUMPDEST PUSH1 0x40 MLOAD DUP1 DUP3 DUP2 MSTORE PUSH1 0x20 ADD SWAP2 POP POP PUSH1 0x40 MLOAD DUP1 SWAP2 SUB SWAP1 RETURN JUMPDEST CALLVALUE DUP1 ISZERO PUSH2 0x9EA JUMPI PUSH1 0x0 DUP1 REVERT JUMPDEST POP PUSH2 0xA2E PUSH1 0x4 DUP1 CALLDATASIZE SUB DUP2 ADD SWAP1 DUP1 DUP1 PUSH1 0x40 ADD SWAP1 PUSH1 0x2 DUP1 PUSH1 0x20 MUL PUSH1 0x40 MLOAD SWAP1 DUP2 ADD PUSH1 0x40 MSTORE DUP1 SWAP3 SWAP2 SWAP1 DUP3 PUSH1 0x2 PUSH1 0x20 MUL DUP1 DUP3 DUP5 CALLDATACOPY DUP3 ADD SWAP2 POP POP POP POP POP SWAP2 SWAP3 SWAP2 SWAP3 SWAP1 POP POP POP PUSH2 0x1F77 JUMP JUMPDEST PUSH1 0x40 MLOAD DUP1 DUP3 DUP2 MSTORE PUSH1 0x20 ADD SWAP2 POP POP PUSH1 0x40 MLOAD DUP1 SWAP2 SUB SWAP1 RETURN JUMPDEST CALLVALUE DUP1 ISZERO PUSH2 0xA50 JUMPI PUSH1 0x0 DUP1 REVERT JUMPDEST POP PUSH2 0xAC3 PUSH1 0x4 DUP1 CALLDATASIZE SUB DUP2 ADD SWAP1 DUP1 DUP1 PUSH1 0x40 ADD SWAP1 PUSH1 0x2 DUP1 PUSH1 0x20 MUL PUSH1 0x40 MLOAD SWAP1 DUP2 ADD PUSH1 0x40 MSTORE DUP1 SWAP3 SWAP2 SWAP1 DUP3 PUSH1 0x2 PUSH1 0x20 MUL DUP1 DUP3 DUP5 CALLDATACOPY DUP3 ADD SWAP2 POP POP POP POP POP SWAP2 SWAP3 SWAP2 SWAP3 SWAP1 DUP1 PUSH1 0x40 ADD SWAP1 PUSH1 0x2 DUP1 PUSH1 0x20 MUL PUSH1 0x40 MLOAD SWAP1 DUP2 ADD PUSH1 0x40 MSTORE DUP1 SWAP3 SWAP2 SWAP1 DUP3 PUSH1 0x2 PUSH1 0x20 MUL DUP1 DUP3 DUP5 CALLDATACOPY DUP3 ADD SWAP2 POP POP POP POP POP SWAP2 SWAP3 SWAP2 SWAP3 SWAP1 POP POP POP PUSH2 0x1FC8 JUMP JUMPDEST PUSH1 0x40 MLOAD DUP1 DUP3 PUSH1 0x2 PUSH1 0x20 MUL DUP1 DUP4 DUP4 PUSH1 0x0 JUMPDEST DUP4 DUP2 LT ISZERO PUSH2 0xAEE JUMPI DUP1 DUP3 ADD MLOAD DUP2 DUP5 ADD MSTORE PUSH1 0x20 DUP2 ADD SWAP1 POP PUSH2 0xAD3 JUMP JUMPDEST POP POP POP POP SWAP1 POP ADD SWAP2 POP POP PUSH1 0x40 MLOAD DUP1 SWAP2 SUB SWAP1 RETURN JUMPDEST CALLVALUE DUP1 ISZERO PUSH2 0xB0D JUMPI PUSH1 0x0 DUP1 REVERT JUMPDEST POP PUSH2 0xC2E PUSH1 0x4 DUP1 CALLDATASIZE SUB DUP2 ADD SWAP1 DUP1 DUP1 CALLDATALOAD SWAP1 PUSH1 0x20 ADD SWAP1 DUP3 ADD DUP1 CALLDATALOAD SWAP1 PUSH1 0x20 ADD SWAP1 DUP1 DUP1 PUSH1 0x20 MUL PUSH1 0x20 ADD PUSH1 0x40 MLOAD SWAP1 DUP2 ADD PUSH1 0x40 MSTORE DUP1 SWAP4 SWAP3 SWAP2 SWAP1 DUP2 DUP2 MSTORE PUSH1 0x20 ADD DUP4 DUP4 PUSH1 0x20 MUL DUP1 DUP3 DUP5 CALLDATACOPY DUP3 ADD SWAP2 POP POP POP POP POP POP SWAP2 SWAP3 SWAP2 SWAP3 SWAP1 DUP1 CALLDATALOAD SWAP1 PUSH1 0x20 ADD SWAP1 DUP3 ADD DUP1 CALLDATALOAD SWAP1 PUSH1 0x20 ADD SWAP1 DUP1 DUP1 PUSH1 0x20 MUL PUSH1 0x20 ADD PUSH1 0x40 MLOAD SWAP1 DUP2 ADD PUSH1 0x40 MSTORE DUP1 SWAP4 SWAP3 SWAP2 SWAP1 DUP2 DUP2 MSTORE PUSH1 0x20 ADD DUP4 DUP4 PUSH1 0x20 MUL DUP1 DUP3 DUP5 CALLDATACOPY DUP3 ADD SWAP2 POP POP POP POP POP POP SWAP2 SWAP3 SWAP2 SWAP3 SWAP1 DUP1 CALLDATALOAD SWAP1 PUSH1 0x20 ADD SWAP1 DUP3 ADD DUP1 CALLDATALOAD SWAP1 PUSH1 0x20 ADD SWAP1 DUP1 DUP1 PUSH1 0x20 MUL PUSH1 0x20 ADD PUSH1 0x40 MLOAD SWAP1 DUP2 ADD PUSH1 0x40 MSTORE DUP1 SWAP4 SWAP3 SWAP2 SWAP1 DUP2 DUP2 MSTORE PUSH1 0x20 ADD DUP4 DUP4 PUSH1 0x20 MUL DUP1 DUP3 DUP5 CALLDATACOPY DUP3 ADD SWAP2 POP POP POP POP POP POP SWAP2 SWAP3 SWAP2 SWAP3 SWAP1 DUP1 CALLDATALOAD SWAP1 PUSH1 0x20 ADD SWAP1 DUP3 ADD DUP1 CALLDATALOAD SWAP1 PUSH1 0x20 ADD SWAP1 DUP1 DUP1 PUSH1 0x20 MUL PUSH1 0x20 ADD PUSH1 0x40 MLOAD SWAP1 DUP2 ADD PUSH1 0x40 MSTORE DUP1 SWAP4 SWAP3 SWAP2 SWAP1 DUP2 DUP2 MSTORE PUSH1 0x20 ADD DUP4 DUP4 PUSH1 0x20 MUL DUP1 DUP3 DUP5 CALLDATACOPY DUP3 ADD SWAP2 POP POP POP POP POP POP SWAP2 SWAP3 SWAP2 SWAP3 SWAP1 POP POP POP PUSH2 0x1FEA JUMP JUMPDEST PUSH1 0x40 MLOAD DUP1 DUP4 PUSH1 0x2 PUSH1 0x20 MUL DUP1 DUP4 DUP4 PUSH1 0x0 JUMPDEST DUP4 DUP2 LT ISZERO PUSH2 0xC59 JUMPI DUP1 DUP3 ADD MLOAD DUP2 DUP5 ADD MSTORE PUSH1 0x20 DUP2 ADD SWAP1 POP PUSH2 0xC3E JUMP JUMPDEST POP POP POP POP SWAP1 POP ADD DUP3 PUSH1 0x2 PUSH1 0x20 MUL DUP1 DUP4 DUP4 PUSH1 0x0 JUMPDEST DUP4 DUP2 LT ISZERO PUSH2 0xC87 JUMPI DUP1 DUP3 ADD MLOAD DUP2 DUP5 ADD MSTORE PUSH1 0x20 DUP2 ADD SWAP1 POP PUSH2 0xC6C JUMP JUMPDEST POP POP POP POP SWAP1 POP ADD SWAP3 POP POP POP PUSH1 0x40 MLOAD DUP1 SWAP2 SUB SWAP1 RETURN JUMPDEST CALLVALUE DUP1 ISZERO PUSH2 0xCA7 JUMPI PUSH1 0x0 DUP1 REVERT JUMPDEST POP PUSH2 0xCC6 PUSH1 0x4 DUP1 CALLDATASIZE SUB DUP2 ADD SWAP1 DUP1 DUP1 CALLDATALOAD SWAP1 PUSH1 0x20 ADD SWAP1 SWAP3 SWAP2 SWAP1 POP POP POP PUSH2 0x2021 JUMP JUMPDEST PUSH1 0x40 MLOAD DUP1 DUP1 PUSH1 0x20 ADD DUP1 PUSH1 0x20 ADD DUP4 DUP2 SUB DUP4 MSTORE DUP6 DUP2 DUP2 MLOAD DUP2 MSTORE PUSH1 0x20 ADD SWAP2 POP DUP1 MLOAD SWAP1 PUSH1 0x20 ADD SWAP1 PUSH1 0x20 MUL DUP1 DUP4 DUP4 PUSH1 0x0 JUMPDEST DUP4 DUP2 LT ISZERO PUSH2 0xD0D JUMPI DUP1 DUP3 ADD MLOAD DUP2 DUP5 ADD MSTORE PUSH1 0x20 DUP2 ADD SWAP1 POP PUSH2 0xCF2 JUMP JUMPDEST POP POP POP POP SWAP1 POP ADD DUP4 DUP2 SUB DUP3 MSTORE DUP5 DUP2 DUP2 MLOAD DUP2 MSTORE PUSH1 0x20 ADD SWAP2 POP DUP1 MLOAD SWAP1 PUSH1 0x20 ADD SWAP1 PUSH1 0x20 MUL DUP1 DUP4 DUP4 PUSH1 0x0 JUMPDEST DUP4 DUP2 LT ISZERO PUSH2 0xD4F JUMPI DUP1 DUP3 ADD MLOAD DUP2 DUP5 ADD MSTORE PUSH1 0x20 DUP2 ADD SWAP1 POP PUSH2 0xD34 JUMP JUMPDEST POP POP POP POP SWAP1 POP ADD SWAP5 POP POP POP POP POP PUSH1 0x40 MLOAD DUP1 SWAP2 SUB SWAP1 RETURN JUMPDEST CALLVALUE DUP1 ISZERO PUSH2 0xD71 JUMPI PUSH1 0x0 DUP1 REVERT JUMPDEST POP PUSH2 0xD90 PUSH1 0x4 DUP1 CALLDATASIZE SUB DUP2 ADD SWAP1 DUP1 DUP1 CALLDATALOAD SWAP1 PUSH1 0x20 ADD SWAP1 SWAP3 SWAP2 SWAP1 POP POP POP PUSH2 0x2208 JUMP JUMPDEST STOP JUMPDEST CALLVALUE DUP1 ISZERO PUSH2 0xD9E JUMPI PUSH1 0x0 DUP1 REVERT JUMPDEST POP PUSH2 0xDA7 PUSH2 0x25A1 JUMP JUMPDEST PUSH1 0x40 MLOAD DUP1 DUP3 PUSH20 0xFFFFFFFFFFFFFFFFFFFFFFFFFFFFFFFFFFFFFFFF AND PUSH20 0xFFFFFFFFFFFFFFFFFFFFFFFFFFFFFFFFFFFFFFFF AND DUP2 MSTORE PUSH1 0x20 ADD SWAP2 POP POP PUSH1 0x40 MLOAD DUP1 SWAP2 SUB SWAP1 RETURN JUMPDEST CALLVALUE DUP1 ISZERO PUSH2 0xDF5 JUMPI PUSH1 0x0 DUP1 REVERT JUMPDEST POP PUSH2 0xE72 PUSH1 0x4 DUP1 CALLDATASIZE SUB DUP2 ADD SWAP1 DUP1 DUP1 PUSH1 0x40 ADD SWAP1 PUSH1 0x2 DUP1 PUSH1 0x20 MUL PUSH1 0x40 MLOAD SWAP1 DUP2 ADD PUSH1 0x40 MSTORE DUP1 SWAP3 SWAP2 SWAP1 DUP3 PUSH1 0x2 PUSH1 0x20 MUL DUP1 DUP3 DUP5 CALLDATACOPY DUP3 ADD SWAP2 POP POP POP POP POP SWAP2 SWAP3 SWAP2 SWAP3 SWAP1 DUP1 PUSH1 0x40 ADD SWAP1 PUSH1 0x2 DUP1 PUSH1 0x20 MUL PUSH1 0x40 MLOAD SWAP1 DUP2 ADD PUSH1 0x40 MSTORE DUP1 SWAP3 SWAP2 SWAP1 DUP3 PUSH1 0x2 PUSH1 0x20 MUL DUP1 DUP3 DUP5 CALLDATACOPY DUP3 ADD SWAP2 POP POP POP POP POP SWAP2 SWAP3 SWAP2 SWAP3 SWAP1 DUP1 CALLDATALOAD SWAP1 PUSH1 0x20 ADD SWAP1 SWAP3 SWAP2 SWAP1 POP POP POP PUSH2 0x25C6 JUMP JUMPDEST PUSH1 0x40 MLOAD DUP1 DUP3 PUSH1 0x2 PUSH1 0x20 MUL DUP1 DUP4 DUP4 PUSH1 0x0 JUMPDEST DUP4 DUP2 LT ISZERO PUSH2 0xE9D JUMPI DUP1 DUP3 ADD MLOAD DUP2 DUP5 ADD MSTORE PUSH1 0x20 DUP2 ADD SWAP1 POP PUSH2 0xE82 JUMP JUMPDEST POP POP POP POP SWAP1 POP ADD SWAP2 POP POP PUSH1 0x40 MLOAD DUP1 SWAP2 SUB SWAP1 RETURN JUMPDEST CALLVALUE DUP1 ISZERO PUSH2 0xEBC JUMPI PUSH1 0x0 DUP1 REVERT JUMPDEST POP PUSH2 0xEC5 PUSH2 0x25EA JUMP JUMPDEST PUSH1 0x40 MLOAD DUP1 DUP3 DUP2 MSTORE PUSH1 0x20 ADD SWAP2 POP POP PUSH1 0x40 MLOAD DUP1 SWAP2 SUB SWAP1 RETURN JUMPDEST CALLVALUE DUP1 ISZERO PUSH2 0xEE7 JUMPI PUSH1 0x0 DUP1 REVERT JUMPDEST POP PUSH2 0xFC5 PUSH1 0x4 DUP1 CALLDATASIZE SUB DUP2 ADD SWAP1 DUP1 DUP1 PUSH1 0x40 ADD SWAP1 PUSH1 0x2 DUP1 PUSH1 0x20 MUL PUSH1 0x40 MLOAD SWAP1 DUP2 ADD PUSH1 0x40 MSTORE DUP1 SWAP3 SWAP2 SWAP1 DUP3 PUSH1 0x2 PUSH1 0x20 MUL DUP1 DUP3 DUP5 CALLDATACOPY DUP3 ADD SWAP2 POP POP POP POP POP SWAP2 SWAP3 SWAP2 SWAP3 SWAP1 DUP1 CALLDATALOAD SWAP1 PUSH1 0x20 ADD SWAP1 DUP3 ADD DUP1 CALLDATALOAD SWAP1 PUSH1 0x20 ADD SWAP1 DUP1 DUP1 PUSH1 0x20 MUL PUSH1 0x20 ADD PUSH1 0x40 MLOAD SWAP1 DUP2 ADD PUSH1 0x40 MSTORE DUP1 SWAP4 SWAP3 SWAP2 SWAP1 DUP2 DUP2 MSTORE PUSH1 0x20 ADD DUP4 DUP4 PUSH1 0x20 MUL DUP1 DUP3 DUP5 CALLDATACOPY DUP3 ADD SWAP2 POP POP POP POP POP POP SWAP2 SWAP3 SWAP2 SWAP3 SWAP1 DUP1 CALLDATALOAD SWAP1 PUSH1 0x20 ADD SWAP1 DUP3 ADD DUP1 CALLDATALOAD SWAP1 PUSH1 0x20 ADD SWAP1 DUP1 DUP1 PUSH1 0x20 MUL PUSH1 0x20 ADD PUSH1 0x40 MLOAD SWAP1 DUP2 ADD PUSH1 0x40 MSTORE DUP1 SWAP4 SWAP3 SWAP2 SWAP1 DUP2 DUP2 MSTORE PUSH1 0x20 ADD DUP4 DUP4 PUSH1 0x20 MUL DUP1 DUP3 DUP5 CALLDATACOPY DUP3 ADD SWAP2 POP POP POP POP POP POP SWAP2 SWAP3 SWAP2 SWAP3 SWAP1 DUP1 CALLDATALOAD SWAP1 PUSH1 0x20 ADD SWAP1 SWAP3 SWAP2 SWAP1 DUP1 CALLDATALOAD SWAP1 PUSH1 0x20 ADD SWAP1 SWAP3 SWAP2 SWAP1 POP POP POP PUSH2 0x2603 JUMP JUMPDEST PUSH1 0x40 MLOAD DUP1 DUP3 PUSH1 0x2 PUSH1 0x20 MUL DUP1 DUP4 DUP4 PUSH1 0x0 JUMPDEST DUP4 DUP2 LT ISZERO PUSH2 0xFF0 JUMPI DUP1 DUP3 ADD MLOAD DUP2 DUP5 ADD MSTORE PUSH1 0x20 DUP2 ADD SWAP1 POP PUSH2 0xFD5 JUMP JUMPDEST POP POP POP POP SWAP1 POP ADD SWAP2 POP POP PUSH1 0x40 MLOAD DUP1 SWAP2 SUB SWAP1 RETURN JUMPDEST CALLVALUE DUP1 ISZERO PUSH2 0x100F JUMPI PUSH1 0x0 DUP1 REVERT JUMPDEST POP PUSH2 0x1018 PUSH2 0x262B JUMP JUMPDEST PUSH1 0x40 MLOAD DUP1 DUP3 PUSH1 0x2 PUSH1 0x20 MUL DUP1 DUP4 DUP4 PUSH1 0x0 JUMPDEST DUP4 DUP2 LT ISZERO PUSH2 0x1043 JUMPI DUP1 DUP3 ADD MLOAD DUP2 DUP5 ADD MSTORE PUSH1 0x20 DUP2 ADD SWAP1 POP PUSH2 0x1028 JUMP JUMPDEST POP POP POP POP SWAP1 POP ADD SWAP2 POP POP PUSH1 0x40 MLOAD DUP1 SWAP2 SUB SWAP1 RETURN JUMPDEST CALLVALUE DUP1 ISZERO PUSH2 0x1062 JUMPI PUSH1 0x0 DUP1 REVERT JUMPDEST POP PUSH2 0x10B0 PUSH1 0x4 DUP1 CALLDATASIZE SUB DUP2 ADD SWAP1 DUP1 DUP1 PUSH1 0x40 ADD SWAP1 PUSH1 0x2 DUP1 PUSH1 0x20 MUL PUSH1 0x40 MLOAD SWAP1 DUP2 ADD PUSH1 0x40 MSTORE DUP1 SWAP3 SWAP2 SWAP1 DUP3 PUSH1 0x2 PUSH1 0x20 MUL DUP1 DUP3 DUP5 CALLDATACOPY DUP3 ADD SWAP2 POP POP POP POP POP SWAP2 SWAP3 SWAP2 SWAP3 SWAP1 DUP1 CALLDATALOAD SWAP1 PUSH1 0x20 ADD SWAP1 SWAP3 SWAP2 SWAP1 POP POP POP PUSH2 0x2676 JUMP JUMPDEST PUSH1 0x40 MLOAD DUP1 DUP3 PUSH1 0x2 PUSH1 0x20 MUL DUP1 DUP4 DUP4 PUSH1 0x0 JUMPDEST DUP4 DUP2 LT ISZERO PUSH2 0x10DB JUMPI DUP1 DUP3 ADD MLOAD DUP2 DUP5 ADD MSTORE PUSH1 0x20 DUP2 ADD SWAP1 POP PUSH2 0x10C0 JUMP JUMPDEST POP POP POP POP SWAP1 POP ADD SWAP2 POP POP PUSH1 0x40 MLOAD DUP1 SWAP2 SUB SWAP1 RETURN JUMPDEST CALLVALUE DUP1 ISZERO PUSH2 0x10FA JUMPI PUSH1 0x0 DUP1 REVERT JUMPDEST POP PUSH2 0x1103 PUSH2 0x26CE JUMP JUMPDEST PUSH1 0x40 MLOAD DUP1 DUP3 PUSH1 0x2 PUSH1 0x20 MUL DUP1 DUP4 DUP4 PUSH1 0x0 JUMPDEST DUP4 DUP2 LT ISZERO PUSH2 0x112E JUMPI DUP1 DUP3 ADD MLOAD DUP2 DUP5 ADD MSTORE PUSH1 0x20 DUP2 ADD SWAP1 POP PUSH2 0x1113 JUMP JUMPDEST POP POP POP POP SWAP1 POP ADD SWAP2 POP POP PUSH1 0x40 MLOAD DUP1 SWAP2 SUB SWAP1 RETURN JUMPDEST CALLVALUE DUP1 ISZERO PUSH2 0x114D JUMPI PUSH1 0x0 DUP1 REVERT JUMPDEST POP PUSH2 0x11FC PUSH1 0x4 DUP1 CALLDATASIZE SUB DUP2 ADD SWAP1 DUP1 DUP1 CALLDATALOAD SWAP1 PUSH1 0x20 ADD SWAP1 DUP3 ADD DUP1 CALLDATALOAD SWAP1 PUSH1 0x20 ADD SWAP1 DUP1 DUP1 PUSH1 0x20 MUL PUSH1 0x20 ADD PUSH1 0x40 MLOAD SWAP1 DUP2 ADD PUSH1 0x40 MSTORE DUP1 SWAP4 SWAP3 SWAP2 SWAP1 DUP2 DUP2 MSTORE PUSH1 0x20 ADD DUP4 DUP4 PUSH1 0x20 MUL DUP1 DUP3 DUP5 CALLDATACOPY DUP3 ADD SWAP2 POP POP POP POP POP POP SWAP2 SWAP3 SWAP2 SWAP3 SWAP1 DUP1 CALLDATALOAD SWAP1 PUSH1 0x20 ADD SWAP1 DUP3 ADD DUP1 CALLDATALOAD SWAP1 PUSH1 0x20 ADD SWAP1 DUP1 DUP1 PUSH1 0x20 MUL PUSH1 0x20 ADD PUSH1 0x40 MLOAD SWAP1 DUP2 ADD PUSH1 0x40 MSTORE DUP1 SWAP4 SWAP3 SWAP2 SWAP1 DUP2 DUP2 MSTORE PUSH1 0x20 ADD DUP4 DUP4 PUSH1 0x20 MUL DUP1 DUP3 DUP5 CALLDATACOPY DUP3 ADD SWAP2 POP POP POP POP POP POP SWAP2 SWAP3 SWAP2 SWAP3 SWAP1 DUP1 CALLDATALOAD SWAP1 PUSH1 0x20 ADD SWAP1 SWAP3 SWAP2 SWAP1 DUP1 CALLDATALOAD SWAP1 PUSH1 0x20 ADD SWAP1 SWAP3 SWAP2 SWAP1 POP POP POP PUSH2 0x2719 JUMP JUMPDEST PUSH1 0x40 MLOAD DUP1 DUP3 PUSH1 0x2 PUSH1 0x20 MUL DUP1 DUP4 DUP4 PUSH1 0x0 JUMPDEST DUP4 DUP2 LT ISZERO PUSH2 0x1227 JUMPI DUP1 DUP3 ADD MLOAD DUP2 DUP5 ADD MSTORE PUSH1 0x20 DUP2 ADD SWAP1 POP PUSH2 0x120C JUMP JUMPDEST POP POP POP POP SWAP1 POP ADD SWAP2 POP POP PUSH1 0x40 MLOAD DUP1 SWAP2 SUB SWAP1 RETURN JUMPDEST CALLVALUE DUP1 ISZERO PUSH2 0x1246 JUMPI PUSH1 0x0 DUP1 REVERT JUMPDEST POP PUSH2 0x124F PUSH2 0x2888 JUMP JUMPDEST PUSH1 0x40 MLOAD DUP1 DUP3 DUP2 MSTORE PUSH1 0x20 ADD SWAP2 POP POP PUSH1 0x40 MLOAD DUP1 SWAP2 SUB SWAP1 RETURN JUMPDEST CALLVALUE DUP1 ISZERO PUSH2 0x1271 JUMPI PUSH1 0x0 DUP1 REVERT JUMPDEST POP PUSH2 0x127A PUSH2 0x28B0 JUMP JUMPDEST STOP JUMPDEST CALLVALUE DUP1 ISZERO PUSH2 0x1288 JUMPI PUSH1 0x0 DUP1 REVERT JUMPDEST POP PUSH2 0x12D6 PUSH1 0x4 DUP1 CALLDATASIZE SUB DUP2 ADD SWAP1 DUP1 DUP1 PUSH1 0x40 ADD SWAP1 PUSH1 0x2 DUP1 PUSH1 0x20 MUL PUSH1 0x40 MLOAD SWAP1 DUP2 ADD PUSH1 0x40 MSTORE DUP1 SWAP3 SWAP2 SWAP1 DUP3 PUSH1 0x2 PUSH1 0x20 MUL DUP1 DUP3 DUP5 CALLDATACOPY DUP3 ADD SWAP2 POP POP POP POP POP SWAP2 SWAP3 SWAP2 SWAP3 SWAP1 DUP1 CALLDATALOAD SWAP1 PUSH1 0x20 ADD SWAP1 SWAP3 SWAP2 SWAP1 POP POP POP PUSH2 0x2968 JUMP JUMPDEST PUSH1 0x40 MLOAD DUP1 DUP3 PUSH1 0x2 PUSH1 0x20 MUL DUP1 DUP4 DUP4 PUSH1 0x0 JUMPDEST DUP4 DUP2 LT ISZERO PUSH2 0x1301 JUMPI DUP1 DUP3 ADD MLOAD DUP2 DUP5 ADD MSTORE PUSH1 0x20 DUP2 ADD SWAP1 POP PUSH2 0x12E6 JUMP JUMPDEST POP POP POP POP SWAP1 POP ADD SWAP2 POP POP PUSH1 0x40 MLOAD DUP1 SWAP2 SUB SWAP1 RETURN JUMPDEST CALLVALUE DUP1 ISZERO PUSH2 0x1320 JUMPI PUSH1 0x0 DUP1 REVERT JUMPDEST POP PUSH2 0x1329 PUSH2 0x29C1 JUMP JUMPDEST PUSH1 0x40 MLOAD DUP1 DUP3 PUSH1 0x2 PUSH1 0x20 MUL DUP1 DUP4 DUP4 PUSH1 0x0 JUMPDEST DUP4 DUP2 LT ISZERO PUSH2 0x1354 JUMPI DUP1 DUP3 ADD MLOAD DUP2 DUP5 ADD MSTORE PUSH1 0x20 DUP2 ADD SWAP1 POP PUSH2 0x1339 JUMP JUMPDEST POP POP POP POP SWAP1 POP ADD SWAP2 POP POP PUSH1 0x40 MLOAD DUP1 SWAP2 SUB SWAP1 RETURN JUMPDEST CALLVALUE DUP1 ISZERO PUSH2 0x1373 JUMPI PUSH1 0x0 DUP1 REVERT JUMPDEST POP PUSH2 0x140E PUSH1 0x4 DUP1 CALLDATASIZE SUB DUP2 ADD SWAP1 DUP1 DUP1 CALLDATALOAD SWAP1 PUSH1 0x20 ADD SWAP1 DUP3 ADD DUP1 CALLDATALOAD SWAP1 PUSH1 0x20 ADD SWAP1 DUP1 DUP1 PUSH1 0x20 MUL PUSH1 0x20 ADD PUSH1 0x40 MLOAD SWAP1 DUP2 ADD PUSH1 0x40 MSTORE DUP1 SWAP4 SWAP3 SWAP2 SWAP1 DUP2 DUP2 MSTORE PUSH1 0x20 ADD DUP4 DUP4 PUSH1 0x20 MUL DUP1 DUP3 DUP5 CALLDATACOPY DUP3 ADD SWAP2 POP POP POP POP POP POP SWAP2 SWAP3 SWAP2 SWAP3 SWAP1 DUP1 CALLDATALOAD SWAP1 PUSH1 0x20 ADD SWAP1 DUP3 ADD DUP1 CALLDATALOAD SWAP1 PUSH1 0x20 ADD SWAP1 DUP1 DUP1 PUSH1 0x20 MUL PUSH1 0x20 ADD PUSH1 0x40 MLOAD SWAP1 DUP2 ADD PUSH1 0x40 MSTORE DUP1 SWAP4 SWAP3 SWAP2 SWAP1 DUP2 DUP2 MSTORE PUSH1 0x20 ADD DUP4 DUP4 PUSH1 0x20 MUL DUP1 DUP3 DUP5 CALLDATACOPY DUP3 ADD SWAP2 POP POP POP POP POP POP SWAP2 SWAP3 SWAP2 SWAP3 SWAP1 POP POP POP PUSH2 0x2A0C JUMP JUMPDEST PUSH1 0x40 MLOAD DUP1 DUP1 PUSH1 0x20 ADD DUP3 DUP2 SUB DUP3 MSTORE DUP4 DUP2 DUP2 MLOAD DUP2 MSTORE PUSH1 0x20 ADD SWAP2 POP DUP1 MLOAD SWAP1 PUSH1 0x20 ADD SWAP1 PUSH1 0x20 MUL DUP1 DUP4 DUP4 PUSH1 0x0 JUMPDEST DUP4 DUP2 LT ISZERO PUSH2 0x1451 JUMPI DUP1 DUP3 ADD MLOAD DUP2 DUP5 ADD MSTORE PUSH1 0x20 DUP2 ADD SWAP1 POP PUSH2 0x1436 JUMP JUMPDEST POP POP POP POP SWAP1 POP ADD SWAP3 POP POP POP PUSH1 0x40 MLOAD DUP1 SWAP2 SUB SWAP1 RETURN JUMPDEST CALLVALUE DUP1 ISZERO PUSH2 0x1471 JUMPI PUSH1 0x0 DUP1 REVERT JUMPDEST POP PUSH2 0x147A PUSH2 0x2B64 JUMP JUMPDEST PUSH1 0x40 MLOAD DUP1 DUP3 DUP2 MSTORE PUSH1 0x20 ADD SWAP2 POP POP PUSH1 0x40 MLOAD DUP1 SWAP2 SUB SWAP1 RETURN JUMPDEST CALLVALUE DUP1 ISZERO PUSH2 0x149C JUMPI PUSH1 0x0 DUP1 REVERT JUMPDEST POP PUSH2 0x14C5 PUSH1 0x4 DUP1 CALLDATASIZE SUB DUP2 ADD SWAP1 DUP1 DUP1 CALLDATALOAD SWAP1 PUSH1 0x20 ADD SWAP1 SWAP3 SWAP2 SWAP1 DUP1 CALLDATALOAD SWAP1 PUSH1 0x20 ADD SWAP1 SWAP3 SWAP2 SWAP1 POP POP POP PUSH2 0x2B8C JUMP JUMPDEST PUSH1 0x40 MLOAD DUP1 DUP3 PUSH1 0x2 PUSH1 0x20 MUL DUP1 DUP4 DUP4 PUSH1 0x0 JUMPDEST DUP4 DUP2 LT ISZERO PUSH2 0x14F0 JUMPI DUP1 DUP3 ADD MLOAD DUP2 DUP5 ADD MSTORE PUSH1 0x20 DUP2 ADD SWAP1 POP PUSH2 0x14D5 JUMP JUMPDEST POP POP POP POP SWAP1 POP ADD SWAP2 POP POP PUSH1 0x40 MLOAD DUP1 SWAP2 SUB SWAP1 RETURN JUMPDEST PUSH2 0x150B PUSH2 0x2BB6 JUMP JUMPDEST PUSH2 0x1553 DUP4 PUSH1 0x3 PUSH1 0x2 DUP1 PUSH1 0x20 MUL PUSH1 0x40 MLOAD SWAP1 DUP2 ADD PUSH1 0x40 MSTORE DUP1 SWAP3 SWAP2 SWAP1 DUP3 PUSH1 0x2 DUP1 ISZERO PUSH2 0x1548 JUMPI PUSH1 0x20 MUL DUP3 ADD SWAP2 JUMPDEST DUP2 SLOAD DUP2 MSTORE PUSH1 0x20 ADD SWAP1 PUSH1 0x1 ADD SWAP1 DUP1 DUP4 GT PUSH2 0x1534 JUMPI JUMPDEST POP POP POP POP POP DUP5 PUSH2 0x25C6 JUMP JUMPDEST SWAP1 POP SWAP3 SWAP2 POP POP JUMP JUMPDEST PUSH2 0x1563 PUSH2 0x2BB6 JUMP JUMPDEST PUSH2 0x15AA PUSH1 0x1 PUSH1 0x2 DUP1 PUSH1 0x20 MUL PUSH1 0x40 MLOAD SWAP1 DUP2 ADD PUSH1 0x40 MSTORE DUP1 SWAP3 SWAP2 SWAP1 DUP3 PUSH1 0x2 DUP1 ISZERO PUSH2 0x159F JUMPI PUSH1 0x20 MUL DUP3 ADD SWAP2 JUMPDEST DUP2 SLOAD DUP2 MSTORE PUSH1 0x20 ADD SWAP1 PUSH1 0x1 ADD SWAP1 DUP1 DUP4 GT PUSH2 0x158B JUMPI JUMPDEST POP POP POP POP POP DUP4 PUSH2 0x2968 JUMP JUMPDEST SWAP1 POP SWAP2 SWAP1 POP JUMP JUMPDEST PUSH2 0x15B9 PUSH2 0x2BB6 JUMP JUMPDEST PUSH1 0x40 MLOAD DUP4 MLOAD DUP2 MSTORE PUSH1 0x20 DUP5 ADD MLOAD PUSH1 0x20 DUP3 ADD MSTORE DUP3 MLOAD PUSH1 0x40 DUP3 ADD MSTORE PUSH1 0x20 DUP4 ADD MLOAD PUSH1 0x60 DUP3 ADD MSTORE PUSH1 0x40 DUP2 PUSH1 0x80 DUP4 PUSH1 0x0 PUSH1 0x6 PUSH2 0x7D0 GAS SUB CALL DUP1 PUSH1 0x0 DUP2 EQ PUSH2 0x15F9 JUMPI PUSH2 0x15FE JUMP JUMPDEST PUSH1 0x80 DUP4 REVERT JUMPDEST POP DUP2 MLOAD DUP4 MSTORE PUSH1 0x20 DUP3 ADD MLOAD PUSH1 0x20 DUP5 ADD MSTORE POP POP SWAP3 SWAP2 POP POP JUMP JUMPDEST PUSH2 0x161D PUSH2 0x2BB6 JUMP JUMPDEST PUSH2 0x1664 PUSH1 0x1 PUSH1 0x2 DUP1 PUSH1 0x20 MUL PUSH1 0x40 MLOAD SWAP1 DUP2 ADD PUSH1 0x40 MSTORE DUP1 SWAP3 SWAP2 SWAP1 DUP3 PUSH1 0x2 DUP1 ISZERO PUSH2 0x1659 JUMPI PUSH1 0x20 MUL DUP3 ADD SWAP2 JUMPDEST DUP2 SLOAD DUP2 MSTORE PUSH1 0x20 ADD SWAP1 PUSH1 0x1 ADD SWAP1 DUP1 DUP4 GT PUSH2 0x1645 JUMPI JUMPDEST POP POP POP POP POP DUP4 PUSH2 0x2968 JUMP JUMPDEST SWAP1 POP SWAP2 SWAP1 POP JUMP JUMPDEST PUSH1 0x0 PUSH2 0x167E PUSH2 0x1679 DUP4 PUSH2 0x1615 JUMP JUMPDEST PUSH2 0x187E JUMP JUMPDEST SWAP1 POP SWAP2 SWAP1 POP JUMP JUMPDEST PUSH1 0x0 DUP2 PUSH1 0x0 PUSH1 0x2 DUP2 LT ISZERO ISZERO PUSH2 0x1696 JUMPI INVALID JUMPDEST PUSH1 0x20 MUL ADD MLOAD DUP4 PUSH1 0x0 PUSH1 0x2 DUP2 LT ISZERO ISZERO PUSH2 0x16AA JUMPI INVALID JUMPDEST PUSH1 0x20 MUL ADD MLOAD EQ DUP1 ISZERO PUSH2 0x16E1 JUMPI POP DUP2 PUSH1 0x1 PUSH1 0x2 DUP2 LT ISZERO ISZERO PUSH2 0x16C6 JUMPI INVALID JUMPDEST PUSH1 0x20 MUL ADD MLOAD DUP4 PUSH1 0x1 PUSH1 0x2 DUP2 LT ISZERO ISZERO PUSH2 0x16DA JUMPI INVALID JUMPDEST PUSH1 0x20 MUL ADD MLOAD EQ JUMPDEST SWAP1 POP SWAP3 SWAP2 POP POP JUMP JUMPDEST PUSH1 0x60 PUSH1 0x0 PUSH2 0x16F5 PUSH2 0x2BB6 JUMP JUMPDEST PUSH1 0x1 DUP6 MLOAD GT ISZERO ISZERO PUSH2 0x1705 JUMPI PUSH1 0x0 DUP1 REVERT JUMPDEST PUSH1 0x0 PUSH1 0x2 DUP7 MLOAD DUP2 ISZERO ISZERO PUSH2 0x1714 JUMPI INVALID JUMPDEST MOD EQ ISZERO ISZERO PUSH2 0x1721 JUMPI PUSH1 0x0 DUP1 REVERT JUMPDEST DUP5 MLOAD DUP5 MLOAD EQ ISZERO ISZERO PUSH2 0x1731 JUMPI PUSH1 0x0 DUP1 REVERT JUMPDEST DUP5 MLOAD PUSH1 0x40 MLOAD SWAP1 DUP1 DUP3 MSTORE DUP1 PUSH1 0x20 MUL PUSH1 0x20 ADD DUP3 ADD PUSH1 0x40 MSTORE DUP1 ISZERO PUSH2 0x1761 JUMPI DUP2 PUSH1 0x20 ADD PUSH1 0x20 DUP3 MUL DUP1 CODESIZE DUP4 CODECOPY DUP1 DUP3 ADD SWAP2 POP POP SWAP1 POP JUMPDEST POP SWAP3 POP PUSH1 0x0 SWAP2 POP JUMPDEST DUP5 MLOAD DUP3 LT ISZERO PUSH2 0x1876 JUMPI PUSH2 0x1806 PUSH1 0x40 DUP1 MLOAD SWAP1 DUP2 ADD PUSH1 0x40 MSTORE DUP1 DUP8 DUP6 DUP2 MLOAD DUP2 LT ISZERO ISZERO PUSH2 0x178E JUMPI INVALID JUMPDEST SWAP1 PUSH1 0x20 ADD SWAP1 PUSH1 0x20 MUL ADD MLOAD DUP2 MSTORE PUSH1 0x20 ADD DUP8 PUSH1 0x1 DUP7 ADD DUP2 MLOAD DUP2 LT ISZERO ISZERO PUSH2 0x17AE JUMPI INVALID JUMPDEST SWAP1 PUSH1 0x20 ADD SWAP1 PUSH1 0x20 MUL ADD MLOAD DUP2 MSTORE POP PUSH1 0x40 DUP1 MLOAD SWAP1 DUP2 ADD PUSH1 0x40 MSTORE DUP1 DUP8 DUP7 DUP2 MLOAD DUP2 LT ISZERO ISZERO PUSH2 0x17D4 JUMPI INVALID JUMPDEST SWAP1 PUSH1 0x20 ADD SWAP1 PUSH1 0x20 MUL ADD MLOAD DUP2 MSTORE PUSH1 0x20 ADD DUP8 PUSH1 0x1 DUP8 ADD DUP2 MLOAD DUP2 LT ISZERO ISZERO PUSH2 0x17F4 JUMPI INVALID JUMPDEST SWAP1 PUSH1 0x20 ADD SWAP1 PUSH1 0x20 MUL ADD MLOAD DUP2 MSTORE POP PUSH2 0x15B1 JUMP JUMPDEST SWAP1 POP DUP1 PUSH1 0x0 PUSH1 0x2 DUP2 LT ISZERO ISZERO PUSH2 0x1817 JUMPI INVALID JUMPDEST PUSH1 0x20 MUL ADD MLOAD DUP2 PUSH1 0x1 PUSH1 0x2 DUP2 LT ISZERO ISZERO PUSH2 0x182B JUMPI INVALID JUMPDEST PUSH1 0x20 MUL ADD MLOAD DUP5 DUP5 DUP2 MLOAD DUP2 LT ISZERO ISZERO PUSH2 0x183E JUMPI INVALID JUMPDEST SWAP1 PUSH1 0x20 ADD SWAP1 PUSH1 0x20 MUL ADD DUP6 PUSH1 0x1 DUP7 ADD DUP2 MLOAD DUP2 LT ISZERO ISZERO PUSH2 0x1858 JUMPI INVALID JUMPDEST SWAP1 PUSH1 0x20 ADD SWAP1 PUSH1 0x20 MUL ADD DUP3 DUP2 MSTORE POP DUP3 DUP2 MSTORE POP POP POP PUSH1 0x2 DUP3 ADD SWAP2 POP PUSH2 0x1769 JUMP JUMPDEST POP POP SWAP3 SWAP2 POP POP JUMP JUMPDEST PUSH1 0x0 DUP2 PUSH1 0x0 PUSH1 0x2 DUP2 LT ISZERO ISZERO PUSH2 0x188F JUMPI INVALID JUMPDEST PUSH1 0x20 MUL ADD MLOAD DUP3 PUSH1 0x1 PUSH1 0x2 DUP2 LT ISZERO ISZERO PUSH2 0x18A3 JUMPI INVALID JUMPDEST PUSH1 0x20 MUL ADD MLOAD PUSH1 0x40 MLOAD DUP1 DUP4 DUP2 MSTORE PUSH1 0x20 ADD DUP3 DUP2 MSTORE PUSH1 0x20 ADD SWAP3 POP POP POP PUSH1 0x40 MLOAD DUP1 SWAP2 SUB SWAP1 KECCAK256 PUSH1 0x1 SWAP1 DIV SWAP1 POP SWAP2 SWAP1 POP JUMP JUMPDEST PUSH1 0x60 PUSH1 0x0 PUSH2 0x18DB PUSH2 0x2BB6 JUMP JUMPDEST PUSH1 0x1 DUP6 MLOAD GT ISZERO ISZERO PUSH2 0x18EB JUMPI PUSH1 0x0 DUP1 REVERT JUMPDEST PUSH1 0x0 PUSH1 0x2 DUP7 MLOAD DUP2 ISZERO ISZERO PUSH2 0x18FA JUMPI INVALID JUMPDEST MOD EQ ISZERO ISZERO PUSH2 0x1907 JUMPI PUSH1 0x0 DUP1 REVERT JUMPDEST DUP5 MLOAD PUSH1 0x40 MLOAD SWAP1 DUP1 DUP3 MSTORE DUP1 PUSH1 0x20 MUL PUSH1 0x20 ADD DUP3 ADD PUSH1 0x40 MSTORE DUP1 ISZERO PUSH2 0x1937 JUMPI DUP2 PUSH1 0x20 ADD PUSH1 0x20 DUP3 MUL DUP1 CODESIZE DUP4 CODECOPY DUP1 DUP3 ADD SWAP2 POP POP SWAP1 POP JUMPDEST POP SWAP3 POP PUSH1 0x0 SWAP2 POP JUMPDEST DUP5 MLOAD DUP3 LT ISZERO PUSH2 0x1A07 JUMPI PUSH2 0x1997 PUSH1 0x40 DUP1 MLOAD SWAP1 DUP2 ADD PUSH1 0x40 MSTORE DUP1 DUP8 DUP6 DUP2 MLOAD DUP2 LT ISZERO ISZERO PUSH2 0x1964 JUMPI INVALID JUMPDEST SWAP1 PUSH1 0x20 ADD SWAP1 PUSH1 0x20 MUL ADD MLOAD DUP2 MSTORE PUSH1 0x20 ADD DUP8 PUSH1 0x1 DUP7 ADD DUP2 MLOAD DUP2 LT ISZERO ISZERO PUSH2 0x1984 JUMPI INVALID JUMPDEST SWAP1 PUSH1 0x20 ADD SWAP1 PUSH1 0x20 MUL ADD MLOAD DUP2 MSTORE POP DUP6 PUSH2 0x2968 JUMP JUMPDEST SWAP1 POP DUP1 PUSH1 0x0 PUSH1 0x2 DUP2 LT ISZERO ISZERO PUSH2 0x19A8 JUMPI INVALID JUMPDEST PUSH1 0x20 MUL ADD MLOAD DUP2 PUSH1 0x1 PUSH1 0x2 DUP2 LT ISZERO ISZERO PUSH2 0x19BC JUMPI INVALID JUMPDEST PUSH1 0x20 MUL ADD MLOAD DUP5 DUP5 DUP2 MLOAD DUP2 LT ISZERO ISZERO PUSH2 0x19CF JUMPI INVALID JUMPDEST SWAP1 PUSH1 0x20 ADD SWAP1 PUSH1 0x20 MUL ADD DUP6 PUSH1 0x1 DUP7 ADD DUP2 MLOAD DUP2 LT ISZERO ISZERO PUSH2 0x19E9 JUMPI INVALID JUMPDEST SWAP1 PUSH1 0x20 ADD SWAP1 PUSH1 0x20 MUL ADD DUP3 DUP2 MSTORE POP DUP3 DUP2 MSTORE POP POP POP PUSH1 0x2 DUP3 ADD SWAP2 POP PUSH2 0x193F JUMP JUMPDEST POP POP SWAP3 SWAP2 POP POP JUMP JUMPDEST PUSH2 0x1A17 PUSH2 0x2BB6 JUMP JUMPDEST PUSH1 0x0 DUP1 PUSH32 0x8000000000000000000000000000000000000000000000000000000000000000 NOT DUP5 AND DUP4 PUSH1 0x0 PUSH1 0x2 DUP2 LT ISZERO ISZERO PUSH2 0x1A4D JUMPI INVALID JUMPDEST PUSH1 0x20 MUL ADD DUP2 DUP2 MSTORE POP POP PUSH2 0x1A72 DUP4 PUSH1 0x0 PUSH1 0x2 DUP2 LT ISZERO ISZERO PUSH2 0x1A68 JUMPI INVALID JUMPDEST PUSH1 0x20 MUL ADD MLOAD PUSH2 0x1DB1 JUMP JUMPDEST DUP1 SWAP4 POP DUP2 SWAP3 POP POP POP DUP2 ISZERO ISZERO PUSH2 0x1A9F JUMPI PUSH1 0x40 DUP1 MLOAD SWAP1 DUP2 ADD PUSH1 0x40 MSTORE DUP1 PUSH1 0x0 DUP2 MSTORE PUSH1 0x20 ADD PUSH1 0x0 DUP2 MSTORE POP SWAP3 POP PUSH2 0x1B9C JUMP JUMPDEST PUSH1 0x0 PUSH32 0x8000000000000000000000000000000000000000000000000000000000000000 DUP6 AND EQ ISZERO ISZERO PUSH2 0x1B35 JUMPI PUSH1 0x1 DUP1 DUP3 AND EQ ISZERO PUSH2 0x1AF4 JUMPI DUP1 DUP4 PUSH1 0x1 PUSH1 0x2 DUP2 LT ISZERO ISZERO PUSH2 0x1AE6 JUMPI INVALID JUMPDEST PUSH1 0x20 MUL ADD DUP2 DUP2 MSTORE POP POP PUSH2 0x1B30 JUMP JUMPDEST DUP1 PUSH32 0x30644E72E131A029B85045B68181585D97816A916871CA8D3C208C16D87CFD47 SUB DUP4 PUSH1 0x1 PUSH1 0x2 DUP2 LT ISZERO ISZERO PUSH2 0x1B26 JUMPI INVALID JUMPDEST PUSH1 0x20 MUL ADD DUP2 DUP2 MSTORE POP POP JUMPDEST PUSH2 0x1B9B JUMP JUMPDEST PUSH1 0x1 DUP1 DUP3 AND EQ ISZERO PUSH2 0x1B80 JUMPI DUP1 PUSH32 0x30644E72E131A029B85045B68181585D97816A916871CA8D3C208C16D87CFD47 SUB DUP4 PUSH1 0x1 PUSH1 0x2 DUP2 LT ISZERO ISZERO PUSH2 0x1B72 JUMPI INVALID JUMPDEST PUSH1 0x20 MUL ADD DUP2 DUP2 MSTORE POP POP PUSH2 0x1B9A JUMP JUMPDEST DUP1 DUP4 PUSH1 0x1 PUSH1 0x2 DUP2 LT ISZERO ISZERO PUSH2 0x1B90 JUMPI INVALID JUMPDEST PUSH1 0x20 MUL ADD DUP2 DUP2 MSTORE POP POP JUMPDEST JUMPDEST JUMPDEST POP POP SWAP2 SWAP1 POP JUMP JUMPDEST PUSH2 0x1BAB PUSH2 0x2BB6 JUMP JUMPDEST DUP2 PUSH1 0x0 PUSH1 0x2 DUP2 LT ISZERO ISZERO PUSH2 0x1BBA JUMPI INVALID JUMPDEST PUSH1 0x20 MUL ADD MLOAD DUP2 PUSH1 0x0 PUSH1 0x2 DUP2 LT ISZERO ISZERO PUSH2 0x1BCE JUMPI INVALID JUMPDEST PUSH1 0x20 MUL ADD DUP2 DUP2 MSTORE POP POP PUSH32 0x30644E72E131A029B85045B68181585D97816A916871CA8D3C208C16D87CFD47 DUP3 PUSH1 0x1 PUSH1 0x2 DUP2 LT ISZERO ISZERO PUSH2 0x1C07 JUMPI INVALID JUMPDEST PUSH1 0x20 MUL ADD MLOAD DUP2 ISZERO ISZERO PUSH2 0x1C15 JUMPI INVALID JUMPDEST MOD PUSH32 0x30644E72E131A029B85045B68181585D97816A916871CA8D3C208C16D87CFD47 SUB DUP2 PUSH1 0x1 PUSH1 0x2 DUP2 LT ISZERO ISZERO PUSH2 0x1C47 JUMPI INVALID JUMPDEST PUSH1 0x20 MUL ADD DUP2 DUP2 MSTORE POP POP SWAP2 SWAP1 POP JUMP JUMPDEST PUSH2 0x1C5D PUSH2 0x2BB6 JUMP JUMPDEST PUSH1 0x0 PUSH32 0x30644E72E131A029B85045B68181585D97816A916871CA8D3C208C16D87CFD47 PUSH2 0x1C89 DUP5 PUSH2 0x1F77 JUMP JUMPDEST DUP2 ISZERO ISZERO PUSH2 0x1C92 JUMPI INVALID JUMPDEST MOD DUP3 PUSH1 0x0 PUSH1 0x2 DUP2 LT ISZERO ISZERO PUSH2 0x1CA2 JUMPI INVALID JUMPDEST PUSH1 0x20 MUL ADD DUP2 DUP2 MSTORE POP POP PUSH1 0x0 SWAP1 POP JUMPDEST DUP1 ISZERO ISZERO PUSH2 0x1D55 JUMPI PUSH2 0x1CD3 DUP3 PUSH1 0x0 PUSH1 0x2 DUP2 LT ISZERO ISZERO PUSH2 0x1CC9 JUMPI INVALID JUMPDEST PUSH1 0x20 MUL ADD MLOAD PUSH2 0x1DB1 JUMP JUMPDEST DUP4 PUSH1 0x1 PUSH1 0x2 DUP2 LT ISZERO ISZERO PUSH2 0x1CE2 JUMPI INVALID JUMPDEST PUSH1 0x20 MUL ADD DUP2 SWAP4 POP DUP3 DUP2 MSTORE POP POP POP DUP1 ISZERO ISZERO PUSH2 0x1D50 JUMPI PUSH32 0x30644E72E131A029B85045B68181585D97816A916871CA8D3C208C16D87CFD47 DUP1 ISZERO ISZERO PUSH2 0x1D20 JUMPI INVALID JUMPDEST PUSH1 0x1 DUP4 PUSH1 0x0 PUSH1 0x2 DUP2 LT ISZERO ISZERO PUSH2 0x1D31 JUMPI INVALID JUMPDEST PUSH1 0x20 MUL ADD MLOAD ADDMOD DUP3 PUSH1 0x0 PUSH1 0x2 DUP2 LT ISZERO ISZERO PUSH2 0x1D46 JUMPI INVALID JUMPDEST PUSH1 0x20 MUL ADD DUP2 DUP2 MSTORE POP POP JUMPDEST PUSH2 0x1CB0 JUMP JUMPDEST POP SWAP2 SWAP1 POP JUMP JUMPDEST PUSH2 0x1D63 PUSH2 0x2BB6 JUMP JUMPDEST PUSH2 0x1DAA PUSH1 0x3 PUSH1 0x2 DUP1 PUSH1 0x20 MUL PUSH1 0x40 MLOAD SWAP1 DUP2 ADD PUSH1 0x40 MSTORE DUP1 SWAP3 SWAP2 SWAP1 DUP3 PUSH1 0x2 DUP1 ISZERO PUSH2 0x1D9F JUMPI PUSH1 0x20 MUL DUP3 ADD SWAP2 JUMPDEST DUP2 SLOAD DUP2 MSTORE PUSH1 0x20 ADD SWAP1 PUSH1 0x1 ADD SWAP1 DUP1 DUP4 GT PUSH2 0x1D8B JUMPI JUMPDEST POP POP POP POP POP DUP4 PUSH2 0x2968 JUMP JUMPDEST SWAP1 POP SWAP2 SWAP1 POP JUMP JUMPDEST PUSH1 0x0 DUP1 PUSH1 0x0 DUP1 PUSH1 0x0 PUSH32 0x30644E72E131A029B85045B68181585D97816A916871CA8D3C208C16D87CFD47 DUP1 ISZERO ISZERO PUSH2 0x1DE3 JUMPI INVALID JUMPDEST DUP7 DUP8 MULMOD SWAP3 POP PUSH32 0x30644E72E131A029B85045B68181585D97816A916871CA8D3C208C16D87CFD47 DUP1 ISZERO ISZERO PUSH2 0x1E12 JUMPI INVALID JUMPDEST DUP7 DUP5 MULMOD SWAP3 POP PUSH32 0x30644E72E131A029B85045B68181585D97816A916871CA8D3C208C16D87CFD47 DUP1 ISZERO ISZERO PUSH2 0x1E41 JUMPI INVALID JUMPDEST PUSH1 0x3 DUP5 ADDMOD SWAP3 POP PUSH32 0x30644E72E131A029B85045B68181585D97816A916871CA8D3C208C16D87CFD47 SWAP2 POP PUSH32 0xC19139CB84C680A6E14116DA060561765E05AA45A1C72A34F082305B61F3F52 SWAP1 POP PUSH1 0x40 MLOAD PUSH1 0x20 DUP2 MSTORE PUSH1 0x20 DUP1 DUP3 ADD MSTORE PUSH1 0x20 PUSH1 0x40 DUP3 ADD MSTORE DUP4 PUSH1 0x60 DUP3 ADD MSTORE DUP2 PUSH1 0x80 DUP3 ADD MSTORE DUP3 PUSH1 0xA0 DUP3 ADD MSTORE PUSH1 0x20 DUP2 PUSH1 0xC0 DUP4 PUSH1 0x0 PUSH1 0x5 PUSH2 0x7D0 GAS SUB CALL DUP1 PUSH1 0x0 DUP2 EQ PUSH2 0x1ED1 JUMPI PUSH2 0x1ED6 JUMP JUMPDEST PUSH1 0xC0 DUP4 REVERT JUMPDEST POP DUP2 MLOAD SWAP7 POP POP POP PUSH32 0x30644E72E131A029B85045B68181585D97816A916871CA8D3C208C16D87CFD47 DUP1 ISZERO ISZERO PUSH2 0x1F07 JUMPI INVALID JUMPDEST DUP6 DUP7 MULMOD DUP4 EQ SWAP4 POP POP POP POP SWAP2 POP SWAP2 JUMP JUMPDEST PUSH1 0x0 DUP2 PUSH1 0x0 PUSH1 0x2 DUP2 LT ISZERO ISZERO PUSH2 0x1F27 JUMPI INVALID JUMPDEST PUSH1 0x20 MUL ADD MLOAD SWAP1 POP PUSH1 0x1 DUP1 DUP4 PUSH1 0x1 PUSH1 0x2 DUP2 LT ISZERO ISZERO PUSH2 0x1F40 JUMPI INVALID JUMPDEST PUSH1 0x20 MUL ADD MLOAD AND EQ ISZERO PUSH2 0x1F72 JUMPI PUSH32 0x8000000000000000000000000000000000000000000000000000000000000000 DUP2 OR SWAP1 POP JUMPDEST SWAP2 SWAP1 POP JUMP JUMPDEST PUSH1 0x0 DUP2 PUSH1 0x0 PUSH1 0x2 DUP2 LT ISZERO ISZERO PUSH2 0x1F88 JUMPI INVALID JUMPDEST PUSH1 0x20 MUL ADD MLOAD DUP3 PUSH1 0x1 PUSH1 0x2 DUP2 LT ISZERO ISZERO PUSH2 0x1F9C JUMPI INVALID JUMPDEST PUSH1 0x20 MUL ADD MLOAD PUSH1 0x40 MLOAD DUP1 DUP4 DUP2 MSTORE PUSH1 0x20 ADD DUP3 DUP2 MSTORE PUSH1 0x20 ADD SWAP3 POP POP POP PUSH1 0x40 MLOAD DUP1 SWAP2 SUB SWAP1 KECCAK256 PUSH1 0x1 SWAP1 DIV SWAP1 POP SWAP2 SWAP1 POP JUMP JUMPDEST PUSH2 0x1FD0 PUSH2 0x2BB6 JUMP JUMPDEST PUSH2 0x1FE2 DUP4 PUSH2 0x1FDD DUP5 PUSH2 0x1BA3 JUMP JUMPDEST PUSH2 0x15B1 JUMP JUMPDEST SWAP1 POP SWAP3 SWAP2 POP POP JUMP JUMPDEST PUSH2 0x1FF2 PUSH2 0x2BB6 JUMP JUMPDEST PUSH2 0x1FFA PUSH2 0x2BB6 JUMP JUMPDEST PUSH2 0x2007 DUP7 DUP6 PUSH1 0x0 DUP1 PUSH2 0x2719 JUMP JUMPDEST SWAP2 POP PUSH2 0x2016 DUP6 DUP5 PUSH1 0x0 DUP1 PUSH2 0x2719 JUMP JUMPDEST SWAP1 POP SWAP5 POP SWAP5 SWAP3 POP POP POP JUMP JUMPDEST PUSH1 0x60 DUP1 PUSH1 0x0 PUSH1 0x60 DUP1 PUSH1 0x0 DUP7 PUSH1 0x2 MUL SWAP4 POP DUP4 PUSH1 0x7 DUP1 SLOAD SWAP1 POP LT ISZERO ISZERO ISZERO PUSH2 0x2045 JUMPI PUSH1 0x0 DUP1 REVERT JUMPDEST PUSH1 0x0 DUP5 EQ DUP1 PUSH2 0x2058 JUMPI POP DUP4 PUSH1 0x7 DUP1 SLOAD SWAP1 POP EQ JUMPDEST ISZERO PUSH2 0x210E JUMPI PUSH1 0x7 PUSH1 0x8 DUP2 DUP1 SLOAD DUP1 PUSH1 0x20 MUL PUSH1 0x20 ADD PUSH1 0x40 MLOAD SWAP1 DUP2 ADD PUSH1 0x40 MSTORE DUP1 SWAP3 SWAP2 SWAP1 DUP2 DUP2 MSTORE PUSH1 0x20 ADD DUP3 DUP1 SLOAD DUP1 ISZERO PUSH2 0x20AC JUMPI PUSH1 0x20 MUL DUP3 ADD SWAP2 SWAP1 PUSH1 0x0 MSTORE PUSH1 0x20 PUSH1 0x0 KECCAK256 SWAP1 JUMPDEST DUP2 SLOAD DUP2 MSTORE PUSH1 0x20 ADD SWAP1 PUSH1 0x1 ADD SWAP1 DUP1 DUP4 GT PUSH2 0x2098 JUMPI JUMPDEST POP POP POP POP POP SWAP2 POP DUP1 DUP1 SLOAD DUP1 PUSH1 0x20 MUL PUSH1 0x20 ADD PUSH1 0x40 MLOAD SWAP1 DUP2 ADD PUSH1 0x40 MSTORE DUP1 SWAP3 SWAP2 SWAP1 DUP2 DUP2 MSTORE PUSH1 0x20 ADD DUP3 DUP1 SLOAD DUP1 ISZERO PUSH2 0x20FE JUMPI PUSH1 0x20 MUL DUP3 ADD SWAP2 SWAP1 PUSH1 0x0 MSTORE PUSH1 0x20 PUSH1 0x0 KECCAK256 SWAP1 JUMPDEST DUP2 SLOAD DUP2 MSTORE PUSH1 0x20 ADD SWAP1 PUSH1 0x1 ADD SWAP1 DUP1 DUP4 GT PUSH2 0x20EA JUMPI JUMPDEST POP POP POP POP POP SWAP1 POP SWAP6 POP SWAP6 POP PUSH2 0x21FF JUMP JUMPDEST DUP4 PUSH1 0x40 MLOAD SWAP1 DUP1 DUP3 MSTORE DUP1 PUSH1 0x20 MUL PUSH1 0x20 ADD DUP3 ADD PUSH1 0x40 MSTORE DUP1 ISZERO PUSH2 0x213D JUMPI DUP2 PUSH1 0x20 ADD PUSH1 0x20 DUP3 MUL DUP1 CODESIZE DUP4 CODECOPY DUP1 DUP3 ADD SWAP2 POP POP SWAP1 POP JUMPDEST POP SWAP3 POP DUP4 PUSH1 0x40 MLOAD SWAP1 DUP1 DUP3 MSTORE DUP1 PUSH1 0x20 MUL PUSH1 0x20 ADD DUP3 ADD PUSH1 0x40 MSTORE DUP1 ISZERO PUSH2 0x216F JUMPI DUP2 PUSH1 0x20 ADD PUSH1 0x20 DUP3 MUL DUP1 CODESIZE DUP4 CODECOPY DUP1 DUP3 ADD SWAP2 POP POP SWAP1 POP JUMPDEST POP SWAP2 POP PUSH1 0x0 SWAP1 POP JUMPDEST DUP4 DUP2 LT ISZERO PUSH2 0x21F8 JUMPI PUSH1 0x7 DUP2 DUP2 SLOAD DUP2 LT ISZERO ISZERO PUSH2 0x218E JUMPI INVALID JUMPDEST SWAP1 PUSH1 0x0 MSTORE PUSH1 0x20 PUSH1 0x0 KECCAK256 ADD SLOAD DUP4 DUP3 DUP2 MLOAD DUP2 LT ISZERO ISZERO PUSH2 0x21A7 JUMPI INVALID JUMPDEST SWAP1 PUSH1 0x20 ADD SWAP1 PUSH1 0x20 MUL ADD DUP2 DUP2 MSTORE POP POP PUSH1 0x8 DUP2 DUP2 SLOAD DUP2 LT ISZERO ISZERO PUSH2 0x21C4 JUMPI INVALID JUMPDEST SWAP1 PUSH1 0x0 MSTORE PUSH1 0x20 PUSH1 0x0 KECCAK256 ADD SLOAD DUP3 DUP3 DUP2 MLOAD DUP2 LT ISZERO ISZERO PUSH2 0x21DD JUMPI INVALID JUMPDEST SWAP1 PUSH1 0x20 ADD SWAP1 PUSH1 0x20 MUL ADD DUP2 DUP2 MSTORE POP POP DUP1 DUP1 PUSH1 0x1 ADD SWAP2 POP POP PUSH2 0x2177 JUMP JUMPDEST DUP3 DUP3 SWAP6 POP SWAP6 POP JUMPDEST POP POP POP POP SWAP2 POP SWAP2 JUMP JUMPDEST PUSH1 0x0 PUSH1 0x60 DUP1 PUSH1 0x0 DUP1 PUSH2 0x2218 PUSH2 0x2BB6 JUMP JUMPDEST PUSH1 0x0 DUP1 SWAP1 SLOAD SWAP1 PUSH2 0x100 EXP SWAP1 DIV PUSH20 0xFFFFFFFFFFFFFFFFFFFFFFFFFFFFFFFFFFFFFFFF AND PUSH20 0xFFFFFFFFFFFFFFFFFFFFFFFFFFFFFFFFFFFFFFFF AND CALLER PUSH20 0xFFFFFFFFFFFFFFFFFFFFFFFFFFFFFFFFFFFFFFFF AND EQ ISZERO DUP1 ISZERO PUSH2 0x22AD JUMPI POP PUSH1 0x0 DUP1 PUSH1 0x0 SWAP1 SLOAD SWAP1 PUSH2 0x100 EXP SWAP1 DIV PUSH20 0xFFFFFFFFFFFFFFFFFFFFFFFFFFFFFFFFFFFFFFFF AND PUSH20 0xFFFFFFFFFFFFFFFFFFFFFFFFFFFFFFFFFFFFFFFF AND EQ ISZERO JUMPDEST ISZERO PUSH2 0x22B7 JUMPI PUSH1 0x0 DUP1 REVERT JUMPDEST PUSH1 0x2 PUSH1 0x7 DUP1 SLOAD SWAP1 POP DUP2 ISZERO ISZERO PUSH2 0x22C8 JUMPI INVALID JUMPDEST DIV SWAP6 POP DUP6 DUP8 GT ISZERO PUSH2 0x2598 JUMPI PUSH1 0x2 DUP8 MUL PUSH1 0x40 MLOAD SWAP1 DUP1 DUP3 MSTORE DUP1 PUSH1 0x20 MUL PUSH1 0x20 ADD DUP3 ADD PUSH1 0x40 MSTORE DUP1 ISZERO PUSH2 0x2305 JUMPI DUP2 PUSH1 0x20 ADD PUSH1 0x20 DUP3 MUL DUP1 CODESIZE DUP4 CODECOPY DUP1 DUP3 ADD SWAP2 POP POP SWAP1 POP JUMPDEST POP SWAP5 POP PUSH1 0x2 DUP8 MUL PUSH1 0x40 MLOAD SWAP1 DUP1 DUP3 MSTORE DUP1 PUSH1 0x20 MUL PUSH1 0x20 ADD DUP3 ADD PUSH1 0x40 MSTORE DUP1 ISZERO PUSH2 0x233A JUMPI DUP2 PUSH1 0x20 ADD PUSH1 0x20 DUP3 MUL DUP1 CODESIZE DUP4 CODECOPY DUP1 DUP3 ADD SWAP2 POP POP SWAP1 POP JUMPDEST POP SWAP4 POP PUSH1 0x0 SWAP3 POP JUMPDEST PUSH1 0x7 DUP1 SLOAD SWAP1 POP DUP4 LT ISZERO PUSH2 0x23C8 JUMPI PUSH1 0x7 DUP4 DUP2 SLOAD DUP2 LT ISZERO ISZERO PUSH2 0x235E JUMPI INVALID JUMPDEST SWAP1 PUSH1 0x0 MSTORE PUSH1 0x20 PUSH1 0x0 KECCAK256 ADD SLOAD DUP6 DUP5 DUP2 MLOAD DUP2 LT ISZERO ISZERO PUSH2 0x2377 JUMPI INVALID JUMPDEST SWAP1 PUSH1 0x20 ADD SWAP1 PUSH1 0x20 MUL ADD DUP2 DUP2 MSTORE POP POP PUSH1 0x8 DUP4 DUP2 SLOAD DUP2 LT ISZERO ISZERO PUSH2 0x2394 JUMPI INVALID JUMPDEST SWAP1 PUSH1 0x0 MSTORE PUSH1 0x20 PUSH1 0x0 KECCAK256 ADD SLOAD DUP5 DUP5 DUP2 MLOAD DUP2 LT ISZERO ISZERO PUSH2 0x23AD JUMPI INVALID JUMPDEST SWAP1 PUSH1 0x20 ADD SWAP1 PUSH1 0x20 MUL ADD DUP2 DUP2 MSTORE POP POP DUP3 DUP1 PUSH1 0x1 ADD SWAP4 POP POP PUSH2 0x2342 JUMP JUMPDEST PUSH1 0x0 DUP7 EQ ISZERO PUSH2 0x2416 JUMPI PUSH1 0x3 PUSH1 0x2 DUP1 PUSH1 0x20 MUL PUSH1 0x40 MLOAD SWAP1 DUP2 ADD PUSH1 0x40 MSTORE DUP1 SWAP3 SWAP2 SWAP1 DUP3 PUSH1 0x2 DUP1 ISZERO PUSH2 0x240A JUMPI PUSH1 0x20 MUL DUP3 ADD SWAP2 JUMPDEST DUP2 SLOAD DUP2 MSTORE PUSH1 0x20 ADD SWAP1 PUSH1 0x1 ADD SWAP1 DUP1 DUP4 GT PUSH2 0x23F6 JUMPI JUMPDEST POP POP POP POP POP SWAP1 POP PUSH2 0x246E JUMP JUMPDEST PUSH1 0x2 PUSH1 0x8 DUP1 SLOAD SWAP1 POP SUB SWAP2 POP PUSH1 0x40 DUP1 MLOAD SWAP1 DUP2 ADD PUSH1 0x40 MSTORE DUP1 PUSH1 0x8 DUP5 DUP2 SLOAD DUP2 LT ISZERO ISZERO PUSH2 0x243B JUMPI INVALID JUMPDEST SWAP1 PUSH1 0x0 MSTORE PUSH1 0x20 PUSH1 0x0 KECCAK256 ADD SLOAD DUP2 MSTORE PUSH1 0x20 ADD PUSH1 0x8 PUSH1 0x1 DUP6 ADD DUP2 SLOAD DUP2 LT ISZERO ISZERO PUSH2 0x245D JUMPI INVALID JUMPDEST SWAP1 PUSH1 0x0 MSTORE PUSH1 0x20 PUSH1 0x0 KECCAK256 ADD SLOAD DUP2 MSTORE POP SWAP1 POP JUMPDEST DUP6 SWAP3 POP JUMPDEST DUP7 DUP4 LT ISZERO PUSH2 0x2569 JUMPI DUP3 PUSH1 0x2 MUL SWAP2 POP PUSH2 0x2489 DUP2 PUSH2 0x1C55 JUMP JUMPDEST SWAP1 POP DUP1 PUSH1 0x0 PUSH1 0x2 DUP2 LT ISZERO ISZERO PUSH2 0x249A JUMPI INVALID JUMPDEST PUSH1 0x20 MUL ADD MLOAD DUP2 PUSH1 0x1 PUSH1 0x2 DUP2 LT ISZERO ISZERO PUSH2 0x24AE JUMPI INVALID JUMPDEST PUSH1 0x20 MUL ADD MLOAD DUP7 DUP5 DUP2 MLOAD DUP2 LT ISZERO ISZERO PUSH2 0x24C1 JUMPI INVALID JUMPDEST SWAP1 PUSH1 0x20 ADD SWAP1 PUSH1 0x20 MUL ADD DUP8 PUSH1 0x1 DUP7 ADD DUP2 MLOAD DUP2 LT ISZERO ISZERO PUSH2 0x24DB JUMPI INVALID JUMPDEST SWAP1 PUSH1 0x20 ADD SWAP1 PUSH1 0x20 MUL ADD DUP3 DUP2 MSTORE POP DUP3 DUP2 MSTORE POP POP POP PUSH2 0x24F7 DUP2 PUSH2 0x1C55 JUMP JUMPDEST SWAP1 POP DUP1 PUSH1 0x0 PUSH1 0x2 DUP2 LT ISZERO ISZERO PUSH2 0x2508 JUMPI INVALID JUMPDEST PUSH1 0x20 MUL ADD MLOAD DUP2 PUSH1 0x1 PUSH1 0x2 DUP2 LT ISZERO ISZERO PUSH2 0x251C JUMPI INVALID JUMPDEST PUSH1 0x20 MUL ADD MLOAD DUP6 DUP5 DUP2 MLOAD DUP2 LT ISZERO ISZERO PUSH2 0x252F JUMPI INVALID JUMPDEST SWAP1 PUSH1 0x20 ADD SWAP1 PUSH1 0x20 MUL ADD DUP7 PUSH1 0x1 DUP7 ADD DUP2 MLOAD DUP2 LT ISZERO ISZERO PUSH2 0x2549 JUMPI INVALID JUMPDEST SWAP1 PUSH1 0x20 ADD SWAP1 PUSH1 0x20 MUL ADD DUP3 DUP2 MSTORE POP DUP3 DUP2 MSTORE POP POP POP DUP3 DUP1 PUSH1 0x1 ADD SWAP4 POP POP PUSH2 0x2472 JUMP JUMPDEST DUP5 PUSH1 0x7 SWAP1 DUP1 MLOAD SWAP1 PUSH1 0x20 ADD SWAP1 PUSH2 0x257F SWAP3 SWAP2 SWAP1 PUSH2 0x2BD8 JUMP JUMPDEST POP DUP4 PUSH1 0x8 SWAP1 DUP1 MLOAD SWAP1 PUSH1 0x20 ADD SWAP1 PUSH2 0x2596 SWAP3 SWAP2 SWAP1 PUSH2 0x2BD8 JUMP JUMPDEST POP JUMPDEST POP POP POP POP POP POP POP JUMP JUMPDEST PUSH1 0x0 DUP1 SWAP1 SLOAD SWAP1 PUSH2 0x100 EXP SWAP1 DIV PUSH20 0xFFFFFFFFFFFFFFFFFFFFFFFFFFFFFFFFFFFFFFFF AND DUP2 JUMP JUMPDEST PUSH2 0x25CE PUSH2 0x2BB6 JUMP JUMPDEST PUSH2 0x25E1 DUP5 PUSH2 0x25DC DUP6 DUP6 PUSH2 0x2968 JUMP JUMPDEST PUSH2 0x15B1 JUMP JUMPDEST SWAP1 POP SWAP4 SWAP3 POP POP POP JUMP JUMPDEST PUSH1 0x0 PUSH1 0x2 PUSH1 0x7 DUP1 SLOAD SWAP1 POP DUP2 ISZERO ISZERO PUSH2 0x25FD JUMPI INVALID JUMPDEST DIV SWAP1 POP SWAP1 JUMP JUMPDEST PUSH2 0x260B PUSH2 0x2BB6 JUMP JUMPDEST PUSH2 0x2620 DUP7 PUSH2 0x261B DUP8 DUP8 DUP8 DUP8 PUSH2 0x2719 JUMP JUMPDEST PUSH2 0x15B1 JUMP JUMPDEST SWAP1 POP SWAP6 SWAP5 POP POP POP POP POP JUMP JUMPDEST PUSH2 0x2633 PUSH2 0x2BB6 JUMP JUMPDEST PUSH1 0x1 PUSH1 0x2 DUP1 PUSH1 0x20 MUL PUSH1 0x40 MLOAD SWAP1 DUP2 ADD PUSH1 0x40 MSTORE DUP1 SWAP3 SWAP2 SWAP1 DUP3 PUSH1 0x2 DUP1 ISZERO PUSH2 0x266C JUMPI PUSH1 0x20 MUL DUP3 ADD SWAP2 JUMPDEST DUP2 SLOAD DUP2 MSTORE PUSH1 0x20 ADD SWAP1 PUSH1 0x1 ADD SWAP1 DUP1 DUP4 GT PUSH2 0x2658 JUMPI JUMPDEST POP POP POP POP POP SWAP1 POP SWAP1 JUMP JUMPDEST PUSH2 0x267E PUSH2 0x2BB6 JUMP JUMPDEST PUSH2 0x26C6 DUP4 PUSH1 0x1 PUSH1 0x2 DUP1 PUSH1 0x20 MUL PUSH1 0x40 MLOAD SWAP1 DUP2 ADD PUSH1 0x40 MSTORE DUP1 SWAP3 SWAP2 SWAP1 DUP3 PUSH1 0x2 DUP1 ISZERO PUSH2 0x26BB JUMPI PUSH1 0x20 MUL DUP3 ADD SWAP2 JUMPDEST DUP2 SLOAD DUP2 MSTORE PUSH1 0x20 ADD SWAP1 PUSH1 0x1 ADD SWAP1 DUP1 DUP4 GT PUSH2 0x26A7 JUMPI JUMPDEST POP POP POP POP POP DUP5 PUSH2 0x25C6 JUMP JUMPDEST SWAP1 POP SWAP3 SWAP2 POP POP JUMP JUMPDEST PUSH2 0x26D6 PUSH2 0x2BB6 JUMP JUMPDEST PUSH1 0x5 PUSH1 0x2 DUP1 PUSH1 0x20 MUL PUSH1 0x40 MLOAD SWAP1 DUP2 ADD PUSH1 0x40 MSTORE DUP1 SWAP3 SWAP2 SWAP1 DUP3 PUSH1 0x2 DUP1 ISZERO PUSH2 0x270F JUMPI PUSH1 0x20 MUL DUP3 ADD SWAP2 JUMPDEST DUP2 SLOAD DUP2 MSTORE PUSH1 0x20 ADD SWAP1 PUSH1 0x1 ADD SWAP1 DUP1 DUP4 GT PUSH2 0x26FB JUMPI JUMPDEST POP POP POP POP POP SWAP1 POP SWAP1 JUMP JUMPDEST PUSH2 0x2721 PUSH2 0x2BB6 JUMP JUMPDEST PUSH1 0x0 DUP1 PUSH1 0x1 DUP8 MLOAD GT ISZERO ISZERO PUSH2 0x2734 JUMPI PUSH1 0x0 DUP1 REVERT JUMPDEST PUSH1 0x0 PUSH1 0x2 DUP9 MLOAD DUP2 ISZERO ISZERO PUSH2 0x2743 JUMPI INVALID JUMPDEST MOD EQ ISZERO ISZERO PUSH2 0x2750 JUMPI PUSH1 0x0 DUP1 REVERT JUMPDEST DUP6 MLOAD PUSH1 0x2 MUL DUP8 MLOAD EQ ISZERO ISZERO PUSH2 0x2763 JUMPI PUSH1 0x0 DUP1 REVERT JUMPDEST PUSH1 0x0 DUP5 EQ ISZERO PUSH2 0x2771 JUMPI DUP6 MLOAD SWAP4 POP JUMPDEST DUP5 DUP5 GT ISZERO ISZERO PUSH2 0x277F JUMPI PUSH1 0x0 DUP1 REVERT JUMPDEST DUP5 PUSH1 0x2 MUL SWAP2 POP PUSH2 0x27EB PUSH1 0x40 DUP1 MLOAD SWAP1 DUP2 ADD PUSH1 0x40 MSTORE DUP1 DUP10 DUP6 DUP2 MLOAD DUP2 LT ISZERO ISZERO PUSH2 0x27A1 JUMPI INVALID JUMPDEST SWAP1 PUSH1 0x20 ADD SWAP1 PUSH1 0x20 MUL ADD MLOAD DUP2 MSTORE PUSH1 0x20 ADD DUP10 PUSH1 0x1 DUP7 ADD DUP2 MLOAD DUP2 LT ISZERO ISZERO PUSH2 0x27C1 JUMPI INVALID JUMPDEST SWAP1 PUSH1 0x20 ADD SWAP1 PUSH1 0x20 MUL ADD MLOAD DUP2 MSTORE POP DUP8 DUP8 DUP2 MLOAD DUP2 LT ISZERO ISZERO PUSH2 0x27DC JUMPI INVALID JUMPDEST SWAP1 PUSH1 0x20 ADD SWAP1 PUSH1 0x20 MUL ADD MLOAD PUSH2 0x2968 JUMP JUMPDEST SWAP3 POP PUSH1 0x2 DUP3 ADD SWAP2 POP PUSH1 0x1 DUP6 ADD SWAP1 POP JUMPDEST DUP4 DUP2 LT ISZERO PUSH2 0x287E JUMPI PUSH2 0x2869 DUP4 PUSH1 0x40 DUP1 MLOAD SWAP1 DUP2 ADD PUSH1 0x40 MSTORE DUP1 DUP11 DUP7 DUP2 MLOAD DUP2 LT ISZERO ISZERO PUSH2 0x281F JUMPI INVALID JUMPDEST SWAP1 PUSH1 0x20 ADD SWAP1 PUSH1 0x20 MUL ADD MLOAD DUP2 MSTORE PUSH1 0x20 ADD DUP11 PUSH1 0x1 DUP8 ADD DUP2 MLOAD DUP2 LT ISZERO ISZERO PUSH2 0x283F JUMPI INVALID JUMPDEST SWAP1 PUSH1 0x20 ADD SWAP1 PUSH1 0x20 MUL ADD MLOAD DUP2 MSTORE POP DUP9 DUP5 DUP2 MLOAD DUP2 LT ISZERO ISZERO PUSH2 0x285A JUMPI INVALID JUMPDEST SWAP1 PUSH1 0x20 ADD SWAP1 PUSH1 0x20 MUL ADD MLOAD PUSH2 0x25C6 JUMP JUMPDEST SWAP3 POP PUSH1 0x2 DUP3 ADD SWAP2 POP DUP1 DUP1 PUSH1 0x1 ADD SWAP2 POP POP PUSH2 0x27FA JUMP JUMPDEST POP POP SWAP5 SWAP4 POP POP POP POP JUMP JUMPDEST PUSH1 0x0 PUSH32 0x30644E72E131A029B85045B68181585D97816A916871CA8D3C208C16D87CFD47 SWAP1 POP SWAP1 JUMP JUMPDEST PUSH1 0x0 DUP1 SWAP1 SLOAD SWAP1 PUSH2 0x100 EXP SWAP1 DIV PUSH20 0xFFFFFFFFFFFFFFFFFFFFFFFFFFFFFFFFFFFFFFFF AND PUSH20 0xFFFFFFFFFFFFFFFFFFFFFFFFFFFFFFFFFFFFFFFF AND CALLER PUSH20 0xFFFFFFFFFFFFFFFFFFFFFFFFFFFFFFFFFFFFFFFF AND EQ ISZERO DUP1 ISZERO PUSH2 0x2945 JUMPI POP PUSH1 0x0 DUP1 PUSH1 0x0 SWAP1 SLOAD SWAP1 PUSH2 0x100 EXP SWAP1 DIV PUSH20 0xFFFFFFFFFFFFFFFFFFFFFFFFFFFFFFFFFFFFFFFF AND PUSH20 0xFFFFFFFFFFFFFFFFFFFFFFFFFFFFFFFFFFFFFFFF AND EQ ISZERO JUMPDEST ISZERO PUSH2 0x294F JUMPI PUSH1 0x0 DUP1 REVERT JUMPDEST CALLER PUSH20 0xFFFFFFFFFFFFFFFFFFFFFFFFFFFFFFFFFFFFFFFF AND SELFDESTRUCT JUMPDEST PUSH2 0x2970 PUSH2 0x2BB6 JUMP JUMPDEST PUSH1 0x40 MLOAD DUP4 MLOAD DUP2 MSTORE PUSH1 0x20 DUP5 ADD MLOAD PUSH1 0x20 DUP3 ADD MSTORE DUP3 PUSH1 0x40 DUP3 ADD MSTORE PUSH1 0x40 DUP2 PUSH1 0x60 DUP4 PUSH1 0x0 PUSH1 0x7 PUSH2 0x7D0 GAS SUB CALL DUP1 PUSH1 0x0 DUP2 EQ PUSH2 0x29A5 JUMPI PUSH2 0x29AA JUMP JUMPDEST PUSH1 0x80 DUP4 REVERT JUMPDEST POP DUP2 MLOAD DUP4 MSTORE PUSH1 0x20 DUP3 ADD MLOAD PUSH1 0x20 DUP5 ADD MSTORE POP POP SWAP3 SWAP2 POP POP JUMP JUMPDEST PUSH2 0x29C9 PUSH2 0x2BB6 JUMP JUMPDEST PUSH1 0x3 PUSH1 0x2 DUP1 PUSH1 0x20 MUL PUSH1 0x40 MLOAD SWAP1 DUP2 ADD PUSH1 0x40 MSTORE DUP1 SWAP3 SWAP2 SWAP1 DUP3 PUSH1 0x2 DUP1 ISZERO PUSH2 0x2A02 JUMPI PUSH1 0x20 MUL DUP3 ADD SWAP2 JUMPDEST DUP2 SLOAD DUP2 MSTORE PUSH1 0x20 ADD SWAP1 PUSH1 0x1 ADD SWAP1 DUP1 DUP4 GT PUSH2 0x29EE JUMPI JUMPDEST POP POP POP POP POP SWAP1 POP SWAP1 JUMP JUMPDEST PUSH1 0x60 PUSH1 0x0 DUP1 PUSH2 0x2A19 PUSH2 0x2BB6 JUMP JUMPDEST PUSH1 0x0 DUP6 MLOAD GT ISZERO ISZERO PUSH2 0x2A29 JUMPI PUSH1 0x0 DUP1 REVERT JUMPDEST PUSH1 0x2 DUP6 MLOAD MUL DUP7 MLOAD EQ ISZERO ISZERO PUSH2 0x2A3C JUMPI PUSH1 0x0 DUP1 REVERT JUMPDEST DUP6 MLOAD PUSH1 0x40 MLOAD SWAP1 DUP1 DUP3 MSTORE DUP1 PUSH1 0x20 MUL PUSH1 0x20 ADD DUP3 ADD PUSH1 0x40 MSTORE DUP1 ISZERO PUSH2 0x2A6C JUMPI DUP2 PUSH1 0x20 ADD PUSH1 0x20 DUP3 MUL DUP1 CODESIZE DUP4 CODECOPY DUP1 DUP3 ADD SWAP2 POP POP SWAP1 POP JUMPDEST POP SWAP4 POP PUSH1 0x0 SWAP3 POP JUMPDEST DUP5 MLOAD DUP4 LT ISZERO PUSH2 0x2B5B JUMPI DUP3 PUSH1 0x2 MUL SWAP2 POP PUSH2 0x2AE9 PUSH1 0x40 DUP1 MLOAD SWAP1 DUP2 ADD PUSH1 0x40 MSTORE DUP1 DUP9 DUP6 DUP2 MLOAD DUP2 LT ISZERO ISZERO PUSH2 0x2A9F JUMPI INVALID JUMPDEST SWAP1 PUSH1 0x20 ADD SWAP1 PUSH1 0x20 MUL ADD MLOAD DUP2 MSTORE PUSH1 0x20 ADD DUP9 PUSH1 0x1 DUP7 ADD DUP2 MLOAD DUP2 LT ISZERO ISZERO PUSH2 0x2ABF JUMPI INVALID JUMPDEST SWAP1 PUSH1 0x20 ADD SWAP1 PUSH1 0x20 MUL ADD MLOAD DUP2 MSTORE POP DUP7 DUP6 DUP2 MLOAD DUP2 LT ISZERO ISZERO PUSH2 0x2ADA JUMPI INVALID JUMPDEST SWAP1 PUSH1 0x20 ADD SWAP1 PUSH1 0x20 MUL ADD MLOAD PUSH2 0x2968 JUMP JUMPDEST SWAP1 POP DUP1 PUSH1 0x0 PUSH1 0x2 DUP2 LT ISZERO ISZERO PUSH2 0x2AFA JUMPI INVALID JUMPDEST PUSH1 0x20 MUL ADD MLOAD DUP2 PUSH1 0x1 PUSH1 0x2 DUP2 LT ISZERO ISZERO PUSH2 0x2B0E JUMPI INVALID JUMPDEST PUSH1 0x20 MUL ADD MLOAD DUP6 DUP5 DUP2 MLOAD DUP2 LT ISZERO ISZERO PUSH2 0x2B21 JUMPI INVALID JUMPDEST SWAP1 PUSH1 0x20 ADD SWAP1 PUSH1 0x20 MUL ADD DUP7 PUSH1 0x1 DUP7 ADD DUP2 MLOAD DUP2 LT ISZERO ISZERO PUSH2 0x2B3B JUMPI INVALID JUMPDEST SWAP1 PUSH1 0x20 ADD SWAP1 PUSH1 0x20 MUL ADD DUP3 DUP2 MSTORE POP DUP3 DUP2 MSTORE POP POP POP DUP3 DUP1 PUSH1 0x1 ADD SWAP4 POP POP PUSH2 0x2A74 JUMP JUMPDEST POP POP POP SWAP3 SWAP2 POP POP JUMP JUMPDEST PUSH1 0x0 PUSH32 0x30644E72E131A029B85045B68181585D2833E84879B9709143E1F593F0000001 SWAP1 POP SWAP1 JUMP JUMPDEST PUSH2 0x2B94 PUSH2 0x2BB6 JUMP JUMPDEST PUSH2 0x2BAE PUSH2 0x2BA0 DUP5 PUSH2 0x155B JUMP JUMPDEST PUSH2 0x2BA9 DUP5 PUSH2 0x1D5B JUMP JUMPDEST PUSH2 0x15B1 JUMP JUMPDEST SWAP1 POP SWAP3 SWAP2 POP POP JUMP JUMPDEST PUSH1 0x40 DUP1 MLOAD SWAP1 DUP2 ADD PUSH1 0x40 MSTORE DUP1 PUSH1 0x2 SWAP1 PUSH1 0x20 DUP3 MUL DUP1 CODESIZE DUP4 CODECOPY DUP1 DUP3 ADD SWAP2 POP POP SWAP1 POP POP SWAP1 JUMP JUMPDEST DUP3 DUP1 SLOAD DUP3 DUP3 SSTORE SWAP1 PUSH1 0x0 MSTORE PUSH1 0x20 PUSH1 0x0 KECCAK256 SWAP1 DUP2 ADD SWAP3 DUP3 ISZERO PUSH2 0x2C14 JUMPI SWAP2 PUSH1 0x20 MUL DUP3 ADD JUMPDEST DUP3 DUP2 GT ISZERO PUSH2 0x2C13 JUMPI DUP3 MLOAD DUP3 SSTORE SWAP2 PUSH1 0x20 ADD SWAP2 SWAP1 PUSH1 0x1 ADD SWAP1 PUSH2 0x2BF8 JUMP JUMPDEST JUMPDEST POP SWAP1 POP PUSH2 0x2C21 SWAP2 SWAP1 PUSH2 0x2C25 JUMP JUMPDEST POP SWAP1 JUMP JUMPDEST PUSH2 0x2C47 SWAP2 SWAP1 JUMPDEST DUP1 DUP3 GT ISZERO PUSH2 0x2C43 JUMPI PUSH1 0x0 DUP2 PUSH1 0x0 SWAP1 SSTORE POP PUSH1 0x1 ADD PUSH2 0x2C2B JUMP JUMPDEST POP SWAP1 JUMP JUMPDEST SWAP1 JUMP STOP LOG1 PUSH6 0x627A7A723058 KECCAK256 DUP9 DUP10 SDIV PUSH13 0x51C883C8E8D9173E0782DF7EA6 MUL 0xcd PUSH28 0xF6316E8CE7AB5CE365E570AF00290000000000000000000000000000 "
		},
		"gasEstimates": {
			"creation": {
				"codeDepositCost": "2276400",
				"executionCost": "infinite",
				"totalCost": "infinite"
			},
			"external": {
				"Add(uint256[2],uint256[2])": "infinite",
				"AddMultiExp(uint256[2],uint256[],uint256[],uint256,uint256)": "infinite",
				"AddMultiply(uint256[2],uint256[2],uint256)": "infinite",
				"AddMultiplyG1(uint256[2],uint256)": "infinite",
				"AddMultiplyH(uint256[2],uint256)": "infinite",
				"CommitAB(uint256[],uint256[],uint256[],uint256[])": "infinite",
				"CommitG1H(uint256,uint256)": "infinite",
				"CompressPoint(uint256[2])": "infinite",
				"Equals(uint256[2],uint256[2])": "infinite",
				"EvaluateCurve(uint256)": "infinite",
				"ExpandPoint(uint256)": "infinite",
				"GenerateBasePointVectors(uint256)": "infinite",
				"GetAddress(uint256[2])": "infinite",
				"GetAddressFromPrivateKey(uint256)": "infinite",
				"GetG1()": "infinite",
				"GetGiHi(uint256)": "infinite",
				"GetGiHiLength()": "925",
				"GetH()": "infinite",
				"GetInfinity()": "infinite",
				"GetNCurve()": "928",
				"GetPCurve()": "818",
				"GetPublicKeyFromPrivateKey(uint256)": "infinite",
				"HashOfPoint(uint256[2])": "infinite",
				"HashToPoint(uint256[2])": "infinite",
				"Kill()": "31322",
				"MultiExp(uint256[],uint256[],uint256,uint256)": "infinite",
				"Multiply(uint256[2],uint256)": "infinite",
				"MultiplyG1(uint256)": "infinite",
				"MultiplyH(uint256)": "infinite",
				"Negate(uint256[2])": "infinite",
				"Subtract(uint256[2],uint256[2])": "infinite",
				"VectorAdd(uint256[],uint256[])": "infinite",
				"VectorMul(uint256[],uint256[])": "infinite",
				"VectorScale(uint256[],uint256)": "infinite",
				"owner()": "882"
			}
		},
		"methodIdentifiers": {
			"Add(uint256[2],uint256[2])": "0c753fe8",
			"AddMultiExp(uint256[2],uint256[],uint256[],uint256,uint256)": "ad4310f5",
			"AddMultiply(uint256[2],uint256[2],uint256)": "9c050a4a",
			"AddMultiplyG1(uint256[2],uint256)": "b0f5c83a",
			"AddMultiplyH(uint256[2],uint256)": "012421f9",
			"CommitAB(uint256[],uint256[],uint256[],uint256[])": "841675c9",
			"CommitG1H(uint256,uint256)": "e76f8e66",
			"CompressPoint(uint256[2])": "71b1c161",
			"Equals(uint256[2],uint256[2])": "1ce9d895",
			"EvaluateCurve(uint256)": "66230bd9",
			"ExpandPoint(uint256)": "5da7f69e",
			"GenerateBasePointVectors(uint256)": "8b05a64a",
			"GetAddress(uint256[2])": "37a8b202",
			"GetAddressFromPrivateKey(uint256)": "1bea22e6",
			"GetG1()": "ae5d39f6",
			"GetGiHi(uint256)": "8ac1c8d4",
			"GetGiHiLength()": "a77a970d",
			"GetH()": "c1eeb1fe",
			"GetInfinity()": "b866cf29",
			"GetNCurve()": "d1ff535b",
			"GetPCurve()": "bab5064c",
			"GetPublicKeyFromPrivateKey(uint256)": "16491f3e",
			"HashOfPoint(uint256[2])": "758bad98",
			"HashToPoint(uint256[2])": "6032fc3f",
			"Kill()": "be26733c",
			"MultiExp(uint256[],uint256[],uint256,uint256)": "ba7d3977",
			"Multiply(uint256[2],uint256)": "c025d89b",
			"MultiplyG1(uint256)": "0819336a",
			"MultiplyH(uint256)": "639649c4",
			"Negate(uint256[2])": "5f033797",
			"Subtract(uint256[2],uint256[2])": "80bca979",
			"VectorAdd(uint256[],uint256[])": "20cebc5c",
			"VectorMul(uint256[],uint256[])": "cf60976a",
			"VectorScale(uint256[],uint256)": "3b4c2ede",
			"owner()": "8da5cb5b"
		}
	},
	"abi": [
		{
			"constant": true,
			"inputs": [
				{
					"name": "p_add",
					"type": "uint256[2]"
				},
				{
					"name": "s",
					"type": "uint256"
				}
			],
			"name": "AddMultiplyH",
			"outputs": [
				{
					"name": "p0",
					"type": "uint256[2]"
				}
			],
			"payable": false,
			"stateMutability": "view",
			"type": "function"
		},
		{
			"constant": true,
			"inputs": [
				{
					"name": "s",
					"type": "uint256"
				}
			],
			"name": "MultiplyG1",
			"outputs": [
				{
					"name": "p0",
					"type": "uint256[2]"
				}
			],
			"payable": false,
			"stateMutability": "view",
			"type": "function"
		},
		{
			"constant": true,
			"inputs": [
				{
					"name": "p0",
					"type": "uint256[2]"
				},
				{
					"name": "p1",
					"type": "uint256[2]"
				}
			],
			"name": "Add",
			"outputs": [
				{
					"name": "p2",
					"type": "uint256[2]"
				}
			],
			"payable": false,
			"stateMutability": "view",
			"type": "function"
		},
		{
			"constant": true,
			"inputs": [
				{
					"name": "privatekey",
					"type": "uint256"
				}
			],
			"name": "GetPublicKeyFromPrivateKey",
			"outputs": [
				{
					"name": "PubKey",
					"type": "uint256[2]"
				}
			],
			"payable": false,
			"stateMutability": "view",
			"type": "function"
		},
		{
			"constant": true,
			"inputs": [
				{
					"name": "privatekey",
					"type": "uint256"
				}
			],
			"name": "GetAddressFromPrivateKey",
			"outputs": [
				{
					"name": "addr",
					"type": "address"
				}
			],
			"payable": false,
			"stateMutability": "view",
			"type": "function"
		},
		{
			"constant": true,
			"inputs": [
				{
					"name": "p1",
					"type": "uint256[2]"
				},
				{
					"name": "p2",
					"type": "uint256[2]"
				}
			],
			"name": "Equals",
			"outputs": [
				{
					"name": "",
					"type": "bool"
				}
			],
			"payable": false,
			"stateMutability": "view",
			"type": "function"
		},
		{
			"constant": true,
			"inputs": [
				{
					"name": "X",
					"type": "uint256[]"
				},
				{
					"name": "Y",
					"type": "uint256[]"
				}
			],
			"name": "VectorAdd",
			"outputs": [
				{
					"name": "Z",
					"type": "uint256[]"
				}
			],
			"payable": false,
			"stateMutability": "view",
			"type": "function"
		},
		{
			"constant": true,
			"inputs": [
				{
					"name": "PubKey",
					"type": "uint256[2]"
				}
			],
			"name": "GetAddress",
			"outputs": [
				{
					"name": "addr",
					"type": "address"
				}
			],
			"payable": false,
			"stateMutability": "view",
			"type": "function"
		},
		{
			"constant": true,
			"inputs": [
				{
					"name": "X",
					"type": "uint256[]"
				},
				{
					"name": "s",
					"type": "uint256"
				}
			],
			"name": "VectorScale",
			"outputs": [
				{
					"name": "Z",
					"type": "uint256[]"
				}
			],
			"payable": false,
			"stateMutability": "view",
			"type": "function"
		},
		{
			"constant": true,
			"inputs": [
				{
					"name": "Pin",
					"type": "uint256"
				}
			],
			"name": "ExpandPoint",
			"outputs": [
				{
					"name": "Pout",
					"type": "uint256[2]"
				}
			],
			"payable": false,
			"stateMutability": "view",
			"type": "function"
		},
		{
			"constant": true,
			"inputs": [
				{
					"name": "p1",
					"type": "uint256[2]"
				}
			],
			"name": "Negate",
			"outputs": [
				{
					"name": "p2",
					"type": "uint256[2]"
				}
			],
			"payable": false,
			"stateMutability": "view",
			"type": "function"
		},
		{
			"constant": true,
			"inputs": [
				{
					"name": "p",
					"type": "uint256[2]"
				}
			],
			"name": "HashToPoint",
			"outputs": [
				{
					"name": "h",
					"type": "uint256[2]"
				}
			],
			"payable": false,
			"stateMutability": "view",
			"type": "function"
		},
		{
			"constant": true,
			"inputs": [
				{
					"name": "s",
					"type": "uint256"
				}
			],
			"name": "MultiplyH",
			"outputs": [
				{
					"name": "p0",
					"type": "uint256[2]"
				}
			],
			"payable": false,
			"stateMutability": "view",
			"type": "function"
		},
		{
			"constant": true,
			"inputs": [
				{
					"name": "x",
					"type": "uint256"
				}
			],
			"name": "EvaluateCurve",
			"outputs": [
				{
					"name": "y",
					"type": "uint256"
				},
				{
					"name": "onCurve",
					"type": "bool"
				}
			],
			"payable": false,
			"stateMutability": "view",
			"type": "function"
		},
		{
			"constant": true,
			"inputs": [
				{
					"name": "Pin",
					"type": "uint256[2]"
				}
			],
			"name": "CompressPoint",
			"outputs": [
				{
					"name": "Pout",
					"type": "uint256"
				}
			],
			"payable": false,
			"stateMutability": "view",
			"type": "function"
		},
		{
			"constant": true,
			"inputs": [
				{
					"name": "point",
					"type": "uint256[2]"
				}
			],
			"name": "HashOfPoint",
			"outputs": [
				{
					"name": "h",
					"type": "uint256"
				}
			],
			"payable": false,
			"stateMutability": "view",
			"type": "function"
		},
		{
			"constant": true,
			"inputs": [
				{
					"name": "p0",
					"type": "uint256[2]"
				},
				{
					"name": "p1",
					"type": "uint256[2]"
				}
			],
			"name": "Subtract",
			"outputs": [
				{
					"name": "p2",
					"type": "uint256[2]"
				}
			],
			"payable": false,
			"stateMutability": "view",
			"type": "function"
		},
		{
			"constant": true,
			"inputs": [
				{
					"name": "X",
					"type": "uint256[]"
				},
				{
					"name": "Y",
					"type": "uint256[]"
				},
				{
					"name": "x",
					"type": "uint256[]"
				},
				{
					"name": "y",
					"type": "uint256[]"
				}
			],
			"name": "CommitAB",
			"outputs": [
				{
					"name": "px",
					"type": "uint256[2]"
				},
				{
					"name": "py",
					"type": "uint256[2]"
				}
			],
			"payable": false,
			"stateMutability": "view",
			"type": "function"
		},
		{
			"constant": true,
			"inputs": [
				{
					"name": "N",
					"type": "uint256"
				}
			],
			"name": "GetGiHi",
			"outputs": [
				{
					"name": "",
					"type": "uint256[]"
				},
				{
					"name": "",
					"type": "uint256[]"
				}
			],
			"payable": false,
			"stateMutability": "view",
			"type": "function"
		},
		{
			"constant": false,
			"inputs": [
				{
					"name": "N",
					"type": "uint256"
				}
			],
			"name": "GenerateBasePointVectors",
			"outputs": [],
			"payable": false,
			"stateMutability": "nonpayable",
			"type": "function"
		},
		{
			"constant": true,
			"inputs": [],
			"name": "owner",
			"outputs": [
				{
					"name": "",
					"type": "address"
				}
			],
			"payable": false,
			"stateMutability": "view",
			"type": "function"
		},
		{
			"constant": true,
			"inputs": [
				{
					"name": "p_add",
					"type": "uint256[2]"
				},
				{
					"name": "p_mul",
					"type": "uint256[2]"
				},
				{
					"name": "s",
					"type": "uint256"
				}
			],
			"name": "AddMultiply",
			"outputs": [
				{
					"name": "p0",
					"type": "uint256[2]"
				}
			],
			"payable": false,
			"stateMutability": "view",
			"type": "function"
		},
		{
			"constant": true,
			"inputs": [],
			"name": "GetGiHiLength",
			"outputs": [
				{
					"name": "",
					"type": "uint256"
				}
			],
			"payable": false,
			"stateMutability": "view",
			"type": "function"
		},
		{
			"constant": true,
			"inputs": [
				{
					"name": "Pin",
					"type": "uint256[2]"
				},
				{
					"name": "P",
					"type": "uint256[]"
				},
				{
					"name": "s",
					"type": "uint256[]"
				},
				{
					"name": "start",
					"type": "uint256"
				},
				{
					"name": "end",
					"type": "uint256"
				}
			],
			"name": "AddMultiExp",
			"outputs": [
				{
					"name": "Pout",
					"type": "uint256[2]"
				}
			],
			"payable": false,
			"stateMutability": "view",
			"type": "function"
		},
		{
			"constant": true,
			"inputs": [],
			"name": "GetG1",
			"outputs": [
				{
					"name": "",
					"type": "uint256[2]"
				}
			],
			"payable": false,
			"stateMutability": "view",
			"type": "function"
		},
		{
			"constant": true,
			"inputs": [
				{
					"name": "p_add",
					"type": "uint256[2]"
				},
				{
					"name": "s",
					"type": "uint256"
				}
			],
			"name": "AddMultiplyG1",
			"outputs": [
				{
					"name": "p0",
					"type": "uint256[2]"
				}
			],
			"payable": false,
			"stateMutability": "view",
			"type": "function"
		},
		{
			"constant": true,
			"inputs": [],
			"name": "GetInfinity",
			"outputs": [
				{
					"name": "",
					"type": "uint256[2]"
				}
			],
			"payable": false,
			"stateMutability": "view",
			"type": "function"
		},
		{
			"constant": true,
			"inputs": [
				{
					"name": "P",
					"type": "uint256[]"
				},
				{
					"name": "s",
					"type": "uint256[]"
				},
				{
					"name": "start",
					"type": "uint256"
				},
				{
					"name": "end",
					"type": "uint256"
				}
			],
			"name": "MultiExp",
			"outputs": [
				{
					"name": "Pout",
					"type": "uint256[2]"
				}
			],
			"payable": false,
			"stateMutability": "view",
			"type": "function"
		},
		{
			"constant": true,
			"inputs": [],
			"name": "GetPCurve",
			"outputs": [
				{
					"name": "",
					"type": "uint256"
				}
			],
			"payable": false,
			"stateMutability": "view",
			"type": "function"
		},
		{
			"constant": false,
			"inputs": [],
			"name": "Kill",
			"outputs": [],
			"payable": false,
			"stateMutability": "nonpayable",
			"type": "function"
		},
		{
			"constant": true,
			"inputs": [
				{
					"name": "p0",
					"type": "uint256[2]"
				},
				{
					"name": "s",
					"type": "uint256"
				}
			],
			"name": "Multiply",
			"outputs": [
				{
					"name": "p1",
					"type": "uint256[2]"
				}
			],
			"payable": false,
			"stateMutability": "view",
			"type": "function"
		},
		{
			"constant": true,
			"inputs": [],
			"name": "GetH",
			"outputs": [
				{
					"name": "",
					"type": "uint256[2]"
				}
			],
			"payable": false,
			"stateMutability": "view",
			"type": "function"
		},
		{
			"constant": true,
			"inputs": [
				{
					"name": "X",
					"type": "uint256[]"
				},
				{
					"name": "s",
					"type": "uint256[]"
				}
			],
			"name": "VectorMul",
			"outputs": [
				{
					"name": "Z",
					"type": "uint256[]"
				}
			],
			"payable": false,
			"stateMutability": "view",
			"type": "function"
		},
		{
			"constant": true,
			"inputs": [],
			"name": "GetNCurve",
			"outputs": [
				{
					"name": "",
					"type": "uint256"
				}
			],
			"payable": false,
			"stateMutability": "view",
			"type": "function"
		},
		{
			"constant": true,
			"inputs": [
				{
					"name": "s_G1",
					"type": "uint256"
				},
				{
					"name": "s_H",
					"type": "uint256"
				}
			],
			"name": "CommitG1H",
			"outputs": [
				{
					"name": "p0",
					"type": "uint256[2]"
				}
			],
			"payable": false,
			"stateMutability": "view",
			"type": "function"
		},
		{
			"inputs": [
				{
					"name": "N",
					"type": "uint256"
				}
			],
			"payable": false,
			"stateMutability": "nonpayable",
			"type": "constructor"
		},
		{
			"anonymous": false,
			"inputs": [
				{
					"indexed": false,
					"name": "marker",
					"type": "string"
				},
				{
					"indexed": false,
					"name": "data",
					"type": "uint256"
				}
			],
			"name": "DebugEvent",
			"type": "event"
		},
		{
			"anonymous": false,
			"inputs": [
				{
					"indexed": false,
					"name": "marker",
					"type": "string"
				},
				{
					"indexed": false,
					"name": "data",
					"type": "uint256[]"
				}
			],
			"name": "DebugEvent2",
			"type": "event"
		}
	]
}